{
  "contractName": "AccessControlEnumerableMock",
  "abi": [
    {
      "inputs": [],
      "stateMutability": "nonpayable",
      "type": "constructor"
    },
    {
      "anonymous": false,
      "inputs": [
        {
          "indexed": true,
          "internalType": "bytes32",
          "name": "role",
          "type": "bytes32"
        },
        {
          "indexed": true,
          "internalType": "bytes32",
          "name": "previousAdminRole",
          "type": "bytes32"
        },
        {
          "indexed": true,
          "internalType": "bytes32",
          "name": "newAdminRole",
          "type": "bytes32"
        }
      ],
      "name": "RoleAdminChanged",
      "type": "event"
    },
    {
      "anonymous": false,
      "inputs": [
        {
          "indexed": true,
          "internalType": "bytes32",
          "name": "role",
          "type": "bytes32"
        },
        {
          "indexed": true,
          "internalType": "address",
          "name": "account",
          "type": "address"
        },
        {
          "indexed": true,
          "internalType": "address",
          "name": "sender",
          "type": "address"
        }
      ],
      "name": "RoleGranted",
      "type": "event"
    },
    {
      "anonymous": false,
      "inputs": [
        {
          "indexed": true,
          "internalType": "bytes32",
          "name": "role",
          "type": "bytes32"
        },
        {
          "indexed": true,
          "internalType": "address",
          "name": "account",
          "type": "address"
        },
        {
          "indexed": true,
          "internalType": "address",
          "name": "sender",
          "type": "address"
        }
      ],
      "name": "RoleRevoked",
      "type": "event"
    },
    {
      "inputs": [],
      "name": "DEFAULT_ADMIN_ROLE",
      "outputs": [
        {
          "internalType": "bytes32",
          "name": "",
          "type": "bytes32"
        }
      ],
      "stateMutability": "view",
      "type": "function"
    },
    {
      "inputs": [
        {
          "internalType": "bytes32",
          "name": "role",
          "type": "bytes32"
        }
      ],
      "name": "getRoleAdmin",
      "outputs": [
        {
          "internalType": "bytes32",
          "name": "",
          "type": "bytes32"
        }
      ],
      "stateMutability": "view",
      "type": "function"
    },
    {
      "inputs": [
        {
          "internalType": "bytes32",
          "name": "role",
          "type": "bytes32"
        },
        {
          "internalType": "uint256",
          "name": "index",
          "type": "uint256"
        }
      ],
      "name": "getRoleMember",
      "outputs": [
        {
          "internalType": "address",
          "name": "",
          "type": "address"
        }
      ],
      "stateMutability": "view",
      "type": "function"
    },
    {
      "inputs": [
        {
          "internalType": "bytes32",
          "name": "role",
          "type": "bytes32"
        }
      ],
      "name": "getRoleMemberCount",
      "outputs": [
        {
          "internalType": "uint256",
          "name": "",
          "type": "uint256"
        }
      ],
      "stateMutability": "view",
      "type": "function"
    },
    {
      "inputs": [
        {
          "internalType": "bytes32",
          "name": "role",
          "type": "bytes32"
        },
        {
          "internalType": "address",
          "name": "account",
          "type": "address"
        }
      ],
      "name": "grantRole",
      "outputs": [],
      "stateMutability": "nonpayable",
      "type": "function"
    },
    {
      "inputs": [
        {
          "internalType": "bytes32",
          "name": "role",
          "type": "bytes32"
        },
        {
          "internalType": "address",
          "name": "account",
          "type": "address"
        }
      ],
      "name": "hasRole",
      "outputs": [
        {
          "internalType": "bool",
          "name": "",
          "type": "bool"
        }
      ],
      "stateMutability": "view",
      "type": "function"
    },
    {
      "inputs": [
        {
          "internalType": "bytes32",
          "name": "role",
          "type": "bytes32"
        },
        {
          "internalType": "address",
          "name": "account",
          "type": "address"
        }
      ],
      "name": "renounceRole",
      "outputs": [],
      "stateMutability": "nonpayable",
      "type": "function"
    },
    {
      "inputs": [
        {
          "internalType": "bytes32",
          "name": "role",
          "type": "bytes32"
        },
        {
          "internalType": "address",
          "name": "account",
          "type": "address"
        }
      ],
      "name": "revokeRole",
      "outputs": [],
      "stateMutability": "nonpayable",
      "type": "function"
    },
    {
      "inputs": [
        {
          "internalType": "bytes4",
          "name": "interfaceId",
          "type": "bytes4"
        }
      ],
      "name": "supportsInterface",
      "outputs": [
        {
          "internalType": "bool",
          "name": "",
          "type": "bool"
        }
      ],
      "stateMutability": "view",
      "type": "function"
    },
    {
      "inputs": [
        {
          "internalType": "bytes32",
          "name": "roleId",
          "type": "bytes32"
        },
        {
          "internalType": "bytes32",
          "name": "adminRoleId",
          "type": "bytes32"
        }
      ],
      "name": "setRoleAdmin",
      "outputs": [],
      "stateMutability": "nonpayable",
      "type": "function"
    },
    {
      "inputs": [
        {
          "internalType": "bytes32",
          "name": "roleId",
          "type": "bytes32"
        }
      ],
      "name": "senderProtected",
      "outputs": [],
      "stateMutability": "nonpayable",
      "type": "function"
    }
  ],
  "bytecode": "0x608060405234801561001057600080fd5b5061001c600033610021565b610177565b61002b828261002f565b5050565b610043828261006c60201b6103141760201c565b600082815260016020908152604090912061006791839061039861010a821b17901c565b505050565b6000828152602081815260408083206001600160a01b038516845290915290205460ff1661002b576000828152602081815260408083206001600160a01b03851684529091529020805460ff191660011790556100c63390565b6001600160a01b0316816001600160a01b0316837f2f8788117e7eff1d82e926ec794901d17c78024a50270940304540a733656f0d60405160405180910390a45050565b600061011f836001600160a01b038416610128565b90505b92915050565b600081815260018301602052604081205461016f57508154600181810184556000848152602080822090930184905584548482528286019093526040902091909155610122565b506000610122565b610aee806101866000396000f3fe608060405234801561001057600080fd5b50600436106100995760003560e01c806301ffc9a71461009e5780631e4e0091146100c6578063248a9ca3146100db5780632f2ff15d146100fc57806336568abe1461010f5780634b9304a4146101225780639010d07c1461013557806391d1485414610160578063a217fddf14610173578063ca15c8731461017b578063d547741f1461018e575b600080fd5b6100b16100ac366004610888565b6101a1565b60405190151581526020015b60405180910390f35b6100d96100d43660046108b2565b6101cc565b005b6100ee6100e93660046108d4565b6101da565b6040519081526020016100bd565b6100d961010a3660046108ed565b6101ef565b6100d961011d3660046108ed565b610210565b6100d96101303660046108d4565b61028f565b6101486101433660046108b2565b610299565b6040516001600160a01b0390911681526020016100bd565b6100b161016e3660046108ed565b6102b8565b6100ee600081565b6100ee6101893660046108d4565b6102e1565b6100d961019c3660046108ed565b6102f8565b60006001600160e01b03198216635a05180f60e01b14806101c657506101c6826103ad565b92915050565b6101d682826103e2565b5050565b60009081526020819052604090206001015490565b6101f8826101da565b61020181610435565b61020b8383610442565b505050565b6001600160a01b03811633146102855760405162461bcd60e51b815260206004820152602f60248201527f416363657373436f6e74726f6c3a2063616e206f6e6c792072656e6f756e636560448201526e103937b632b9903337b91039b2b63360891b60648201526084015b60405180910390fd5b6101d68282610464565b806101d681610435565b60008281526001602052604081206102b19083610486565b9392505050565b6000918252602082815260408084206001600160a01b0393909316845291905290205460ff1690565b60008181526001602052604081206101c690610492565b610301826101da565b61030a81610435565b61020b8383610464565b61031e82826102b8565b6101d6576000828152602081815260408083206001600160a01b03851684529091529020805460ff191660011790556103543390565b6001600160a01b0316816001600160a01b0316837f2f8788117e7eff1d82e926ec794901d17c78024a50270940304540a733656f0d60405160405180910390a45050565b60006102b1836001600160a01b03841661049c565b60006001600160e01b03198216637965db0b60e01b14806101c657506301ffc9a760e01b6001600160e01b03198316146101c6565b60006103ed836101da565b600084815260208190526040808220600101859055519192508391839186917fbd79b86ffe0ab8e8776151514217cd7cacd52c909f66475c3af44e129f0b00ff9190a4505050565b61043f81336104eb565b50565b61044c8282610314565b600082815260016020526040902061020b9082610398565b61046e8282610544565b600082815260016020526040902061020b90826105a9565b60006102b183836105be565b60006101c6825490565b60008181526001830160205260408120546104e3575081546001818101845560008481526020808220909301849055845484825282860190935260409020919091556101c6565b5060006101c6565b6104f582826102b8565b6101d657610502816105e8565b61050d8360206105fa565b60405160200161051e929190610959565b60408051601f198184030181529082905262461bcd60e51b825261027c916004016109c8565b61054e82826102b8565b156101d6576000828152602081815260408083206001600160a01b0385168085529252808320805460ff1916905551339285917ff6391f5c32d9c69d2a47ea670b442974b53935d1edc7fd64eb21e047a839171b9190a45050565b60006102b1836001600160a01b038416610795565b60008260000182815481106105d5576105d56109fb565b9060005260206000200154905092915050565b60606101c66001600160a01b03831660145b60606000610609836002610a27565b610614906002610a46565b6001600160401b0381111561062b5761062b610a5e565b6040519080825280601f01601f191660200182016040528015610655576020820181803683370190505b509050600360fc1b81600081518110610670576106706109fb565b60200101906001600160f81b031916908160001a905350600f60fb1b8160018151811061069f5761069f6109fb565b60200101906001600160f81b031916908160001a90535060006106c3846002610a27565b6106ce906001610a46565b90505b6001811115610746576f181899199a1a9b1b9c1cb0b131b232b360811b85600f1660108110610702576107026109fb565b1a60f81b828281518110610718576107186109fb565b60200101906001600160f81b031916908160001a90535060049490941c9361073f81610a74565b90506106d1565b5083156102b15760405162461bcd60e51b815260206004820181905260248201527f537472696e67733a20686578206c656e67746820696e73756666696369656e74604482015260640161027c565b6000818152600183016020526040812054801561087e5760006107b9600183610a8b565b85549091506000906107cd90600190610a8b565b90508181146108325760008660000182815481106107ed576107ed6109fb565b9060005260206000200154905080876000018481548110610810576108106109fb565b6000918252602080832090910192909255918252600188019052604090208390555b855486908061084357610843610aa2565b6001900381819060005260206000200160009055905585600101600086815260200190815260200160002060009055600193505050506101c6565b60009150506101c6565b60006020828403121561089a57600080fd5b81356001600160e01b0319811681146102b157600080fd5b600080604083850312156108c557600080fd5b50508035926020909101359150565b6000602082840312156108e657600080fd5b5035919050565b6000806040838503121561090057600080fd5b8235915060208301356001600160a01b038116811461091e57600080fd5b809150509250929050565b60005b8381101561094457818101518382015260200161092c565b83811115610953576000848401525b50505050565b76020b1b1b2b9b9a1b7b73a3937b61d1030b1b1b7bab73a1604d1b81526000835161098b816017850160208801610929565b7001034b99036b4b9b9b4b733903937b6329607d1b60179184019182015283516109bc816028840160208801610929565b01602801949350505050565b60208152600082518060208401526109e7816040850160208701610929565b601f01601f19169190910160400192915050565b634e487b7160e01b600052603260045260246000fd5b634e487b7160e01b600052601160045260246000fd5b6000816000190483118215151615610a4157610a41610a11565b500290565b60008219821115610a5957610a59610a11565b500190565b634e487b7160e01b600052604160045260246000fd5b600081610a8357610a83610a11565b506000190190565b600082821015610a9d57610a9d610a11565b500390565b634e487b7160e01b600052603160045260246000fdfea26469706673582212200e028376159f909c625ac90a5c1b70f359ad7366c01768a5405ace2c5abf00a764736f6c634300080e0033",
  "immutableReferences": {},
  "source": "// SPDX-License-Identifier: MIT\r\n\r\npragma solidity ^0.8.0;\r\n\r\nimport \"../access/AccessControlEnumerable.sol\";\r\n\r\ncontract AccessControlEnumerableMock is AccessControlEnumerable {\r\n    constructor() {\r\n        _setupRole(DEFAULT_ADMIN_ROLE, _msgSender());\r\n    }\r\n\r\n    function setRoleAdmin(bytes32 roleId, bytes32 adminRoleId) public {\r\n        _setRoleAdmin(roleId, adminRoleId);\r\n    }\r\n\r\n    function senderProtected(bytes32 roleId) public onlyRole(roleId) {}\r\n}\r\n",
  "sourcePath": "D:\\work\\www\\yopu_dapp_nft\\contracts\\lib\\openzeppelin\\contracts\\mocks\\AccessControlEnumerableMock.sol",
  "compiler": {
    "name": "solc",
    "version": "0.8.14+commit.80d49f37.Emscripten.clang"
  },
  "schemaVersion": "3.4.7",
  "updatedAt": "2022-06-28T15:05:47.151Z",
  "devdoc": {
    "kind": "dev",
    "methods": {
      "getRoleAdmin(bytes32)": {
        "details": "Returns the admin role that controls `role`. See {grantRole} and {revokeRole}. To change a role's admin, use {_setRoleAdmin}."
      },
      "getRoleMember(bytes32,uint256)": {
        "details": "Returns one of the accounts that have `role`. `index` must be a value between 0 and {getRoleMemberCount}, non-inclusive. Role bearers are not sorted in any particular way, and their ordering may change at any point. WARNING: When using {getRoleMember} and {getRoleMemberCount}, make sure you perform all queries on the same block. See the following https://forum.openzeppelin.com/t/iterating-over-elements-on-enumerableset-in-openzeppelin-contracts/2296[forum post] for more information."
      },
      "getRoleMemberCount(bytes32)": {
        "details": "Returns the number of accounts that have `role`. Can be used together with {getRoleMember} to enumerate all bearers of a role."
      },
      "grantRole(bytes32,address)": {
        "details": "Grants `role` to `account`. If `account` had not been already granted `role`, emits a {RoleGranted} event. Requirements: - the caller must have ``role``'s admin role. May emit a {RoleGranted} event."
      },
      "hasRole(bytes32,address)": {
        "details": "Returns `true` if `account` has been granted `role`."
      },
      "renounceRole(bytes32,address)": {
        "details": "Revokes `role` from the calling account. Roles are often managed via {grantRole} and {revokeRole}: this function's purpose is to provide a mechanism for accounts to lose their privileges if they are compromised (such as when a trusted device is misplaced). If the calling account had been revoked `role`, emits a {RoleRevoked} event. Requirements: - the caller must be `account`. May emit a {RoleRevoked} event."
      },
      "revokeRole(bytes32,address)": {
        "details": "Revokes `role` from `account`. If `account` had been granted `role`, emits a {RoleRevoked} event. Requirements: - the caller must have ``role``'s admin role. May emit a {RoleRevoked} event."
      },
      "supportsInterface(bytes4)": {
        "details": "See {IERC165-supportsInterface}."
      }
    },
    "version": 1
  },
  "userdoc": {
    "kind": "user",
    "methods": {},
    "version": 1
  }
}