{
  "contractName": "AccessControlCrossChainMock",
  "abi": [
    {
      "inputs": [],
      "stateMutability": "nonpayable",
      "type": "constructor"
    },
    {
      "inputs": [],
      "name": "NotCrossChainCall",
      "type": "error"
    },
    {
      "anonymous": false,
      "inputs": [
        {
          "indexed": true,
          "internalType": "bytes32",
          "name": "role",
          "type": "bytes32"
        },
        {
          "indexed": true,
          "internalType": "bytes32",
          "name": "previousAdminRole",
          "type": "bytes32"
        },
        {
          "indexed": true,
          "internalType": "bytes32",
          "name": "newAdminRole",
          "type": "bytes32"
        }
      ],
      "name": "RoleAdminChanged",
      "type": "event"
    },
    {
      "anonymous": false,
      "inputs": [
        {
          "indexed": true,
          "internalType": "bytes32",
          "name": "role",
          "type": "bytes32"
        },
        {
          "indexed": true,
          "internalType": "address",
          "name": "account",
          "type": "address"
        },
        {
          "indexed": true,
          "internalType": "address",
          "name": "sender",
          "type": "address"
        }
      ],
      "name": "RoleGranted",
      "type": "event"
    },
    {
      "anonymous": false,
      "inputs": [
        {
          "indexed": true,
          "internalType": "bytes32",
          "name": "role",
          "type": "bytes32"
        },
        {
          "indexed": true,
          "internalType": "address",
          "name": "account",
          "type": "address"
        },
        {
          "indexed": true,
          "internalType": "address",
          "name": "sender",
          "type": "address"
        }
      ],
      "name": "RoleRevoked",
      "type": "event"
    },
    {
      "inputs": [],
      "name": "CROSSCHAIN_ALIAS",
      "outputs": [
        {
          "internalType": "bytes32",
          "name": "",
          "type": "bytes32"
        }
      ],
      "stateMutability": "view",
      "type": "function"
    },
    {
      "inputs": [],
      "name": "DEFAULT_ADMIN_ROLE",
      "outputs": [
        {
          "internalType": "bytes32",
          "name": "",
          "type": "bytes32"
        }
      ],
      "stateMutability": "view",
      "type": "function"
    },
    {
      "inputs": [
        {
          "internalType": "bytes32",
          "name": "role",
          "type": "bytes32"
        }
      ],
      "name": "getRoleAdmin",
      "outputs": [
        {
          "internalType": "bytes32",
          "name": "",
          "type": "bytes32"
        }
      ],
      "stateMutability": "view",
      "type": "function"
    },
    {
      "inputs": [
        {
          "internalType": "bytes32",
          "name": "role",
          "type": "bytes32"
        },
        {
          "internalType": "address",
          "name": "account",
          "type": "address"
        }
      ],
      "name": "grantRole",
      "outputs": [],
      "stateMutability": "nonpayable",
      "type": "function"
    },
    {
      "inputs": [
        {
          "internalType": "bytes32",
          "name": "role",
          "type": "bytes32"
        },
        {
          "internalType": "address",
          "name": "account",
          "type": "address"
        }
      ],
      "name": "hasRole",
      "outputs": [
        {
          "internalType": "bool",
          "name": "",
          "type": "bool"
        }
      ],
      "stateMutability": "view",
      "type": "function"
    },
    {
      "inputs": [
        {
          "internalType": "bytes32",
          "name": "role",
          "type": "bytes32"
        },
        {
          "internalType": "address",
          "name": "account",
          "type": "address"
        }
      ],
      "name": "renounceRole",
      "outputs": [],
      "stateMutability": "nonpayable",
      "type": "function"
    },
    {
      "inputs": [
        {
          "internalType": "bytes32",
          "name": "role",
          "type": "bytes32"
        },
        {
          "internalType": "address",
          "name": "account",
          "type": "address"
        }
      ],
      "name": "revokeRole",
      "outputs": [],
      "stateMutability": "nonpayable",
      "type": "function"
    },
    {
      "inputs": [
        {
          "internalType": "bytes4",
          "name": "interfaceId",
          "type": "bytes4"
        }
      ],
      "name": "supportsInterface",
      "outputs": [
        {
          "internalType": "bool",
          "name": "",
          "type": "bool"
        }
      ],
      "stateMutability": "view",
      "type": "function"
    },
    {
      "inputs": [
        {
          "internalType": "bytes32",
          "name": "roleId",
          "type": "bytes32"
        },
        {
          "internalType": "bytes32",
          "name": "adminRoleId",
          "type": "bytes32"
        }
      ],
      "name": "setRoleAdmin",
      "outputs": [],
      "stateMutability": "nonpayable",
      "type": "function"
    },
    {
      "inputs": [
        {
          "internalType": "bytes32",
          "name": "roleId",
          "type": "bytes32"
        }
      ],
      "name": "senderProtected",
      "outputs": [],
      "stateMutability": "nonpayable",
      "type": "function"
    },
    {
      "inputs": [
        {
          "internalType": "bytes32",
          "name": "role",
          "type": "bytes32"
        }
      ],
      "name": "crossChainRoleAlias",
      "outputs": [
        {
          "internalType": "bytes32",
          "name": "",
          "type": "bytes32"
        }
      ],
      "stateMutability": "pure",
      "type": "function"
    }
  ],
  "bytecode": "0x608060405234801561001057600080fd5b5061001c600033610021565b6100cd565b61002b828261002f565b5050565b6000828152602081815260408083206001600160a01b038516845290915290205460ff1661002b576000828152602081815260408083206001600160a01b03851684529091529020805460ff191660011790556100893390565b6001600160a01b0316816001600160a01b0316837f2f8788117e7eff1d82e926ec794901d17c78024a50270940304540a733656f0d60405160405180910390a45050565b610ab4806100dc6000396000f3fe608060405234801561001057600080fd5b50600436106100995760003560e01c806301ffc9a71461009e5780631e4e0091146100c6578063248a9ca3146100db5780632f2ff15d146100fc57806336568abe1461010f5780634b9304a41461012257806391d1485414610135578063933c8dbd14610148578063a217fddf1461015b578063d547741f14610163578063f9d0429514610176575b600080fd5b6100b16100ac366004610813565b61018b565b60405190151581526020015b60405180910390f35b6100d96100d436600461083d565b6101c2565b005b6100ee6100e936600461085f565b6101d0565b6040519081526020016100bd565b6100d961010a36600461088d565b6101e5565b6100d961011d36600461088d565b610206565b6100d961013036600461085f565b610285565b6100b161014336600461088d565b61028f565b6100ee61015636600461085f565b6102b8565b6100ee600081565b6100d961017136600461088d565b6102c3565b6100ee600080516020610a5f83398151915281565b60006001600160e01b03198216637965db0b60e01b14806101bc57506301ffc9a760e01b6001600160e01b03198316145b92915050565b6101cc82826102df565b5050565b60009081526020819052604090206001015490565b6101ee826101d0565b6101f781610332565b6102018383610364565b505050565b6001600160a01b038116331461027b5760405162461bcd60e51b815260206004820152602f60248201527f416363657373436f6e74726f6c3a2063616e206f6e6c792072656e6f756e636560448201526e103937b632b9903337b91039b2b63360891b60648201526084015b60405180910390fd5b6101cc82826103e8565b806101cc81610332565b6000918252602082815260408084206001600160a01b0393909316845291905290205460ff1690565b60006101bc8261044d565b6102cc826101d0565b6102d581610332565b61020183836103e8565b60006102ea836101d0565b600084815260208190526040808220600101859055519192508391839186917fbd79b86ffe0ab8e8776151514217cd7cacd52c909f66475c3af44e129f0b00ff9190a4505050565b61033a610460565b1561035b5761035861034b8261044d565b610353610471565b6104a2565b50565b610358816104fb565b61036e828261028f565b6101cc576000828152602081815260408083206001600160a01b03851684529091529020805460ff191660011790556103a43390565b6001600160a01b0316816001600160a01b0316837f2f8788117e7eff1d82e926ec794901d17c78024a50270940304540a733656f0d60405160405180910390a45050565b6103f2828261028f565b156101cc576000828152602081815260408083206001600160a01b0385168085529252808320805460ff1916905551339285917ff6391f5c32d9c69d2a47ea670b442974b53935d1edc7fd64eb21e047a839171b9190a45050565b600080516020610a5f8339815191521890565b600061046c6064610505565b905090565b600061047b610460565b6104985760405163253a6fc960e11b815260040160405180910390fd5b61046c6064610569565b6104ac828261028f565b6101cc576104b98161065f565b6104c4836020610671565b6040516020016104d59291906108ed565b60408051601f198184030181529082905262461bcd60e51b82526102729160040161095c565b61035881336104a2565b6000816001600160a01b03166308bd624c6040518163ffffffff1660e01b8152600401602060405180830381865afa158015610545573d6000803e3d6000fd5b505050506040513d601f19601f820116820180604052508101906101bc919061098f565b600061057482610505565b6105915760405163253a6fc960e11b815260040160405180910390fd5b816001600160a01b031663175a260b6040518163ffffffff1660e01b8152600401602060405180830381865afa1580156105cf573d6000803e3d6000fd5b505050506040513d601f19601f820116820180604052508101906105f3919061098f565b6105fd57336101bc565b816001600160a01b031663d74523b36040518163ffffffff1660e01b8152600401602060405180830381865afa15801561063b573d6000803e3d6000fd5b505050506040513d601f19601f820116820180604052508101906101bc91906109b1565b60606101bc6001600160a01b03831660145b606060006106808360026109e4565b61068b906002610a03565b6001600160401b038111156106a2576106a2610a1b565b6040519080825280601f01601f1916602001820160405280156106cc576020820181803683370190505b509050600360fc1b816000815181106106e7576106e7610a31565b60200101906001600160f81b031916908160001a905350600f60fb1b8160018151811061071657610716610a31565b60200101906001600160f81b031916908160001a905350600061073a8460026109e4565b610745906001610a03565b90505b60018111156107bd576f181899199a1a9b1b9c1cb0b131b232b360811b85600f166010811061077957610779610a31565b1a60f81b82828151811061078f5761078f610a31565b60200101906001600160f81b031916908160001a90535060049490941c936107b681610a47565b9050610748565b50831561080c5760405162461bcd60e51b815260206004820181905260248201527f537472696e67733a20686578206c656e67746820696e73756666696369656e746044820152606401610272565b9392505050565b60006020828403121561082557600080fd5b81356001600160e01b03198116811461080c57600080fd5b6000806040838503121561085057600080fd5b50508035926020909101359150565b60006020828403121561087157600080fd5b5035919050565b6001600160a01b038116811461035857600080fd5b600080604083850312156108a057600080fd5b8235915060208301356108b281610878565b809150509250929050565b60005b838110156108d85781810151838201526020016108c0565b838111156108e7576000848401525b50505050565b76020b1b1b2b9b9a1b7b73a3937b61d1030b1b1b7bab73a1604d1b81526000835161091f8160178501602088016108bd565b7001034b99036b4b9b9b4b733903937b6329607d1b60179184019182015283516109508160288401602088016108bd565b01602801949350505050565b602081526000825180602084015261097b8160408501602087016108bd565b601f01601f19169190910160400192915050565b6000602082840312156109a157600080fd5b8151801515811461080c57600080fd5b6000602082840312156109c357600080fd5b815161080c81610878565b634e487b7160e01b600052601160045260246000fd5b60008160001904831182151516156109fe576109fe6109ce565b500290565b60008219821115610a1657610a166109ce565b500190565b634e487b7160e01b600052604160045260246000fd5b634e487b7160e01b600052603260045260246000fd5b600081610a5657610a566109ce565b50600019019056fee870e9cffded00b0b933338bc23ae12648d8d2d4829802ab37a0908f14773b4da2646970667358221220440d27c88f43e6e87e91e2f048a93b5de7482c5d11ad66be14076ce28c58d5d464736f6c634300080e0033",
  "immutableReferences": {},
  "source": "// SPDX-License-Identifier: MIT\r\n\r\npragma solidity ^0.8.4;\r\n\r\nimport \"../access/AccessControlCrossChain.sol\";\r\nimport \"../crosschain/arbitrum/CrossChainEnabledArbitrumL2.sol\";\r\n\r\ncontract AccessControlCrossChainMock is AccessControlCrossChain, CrossChainEnabledArbitrumL2 {\r\n    constructor() {\r\n        _setupRole(DEFAULT_ADMIN_ROLE, _msgSender());\r\n    }\r\n\r\n    function setRoleAdmin(bytes32 roleId, bytes32 adminRoleId) public {\r\n        _setRoleAdmin(roleId, adminRoleId);\r\n    }\r\n\r\n    function senderProtected(bytes32 roleId) public onlyRole(roleId) {}\r\n\r\n    function crossChainRoleAlias(bytes32 role) public pure virtual returns (bytes32) {\r\n        return _crossChainRoleAlias(role);\r\n    }\r\n}\r\n",
  "sourcePath": "D:\\work\\www\\yopu_dapp_nft\\contracts\\lib\\openzeppelin\\contracts\\mocks\\AccessControlCrossChainMock.sol",
  "compiler": {
    "name": "solc",
    "version": "0.8.14+commit.80d49f37.Emscripten.clang"
  },
  "schemaVersion": "3.4.7",
  "updatedAt": "2022-06-28T15:05:47.145Z",
  "devdoc": {
    "kind": "dev",
    "methods": {
      "getRoleAdmin(bytes32)": {
        "details": "Returns the admin role that controls `role`. See {grantRole} and {revokeRole}. To change a role's admin, use {_setRoleAdmin}."
      },
      "grantRole(bytes32,address)": {
        "details": "Grants `role` to `account`. If `account` had not been already granted `role`, emits a {RoleGranted} event. Requirements: - the caller must have ``role``'s admin role. May emit a {RoleGranted} event."
      },
      "hasRole(bytes32,address)": {
        "details": "Returns `true` if `account` has been granted `role`."
      },
      "renounceRole(bytes32,address)": {
        "details": "Revokes `role` from the calling account. Roles are often managed via {grantRole} and {revokeRole}: this function's purpose is to provide a mechanism for accounts to lose their privileges if they are compromised (such as when a trusted device is misplaced). If the calling account had been revoked `role`, emits a {RoleRevoked} event. Requirements: - the caller must be `account`. May emit a {RoleRevoked} event."
      },
      "revokeRole(bytes32,address)": {
        "details": "Revokes `role` from `account`. If `account` had been granted `role`, emits a {RoleRevoked} event. Requirements: - the caller must have ``role``'s admin role. May emit a {RoleRevoked} event."
      },
      "supportsInterface(bytes4)": {
        "details": "See {IERC165-supportsInterface}."
      }
    },
    "version": 1
  },
  "userdoc": {
    "kind": "user",
    "methods": {},
    "version": 1
  }
}