{
  "contractName": "AddressImpl",
  "abi": [
    {
      "anonymous": false,
      "inputs": [
        {
          "indexed": false,
          "internalType": "string",
          "name": "data",
          "type": "string"
        }
      ],
      "name": "CallReturnValue",
      "type": "event"
    },
    {
      "inputs": [],
      "name": "sharedAnswer",
      "outputs": [
        {
          "internalType": "string",
          "name": "",
          "type": "string"
        }
      ],
      "stateMutability": "view",
      "type": "function"
    },
    {
      "stateMutability": "payable",
      "type": "receive"
    },
    {
      "inputs": [
        {
          "internalType": "address",
          "name": "account",
          "type": "address"
        }
      ],
      "name": "isContract",
      "outputs": [
        {
          "internalType": "bool",
          "name": "",
          "type": "bool"
        }
      ],
      "stateMutability": "view",
      "type": "function"
    },
    {
      "inputs": [
        {
          "internalType": "address payable",
          "name": "receiver",
          "type": "address"
        },
        {
          "internalType": "uint256",
          "name": "amount",
          "type": "uint256"
        }
      ],
      "name": "sendValue",
      "outputs": [],
      "stateMutability": "nonpayable",
      "type": "function"
    },
    {
      "inputs": [
        {
          "internalType": "address",
          "name": "target",
          "type": "address"
        },
        {
          "internalType": "bytes",
          "name": "data",
          "type": "bytes"
        }
      ],
      "name": "functionCall",
      "outputs": [],
      "stateMutability": "nonpayable",
      "type": "function"
    },
    {
      "inputs": [
        {
          "internalType": "address",
          "name": "target",
          "type": "address"
        },
        {
          "internalType": "bytes",
          "name": "data",
          "type": "bytes"
        },
        {
          "internalType": "uint256",
          "name": "value",
          "type": "uint256"
        }
      ],
      "name": "functionCallWithValue",
      "outputs": [],
      "stateMutability": "payable",
      "type": "function"
    },
    {
      "inputs": [
        {
          "internalType": "address",
          "name": "target",
          "type": "address"
        },
        {
          "internalType": "bytes",
          "name": "data",
          "type": "bytes"
        }
      ],
      "name": "functionStaticCall",
      "outputs": [],
      "stateMutability": "nonpayable",
      "type": "function"
    },
    {
      "inputs": [
        {
          "internalType": "address",
          "name": "target",
          "type": "address"
        },
        {
          "internalType": "bytes",
          "name": "data",
          "type": "bytes"
        }
      ],
      "name": "functionDelegateCall",
      "outputs": [],
      "stateMutability": "nonpayable",
      "type": "function"
    }
  ],
  "bytecode": "0x608060405234801561001057600080fd5b50610b60806100206000396000f3fe6080604052600436106100645760003560e01c8063162790551461007057806324a084df146100a55780632a011594146100c7578063a0b5ffb0146100da578063c21d36f3146100fa578063ee33b7e21461011a578063fc40cf731461013a57600080fd5b3661006b57005b600080fd5b34801561007c57600080fd5b5061009061008b3660046107e5565b61015c565b60405190151581526020015b60405180910390f35b3480156100b157600080fd5b506100c56100c0366004610802565b61016d565b005b6100c56100d5366004610876565b61017b565b3480156100e657600080fd5b506100c56100f53660046108d1565b610200565b34801561010657600080fd5b506100c56101153660046108d1565b610282565b34801561012657600080fd5b506100c56101353660046108d1565b6102c4565b34801561014657600080fd5b5061014f610306565b60405161009c9190610955565b600061016782610394565b92915050565b61017782826103a3565b5050565b60006101bf8585858080601f0160208091040260200160405190810160405280939291908181526020018383808284376000920191909152508792506104c3915050565b9050600080516020610a96833981519152818060200190518101906101e4919061099e565b6040516101f19190610955565b60405180910390a15050505050565b60006102428484848080601f0160208091040260200160405190810160405280939291908181526020018383808284376000920191909152506104f192505050565b9050600080516020610a9683398151915281806020019051810190610267919061099e565b6040516102749190610955565b60405180910390a150505050565b60006102428484848080601f01602080910402602001604051908101604052809392919081815260200183838082843760009201919091525061053c92505050565b60006102428484848080601f01602080910402602001604051908101604052809392919081815260200183838082843760009201919091525061056192505050565b6000805461031390610a3f565b80601f016020809104026020016040519081016040528092919081815260200182805461033f90610a3f565b801561038c5780601f106103615761010080835404028352916020019161038c565b820191906000526020600020905b81548152906001019060200180831161036f57829003601f168201915b505050505081565b6001600160a01b03163b151590565b804710156103f85760405162461bcd60e51b815260206004820152601d60248201527f416464726573733a20696e73756666696369656e742062616c616e636500000060448201526064015b60405180910390fd5b6000826001600160a01b03168260405160006040518083038185875af1925050503d8060008114610445576040519150601f19603f3d011682016040523d82523d6000602084013e61044a565b606091505b50509050806104be5760405162461bcd60e51b815260206004820152603a60248201527f416464726573733a20756e61626c6520746f2073656e642076616c75652c20726044820152791958da5c1a595b9d081b585e481a185d99481c995d995c9d195960321b60648201526084016103ef565b505050565b60606104e9848484604051806060016040528060298152602001610ab660299139610586565b949350505050565b6060610535838360006040518060400160405280601e81526020017f416464726573733a206c6f772d6c6576656c2063616c6c206661696c65640000815250610586565b9392505050565b60606105358383604051806060016040528060258152602001610adf60259139610661565b60606105358383604051806060016040528060278152602001610b04602791396106d9565b6060824710156105e75760405162461bcd60e51b815260206004820152602660248201527f416464726573733a20696e73756666696369656e742062616c616e636520666f6044820152651c8818d85b1b60d21b60648201526084016103ef565b600080866001600160a01b031685876040516106039190610a79565b60006040518083038185875af1925050503d8060008114610640576040519150601f19603f3d011682016040523d82523d6000602084013e610645565b606091505b509150915061065687838387610731565b979650505050505050565b6060600080856001600160a01b03168560405161067e9190610a79565b600060405180830381855afa9150503d80600081146106b9576040519150601f19603f3d011682016040523d82523d6000602084013e6106be565b606091505b50915091506106cf86838387610731565b9695505050505050565b6060600080856001600160a01b0316856040516106f69190610a79565b600060405180830381855af49150503d80600081146106b9576040519150601f19603f3d011682016040523d82523d6000602084013e6106be565b6060831561079e5782516000036107975761074b85610394565b6107975760405162461bcd60e51b815260206004820152601d60248201527f416464726573733a2063616c6c20746f206e6f6e2d636f6e747261637400000060448201526064016103ef565b50816104e9565b6104e983838151156107b35781518083602001fd5b8060405162461bcd60e51b81526004016103ef9190610955565b6001600160a01b03811681146107e257600080fd5b50565b6000602082840312156107f757600080fd5b8135610535816107cd565b6000806040838503121561081557600080fd5b8235610820816107cd565b946020939093013593505050565b60008083601f84011261084057600080fd5b5081356001600160401b0381111561085757600080fd5b60208301915083602082850101111561086f57600080fd5b9250929050565b6000806000806060858703121561088c57600080fd5b8435610897816107cd565b935060208501356001600160401b038111156108b257600080fd5b6108be8782880161082e565b9598909750949560400135949350505050565b6000806000604084860312156108e657600080fd5b83356108f1816107cd565b925060208401356001600160401b0381111561090c57600080fd5b6109188682870161082e565b9497909650939450505050565b60005b83811015610940578181015183820152602001610928565b8381111561094f576000848401525b50505050565b6020815260008251806020840152610974816040850160208701610925565b601f01601f19169190910160400192915050565b634e487b7160e01b600052604160045260246000fd5b6000602082840312156109b057600080fd5b81516001600160401b03808211156109c757600080fd5b818401915084601f8301126109db57600080fd5b8151818111156109ed576109ed610988565b604051601f8201601f19908116603f01168101908382118183101715610a1557610a15610988565b81604052828152876020848701011115610a2e57600080fd5b610656836020830160208801610925565b600181811c90821680610a5357607f821691505b602082108103610a7357634e487b7160e01b600052602260045260246000fd5b50919050565b60008251610a8b818460208701610925565b919091019291505056fee518073da644d0626295bee74d5d5c51447a33857c62913bb30f35e2fba3db7c416464726573733a206c6f772d6c6576656c2063616c6c20776974682076616c7565206661696c6564416464726573733a206c6f772d6c6576656c207374617469632063616c6c206661696c6564416464726573733a206c6f772d6c6576656c2064656c65676174652063616c6c206661696c6564a26469706673582212204c6ff1dd6fd2bdb1cdd80bc4471a48f7daa904e1533af99dd799da6a468f974864736f6c634300080e0033",
  "immutableReferences": {},
  "source": "// SPDX-License-Identifier: MIT\r\n\r\npragma solidity ^0.8.0;\r\n\r\nimport \"../utils/Address.sol\";\r\n\r\ncontract AddressImpl {\r\n    string public sharedAnswer;\r\n\r\n    event CallReturnValue(string data);\r\n\r\n    function isContract(address account) external view returns (bool) {\r\n        return Address.isContract(account);\r\n    }\r\n\r\n    function sendValue(address payable receiver, uint256 amount) external {\r\n        Address.sendValue(receiver, amount);\r\n    }\r\n\r\n    function functionCall(address target, bytes calldata data) external {\r\n        bytes memory returnData = Address.functionCall(target, data);\r\n        emit CallReturnValue(abi.decode(returnData, (string)));\r\n    }\r\n\r\n    function functionCallWithValue(\r\n        address target,\r\n        bytes calldata data,\r\n        uint256 value\r\n    ) external payable {\r\n        bytes memory returnData = Address.functionCallWithValue(target, data, value);\r\n        emit CallReturnValue(abi.decode(returnData, (string)));\r\n    }\r\n\r\n    function functionStaticCall(address target, bytes calldata data) external {\r\n        bytes memory returnData = Address.functionStaticCall(target, data);\r\n        emit CallReturnValue(abi.decode(returnData, (string)));\r\n    }\r\n\r\n    function functionDelegateCall(address target, bytes calldata data) external {\r\n        bytes memory returnData = Address.functionDelegateCall(target, data);\r\n        emit CallReturnValue(abi.decode(returnData, (string)));\r\n    }\r\n\r\n    // sendValue's tests require the contract to hold Ether\r\n    receive() external payable {}\r\n}\r\n",
  "sourcePath": "D:\\work\\www\\yopu_dapp_nft\\contracts\\lib\\openzeppelin\\contracts\\mocks\\AddressImpl.sol",
  "compiler": {
    "name": "solc",
    "version": "0.8.14+commit.80d49f37.Emscripten.clang"
  },
  "schemaVersion": "3.4.7",
  "updatedAt": "2022-06-28T15:05:47.162Z",
  "devdoc": {
    "kind": "dev",
    "methods": {},
    "version": 1
  },
  "userdoc": {
    "kind": "user",
    "methods": {},
    "version": 1
  }
}