{
  "contractName": "AddressToUintMapMock",
  "abi": [
    {
      "anonymous": false,
      "inputs": [
        {
          "indexed": false,
          "internalType": "bool",
          "name": "result",
          "type": "bool"
        }
      ],
      "name": "OperationResult",
      "type": "event"
    },
    {
      "inputs": [
        {
          "internalType": "address",
          "name": "key",
          "type": "address"
        }
      ],
      "name": "contains",
      "outputs": [
        {
          "internalType": "bool",
          "name": "",
          "type": "bool"
        }
      ],
      "stateMutability": "view",
      "type": "function"
    },
    {
      "inputs": [
        {
          "internalType": "address",
          "name": "key",
          "type": "address"
        },
        {
          "internalType": "uint256",
          "name": "value",
          "type": "uint256"
        }
      ],
      "name": "set",
      "outputs": [],
      "stateMutability": "nonpayable",
      "type": "function"
    },
    {
      "inputs": [
        {
          "internalType": "address",
          "name": "key",
          "type": "address"
        }
      ],
      "name": "remove",
      "outputs": [],
      "stateMutability": "nonpayable",
      "type": "function"
    },
    {
      "inputs": [],
      "name": "length",
      "outputs": [
        {
          "internalType": "uint256",
          "name": "",
          "type": "uint256"
        }
      ],
      "stateMutability": "view",
      "type": "function"
    },
    {
      "inputs": [
        {
          "internalType": "uint256",
          "name": "index",
          "type": "uint256"
        }
      ],
      "name": "at",
      "outputs": [
        {
          "internalType": "address",
          "name": "key",
          "type": "address"
        },
        {
          "internalType": "uint256",
          "name": "value",
          "type": "uint256"
        }
      ],
      "stateMutability": "view",
      "type": "function"
    },
    {
      "inputs": [
        {
          "internalType": "address",
          "name": "key",
          "type": "address"
        }
      ],
      "name": "tryGet",
      "outputs": [
        {
          "internalType": "bool",
          "name": "",
          "type": "bool"
        },
        {
          "internalType": "uint256",
          "name": "",
          "type": "uint256"
        }
      ],
      "stateMutability": "view",
      "type": "function"
    },
    {
      "inputs": [
        {
          "internalType": "address",
          "name": "key",
          "type": "address"
        }
      ],
      "name": "get",
      "outputs": [
        {
          "internalType": "uint256",
          "name": "",
          "type": "uint256"
        }
      ],
      "stateMutability": "view",
      "type": "function"
    },
    {
      "inputs": [
        {
          "internalType": "address",
          "name": "key",
          "type": "address"
        },
        {
          "internalType": "string",
          "name": "errorMessage",
          "type": "string"
        }
      ],
      "name": "getWithMessage",
      "outputs": [
        {
          "internalType": "uint256",
          "name": "",
          "type": "uint256"
        }
      ],
      "stateMutability": "view",
      "type": "function"
    }
  ],
  "bytecode": "0x608060405234801561001057600080fd5b5061085a806100206000396000f3fe608060405234801561001057600080fd5b50600436106100785760003560e01c80631f7b6d321461007d57806329092d0e146100985780633825d828146100ad5780633a992ce7146100c05780635dbe47e8146100d3578063864083af146100f6578063c2bc2efc14610120578063e0886f9014610133575b600080fd5b610085610165565b6040519081526020015b60405180910390f35b6100ab6100a636600461067e565b610176565b005b6100ab6100bb366004610699565b6101b1565b6100856100ce3660046106c3565b6101ee565b6100e66100e136600461067e565b61023a565b604051901515815260200161008f565b61010961010436600461067e565b61024c565b60408051921515835260208301919091520161008f565b61008561012e36600461067e565b610262565b610146610141366004610745565b61026e565b604080516001600160a01b03909316835260208301919091520161008f565b6000610171600061027b565b905090565b60006101828183610286565b9050600080516020610805833981519152816040516101a5911515815260200190565b60405180910390a15050565b60006101be8184846102a2565b9050600080516020610805833981519152816040516101e1911515815260200190565b60405180910390a1505050565b60006102328484848080601f016020809104026020016040519081016040528093929190818152602001838380828437600092018290525094939250506102b89050565b949350505050565b600061024681836102ce565b92915050565b60008061025981846102e3565b91509150915091565b6000610246818361030a565b600080610259818461031f565b60006102468261032e565b600061029b836001600160a01b038416610339565b9392505050565b6000610232846001600160a01b03851684610356565b6000610232846001600160a01b03851684610373565b600061029b836001600160a01b0384166103c8565b60008080806102fb866001600160a01b0387166103d4565b909450925050505b9250929050565b600061029b836001600160a01b03841661040e565b60008080806102fb868661047e565b6000610246826104a9565b6000818152600283016020526040812081905561029b83836104b3565b6000828152600284016020526040812082905561023284846104bf565b600082815260028401602052604081205480151580610397575061039785856103c8565b83906103bf5760405162461bcd60e51b81526004016103b6919061075e565b60405180910390fd5b50949350505050565b600061029b83836104cb565b6000818152600283016020526040812054819080610403576103f685856103c8565b9250600091506103039050565b600192509050610303565b600081815260028301602052604081205480151580610432575061043284846103c8565b61029b5760405162461bcd60e51b815260206004820152601e60248201527f456e756d657261626c654d61703a206e6f6e6578697374656e74206b6579000060448201526064016103b6565b6000808061048c85856104d7565b600081815260029690960160205260409095205494959350505050565b6000610246825490565b600061029b83836104e3565b600061029b83836105d6565b600061029b8383610620565b600061029b8383610638565b600081815260018301602052604081205480156105cc5760006105076001836107b3565b855490915060009061051b906001906107b3565b905081811461058057600086600001828154811061053b5761053b6107d8565b906000526020600020015490508087600001848154811061055e5761055e6107d8565b6000918252602080832090910192909255918252600188019052604090208390555b8554869080610591576105916107ee565b600190038181906000526020600020016000905590558560010160008681526020019081526020016000206000905560019350505050610246565b6000915050610246565b60006105e28383610620565b61061857508154600181810184556000848152602080822090930184905584548482528286019093526040902091909155610246565b506000610246565b60009081526001919091016020526040902054151590565b600082600001828154811061064f5761064f6107d8565b9060005260206000200154905092915050565b80356001600160a01b038116811461067957600080fd5b919050565b60006020828403121561069057600080fd5b61029b82610662565b600080604083850312156106ac57600080fd5b6106b583610662565b946020939093013593505050565b6000806000604084860312156106d857600080fd5b6106e184610662565b925060208401356001600160401b03808211156106fd57600080fd5b818601915086601f83011261071157600080fd5b81358181111561072057600080fd5b87602082850101111561073257600080fd5b6020830194508093505050509250925092565b60006020828403121561075757600080fd5b5035919050565b600060208083528351808285015260005b8181101561078b5785810183015185820160400152820161076f565b8181111561079d576000604083870101525b50601f01601f1916929092016040019392505050565b6000828210156107d357634e487b7160e01b600052601160045260246000fd5b500390565b634e487b7160e01b600052603260045260246000fd5b634e487b7160e01b600052603160045260246000fdfeed9840e0775590557ad736875d96c95cf1458b766335f74339951a32c82a9e33a264697066735822122050a1e3dc4c964fc05976116d155f1d8200ad6b59e965d26cd9e4a66b0246282664736f6c634300080e0033",
  "immutableReferences": {},
  "source": "// SPDX-License-Identifier: MIT\r\n\r\npragma solidity ^0.8.0;\r\n\r\nimport \"../utils/structs/EnumerableMap.sol\";\r\n\r\n// UintToAddressMap\r\ncontract UintToAddressMapMock {\r\n    using EnumerableMap for EnumerableMap.UintToAddressMap;\r\n\r\n    event OperationResult(bool result);\r\n\r\n    EnumerableMap.UintToAddressMap private _map;\r\n\r\n    function contains(uint256 key) public view returns (bool) {\r\n        return _map.contains(key);\r\n    }\r\n\r\n    function set(uint256 key, address value) public {\r\n        bool result = _map.set(key, value);\r\n        emit OperationResult(result);\r\n    }\r\n\r\n    function remove(uint256 key) public {\r\n        bool result = _map.remove(key);\r\n        emit OperationResult(result);\r\n    }\r\n\r\n    function length() public view returns (uint256) {\r\n        return _map.length();\r\n    }\r\n\r\n    function at(uint256 index) public view returns (uint256 key, address value) {\r\n        return _map.at(index);\r\n    }\r\n\r\n    function tryGet(uint256 key) public view returns (bool, address) {\r\n        return _map.tryGet(key);\r\n    }\r\n\r\n    function get(uint256 key) public view returns (address) {\r\n        return _map.get(key);\r\n    }\r\n\r\n    function getWithMessage(uint256 key, string calldata errorMessage) public view returns (address) {\r\n        return _map.get(key, errorMessage);\r\n    }\r\n}\r\n\r\n// AddressToUintMap\r\ncontract AddressToUintMapMock {\r\n    using EnumerableMap for EnumerableMap.AddressToUintMap;\r\n\r\n    event OperationResult(bool result);\r\n\r\n    EnumerableMap.AddressToUintMap private _map;\r\n\r\n    function contains(address key) public view returns (bool) {\r\n        return _map.contains(key);\r\n    }\r\n\r\n    function set(address key, uint256 value) public {\r\n        bool result = _map.set(key, value);\r\n        emit OperationResult(result);\r\n    }\r\n\r\n    function remove(address key) public {\r\n        bool result = _map.remove(key);\r\n        emit OperationResult(result);\r\n    }\r\n\r\n    function length() public view returns (uint256) {\r\n        return _map.length();\r\n    }\r\n\r\n    function at(uint256 index) public view returns (address key, uint256 value) {\r\n        return _map.at(index);\r\n    }\r\n\r\n    function tryGet(address key) public view returns (bool, uint256) {\r\n        return _map.tryGet(key);\r\n    }\r\n\r\n    function get(address key) public view returns (uint256) {\r\n        return _map.get(key);\r\n    }\r\n\r\n    function getWithMessage(address key, string calldata errorMessage) public view returns (uint256) {\r\n        return _map.get(key, errorMessage);\r\n    }\r\n}\r\n\r\ncontract Bytes32ToBytes32MapMock {\r\n    using EnumerableMap for EnumerableMap.Bytes32ToBytes32Map;\r\n\r\n    event OperationResult(bool result);\r\n\r\n    EnumerableMap.Bytes32ToBytes32Map private _map;\r\n\r\n    function contains(bytes32 key) public view returns (bool) {\r\n        return _map.contains(key);\r\n    }\r\n\r\n    function set(bytes32 key, bytes32 value) public {\r\n        bool result = _map.set(key, value);\r\n        emit OperationResult(result);\r\n    }\r\n\r\n    function remove(bytes32 key) public {\r\n        bool result = _map.remove(key);\r\n        emit OperationResult(result);\r\n    }\r\n\r\n    function length() public view returns (uint256) {\r\n        return _map.length();\r\n    }\r\n\r\n    function at(uint256 index) public view returns (bytes32 key, bytes32 value) {\r\n        return _map.at(index);\r\n    }\r\n\r\n    function tryGet(bytes32 key) public view returns (bool, bytes32) {\r\n        return _map.tryGet(key);\r\n    }\r\n\r\n    function get(bytes32 key) public view returns (bytes32) {\r\n        return _map.get(key);\r\n    }\r\n\r\n    function getWithMessage(bytes32 key, string calldata errorMessage) public view returns (bytes32) {\r\n        return _map.get(key, errorMessage);\r\n    }\r\n}\r\n\r\n// UintToUintMap\r\ncontract UintToUintMapMock {\r\n    using EnumerableMap for EnumerableMap.UintToUintMap;\r\n\r\n    event OperationResult(bool result);\r\n\r\n    EnumerableMap.UintToUintMap private _map;\r\n\r\n    function contains(uint256 key) public view returns (bool) {\r\n        return _map.contains(key);\r\n    }\r\n\r\n    function set(uint256 key, uint256 value) public {\r\n        bool result = _map.set(key, value);\r\n        emit OperationResult(result);\r\n    }\r\n\r\n    function remove(uint256 key) public {\r\n        bool result = _map.remove(key);\r\n        emit OperationResult(result);\r\n    }\r\n\r\n    function length() public view returns (uint256) {\r\n        return _map.length();\r\n    }\r\n\r\n    function at(uint256 index) public view returns (uint256 key, uint256 value) {\r\n        return _map.at(index);\r\n    }\r\n\r\n    function tryGet(uint256 key) public view returns (bool, uint256) {\r\n        return _map.tryGet(key);\r\n    }\r\n\r\n    function get(uint256 key) public view returns (uint256) {\r\n        return _map.get(key);\r\n    }\r\n\r\n    function getWithMessage(uint256 key, string calldata errorMessage) public view returns (uint256) {\r\n        return _map.get(key, errorMessage);\r\n    }\r\n}\r\n\r\n// Bytes32ToUintMap\r\ncontract Bytes32ToUintMapMock {\r\n    using EnumerableMap for EnumerableMap.Bytes32ToUintMap;\r\n\r\n    event OperationResult(bool result);\r\n\r\n    EnumerableMap.Bytes32ToUintMap private _map;\r\n\r\n    function contains(bytes32 key) public view returns (bool) {\r\n        return _map.contains(key);\r\n    }\r\n\r\n    function set(bytes32 key, uint256 value) public {\r\n        bool result = _map.set(key, value);\r\n        emit OperationResult(result);\r\n    }\r\n\r\n    function remove(bytes32 key) public {\r\n        bool result = _map.remove(key);\r\n        emit OperationResult(result);\r\n    }\r\n\r\n    function length() public view returns (uint256) {\r\n        return _map.length();\r\n    }\r\n\r\n    function at(uint256 index) public view returns (bytes32 key, uint256 value) {\r\n        return _map.at(index);\r\n    }\r\n\r\n    function tryGet(bytes32 key) public view returns (bool, uint256) {\r\n        return _map.tryGet(key);\r\n    }\r\n\r\n    function get(bytes32 key) public view returns (uint256) {\r\n        return _map.get(key);\r\n    }\r\n\r\n    function getWithMessage(bytes32 key, string calldata errorMessage) public view returns (uint256) {\r\n        return _map.get(key, errorMessage);\r\n    }\r\n}\r\n",
  "sourcePath": "D:\\work\\www\\yopu_dapp_nft\\contracts\\lib\\openzeppelin\\contracts\\mocks\\EnumerableMapMock.sol",
  "compiler": {
    "name": "solc",
    "version": "0.8.14+commit.80d49f37.Emscripten.clang"
  },
  "schemaVersion": "3.4.7",
  "updatedAt": "2022-06-28T15:05:47.721Z",
  "devdoc": {
    "kind": "dev",
    "methods": {},
    "version": 1
  },
  "userdoc": {
    "kind": "user",
    "methods": {},
    "version": 1
  }
}