{
  "contractName": "Base64Mock",
  "abi": [
    {
      "inputs": [
        {
          "internalType": "bytes",
          "name": "value",
          "type": "bytes"
        }
      ],
      "name": "encode",
      "outputs": [
        {
          "internalType": "string",
          "name": "",
          "type": "string"
        }
      ],
      "stateMutability": "pure",
      "type": "function"
    }
  ],
  "bytecode": "0x608060405234801561001057600080fd5b506103bc806100206000396000f3fe608060405234801561001057600080fd5b506004361061002b5760003560e01c806312496a1b14610030575b600080fd5b61004361003e3660046101d2565b610059565b6040516100509190610282565b60405180910390f35b60606100648261006a565b92915050565b6060815160000361008957505060408051602081019091526000815290565b600060405180606001604052806040815260200161034760409139905060006003845160026100b891906102ed565b6100c29190610305565b6100cd906004610327565b6001600160401b038111156100e4576100e46101bc565b6040519080825280601f01601f19166020018201604052801561010e576020820181803683370190505b509050600182016020820185865187015b8082101561017a576003820191508151603f8160121c168501518453600184019350603f81600c1c168501518453600184019350603f8160061c168501518453600184019350603f811685015184535060018301925061011f565b505060038651066001811461019657600281146101a9576101b1565b603d6001830353603d60028303536101b1565b603d60018303535b509195945050505050565b634e487b7160e01b600052604160045260246000fd5b6000602082840312156101e457600080fd5b81356001600160401b03808211156101fb57600080fd5b818401915084601f83011261020f57600080fd5b813581811115610221576102216101bc565b604051601f8201601f19908116603f01168101908382118183101715610249576102496101bc565b8160405282815287602084870101111561026257600080fd5b826020860160208301376000928101602001929092525095945050505050565b600060208083528351808285015260005b818110156102af57858101830151858201604001528201610293565b818111156102c1576000604083870101525b50601f01601f1916929092016040019392505050565b634e487b7160e01b600052601160045260246000fd5b60008219821115610300576103006102d7565b500190565b60008261032257634e487b7160e01b600052601260045260246000fd5b500490565b6000816000190483118215151615610341576103416102d7565b50029056fe4142434445464748494a4b4c4d4e4f505152535455565758595a6162636465666768696a6b6c6d6e6f707172737475767778797a303132333435363738392b2fa26469706673582212200c8133b97718e137617961dcd2739a79764313da95b0dc9a65a2ecfccb776b5664736f6c634300080e0033",
  "immutableReferences": {},
  "source": "// SPDX-License-Identifier: MIT\r\n\r\npragma solidity ^0.8.0;\r\n\r\nimport \"../utils/Base64.sol\";\r\n\r\ncontract Base64Mock {\r\n    function encode(bytes memory value) external pure returns (string memory) {\r\n        return Base64.encode(value);\r\n    }\r\n}\r\n",
  "sourcePath": "D:\\work\\www\\yopu_dapp_nft\\contracts\\lib\\openzeppelin\\contracts\\mocks\\Base64Mock.sol",
  "compiler": {
    "name": "solc",
    "version": "0.8.14+commit.80d49f37.Emscripten.clang"
  },
  "schemaVersion": "3.4.7",
  "updatedAt": "2022-06-28T15:05:47.184Z",
  "devdoc": {
    "kind": "dev",
    "methods": {},
    "version": 1
  },
  "userdoc": {
    "kind": "user",
    "methods": {},
    "version": 1
  }
}