{
  "contractName": "BitMapMock",
  "abi": [
    {
      "inputs": [
        {
          "internalType": "uint256",
          "name": "index",
          "type": "uint256"
        }
      ],
      "name": "get",
      "outputs": [
        {
          "internalType": "bool",
          "name": "",
          "type": "bool"
        }
      ],
      "stateMutability": "view",
      "type": "function"
    },
    {
      "inputs": [
        {
          "internalType": "uint256",
          "name": "index",
          "type": "uint256"
        },
        {
          "internalType": "bool",
          "name": "value",
          "type": "bool"
        }
      ],
      "name": "setTo",
      "outputs": [],
      "stateMutability": "nonpayable",
      "type": "function"
    },
    {
      "inputs": [
        {
          "internalType": "uint256",
          "name": "index",
          "type": "uint256"
        }
      ],
      "name": "set",
      "outputs": [],
      "stateMutability": "nonpayable",
      "type": "function"
    },
    {
      "inputs": [
        {
          "internalType": "uint256",
          "name": "index",
          "type": "uint256"
        }
      ],
      "name": "unset",
      "outputs": [],
      "stateMutability": "nonpayable",
      "type": "function"
    }
  ],
  "bytecode": "0x608060405234801561001057600080fd5b506101f1806100206000396000f3fe608060405234801561001057600080fd5b506004361061004c5760003560e01c8063088d22551461005157806360fe47b1146100665780639507d39a14610079578063dcc9d43c146100bf575b600080fd5b61006461005f36600461016d565b6100d2565b005b61006461007436600461016d565b6100e0565b6100ab61008736600461016d565b600881901c600090815260208190526040812054600160ff84161b16151592915050565b604051901515815260200160405180910390f35b6100646100cd366004610186565b6100eb565b6100dd6000826100fb565b50565b6100dd600082610125565b6100f76000838361014e565b5050565b600881901c600090815260209290925260409091208054600160ff9093169290921b199091169055565b600881901c600090815260209290925260409091208054600160ff9093169290921b9091179055565b80156101635761015e8383610125565b505050565b61015e83836100fb565b60006020828403121561017f57600080fd5b5035919050565b6000806040838503121561019957600080fd5b82359150602083013580151581146101b057600080fd5b80915050925092905056fea2646970667358221220c042c51918a4016e623e8792c524d0993e5696825e2673fbf4d33cb8f00cf80764736f6c634300080e0033",
  "immutableReferences": {},
  "source": "// SPDX-License-Identifier: MIT\r\n\r\npragma solidity ^0.8.0;\r\n\r\nimport \"../utils/structs/BitMaps.sol\";\r\n\r\ncontract BitMapMock {\r\n    using BitMaps for BitMaps.BitMap;\r\n\r\n    BitMaps.BitMap private _bitmap;\r\n\r\n    function get(uint256 index) public view returns (bool) {\r\n        return _bitmap.get(index);\r\n    }\r\n\r\n    function setTo(uint256 index, bool value) public {\r\n        _bitmap.setTo(index, value);\r\n    }\r\n\r\n    function set(uint256 index) public {\r\n        _bitmap.set(index);\r\n    }\r\n\r\n    function unset(uint256 index) public {\r\n        _bitmap.unset(index);\r\n    }\r\n}\r\n",
  "sourcePath": "D:\\work\\www\\yopu_dapp_nft\\contracts\\lib\\openzeppelin\\contracts\\mocks\\BitmapMock.sol",
  "compiler": {
    "name": "solc",
    "version": "0.8.14+commit.80d49f37.Emscripten.clang"
  },
  "schemaVersion": "3.4.7",
  "updatedAt": "2022-06-28T15:05:47.188Z",
  "devdoc": {
    "kind": "dev",
    "methods": {},
    "version": 1
  },
  "userdoc": {
    "kind": "user",
    "methods": {},
    "version": 1
  }
}