{
  "contractName": "BridgeAMBMock",
  "abi": [
    {
      "inputs": [
        {
          "internalType": "address",
          "name": "sender",
          "type": "address"
        },
        {
          "internalType": "address",
          "name": "expected",
          "type": "address"
        }
      ],
      "name": "InvalidCrossChainSender",
      "type": "error"
    },
    {
      "inputs": [],
      "name": "NotCrossChainCall",
      "type": "error"
    },
    {
      "inputs": [
        {
          "internalType": "address",
          "name": "target",
          "type": "address"
        },
        {
          "internalType": "bytes",
          "name": "data",
          "type": "bytes"
        },
        {
          "internalType": "address",
          "name": "sender",
          "type": "address"
        }
      ],
      "name": "relayAs",
      "outputs": [],
      "stateMutability": "nonpayable",
      "type": "function"
    },
    {
      "inputs": [],
      "name": "messageSender",
      "outputs": [
        {
          "internalType": "address",
          "name": "",
          "type": "address"
        }
      ],
      "stateMutability": "view",
      "type": "function"
    }
  ],
  "bytecode": "0x608060405234801561001057600080fd5b5061034c806100206000396000f3fe608060405234801561001057600080fd5b50600436106100365760003560e01c8063d67bdd251461003b578063fb417a5b1461005a575b600080fd5b600054604080516001600160a01b039092168252519081900360200190f35b61006d61006836600461021e565b61006f565b005b600080546001600160a01b038381166001600160a01b03198316178355604051918116929182918816906100a690889088906102b1565b6000604051808303816000865af19150503d80600081146100e3576040519150601f19603f3d011682016040523d82523d6000602084013e6100e8565b606091505b5091509150610128878383604051806040016040528060178152602001761b1bddcb5b195d995b0818d85b1b081c995d995c9d1959604a1b815250610152565b5050600080546001600160a01b0319166001600160a01b0393909316929092179091555050505050565b606083156101c65782516000036101bf576001600160a01b0385163b6101bf5760405162461bcd60e51b815260206004820152601d60248201527f416464726573733a2063616c6c20746f206e6f6e2d636f6e747261637400000060448201526064015b60405180910390fd5b50816101d0565b6101d083836101d8565b949350505050565b8151156101e85781518083602001fd5b8060405162461bcd60e51b81526004016101b691906102c1565b80356001600160a01b038116811461021957600080fd5b919050565b6000806000806060858703121561023457600080fd5b61023d85610202565b935060208501356001600160401b038082111561025957600080fd5b818701915087601f83011261026d57600080fd5b81358181111561027c57600080fd5b88602082850101111561028e57600080fd5b6020830195508094505050506102a660408601610202565b905092959194509250565b8183823760009101908152919050565b600060208083528351808285015260005b818110156102ee578581018301518582016040015282016102d2565b81811115610300576000604083870101525b50601f01601f191692909201604001939250505056fea2646970667358221220a06fee11c3cfe0a4bbba3e058b8400152a81a835819c3f626f8528d3dc51d2ab64736f6c634300080e0033",
  "immutableReferences": {},
  "source": "// SPDX-License-Identifier: MIT\r\n\r\npragma solidity ^0.8.0;\r\n\r\nimport \"../../utils/Address.sol\";\r\nimport \"../../vendor/polygon/IFxMessageProcessor.sol\";\r\n\r\nabstract contract BaseRelayMock {\r\n    // needed to parse custom errors\r\n    error NotCrossChainCall();\r\n    error InvalidCrossChainSender(address sender, address expected);\r\n\r\n    address internal _currentSender;\r\n\r\n    function relayAs(\r\n        address target,\r\n        bytes calldata data,\r\n        address sender\r\n    ) external virtual {\r\n        address previousSender = _currentSender;\r\n\r\n        _currentSender = sender;\r\n\r\n        (bool success, bytes memory returndata) = target.call(data);\r\n        Address.verifyCallResultFromTarget(target, success, returndata, \"low-level call reverted\");\r\n\r\n        _currentSender = previousSender;\r\n    }\r\n}\r\n\r\n/**\r\n * AMB\r\n */\r\ncontract BridgeAMBMock is BaseRelayMock {\r\n    function messageSender() public view returns (address) {\r\n        return _currentSender;\r\n    }\r\n}\r\n\r\n/**\r\n * Arbitrum\r\n */\r\ncontract BridgeArbitrumL1Mock is BaseRelayMock {\r\n    /// @custom:oz-upgrades-unsafe-allow state-variable-immutable state-variable-assignment\r\n    address public immutable inbox = address(new BridgeArbitrumL1Inbox());\r\n    /// @custom:oz-upgrades-unsafe-allow state-variable-immutable state-variable-assignment\r\n    address public immutable outbox = address(new BridgeArbitrumL1Outbox());\r\n\r\n    function activeOutbox() public view returns (address) {\r\n        return outbox;\r\n    }\r\n\r\n    function currentSender() public view returns (address) {\r\n        return _currentSender;\r\n    }\r\n}\r\n\r\ncontract BridgeArbitrumL1Inbox {\r\n    /// @custom:oz-upgrades-unsafe-allow state-variable-immutable state-variable-assignment\r\n    address public immutable bridge = msg.sender;\r\n}\r\n\r\ncontract BridgeArbitrumL1Outbox {\r\n    /// @custom:oz-upgrades-unsafe-allow state-variable-immutable state-variable-assignment\r\n    address public immutable bridge = msg.sender;\r\n\r\n    function l2ToL1Sender() public view returns (address) {\r\n        return BridgeArbitrumL1Mock(bridge).currentSender();\r\n    }\r\n}\r\n\r\ncontract BridgeArbitrumL2Mock is BaseRelayMock {\r\n    function isTopLevelCall() public view returns (bool) {\r\n        return _currentSender != address(0);\r\n    }\r\n\r\n    function wasMyCallersAddressAliased() public pure returns (bool) {\r\n        return true;\r\n    }\r\n\r\n    function myCallersAddressWithoutAliasing() public view returns (address) {\r\n        return _currentSender;\r\n    }\r\n}\r\n\r\n/**\r\n * Optimism\r\n */\r\ncontract BridgeOptimismMock is BaseRelayMock {\r\n    function xDomainMessageSender() public view returns (address) {\r\n        return _currentSender;\r\n    }\r\n}\r\n\r\n/**\r\n * Polygon\r\n */\r\ncontract BridgePolygonChildMock is BaseRelayMock {\r\n    function relayAs(\r\n        address target,\r\n        bytes calldata data,\r\n        address sender\r\n    ) external override {\r\n        IFxMessageProcessor(target).processMessageFromRoot(0, sender, data);\r\n    }\r\n}\r\n",
  "sourcePath": "D:\\work\\www\\yopu_dapp_nft\\contracts\\lib\\openzeppelin\\contracts\\mocks\\crosschain\\bridges.sol",
  "compiler": {
    "name": "solc",
    "version": "0.8.14+commit.80d49f37.Emscripten.clang"
  },
  "schemaVersion": "3.4.7",
  "updatedAt": "2022-06-28T15:05:48.315Z",
  "devdoc": {
    "kind": "dev",
    "methods": {},
    "version": 1
  },
  "userdoc": {
    "kind": "user",
    "methods": {},
    "notice": "AMB",
    "version": 1
  }
}