{
  "contractName": "BridgeArbitrumL2Mock",
  "abi": [
    {
      "inputs": [
        {
          "internalType": "address",
          "name": "sender",
          "type": "address"
        },
        {
          "internalType": "address",
          "name": "expected",
          "type": "address"
        }
      ],
      "name": "InvalidCrossChainSender",
      "type": "error"
    },
    {
      "inputs": [],
      "name": "NotCrossChainCall",
      "type": "error"
    },
    {
      "inputs": [
        {
          "internalType": "address",
          "name": "target",
          "type": "address"
        },
        {
          "internalType": "bytes",
          "name": "data",
          "type": "bytes"
        },
        {
          "internalType": "address",
          "name": "sender",
          "type": "address"
        }
      ],
      "name": "relayAs",
      "outputs": [],
      "stateMutability": "nonpayable",
      "type": "function"
    },
    {
      "inputs": [],
      "name": "isTopLevelCall",
      "outputs": [
        {
          "internalType": "bool",
          "name": "",
          "type": "bool"
        }
      ],
      "stateMutability": "view",
      "type": "function"
    },
    {
      "inputs": [],
      "name": "wasMyCallersAddressAliased",
      "outputs": [
        {
          "internalType": "bool",
          "name": "",
          "type": "bool"
        }
      ],
      "stateMutability": "pure",
      "type": "function"
    },
    {
      "inputs": [],
      "name": "myCallersAddressWithoutAliasing",
      "outputs": [
        {
          "internalType": "address",
          "name": "",
          "type": "address"
        }
      ],
      "stateMutability": "view",
      "type": "function"
    }
  ],
  "bytecode": "0x608060405234801561001057600080fd5b50610389806100206000396000f3fe608060405234801561001057600080fd5b506004361061004c5760003560e01c806308bd624c14610051578063175a260b14610075578063d74523b31461007c578063fb417a5b14610097575b600080fd5b6000546001600160a01b031615155b60405190151581526020015b60405180910390f35b6001610060565b6000546040516001600160a01b03909116815260200161006c565b6100aa6100a536600461025b565b6100ac565b005b600080546001600160a01b038381166001600160a01b03198316178355604051918116929182918816906100e390889088906102ee565b6000604051808303816000865af19150503d8060008114610120576040519150601f19603f3d011682016040523d82523d6000602084013e610125565b606091505b5091509150610165878383604051806040016040528060178152602001761b1bddcb5b195d995b0818d85b1b081c995d995c9d1959604a1b81525061018f565b5050600080546001600160a01b0319166001600160a01b0393909316929092179091555050505050565b606083156102035782516000036101fc576001600160a01b0385163b6101fc5760405162461bcd60e51b815260206004820152601d60248201527f416464726573733a2063616c6c20746f206e6f6e2d636f6e747261637400000060448201526064015b60405180910390fd5b508161020d565b61020d8383610215565b949350505050565b8151156102255781518083602001fd5b8060405162461bcd60e51b81526004016101f391906102fe565b80356001600160a01b038116811461025657600080fd5b919050565b6000806000806060858703121561027157600080fd5b61027a8561023f565b935060208501356001600160401b038082111561029657600080fd5b818701915087601f8301126102aa57600080fd5b8135818111156102b957600080fd5b8860208285010111156102cb57600080fd5b6020830195508094505050506102e36040860161023f565b905092959194509250565b8183823760009101908152919050565b600060208083528351808285015260005b8181101561032b5785810183015185820160400152820161030f565b8181111561033d576000604083870101525b50601f01601f191692909201604001939250505056fea26469706673582212200384881515e27e72456c5170bc0691e59fc820d1553b28f6641c090dcdf5f4d564736f6c634300080e0033",
  "immutableReferences": {},
  "source": "// SPDX-License-Identifier: MIT\r\n\r\npragma solidity ^0.8.0;\r\n\r\nimport \"../../utils/Address.sol\";\r\nimport \"../../vendor/polygon/IFxMessageProcessor.sol\";\r\n\r\nabstract contract BaseRelayMock {\r\n    // needed to parse custom errors\r\n    error NotCrossChainCall();\r\n    error InvalidCrossChainSender(address sender, address expected);\r\n\r\n    address internal _currentSender;\r\n\r\n    function relayAs(\r\n        address target,\r\n        bytes calldata data,\r\n        address sender\r\n    ) external virtual {\r\n        address previousSender = _currentSender;\r\n\r\n        _currentSender = sender;\r\n\r\n        (bool success, bytes memory returndata) = target.call(data);\r\n        Address.verifyCallResultFromTarget(target, success, returndata, \"low-level call reverted\");\r\n\r\n        _currentSender = previousSender;\r\n    }\r\n}\r\n\r\n/**\r\n * AMB\r\n */\r\ncontract BridgeAMBMock is BaseRelayMock {\r\n    function messageSender() public view returns (address) {\r\n        return _currentSender;\r\n    }\r\n}\r\n\r\n/**\r\n * Arbitrum\r\n */\r\ncontract BridgeArbitrumL1Mock is BaseRelayMock {\r\n    /// @custom:oz-upgrades-unsafe-allow state-variable-immutable state-variable-assignment\r\n    address public immutable inbox = address(new BridgeArbitrumL1Inbox());\r\n    /// @custom:oz-upgrades-unsafe-allow state-variable-immutable state-variable-assignment\r\n    address public immutable outbox = address(new BridgeArbitrumL1Outbox());\r\n\r\n    function activeOutbox() public view returns (address) {\r\n        return outbox;\r\n    }\r\n\r\n    function currentSender() public view returns (address) {\r\n        return _currentSender;\r\n    }\r\n}\r\n\r\ncontract BridgeArbitrumL1Inbox {\r\n    /// @custom:oz-upgrades-unsafe-allow state-variable-immutable state-variable-assignment\r\n    address public immutable bridge = msg.sender;\r\n}\r\n\r\ncontract BridgeArbitrumL1Outbox {\r\n    /// @custom:oz-upgrades-unsafe-allow state-variable-immutable state-variable-assignment\r\n    address public immutable bridge = msg.sender;\r\n\r\n    function l2ToL1Sender() public view returns (address) {\r\n        return BridgeArbitrumL1Mock(bridge).currentSender();\r\n    }\r\n}\r\n\r\ncontract BridgeArbitrumL2Mock is BaseRelayMock {\r\n    function isTopLevelCall() public view returns (bool) {\r\n        return _currentSender != address(0);\r\n    }\r\n\r\n    function wasMyCallersAddressAliased() public pure returns (bool) {\r\n        return true;\r\n    }\r\n\r\n    function myCallersAddressWithoutAliasing() public view returns (address) {\r\n        return _currentSender;\r\n    }\r\n}\r\n\r\n/**\r\n * Optimism\r\n */\r\ncontract BridgeOptimismMock is BaseRelayMock {\r\n    function xDomainMessageSender() public view returns (address) {\r\n        return _currentSender;\r\n    }\r\n}\r\n\r\n/**\r\n * Polygon\r\n */\r\ncontract BridgePolygonChildMock is BaseRelayMock {\r\n    function relayAs(\r\n        address target,\r\n        bytes calldata data,\r\n        address sender\r\n    ) external override {\r\n        IFxMessageProcessor(target).processMessageFromRoot(0, sender, data);\r\n    }\r\n}\r\n",
  "sourcePath": "D:\\work\\www\\yopu_dapp_nft\\contracts\\lib\\openzeppelin\\contracts\\mocks\\crosschain\\bridges.sol",
  "compiler": {
    "name": "solc",
    "version": "0.8.14+commit.80d49f37.Emscripten.clang"
  },
  "schemaVersion": "3.4.7",
  "updatedAt": "2022-06-28T15:05:48.333Z",
  "devdoc": {
    "kind": "dev",
    "methods": {},
    "version": 1
  },
  "userdoc": {
    "kind": "user",
    "methods": {},
    "version": 1
  }
}