{
  "contractName": "BridgePolygonChildMock",
  "abi": [
    {
      "inputs": [
        {
          "internalType": "address",
          "name": "sender",
          "type": "address"
        },
        {
          "internalType": "address",
          "name": "expected",
          "type": "address"
        }
      ],
      "name": "InvalidCrossChainSender",
      "type": "error"
    },
    {
      "inputs": [],
      "name": "NotCrossChainCall",
      "type": "error"
    },
    {
      "inputs": [
        {
          "internalType": "address",
          "name": "target",
          "type": "address"
        },
        {
          "internalType": "bytes",
          "name": "data",
          "type": "bytes"
        },
        {
          "internalType": "address",
          "name": "sender",
          "type": "address"
        }
      ],
      "name": "relayAs",
      "outputs": [],
      "stateMutability": "nonpayable",
      "type": "function"
    }
  ],
  "bytecode": "0x608060405234801561001057600080fd5b506101dc806100206000396000f3fe608060405234801561001057600080fd5b506004361061002b5760003560e01c8063fb417a5b14610030575b600080fd5b61004361003e3660046100cc565b610045565b005b604051639a7c4b7160e01b81526001600160a01b03851690639a7c4b71906100789060009085908890889060040161015f565b600060405180830381600087803b15801561009257600080fd5b505af11580156100a6573d6000803e3d6000fd5b5050505050505050565b80356001600160a01b03811681146100c757600080fd5b919050565b600080600080606085870312156100e257600080fd5b6100eb856100b0565b935060208501356001600160401b038082111561010757600080fd5b818701915087601f83011261011b57600080fd5b81358181111561012a57600080fd5b88602082850101111561013c57600080fd5b602083019550809450505050610154604086016100b0565b905092959194509250565b8481526001600160a01b03841660208201526060604082018190528101829052818360808301376000818301608090810191909152601f909201601f19160101939250505056fea26469706673582212203c52e263c46be936e4e5083d65b0944246459214e764aaa7067aeab06c92cac464736f6c634300080e0033",
  "immutableReferences": {},
  "source": "// SPDX-License-Identifier: MIT\r\n\r\npragma solidity ^0.8.0;\r\n\r\nimport \"../../utils/Address.sol\";\r\nimport \"../../vendor/polygon/IFxMessageProcessor.sol\";\r\n\r\nabstract contract BaseRelayMock {\r\n    // needed to parse custom errors\r\n    error NotCrossChainCall();\r\n    error InvalidCrossChainSender(address sender, address expected);\r\n\r\n    address internal _currentSender;\r\n\r\n    function relayAs(\r\n        address target,\r\n        bytes calldata data,\r\n        address sender\r\n    ) external virtual {\r\n        address previousSender = _currentSender;\r\n\r\n        _currentSender = sender;\r\n\r\n        (bool success, bytes memory returndata) = target.call(data);\r\n        Address.verifyCallResultFromTarget(target, success, returndata, \"low-level call reverted\");\r\n\r\n        _currentSender = previousSender;\r\n    }\r\n}\r\n\r\n/**\r\n * AMB\r\n */\r\ncontract BridgeAMBMock is BaseRelayMock {\r\n    function messageSender() public view returns (address) {\r\n        return _currentSender;\r\n    }\r\n}\r\n\r\n/**\r\n * Arbitrum\r\n */\r\ncontract BridgeArbitrumL1Mock is BaseRelayMock {\r\n    /// @custom:oz-upgrades-unsafe-allow state-variable-immutable state-variable-assignment\r\n    address public immutable inbox = address(new BridgeArbitrumL1Inbox());\r\n    /// @custom:oz-upgrades-unsafe-allow state-variable-immutable state-variable-assignment\r\n    address public immutable outbox = address(new BridgeArbitrumL1Outbox());\r\n\r\n    function activeOutbox() public view returns (address) {\r\n        return outbox;\r\n    }\r\n\r\n    function currentSender() public view returns (address) {\r\n        return _currentSender;\r\n    }\r\n}\r\n\r\ncontract BridgeArbitrumL1Inbox {\r\n    /// @custom:oz-upgrades-unsafe-allow state-variable-immutable state-variable-assignment\r\n    address public immutable bridge = msg.sender;\r\n}\r\n\r\ncontract BridgeArbitrumL1Outbox {\r\n    /// @custom:oz-upgrades-unsafe-allow state-variable-immutable state-variable-assignment\r\n    address public immutable bridge = msg.sender;\r\n\r\n    function l2ToL1Sender() public view returns (address) {\r\n        return BridgeArbitrumL1Mock(bridge).currentSender();\r\n    }\r\n}\r\n\r\ncontract BridgeArbitrumL2Mock is BaseRelayMock {\r\n    function isTopLevelCall() public view returns (bool) {\r\n        return _currentSender != address(0);\r\n    }\r\n\r\n    function wasMyCallersAddressAliased() public pure returns (bool) {\r\n        return true;\r\n    }\r\n\r\n    function myCallersAddressWithoutAliasing() public view returns (address) {\r\n        return _currentSender;\r\n    }\r\n}\r\n\r\n/**\r\n * Optimism\r\n */\r\ncontract BridgeOptimismMock is BaseRelayMock {\r\n    function xDomainMessageSender() public view returns (address) {\r\n        return _currentSender;\r\n    }\r\n}\r\n\r\n/**\r\n * Polygon\r\n */\r\ncontract BridgePolygonChildMock is BaseRelayMock {\r\n    function relayAs(\r\n        address target,\r\n        bytes calldata data,\r\n        address sender\r\n    ) external override {\r\n        IFxMessageProcessor(target).processMessageFromRoot(0, sender, data);\r\n    }\r\n}\r\n",
  "sourcePath": "D:\\work\\www\\yopu_dapp_nft\\contracts\\lib\\openzeppelin\\contracts\\mocks\\crosschain\\bridges.sol",
  "compiler": {
    "name": "solc",
    "version": "0.8.14+commit.80d49f37.Emscripten.clang"
  },
  "schemaVersion": "3.4.7",
  "updatedAt": "2022-06-28T15:05:48.342Z",
  "devdoc": {
    "kind": "dev",
    "methods": {},
    "version": 1
  },
  "userdoc": {
    "kind": "user",
    "methods": {},
    "notice": "Polygon",
    "version": 1
  }
}