{
  "contractName": "Bytes32DequeMock",
  "abi": [
    {
      "inputs": [],
      "name": "Empty",
      "type": "error"
    },
    {
      "inputs": [],
      "name": "OutOfBounds",
      "type": "error"
    },
    {
      "anonymous": false,
      "inputs": [
        {
          "indexed": false,
          "internalType": "bytes32",
          "name": "value",
          "type": "bytes32"
        }
      ],
      "name": "OperationResult",
      "type": "event"
    },
    {
      "inputs": [
        {
          "internalType": "bytes32",
          "name": "value",
          "type": "bytes32"
        }
      ],
      "name": "pushBack",
      "outputs": [],
      "stateMutability": "nonpayable",
      "type": "function"
    },
    {
      "inputs": [
        {
          "internalType": "bytes32",
          "name": "value",
          "type": "bytes32"
        }
      ],
      "name": "pushFront",
      "outputs": [],
      "stateMutability": "nonpayable",
      "type": "function"
    },
    {
      "inputs": [],
      "name": "popFront",
      "outputs": [
        {
          "internalType": "bytes32",
          "name": "",
          "type": "bytes32"
        }
      ],
      "stateMutability": "nonpayable",
      "type": "function"
    },
    {
      "inputs": [],
      "name": "popBack",
      "outputs": [
        {
          "internalType": "bytes32",
          "name": "",
          "type": "bytes32"
        }
      ],
      "stateMutability": "nonpayable",
      "type": "function"
    },
    {
      "inputs": [],
      "name": "front",
      "outputs": [
        {
          "internalType": "bytes32",
          "name": "",
          "type": "bytes32"
        }
      ],
      "stateMutability": "view",
      "type": "function"
    },
    {
      "inputs": [],
      "name": "back",
      "outputs": [
        {
          "internalType": "bytes32",
          "name": "",
          "type": "bytes32"
        }
      ],
      "stateMutability": "view",
      "type": "function"
    },
    {
      "inputs": [
        {
          "internalType": "uint256",
          "name": "i",
          "type": "uint256"
        }
      ],
      "name": "at",
      "outputs": [
        {
          "internalType": "bytes32",
          "name": "",
          "type": "bytes32"
        }
      ],
      "stateMutability": "view",
      "type": "function"
    },
    {
      "inputs": [],
      "name": "clear",
      "outputs": [],
      "stateMutability": "nonpayable",
      "type": "function"
    },
    {
      "inputs": [],
      "name": "length",
      "outputs": [
        {
          "internalType": "uint256",
          "name": "",
          "type": "uint256"
        }
      ],
      "stateMutability": "view",
      "type": "function"
    },
    {
      "inputs": [],
      "name": "empty",
      "outputs": [
        {
          "internalType": "bool",
          "name": "",
          "type": "bool"
        }
      ],
      "stateMutability": "view",
      "type": "function"
    }
  ],
  "bytecode": "0x608060405234801561001057600080fd5b506105d1806100206000396000f3fe608060405234801561001057600080fd5b506004361061008e5760003560e01c80630df3aa9714610093578063107dfb64146100e15780631f7b6d32146100fc57806352efea6e1461011457806384d9fedd1461011c5780638dde084014610124578063ba75bbd81461012c578063c39f130c14610134578063e0886f901461017d578063f2a75fe414610190575b600080fd5b6100df6100a136600461052b565b60008054600019600f91820b019081900b825260016020526040822083905581546001600160801b039091166001600160801b031990911617905550565b005b6100e96101a8565b6040519081526020015b60405180910390f35b600054600f81810b600160801b909204900b036100e9565b6100df6101fa565b6100e9610205565b6100e9610212565b6100e961021e565b6100df61014236600461052b565b60008054600160801b90819004600f0b8083526001602081905260408420859055835491016001600160801b03908116909202911617905550565b6100e961018b36600461052b565b61022a565b61019861023c565b60405190151581526020016100f3565b6000806101b56000610248565b90507f103eed58ce9f94500a2c4079d50a53cb9a602378270d152a3004209a6a588e1d816040516101e891815260200190565b60405180910390a1919050565b905090565b61020360008055565b565b6000806101b560006102b8565b60006101f5600061031e565b60006101f56000610371565b600061023681836103b5565b92915050565b60006101f56000610426565b600061025382610426565b1561027157604051631ed9509560e11b815260040160405180910390fd5b508054600160801b90819004600f90810b600019019081900b60009081526001840160205260408120805491905583546001600160801b0390811692169092021790915590565b60006102c382610426565b156102e157604051631ed9509560e11b815260040160405180910390fd5b508054600f0b6000818152600180840160205260408220805492905583546001600160801b03191692016001600160801b03169190911790915590565b600061032982610426565b1561034757604051631ed9509560e11b815260040160405180910390fd5b508054600160801b9004600f90810b60001901900b60009081526001909101602052604090205490565b600061037c82610426565b1561039a57604051631ed9509560e11b815260040160405180910390fd5b508054600f0b60009081526001909101602052604090205490565b6000806103d86103c48461043b565b85546103d39190600f0b61055a565b6104ae565b8454909150600160801b9004600f90810b9082900b1261040b57604051632d0483c560e21b815260040160405180910390fd5b600f0b60009081526001939093016020525050604090205490565b54600f81810b600160801b909204900b131590565b60006001600160ff1b038211156104aa5760405162461bcd60e51b815260206004820152602860248201527f53616665436173743a2076616c756520646f65736e27742066697420696e2061604482015267371034b73a191a9b60c11b60648201526084015b60405180910390fd5b5090565b600060016001607f1b031982128015906104cf575060016001607f1b038213155b6104aa5760405162461bcd60e51b815260206004820152602760248201527f53616665436173743a2076616c756520646f65736e27742066697420696e20316044820152663238206269747360c81b60648201526084016104a1565b60006020828403121561053d57600080fd5b5035919050565b634e487b7160e01b600052601160045260246000fd5b600080821280156001600160ff1b038490038513161561057c5761057c610544565b600160ff1b839003841281161561059557610595610544565b5050019056fea2646970667358221220d2afff05cc684e2380ff1d235be4c9cac00f8258e8142d362069c7c40f439d6764736f6c634300080e0033",
  "immutableReferences": {},
  "source": "// SPDX-License-Identifier: MIT\r\n\r\npragma solidity ^0.8.0;\r\n\r\nimport \"../utils/structs/DoubleEndedQueue.sol\";\r\n\r\n// Bytes32Deque\r\ncontract Bytes32DequeMock {\r\n    using DoubleEndedQueue for DoubleEndedQueue.Bytes32Deque;\r\n\r\n    event OperationResult(bytes32 value);\r\n\r\n    DoubleEndedQueue.Bytes32Deque private _vector;\r\n\r\n    function pushBack(bytes32 value) public {\r\n        _vector.pushBack(value);\r\n    }\r\n\r\n    function pushFront(bytes32 value) public {\r\n        _vector.pushFront(value);\r\n    }\r\n\r\n    function popFront() public returns (bytes32) {\r\n        bytes32 value = _vector.popFront();\r\n        emit OperationResult(value);\r\n        return value;\r\n    }\r\n\r\n    function popBack() public returns (bytes32) {\r\n        bytes32 value = _vector.popBack();\r\n        emit OperationResult(value);\r\n        return value;\r\n    }\r\n\r\n    function front() public view returns (bytes32) {\r\n        return _vector.front();\r\n    }\r\n\r\n    function back() public view returns (bytes32) {\r\n        return _vector.back();\r\n    }\r\n\r\n    function at(uint256 i) public view returns (bytes32) {\r\n        return _vector.at(i);\r\n    }\r\n\r\n    function clear() public {\r\n        _vector.clear();\r\n    }\r\n\r\n    function length() public view returns (uint256) {\r\n        return _vector.length();\r\n    }\r\n\r\n    function empty() public view returns (bool) {\r\n        return _vector.empty();\r\n    }\r\n}\r\n",
  "sourcePath": "D:\\work\\www\\yopu_dapp_nft\\contracts\\lib\\openzeppelin\\contracts\\mocks\\DoubleEndedQueueMock.sol",
  "compiler": {
    "name": "solc",
    "version": "0.8.14+commit.80d49f37.Emscripten.clang"
  },
  "schemaVersion": "3.4.7",
  "updatedAt": "2022-06-28T15:05:47.230Z",
  "devdoc": {
    "errors": {
      "Empty()": [
        {
          "details": "An operation (e.g. {front}) couldn't be completed due to the queue being empty."
        }
      ],
      "OutOfBounds()": [
        {
          "details": "An operation (e.g. {at}) couldn't be completed due to an index being out of bounds."
        }
      ]
    },
    "kind": "dev",
    "methods": {},
    "version": 1
  },
  "userdoc": {
    "kind": "user",
    "methods": {},
    "version": 1
  }
}