{
  "contractName": "Bytes32ToUintMapMock",
  "abi": [
    {
      "anonymous": false,
      "inputs": [
        {
          "indexed": false,
          "internalType": "bool",
          "name": "result",
          "type": "bool"
        }
      ],
      "name": "OperationResult",
      "type": "event"
    },
    {
      "inputs": [
        {
          "internalType": "bytes32",
          "name": "key",
          "type": "bytes32"
        }
      ],
      "name": "contains",
      "outputs": [
        {
          "internalType": "bool",
          "name": "",
          "type": "bool"
        }
      ],
      "stateMutability": "view",
      "type": "function"
    },
    {
      "inputs": [
        {
          "internalType": "bytes32",
          "name": "key",
          "type": "bytes32"
        },
        {
          "internalType": "uint256",
          "name": "value",
          "type": "uint256"
        }
      ],
      "name": "set",
      "outputs": [],
      "stateMutability": "nonpayable",
      "type": "function"
    },
    {
      "inputs": [
        {
          "internalType": "bytes32",
          "name": "key",
          "type": "bytes32"
        }
      ],
      "name": "remove",
      "outputs": [],
      "stateMutability": "nonpayable",
      "type": "function"
    },
    {
      "inputs": [],
      "name": "length",
      "outputs": [
        {
          "internalType": "uint256",
          "name": "",
          "type": "uint256"
        }
      ],
      "stateMutability": "view",
      "type": "function"
    },
    {
      "inputs": [
        {
          "internalType": "uint256",
          "name": "index",
          "type": "uint256"
        }
      ],
      "name": "at",
      "outputs": [
        {
          "internalType": "bytes32",
          "name": "key",
          "type": "bytes32"
        },
        {
          "internalType": "uint256",
          "name": "value",
          "type": "uint256"
        }
      ],
      "stateMutability": "view",
      "type": "function"
    },
    {
      "inputs": [
        {
          "internalType": "bytes32",
          "name": "key",
          "type": "bytes32"
        }
      ],
      "name": "tryGet",
      "outputs": [
        {
          "internalType": "bool",
          "name": "",
          "type": "bool"
        },
        {
          "internalType": "uint256",
          "name": "",
          "type": "uint256"
        }
      ],
      "stateMutability": "view",
      "type": "function"
    },
    {
      "inputs": [
        {
          "internalType": "bytes32",
          "name": "key",
          "type": "bytes32"
        }
      ],
      "name": "get",
      "outputs": [
        {
          "internalType": "uint256",
          "name": "",
          "type": "uint256"
        }
      ],
      "stateMutability": "view",
      "type": "function"
    },
    {
      "inputs": [
        {
          "internalType": "bytes32",
          "name": "key",
          "type": "bytes32"
        },
        {
          "internalType": "string",
          "name": "errorMessage",
          "type": "string"
        }
      ],
      "name": "getWithMessage",
      "outputs": [
        {
          "internalType": "uint256",
          "name": "",
          "type": "uint256"
        }
      ],
      "stateMutability": "view",
      "type": "function"
    }
  ],
  "bytecode": "0x608060405234801561001057600080fd5b506107d4806100206000396000f3fe608060405234801561001057600080fd5b50600436106100785760003560e01c80631d1a696d1461007d5780631f7b6d32146100a5578063273f4940146100bb5780636cf3dff1146100d05780638eaa6ac0146100e357806395bc2673146100f6578063dc09a8a714610109578063e0886f9014610133575b600080fd5b61009061008b366004610622565b61015b565b60405190151581526020015b60405180910390f35b6100ad61016d565b60405190815260200161009c565b6100ce6100c936600461063b565b61017e565b005b6100ad6100de36600461065d565b6101bb565b6100ad6100f1366004610622565b610207565b6100ce610104366004610622565b610213565b61011c610117366004610622565b61024e565b60408051921515835260208301919091520161009c565b610146610141366004610622565b610264565b6040805192835260208301919091520161009c565b60006101678183610271565b92915050565b60006101796000610284565b905090565b600061018b81848461028f565b905060008051602061077f833981519152816040516101ae911515815260200190565b60405180910390a1505050565b60006101ff8484848080601f0160208091040260200160405190810160405280939291908181526020018383808284376000920182905250949392505061029c9050565b949350505050565b600061016781836102a9565b600061021f81836102b5565b905060008051602061077f83398151915281604051610242911515815260200190565b60405180910390a15050565b60008061025b81846102c1565b91509150915091565b60008061025b81846102df565b600061027d83836102ee565b9392505050565b6000610167826102fa565b60006101ff848484610305565b60006101ff848484610322565b600061027d8383610377565b600061027d83836103e7565b60008080806102d08686610404565b909450925050505b9250929050565b60008080806102d0868661043e565b600061027d8383610469565b600061016782610475565b600082815260028401602052604081208290556101ff848461047f565b600082815260028401602052604081205480151580610346575061034685856102ee565b839061036e5760405162461bcd60e51b815260040161036591906106d8565b60405180910390fd5b50949350505050565b60008181526002830160205260408120548015158061039b575061039b84846102ee565b61027d5760405162461bcd60e51b815260206004820152601e60248201527f456e756d657261626c654d61703a206e6f6e6578697374656e74206b657900006044820152606401610365565b6000818152600283016020526040812081905561027d838361048b565b60008181526002830160205260408120548190806104335761042685856102ee565b9250600091506102d89050565b6001925090506102d8565b6000808061044c8585610497565b600081815260029690960160205260409095205494959350505050565b600061027d83836104a3565b6000610167825490565b600061027d83836104bb565b600061027d8383610505565b600061027d83836105f8565b60009081526001919091016020526040902054151590565b60006104c783836104a3565b6104fd57508154600181810184556000848152602080822090930184905584548482528286019093526040902091909155610167565b506000610167565b600081815260018301602052604081205480156105ee57600061052960018361072d565b855490915060009061053d9060019061072d565b90508181146105a257600086600001828154811061055d5761055d610752565b906000526020600020015490508087600001848154811061058057610580610752565b6000918252602080832090910192909255918252600188019052604090208390555b85548690806105b3576105b3610768565b600190038181906000526020600020016000905590558560010160008681526020019081526020016000206000905560019350505050610167565b6000915050610167565b600082600001828154811061060f5761060f610752565b9060005260206000200154905092915050565b60006020828403121561063457600080fd5b5035919050565b6000806040838503121561064e57600080fd5b50508035926020909101359150565b60008060006040848603121561067257600080fd5b8335925060208401356001600160401b038082111561069057600080fd5b818601915086601f8301126106a457600080fd5b8135818111156106b357600080fd5b8760208285010111156106c557600080fd5b6020830194508093505050509250925092565b600060208083528351808285015260005b81811015610705578581018301518582016040015282016106e9565b81811115610717576000604083870101525b50601f01601f1916929092016040019392505050565b60008282101561074d57634e487b7160e01b600052601160045260246000fd5b500390565b634e487b7160e01b600052603260045260246000fd5b634e487b7160e01b600052603160045260246000fdfeed9840e0775590557ad736875d96c95cf1458b766335f74339951a32c82a9e33a2646970667358221220928440cd1e7c39c3c3e2aa8c71663659e3851adf8d52323ccbe07d05afa5f28064736f6c634300080e0033",
  "immutableReferences": {},
  "source": "// SPDX-License-Identifier: MIT\r\n\r\npragma solidity ^0.8.0;\r\n\r\nimport \"../utils/structs/EnumerableMap.sol\";\r\n\r\n// UintToAddressMap\r\ncontract UintToAddressMapMock {\r\n    using EnumerableMap for EnumerableMap.UintToAddressMap;\r\n\r\n    event OperationResult(bool result);\r\n\r\n    EnumerableMap.UintToAddressMap private _map;\r\n\r\n    function contains(uint256 key) public view returns (bool) {\r\n        return _map.contains(key);\r\n    }\r\n\r\n    function set(uint256 key, address value) public {\r\n        bool result = _map.set(key, value);\r\n        emit OperationResult(result);\r\n    }\r\n\r\n    function remove(uint256 key) public {\r\n        bool result = _map.remove(key);\r\n        emit OperationResult(result);\r\n    }\r\n\r\n    function length() public view returns (uint256) {\r\n        return _map.length();\r\n    }\r\n\r\n    function at(uint256 index) public view returns (uint256 key, address value) {\r\n        return _map.at(index);\r\n    }\r\n\r\n    function tryGet(uint256 key) public view returns (bool, address) {\r\n        return _map.tryGet(key);\r\n    }\r\n\r\n    function get(uint256 key) public view returns (address) {\r\n        return _map.get(key);\r\n    }\r\n\r\n    function getWithMessage(uint256 key, string calldata errorMessage) public view returns (address) {\r\n        return _map.get(key, errorMessage);\r\n    }\r\n}\r\n\r\n// AddressToUintMap\r\ncontract AddressToUintMapMock {\r\n    using EnumerableMap for EnumerableMap.AddressToUintMap;\r\n\r\n    event OperationResult(bool result);\r\n\r\n    EnumerableMap.AddressToUintMap private _map;\r\n\r\n    function contains(address key) public view returns (bool) {\r\n        return _map.contains(key);\r\n    }\r\n\r\n    function set(address key, uint256 value) public {\r\n        bool result = _map.set(key, value);\r\n        emit OperationResult(result);\r\n    }\r\n\r\n    function remove(address key) public {\r\n        bool result = _map.remove(key);\r\n        emit OperationResult(result);\r\n    }\r\n\r\n    function length() public view returns (uint256) {\r\n        return _map.length();\r\n    }\r\n\r\n    function at(uint256 index) public view returns (address key, uint256 value) {\r\n        return _map.at(index);\r\n    }\r\n\r\n    function tryGet(address key) public view returns (bool, uint256) {\r\n        return _map.tryGet(key);\r\n    }\r\n\r\n    function get(address key) public view returns (uint256) {\r\n        return _map.get(key);\r\n    }\r\n\r\n    function getWithMessage(address key, string calldata errorMessage) public view returns (uint256) {\r\n        return _map.get(key, errorMessage);\r\n    }\r\n}\r\n\r\ncontract Bytes32ToBytes32MapMock {\r\n    using EnumerableMap for EnumerableMap.Bytes32ToBytes32Map;\r\n\r\n    event OperationResult(bool result);\r\n\r\n    EnumerableMap.Bytes32ToBytes32Map private _map;\r\n\r\n    function contains(bytes32 key) public view returns (bool) {\r\n        return _map.contains(key);\r\n    }\r\n\r\n    function set(bytes32 key, bytes32 value) public {\r\n        bool result = _map.set(key, value);\r\n        emit OperationResult(result);\r\n    }\r\n\r\n    function remove(bytes32 key) public {\r\n        bool result = _map.remove(key);\r\n        emit OperationResult(result);\r\n    }\r\n\r\n    function length() public view returns (uint256) {\r\n        return _map.length();\r\n    }\r\n\r\n    function at(uint256 index) public view returns (bytes32 key, bytes32 value) {\r\n        return _map.at(index);\r\n    }\r\n\r\n    function tryGet(bytes32 key) public view returns (bool, bytes32) {\r\n        return _map.tryGet(key);\r\n    }\r\n\r\n    function get(bytes32 key) public view returns (bytes32) {\r\n        return _map.get(key);\r\n    }\r\n\r\n    function getWithMessage(bytes32 key, string calldata errorMessage) public view returns (bytes32) {\r\n        return _map.get(key, errorMessage);\r\n    }\r\n}\r\n\r\n// UintToUintMap\r\ncontract UintToUintMapMock {\r\n    using EnumerableMap for EnumerableMap.UintToUintMap;\r\n\r\n    event OperationResult(bool result);\r\n\r\n    EnumerableMap.UintToUintMap private _map;\r\n\r\n    function contains(uint256 key) public view returns (bool) {\r\n        return _map.contains(key);\r\n    }\r\n\r\n    function set(uint256 key, uint256 value) public {\r\n        bool result = _map.set(key, value);\r\n        emit OperationResult(result);\r\n    }\r\n\r\n    function remove(uint256 key) public {\r\n        bool result = _map.remove(key);\r\n        emit OperationResult(result);\r\n    }\r\n\r\n    function length() public view returns (uint256) {\r\n        return _map.length();\r\n    }\r\n\r\n    function at(uint256 index) public view returns (uint256 key, uint256 value) {\r\n        return _map.at(index);\r\n    }\r\n\r\n    function tryGet(uint256 key) public view returns (bool, uint256) {\r\n        return _map.tryGet(key);\r\n    }\r\n\r\n    function get(uint256 key) public view returns (uint256) {\r\n        return _map.get(key);\r\n    }\r\n\r\n    function getWithMessage(uint256 key, string calldata errorMessage) public view returns (uint256) {\r\n        return _map.get(key, errorMessage);\r\n    }\r\n}\r\n\r\n// Bytes32ToUintMap\r\ncontract Bytes32ToUintMapMock {\r\n    using EnumerableMap for EnumerableMap.Bytes32ToUintMap;\r\n\r\n    event OperationResult(bool result);\r\n\r\n    EnumerableMap.Bytes32ToUintMap private _map;\r\n\r\n    function contains(bytes32 key) public view returns (bool) {\r\n        return _map.contains(key);\r\n    }\r\n\r\n    function set(bytes32 key, uint256 value) public {\r\n        bool result = _map.set(key, value);\r\n        emit OperationResult(result);\r\n    }\r\n\r\n    function remove(bytes32 key) public {\r\n        bool result = _map.remove(key);\r\n        emit OperationResult(result);\r\n    }\r\n\r\n    function length() public view returns (uint256) {\r\n        return _map.length();\r\n    }\r\n\r\n    function at(uint256 index) public view returns (bytes32 key, uint256 value) {\r\n        return _map.at(index);\r\n    }\r\n\r\n    function tryGet(bytes32 key) public view returns (bool, uint256) {\r\n        return _map.tryGet(key);\r\n    }\r\n\r\n    function get(bytes32 key) public view returns (uint256) {\r\n        return _map.get(key);\r\n    }\r\n\r\n    function getWithMessage(bytes32 key, string calldata errorMessage) public view returns (uint256) {\r\n        return _map.get(key, errorMessage);\r\n    }\r\n}\r\n",
  "sourcePath": "D:\\work\\www\\yopu_dapp_nft\\contracts\\lib\\openzeppelin\\contracts\\mocks\\EnumerableMapMock.sol",
  "compiler": {
    "name": "solc",
    "version": "0.8.14+commit.80d49f37.Emscripten.clang"
  },
  "schemaVersion": "3.4.7",
  "updatedAt": "2022-06-28T15:05:47.738Z",
  "devdoc": {
    "kind": "dev",
    "methods": {},
    "version": 1
  },
  "userdoc": {
    "kind": "user",
    "methods": {},
    "version": 1
  }
}