{
  "contractName": "Bytes32ToBytes32MapMock",
  "abi": [
    {
      "anonymous": false,
      "inputs": [
        {
          "indexed": false,
          "internalType": "bool",
          "name": "result",
          "type": "bool"
        }
      ],
      "name": "OperationResult",
      "type": "event"
    },
    {
      "inputs": [
        {
          "internalType": "bytes32",
          "name": "key",
          "type": "bytes32"
        }
      ],
      "name": "contains",
      "outputs": [
        {
          "internalType": "bool",
          "name": "",
          "type": "bool"
        }
      ],
      "stateMutability": "view",
      "type": "function"
    },
    {
      "inputs": [
        {
          "internalType": "bytes32",
          "name": "key",
          "type": "bytes32"
        },
        {
          "internalType": "bytes32",
          "name": "value",
          "type": "bytes32"
        }
      ],
      "name": "set",
      "outputs": [],
      "stateMutability": "nonpayable",
      "type": "function"
    },
    {
      "inputs": [
        {
          "internalType": "bytes32",
          "name": "key",
          "type": "bytes32"
        }
      ],
      "name": "remove",
      "outputs": [],
      "stateMutability": "nonpayable",
      "type": "function"
    },
    {
      "inputs": [],
      "name": "length",
      "outputs": [
        {
          "internalType": "uint256",
          "name": "",
          "type": "uint256"
        }
      ],
      "stateMutability": "view",
      "type": "function"
    },
    {
      "inputs": [
        {
          "internalType": "uint256",
          "name": "index",
          "type": "uint256"
        }
      ],
      "name": "at",
      "outputs": [
        {
          "internalType": "bytes32",
          "name": "key",
          "type": "bytes32"
        },
        {
          "internalType": "bytes32",
          "name": "value",
          "type": "bytes32"
        }
      ],
      "stateMutability": "view",
      "type": "function"
    },
    {
      "inputs": [
        {
          "internalType": "bytes32",
          "name": "key",
          "type": "bytes32"
        }
      ],
      "name": "tryGet",
      "outputs": [
        {
          "internalType": "bool",
          "name": "",
          "type": "bool"
        },
        {
          "internalType": "bytes32",
          "name": "",
          "type": "bytes32"
        }
      ],
      "stateMutability": "view",
      "type": "function"
    },
    {
      "inputs": [
        {
          "internalType": "bytes32",
          "name": "key",
          "type": "bytes32"
        }
      ],
      "name": "get",
      "outputs": [
        {
          "internalType": "bytes32",
          "name": "",
          "type": "bytes32"
        }
      ],
      "stateMutability": "view",
      "type": "function"
    },
    {
      "inputs": [
        {
          "internalType": "bytes32",
          "name": "key",
          "type": "bytes32"
        },
        {
          "internalType": "string",
          "name": "errorMessage",
          "type": "string"
        }
      ],
      "name": "getWithMessage",
      "outputs": [
        {
          "internalType": "bytes32",
          "name": "",
          "type": "bytes32"
        }
      ],
      "stateMutability": "view",
      "type": "function"
    }
  ],
  "bytecode": "0x608060405234801561001057600080fd5b50610761806100206000396000f3fe608060405234801561001057600080fd5b50600436106100785760003560e01c80631d1a696d1461007d5780631f7b6d32146100a55780636cf3dff1146100bb5780638eaa6ac0146100ce57806395bc2673146100e1578063dc09a8a7146100f6578063e0886f9014610120578063f71f7a2514610148575b600080fd5b61009061008b3660046105af565b61015b565b60405190151581526020015b60405180910390f35b6100ad61016d565b60405190815260200161009c565b6100ad6100c93660046105c8565b61017e565b6100ad6100dc3660046105af565b6101ca565b6100f46100ef3660046105af565b6101d6565b005b6101096101043660046105af565b610211565b60408051921515835260208301919091520161009c565b61013361012e3660046105af565b610227565b6040805192835260208301919091520161009c565b6100f4610156366004610643565b610234565b60006101678183610271565b92915050565b60006101796000610284565b905090565b60006101c28484848080601f0160208091040260200160405190810160405280939291908181526020018383808284376000920182905250949392505061028f9050565b949350505050565b600061016781836102e4565b60006101e28183610354565b905060008051602061070c83398151915281604051610205911515815260200190565b60405180910390a15050565b60008061021e8184610371565b91509150915091565b60008061021e81846103ae565b60006102418184846103d9565b905060008051602061070c83398151915281604051610264911515815260200190565b60405180910390a1505050565b600061027d83836103f6565b9392505050565b600061016782610402565b6000828152600284016020526040812054801515806102b357506102b38585610271565b83906102db5760405162461bcd60e51b81526004016102d29190610665565b60405180910390fd5b50949350505050565b60008181526002830160205260408120548015158061030857506103088484610271565b61027d5760405162461bcd60e51b815260206004820152601e60248201527f456e756d657261626c654d61703a206e6f6e6578697374656e74206b6579000060448201526064016102d2565b6000818152600283016020526040812081905561027d838361040c565b60008181526002830160205260408120548190806103a0576103938585610271565b9250600091506103a79050565b6001925090505b9250929050565b600080806103bc8585610418565b600081815260029690960160205260409095205494959350505050565b600082815260028401602052604081208290556101c28484610424565b600061027d8383610430565b6000610167825490565b600061027d8383610448565b600061027d838361053b565b600061027d8383610565565b60009081526001919091016020526040902054151590565b6000818152600183016020526040812054801561053157600061046c6001836106ba565b8554909150600090610480906001906106ba565b90508181146104e55760008660000182815481106104a0576104a06106df565b90600052602060002001549050808760000184815481106104c3576104c36106df565b6000918252602080832090910192909255918252600188019052604090208390555b85548690806104f6576104f66106f5565b600190038181906000526020600020016000905590558560010160008681526020019081526020016000206000905560019350505050610167565b6000915050610167565b6000826000018281548110610552576105526106df565b9060005260206000200154905092915050565b60006105718383610430565b6105a757508154600181810184556000848152602080822090930184905584548482528286019093526040902091909155610167565b506000610167565b6000602082840312156105c157600080fd5b5035919050565b6000806000604084860312156105dd57600080fd5b8335925060208401356001600160401b03808211156105fb57600080fd5b818601915086601f83011261060f57600080fd5b81358181111561061e57600080fd5b87602082850101111561063057600080fd5b6020830194508093505050509250925092565b6000806040838503121561065657600080fd5b50508035926020909101359150565b600060208083528351808285015260005b8181101561069257858101830151858201604001528201610676565b818111156106a4576000604083870101525b50601f01601f1916929092016040019392505050565b6000828210156106da57634e487b7160e01b600052601160045260246000fd5b500390565b634e487b7160e01b600052603260045260246000fd5b634e487b7160e01b600052603160045260246000fdfeed9840e0775590557ad736875d96c95cf1458b766335f74339951a32c82a9e33a26469706673582212201a5e7ef5a7ea3e5f26cae110204edd6f07368992b6f1da4f7f2f90a770ecd56f64736f6c634300080e0033",
  "immutableReferences": {},
  "source": "// SPDX-License-Identifier: MIT\r\n\r\npragma solidity ^0.8.0;\r\n\r\nimport \"../utils/structs/EnumerableMap.sol\";\r\n\r\n// UintToAddressMap\r\ncontract UintToAddressMapMock {\r\n    using EnumerableMap for EnumerableMap.UintToAddressMap;\r\n\r\n    event OperationResult(bool result);\r\n\r\n    EnumerableMap.UintToAddressMap private _map;\r\n\r\n    function contains(uint256 key) public view returns (bool) {\r\n        return _map.contains(key);\r\n    }\r\n\r\n    function set(uint256 key, address value) public {\r\n        bool result = _map.set(key, value);\r\n        emit OperationResult(result);\r\n    }\r\n\r\n    function remove(uint256 key) public {\r\n        bool result = _map.remove(key);\r\n        emit OperationResult(result);\r\n    }\r\n\r\n    function length() public view returns (uint256) {\r\n        return _map.length();\r\n    }\r\n\r\n    function at(uint256 index) public view returns (uint256 key, address value) {\r\n        return _map.at(index);\r\n    }\r\n\r\n    function tryGet(uint256 key) public view returns (bool, address) {\r\n        return _map.tryGet(key);\r\n    }\r\n\r\n    function get(uint256 key) public view returns (address) {\r\n        return _map.get(key);\r\n    }\r\n\r\n    function getWithMessage(uint256 key, string calldata errorMessage) public view returns (address) {\r\n        return _map.get(key, errorMessage);\r\n    }\r\n}\r\n\r\n// AddressToUintMap\r\ncontract AddressToUintMapMock {\r\n    using EnumerableMap for EnumerableMap.AddressToUintMap;\r\n\r\n    event OperationResult(bool result);\r\n\r\n    EnumerableMap.AddressToUintMap private _map;\r\n\r\n    function contains(address key) public view returns (bool) {\r\n        return _map.contains(key);\r\n    }\r\n\r\n    function set(address key, uint256 value) public {\r\n        bool result = _map.set(key, value);\r\n        emit OperationResult(result);\r\n    }\r\n\r\n    function remove(address key) public {\r\n        bool result = _map.remove(key);\r\n        emit OperationResult(result);\r\n    }\r\n\r\n    function length() public view returns (uint256) {\r\n        return _map.length();\r\n    }\r\n\r\n    function at(uint256 index) public view returns (address key, uint256 value) {\r\n        return _map.at(index);\r\n    }\r\n\r\n    function tryGet(address key) public view returns (bool, uint256) {\r\n        return _map.tryGet(key);\r\n    }\r\n\r\n    function get(address key) public view returns (uint256) {\r\n        return _map.get(key);\r\n    }\r\n\r\n    function getWithMessage(address key, string calldata errorMessage) public view returns (uint256) {\r\n        return _map.get(key, errorMessage);\r\n    }\r\n}\r\n\r\ncontract Bytes32ToBytes32MapMock {\r\n    using EnumerableMap for EnumerableMap.Bytes32ToBytes32Map;\r\n\r\n    event OperationResult(bool result);\r\n\r\n    EnumerableMap.Bytes32ToBytes32Map private _map;\r\n\r\n    function contains(bytes32 key) public view returns (bool) {\r\n        return _map.contains(key);\r\n    }\r\n\r\n    function set(bytes32 key, bytes32 value) public {\r\n        bool result = _map.set(key, value);\r\n        emit OperationResult(result);\r\n    }\r\n\r\n    function remove(bytes32 key) public {\r\n        bool result = _map.remove(key);\r\n        emit OperationResult(result);\r\n    }\r\n\r\n    function length() public view returns (uint256) {\r\n        return _map.length();\r\n    }\r\n\r\n    function at(uint256 index) public view returns (bytes32 key, bytes32 value) {\r\n        return _map.at(index);\r\n    }\r\n\r\n    function tryGet(bytes32 key) public view returns (bool, bytes32) {\r\n        return _map.tryGet(key);\r\n    }\r\n\r\n    function get(bytes32 key) public view returns (bytes32) {\r\n        return _map.get(key);\r\n    }\r\n\r\n    function getWithMessage(bytes32 key, string calldata errorMessage) public view returns (bytes32) {\r\n        return _map.get(key, errorMessage);\r\n    }\r\n}\r\n\r\n// UintToUintMap\r\ncontract UintToUintMapMock {\r\n    using EnumerableMap for EnumerableMap.UintToUintMap;\r\n\r\n    event OperationResult(bool result);\r\n\r\n    EnumerableMap.UintToUintMap private _map;\r\n\r\n    function contains(uint256 key) public view returns (bool) {\r\n        return _map.contains(key);\r\n    }\r\n\r\n    function set(uint256 key, uint256 value) public {\r\n        bool result = _map.set(key, value);\r\n        emit OperationResult(result);\r\n    }\r\n\r\n    function remove(uint256 key) public {\r\n        bool result = _map.remove(key);\r\n        emit OperationResult(result);\r\n    }\r\n\r\n    function length() public view returns (uint256) {\r\n        return _map.length();\r\n    }\r\n\r\n    function at(uint256 index) public view returns (uint256 key, uint256 value) {\r\n        return _map.at(index);\r\n    }\r\n\r\n    function tryGet(uint256 key) public view returns (bool, uint256) {\r\n        return _map.tryGet(key);\r\n    }\r\n\r\n    function get(uint256 key) public view returns (uint256) {\r\n        return _map.get(key);\r\n    }\r\n\r\n    function getWithMessage(uint256 key, string calldata errorMessage) public view returns (uint256) {\r\n        return _map.get(key, errorMessage);\r\n    }\r\n}\r\n\r\n// Bytes32ToUintMap\r\ncontract Bytes32ToUintMapMock {\r\n    using EnumerableMap for EnumerableMap.Bytes32ToUintMap;\r\n\r\n    event OperationResult(bool result);\r\n\r\n    EnumerableMap.Bytes32ToUintMap private _map;\r\n\r\n    function contains(bytes32 key) public view returns (bool) {\r\n        return _map.contains(key);\r\n    }\r\n\r\n    function set(bytes32 key, uint256 value) public {\r\n        bool result = _map.set(key, value);\r\n        emit OperationResult(result);\r\n    }\r\n\r\n    function remove(bytes32 key) public {\r\n        bool result = _map.remove(key);\r\n        emit OperationResult(result);\r\n    }\r\n\r\n    function length() public view returns (uint256) {\r\n        return _map.length();\r\n    }\r\n\r\n    function at(uint256 index) public view returns (bytes32 key, uint256 value) {\r\n        return _map.at(index);\r\n    }\r\n\r\n    function tryGet(bytes32 key) public view returns (bool, uint256) {\r\n        return _map.tryGet(key);\r\n    }\r\n\r\n    function get(bytes32 key) public view returns (uint256) {\r\n        return _map.get(key);\r\n    }\r\n\r\n    function getWithMessage(bytes32 key, string calldata errorMessage) public view returns (uint256) {\r\n        return _map.get(key, errorMessage);\r\n    }\r\n}\r\n",
  "sourcePath": "D:\\work\\www\\yopu_dapp_nft\\contracts\\lib\\openzeppelin\\contracts\\mocks\\EnumerableMapMock.sol",
  "compiler": {
    "name": "solc",
    "version": "0.8.14+commit.80d49f37.Emscripten.clang"
  },
  "schemaVersion": "3.4.7",
  "updatedAt": "2022-06-28T15:05:47.730Z",
  "devdoc": {
    "kind": "dev",
    "methods": {},
    "version": 1
  },
  "userdoc": {
    "kind": "user",
    "methods": {},
    "version": 1
  }
}