{
  "contractName": "CallReceiverMock",
  "abi": [
    {
      "anonymous": false,
      "inputs": [],
      "name": "MockFunctionCalled",
      "type": "event"
    },
    {
      "anonymous": false,
      "inputs": [
        {
          "indexed": false,
          "internalType": "uint256",
          "name": "a",
          "type": "uint256"
        },
        {
          "indexed": false,
          "internalType": "uint256",
          "name": "b",
          "type": "uint256"
        }
      ],
      "name": "MockFunctionCalledWithArgs",
      "type": "event"
    },
    {
      "inputs": [],
      "name": "sharedAnswer",
      "outputs": [
        {
          "internalType": "string",
          "name": "",
          "type": "string"
        }
      ],
      "stateMutability": "view",
      "type": "function"
    },
    {
      "inputs": [],
      "name": "mockFunction",
      "outputs": [
        {
          "internalType": "string",
          "name": "",
          "type": "string"
        }
      ],
      "stateMutability": "payable",
      "type": "function"
    },
    {
      "inputs": [
        {
          "internalType": "uint256",
          "name": "a",
          "type": "uint256"
        },
        {
          "internalType": "uint256",
          "name": "b",
          "type": "uint256"
        }
      ],
      "name": "mockFunctionWithArgs",
      "outputs": [
        {
          "internalType": "string",
          "name": "",
          "type": "string"
        }
      ],
      "stateMutability": "payable",
      "type": "function"
    },
    {
      "inputs": [],
      "name": "mockFunctionNonPayable",
      "outputs": [
        {
          "internalType": "string",
          "name": "",
          "type": "string"
        }
      ],
      "stateMutability": "nonpayable",
      "type": "function"
    },
    {
      "inputs": [],
      "name": "mockStaticFunction",
      "outputs": [
        {
          "internalType": "string",
          "name": "",
          "type": "string"
        }
      ],
      "stateMutability": "pure",
      "type": "function"
    },
    {
      "inputs": [],
      "name": "mockFunctionRevertsNoReason",
      "outputs": [],
      "stateMutability": "payable",
      "type": "function"
    },
    {
      "inputs": [],
      "name": "mockFunctionRevertsReason",
      "outputs": [],
      "stateMutability": "payable",
      "type": "function"
    },
    {
      "inputs": [],
      "name": "mockFunctionThrows",
      "outputs": [],
      "stateMutability": "payable",
      "type": "function"
    },
    {
      "inputs": [],
      "name": "mockFunctionOutOfGas",
      "outputs": [],
      "stateMutability": "payable",
      "type": "function"
    },
    {
      "inputs": [],
      "name": "mockFunctionWritesStorage",
      "outputs": [
        {
          "internalType": "string",
          "name": "",
          "type": "string"
        }
      ],
      "stateMutability": "nonpayable",
      "type": "function"
    }
  ],
  "bytecode": "0x608060405234801561001057600080fd5b50610529806100206000396000f3fe6080604052600436106100815760003560e01c80630c034968146100865780630f63e42c146100905780632c81d638146100bb5780633bcfaa14146100c35780633e6fec04146100cb578063a793ab47146100d3578063aa04f77e146100db578063c8fc7696146100f0578063fc40cf731461011f578063fdb2732514610134575b600080fd5b61008e610147565b005b34801561009c57600080fd5b506100a5610191565b6040516100b29190610405565b60405180910390f35b61008e600080fd5b61008e6101de565b6100a5610191565b61008e6101e8565b3480156100e757600080fd5b506100a561022f565b3480156100fc57600080fd5b506040805180820190915260068152650c1e0c4c8ccd60d21b60208201526100a5565b34801561012b57600080fd5b506100a561027e565b6100a561014236600461045a565b61030c565b60405162461bcd60e51b815260206004820152601b60248201527a43616c6c52656365697665724d6f636b3a20726576657274696e6760281b604482015260640160405180910390fd5b6040516060907f52c66ed6ec9ca819cba26fe2b2650059270d8981b295af300187a964f54a8c2390600090a1506040805180820190915260068152650c1e0c4c8ccd60d21b602082015290565b6101e661047c565b565b60005b6001805480820182556000919091527fb10e2d527612073b26eecdfd717e6a320cf44b4afac2b0732d9fcbe2b7fa0cf60181905561022881610492565b90506101eb565b604080518082019091526002808252611a1960f11b602090920191825260609161025c916000919061036c565b50506040805180820190915260068152650c1e0c4c8ccd60d21b602082015290565b6000805461028b906104b9565b80601f01602080910402602001604051908101604052809291908181526020018280546102b7906104b9565b80156103045780601f106102d957610100808354040283529160200191610304565b820191906000526020600020905b8154815290600101906020018083116102e757829003601f168201915b505050505081565b60408051838152602081018390526060917f2b42b3c9af4187c86225f201736204c7597312c830cb5c2537dff6ef24b946ae910160405180910390a1506040805180820190915260068152650c1e0c4c8ccd60d21b602082015292915050565b828054610378906104b9565b90600052602060002090601f01602090048101928261039a57600085556103e0565b82601f106103b357805160ff19168380011785556103e0565b828001600101855582156103e0579182015b828111156103e05782518255916020019190600101906103c5565b506103ec9291506103f0565b5090565b5b808211156103ec57600081556001016103f1565b600060208083528351808285015260005b8181101561043257858101830151858201604001528201610416565b81811115610444576000604083870101525b50601f01601f1916929092016040019392505050565b6000806040838503121561046d57600080fd5b50508035926020909101359150565b634e487b7160e01b600052600160045260246000fd5b6000600182016104b257634e487b7160e01b600052601160045260246000fd5b5060010190565b600181811c908216806104cd57607f821691505b6020821081036104ed57634e487b7160e01b600052602260045260246000fd5b5091905056fea26469706673582212207bed24edaf59c042d46bd3d8b1de5469ebf3627501f8e8bea2a3a46b0ee4246b64736f6c634300080e0033",
  "immutableReferences": {},
  "source": "// SPDX-License-Identifier: MIT\r\n\r\npragma solidity ^0.8.0;\r\n\r\ncontract CallReceiverMock {\r\n    string public sharedAnswer;\r\n\r\n    event MockFunctionCalled();\r\n    event MockFunctionCalledWithArgs(uint256 a, uint256 b);\r\n\r\n    uint256[] private _array;\r\n\r\n    function mockFunction() public payable returns (string memory) {\r\n        emit MockFunctionCalled();\r\n\r\n        return \"0x1234\";\r\n    }\r\n\r\n    function mockFunctionWithArgs(uint256 a, uint256 b) public payable returns (string memory) {\r\n        emit MockFunctionCalledWithArgs(a, b);\r\n\r\n        return \"0x1234\";\r\n    }\r\n\r\n    function mockFunctionNonPayable() public returns (string memory) {\r\n        emit MockFunctionCalled();\r\n\r\n        return \"0x1234\";\r\n    }\r\n\r\n    function mockStaticFunction() public pure returns (string memory) {\r\n        return \"0x1234\";\r\n    }\r\n\r\n    function mockFunctionRevertsNoReason() public payable {\r\n        revert();\r\n    }\r\n\r\n    function mockFunctionRevertsReason() public payable {\r\n        revert(\"CallReceiverMock: reverting\");\r\n    }\r\n\r\n    function mockFunctionThrows() public payable {\r\n        assert(false);\r\n    }\r\n\r\n    function mockFunctionOutOfGas() public payable {\r\n        for (uint256 i = 0; ; ++i) {\r\n            _array.push(i);\r\n        }\r\n    }\r\n\r\n    function mockFunctionWritesStorage() public returns (string memory) {\r\n        sharedAnswer = \"42\";\r\n        return \"0x1234\";\r\n    }\r\n}\r\n",
  "sourcePath": "D:\\work\\www\\yopu_dapp_nft\\contracts\\lib\\openzeppelin\\contracts\\mocks\\CallReceiverMock.sol",
  "compiler": {
    "name": "solc",
    "version": "0.8.14+commit.80d49f37.Emscripten.clang"
  },
  "schemaVersion": "3.4.7",
  "updatedAt": "2022-06-28T15:05:47.193Z",
  "devdoc": {
    "kind": "dev",
    "methods": {},
    "version": 1
  },
  "userdoc": {
    "kind": "user",
    "methods": {},
    "version": 1
  }
}