{
  "contractName": "CheckpointsImpl",
  "abi": [
    {
      "inputs": [],
      "name": "latest",
      "outputs": [
        {
          "internalType": "uint256",
          "name": "",
          "type": "uint256"
        }
      ],
      "stateMutability": "view",
      "type": "function"
    },
    {
      "inputs": [
        {
          "internalType": "uint256",
          "name": "blockNumber",
          "type": "uint256"
        }
      ],
      "name": "getAtBlock",
      "outputs": [
        {
          "internalType": "uint256",
          "name": "",
          "type": "uint256"
        }
      ],
      "stateMutability": "view",
      "type": "function"
    },
    {
      "inputs": [
        {
          "internalType": "uint256",
          "name": "value",
          "type": "uint256"
        }
      ],
      "name": "push",
      "outputs": [
        {
          "internalType": "uint256",
          "name": "",
          "type": "uint256"
        },
        {
          "internalType": "uint256",
          "name": "",
          "type": "uint256"
        }
      ],
      "stateMutability": "nonpayable",
      "type": "function"
    },
    {
      "inputs": [],
      "name": "length",
      "outputs": [
        {
          "internalType": "uint256",
          "name": "",
          "type": "uint256"
        }
      ],
      "stateMutability": "view",
      "type": "function"
    }
  ],
  "bytecode": "0x608060405234801561001057600080fd5b50610537806100206000396000f3fe608060405234801561001057600080fd5b506004361061004c5760003560e01c80631f7b6d321461005157806352bfe78914610068578063959ac48414610070578063ee1bc75114610098575b600080fd5b6000545b6040519081526020015b60405180910390f35b6100556100ab565b61008361007e36600461046b565b6100bc565b6040805192835260208301919091520161005f565b6100556100a636600461046b565b6100d2565b60006100b760006100e4565b905090565b6000806100c9818461013f565b91509150915091565b60006100de8183610264565b92915050565b8054600090801561012c57826100fb60018361049a565b8154811061010b5761010b6104b1565b600091825260209091200154600160201b90046001600160e01b031661012f565b60005b6001600160e01b03169392505050565b8154600090819081610150866100e4565b905060008211801561018e5750438661016a60018561049a565b8154811061017a5761017a6104b1565b60009182526020909120015463ffffffff16145b156101ee5761019c85610377565b866101a860018561049a565b815481106101b8576101b86104b1565b9060005260206000200160000160046101000a8154816001600160e01b0302191690836001600160e01b0316021790555061025b565b856000016040518060400160405280610206436103e4565b63ffffffff16815260200161021a88610377565b6001600160e01b039081169091528254600181018455600093845260209384902083519490930151909116600160201b0263ffffffff909316929092179101555b95939450505050565b60004382106102ba5760405162461bcd60e51b815260206004820181905260248201527f436865636b706f696e74733a20626c6f636b206e6f7420796574206d696e656460448201526064015b60405180910390fd5b825460005b8181101561031f5760006102d38284610449565b9050848660000182815481106102eb576102eb6104b1565b60009182526020909120015463ffffffff16111561030b57809250610319565b6103168160016104c7565b91505b506102bf565b8115610362578461033160018461049a565b81548110610341576103416104b1565b600091825260209091200154600160201b90046001600160e01b0316610365565b60005b6001600160e01b031695945050505050565b60006001600160e01b038211156103e05760405162461bcd60e51b815260206004820152602760248201527f53616665436173743a2076616c756520646f65736e27742066697420696e20326044820152663234206269747360c81b60648201526084016102b1565b5090565b600063ffffffff8211156103e05760405162461bcd60e51b815260206004820152602660248201527f53616665436173743a2076616c756520646f65736e27742066697420696e203360448201526532206269747360d01b60648201526084016102b1565b600061045860028484186104df565b610464908484166104c7565b9392505050565b60006020828403121561047d57600080fd5b5035919050565b634e487b7160e01b600052601160045260246000fd5b6000828210156104ac576104ac610484565b500390565b634e487b7160e01b600052603260045260246000fd5b600082198211156104da576104da610484565b500190565b6000826104fc57634e487b7160e01b600052601260045260246000fd5b50049056fea264697066735822122031412ee5ae892575a89158eafd6dd68f43026b2e74792609c2c2c714ba766f4864736f6c634300080e0033",
  "immutableReferences": {},
  "source": "// SPDX-License-Identifier: MIT\r\n\r\npragma solidity ^0.8.0;\r\n\r\nimport \"../utils/Checkpoints.sol\";\r\n\r\ncontract CheckpointsImpl {\r\n    using Checkpoints for Checkpoints.History;\r\n\r\n    Checkpoints.History private _totalCheckpoints;\r\n\r\n    function latest() public view returns (uint256) {\r\n        return _totalCheckpoints.latest();\r\n    }\r\n\r\n    function getAtBlock(uint256 blockNumber) public view returns (uint256) {\r\n        return _totalCheckpoints.getAtBlock(blockNumber);\r\n    }\r\n\r\n    function push(uint256 value) public returns (uint256, uint256) {\r\n        return _totalCheckpoints.push(value);\r\n    }\r\n\r\n    function length() public view returns (uint256) {\r\n        return _totalCheckpoints._checkpoints.length;\r\n    }\r\n}\r\n",
  "sourcePath": "D:\\work\\www\\yopu_dapp_nft\\contracts\\lib\\openzeppelin\\contracts\\mocks\\CheckpointsImpl.sol",
  "compiler": {
    "name": "solc",
    "version": "0.8.14+commit.80d49f37.Emscripten.clang"
  },
  "schemaVersion": "3.4.7",
  "updatedAt": "2022-06-28T15:05:47.197Z",
  "devdoc": {
    "kind": "dev",
    "methods": {},
    "version": 1
  },
  "userdoc": {
    "kind": "user",
    "methods": {},
    "version": 1
  }
}