{
  "contractName": "ClashingImplementation",
  "abi": [
    {
      "inputs": [],
      "name": "admin",
      "outputs": [
        {
          "internalType": "address",
          "name": "",
          "type": "address"
        }
      ],
      "stateMutability": "pure",
      "type": "function"
    },
    {
      "inputs": [],
      "name": "delegatedFunction",
      "outputs": [
        {
          "internalType": "bool",
          "name": "",
          "type": "bool"
        }
      ],
      "stateMutability": "pure",
      "type": "function"
    }
  ],
  "bytecode": "0x6080604052348015600f57600080fd5b5060928061001e6000396000f3fe6080604052348015600f57600080fd5b506004361060325760003560e01c8063abf8e0e7146037578063f851a44014604b575b600080fd5b604051600181526020015b60405180910390f35b60405163111111428152602001604256fea2646970667358221220490eed30c5ad3ab3d71fc72f19b650bf9411de81e6d7a291cba1bc7ade7120d764736f6c634300080e0033",
  "immutableReferences": {},
  "source": "// SPDX-License-Identifier: MIT\r\n\r\npragma solidity ^0.8.0;\r\n\r\n/**\r\n * @dev Implementation contract with an admin() function made to clash with\r\n * @dev TransparentUpgradeableProxy's to test correct functioning of the\r\n * @dev Transparent Proxy feature.\r\n */\r\ncontract ClashingImplementation {\r\n    function admin() external pure returns (address) {\r\n        return 0x0000000000000000000000000000000011111142;\r\n    }\r\n\r\n    function delegatedFunction() external pure returns (bool) {\r\n        return true;\r\n    }\r\n}\r\n",
  "sourcePath": "D:\\work\\www\\yopu_dapp_nft\\contracts\\lib\\openzeppelin\\contracts\\mocks\\ClashingImplementation.sol",
  "compiler": {
    "name": "solc",
    "version": "0.8.14+commit.80d49f37.Emscripten.clang"
  },
  "schemaVersion": "3.4.7",
  "updatedAt": "2022-06-28T15:05:47.200Z",
  "devdoc": {
    "details": "Implementation contract with an admin() function made to clash withTransparentUpgradeableProxy's to test correct functioning of theTransparent Proxy feature.",
    "kind": "dev",
    "methods": {},
    "version": 1
  },
  "userdoc": {
    "kind": "user",
    "methods": {},
    "version": 1
  }
}