{
  "contractName": "ClonesMock",
  "abi": [
    {
      "anonymous": false,
      "inputs": [
        {
          "indexed": false,
          "internalType": "address",
          "name": "instance",
          "type": "address"
        }
      ],
      "name": "NewInstance",
      "type": "event"
    },
    {
      "inputs": [
        {
          "internalType": "address",
          "name": "implementation",
          "type": "address"
        },
        {
          "internalType": "bytes",
          "name": "initdata",
          "type": "bytes"
        }
      ],
      "name": "clone",
      "outputs": [],
      "stateMutability": "payable",
      "type": "function"
    },
    {
      "inputs": [
        {
          "internalType": "address",
          "name": "implementation",
          "type": "address"
        },
        {
          "internalType": "bytes32",
          "name": "salt",
          "type": "bytes32"
        },
        {
          "internalType": "bytes",
          "name": "initdata",
          "type": "bytes"
        }
      ],
      "name": "cloneDeterministic",
      "outputs": [],
      "stateMutability": "payable",
      "type": "function"
    },
    {
      "inputs": [
        {
          "internalType": "address",
          "name": "implementation",
          "type": "address"
        },
        {
          "internalType": "bytes32",
          "name": "salt",
          "type": "bytes32"
        }
      ],
      "name": "predictDeterministicAddress",
      "outputs": [
        {
          "internalType": "address",
          "name": "predicted",
          "type": "address"
        }
      ],
      "stateMutability": "view",
      "type": "function"
    }
  ],
  "bytecode": "0x608060405234801561001057600080fd5b506106ea806100206000396000f3fe6080604052600436106100345760003560e01c80630fbe133c14610039578063360d0fad1461004e5780636e9ebc8114610084575b600080fd5b61004c610047366004610527565b610097565b005b34801561005a57600080fd5b5061006e610069366004610579565b6100ed565b60405161007b91906105a3565b60405180910390f35b61004c6100923660046105b7565b61010b565b6100e86100ac846001600160a01b0316610127565b83838080601f0160208091040260200160405190810160405280939291908181526020018383808284376000920191909152506101c992505050565b505050565b60006101026001600160a01b03841683610221565b90505b92915050565b6101216100ac6001600160a01b03861685610287565b50505050565b6000604051733d602d80600a3d3981f3363d3d373d3d3d363d7360601b81528260601b60148201526e5af43d82803e903d91602b57fd5bf360881b60288201526037816000f09150506001600160a01b0381166101c45760405162461bcd60e51b8152602060048201526016602482015275115490cc4c4d8dce8818dc99585d194819985a5b195960521b60448201526064015b60405180910390fd5b919050565b8051156101e6576101e46001600160a01b0383168234610321565b505b7f39a773f10839d86923d91d5ce7d6642f2f63a95d850495abb1f162e38aa04ea58260405161021591906105a3565b60405180910390a15050565b6000610102838330604051733d602d80600a3d3981f3363d3d373d3d3d363d7360601b8152606093841b60148201526f5af43d82803e903d91602b57fd5bf3ff60801b6028820152921b6038830152604c8201526037808220606c830152605591012090565b6000604051733d602d80600a3d3981f3363d3d373d3d3d363d7360601b81528360601b60148201526e5af43d82803e903d91602b57fd5bf360881b6028820152826037826000f59150506001600160a01b0381166101055760405162461bcd60e51b8152602060048201526017602482015276115490cc4c4d8dce8818dc99585d194c8819985a5b1959604a1b60448201526064016101bb565b606061034784848460405180606001604052806029815260200161068c6029913961034f565b949350505050565b6060824710156103b05760405162461bcd60e51b815260206004820152602660248201527f416464726573733a20696e73756666696369656e742062616c616e636520666f6044820152651c8818d85b1b60d21b60648201526084016101bb565b600080866001600160a01b031685876040516103cc919061063c565b60006040518083038185875af1925050503d8060008114610409576040519150601f19603f3d011682016040523d82523d6000602084013e61040e565b606091505b509150915061041f8783838761042a565b979650505050505050565b60608315610499578251600003610492576001600160a01b0385163b6104925760405162461bcd60e51b815260206004820152601d60248201527f416464726573733a2063616c6c20746f206e6f6e2d636f6e747261637400000060448201526064016101bb565b5081610347565b61034783838151156104ae5781518083602001fd5b8060405162461bcd60e51b81526004016101bb9190610658565b80356001600160a01b03811681146101c457600080fd5b60008083601f8401126104f157600080fd5b5081356001600160401b0381111561050857600080fd5b60208301915083602082850101111561052057600080fd5b9250929050565b60008060006040848603121561053c57600080fd5b610545846104c8565b925060208401356001600160401b0381111561056057600080fd5b61056c868287016104df565b9497909650939450505050565b6000806040838503121561058c57600080fd5b610595836104c8565b946020939093013593505050565b6001600160a01b0391909116815260200190565b600080600080606085870312156105cd57600080fd5b6105d6856104c8565b93506020850135925060408501356001600160401b038111156105f857600080fd5b610604878288016104df565b95989497509550505050565b60005b8381101561062b578181015183820152602001610613565b838111156101215750506000910152565b6000825161064e818460208701610610565b9190910192915050565b6020815260008251806020840152610677816040850160208701610610565b601f01601f1916919091016040019291505056fe416464726573733a206c6f772d6c6576656c2063616c6c20776974682076616c7565206661696c6564a26469706673582212205ae4b54f68c2bf43432b48a4cff52e1f2b4ab3bb0a9bb88bea983134d35714c864736f6c634300080e0033",
  "immutableReferences": {},
  "source": "// SPDX-License-Identifier: MIT\r\n\r\npragma solidity ^0.8.0;\r\n\r\nimport \"../proxy/Clones.sol\";\r\nimport \"../utils/Address.sol\";\r\n\r\ncontract ClonesMock {\r\n    using Address for address;\r\n    using Clones for address;\r\n\r\n    event NewInstance(address instance);\r\n\r\n    function clone(address implementation, bytes calldata initdata) public payable {\r\n        _initAndEmit(implementation.clone(), initdata);\r\n    }\r\n\r\n    function cloneDeterministic(\r\n        address implementation,\r\n        bytes32 salt,\r\n        bytes calldata initdata\r\n    ) public payable {\r\n        _initAndEmit(implementation.cloneDeterministic(salt), initdata);\r\n    }\r\n\r\n    function predictDeterministicAddress(address implementation, bytes32 salt) public view returns (address predicted) {\r\n        return implementation.predictDeterministicAddress(salt);\r\n    }\r\n\r\n    function _initAndEmit(address instance, bytes memory initdata) private {\r\n        if (initdata.length > 0) {\r\n            instance.functionCallWithValue(initdata, msg.value);\r\n        }\r\n        emit NewInstance(instance);\r\n    }\r\n}\r\n",
  "sourcePath": "D:\\work\\www\\yopu_dapp_nft\\contracts\\lib\\openzeppelin\\contracts\\mocks\\ClonesMock.sol",
  "compiler": {
    "name": "solc",
    "version": "0.8.14+commit.80d49f37.Emscripten.clang"
  },
  "schemaVersion": "3.4.7",
  "updatedAt": "2022-06-28T15:05:47.205Z",
  "devdoc": {
    "kind": "dev",
    "methods": {},
    "version": 1
  },
  "userdoc": {
    "kind": "user",
    "methods": {},
    "version": 1
  }
}