{
  "contractName": "ConstructorInitializableMock",
  "abi": [
    {
      "inputs": [],
      "stateMutability": "nonpayable",
      "type": "constructor"
    },
    {
      "anonymous": false,
      "inputs": [
        {
          "indexed": false,
          "internalType": "uint8",
          "name": "version",
          "type": "uint8"
        }
      ],
      "name": "Initialized",
      "type": "event"
    },
    {
      "inputs": [],
      "name": "initializerRan",
      "outputs": [
        {
          "internalType": "bool",
          "name": "",
          "type": "bool"
        }
      ],
      "stateMutability": "view",
      "type": "function"
    },
    {
      "inputs": [],
      "name": "onlyInitializingRan",
      "outputs": [
        {
          "internalType": "bool",
          "name": "",
          "type": "bool"
        }
      ],
      "stateMutability": "view",
      "type": "function"
    },
    {
      "inputs": [],
      "name": "initialize",
      "outputs": [],
      "stateMutability": "nonpayable",
      "type": "function"
    },
    {
      "inputs": [],
      "name": "initializeOnlyInitializing",
      "outputs": [],
      "stateMutability": "nonpayable",
      "type": "function"
    }
  ],
  "bytecode": "0x608060405234801561001057600080fd5b50600054610100900460ff16158080156100315750600054600160ff909116105b8061005c575061004a306100ee60201b6102441760201c565b15801561005c575060005460ff166001145b6100815760405162461bcd60e51b81526004016100789061024f565b60405180910390fd5b6000805460ff1916600117905580156100a4576000805461ff0019166101001790555b6100ac6100fd565b6100b46101cf565b80156100e8576000805461ff0019169055604051600181526000805160206105358339815191529060200160405180910390a15b5061029d565b6001600160a01b03163b151590565b600054610100900460ff161580801561011d5750600054600160ff909116105b806101485750610136306100ee60201b6102441760201c565b158015610148575060005460ff166001145b6101645760405162461bcd60e51b81526004016100789061024f565b6000805460ff191660011790558015610187576000805461ff0019166101001790555b6000805462ff000019166201000017905580156101cc576000805461ff0019169055604051600181526000805160206105358339815191529060200160405180910390a15b50565b600054610100900460ff1661023a5760405162461bcd60e51b815260206004820152602b60248201527f496e697469616c697a61626c653a20636f6e7472616374206973206e6f74206960448201526a6e697469616c697a696e6760a81b6064820152608401610078565b6000805463ff00000019166301000000179055565b6020808252602e908201527f496e697469616c697a61626c653a20636f6e747261637420697320616c72656160408201526d191e481a5b9a5d1a585b1a5e995960921b606082015260800190565b610289806102ac6000396000f3fe608060405234801561001057600080fd5b506004361061004c5760003560e01c806310065ed2146100515780637cffe97a1461005b5780638129fc1c14610083578063c3b8ef2a1461008b575b600080fd5b61005961009e565b005b60005461006f906301000000900460ff1681565b604051901515815260200160405180910390f35b610059610123565b60005461006f9062010000900460ff1681565b600054610100900460ff1661010e5760405162461bcd60e51b815260206004820152602b60248201527f496e697469616c697a61626c653a20636f6e7472616374206973206e6f74206960448201526a6e697469616c697a696e6760a81b60648201526084015b60405180910390fd5b6000805463ff00000019166301000000179055565b600054610100900460ff16158080156101435750600054600160ff909116105b80610164575061015230610244565b158015610164575060005460ff166001145b6101c75760405162461bcd60e51b815260206004820152602e60248201527f496e697469616c697a61626c653a20636f6e747261637420697320616c72656160448201526d191e481a5b9a5d1a585b1a5e995960921b6064820152608401610105565b6000805460ff1916600117905580156101ea576000805461ff0019166101001790555b6000805462ff00001916620100001790558015610241576000805461ff0019169055604051600181527f7f26b83ff96e1f2b6a682f133852f6798a09c465da95921460cefb38474024989060200160405180910390a15b50565b6001600160a01b03163b15159056fea2646970667358221220dc39243376ac122fefa4094aa4571ffaf914c5e46a67169a290dbd73f7dec56764736f6c634300080e00337f26b83ff96e1f2b6a682f133852f6798a09c465da95921460cefb3847402498",
  "immutableReferences": {},
  "source": "// SPDX-License-Identifier: MIT\r\n\r\npragma solidity ^0.8.0;\r\n\r\nimport \"../proxy/utils/Initializable.sol\";\r\n\r\n/**\r\n * @title InitializableMock\r\n * @dev This contract is a mock to test initializable functionality\r\n */\r\ncontract InitializableMock is Initializable {\r\n    bool public initializerRan;\r\n    bool public onlyInitializingRan;\r\n    uint256 public x;\r\n\r\n    function initialize() public initializer {\r\n        initializerRan = true;\r\n    }\r\n\r\n    function initializeOnlyInitializing() public onlyInitializing {\r\n        onlyInitializingRan = true;\r\n    }\r\n\r\n    function initializerNested() public initializer {\r\n        initialize();\r\n    }\r\n\r\n    function onlyInitializingNested() public initializer {\r\n        initializeOnlyInitializing();\r\n    }\r\n\r\n    function initializeWithX(uint256 _x) public payable initializer {\r\n        x = _x;\r\n    }\r\n\r\n    function nonInitializable(uint256 _x) public payable {\r\n        x = _x;\r\n    }\r\n\r\n    function fail() public pure {\r\n        require(false, \"InitializableMock forced failure\");\r\n    }\r\n}\r\n\r\ncontract ConstructorInitializableMock is Initializable {\r\n    bool public initializerRan;\r\n    bool public onlyInitializingRan;\r\n\r\n    constructor() initializer {\r\n        initialize();\r\n        initializeOnlyInitializing();\r\n    }\r\n\r\n    function initialize() public initializer {\r\n        initializerRan = true;\r\n    }\r\n\r\n    function initializeOnlyInitializing() public onlyInitializing {\r\n        onlyInitializingRan = true;\r\n    }\r\n}\r\n\r\ncontract ChildConstructorInitializableMock is ConstructorInitializableMock {\r\n    bool public childInitializerRan;\r\n\r\n    constructor() initializer {\r\n        childInitialize();\r\n    }\r\n\r\n    function childInitialize() public initializer {\r\n        childInitializerRan = true;\r\n    }\r\n}\r\n\r\ncontract ReinitializerMock is Initializable {\r\n    uint256 public counter;\r\n\r\n    function initialize() public initializer {\r\n        doStuff();\r\n    }\r\n\r\n    function reinitialize(uint8 i) public reinitializer(i) {\r\n        doStuff();\r\n    }\r\n\r\n    function nestedReinitialize(uint8 i, uint8 j) public reinitializer(i) {\r\n        reinitialize(j);\r\n    }\r\n\r\n    function chainReinitialize(uint8 i, uint8 j) public {\r\n        reinitialize(i);\r\n        reinitialize(j);\r\n    }\r\n\r\n    function disableInitializers() public {\r\n        _disableInitializers();\r\n    }\r\n\r\n    function doStuff() public onlyInitializing {\r\n        counter++;\r\n    }\r\n}\r\n\r\ncontract DisableNew is Initializable {\r\n    constructor() {\r\n        _disableInitializers();\r\n    }\r\n}\r\n\r\ncontract DisableOld is Initializable {\r\n    constructor() initializer {}\r\n}\r\n\r\ncontract DisableBad1 is DisableNew, DisableOld {}\r\n\r\ncontract DisableBad2 is Initializable {\r\n    constructor() initializer {\r\n        _disableInitializers();\r\n    }\r\n}\r\n\r\ncontract DisableOk is DisableOld, DisableNew {}\r\n",
  "sourcePath": "D:\\work\\www\\yopu_dapp_nft\\contracts\\lib\\openzeppelin\\contracts\\mocks\\InitializableMock.sol",
  "compiler": {
    "name": "solc",
    "version": "0.8.14+commit.80d49f37.Emscripten.clang"
  },
  "schemaVersion": "3.4.7",
  "updatedAt": "2022-06-28T15:05:48.036Z",
  "devdoc": {
    "kind": "dev",
    "methods": {},
    "version": 1
  },
  "userdoc": {
    "kind": "user",
    "methods": {},
    "version": 1
  }
}