{
  "contractName": "CrossChainEnabledAMBMock",
  "abi": [
    {
      "inputs": [
        {
          "internalType": "address",
          "name": "bridge",
          "type": "address"
        }
      ],
      "stateMutability": "nonpayable",
      "type": "constructor"
    },
    {
      "inputs": [
        {
          "internalType": "address",
          "name": "actual",
          "type": "address"
        },
        {
          "internalType": "address",
          "name": "expected",
          "type": "address"
        }
      ],
      "name": "InvalidCrossChainSender",
      "type": "error"
    },
    {
      "inputs": [],
      "name": "NotCrossChainCall",
      "type": "error"
    },
    {
      "inputs": [],
      "name": "crossChainOwnerRestricted",
      "outputs": [],
      "stateMutability": "nonpayable",
      "type": "function"
    },
    {
      "inputs": [],
      "name": "crossChainRestricted",
      "outputs": [],
      "stateMutability": "nonpayable",
      "type": "function"
    },
    {
      "inputs": [],
      "name": "owner",
      "outputs": [
        {
          "internalType": "address",
          "name": "",
          "type": "address"
        }
      ],
      "stateMutability": "view",
      "type": "function"
    }
  ],
  "bytecode": "0x60c06040523360805234801561001457600080fd5b5060405161036538038061036583398101604081905261003391610044565b6001600160a01b031660a052610074565b60006020828403121561005657600080fd5b81516001600160a01b038116811461006d57600080fd5b9392505050565b60805160a0516102c06100a56000396000818161014301526101980152600081816055015260c401526102c06000f3fe608060405234801561001057600080fd5b50600436106100415760003560e01c80634b074af5146100465780638da5cb5b14610050578063f97f518914610093575b600080fd5b61004e61009b565b005b6100777f000000000000000000000000000000000000000000000000000000000000000081565b6040516001600160a01b03909116815260200160405180910390f35b61004e6100c2565b6100a361013c565b6100c05760405163253a6fc960e11b815260040160405180910390fd5b565b7f000000000000000000000000000000000000000000000000000000000000000060006100ed61016c565b9050806001600160a01b0316826001600160a01b0316146101385760405163ef25d32b60e01b81526001600160a01b0380831660048301528316602482015260440160405180910390fd5b5050565b60006101677f00000000000000000000000000000000000000000000000000000000000000006101bc565b905090565b600061017661013c565b6101935760405163253a6fc960e11b815260040160405180910390fd5b6101677f00000000000000000000000000000000000000000000000000000000000000006101ca565b6001600160a01b0316331490565b60006101d5826101bc565b6101f25760405163253a6fc960e11b815260040160405180910390fd5b816001600160a01b031663d67bdd256040518163ffffffff1660e01b8152600401602060405180830381865afa158015610230573d6000803e3d6000fd5b505050506040513d601f19601f82011682018060405250810190610254919061025a565b92915050565b60006020828403121561026c57600080fd5b81516001600160a01b038116811461028357600080fd5b939250505056fea2646970667358221220dd892ff6f41b684b5b56a0f10638263ea5f40fa773e03c91d679b8d0a0eb7fe664736f6c634300080e0033",
  "immutableReferences": {
    "935": [
      {
        "length": 32,
        "start": 323
      },
      {
        "length": 32,
        "start": 408
      }
    ],
    "19457": [
      {
        "length": 32,
        "start": 85
      },
      {
        "length": 32,
        "start": 196
      }
    ]
  },
  "source": "// SPDX-License-Identifier: MIT\r\n\r\npragma solidity ^0.8.4;\r\n\r\nimport \"../../access/Ownable.sol\";\r\nimport \"../../crosschain/amb/CrossChainEnabledAMB.sol\";\r\nimport \"../../crosschain/arbitrum/CrossChainEnabledArbitrumL1.sol\";\r\nimport \"../../crosschain/arbitrum/CrossChainEnabledArbitrumL2.sol\";\r\nimport \"../../crosschain/optimism/CrossChainEnabledOptimism.sol\";\r\nimport \"../../crosschain/polygon/CrossChainEnabledPolygonChild.sol\";\r\n\r\nabstract contract Receiver is CrossChainEnabled {\r\n    // we don't use Ownable because it messes up testing for the upgradeable contracts\r\n    /// @custom:oz-upgrades-unsafe-allow state-variable-immutable state-variable-assignment\r\n    address public immutable owner = msg.sender;\r\n\r\n    function crossChainRestricted() external onlyCrossChain {}\r\n\r\n    function crossChainOwnerRestricted() external onlyCrossChainSender(owner) {}\r\n}\r\n\r\n/**\r\n * AMB\r\n */\r\ncontract CrossChainEnabledAMBMock is Receiver, CrossChainEnabledAMB {\r\n    /// @custom:oz-upgrades-unsafe-allow constructor\r\n    constructor(address bridge) CrossChainEnabledAMB(bridge) {}\r\n}\r\n\r\n/**\r\n * Arbitrum\r\n */\r\ncontract CrossChainEnabledArbitrumL1Mock is Receiver, CrossChainEnabledArbitrumL1 {\r\n    /// @custom:oz-upgrades-unsafe-allow constructor\r\n    constructor(address bridge) CrossChainEnabledArbitrumL1(bridge) {}\r\n}\r\n\r\ncontract CrossChainEnabledArbitrumL2Mock is Receiver, CrossChainEnabledArbitrumL2 {}\r\n\r\n/**\r\n * Optimism\r\n */\r\ncontract CrossChainEnabledOptimismMock is Receiver, CrossChainEnabledOptimism {\r\n    /// @custom:oz-upgrades-unsafe-allow constructor\r\n    constructor(address bridge) CrossChainEnabledOptimism(bridge) {}\r\n}\r\n\r\n/**\r\n * Polygon\r\n */\r\ncontract CrossChainEnabledPolygonChildMock is Receiver, CrossChainEnabledPolygonChild {\r\n    /// @custom:oz-upgrades-unsafe-allow constructor\r\n    constructor(address bridge) CrossChainEnabledPolygonChild(bridge) {}\r\n}\r\n",
  "sourcePath": "D:\\work\\www\\yopu_dapp_nft\\contracts\\lib\\openzeppelin\\contracts\\mocks\\crosschain\\receivers.sol",
  "compiler": {
    "name": "solc",
    "version": "0.8.14+commit.80d49f37.Emscripten.clang"
  },
  "schemaVersion": "3.4.7",
  "updatedAt": "2022-06-28T15:05:48.346Z",
  "devdoc": {
    "kind": "dev",
    "methods": {
      "constructor": {
        "custom:oz-upgrades-unsafe-allow": "constructor"
      }
    },
    "version": 1
  },
  "userdoc": {
    "kind": "user",
    "methods": {},
    "notice": "AMB",
    "version": 1
  }
}