{
  "contractName": "CrossChainEnabledPolygonChildMock",
  "abi": [
    {
      "inputs": [
        {
          "internalType": "address",
          "name": "bridge",
          "type": "address"
        }
      ],
      "stateMutability": "nonpayable",
      "type": "constructor"
    },
    {
      "inputs": [
        {
          "internalType": "address",
          "name": "actual",
          "type": "address"
        },
        {
          "internalType": "address",
          "name": "expected",
          "type": "address"
        }
      ],
      "name": "InvalidCrossChainSender",
      "type": "error"
    },
    {
      "inputs": [],
      "name": "NotCrossChainCall",
      "type": "error"
    },
    {
      "inputs": [],
      "name": "crossChainOwnerRestricted",
      "outputs": [],
      "stateMutability": "nonpayable",
      "type": "function"
    },
    {
      "inputs": [],
      "name": "crossChainRestricted",
      "outputs": [],
      "stateMutability": "nonpayable",
      "type": "function"
    },
    {
      "inputs": [],
      "name": "owner",
      "outputs": [
        {
          "internalType": "address",
          "name": "",
          "type": "address"
        }
      ],
      "stateMutability": "view",
      "type": "function"
    },
    {
      "inputs": [
        {
          "internalType": "uint256",
          "name": "",
          "type": "uint256"
        },
        {
          "internalType": "address",
          "name": "rootMessageSender",
          "type": "address"
        },
        {
          "internalType": "bytes",
          "name": "data",
          "type": "bytes"
        }
      ],
      "name": "processMessageFromRoot",
      "outputs": [],
      "stateMutability": "nonpayable",
      "type": "function"
    }
  ],
  "bytecode": "0x60c060405233608052600180546001600160a01b03191661dead17905534801561002857600080fd5b5060405161060e38038061060e8339810160408190526100479161005d565b60016000556001600160a01b031660a05261008d565b60006020828403121561006f57600080fd5b81516001600160a01b038116811461008657600080fd5b9392505050565b60805160a0516105566100b8600039600061028f0152600081816060015261021001526105566000f3fe608060405234801561001057600080fd5b506004361061004c5760003560e01c80634b074af5146100515780638da5cb5b1461005b5780639a7c4b711461009e578063f97f5189146100b1575b600080fd5b6100596100b9565b005b6100827f000000000000000000000000000000000000000000000000000000000000000081565b6040516001600160a01b03909116815260200160405180910390f35b6100596100ac36600461040d565b6100e0565b61005961020e565b6100c1610284565b6100de5760405163253a6fc960e11b815260040160405180910390fd5b565b6002600054036101375760405162461bcd60e51b815260206004820152601f60248201527f5265656e7472616e637947756172643a207265656e7472616e742063616c6c0060448201526064015b60405180910390fd5b6002600055610144610284565b6101615760405163253a6fc960e11b815260040160405180910390fd5b600180546001600160a01b0319166001600160a01b038516179055604080516020601f84018190048102820181019092528281526101f09130919085908590819084018382808284376000920191909152505060408051808201909152601c81527b18dc9bdcdccb58da185a5b88195e1958dd5d1a5bdb8819985a5b195960221b602082015291506102b39050565b5050600180546001600160a01b03191661dead178155600055505050565b7f0000000000000000000000000000000000000000000000000000000000000000600061023961032b565b9050806001600160a01b0316826001600160a01b0316146102805760405163ef25d32b60e01b81526001600160a01b0380831660048301528316602482015260440161012e565b5050565b336001600160a01b037f0000000000000000000000000000000000000000000000000000000000000000161490565b6060600080856001600160a01b0316856040516102d091906104d1565b600060405180830381855af49150503d806000811461030b576040519150601f19603f3d011682016040523d82523d6000602084013e610310565b606091505b509150915061032186838387610362565b9695505050505050565b6000610335610284565b6103525760405163253a6fc960e11b815260040160405180910390fd5b506001546001600160a01b031690565b606083156103d15782516000036103ca576001600160a01b0385163b6103ca5760405162461bcd60e51b815260206004820152601d60248201527f416464726573733a2063616c6c20746f206e6f6e2d636f6e7472616374000000604482015260640161012e565b50816103db565b6103db83836103e3565b949350505050565b8151156103f35781518083602001fd5b8060405162461bcd60e51b815260040161012e91906104ed565b6000806000806060858703121561042357600080fd5b8435935060208501356001600160a01b038116811461044157600080fd5b925060408501356001600160401b038082111561045d57600080fd5b818701915087601f83011261047157600080fd5b81358181111561048057600080fd5b88602082850101111561049257600080fd5b95989497505060200194505050565b60005b838110156104bc5781810151838201526020016104a4565b838111156104cb576000848401525b50505050565b600082516104e38184602087016104a1565b9190910192915050565b602081526000825180602084015261050c8160408501602087016104a1565b601f01601f1916919091016040019291505056fea2646970667358221220a298c5556ca972bc30b119e80f87e92f0683ca6b9f5b72ced11cac4f3ef5caf664736f6c634300080e0033",
  "immutableReferences": {
    "1352": [
      {
        "length": 32,
        "start": 655
      }
    ],
    "19457": [
      {
        "length": 32,
        "start": 96
      },
      {
        "length": 32,
        "start": 528
      }
    ]
  },
  "source": "// SPDX-License-Identifier: MIT\r\n\r\npragma solidity ^0.8.4;\r\n\r\nimport \"../../access/Ownable.sol\";\r\nimport \"../../crosschain/amb/CrossChainEnabledAMB.sol\";\r\nimport \"../../crosschain/arbitrum/CrossChainEnabledArbitrumL1.sol\";\r\nimport \"../../crosschain/arbitrum/CrossChainEnabledArbitrumL2.sol\";\r\nimport \"../../crosschain/optimism/CrossChainEnabledOptimism.sol\";\r\nimport \"../../crosschain/polygon/CrossChainEnabledPolygonChild.sol\";\r\n\r\nabstract contract Receiver is CrossChainEnabled {\r\n    // we don't use Ownable because it messes up testing for the upgradeable contracts\r\n    /// @custom:oz-upgrades-unsafe-allow state-variable-immutable state-variable-assignment\r\n    address public immutable owner = msg.sender;\r\n\r\n    function crossChainRestricted() external onlyCrossChain {}\r\n\r\n    function crossChainOwnerRestricted() external onlyCrossChainSender(owner) {}\r\n}\r\n\r\n/**\r\n * AMB\r\n */\r\ncontract CrossChainEnabledAMBMock is Receiver, CrossChainEnabledAMB {\r\n    /// @custom:oz-upgrades-unsafe-allow constructor\r\n    constructor(address bridge) CrossChainEnabledAMB(bridge) {}\r\n}\r\n\r\n/**\r\n * Arbitrum\r\n */\r\ncontract CrossChainEnabledArbitrumL1Mock is Receiver, CrossChainEnabledArbitrumL1 {\r\n    /// @custom:oz-upgrades-unsafe-allow constructor\r\n    constructor(address bridge) CrossChainEnabledArbitrumL1(bridge) {}\r\n}\r\n\r\ncontract CrossChainEnabledArbitrumL2Mock is Receiver, CrossChainEnabledArbitrumL2 {}\r\n\r\n/**\r\n * Optimism\r\n */\r\ncontract CrossChainEnabledOptimismMock is Receiver, CrossChainEnabledOptimism {\r\n    /// @custom:oz-upgrades-unsafe-allow constructor\r\n    constructor(address bridge) CrossChainEnabledOptimism(bridge) {}\r\n}\r\n\r\n/**\r\n * Polygon\r\n */\r\ncontract CrossChainEnabledPolygonChildMock is Receiver, CrossChainEnabledPolygonChild {\r\n    /// @custom:oz-upgrades-unsafe-allow constructor\r\n    constructor(address bridge) CrossChainEnabledPolygonChild(bridge) {}\r\n}\r\n",
  "sourcePath": "D:\\work\\www\\yopu_dapp_nft\\contracts\\lib\\openzeppelin\\contracts\\mocks\\crosschain\\receivers.sol",
  "compiler": {
    "name": "solc",
    "version": "0.8.14+commit.80d49f37.Emscripten.clang"
  },
  "schemaVersion": "3.4.7",
  "updatedAt": "2022-06-28T15:05:48.360Z",
  "devdoc": {
    "kind": "dev",
    "methods": {
      "constructor": {
        "custom:oz-upgrades-unsafe-allow": "constructor"
      },
      "processMessageFromRoot(uint256,address,bytes)": {
        "details": "External entry point to receive and relay messages originating from the fxChild. Non-reentrancy is crucial to avoid a cross-chain call being able to impersonate anyone by just looping through this with user-defined arguments. Note: if _fxChild calls any other function that does a delegate-call, then security could be compromised."
      }
    },
    "version": 1
  },
  "userdoc": {
    "kind": "user",
    "methods": {},
    "notice": "Polygon",
    "version": 1
  }
}