{
  "contractName": "ECDSAMock",
  "abi": [
    {
      "inputs": [
        {
          "internalType": "bytes32",
          "name": "hash",
          "type": "bytes32"
        },
        {
          "internalType": "bytes",
          "name": "signature",
          "type": "bytes"
        }
      ],
      "name": "recover",
      "outputs": [
        {
          "internalType": "address",
          "name": "",
          "type": "address"
        }
      ],
      "stateMutability": "pure",
      "type": "function"
    },
    {
      "inputs": [
        {
          "internalType": "bytes32",
          "name": "hash",
          "type": "bytes32"
        },
        {
          "internalType": "uint8",
          "name": "v",
          "type": "uint8"
        },
        {
          "internalType": "bytes32",
          "name": "r",
          "type": "bytes32"
        },
        {
          "internalType": "bytes32",
          "name": "s",
          "type": "bytes32"
        }
      ],
      "name": "recover_v_r_s",
      "outputs": [
        {
          "internalType": "address",
          "name": "",
          "type": "address"
        }
      ],
      "stateMutability": "pure",
      "type": "function"
    },
    {
      "inputs": [
        {
          "internalType": "bytes32",
          "name": "hash",
          "type": "bytes32"
        },
        {
          "internalType": "bytes32",
          "name": "r",
          "type": "bytes32"
        },
        {
          "internalType": "bytes32",
          "name": "vs",
          "type": "bytes32"
        }
      ],
      "name": "recover_r_vs",
      "outputs": [
        {
          "internalType": "address",
          "name": "",
          "type": "address"
        }
      ],
      "stateMutability": "pure",
      "type": "function"
    },
    {
      "inputs": [
        {
          "internalType": "bytes32",
          "name": "hash",
          "type": "bytes32"
        }
      ],
      "name": "toEthSignedMessageHash",
      "outputs": [
        {
          "internalType": "bytes32",
          "name": "",
          "type": "bytes32"
        }
      ],
      "stateMutability": "pure",
      "type": "function"
    },
    {
      "inputs": [
        {
          "internalType": "bytes",
          "name": "s",
          "type": "bytes"
        }
      ],
      "name": "toEthSignedMessageHash",
      "outputs": [
        {
          "internalType": "bytes32",
          "name": "",
          "type": "bytes32"
        }
      ],
      "stateMutability": "pure",
      "type": "function"
    }
  ],
  "bytecode": "0x608060405234801561001057600080fd5b50610992806100206000396000f3fe608060405234801561001057600080fd5b50600436106100575760003560e01c8063126442731461005c57806319045a251461008c578063918a15cf1461009f57806392bd87b5146100c0578063a005410b146100d3575b600080fd5b61006f61006a366004610667565b6100e6565b6040516001600160a01b0390911681526020015b60405180910390f35b61006f61009a36600461074c565b6100fd565b6100b26100ad366004610792565b610110565b604051908152602001610083565b6100b26100ce3660046107ab565b610121565b61006f6100e13660046107df565b61012c565b60006100f485858585610141565b95945050505050565b60006101098383610169565b9392505050565b600061011b8261018d565b92915050565b600061011b826101e0565b60006101398484846101fe565b949350505050565b600080600061015287878787610224565b9150915061015f81610307565b5095945050505050565b600080600061017885856104c0565b9150915061018581610307565b509392505050565b6040517b0ca2ba3432b932bab69029b4b3b732b21026b2b9b9b0b3b29d05199960211b6020820152603c8101829052600090605c015b604051602081830303815290604052805190602001209050919050565b60006101ec825161052e565b826040516020016101c392919061083b565b600080600061020e86868661062e565b9150915061021b81610307565b50949350505050565b6000806fa2a8918ca85bafe22016d0b997e4df60600160ff1b0383111561025157506000905060036102fe565b8460ff16601b1415801561026957508460ff16601c14155b1561027a57506000905060046102fe565b6040805160008082526020820180845289905260ff881692820192909252606081018690526080810185905260019060a0016020604051602081039080840390855afa1580156102ce573d6000803e3d6000fd5b5050604051601f1901519150506001600160a01b0381166102f7576000600192509250506102fe565b9150600090505b94509492505050565b600081600481111561031b5761031b610894565b036103235750565b600181600481111561033757610337610894565b036103845760405162461bcd60e51b815260206004820152601860248201527745434453413a20696e76616c6964207369676e617475726560401b60448201526064015b60405180910390fd5b600281600481111561039857610398610894565b036103e55760405162461bcd60e51b815260206004820152601f60248201527f45434453413a20696e76616c6964207369676e6174757265206c656e67746800604482015260640161037b565b60038160048111156103f9576103f9610894565b036104515760405162461bcd60e51b815260206004820152602260248201527f45434453413a20696e76616c6964207369676e6174757265202773272076616c604482015261756560f01b606482015260840161037b565b600481600481111561046557610465610894565b036104bd5760405162461bcd60e51b815260206004820152602260248201527f45434453413a20696e76616c6964207369676e6174757265202776272076616c604482015261756560f01b606482015260840161037b565b50565b60008082516041036104f65760208301516040840151606085015160001a6104ea87828585610224565b94509450505050610527565b825160400361051f576020830151604084015161051486838361062e565b935093505050610527565b506000905060025b9250929050565b6060816000036105555750506040805180820190915260018152600360fc1b602082015290565b8160005b811561057f5780610569816108c0565b91506105789050600a836108ef565b9150610559565b6000816001600160401b03811115610599576105996106aa565b6040519080825280601f01601f1916602001820160405280156105c3576020820181803683370190505b5090505b8415610139576105d8600183610903565b91506105e5600a8661091a565b6105f090603061092e565b60f81b81838151811061060557610605610946565b60200101906001600160f81b031916908160001a905350610627600a866108ef565b94506105c7565b6000806001600160ff1b0383168161064b60ff86901c601b61092e565b905061065987828885610224565b935093505050935093915050565b6000806000806080858703121561067d57600080fd5b84359350602085013560ff8116811461069557600080fd5b93969395505050506040820135916060013590565b634e487b7160e01b600052604160045260246000fd5b600082601f8301126106d157600080fd5b81356001600160401b03808211156106eb576106eb6106aa565b604051601f8301601f19908116603f01168101908282118183101715610713576107136106aa565b8160405283815286602085880101111561072c57600080fd5b836020870160208301376000602085830101528094505050505092915050565b6000806040838503121561075f57600080fd5b8235915060208301356001600160401b0381111561077c57600080fd5b610788858286016106c0565b9150509250929050565b6000602082840312156107a457600080fd5b5035919050565b6000602082840312156107bd57600080fd5b81356001600160401b038111156107d357600080fd5b610139848285016106c0565b6000806000606084860312156107f457600080fd5b505081359360208301359350604090920135919050565b60005b8381101561082657818101518382015260200161080e565b83811115610835576000848401525b50505050565b790ca2ba3432b932bab69029b4b3b732b21026b2b9b9b0b3b29d0560311b8152825160009061087181601a85016020880161080b565b83519083019061088881601a84016020880161080b565b01601a01949350505050565b634e487b7160e01b600052602160045260246000fd5b634e487b7160e01b600052601160045260246000fd5b6000600182016108d2576108d26108aa565b5060010190565b634e487b7160e01b600052601260045260246000fd5b6000826108fe576108fe6108d9565b500490565b600082821015610915576109156108aa565b500390565b600082610929576109296108d9565b500690565b60008219821115610941576109416108aa565b500190565b634e487b7160e01b600052603260045260246000fdfea26469706673582212201194fc249b14d3074e5b48ab1898867f581b3c4fe356638b45ab28a20cd312a664736f6c634300080e0033",
  "immutableReferences": {},
  "source": "// SPDX-License-Identifier: MIT\r\n\r\npragma solidity ^0.8.0;\r\n\r\nimport \"../utils/cryptography/ECDSA.sol\";\r\n\r\ncontract ECDSAMock {\r\n    using ECDSA for bytes32;\r\n    using ECDSA for bytes;\r\n\r\n    function recover(bytes32 hash, bytes memory signature) public pure returns (address) {\r\n        return hash.recover(signature);\r\n    }\r\n\r\n    // solhint-disable-next-line func-name-mixedcase\r\n    function recover_v_r_s(\r\n        bytes32 hash,\r\n        uint8 v,\r\n        bytes32 r,\r\n        bytes32 s\r\n    ) public pure returns (address) {\r\n        return hash.recover(v, r, s);\r\n    }\r\n\r\n    // solhint-disable-next-line func-name-mixedcase\r\n    function recover_r_vs(\r\n        bytes32 hash,\r\n        bytes32 r,\r\n        bytes32 vs\r\n    ) public pure returns (address) {\r\n        return hash.recover(r, vs);\r\n    }\r\n\r\n    function toEthSignedMessageHash(bytes32 hash) public pure returns (bytes32) {\r\n        return hash.toEthSignedMessageHash();\r\n    }\r\n\r\n    function toEthSignedMessageHash(bytes memory s) public pure returns (bytes32) {\r\n        return s.toEthSignedMessageHash();\r\n    }\r\n}\r\n",
  "sourcePath": "D:\\work\\www\\yopu_dapp_nft\\contracts\\lib\\openzeppelin\\contracts\\mocks\\ECDSAMock.sol",
  "compiler": {
    "name": "solc",
    "version": "0.8.14+commit.80d49f37.Emscripten.clang"
  },
  "schemaVersion": "3.4.7",
  "updatedAt": "2022-06-28T15:05:47.253Z",
  "devdoc": {
    "kind": "dev",
    "methods": {},
    "version": 1
  },
  "userdoc": {
    "kind": "user",
    "methods": {},
    "version": 1
  }
}