{
  "contractName": "EIP712External",
  "abi": [
    {
      "inputs": [
        {
          "internalType": "string",
          "name": "name",
          "type": "string"
        },
        {
          "internalType": "string",
          "name": "version",
          "type": "string"
        }
      ],
      "stateMutability": "nonpayable",
      "type": "constructor"
    },
    {
      "inputs": [],
      "name": "domainSeparator",
      "outputs": [
        {
          "internalType": "bytes32",
          "name": "",
          "type": "bytes32"
        }
      ],
      "stateMutability": "view",
      "type": "function"
    },
    {
      "inputs": [
        {
          "internalType": "bytes",
          "name": "signature",
          "type": "bytes"
        },
        {
          "internalType": "address",
          "name": "signer",
          "type": "address"
        },
        {
          "internalType": "address",
          "name": "mailTo",
          "type": "address"
        },
        {
          "internalType": "string",
          "name": "mailContents",
          "type": "string"
        }
      ],
      "name": "verify",
      "outputs": [],
      "stateMutability": "view",
      "type": "function"
    },
    {
      "inputs": [],
      "name": "getChainId",
      "outputs": [
        {
          "internalType": "uint256",
          "name": "",
          "type": "uint256"
        }
      ],
      "stateMutability": "view",
      "type": "function"
    }
  ],
  "bytecode": "0x61014060405234801561001157600080fd5b50604051610a14380380610a1483398101604081905261003091610186565b815160209283012081519183019190912060e08290526101008190524660a0818152604080517f8b73c3c69bb8fe3d512ecc4cf759cc79239f7b179b0ffacaa9a75d522b39400f818801819052818301969096526060810194909452608080850193909352308483018190528151808603909301835260c094850190915281519190950120905291909152610120526101e9565b634e487b7160e01b600052604160045260246000fd5b600082601f8301126100eb57600080fd5b81516001600160401b0380821115610105576101056100c4565b604051601f8301601f19908116603f0116810190828211818310171561012d5761012d6100c4565b8160405283815260209250868385880101111561014957600080fd5b600091505b8382101561016b578582018301518183018401529082019061014e565b8382111561017c5760008385830101525b9695505050505050565b6000806040838503121561019957600080fd5b82516001600160401b03808211156101b057600080fd5b6101bc868387016100da565b935060208501519150808211156101d257600080fd5b506101df858286016100da565b9150509250929050565b60805160a05160c05160e05161010051610120516107dc6102386000396000610234015260006102830152600061025e015260006101b7015260006101e10152600061020b01526107dc6000f3fe608060405234801561001057600080fd5b50600436106100415760003560e01c806308c6e079146100465780633408e4701461005b578063f698da251461006f575b600080fd5b6100596100543660046106bb565b610077565b005b465b60405190815260200160405180910390f35b61005d610123565b60006100ed7f847fc9da8ec3c72cae85ca691245eaeb0a4a1e74f77c3a919c43afda231d39ba8484805190602001206040516020016100d2939291909283526001600160a01b03919091166020830152604082015260600190565b60405160208183030381529060405280519060200120610132565b905060006100fb8287610186565b9050846001600160a01b0316816001600160a01b03161461011b57600080fd5b505050505050565b600061012d6101aa565b905090565b600061018061013f6101aa565b8360405161190160f01b6020820152602281018390526042810182905260009060620160405160208183030381529060405280519060200120905092915050565b92915050565b600080600061019585856102d1565b915091506101a28161033f565b509392505050565b6000306001600160a01b037f00000000000000000000000000000000000000000000000000000000000000001614801561020357507f000000000000000000000000000000000000000000000000000000000000000046145b1561022d57507f000000000000000000000000000000000000000000000000000000000000000090565b50604080517f00000000000000000000000000000000000000000000000000000000000000006020808301919091527f0000000000000000000000000000000000000000000000000000000000000000828401527f000000000000000000000000000000000000000000000000000000000000000060608301524660808301523060a0808401919091528351808403909101815260c0909201909252805191012090565b60008082516041036103075760208301516040840151606085015160001a6102fb878285856104f8565b94509450505050610338565b825160400361033057602083015160408401516103258683836105db565b935093505050610338565b506000905060025b9250929050565b60008160048111156103535761035361076a565b0361035b5750565b600181600481111561036f5761036f61076a565b036103bc5760405162461bcd60e51b815260206004820152601860248201527745434453413a20696e76616c6964207369676e617475726560401b60448201526064015b60405180910390fd5b60028160048111156103d0576103d061076a565b0361041d5760405162461bcd60e51b815260206004820152601f60248201527f45434453413a20696e76616c6964207369676e6174757265206c656e6774680060448201526064016103b3565b60038160048111156104315761043161076a565b036104895760405162461bcd60e51b815260206004820152602260248201527f45434453413a20696e76616c6964207369676e6174757265202773272076616c604482015261756560f01b60648201526084016103b3565b600481600481111561049d5761049d61076a565b036104f55760405162461bcd60e51b815260206004820152602260248201527f45434453413a20696e76616c6964207369676e6174757265202776272076616c604482015261756560f01b60648201526084016103b3565b50565b6000806fa2a8918ca85bafe22016d0b997e4df60600160ff1b0383111561052557506000905060036105d2565b8460ff16601b1415801561053d57508460ff16601c14155b1561054e57506000905060046105d2565b6040805160008082526020820180845289905260ff881692820192909252606081018690526080810185905260019060a0016020604051602081039080840390855afa1580156105a2573d6000803e3d6000fd5b5050604051601f1901519150506001600160a01b0381166105cb576000600192509250506105d2565b9150600090505b94509492505050565b6000806001600160ff1b038316816105f860ff86901c601b610780565b9050610606878288856104f8565b935093505050935093915050565b634e487b7160e01b600052604160045260246000fd5b60006001600160401b038084111561064457610644610614565b604051601f8501601f19908116603f0116810190828211818310171561066c5761066c610614565b8160405280935085815286868601111561068557600080fd5b858560208301376000602087830101525050509392505050565b80356001600160a01b03811681146106b657600080fd5b919050565b600080600080608085870312156106d157600080fd5b84356001600160401b03808211156106e857600080fd5b818701915087601f8301126106fc57600080fd5b61070b8883356020850161062a565b95506107196020880161069f565b94506107276040880161069f565b9350606087013591508082111561073d57600080fd5b508501601f8101871361074f57600080fd5b61075e8782356020840161062a565b91505092959194509250565b634e487b7160e01b600052602160045260246000fd5b600082198211156107a157634e487b7160e01b600052601160045260246000fd5b50019056fea2646970667358221220226a6c2b7efe512b88a0fc4b8cc20f00ee88d533c108b4069b672f5772e7de8064736f6c634300080e0033",
  "immutableReferences": {
    "33049": [
      {
        "length": 32,
        "start": 523
      }
    ],
    "33051": [
      {
        "length": 32,
        "start": 481
      }
    ],
    "33053": [
      {
        "length": 32,
        "start": 439
      }
    ],
    "33055": [
      {
        "length": 32,
        "start": 606
      }
    ],
    "33057": [
      {
        "length": 32,
        "start": 643
      }
    ],
    "33059": [
      {
        "length": 32,
        "start": 564
      }
    ]
  },
  "source": "// SPDX-License-Identifier: MIT\r\n\r\npragma solidity ^0.8.0;\r\n\r\nimport \"../utils/cryptography/draft-EIP712.sol\";\r\nimport \"../utils/cryptography/ECDSA.sol\";\r\n\r\ncontract EIP712External is EIP712 {\r\n    constructor(string memory name, string memory version) EIP712(name, version) {}\r\n\r\n    function domainSeparator() external view returns (bytes32) {\r\n        return _domainSeparatorV4();\r\n    }\r\n\r\n    function verify(\r\n        bytes memory signature,\r\n        address signer,\r\n        address mailTo,\r\n        string memory mailContents\r\n    ) external view {\r\n        bytes32 digest = _hashTypedDataV4(\r\n            keccak256(abi.encode(keccak256(\"Mail(address to,string contents)\"), mailTo, keccak256(bytes(mailContents))))\r\n        );\r\n        address recoveredSigner = ECDSA.recover(digest, signature);\r\n        require(recoveredSigner == signer);\r\n    }\r\n\r\n    function getChainId() external view returns (uint256) {\r\n        return block.chainid;\r\n    }\r\n}\r\n",
  "sourcePath": "D:\\work\\www\\yopu_dapp_nft\\contracts\\lib\\openzeppelin\\contracts\\mocks\\EIP712External.sol",
  "compiler": {
    "name": "solc",
    "version": "0.8.14+commit.80d49f37.Emscripten.clang"
  },
  "schemaVersion": "3.4.7",
  "updatedAt": "2022-06-28T15:05:47.268Z",
  "devdoc": {
    "kind": "dev",
    "methods": {},
    "version": 1
  },
  "userdoc": {
    "kind": "user",
    "methods": {},
    "version": 1
  }
}