{
  "contractName": "EnumerableAddressSetMock",
  "abi": [
    {
      "anonymous": false,
      "inputs": [
        {
          "indexed": false,
          "internalType": "bool",
          "name": "result",
          "type": "bool"
        }
      ],
      "name": "OperationResult",
      "type": "event"
    },
    {
      "inputs": [
        {
          "internalType": "address",
          "name": "value",
          "type": "address"
        }
      ],
      "name": "contains",
      "outputs": [
        {
          "internalType": "bool",
          "name": "",
          "type": "bool"
        }
      ],
      "stateMutability": "view",
      "type": "function"
    },
    {
      "inputs": [
        {
          "internalType": "address",
          "name": "value",
          "type": "address"
        }
      ],
      "name": "add",
      "outputs": [],
      "stateMutability": "nonpayable",
      "type": "function"
    },
    {
      "inputs": [
        {
          "internalType": "address",
          "name": "value",
          "type": "address"
        }
      ],
      "name": "remove",
      "outputs": [],
      "stateMutability": "nonpayable",
      "type": "function"
    },
    {
      "inputs": [],
      "name": "length",
      "outputs": [
        {
          "internalType": "uint256",
          "name": "",
          "type": "uint256"
        }
      ],
      "stateMutability": "view",
      "type": "function"
    },
    {
      "inputs": [
        {
          "internalType": "uint256",
          "name": "index",
          "type": "uint256"
        }
      ],
      "name": "at",
      "outputs": [
        {
          "internalType": "address",
          "name": "",
          "type": "address"
        }
      ],
      "stateMutability": "view",
      "type": "function"
    },
    {
      "inputs": [],
      "name": "values",
      "outputs": [
        {
          "internalType": "address[]",
          "name": "",
          "type": "address[]"
        }
      ],
      "stateMutability": "view",
      "type": "function"
    }
  ],
  "bytecode": "0x608060405234801561001057600080fd5b506104fb806100206000396000f3fe608060405234801561001057600080fd5b50600436106100625760003560e01c80630a3b0a4f146100675780631f7b6d321461007c57806329092d0e146100975780635dbe47e8146100aa578063971217b7146100cd578063e0886f90146100e2575b600080fd5b61007a6100753660046103e5565b61010d565b005b61008461015a565b6040519081526020015b60405180910390f35b61007a6100a53660046103e5565b61016b565b6100bd6100b83660046103e5565b610177565b604051901515815260200161008e565b6100d5610189565b60405161008e919061040e565b6100f56100f036600461045b565b610195565b6040516001600160a01b03909116815260200161008e565b600061011981836101a1565b90507fed9840e0775590557ad736875d96c95cf1458b766335f74339951a32c82a9e338160405161014e911515815260200190565b60405180910390a15050565b600061016660006101bd565b905090565b600061011981836101c7565b600061018381836101dc565b92915050565b606061016660006101f1565b600061018381836101fe565b60006101b6836001600160a01b03841661020a565b9392505050565b6000610183825490565b60006101b6836001600160a01b038416610254565b60006101b6836001600160a01b038416610347565b606060006101b68361035f565b60006101b683836103bb565b60006102168383610347565b61024c57508154600181810184556000848152602080822090930184905584548482528286019093526040902091909155610183565b506000610183565b6000818152600183016020526040812054801561033d576000610278600183610474565b855490915060009061028c90600190610474565b90508181146102f15760008660000182815481106102ac576102ac610499565b90600052602060002001549050808760000184815481106102cf576102cf610499565b6000918252602080832090910192909255918252600188019052604090208390555b8554869080610302576103026104af565b600190038181906000526020600020016000905590558560010160008681526020019081526020016000206000905560019350505050610183565b6000915050610183565b60009081526001919091016020526040902054151590565b6060816000018054806020026020016040519081016040528092919081815260200182805480156103af57602002820191906000526020600020905b81548152602001906001019080831161039b575b50505050509050919050565b60008260000182815481106103d2576103d2610499565b9060005260206000200154905092915050565b6000602082840312156103f757600080fd5b81356001600160a01b03811681146101b657600080fd5b6020808252825182820181905260009190848201906040850190845b8181101561044f5783516001600160a01b03168352928401929184019160010161042a565b50909695505050505050565b60006020828403121561046d57600080fd5b5035919050565b60008282101561049457634e487b7160e01b600052601160045260246000fd5b500390565b634e487b7160e01b600052603260045260246000fd5b634e487b7160e01b600052603160045260246000fdfea264697066735822122008ae9c48bb80f84d0a63a8b523555ec881862f02af85ea91fcd39ac5b9f9737d64736f6c634300080e0033",
  "immutableReferences": {},
  "source": "// SPDX-License-Identifier: MIT\r\n\r\npragma solidity ^0.8.0;\r\n\r\nimport \"../utils/structs/EnumerableSet.sol\";\r\n\r\n// Bytes32Set\r\ncontract EnumerableBytes32SetMock {\r\n    using EnumerableSet for EnumerableSet.Bytes32Set;\r\n\r\n    event OperationResult(bool result);\r\n\r\n    EnumerableSet.Bytes32Set private _set;\r\n\r\n    function contains(bytes32 value) public view returns (bool) {\r\n        return _set.contains(value);\r\n    }\r\n\r\n    function add(bytes32 value) public {\r\n        bool result = _set.add(value);\r\n        emit OperationResult(result);\r\n    }\r\n\r\n    function remove(bytes32 value) public {\r\n        bool result = _set.remove(value);\r\n        emit OperationResult(result);\r\n    }\r\n\r\n    function length() public view returns (uint256) {\r\n        return _set.length();\r\n    }\r\n\r\n    function at(uint256 index) public view returns (bytes32) {\r\n        return _set.at(index);\r\n    }\r\n\r\n    function values() public view returns (bytes32[] memory) {\r\n        return _set.values();\r\n    }\r\n}\r\n\r\n// AddressSet\r\ncontract EnumerableAddressSetMock {\r\n    using EnumerableSet for EnumerableSet.AddressSet;\r\n\r\n    event OperationResult(bool result);\r\n\r\n    EnumerableSet.AddressSet private _set;\r\n\r\n    function contains(address value) public view returns (bool) {\r\n        return _set.contains(value);\r\n    }\r\n\r\n    function add(address value) public {\r\n        bool result = _set.add(value);\r\n        emit OperationResult(result);\r\n    }\r\n\r\n    function remove(address value) public {\r\n        bool result = _set.remove(value);\r\n        emit OperationResult(result);\r\n    }\r\n\r\n    function length() public view returns (uint256) {\r\n        return _set.length();\r\n    }\r\n\r\n    function at(uint256 index) public view returns (address) {\r\n        return _set.at(index);\r\n    }\r\n\r\n    function values() public view returns (address[] memory) {\r\n        return _set.values();\r\n    }\r\n}\r\n\r\n// UintSet\r\ncontract EnumerableUintSetMock {\r\n    using EnumerableSet for EnumerableSet.UintSet;\r\n\r\n    event OperationResult(bool result);\r\n\r\n    EnumerableSet.UintSet private _set;\r\n\r\n    function contains(uint256 value) public view returns (bool) {\r\n        return _set.contains(value);\r\n    }\r\n\r\n    function add(uint256 value) public {\r\n        bool result = _set.add(value);\r\n        emit OperationResult(result);\r\n    }\r\n\r\n    function remove(uint256 value) public {\r\n        bool result = _set.remove(value);\r\n        emit OperationResult(result);\r\n    }\r\n\r\n    function length() public view returns (uint256) {\r\n        return _set.length();\r\n    }\r\n\r\n    function at(uint256 index) public view returns (uint256) {\r\n        return _set.at(index);\r\n    }\r\n\r\n    function values() public view returns (uint256[] memory) {\r\n        return _set.values();\r\n    }\r\n}\r\n",
  "sourcePath": "D:\\work\\www\\yopu_dapp_nft\\contracts\\lib\\openzeppelin\\contracts\\mocks\\EnumerableSetMock.sol",
  "compiler": {
    "name": "solc",
    "version": "0.8.14+commit.80d49f37.Emscripten.clang"
  },
  "schemaVersion": "3.4.7",
  "updatedAt": "2022-06-28T15:05:47.764Z",
  "devdoc": {
    "kind": "dev",
    "methods": {},
    "version": 1
  },
  "userdoc": {
    "kind": "user",
    "methods": {},
    "version": 1
  }
}