{
  "contractName": "ERC165CheckerMock",
  "abi": [
    {
      "inputs": [
        {
          "internalType": "address",
          "name": "account",
          "type": "address"
        }
      ],
      "name": "supportsERC165",
      "outputs": [
        {
          "internalType": "bool",
          "name": "",
          "type": "bool"
        }
      ],
      "stateMutability": "view",
      "type": "function"
    },
    {
      "inputs": [
        {
          "internalType": "address",
          "name": "account",
          "type": "address"
        },
        {
          "internalType": "bytes4",
          "name": "interfaceId",
          "type": "bytes4"
        }
      ],
      "name": "supportsInterface",
      "outputs": [
        {
          "internalType": "bool",
          "name": "",
          "type": "bool"
        }
      ],
      "stateMutability": "view",
      "type": "function"
    },
    {
      "inputs": [
        {
          "internalType": "address",
          "name": "account",
          "type": "address"
        },
        {
          "internalType": "bytes4[]",
          "name": "interfaceIds",
          "type": "bytes4[]"
        }
      ],
      "name": "supportsAllInterfaces",
      "outputs": [
        {
          "internalType": "bool",
          "name": "",
          "type": "bool"
        }
      ],
      "stateMutability": "view",
      "type": "function"
    },
    {
      "inputs": [
        {
          "internalType": "address",
          "name": "account",
          "type": "address"
        },
        {
          "internalType": "bytes4[]",
          "name": "interfaceIds",
          "type": "bytes4[]"
        }
      ],
      "name": "getSupportedInterfaces",
      "outputs": [
        {
          "internalType": "bool[]",
          "name": "",
          "type": "bool[]"
        }
      ],
      "stateMutability": "view",
      "type": "function"
    },
    {
      "inputs": [
        {
          "internalType": "address",
          "name": "account",
          "type": "address"
        },
        {
          "internalType": "bytes4",
          "name": "interfaceId",
          "type": "bytes4"
        }
      ],
      "name": "supportsERC165InterfaceUnchecked",
      "outputs": [
        {
          "internalType": "bool",
          "name": "",
          "type": "bool"
        }
      ],
      "stateMutability": "view",
      "type": "function"
    }
  ],
  "bytecode": "0x608060405234801561001057600080fd5b50610630806100206000396000f3fe608060405234801561001057600080fd5b50600436106100575760003560e01c80634b9dd9041461005c57806355a899751461008457806377e6b4cc14610097578063c398a925146100b7578063d9057007146100ca575b600080fd5b61006f61006a3660046103f5565b6100dd565b60405190151581526020015b60405180910390f35b61006f6100923660046104cc565b6100fb565b6100aa6100a53660046103f5565b610110565b60405161007b91906104ff565b61006f6100c5366004610545565b610125565b61006f6100d83660046104cc565b610139565b60006100f26001600160a01b0384168361014e565b90505b92915050565b60006100f26001600160a01b038416836101be565b60606100f26001600160a01b038416836102a7565b60006100f5826001600160a01b031661035c565b60006100f26001600160a01b0384168361038f565b60006101598361035c565b610165575060006100f5565b60005b82518110156101b4576101948484838151811061018757610187610560565b60200260200101516101be565b6101a25760009150506100f5565b806101ac81610576565b915050610168565b5060019392505050565b604080516001600160e01b0319831660248083019190915282518083039091018152604490910182526020810180516001600160e01b03166301ffc9a760e01b179052905160009190829081906001600160a01b038716906175309061022590869061059d565b6000604051808303818686fa925050503d8060008114610261576040519150601f19603f3d011682016040523d82523d6000602084013e610266565b606091505b509150915060208151101561028157600093505050506100f5565b81801561029d57508080602001905181019061029d91906105d8565b9695505050505050565b6060600082516001600160401b038111156102c4576102c46103c7565b6040519080825280602002602001820160405280156102ed578160200160208202803683370190505b5090506102f98461035c565b156100f25760005b8351811015610354576103208585838151811061018757610187610560565b82828151811061033257610332610560565b911515602092830291909101909101528061034c81610576565b915050610301565b509392505050565b600061036f826301ffc9a760e01b6101be565b80156100f55750610388826001600160e01b03196101be565b1592915050565b600061039a8361035c565b80156100f257506100f283836101be565b80356001600160a01b03811681146103c257600080fd5b919050565b634e487b7160e01b600052604160045260246000fd5b80356001600160e01b0319811681146103c257600080fd5b6000806040838503121561040857600080fd5b610411836103ab565b91506020838101356001600160401b038082111561042e57600080fd5b818601915086601f83011261044257600080fd5b813581811115610454576104546103c7565b8060051b604051601f19603f83011681018181108582111715610479576104796103c7565b60405291825284820192508381018501918983111561049757600080fd5b938501935b828510156104bc576104ad856103dd565b8452938501939285019261049c565b8096505050505050509250929050565b600080604083850312156104df57600080fd5b6104e8836103ab565b91506104f6602084016103dd565b90509250929050565b6020808252825182820181905260009190848201906040850190845b8181101561053957835115158352928401929184019160010161051b565b50909695505050505050565b60006020828403121561055757600080fd5b6100f2826103ab565b634e487b7160e01b600052603260045260246000fd5b60006001820161059657634e487b7160e01b600052601160045260246000fd5b5060010190565b6000825160005b818110156105be57602081860181015185830152016105a4565b818111156105cd576000828501525b509190910192915050565b6000602082840312156105ea57600080fd5b815180151581146100f257600080fdfea2646970667358221220fac8e6cb856b5f2c2c5ddee5f02ab9db10bbf12e767a886e7a986516cf425f4e64736f6c634300080e0033",
  "immutableReferences": {},
  "source": "// SPDX-License-Identifier: MIT\r\n\r\npragma solidity ^0.8.0;\r\n\r\nimport \"../utils/introspection/ERC165Checker.sol\";\r\n\r\ncontract ERC165CheckerMock {\r\n    using ERC165Checker for address;\r\n\r\n    function supportsERC165(address account) public view returns (bool) {\r\n        return account.supportsERC165();\r\n    }\r\n\r\n    function supportsInterface(address account, bytes4 interfaceId) public view returns (bool) {\r\n        return account.supportsInterface(interfaceId);\r\n    }\r\n\r\n    function supportsAllInterfaces(address account, bytes4[] memory interfaceIds) public view returns (bool) {\r\n        return account.supportsAllInterfaces(interfaceIds);\r\n    }\r\n\r\n    function getSupportedInterfaces(address account, bytes4[] memory interfaceIds) public view returns (bool[] memory) {\r\n        return account.getSupportedInterfaces(interfaceIds);\r\n    }\r\n\r\n    function supportsERC165InterfaceUnchecked(address account, bytes4 interfaceId) public view returns (bool) {\r\n        return account.supportsERC165InterfaceUnchecked(interfaceId);\r\n    }\r\n}\r\n",
  "sourcePath": "D:\\work\\www\\yopu_dapp_nft\\contracts\\lib\\openzeppelin\\contracts\\mocks\\ERC165CheckerMock.sol",
  "compiler": {
    "name": "solc",
    "version": "0.8.14+commit.80d49f37.Emscripten.clang"
  },
  "schemaVersion": "3.4.7",
  "updatedAt": "2022-06-28T15:05:47.398Z",
  "devdoc": {
    "kind": "dev",
    "methods": {},
    "version": 1
  },
  "userdoc": {
    "kind": "user",
    "methods": {},
    "version": 1
  }
}