{
  "contractName": "ERC1271WalletMock",
  "abi": [
    {
      "inputs": [
        {
          "internalType": "address",
          "name": "originalOwner",
          "type": "address"
        }
      ],
      "stateMutability": "nonpayable",
      "type": "constructor"
    },
    {
      "anonymous": false,
      "inputs": [
        {
          "indexed": true,
          "internalType": "address",
          "name": "previousOwner",
          "type": "address"
        },
        {
          "indexed": true,
          "internalType": "address",
          "name": "newOwner",
          "type": "address"
        }
      ],
      "name": "OwnershipTransferred",
      "type": "event"
    },
    {
      "inputs": [],
      "name": "owner",
      "outputs": [
        {
          "internalType": "address",
          "name": "",
          "type": "address"
        }
      ],
      "stateMutability": "view",
      "type": "function"
    },
    {
      "inputs": [],
      "name": "renounceOwnership",
      "outputs": [],
      "stateMutability": "nonpayable",
      "type": "function"
    },
    {
      "inputs": [
        {
          "internalType": "address",
          "name": "newOwner",
          "type": "address"
        }
      ],
      "name": "transferOwnership",
      "outputs": [],
      "stateMutability": "nonpayable",
      "type": "function"
    },
    {
      "inputs": [
        {
          "internalType": "bytes32",
          "name": "hash",
          "type": "bytes32"
        },
        {
          "internalType": "bytes",
          "name": "signature",
          "type": "bytes"
        }
      ],
      "name": "isValidSignature",
      "outputs": [
        {
          "internalType": "bytes4",
          "name": "magicValue",
          "type": "bytes4"
        }
      ],
      "stateMutability": "view",
      "type": "function"
    }
  ],
  "bytecode": "0x608060405234801561001057600080fd5b506040516108cb3803806108cb83398101604081905261002f91610171565b61003833610047565b61004181610097565b506101a1565b600080546001600160a01b038381166001600160a01b0319831681178455604051919092169283917f8be0079c531659141344cd1fd0a4f28419497f9722a3daafe3b4186f6b6457e09190a35050565b61009f610115565b6001600160a01b0381166101095760405162461bcd60e51b815260206004820152602660248201527f4f776e61626c653a206e6577206f776e657220697320746865207a65726f206160448201526564647265737360d01b60648201526084015b60405180910390fd5b61011281610047565b50565b6000546001600160a01b0316331461016f5760405162461bcd60e51b815260206004820181905260248201527f4f776e61626c653a2063616c6c6572206973206e6f7420746865206f776e65726044820152606401610100565b565b60006020828403121561018357600080fd5b81516001600160a01b038116811461019a57600080fd5b9392505050565b61071b806101b06000396000f3fe608060405234801561001057600080fd5b506004361061004c5760003560e01c80631626ba7e14610051578063715018a6146100825780638da5cb5b1461008c578063f2fde38b146100ac575b600080fd5b61006461005f3660046105c6565b6100bf565b6040516001600160e01b031990911681526020015b60405180910390f35b61008a610101565b005b610094610115565b6040516001600160a01b039091168152602001610079565b61008a6100ba366004610680565b610124565b60006100c9610115565b6001600160a01b03166100dc84846101a2565b6001600160a01b0316146100f15760006100fa565b630b135d3f60e11b5b9392505050565b6101096101c6565b6101136000610225565b565b6000546001600160a01b031690565b61012c6101c6565b6001600160a01b0381166101965760405162461bcd60e51b815260206004820152602660248201527f4f776e61626c653a206e6577206f776e657220697320746865207a65726f206160448201526564647265737360d01b60648201526084015b60405180910390fd5b61019f81610225565b50565b60008060006101b18585610275565b915091506101be816102e3565b509392505050565b336101cf610115565b6001600160a01b0316146101135760405162461bcd60e51b815260206004820181905260248201527f4f776e61626c653a2063616c6c6572206973206e6f7420746865206f776e6572604482015260640161018d565b600080546001600160a01b038381166001600160a01b0319831681178455604051919092169283917f8be0079c531659141344cd1fd0a4f28419497f9722a3daafe3b4186f6b6457e09190a35050565b60008082516041036102ab5760208301516040840151606085015160001a61029f87828585610494565b945094505050506102dc565b82516040036102d457602083015160408401516102c9868383610577565b9350935050506102dc565b506000905060025b9250929050565b60008160048111156102f7576102f76106a9565b036102ff5750565b6001816004811115610313576103136106a9565b0361035b5760405162461bcd60e51b815260206004820152601860248201527745434453413a20696e76616c6964207369676e617475726560401b604482015260640161018d565b600281600481111561036f5761036f6106a9565b036103bc5760405162461bcd60e51b815260206004820152601f60248201527f45434453413a20696e76616c6964207369676e6174757265206c656e67746800604482015260640161018d565b60038160048111156103d0576103d06106a9565b036104285760405162461bcd60e51b815260206004820152602260248201527f45434453413a20696e76616c6964207369676e6174757265202773272076616c604482015261756560f01b606482015260840161018d565b600481600481111561043c5761043c6106a9565b0361019f5760405162461bcd60e51b815260206004820152602260248201527f45434453413a20696e76616c6964207369676e6174757265202776272076616c604482015261756560f01b606482015260840161018d565b6000806fa2a8918ca85bafe22016d0b997e4df60600160ff1b038311156104c1575060009050600361056e565b8460ff16601b141580156104d957508460ff16601c14155b156104ea575060009050600461056e565b6040805160008082526020820180845289905260ff881692820192909252606081018690526080810185905260019060a0016020604051602081039080840390855afa15801561053e573d6000803e3d6000fd5b5050604051601f1901519150506001600160a01b0381166105675760006001925092505061056e565b9150600090505b94509492505050565b6000806001600160ff1b0383168161059460ff86901c601b6106bf565b90506105a287828885610494565b935093505050935093915050565b634e487b7160e01b600052604160045260246000fd5b600080604083850312156105d957600080fd5b8235915060208301356001600160401b03808211156105f757600080fd5b818501915085601f83011261060b57600080fd5b81358181111561061d5761061d6105b0565b604051601f8201601f19908116603f01168101908382118183101715610645576106456105b0565b8160405282815288602084870101111561065e57600080fd5b8260208601602083013760006020848301015280955050505050509250929050565b60006020828403121561069257600080fd5b81356001600160a01b03811681146100fa57600080fd5b634e487b7160e01b600052602160045260246000fd5b600082198211156106e057634e487b7160e01b600052601160045260246000fd5b50019056fea2646970667358221220883b1110f6743dde08d9ea773b4682b7aab2df80694c2e8401d540c5377f22c164736f6c634300080e0033",
  "immutableReferences": {},
  "source": "// SPDX-License-Identifier: MIT\r\n\r\npragma solidity ^0.8.0;\r\n\r\nimport \"../access/Ownable.sol\";\r\nimport \"../interfaces/IERC1271.sol\";\r\nimport \"../utils/cryptography/ECDSA.sol\";\r\n\r\ncontract ERC1271WalletMock is Ownable, IERC1271 {\r\n    constructor(address originalOwner) {\r\n        transferOwnership(originalOwner);\r\n    }\r\n\r\n    function isValidSignature(bytes32 hash, bytes memory signature) public view override returns (bytes4 magicValue) {\r\n        return ECDSA.recover(hash, signature) == owner() ? this.isValidSignature.selector : bytes4(0);\r\n    }\r\n}\r\n",
  "sourcePath": "D:\\work\\www\\yopu_dapp_nft\\contracts\\lib\\openzeppelin\\contracts\\mocks\\ERC1271WalletMock.sol",
  "compiler": {
    "name": "solc",
    "version": "0.8.14+commit.80d49f37.Emscripten.clang"
  },
  "schemaVersion": "3.4.7",
  "updatedAt": "2022-06-28T15:05:47.378Z",
  "devdoc": {
    "kind": "dev",
    "methods": {
      "isValidSignature(bytes32,bytes)": {
        "details": "Should return whether the signature provided is valid for the provided data",
        "params": {
          "hash": "Hash of the data to be signed",
          "signature": "Signature byte array associated with _data"
        }
      },
      "owner()": {
        "details": "Returns the address of the current owner."
      },
      "renounceOwnership()": {
        "details": "Leaves the contract without owner. It will not be possible to call `onlyOwner` functions anymore. Can only be called by the current owner. NOTE: Renouncing ownership will leave the contract without an owner, thereby removing any functionality that is only available to the owner."
      },
      "transferOwnership(address)": {
        "details": "Transfers ownership of the contract to a new account (`newOwner`). Can only be called by the current owner."
      }
    },
    "version": 1
  },
  "userdoc": {
    "kind": "user",
    "methods": {},
    "version": 1
  }
}