{
  "contractName": "ERC1155URIStorageMock",
  "abi": [
    {
      "inputs": [
        {
          "internalType": "string",
          "name": "_uri",
          "type": "string"
        }
      ],
      "stateMutability": "nonpayable",
      "type": "constructor"
    },
    {
      "anonymous": false,
      "inputs": [
        {
          "indexed": true,
          "internalType": "address",
          "name": "account",
          "type": "address"
        },
        {
          "indexed": true,
          "internalType": "address",
          "name": "operator",
          "type": "address"
        },
        {
          "indexed": false,
          "internalType": "bool",
          "name": "approved",
          "type": "bool"
        }
      ],
      "name": "ApprovalForAll",
      "type": "event"
    },
    {
      "anonymous": false,
      "inputs": [
        {
          "indexed": true,
          "internalType": "address",
          "name": "operator",
          "type": "address"
        },
        {
          "indexed": true,
          "internalType": "address",
          "name": "from",
          "type": "address"
        },
        {
          "indexed": true,
          "internalType": "address",
          "name": "to",
          "type": "address"
        },
        {
          "indexed": false,
          "internalType": "uint256[]",
          "name": "ids",
          "type": "uint256[]"
        },
        {
          "indexed": false,
          "internalType": "uint256[]",
          "name": "values",
          "type": "uint256[]"
        }
      ],
      "name": "TransferBatch",
      "type": "event"
    },
    {
      "anonymous": false,
      "inputs": [
        {
          "indexed": true,
          "internalType": "address",
          "name": "operator",
          "type": "address"
        },
        {
          "indexed": true,
          "internalType": "address",
          "name": "from",
          "type": "address"
        },
        {
          "indexed": true,
          "internalType": "address",
          "name": "to",
          "type": "address"
        },
        {
          "indexed": false,
          "internalType": "uint256",
          "name": "id",
          "type": "uint256"
        },
        {
          "indexed": false,
          "internalType": "uint256",
          "name": "value",
          "type": "uint256"
        }
      ],
      "name": "TransferSingle",
      "type": "event"
    },
    {
      "anonymous": false,
      "inputs": [
        {
          "indexed": false,
          "internalType": "string",
          "name": "value",
          "type": "string"
        },
        {
          "indexed": true,
          "internalType": "uint256",
          "name": "id",
          "type": "uint256"
        }
      ],
      "name": "URI",
      "type": "event"
    },
    {
      "inputs": [
        {
          "internalType": "address",
          "name": "account",
          "type": "address"
        },
        {
          "internalType": "uint256",
          "name": "id",
          "type": "uint256"
        }
      ],
      "name": "balanceOf",
      "outputs": [
        {
          "internalType": "uint256",
          "name": "",
          "type": "uint256"
        }
      ],
      "stateMutability": "view",
      "type": "function"
    },
    {
      "inputs": [
        {
          "internalType": "address[]",
          "name": "accounts",
          "type": "address[]"
        },
        {
          "internalType": "uint256[]",
          "name": "ids",
          "type": "uint256[]"
        }
      ],
      "name": "balanceOfBatch",
      "outputs": [
        {
          "internalType": "uint256[]",
          "name": "",
          "type": "uint256[]"
        }
      ],
      "stateMutability": "view",
      "type": "function"
    },
    {
      "inputs": [
        {
          "internalType": "address",
          "name": "owner",
          "type": "address"
        },
        {
          "internalType": "uint256",
          "name": "id",
          "type": "uint256"
        },
        {
          "internalType": "uint256",
          "name": "value",
          "type": "uint256"
        }
      ],
      "name": "burn",
      "outputs": [],
      "stateMutability": "nonpayable",
      "type": "function"
    },
    {
      "inputs": [
        {
          "internalType": "address",
          "name": "owner",
          "type": "address"
        },
        {
          "internalType": "uint256[]",
          "name": "ids",
          "type": "uint256[]"
        },
        {
          "internalType": "uint256[]",
          "name": "values",
          "type": "uint256[]"
        }
      ],
      "name": "burnBatch",
      "outputs": [],
      "stateMutability": "nonpayable",
      "type": "function"
    },
    {
      "inputs": [
        {
          "internalType": "address",
          "name": "account",
          "type": "address"
        },
        {
          "internalType": "address",
          "name": "operator",
          "type": "address"
        }
      ],
      "name": "isApprovedForAll",
      "outputs": [
        {
          "internalType": "bool",
          "name": "",
          "type": "bool"
        }
      ],
      "stateMutability": "view",
      "type": "function"
    },
    {
      "inputs": [
        {
          "internalType": "address",
          "name": "to",
          "type": "address"
        },
        {
          "internalType": "uint256",
          "name": "id",
          "type": "uint256"
        },
        {
          "internalType": "uint256",
          "name": "value",
          "type": "uint256"
        },
        {
          "internalType": "bytes",
          "name": "data",
          "type": "bytes"
        }
      ],
      "name": "mint",
      "outputs": [],
      "stateMutability": "nonpayable",
      "type": "function"
    },
    {
      "inputs": [
        {
          "internalType": "address",
          "name": "to",
          "type": "address"
        },
        {
          "internalType": "uint256[]",
          "name": "ids",
          "type": "uint256[]"
        },
        {
          "internalType": "uint256[]",
          "name": "values",
          "type": "uint256[]"
        },
        {
          "internalType": "bytes",
          "name": "data",
          "type": "bytes"
        }
      ],
      "name": "mintBatch",
      "outputs": [],
      "stateMutability": "nonpayable",
      "type": "function"
    },
    {
      "inputs": [
        {
          "internalType": "address",
          "name": "from",
          "type": "address"
        },
        {
          "internalType": "address",
          "name": "to",
          "type": "address"
        },
        {
          "internalType": "uint256[]",
          "name": "ids",
          "type": "uint256[]"
        },
        {
          "internalType": "uint256[]",
          "name": "amounts",
          "type": "uint256[]"
        },
        {
          "internalType": "bytes",
          "name": "data",
          "type": "bytes"
        }
      ],
      "name": "safeBatchTransferFrom",
      "outputs": [],
      "stateMutability": "nonpayable",
      "type": "function"
    },
    {
      "inputs": [
        {
          "internalType": "address",
          "name": "from",
          "type": "address"
        },
        {
          "internalType": "address",
          "name": "to",
          "type": "address"
        },
        {
          "internalType": "uint256",
          "name": "id",
          "type": "uint256"
        },
        {
          "internalType": "uint256",
          "name": "amount",
          "type": "uint256"
        },
        {
          "internalType": "bytes",
          "name": "data",
          "type": "bytes"
        }
      ],
      "name": "safeTransferFrom",
      "outputs": [],
      "stateMutability": "nonpayable",
      "type": "function"
    },
    {
      "inputs": [
        {
          "internalType": "address",
          "name": "operator",
          "type": "address"
        },
        {
          "internalType": "bool",
          "name": "approved",
          "type": "bool"
        }
      ],
      "name": "setApprovalForAll",
      "outputs": [],
      "stateMutability": "nonpayable",
      "type": "function"
    },
    {
      "inputs": [
        {
          "internalType": "bytes4",
          "name": "interfaceId",
          "type": "bytes4"
        }
      ],
      "name": "supportsInterface",
      "outputs": [
        {
          "internalType": "bool",
          "name": "",
          "type": "bool"
        }
      ],
      "stateMutability": "view",
      "type": "function"
    },
    {
      "inputs": [
        {
          "internalType": "uint256",
          "name": "tokenId",
          "type": "uint256"
        }
      ],
      "name": "uri",
      "outputs": [
        {
          "internalType": "string",
          "name": "",
          "type": "string"
        }
      ],
      "stateMutability": "view",
      "type": "function"
    },
    {
      "inputs": [
        {
          "internalType": "string",
          "name": "newuri",
          "type": "string"
        }
      ],
      "name": "setURI",
      "outputs": [],
      "stateMutability": "nonpayable",
      "type": "function"
    },
    {
      "inputs": [
        {
          "internalType": "uint256",
          "name": "tokenId",
          "type": "uint256"
        },
        {
          "internalType": "string",
          "name": "_tokenURI",
          "type": "string"
        }
      ],
      "name": "setURI",
      "outputs": [],
      "stateMutability": "nonpayable",
      "type": "function"
    },
    {
      "inputs": [
        {
          "internalType": "string",
          "name": "baseURI",
          "type": "string"
        }
      ],
      "name": "setBaseURI",
      "outputs": [],
      "stateMutability": "nonpayable",
      "type": "function"
    }
  ],
  "bytecode": "0x60a06040819052600060808190526200001b916003916200007b565b503480156200002957600080fd5b5060405162002136380380620021368339810160408190526200004c9162000137565b8080620000598162000062565b5050506200024f565b8051620000779060029060208401906200007b565b5050565b828054620000899062000213565b90600052602060002090601f016020900481019282620000ad5760008555620000f8565b82601f10620000c857805160ff1916838001178555620000f8565b82800160010185558215620000f8579182015b82811115620000f8578251825591602001919060010190620000db565b50620001069291506200010a565b5090565b5b808211156200010657600081556001016200010b565b634e487b7160e01b600052604160045260246000fd5b600060208083850312156200014b57600080fd5b82516001600160401b03808211156200016357600080fd5b818501915085601f8301126200017857600080fd5b8151818111156200018d576200018d62000121565b604051601f8201601f19908116603f01168101908382118183101715620001b857620001b862000121565b816040528281528886848701011115620001d157600080fd5b600093505b82841015620001f55784840186015181850187015292850192620001d6565b82841115620002075760008684830101525b98975050505050505050565b600181811c908216806200022857607f821691505b6020821081036200024957634e487b7160e01b600052602260045260246000fd5b50919050565b611ed7806200025f6000396000f3fe608060405234801561001057600080fd5b50600436106100c45760003560e01c8062fdd58e146100c957806301ffc9a7146100ef57806302fe5305146101125780630e89341c146101275780631f7fdffa146101475780632eb2c2d61461015a5780634e1273f41461016d57806355f804b31461018d5780636b20c454146101a0578063731133e9146101b3578063862440e2146101c6578063a22cb465146101d9578063e985e9c5146101ec578063f242432a14610228578063f5298aca1461023b575b600080fd5b6100dc6100d7366004611280565b61024e565b6040519081526020015b60405180910390f35b6101026100fd3660046112c0565b6102e4565b60405190151581526020016100e6565b610125610120366004611392565b610336565b005b61013a6101353660046113ce565b610342565b6040516100e6919061143f565b6101256101553660046114e6565b61034d565b61012561016836600461157e565b61035f565b61018061017b366004611627565b6103ab565b6040516100e6919061172c565b61012561019b366004611392565b6104d4565b6101256101ae36600461173f565b6104dd565b6101256101c13660046117b2565b6104ed565b6101256101d4366004611806565b6104f9565b6101256101e7366004611842565b610507565b6101026101fa36600461187e565b6001600160a01b03918216600090815260016020908152604080832093909416825291909152205460ff1690565b6101256102363660046118b1565b610512565b610125610249366004611915565b610557565b60006001600160a01b0383166102be5760405162461bcd60e51b815260206004820152602a60248201527f455243313135353a2061646472657373207a65726f206973206e6f742061207660448201526930b634b21037bbb732b960b11b60648201526084015b60405180910390fd5b506000908152602081815260408083206001600160a01b03949094168352929052205490565b60006001600160e01b03198216636cdb3d1360e11b148061031557506001600160e01b031982166303a24d0760e21b145b8061033057506301ffc9a760e01b6001600160e01b03198316145b92915050565b61033f81610562565b50565b606061033082610575565b61035984848484610655565b50505050565b6001600160a01b03851633148061037b575061037b85336101fa565b6103975760405162461bcd60e51b81526004016102b590611948565b6103a4858585858561078e565b5050505050565b606081518351146104105760405162461bcd60e51b815260206004820152602960248201527f455243313135353a206163636f756e747320616e6420696473206c656e677468604482015268040dad2e6dac2e8c6d60bb1b60648201526084016102b5565b600083516001600160401b0381111561042b5761042b6112dd565b604051908082528060200260200182016040528015610454578160200160208202803683370190505b50905060005b84518110156104cc5761049f85828151811061047857610478611997565b602002602001015185838151811061049257610492611997565b602002602001015161024e565b8282815181106104b1576104b1611997565b60209081029190910101526104c5816119c3565b905061045a565b509392505050565b61033f81610918565b6104e883838361092b565b505050565b61035984848484610aa3565b6105038282610b6b565b5050565b610503338383610bcf565b6001600160a01b03851633148061052e575061052e85336101fa565b61054a5760405162461bcd60e51b81526004016102b590611948565b6103a48585858585610caf565b6104e8838383610dc7565b80516105039060029060208401906111cb565b600081815260046020526040812080546060929190610593906119dc565b80601f01602080910402602001604051908101604052809291908181526020018280546105bf906119dc565b801561060c5780601f106105e15761010080835404028352916020019161060c565b820191906000526020600020905b8154815290600101906020018083116105ef57829003601f168201915b50505050509050600081511161062a5761062583610eb9565b61064e565b60038160405160200161063e929190611a32565b6040516020818303038152906040525b9392505050565b6001600160a01b03841661067b5760405162461bcd60e51b81526004016102b590611ad8565b815183511461069c5760405162461bcd60e51b81526004016102b590611b19565b3360005b8451811015610738578381815181106106bb576106bb611997565b60200260200101516000808784815181106106d8576106d8611997565b602002602001015181526020019081526020016000206000886001600160a01b03166001600160a01b0316815260200190815260200160002060008282546107209190611b61565b90915550819050610730816119c3565b9150506106a0565b50846001600160a01b031660006001600160a01b0316826001600160a01b0316600080516020611e628339815191528787604051610777929190611b79565b60405180910390a46103a481600087878787610f4d565b81518351146107af5760405162461bcd60e51b81526004016102b590611b19565b6001600160a01b0384166107d55760405162461bcd60e51b81526004016102b590611b9e565b3360005b84518110156108bc5760008582815181106107f6576107f6611997565b60200260200101519050600085838151811061081457610814611997565b602090810291909101810151600084815280835260408082206001600160a01b038e1683529093529190912054909150818110156108645760405162461bcd60e51b81526004016102b590611be3565b6000838152602081815260408083206001600160a01b038e8116855292528083208585039055908b168252812080548492906108a1908490611b61565b92505081905550505050806108b5906119c3565b90506107d9565b50846001600160a01b0316866001600160a01b0316826001600160a01b0316600080516020611e6283398151915287876040516108fa929190611b79565b60405180910390a4610910818787878787610f4d565b505050505050565b80516105039060039060208401906111cb565b6001600160a01b0383166109515760405162461bcd60e51b81526004016102b590611c2d565b80518251146109725760405162461bcd60e51b81526004016102b590611b19565b604080516020810190915260009081905233905b8351811015610a485760008482815181106109a3576109a3611997565b6020026020010151905060008483815181106109c1576109c1611997565b602090810291909101810151600084815280835260408082206001600160a01b038c168352909352919091205490915081811015610a115760405162461bcd60e51b81526004016102b590611c70565b6000928352602083815260408085206001600160a01b038b1686529091529092209103905580610a40816119c3565b915050610986565b5060006001600160a01b0316846001600160a01b0316826001600160a01b0316600080516020611e628339815191528686604051610a87929190611b79565b60405180910390a4604080516020810190915260009052610359565b6001600160a01b038416610ac95760405162461bcd60e51b81526004016102b590611ad8565b336000610ad5856110af565b90506000610ae2856110af565b90506000868152602081815260408083206001600160a01b038b16845290915281208054879290610b14908490611b61565b909155505060408051878152602081018790526001600160a01b03808a169260009291871691600080516020611e82833981519152910160405180910390a4610b62836000898989896110fa565b50505050505050565b60008281526004602090815260409091208251610b8a928401906111cb565b50817f6bb7ff708619ba0610cba295a58592e0451dee2622938c8755667688daf3529b610bb684610342565b604051610bc3919061143f565b60405180910390a25050565b816001600160a01b0316836001600160a01b031603610c425760405162461bcd60e51b815260206004820152602960248201527f455243313135353a2073657474696e6720617070726f76616c20737461747573604482015268103337b91039b2b63360b91b60648201526084016102b5565b6001600160a01b03838116600081815260016020908152604080832094871680845294825291829020805460ff191686151590811790915591519182527f17307eab39ab6107e8899845ad3d59bd9653f200f220920489ca2b5937696c31910160405180910390a3505050565b6001600160a01b038416610cd55760405162461bcd60e51b81526004016102b590611b9e565b336000610ce1856110af565b90506000610cee856110af565b90506000868152602081815260408083206001600160a01b038c16845290915290205485811015610d315760405162461bcd60e51b81526004016102b590611be3565b6000878152602081815260408083206001600160a01b038d8116855292528083208985039055908a16825281208054889290610d6e908490611b61565b909155505060408051888152602081018890526001600160a01b03808b16928c82169291881691600080516020611e82833981519152910160405180910390a4610dbc848a8a8a8a8a6110fa565b505050505050505050565b6001600160a01b038316610ded5760405162461bcd60e51b81526004016102b590611c2d565b336000610df9846110af565b90506000610e06846110af565b60408051602080820183526000918290528882528181528282206001600160a01b038b1683529052205490915084811015610e535760405162461bcd60e51b81526004016102b590611c70565b6000868152602081815260408083206001600160a01b038b81168086529184528285208a8703905582518b81529384018a9052909290881691600080516020611e82833981519152910160405180910390a4604080516020810190915260009052610b62565b606060028054610ec8906119dc565b80601f0160208091040260200160405190810160405280929190818152602001828054610ef4906119dc565b8015610f415780601f10610f1657610100808354040283529160200191610f41565b820191906000526020600020905b815481529060010190602001808311610f2457829003601f168201915b50505050509050919050565b610f5f846001600160a01b03166111bc565b156109105760405163bc197c8160e01b81526001600160a01b0385169063bc197c8190610f989089908990889088908890600401611cb4565b6020604051808303816000875af1925050508015610fd3575060408051601f3d908101601f19168201909252610fd091810190611d12565b60015b61107f57610fdf611d2f565b806308c379a0036110185750610ff3611d4b565b80610ffe575061101a565b8060405162461bcd60e51b81526004016102b5919061143f565b505b60405162461bcd60e51b815260206004820152603460248201527f455243313135353a207472616e7366657220746f206e6f6e20455243313135356044820152732932b1b2b4bb32b91034b6b83632b6b2b73a32b960611b60648201526084016102b5565b6001600160e01b0319811663bc197c8160e01b14610b625760405162461bcd60e51b81526004016102b590611dd4565b604080516001808252818301909252606091600091906020808301908036833701905050905082816000815181106110e9576110e9611997565b602090810291909101015292915050565b61110c846001600160a01b03166111bc565b156109105760405163f23a6e6160e01b81526001600160a01b0385169063f23a6e61906111459089908990889088908890600401611e1c565b6020604051808303816000875af1925050508015611180575060408051601f3d908101601f1916820190925261117d91810190611d12565b60015b61118c57610fdf611d2f565b6001600160e01b0319811663f23a6e6160e01b14610b625760405162461bcd60e51b81526004016102b590611dd4565b6001600160a01b03163b151590565b8280546111d7906119dc565b90600052602060002090601f0160209004810192826111f9576000855561123f565b82601f1061121257805160ff191683800117855561123f565b8280016001018555821561123f579182015b8281111561123f578251825591602001919060010190611224565b5061124b92915061124f565b5090565b5b8082111561124b5760008155600101611250565b80356001600160a01b038116811461127b57600080fd5b919050565b6000806040838503121561129357600080fd5b61129c83611264565b946020939093013593505050565b6001600160e01b03198116811461033f57600080fd5b6000602082840312156112d257600080fd5b813561064e816112aa565b634e487b7160e01b600052604160045260246000fd5b601f8201601f191681016001600160401b0381118282101715611318576113186112dd565b6040525050565b600082601f83011261133057600080fd5b81356001600160401b03811115611349576113496112dd565b604051611360601f8301601f1916602001826112f3565b81815284602083860101111561137557600080fd5b816020850160208301376000918101602001919091529392505050565b6000602082840312156113a457600080fd5b81356001600160401b038111156113ba57600080fd5b6113c68482850161131f565b949350505050565b6000602082840312156113e057600080fd5b5035919050565b60005b838110156114025781810151838201526020016113ea565b838111156103595750506000910152565b6000815180845261142b8160208601602086016113e7565b601f01601f19169290920160200192915050565b60208152600061064e6020830184611413565b60006001600160401b0382111561146b5761146b6112dd565b5060051b60200190565b600082601f83011261148657600080fd5b8135602061149382611452565b6040516114a082826112f3565b83815260059390931b85018201928281019150868411156114c057600080fd5b8286015b848110156114db57803583529183019183016114c4565b509695505050505050565b600080600080608085870312156114fc57600080fd5b61150585611264565b935060208501356001600160401b038082111561152157600080fd5b61152d88838901611475565b9450604087013591508082111561154357600080fd5b61154f88838901611475565b9350606087013591508082111561156557600080fd5b506115728782880161131f565b91505092959194509250565b600080600080600060a0868803121561159657600080fd5b61159f86611264565b94506115ad60208701611264565b935060408601356001600160401b03808211156115c957600080fd5b6115d589838a01611475565b945060608801359150808211156115eb57600080fd5b6115f789838a01611475565b9350608088013591508082111561160d57600080fd5b5061161a8882890161131f565b9150509295509295909350565b6000806040838503121561163a57600080fd5b82356001600160401b038082111561165157600080fd5b818501915085601f83011261166557600080fd5b8135602061167282611452565b60405161167f82826112f3565b83815260059390931b850182019282810191508984111561169f57600080fd5b948201945b838610156116c4576116b586611264565b825294820194908201906116a4565b965050860135925050808211156116da57600080fd5b506116e785828601611475565b9150509250929050565b600081518084526020808501945080840160005b8381101561172157815187529582019590820190600101611705565b509495945050505050565b60208152600061064e60208301846116f1565b60008060006060848603121561175457600080fd5b61175d84611264565b925060208401356001600160401b038082111561177957600080fd5b61178587838801611475565b9350604086013591508082111561179b57600080fd5b506117a886828701611475565b9150509250925092565b600080600080608085870312156117c857600080fd5b6117d185611264565b9350602085013592506040850135915060608501356001600160401b038111156117fa57600080fd5b6115728782880161131f565b6000806040838503121561181957600080fd5b8235915060208301356001600160401b0381111561183657600080fd5b6116e78582860161131f565b6000806040838503121561185557600080fd5b61185e83611264565b91506020830135801515811461187357600080fd5b809150509250929050565b6000806040838503121561189157600080fd5b61189a83611264565b91506118a860208401611264565b90509250929050565b600080600080600060a086880312156118c957600080fd5b6118d286611264565b94506118e060208701611264565b9350604086013592506060860135915060808601356001600160401b0381111561190957600080fd5b61161a8882890161131f565b60008060006060848603121561192a57600080fd5b61193384611264565b95602085013595506040909401359392505050565b6020808252602f908201527f455243313135353a2063616c6c6572206973206e6f7420746f6b656e206f776e60408201526e195c881b9bdc88185c1c1c9bdd9959608a1b606082015260800190565b634e487b7160e01b600052603260045260246000fd5b634e487b7160e01b600052601160045260246000fd5b6000600182016119d5576119d56119ad565b5060010190565b600181811c908216806119f057607f821691505b602082108103611a1057634e487b7160e01b600052602260045260246000fd5b50919050565b60008151611a288185602086016113e7565b9290920192915050565b600080845481600182811c915080831680611a4e57607f831692505b60208084108203611a6d57634e487b7160e01b86526022600452602486fd5b818015611a815760018114611a9257611abf565b60ff19861689528489019650611abf565b60008b81526020902060005b86811015611ab75781548b820152908501908301611a9e565b505084890196505b505050505050611acf8185611a16565b95945050505050565b60208082526021908201527f455243313135353a206d696e7420746f20746865207a65726f206164647265736040820152607360f81b606082015260800190565b60208082526028908201527f455243313135353a2069647320616e6420616d6f756e7473206c656e677468206040820152670dad2e6dac2e8c6d60c31b606082015260800190565b60008219821115611b7457611b746119ad565b500190565b604081526000611b8c60408301856116f1565b8281036020840152611acf81856116f1565b60208082526025908201527f455243313135353a207472616e7366657220746f20746865207a65726f206164604082015264647265737360d81b606082015260800190565b6020808252602a908201527f455243313135353a20696e73756666696369656e742062616c616e636520666f60408201526939103a3930b739b332b960b11b606082015260800190565b60208082526023908201527f455243313135353a206275726e2066726f6d20746865207a65726f206164647260408201526265737360e81b606082015260800190565b60208082526024908201527f455243313135353a206275726e20616d6f756e7420657863656564732062616c604082015263616e636560e01b606082015260800190565b6001600160a01b0386811682528516602082015260a060408201819052600090611ce0908301866116f1565b8281036060840152611cf281866116f1565b90508281036080840152611d068185611413565b98975050505050505050565b600060208284031215611d2457600080fd5b815161064e816112aa565b600060033d1115611d485760046000803e5060005160e01c5b90565b600060443d1015611d595790565b6040516003193d81016004833e81513d6001600160401b038083116024840183101715611d8857505050505090565b8285019150815181811115611da05750505050505090565b843d8701016020828501011115611dba5750505050505090565b611dc9602082860101876112f3565b509095945050505050565b60208082526028908201527f455243313135353a204552433131353552656365697665722072656a656374656040820152676420746f6b656e7360c01b606082015260800190565b6001600160a01b03868116825285166020820152604081018490526060810183905260a060808201819052600090611e5690830184611413565b97965050505050505056fe4a39dc06d4c0dbc64b70af90fd698a233a518aa5d07e595d983b8c0526c8f7fbc3d58168c5ae7397731d063d5bbf3d657854427343f4c083240f7aacaa2d0f62a26469706673582212200b9ef2f2d70a984213e91ab69c011cd75ef33f4d6d1c0aac56361aa4977c5d0a64736f6c634300080e0033",
  "immutableReferences": {},
  "source": "// SPDX-License-Identifier: MIT\r\n\r\npragma solidity ^0.8.0;\r\n\r\nimport \"./ERC1155Mock.sol\";\r\nimport \"../token/ERC1155/extensions/ERC1155URIStorage.sol\";\r\n\r\ncontract ERC1155URIStorageMock is ERC1155Mock, ERC1155URIStorage {\r\n    constructor(string memory _uri) ERC1155Mock(_uri) {}\r\n\r\n    function uri(uint256 tokenId) public view virtual override(ERC1155, ERC1155URIStorage) returns (string memory) {\r\n        return ERC1155URIStorage.uri(tokenId);\r\n    }\r\n\r\n    function setURI(uint256 tokenId, string memory _tokenURI) public {\r\n        _setURI(tokenId, _tokenURI);\r\n    }\r\n\r\n    function setBaseURI(string memory baseURI) public {\r\n        _setBaseURI(baseURI);\r\n    }\r\n}\r\n",
  "sourcePath": "D:\\work\\www\\yopu_dapp_nft\\contracts\\lib\\openzeppelin\\contracts\\mocks\\ERC1155URIStorageMock.sol",
  "compiler": {
    "name": "solc",
    "version": "0.8.14+commit.80d49f37.Emscripten.clang"
  },
  "schemaVersion": "3.4.7",
  "updatedAt": "2022-06-28T15:05:47.366Z",
  "devdoc": {
    "kind": "dev",
    "methods": {
      "balanceOf(address,uint256)": {
        "details": "See {IERC1155-balanceOf}. Requirements: - `account` cannot be the zero address."
      },
      "balanceOfBatch(address[],uint256[])": {
        "details": "See {IERC1155-balanceOfBatch}. Requirements: - `accounts` and `ids` must have the same length."
      },
      "isApprovedForAll(address,address)": {
        "details": "See {IERC1155-isApprovedForAll}."
      },
      "safeBatchTransferFrom(address,address,uint256[],uint256[],bytes)": {
        "details": "See {IERC1155-safeBatchTransferFrom}."
      },
      "safeTransferFrom(address,address,uint256,uint256,bytes)": {
        "details": "See {IERC1155-safeTransferFrom}."
      },
      "setApprovalForAll(address,bool)": {
        "details": "See {IERC1155-setApprovalForAll}."
      },
      "supportsInterface(bytes4)": {
        "details": "See {IERC165-supportsInterface}."
      }
    },
    "version": 1
  },
  "userdoc": {
    "kind": "user",
    "methods": {},
    "version": 1
  }
}