{
  "contractName": "ERC1155BurnableMock",
  "abi": [
    {
      "inputs": [
        {
          "internalType": "string",
          "name": "uri",
          "type": "string"
        }
      ],
      "stateMutability": "nonpayable",
      "type": "constructor"
    },
    {
      "anonymous": false,
      "inputs": [
        {
          "indexed": true,
          "internalType": "address",
          "name": "account",
          "type": "address"
        },
        {
          "indexed": true,
          "internalType": "address",
          "name": "operator",
          "type": "address"
        },
        {
          "indexed": false,
          "internalType": "bool",
          "name": "approved",
          "type": "bool"
        }
      ],
      "name": "ApprovalForAll",
      "type": "event"
    },
    {
      "anonymous": false,
      "inputs": [
        {
          "indexed": true,
          "internalType": "address",
          "name": "operator",
          "type": "address"
        },
        {
          "indexed": true,
          "internalType": "address",
          "name": "from",
          "type": "address"
        },
        {
          "indexed": true,
          "internalType": "address",
          "name": "to",
          "type": "address"
        },
        {
          "indexed": false,
          "internalType": "uint256[]",
          "name": "ids",
          "type": "uint256[]"
        },
        {
          "indexed": false,
          "internalType": "uint256[]",
          "name": "values",
          "type": "uint256[]"
        }
      ],
      "name": "TransferBatch",
      "type": "event"
    },
    {
      "anonymous": false,
      "inputs": [
        {
          "indexed": true,
          "internalType": "address",
          "name": "operator",
          "type": "address"
        },
        {
          "indexed": true,
          "internalType": "address",
          "name": "from",
          "type": "address"
        },
        {
          "indexed": true,
          "internalType": "address",
          "name": "to",
          "type": "address"
        },
        {
          "indexed": false,
          "internalType": "uint256",
          "name": "id",
          "type": "uint256"
        },
        {
          "indexed": false,
          "internalType": "uint256",
          "name": "value",
          "type": "uint256"
        }
      ],
      "name": "TransferSingle",
      "type": "event"
    },
    {
      "anonymous": false,
      "inputs": [
        {
          "indexed": false,
          "internalType": "string",
          "name": "value",
          "type": "string"
        },
        {
          "indexed": true,
          "internalType": "uint256",
          "name": "id",
          "type": "uint256"
        }
      ],
      "name": "URI",
      "type": "event"
    },
    {
      "inputs": [
        {
          "internalType": "address",
          "name": "account",
          "type": "address"
        },
        {
          "internalType": "uint256",
          "name": "id",
          "type": "uint256"
        }
      ],
      "name": "balanceOf",
      "outputs": [
        {
          "internalType": "uint256",
          "name": "",
          "type": "uint256"
        }
      ],
      "stateMutability": "view",
      "type": "function"
    },
    {
      "inputs": [
        {
          "internalType": "address[]",
          "name": "accounts",
          "type": "address[]"
        },
        {
          "internalType": "uint256[]",
          "name": "ids",
          "type": "uint256[]"
        }
      ],
      "name": "balanceOfBatch",
      "outputs": [
        {
          "internalType": "uint256[]",
          "name": "",
          "type": "uint256[]"
        }
      ],
      "stateMutability": "view",
      "type": "function"
    },
    {
      "inputs": [
        {
          "internalType": "address",
          "name": "account",
          "type": "address"
        },
        {
          "internalType": "uint256",
          "name": "id",
          "type": "uint256"
        },
        {
          "internalType": "uint256",
          "name": "value",
          "type": "uint256"
        }
      ],
      "name": "burn",
      "outputs": [],
      "stateMutability": "nonpayable",
      "type": "function"
    },
    {
      "inputs": [
        {
          "internalType": "address",
          "name": "account",
          "type": "address"
        },
        {
          "internalType": "uint256[]",
          "name": "ids",
          "type": "uint256[]"
        },
        {
          "internalType": "uint256[]",
          "name": "values",
          "type": "uint256[]"
        }
      ],
      "name": "burnBatch",
      "outputs": [],
      "stateMutability": "nonpayable",
      "type": "function"
    },
    {
      "inputs": [
        {
          "internalType": "address",
          "name": "account",
          "type": "address"
        },
        {
          "internalType": "address",
          "name": "operator",
          "type": "address"
        }
      ],
      "name": "isApprovedForAll",
      "outputs": [
        {
          "internalType": "bool",
          "name": "",
          "type": "bool"
        }
      ],
      "stateMutability": "view",
      "type": "function"
    },
    {
      "inputs": [
        {
          "internalType": "address",
          "name": "from",
          "type": "address"
        },
        {
          "internalType": "address",
          "name": "to",
          "type": "address"
        },
        {
          "internalType": "uint256[]",
          "name": "ids",
          "type": "uint256[]"
        },
        {
          "internalType": "uint256[]",
          "name": "amounts",
          "type": "uint256[]"
        },
        {
          "internalType": "bytes",
          "name": "data",
          "type": "bytes"
        }
      ],
      "name": "safeBatchTransferFrom",
      "outputs": [],
      "stateMutability": "nonpayable",
      "type": "function"
    },
    {
      "inputs": [
        {
          "internalType": "address",
          "name": "from",
          "type": "address"
        },
        {
          "internalType": "address",
          "name": "to",
          "type": "address"
        },
        {
          "internalType": "uint256",
          "name": "id",
          "type": "uint256"
        },
        {
          "internalType": "uint256",
          "name": "amount",
          "type": "uint256"
        },
        {
          "internalType": "bytes",
          "name": "data",
          "type": "bytes"
        }
      ],
      "name": "safeTransferFrom",
      "outputs": [],
      "stateMutability": "nonpayable",
      "type": "function"
    },
    {
      "inputs": [
        {
          "internalType": "address",
          "name": "operator",
          "type": "address"
        },
        {
          "internalType": "bool",
          "name": "approved",
          "type": "bool"
        }
      ],
      "name": "setApprovalForAll",
      "outputs": [],
      "stateMutability": "nonpayable",
      "type": "function"
    },
    {
      "inputs": [
        {
          "internalType": "bytes4",
          "name": "interfaceId",
          "type": "bytes4"
        }
      ],
      "name": "supportsInterface",
      "outputs": [
        {
          "internalType": "bool",
          "name": "",
          "type": "bool"
        }
      ],
      "stateMutability": "view",
      "type": "function"
    },
    {
      "inputs": [
        {
          "internalType": "uint256",
          "name": "",
          "type": "uint256"
        }
      ],
      "name": "uri",
      "outputs": [
        {
          "internalType": "string",
          "name": "",
          "type": "string"
        }
      ],
      "stateMutability": "view",
      "type": "function"
    },
    {
      "inputs": [
        {
          "internalType": "address",
          "name": "to",
          "type": "address"
        },
        {
          "internalType": "uint256",
          "name": "id",
          "type": "uint256"
        },
        {
          "internalType": "uint256",
          "name": "value",
          "type": "uint256"
        },
        {
          "internalType": "bytes",
          "name": "data",
          "type": "bytes"
        }
      ],
      "name": "mint",
      "outputs": [],
      "stateMutability": "nonpayable",
      "type": "function"
    }
  ],
  "bytecode": "0x60806040523480156200001157600080fd5b5060405162001bdd38038062001bdd83398101604081905262000034916200011d565b80620000408162000048565b505062000235565b80516200005d90600290602084019062000061565b5050565b8280546200006f90620001f9565b90600052602060002090601f016020900481019282620000935760008555620000de565b82601f10620000ae57805160ff1916838001178555620000de565b82800160010185558215620000de579182015b82811115620000de578251825591602001919060010190620000c1565b50620000ec929150620000f0565b5090565b5b80821115620000ec5760008155600101620000f1565b634e487b7160e01b600052604160045260246000fd5b600060208083850312156200013157600080fd5b82516001600160401b03808211156200014957600080fd5b818501915085601f8301126200015e57600080fd5b81518181111562000173576200017362000107565b604051601f8201601f19908116603f011681019083821181831017156200019e576200019e62000107565b816040528281528886848701011115620001b757600080fd5b600093505b82841015620001db5784840186015181850187015292850192620001bc565b82841115620001ed5760008684830101525b98975050505050505050565b600181811c908216806200020e57607f821691505b6020821081036200022f57634e487b7160e01b600052602260045260246000fd5b50919050565b61199880620002456000396000f3fe608060405234801561001057600080fd5b50600436106100985760003560e01c8062fdd58e1461009d57806301ffc9a7146100c35780630e89341c146100e65780632eb2c2d6146101065780634e1273f41461011b5780636b20c4541461013b578063731133e91461014e578063a22cb46514610161578063e985e9c514610174578063f242432a146101b0578063f5298aca146101c3575b600080fd5b6100b06100ab366004610f40565b6101d6565b6040519081526020015b60405180910390f35b6100d66100d1366004610f83565b61026c565b60405190151581526020016100ba565b6100f96100f4366004610fa7565b6102be565b6040516100ba919061100d565b610119610114366004611169565b610352565b005b61012e610129366004611212565b61039e565b6040516100ba9190611317565b61011961014936600461132a565b6104c7565b61011961015c36600461139d565b61050f565b61011961016f3660046113fd565b610521565b6100d6610182366004611439565b6001600160a01b03918216600090815260016020908152604080832093909416825291909152205460ff1690565b6101196101be36600461146c565b610530565b6101196101d13660046114d0565b610575565b60006001600160a01b0383166102465760405162461bcd60e51b815260206004820152602a60248201527f455243313135353a2061646472657373207a65726f206973206e6f742061207660448201526930b634b21037bbb732b960b11b60648201526084015b60405180910390fd5b506000908152602081815260408083206001600160a01b03949094168352929052205490565b60006001600160e01b03198216636cdb3d1360e11b148061029d57506001600160e01b031982166303a24d0760e21b145b806102b857506301ffc9a760e01b6001600160e01b03198316145b92915050565b6060600280546102cd90611503565b80601f01602080910402602001604051908101604052809291908181526020018280546102f990611503565b80156103465780601f1061031b57610100808354040283529160200191610346565b820191906000526020600020905b81548152906001019060200180831161032957829003601f168201915b50505050509050919050565b6001600160a01b03851633148061036e575061036e8533610182565b61038a5760405162461bcd60e51b815260040161023d9061153d565b61039785858585856105b8565b5050505050565b606081518351146104035760405162461bcd60e51b815260206004820152602960248201527f455243313135353a206163636f756e747320616e6420696473206c656e677468604482015268040dad2e6dac2e8c6d60bb1b606482015260840161023d565b600083516001600160401b0381111561041e5761041e611020565b604051908082528060200260200182016040528015610447578160200160208202803683370190505b50905060005b84518110156104bf5761049285828151811061046b5761046b61158c565b60200260200101518583815181106104855761048561158c565b60200260200101516101d6565b8282815181106104a4576104a461158c565b60209081029190910101526104b8816115b8565b905061044d565b509392505050565b6001600160a01b0383163314806104e357506104e38333610182565b6104ff5760405162461bcd60e51b815260040161023d9061153d565b61050a838383610742565b505050565b61051b848484846108ba565b50505050565b61052c3383836109bc565b5050565b6001600160a01b03851633148061054c575061054c8533610182565b6105685760405162461bcd60e51b815260040161023d9061153d565b6103978585858585610a9c565b6001600160a01b03831633148061059157506105918333610182565b6105ad5760405162461bcd60e51b815260040161023d9061153d565b61050a838383610bb4565b81518351146105d95760405162461bcd60e51b815260040161023d906115d1565b6001600160a01b0384166105ff5760405162461bcd60e51b815260040161023d90611619565b3360005b84518110156106e65760008582815181106106205761062061158c565b60200260200101519050600085838151811061063e5761063e61158c565b602090810291909101810151600084815280835260408082206001600160a01b038e16835290935291909120549091508181101561068e5760405162461bcd60e51b815260040161023d9061165e565b6000838152602081815260408083206001600160a01b038e8116855292528083208585039055908b168252812080548492906106cb9084906116a8565b92505081905550505050806106df906115b8565b9050610603565b50846001600160a01b0316866001600160a01b0316826001600160a01b031660008051602061192383398151915287876040516107249291906116c0565b60405180910390a461073a818787878787610ca6565b505050505050565b6001600160a01b0383166107685760405162461bcd60e51b815260040161023d906116ee565b80518251146107895760405162461bcd60e51b815260040161023d906115d1565b604080516020810190915260009081905233905b835181101561085f5760008482815181106107ba576107ba61158c565b6020026020010151905060008483815181106107d8576107d861158c565b602090810291909101810151600084815280835260408082206001600160a01b038c1683529093529190912054909150818110156108285760405162461bcd60e51b815260040161023d90611731565b6000928352602083815260408085206001600160a01b038b1686529091529092209103905580610857816115b8565b91505061079d565b5060006001600160a01b0316846001600160a01b0316826001600160a01b0316600080516020611923833981519152868660405161089e9291906116c0565b60405180910390a460408051602081019091526000905261051b565b6001600160a01b03841661091a5760405162461bcd60e51b815260206004820152602160248201527f455243313135353a206d696e7420746f20746865207a65726f206164647265736044820152607360f81b606482015260840161023d565b33600061092685610e08565b9050600061093385610e08565b90506000868152602081815260408083206001600160a01b038b168452909152812080548792906109659084906116a8565b909155505060408051878152602081018790526001600160a01b03808a169260009291871691600080516020611943833981519152910160405180910390a46109b383600089898989610e53565b50505050505050565b816001600160a01b0316836001600160a01b031603610a2f5760405162461bcd60e51b815260206004820152602960248201527f455243313135353a2073657474696e6720617070726f76616c20737461747573604482015268103337b91039b2b63360b91b606482015260840161023d565b6001600160a01b03838116600081815260016020908152604080832094871680845294825291829020805460ff191686151590811790915591519182527f17307eab39ab6107e8899845ad3d59bd9653f200f220920489ca2b5937696c31910160405180910390a3505050565b6001600160a01b038416610ac25760405162461bcd60e51b815260040161023d90611619565b336000610ace85610e08565b90506000610adb85610e08565b90506000868152602081815260408083206001600160a01b038c16845290915290205485811015610b1e5760405162461bcd60e51b815260040161023d9061165e565b6000878152602081815260408083206001600160a01b038d8116855292528083208985039055908a16825281208054889290610b5b9084906116a8565b909155505060408051888152602081018890526001600160a01b03808b16928c82169291881691600080516020611943833981519152910160405180910390a4610ba9848a8a8a8a8a610e53565b505050505050505050565b6001600160a01b038316610bda5760405162461bcd60e51b815260040161023d906116ee565b336000610be684610e08565b90506000610bf384610e08565b60408051602080820183526000918290528882528181528282206001600160a01b038b1683529052205490915084811015610c405760405162461bcd60e51b815260040161023d90611731565b6000868152602081815260408083206001600160a01b038b81168086529184528285208a8703905582518b81529384018a9052909290881691600080516020611943833981519152910160405180910390a46040805160208101909152600090526109b3565b610cb8846001600160a01b0316610f15565b1561073a5760405163bc197c8160e01b81526001600160a01b0385169063bc197c8190610cf19089908990889088908890600401611775565b6020604051808303816000875af1925050508015610d2c575060408051601f3d908101601f19168201909252610d29918101906117d3565b60015b610dd857610d386117f0565b806308c379a003610d715750610d4c61180c565b80610d575750610d73565b8060405162461bcd60e51b815260040161023d919061100d565b505b60405162461bcd60e51b815260206004820152603460248201527f455243313135353a207472616e7366657220746f206e6f6e20455243313135356044820152732932b1b2b4bb32b91034b6b83632b6b2b73a32b960611b606482015260840161023d565b6001600160e01b0319811663bc197c8160e01b146109b35760405162461bcd60e51b815260040161023d90611895565b60408051600180825281830190925260609160009190602080830190803683370190505090508281600081518110610e4257610e4261158c565b602090810291909101015292915050565b610e65846001600160a01b0316610f15565b1561073a5760405163f23a6e6160e01b81526001600160a01b0385169063f23a6e6190610e9e90899089908890889088906004016118dd565b6020604051808303816000875af1925050508015610ed9575060408051601f3d908101601f19168201909252610ed6918101906117d3565b60015b610ee557610d386117f0565b6001600160e01b0319811663f23a6e6160e01b146109b35760405162461bcd60e51b815260040161023d90611895565b6001600160a01b03163b151590565b80356001600160a01b0381168114610f3b57600080fd5b919050565b60008060408385031215610f5357600080fd5b610f5c83610f24565b946020939093013593505050565b6001600160e01b031981168114610f8057600080fd5b50565b600060208284031215610f9557600080fd5b8135610fa081610f6a565b9392505050565b600060208284031215610fb957600080fd5b5035919050565b6000815180845260005b81811015610fe657602081850181015186830182015201610fca565b81811115610ff8576000602083870101525b50601f01601f19169290920160200192915050565b602081526000610fa06020830184610fc0565b634e487b7160e01b600052604160045260246000fd5b601f8201601f191681016001600160401b038111828210171561105b5761105b611020565b6040525050565b60006001600160401b0382111561107b5761107b611020565b5060051b60200190565b600082601f83011261109657600080fd5b813560206110a382611062565b6040516110b08282611036565b83815260059390931b85018201928281019150868411156110d057600080fd5b8286015b848110156110eb57803583529183019183016110d4565b509695505050505050565b600082601f83011261110757600080fd5b81356001600160401b0381111561112057611120611020565b604051611137601f8301601f191660200182611036565b81815284602083860101111561114c57600080fd5b816020850160208301376000918101602001919091529392505050565b600080600080600060a0868803121561118157600080fd5b61118a86610f24565b945061119860208701610f24565b935060408601356001600160401b03808211156111b457600080fd5b6111c089838a01611085565b945060608801359150808211156111d657600080fd5b6111e289838a01611085565b935060808801359150808211156111f857600080fd5b50611205888289016110f6565b9150509295509295909350565b6000806040838503121561122557600080fd5b82356001600160401b038082111561123c57600080fd5b818501915085601f83011261125057600080fd5b8135602061125d82611062565b60405161126a8282611036565b83815260059390931b850182019282810191508984111561128a57600080fd5b948201945b838610156112af576112a086610f24565b8252948201949082019061128f565b965050860135925050808211156112c557600080fd5b506112d285828601611085565b9150509250929050565b600081518084526020808501945080840160005b8381101561130c578151875295820195908201906001016112f0565b509495945050505050565b602081526000610fa060208301846112dc565b60008060006060848603121561133f57600080fd5b61134884610f24565b925060208401356001600160401b038082111561136457600080fd5b61137087838801611085565b9350604086013591508082111561138657600080fd5b5061139386828701611085565b9150509250925092565b600080600080608085870312156113b357600080fd5b6113bc85610f24565b9350602085013592506040850135915060608501356001600160401b038111156113e557600080fd5b6113f1878288016110f6565b91505092959194509250565b6000806040838503121561141057600080fd5b61141983610f24565b91506020830135801515811461142e57600080fd5b809150509250929050565b6000806040838503121561144c57600080fd5b61145583610f24565b915061146360208401610f24565b90509250929050565b600080600080600060a0868803121561148457600080fd5b61148d86610f24565b945061149b60208701610f24565b9350604086013592506060860135915060808601356001600160401b038111156114c457600080fd5b611205888289016110f6565b6000806000606084860312156114e557600080fd5b6114ee84610f24565b95602085013595506040909401359392505050565b600181811c9082168061151757607f821691505b60208210810361153757634e487b7160e01b600052602260045260246000fd5b50919050565b6020808252602f908201527f455243313135353a2063616c6c6572206973206e6f7420746f6b656e206f776e60408201526e195c881b9bdc88185c1c1c9bdd9959608a1b606082015260800190565b634e487b7160e01b600052603260045260246000fd5b634e487b7160e01b600052601160045260246000fd5b6000600182016115ca576115ca6115a2565b5060010190565b60208082526028908201527f455243313135353a2069647320616e6420616d6f756e7473206c656e677468206040820152670dad2e6dac2e8c6d60c31b606082015260800190565b60208082526025908201527f455243313135353a207472616e7366657220746f20746865207a65726f206164604082015264647265737360d81b606082015260800190565b6020808252602a908201527f455243313135353a20696e73756666696369656e742062616c616e636520666f60408201526939103a3930b739b332b960b11b606082015260800190565b600082198211156116bb576116bb6115a2565b500190565b6040815260006116d360408301856112dc565b82810360208401526116e581856112dc565b95945050505050565b60208082526023908201527f455243313135353a206275726e2066726f6d20746865207a65726f206164647260408201526265737360e81b606082015260800190565b60208082526024908201527f455243313135353a206275726e20616d6f756e7420657863656564732062616c604082015263616e636560e01b606082015260800190565b6001600160a01b0386811682528516602082015260a0604082018190526000906117a1908301866112dc565b82810360608401526117b381866112dc565b905082810360808401526117c78185610fc0565b98975050505050505050565b6000602082840312156117e557600080fd5b8151610fa081610f6a565b600060033d11156118095760046000803e5060005160e01c5b90565b600060443d101561181a5790565b6040516003193d81016004833e81513d6001600160401b03808311602484018310171561184957505050505090565b82850191508151818111156118615750505050505090565b843d870101602082850101111561187b5750505050505090565b61188a60208286010187611036565b509095945050505050565b60208082526028908201527f455243313135353a204552433131353552656365697665722072656a656374656040820152676420746f6b656e7360c01b606082015260800190565b6001600160a01b03868116825285166020820152604081018490526060810183905260a06080820181905260009061191790830184610fc0565b97965050505050505056fe4a39dc06d4c0dbc64b70af90fd698a233a518aa5d07e595d983b8c0526c8f7fbc3d58168c5ae7397731d063d5bbf3d657854427343f4c083240f7aacaa2d0f62a26469706673582212207bf3ad789480fb7a3539295e572edf26d300a6322de24e1fdef9973a0ca349fe64736f6c634300080e0033",
  "immutableReferences": {},
  "source": "// SPDX-License-Identifier: MIT\r\n\r\npragma solidity ^0.8.0;\r\n\r\nimport \"../token/ERC1155/extensions/ERC1155Burnable.sol\";\r\n\r\ncontract ERC1155BurnableMock is ERC1155Burnable {\r\n    constructor(string memory uri) ERC1155(uri) {}\r\n\r\n    function mint(\r\n        address to,\r\n        uint256 id,\r\n        uint256 value,\r\n        bytes memory data\r\n    ) public {\r\n        _mint(to, id, value, data);\r\n    }\r\n}\r\n",
  "sourcePath": "D:\\work\\www\\yopu_dapp_nft\\contracts\\lib\\openzeppelin\\contracts\\mocks\\ERC1155BurnableMock.sol",
  "compiler": {
    "name": "solc",
    "version": "0.8.14+commit.80d49f37.Emscripten.clang"
  },
  "schemaVersion": "3.4.7",
  "updatedAt": "2022-06-28T15:05:47.282Z",
  "devdoc": {
    "kind": "dev",
    "methods": {
      "balanceOf(address,uint256)": {
        "details": "See {IERC1155-balanceOf}. Requirements: - `account` cannot be the zero address."
      },
      "balanceOfBatch(address[],uint256[])": {
        "details": "See {IERC1155-balanceOfBatch}. Requirements: - `accounts` and `ids` must have the same length."
      },
      "isApprovedForAll(address,address)": {
        "details": "See {IERC1155-isApprovedForAll}."
      },
      "safeBatchTransferFrom(address,address,uint256[],uint256[],bytes)": {
        "details": "See {IERC1155-safeBatchTransferFrom}."
      },
      "safeTransferFrom(address,address,uint256,uint256,bytes)": {
        "details": "See {IERC1155-safeTransferFrom}."
      },
      "setApprovalForAll(address,bool)": {
        "details": "See {IERC1155-setApprovalForAll}."
      },
      "supportsInterface(bytes4)": {
        "details": "See {IERC165-supportsInterface}."
      },
      "uri(uint256)": {
        "details": "See {IERC1155MetadataURI-uri}. This implementation returns the same URI for *all* token types. It relies on the token type ID substitution mechanism https://eips.ethereum.org/EIPS/eip-1155#metadata[defined in the EIP]. Clients calling this function must replace the `\\{id\\}` substring with the actual token type ID."
      }
    },
    "version": 1
  },
  "userdoc": {
    "kind": "user",
    "methods": {},
    "version": 1
  }
}