{
  "contractName": "ERC165InterfacesSupported",
  "abi": [
    {
      "inputs": [
        {
          "internalType": "bytes4[]",
          "name": "interfaceIds",
          "type": "bytes4[]"
        }
      ],
      "stateMutability": "nonpayable",
      "type": "constructor"
    },
    {
      "inputs": [],
      "name": "INTERFACE_ID_ERC165",
      "outputs": [
        {
          "internalType": "bytes4",
          "name": "",
          "type": "bytes4"
        }
      ],
      "stateMutability": "view",
      "type": "function"
    },
    {
      "inputs": [
        {
          "internalType": "bytes4",
          "name": "interfaceId",
          "type": "bytes4"
        }
      ],
      "name": "supportsInterface",
      "outputs": [
        {
          "internalType": "bool",
          "name": "",
          "type": "bool"
        }
      ],
      "stateMutability": "view",
      "type": "function"
    }
  ],
  "bytecode": "0x608060405234801561001057600080fd5b5060405161036a38038061036a83398101604081905261002f9161015a565b61003f6301ffc9a760e01b61008c565b60005b8151811015610085576100738282815181106100605761006061021e565b602002602001015161008c60201b60201c565b8061007d81610234565b915050610042565b505061025b565b6001600160e01b031980821690036101025760405162461bcd60e51b815260206004820152602f60248201527f455243313635496e7465726661636573537570706f727465643a20696e76616c60448201526e1a59081a5b9d195c999858d9481a59608a1b606482015260840160405180910390fd5b6001600160e01b0319166000908152602081905260409020805460ff19166001179055565b634e487b7160e01b600052604160045260246000fd5b80516001600160e01b03198116811461015557600080fd5b919050565b6000602080838503121561016d57600080fd5b82516001600160401b038082111561018457600080fd5b818501915085601f83011261019857600080fd5b8151818111156101aa576101aa610127565b8060051b604051601f19603f830116810181811085821117156101cf576101cf610127565b6040529182528482019250838101850191888311156101ed57600080fd5b938501935b82851015610212576102038561013d565b845293850193928501926101f2565b98975050505050505050565b634e487b7160e01b600052603260045260246000fd5b60006001820161025457634e487b7160e01b600052601160045260246000fd5b5060010190565b6101008061026a6000396000f3fe6080604052348015600f57600080fd5b506004361060325760003560e01c806301ffc9a714603757806334d7006c146076575b600080fd5b60616042366004609b565b6001600160e01b03191660009081526020819052604090205460ff1690565b60405190151581526020015b60405180910390f35b60836301ffc9a760e01b81565b6040516001600160e01b03199091168152602001606d565b60006020828403121560ac57600080fd5b81356001600160e01b03198116811460c357600080fd5b939250505056fea264697066735822122037a8a5f9fb0f2e53b387f68ad8408d066d2045886e384cf92cfa4565d33d592364736f6c634300080e0033",
  "immutableReferences": {},
  "source": "// SPDX-License-Identifier: MIT\r\n\r\npragma solidity ^0.8.0;\r\n\r\nimport \"../../utils/introspection/IERC165.sol\";\r\n\r\n/**\r\n * https://eips.ethereum.org/EIPS/eip-214#specification\r\n * From the specification:\r\n * > Any attempts to make state-changing operations inside an execution instance with STATIC set to true will instead\r\n * throw an exception.\r\n * > These operations include [...], LOG0, LOG1, LOG2, [...]\r\n *\r\n * therefore, because this contract is staticcall'd we need to not emit events (which is how solidity-coverage works)\r\n * solidity-coverage ignores the /mocks folder, so we duplicate its implementation here to avoid instrumenting it\r\n */\r\ncontract SupportsInterfaceWithLookupMock is IERC165 {\r\n    /*\r\n     * bytes4(keccak256('supportsInterface(bytes4)')) == 0x01ffc9a7\r\n     */\r\n    bytes4 public constant INTERFACE_ID_ERC165 = 0x01ffc9a7;\r\n\r\n    /**\r\n     * @dev A mapping of interface id to whether or not it's supported.\r\n     */\r\n    mapping(bytes4 => bool) private _supportedInterfaces;\r\n\r\n    /**\r\n     * @dev A contract implementing SupportsInterfaceWithLookup\r\n     * implement ERC165 itself.\r\n     */\r\n    constructor() {\r\n        _registerInterface(INTERFACE_ID_ERC165);\r\n    }\r\n\r\n    /**\r\n     * @dev Implement supportsInterface(bytes4) using a lookup table.\r\n     */\r\n    function supportsInterface(bytes4 interfaceId) public view override returns (bool) {\r\n        return _supportedInterfaces[interfaceId];\r\n    }\r\n\r\n    /**\r\n     * @dev Private method for registering an interface.\r\n     */\r\n    function _registerInterface(bytes4 interfaceId) internal {\r\n        require(interfaceId != 0xffffffff, \"ERC165InterfacesSupported: invalid interface id\");\r\n        _supportedInterfaces[interfaceId] = true;\r\n    }\r\n}\r\n\r\ncontract ERC165InterfacesSupported is SupportsInterfaceWithLookupMock {\r\n    constructor(bytes4[] memory interfaceIds) {\r\n        for (uint256 i = 0; i < interfaceIds.length; i++) {\r\n            _registerInterface(interfaceIds[i]);\r\n        }\r\n    }\r\n}\r\n",
  "sourcePath": "D:\\work\\www\\yopu_dapp_nft\\contracts\\lib\\openzeppelin\\contracts\\mocks\\ERC165\\ERC165InterfacesSupported.sol",
  "compiler": {
    "name": "solc",
    "version": "0.8.14+commit.80d49f37.Emscripten.clang"
  },
  "schemaVersion": "3.4.7",
  "updatedAt": "2022-06-28T15:05:47.384Z",
  "devdoc": {
    "kind": "dev",
    "methods": {
      "supportsInterface(bytes4)": {
        "details": "Implement supportsInterface(bytes4) using a lookup table."
      }
    },
    "version": 1
  },
  "userdoc": {
    "kind": "user",
    "methods": {},
    "version": 1
  }
}