{
  "contractName": "ERC20PausableMock",
  "abi": [
    {
      "inputs": [
        {
          "internalType": "string",
          "name": "name",
          "type": "string"
        },
        {
          "internalType": "string",
          "name": "symbol",
          "type": "string"
        },
        {
          "internalType": "address",
          "name": "initialAccount",
          "type": "address"
        },
        {
          "internalType": "uint256",
          "name": "initialBalance",
          "type": "uint256"
        }
      ],
      "stateMutability": "nonpayable",
      "type": "constructor"
    },
    {
      "anonymous": false,
      "inputs": [
        {
          "indexed": true,
          "internalType": "address",
          "name": "owner",
          "type": "address"
        },
        {
          "indexed": true,
          "internalType": "address",
          "name": "spender",
          "type": "address"
        },
        {
          "indexed": false,
          "internalType": "uint256",
          "name": "value",
          "type": "uint256"
        }
      ],
      "name": "Approval",
      "type": "event"
    },
    {
      "anonymous": false,
      "inputs": [
        {
          "indexed": false,
          "internalType": "address",
          "name": "account",
          "type": "address"
        }
      ],
      "name": "Paused",
      "type": "event"
    },
    {
      "anonymous": false,
      "inputs": [
        {
          "indexed": true,
          "internalType": "address",
          "name": "from",
          "type": "address"
        },
        {
          "indexed": true,
          "internalType": "address",
          "name": "to",
          "type": "address"
        },
        {
          "indexed": false,
          "internalType": "uint256",
          "name": "value",
          "type": "uint256"
        }
      ],
      "name": "Transfer",
      "type": "event"
    },
    {
      "anonymous": false,
      "inputs": [
        {
          "indexed": false,
          "internalType": "address",
          "name": "account",
          "type": "address"
        }
      ],
      "name": "Unpaused",
      "type": "event"
    },
    {
      "inputs": [
        {
          "internalType": "address",
          "name": "owner",
          "type": "address"
        },
        {
          "internalType": "address",
          "name": "spender",
          "type": "address"
        }
      ],
      "name": "allowance",
      "outputs": [
        {
          "internalType": "uint256",
          "name": "",
          "type": "uint256"
        }
      ],
      "stateMutability": "view",
      "type": "function"
    },
    {
      "inputs": [
        {
          "internalType": "address",
          "name": "spender",
          "type": "address"
        },
        {
          "internalType": "uint256",
          "name": "amount",
          "type": "uint256"
        }
      ],
      "name": "approve",
      "outputs": [
        {
          "internalType": "bool",
          "name": "",
          "type": "bool"
        }
      ],
      "stateMutability": "nonpayable",
      "type": "function"
    },
    {
      "inputs": [
        {
          "internalType": "address",
          "name": "account",
          "type": "address"
        }
      ],
      "name": "balanceOf",
      "outputs": [
        {
          "internalType": "uint256",
          "name": "",
          "type": "uint256"
        }
      ],
      "stateMutability": "view",
      "type": "function"
    },
    {
      "inputs": [],
      "name": "decimals",
      "outputs": [
        {
          "internalType": "uint8",
          "name": "",
          "type": "uint8"
        }
      ],
      "stateMutability": "view",
      "type": "function"
    },
    {
      "inputs": [
        {
          "internalType": "address",
          "name": "spender",
          "type": "address"
        },
        {
          "internalType": "uint256",
          "name": "subtractedValue",
          "type": "uint256"
        }
      ],
      "name": "decreaseAllowance",
      "outputs": [
        {
          "internalType": "bool",
          "name": "",
          "type": "bool"
        }
      ],
      "stateMutability": "nonpayable",
      "type": "function"
    },
    {
      "inputs": [
        {
          "internalType": "address",
          "name": "spender",
          "type": "address"
        },
        {
          "internalType": "uint256",
          "name": "addedValue",
          "type": "uint256"
        }
      ],
      "name": "increaseAllowance",
      "outputs": [
        {
          "internalType": "bool",
          "name": "",
          "type": "bool"
        }
      ],
      "stateMutability": "nonpayable",
      "type": "function"
    },
    {
      "inputs": [],
      "name": "name",
      "outputs": [
        {
          "internalType": "string",
          "name": "",
          "type": "string"
        }
      ],
      "stateMutability": "view",
      "type": "function"
    },
    {
      "inputs": [],
      "name": "paused",
      "outputs": [
        {
          "internalType": "bool",
          "name": "",
          "type": "bool"
        }
      ],
      "stateMutability": "view",
      "type": "function"
    },
    {
      "inputs": [],
      "name": "symbol",
      "outputs": [
        {
          "internalType": "string",
          "name": "",
          "type": "string"
        }
      ],
      "stateMutability": "view",
      "type": "function"
    },
    {
      "inputs": [],
      "name": "totalSupply",
      "outputs": [
        {
          "internalType": "uint256",
          "name": "",
          "type": "uint256"
        }
      ],
      "stateMutability": "view",
      "type": "function"
    },
    {
      "inputs": [
        {
          "internalType": "address",
          "name": "to",
          "type": "address"
        },
        {
          "internalType": "uint256",
          "name": "amount",
          "type": "uint256"
        }
      ],
      "name": "transfer",
      "outputs": [
        {
          "internalType": "bool",
          "name": "",
          "type": "bool"
        }
      ],
      "stateMutability": "nonpayable",
      "type": "function"
    },
    {
      "inputs": [
        {
          "internalType": "address",
          "name": "from",
          "type": "address"
        },
        {
          "internalType": "address",
          "name": "to",
          "type": "address"
        },
        {
          "internalType": "uint256",
          "name": "amount",
          "type": "uint256"
        }
      ],
      "name": "transferFrom",
      "outputs": [
        {
          "internalType": "bool",
          "name": "",
          "type": "bool"
        }
      ],
      "stateMutability": "nonpayable",
      "type": "function"
    },
    {
      "inputs": [],
      "name": "pause",
      "outputs": [],
      "stateMutability": "nonpayable",
      "type": "function"
    },
    {
      "inputs": [],
      "name": "unpause",
      "outputs": [],
      "stateMutability": "nonpayable",
      "type": "function"
    },
    {
      "inputs": [
        {
          "internalType": "address",
          "name": "to",
          "type": "address"
        },
        {
          "internalType": "uint256",
          "name": "amount",
          "type": "uint256"
        }
      ],
      "name": "mint",
      "outputs": [],
      "stateMutability": "nonpayable",
      "type": "function"
    },
    {
      "inputs": [
        {
          "internalType": "address",
          "name": "from",
          "type": "address"
        },
        {
          "internalType": "uint256",
          "name": "amount",
          "type": "uint256"
        }
      ],
      "name": "burn",
      "outputs": [],
      "stateMutability": "nonpayable",
      "type": "function"
    }
  ],
  "bytecode": "0x60806040523480156200001157600080fd5b506040516200117738038062001177833981016040819052620000349162000375565b8351849084906200004d90600390602085019062000202565b5080516200006390600490602084019062000202565b50506005805460ff19169055506200007c828262000086565b505050506200046b565b6001600160a01b038216620000e25760405162461bcd60e51b815260206004820152601f60248201527f45524332303a206d696e7420746f20746865207a65726f20616464726573730060448201526064015b60405180910390fd5b620000f0600083836200017d565b806002600082825462000104919062000408565b90915550506001600160a01b038216600090815260208190526040812080548392906200013390849062000408565b90915550506040518181526001600160a01b038316906000907fddf252ad1be2c89b69c2b068fc378daa952ba7f163c4a11628f55a4df523b3ef9060200160405180910390a35050565b62000195838383620001fd60201b620003ec1760201c565b60055460ff1615620001fd5760405162461bcd60e51b815260206004820152602a60248201527f45524332305061757361626c653a20746f6b656e207472616e736665722077686044820152691a5b19481c185d5cd95960b21b6064820152608401620000d9565b505050565b82805462000210906200042f565b90600052602060002090601f0160209004810192826200023457600085556200027f565b82601f106200024f57805160ff19168380011785556200027f565b828001600101855582156200027f579182015b828111156200027f57825182559160200191906001019062000262565b506200028d92915062000291565b5090565b5b808211156200028d576000815560010162000292565b634e487b7160e01b600052604160045260246000fd5b600082601f830112620002d057600080fd5b81516001600160401b0380821115620002ed57620002ed620002a8565b604051601f8301601f19908116603f01168101908282118183101715620003185762000318620002a8565b816040528381526020925086838588010111156200033557600080fd5b600091505b838210156200035957858201830151818301840152908201906200033a565b838211156200036b5760008385830101525b9695505050505050565b600080600080608085870312156200038c57600080fd5b84516001600160401b0380821115620003a457600080fd5b620003b288838901620002be565b95506020870151915080821115620003c957600080fd5b50620003d887828801620002be565b604087015190945090506001600160a01b0381168114620003f857600080fd5b6060959095015193969295505050565b600082198211156200042a57634e487b7160e01b600052601160045260246000fd5b500190565b600181811c908216806200044457607f821691505b6020821081036200046557634e487b7160e01b600052602260045260246000fd5b50919050565b610cfc806200047b6000396000f3fe608060405234801561001057600080fd5b50600436106100d05760003560e01c806306fdde03146100d5578063095ea7b3146100f357806318160ddd1461011657806323b872dd14610128578063313ce5671461013b578063395093511461014a5780633f4ba83a1461015d57806340c10f19146101675780635c975abb1461017a57806370a08231146101855780638456cb59146101ae57806395d89b41146101b65780639dc29fac146101be578063a457c2d7146101d1578063a9059cbb146101e4578063dd62ed3e146101f7575b600080fd5b6100dd61020a565b6040516100ea9190610afb565b60405180910390f35b610106610101366004610b6c565b61029c565b60405190151581526020016100ea565b6002545b6040519081526020016100ea565b610106610136366004610b96565b6102b4565b604051601281526020016100ea565b610106610158366004610b6c565b6102d8565b6101656102fa565b005b610165610175366004610b6c565b610304565b60055460ff16610106565b61011a610193366004610bd2565b6001600160a01b031660009081526020819052604090205490565b610165610312565b6100dd61031a565b6101656101cc366004610b6c565b610329565b6101066101df366004610b6c565b610333565b6101066101f2366004610b6c565b6103b3565b61011a610205366004610bf4565b6103c1565b60606003805461021990610c27565b80601f016020809104026020016040519081016040528092919081815260200182805461024590610c27565b80156102925780601f1061026757610100808354040283529160200191610292565b820191906000526020600020905b81548152906001019060200180831161027557829003601f168201915b5050505050905090565b6000336102aa8185856103f1565b5060019392505050565b6000336102c2858285610515565b6102cd85858561058f565b506001949350505050565b6000336102aa8185856102eb83836103c1565b6102f59190610c77565b6103f1565b610302610756565b565b61030e82826107a8565b5050565b610302610881565b60606004805461021990610c27565b61030e82826108be565b6000338161034182866103c1565b9050838110156103a65760405162461bcd60e51b815260206004820152602560248201527f45524332303a2064656372656173656420616c6c6f77616e63652062656c6f77604482015264207a65726f60d81b60648201526084015b60405180910390fd5b6102cd82868684036103f1565b6000336102aa81858561058f565b6001600160a01b03918216600090815260016020908152604080832093909416825291909152205490565b505050565b6001600160a01b0383166104535760405162461bcd60e51b8152602060048201526024808201527f45524332303a20617070726f76652066726f6d20746865207a65726f206164646044820152637265737360e01b606482015260840161039d565b6001600160a01b0382166104b45760405162461bcd60e51b815260206004820152602260248201527f45524332303a20617070726f766520746f20746865207a65726f206164647265604482015261737360f01b606482015260840161039d565b6001600160a01b0383811660008181526001602090815260408083209487168084529482529182902085905590518481527f8c5be1e5ebec7d5bd14f71427d1e84f3dd0314c0f7b2291e5b200ac8c7c3b925910160405180910390a3505050565b600061052184846103c1565b90506000198114610589578181101561057c5760405162461bcd60e51b815260206004820152601d60248201527f45524332303a20696e73756666696369656e7420616c6c6f77616e6365000000604482015260640161039d565b61058984848484036103f1565b50505050565b6001600160a01b0383166105f35760405162461bcd60e51b815260206004820152602560248201527f45524332303a207472616e736665722066726f6d20746865207a65726f206164604482015264647265737360d81b606482015260840161039d565b6001600160a01b0382166106555760405162461bcd60e51b815260206004820152602360248201527f45524332303a207472616e7366657220746f20746865207a65726f206164647260448201526265737360e81b606482015260840161039d565b610660838383610a06565b6001600160a01b038316600090815260208190526040902054818110156106d85760405162461bcd60e51b815260206004820152602660248201527f45524332303a207472616e7366657220616d6f756e7420657863656564732062604482015265616c616e636560d01b606482015260840161039d565b6001600160a01b0380851660009081526020819052604080822085850390559185168152908120805484929061070f908490610c77565b92505081905550826001600160a01b0316846001600160a01b0316600080516020610ca78339815191528460405161074991815260200190565b60405180910390a3610589565b61075e610a6c565b6005805460ff191690557f5db9ee0a495bf2e6ff9c91a7834c1ba4fdd244a5e8aa4e537bd38aeae4b073aa335b6040516001600160a01b03909116815260200160405180910390a1565b6001600160a01b0382166107fe5760405162461bcd60e51b815260206004820152601f60248201527f45524332303a206d696e7420746f20746865207a65726f206164647265737300604482015260640161039d565b61080a60008383610a06565b806002600082825461081c9190610c77565b90915550506001600160a01b03821660009081526020819052604081208054839290610849908490610c77565b90915550506040518181526001600160a01b03831690600090600080516020610ca78339815191529060200160405180910390a35050565b610889610ab5565b6005805460ff191660011790557f62e78cea01bee320cd4e420270b5ea74000d11b0c9f74754ebdbfc544b05a25861078b3390565b6001600160a01b03821661091e5760405162461bcd60e51b815260206004820152602160248201527f45524332303a206275726e2066726f6d20746865207a65726f206164647265736044820152607360f81b606482015260840161039d565b61092a82600083610a06565b6001600160a01b0382166000908152602081905260409020548181101561099e5760405162461bcd60e51b815260206004820152602260248201527f45524332303a206275726e20616d6f756e7420657863656564732062616c616e604482015261636560f01b606482015260840161039d565b6001600160a01b03831660009081526020819052604081208383039055600280548492906109cd908490610c8f565b90915550506040518281526000906001600160a01b03851690600080516020610ca78339815191529060200160405180910390a3505050565b60055460ff16156103ec5760405162461bcd60e51b815260206004820152602a60248201527f45524332305061757361626c653a20746f6b656e207472616e736665722077686044820152691a5b19481c185d5cd95960b21b606482015260840161039d565b60055460ff166103025760405162461bcd60e51b815260206004820152601460248201527314185d5cd8589b194e881b9bdd081c185d5cd95960621b604482015260640161039d565b60055460ff16156103025760405162461bcd60e51b815260206004820152601060248201526f14185d5cd8589b194e881c185d5cd95960821b604482015260640161039d565b600060208083528351808285015260005b81811015610b2857858101830151858201604001528201610b0c565b81811115610b3a576000604083870101525b50601f01601f1916929092016040019392505050565b80356001600160a01b0381168114610b6757600080fd5b919050565b60008060408385031215610b7f57600080fd5b610b8883610b50565b946020939093013593505050565b600080600060608486031215610bab57600080fd5b610bb484610b50565b9250610bc260208501610b50565b9150604084013590509250925092565b600060208284031215610be457600080fd5b610bed82610b50565b9392505050565b60008060408385031215610c0757600080fd5b610c1083610b50565b9150610c1e60208401610b50565b90509250929050565b600181811c90821680610c3b57607f821691505b602082108103610c5b57634e487b7160e01b600052602260045260246000fd5b50919050565b634e487b7160e01b600052601160045260246000fd5b60008219821115610c8a57610c8a610c61565b500190565b600082821015610ca157610ca1610c61565b50039056feddf252ad1be2c89b69c2b068fc378daa952ba7f163c4a11628f55a4df523b3efa26469706673582212207ac89f9a9110e3ac7e17986a9c7a799feb7714b747f462f07edff66b177dcfec64736f6c634300080e0033",
  "immutableReferences": {},
  "source": "// SPDX-License-Identifier: MIT\r\n\r\npragma solidity ^0.8.0;\r\n\r\nimport \"../token/ERC20/extensions/ERC20Pausable.sol\";\r\n\r\n// mock class using ERC20Pausable\r\ncontract ERC20PausableMock is ERC20Pausable {\r\n    constructor(\r\n        string memory name,\r\n        string memory symbol,\r\n        address initialAccount,\r\n        uint256 initialBalance\r\n    ) ERC20(name, symbol) {\r\n        _mint(initialAccount, initialBalance);\r\n    }\r\n\r\n    function pause() external {\r\n        _pause();\r\n    }\r\n\r\n    function unpause() external {\r\n        _unpause();\r\n    }\r\n\r\n    function mint(address to, uint256 amount) public {\r\n        _mint(to, amount);\r\n    }\r\n\r\n    function burn(address from, uint256 amount) public {\r\n        _burn(from, amount);\r\n    }\r\n}\r\n",
  "sourcePath": "D:\\work\\www\\yopu_dapp_nft\\contracts\\lib\\openzeppelin\\contracts\\mocks\\ERC20PausableMock.sol",
  "compiler": {
    "name": "solc",
    "version": "0.8.14+commit.80d49f37.Emscripten.clang"
  },
  "schemaVersion": "3.4.7",
  "updatedAt": "2022-06-28T15:05:47.453Z",
  "devdoc": {
    "kind": "dev",
    "methods": {
      "allowance(address,address)": {
        "details": "See {IERC20-allowance}."
      },
      "approve(address,uint256)": {
        "details": "See {IERC20-approve}. NOTE: If `amount` is the maximum `uint256`, the allowance is not updated on `transferFrom`. This is semantically equivalent to an infinite approval. Requirements: - `spender` cannot be the zero address."
      },
      "balanceOf(address)": {
        "details": "See {IERC20-balanceOf}."
      },
      "decimals()": {
        "details": "Returns the number of decimals used to get its user representation. For example, if `decimals` equals `2`, a balance of `505` tokens should be displayed to a user as `5.05` (`505 / 10 ** 2`). Tokens usually opt for a value of 18, imitating the relationship between Ether and Wei. This is the value {ERC20} uses, unless this function is overridden; NOTE: This information is only used for _display_ purposes: it in no way affects any of the arithmetic of the contract, including {IERC20-balanceOf} and {IERC20-transfer}."
      },
      "decreaseAllowance(address,uint256)": {
        "details": "Atomically decreases the allowance granted to `spender` by the caller. This is an alternative to {approve} that can be used as a mitigation for problems described in {IERC20-approve}. Emits an {Approval} event indicating the updated allowance. Requirements: - `spender` cannot be the zero address. - `spender` must have allowance for the caller of at least `subtractedValue`."
      },
      "increaseAllowance(address,uint256)": {
        "details": "Atomically increases the allowance granted to `spender` by the caller. This is an alternative to {approve} that can be used as a mitigation for problems described in {IERC20-approve}. Emits an {Approval} event indicating the updated allowance. Requirements: - `spender` cannot be the zero address."
      },
      "name()": {
        "details": "Returns the name of the token."
      },
      "paused()": {
        "details": "Returns true if the contract is paused, and false otherwise."
      },
      "symbol()": {
        "details": "Returns the symbol of the token, usually a shorter version of the name."
      },
      "totalSupply()": {
        "details": "See {IERC20-totalSupply}."
      },
      "transfer(address,uint256)": {
        "details": "See {IERC20-transfer}. Requirements: - `to` cannot be the zero address. - the caller must have a balance of at least `amount`."
      },
      "transferFrom(address,address,uint256)": {
        "details": "See {IERC20-transferFrom}. Emits an {Approval} event indicating the updated allowance. This is not required by the EIP. See the note at the beginning of {ERC20}. NOTE: Does not update the allowance if the current allowance is the maximum `uint256`. Requirements: - `from` and `to` cannot be the zero address. - `from` must have a balance of at least `amount`. - the caller must have allowance for ``from``'s tokens of at least `amount`."
      }
    },
    "version": 1
  },
  "userdoc": {
    "kind": "user",
    "methods": {},
    "version": 1
  }
}