{
  "contractName": "ERC20VotesCompMock",
  "abi": [
    {
      "inputs": [
        {
          "internalType": "string",
          "name": "name",
          "type": "string"
        },
        {
          "internalType": "string",
          "name": "symbol",
          "type": "string"
        }
      ],
      "stateMutability": "nonpayable",
      "type": "constructor"
    },
    {
      "anonymous": false,
      "inputs": [
        {
          "indexed": true,
          "internalType": "address",
          "name": "owner",
          "type": "address"
        },
        {
          "indexed": true,
          "internalType": "address",
          "name": "spender",
          "type": "address"
        },
        {
          "indexed": false,
          "internalType": "uint256",
          "name": "value",
          "type": "uint256"
        }
      ],
      "name": "Approval",
      "type": "event"
    },
    {
      "anonymous": false,
      "inputs": [
        {
          "indexed": true,
          "internalType": "address",
          "name": "delegator",
          "type": "address"
        },
        {
          "indexed": true,
          "internalType": "address",
          "name": "fromDelegate",
          "type": "address"
        },
        {
          "indexed": true,
          "internalType": "address",
          "name": "toDelegate",
          "type": "address"
        }
      ],
      "name": "DelegateChanged",
      "type": "event"
    },
    {
      "anonymous": false,
      "inputs": [
        {
          "indexed": true,
          "internalType": "address",
          "name": "delegate",
          "type": "address"
        },
        {
          "indexed": false,
          "internalType": "uint256",
          "name": "previousBalance",
          "type": "uint256"
        },
        {
          "indexed": false,
          "internalType": "uint256",
          "name": "newBalance",
          "type": "uint256"
        }
      ],
      "name": "DelegateVotesChanged",
      "type": "event"
    },
    {
      "anonymous": false,
      "inputs": [
        {
          "indexed": true,
          "internalType": "address",
          "name": "from",
          "type": "address"
        },
        {
          "indexed": true,
          "internalType": "address",
          "name": "to",
          "type": "address"
        },
        {
          "indexed": false,
          "internalType": "uint256",
          "name": "value",
          "type": "uint256"
        }
      ],
      "name": "Transfer",
      "type": "event"
    },
    {
      "inputs": [],
      "name": "DOMAIN_SEPARATOR",
      "outputs": [
        {
          "internalType": "bytes32",
          "name": "",
          "type": "bytes32"
        }
      ],
      "stateMutability": "view",
      "type": "function"
    },
    {
      "inputs": [
        {
          "internalType": "address",
          "name": "owner",
          "type": "address"
        },
        {
          "internalType": "address",
          "name": "spender",
          "type": "address"
        }
      ],
      "name": "allowance",
      "outputs": [
        {
          "internalType": "uint256",
          "name": "",
          "type": "uint256"
        }
      ],
      "stateMutability": "view",
      "type": "function"
    },
    {
      "inputs": [
        {
          "internalType": "address",
          "name": "spender",
          "type": "address"
        },
        {
          "internalType": "uint256",
          "name": "amount",
          "type": "uint256"
        }
      ],
      "name": "approve",
      "outputs": [
        {
          "internalType": "bool",
          "name": "",
          "type": "bool"
        }
      ],
      "stateMutability": "nonpayable",
      "type": "function"
    },
    {
      "inputs": [
        {
          "internalType": "address",
          "name": "account",
          "type": "address"
        }
      ],
      "name": "balanceOf",
      "outputs": [
        {
          "internalType": "uint256",
          "name": "",
          "type": "uint256"
        }
      ],
      "stateMutability": "view",
      "type": "function"
    },
    {
      "inputs": [
        {
          "internalType": "address",
          "name": "account",
          "type": "address"
        },
        {
          "internalType": "uint32",
          "name": "pos",
          "type": "uint32"
        }
      ],
      "name": "checkpoints",
      "outputs": [
        {
          "components": [
            {
              "internalType": "uint32",
              "name": "fromBlock",
              "type": "uint32"
            },
            {
              "internalType": "uint224",
              "name": "votes",
              "type": "uint224"
            }
          ],
          "internalType": "struct ERC20Votes.Checkpoint",
          "name": "",
          "type": "tuple"
        }
      ],
      "stateMutability": "view",
      "type": "function"
    },
    {
      "inputs": [],
      "name": "decimals",
      "outputs": [
        {
          "internalType": "uint8",
          "name": "",
          "type": "uint8"
        }
      ],
      "stateMutability": "view",
      "type": "function"
    },
    {
      "inputs": [
        {
          "internalType": "address",
          "name": "spender",
          "type": "address"
        },
        {
          "internalType": "uint256",
          "name": "subtractedValue",
          "type": "uint256"
        }
      ],
      "name": "decreaseAllowance",
      "outputs": [
        {
          "internalType": "bool",
          "name": "",
          "type": "bool"
        }
      ],
      "stateMutability": "nonpayable",
      "type": "function"
    },
    {
      "inputs": [
        {
          "internalType": "address",
          "name": "delegatee",
          "type": "address"
        }
      ],
      "name": "delegate",
      "outputs": [],
      "stateMutability": "nonpayable",
      "type": "function"
    },
    {
      "inputs": [
        {
          "internalType": "address",
          "name": "delegatee",
          "type": "address"
        },
        {
          "internalType": "uint256",
          "name": "nonce",
          "type": "uint256"
        },
        {
          "internalType": "uint256",
          "name": "expiry",
          "type": "uint256"
        },
        {
          "internalType": "uint8",
          "name": "v",
          "type": "uint8"
        },
        {
          "internalType": "bytes32",
          "name": "r",
          "type": "bytes32"
        },
        {
          "internalType": "bytes32",
          "name": "s",
          "type": "bytes32"
        }
      ],
      "name": "delegateBySig",
      "outputs": [],
      "stateMutability": "nonpayable",
      "type": "function"
    },
    {
      "inputs": [
        {
          "internalType": "address",
          "name": "account",
          "type": "address"
        }
      ],
      "name": "delegates",
      "outputs": [
        {
          "internalType": "address",
          "name": "",
          "type": "address"
        }
      ],
      "stateMutability": "view",
      "type": "function"
    },
    {
      "inputs": [
        {
          "internalType": "address",
          "name": "account",
          "type": "address"
        }
      ],
      "name": "getCurrentVotes",
      "outputs": [
        {
          "internalType": "uint96",
          "name": "",
          "type": "uint96"
        }
      ],
      "stateMutability": "view",
      "type": "function"
    },
    {
      "inputs": [
        {
          "internalType": "uint256",
          "name": "blockNumber",
          "type": "uint256"
        }
      ],
      "name": "getPastTotalSupply",
      "outputs": [
        {
          "internalType": "uint256",
          "name": "",
          "type": "uint256"
        }
      ],
      "stateMutability": "view",
      "type": "function"
    },
    {
      "inputs": [
        {
          "internalType": "address",
          "name": "account",
          "type": "address"
        },
        {
          "internalType": "uint256",
          "name": "blockNumber",
          "type": "uint256"
        }
      ],
      "name": "getPastVotes",
      "outputs": [
        {
          "internalType": "uint256",
          "name": "",
          "type": "uint256"
        }
      ],
      "stateMutability": "view",
      "type": "function"
    },
    {
      "inputs": [
        {
          "internalType": "address",
          "name": "account",
          "type": "address"
        },
        {
          "internalType": "uint256",
          "name": "blockNumber",
          "type": "uint256"
        }
      ],
      "name": "getPriorVotes",
      "outputs": [
        {
          "internalType": "uint96",
          "name": "",
          "type": "uint96"
        }
      ],
      "stateMutability": "view",
      "type": "function"
    },
    {
      "inputs": [
        {
          "internalType": "address",
          "name": "account",
          "type": "address"
        }
      ],
      "name": "getVotes",
      "outputs": [
        {
          "internalType": "uint256",
          "name": "",
          "type": "uint256"
        }
      ],
      "stateMutability": "view",
      "type": "function"
    },
    {
      "inputs": [
        {
          "internalType": "address",
          "name": "spender",
          "type": "address"
        },
        {
          "internalType": "uint256",
          "name": "addedValue",
          "type": "uint256"
        }
      ],
      "name": "increaseAllowance",
      "outputs": [
        {
          "internalType": "bool",
          "name": "",
          "type": "bool"
        }
      ],
      "stateMutability": "nonpayable",
      "type": "function"
    },
    {
      "inputs": [],
      "name": "name",
      "outputs": [
        {
          "internalType": "string",
          "name": "",
          "type": "string"
        }
      ],
      "stateMutability": "view",
      "type": "function"
    },
    {
      "inputs": [
        {
          "internalType": "address",
          "name": "owner",
          "type": "address"
        }
      ],
      "name": "nonces",
      "outputs": [
        {
          "internalType": "uint256",
          "name": "",
          "type": "uint256"
        }
      ],
      "stateMutability": "view",
      "type": "function"
    },
    {
      "inputs": [
        {
          "internalType": "address",
          "name": "account",
          "type": "address"
        }
      ],
      "name": "numCheckpoints",
      "outputs": [
        {
          "internalType": "uint32",
          "name": "",
          "type": "uint32"
        }
      ],
      "stateMutability": "view",
      "type": "function"
    },
    {
      "inputs": [
        {
          "internalType": "address",
          "name": "owner",
          "type": "address"
        },
        {
          "internalType": "address",
          "name": "spender",
          "type": "address"
        },
        {
          "internalType": "uint256",
          "name": "value",
          "type": "uint256"
        },
        {
          "internalType": "uint256",
          "name": "deadline",
          "type": "uint256"
        },
        {
          "internalType": "uint8",
          "name": "v",
          "type": "uint8"
        },
        {
          "internalType": "bytes32",
          "name": "r",
          "type": "bytes32"
        },
        {
          "internalType": "bytes32",
          "name": "s",
          "type": "bytes32"
        }
      ],
      "name": "permit",
      "outputs": [],
      "stateMutability": "nonpayable",
      "type": "function"
    },
    {
      "inputs": [],
      "name": "symbol",
      "outputs": [
        {
          "internalType": "string",
          "name": "",
          "type": "string"
        }
      ],
      "stateMutability": "view",
      "type": "function"
    },
    {
      "inputs": [],
      "name": "totalSupply",
      "outputs": [
        {
          "internalType": "uint256",
          "name": "",
          "type": "uint256"
        }
      ],
      "stateMutability": "view",
      "type": "function"
    },
    {
      "inputs": [
        {
          "internalType": "address",
          "name": "to",
          "type": "address"
        },
        {
          "internalType": "uint256",
          "name": "amount",
          "type": "uint256"
        }
      ],
      "name": "transfer",
      "outputs": [
        {
          "internalType": "bool",
          "name": "",
          "type": "bool"
        }
      ],
      "stateMutability": "nonpayable",
      "type": "function"
    },
    {
      "inputs": [
        {
          "internalType": "address",
          "name": "from",
          "type": "address"
        },
        {
          "internalType": "address",
          "name": "to",
          "type": "address"
        },
        {
          "internalType": "uint256",
          "name": "amount",
          "type": "uint256"
        }
      ],
      "name": "transferFrom",
      "outputs": [
        {
          "internalType": "bool",
          "name": "",
          "type": "bool"
        }
      ],
      "stateMutability": "nonpayable",
      "type": "function"
    },
    {
      "inputs": [
        {
          "internalType": "address",
          "name": "account",
          "type": "address"
        },
        {
          "internalType": "uint256",
          "name": "amount",
          "type": "uint256"
        }
      ],
      "name": "mint",
      "outputs": [],
      "stateMutability": "nonpayable",
      "type": "function"
    },
    {
      "inputs": [
        {
          "internalType": "address",
          "name": "account",
          "type": "address"
        },
        {
          "internalType": "uint256",
          "name": "amount",
          "type": "uint256"
        }
      ],
      "name": "burn",
      "outputs": [],
      "stateMutability": "nonpayable",
      "type": "function"
    },
    {
      "inputs": [],
      "name": "getChainId",
      "outputs": [
        {
          "internalType": "uint256",
          "name": "",
          "type": "uint256"
        }
      ],
      "stateMutability": "view",
      "type": "function"
    }
  ],
  "bytecode": "0x6101406040523480156200001257600080fd5b506040516200217238038062002172833981016040819052620000359162000292565b8180604051806040016040528060018152602001603160f81b815250848481600390805190602001906200006b9291906200011f565b508051620000819060049060208401906200011f565b5050825160208085019190912083518483012060e08290526101008190524660a0818152604080517f8b73c3c69bb8fe3d512ecc4cf759cc79239f7b179b0ffacaa9a75d522b39400f81880181905281830187905260608201869052608082019490945230818401528151808203909301835260c0019052805194019390932091935091906080523060c05261012052506200033895505050505050565b8280546200012d90620002fc565b90600052602060002090601f0160209004810192826200015157600085556200019c565b82601f106200016c57805160ff19168380011785556200019c565b828001600101855582156200019c579182015b828111156200019c5782518255916020019190600101906200017f565b50620001aa929150620001ae565b5090565b5b80821115620001aa5760008155600101620001af565b634e487b7160e01b600052604160045260246000fd5b600082601f830112620001ed57600080fd5b81516001600160401b03808211156200020a576200020a620001c5565b604051601f8301601f19908116603f01168101908282118183101715620002355762000235620001c5565b816040528381526020925086838588010111156200025257600080fd5b600091505b8382101562000276578582018301518183018401529082019062000257565b83821115620002885760008385830101525b9695505050505050565b60008060408385031215620002a657600080fd5b82516001600160401b0380821115620002be57600080fd5b620002cc86838701620001db565b93506020850151915080821115620002e357600080fd5b50620002f285828601620001db565b9150509250929050565b600181811c908216806200031157607f821691505b6020821081036200033257634e487b7160e01b600052602260045260246000fd5b50919050565b60805160a05160c05160e0516101005161012051611dea620003886000396000610e4301526000610e9201526000610e6d01526000610dc601526000610df001526000610e1a0152611dea6000f3fe608060405234801561001057600080fd5b50600436106101495760003560e01c806306fdde031461014e578063095ea7b31461016c57806318160ddd1461018f57806323b872dd146101a1578063313ce567146101b45780633408e470146101c35780633644e515146101c957806339509351146101d15780633a46b1a8146101e457806340c10f19146101f7578063587cde1e1461020c5780635c19a95c146102375780636fcfff451461024a57806370a0823114610272578063782d6fe1146102855780637ecebe00146102b05780638e539e8c146102c357806395d89b41146102d65780639ab24eb0146102de5780639dc29fac146102f1578063a457c2d714610304578063a9059cbb14610317578063b4b5ea571461032a578063c3cda5201461033d578063d505accf14610350578063dd62ed3e14610363578063f1127ed814610376575b600080fd5b6101566103b3565b6040516101639190611a25565b60405180910390f35b61017f61017a366004611a96565b610445565b6040519015158152602001610163565b6002545b604051908152602001610163565b61017f6101af366004611ac0565b61045d565b60405160128152602001610163565b46610193565b610193610481565b61017f6101df366004611a96565b610490565b6101936101f2366004611a96565b6104b2565b61020a610205366004611a96565b610505565b005b61021f61021a366004611afc565b610513565b6040516001600160a01b039091168152602001610163565b61020a610245366004611afc565b610531565b61025d610258366004611afc565b61053e565b60405163ffffffff9091168152602001610163565b610193610280366004611afc565b610566565b610298610293366004611a96565b610581565b6040516001600160601b039091168152602001610163565b6101936102be366004611afc565b610595565b6101936102d1366004611b17565b6105b3565b6101566105df565b6101936102ec366004611afc565b6105ee565b61020a6102ff366004611a96565b610674565b61017f610312366004611a96565b61067e565b61017f610325366004611a96565b6106f9565b610298610338366004611afc565b610707565b61020a61034b366004611b41565b610715565b61020a61035e366004611b99565b610847565b610193610371366004611c03565b6109ab565b610389610384366004611c36565b6109d6565b60408051825163ffffffff1681526020928301516001600160e01b03169281019290925201610163565b6060600380546103c290611c76565b80601f01602080910402602001604051908101604052809291908181526020018280546103ee90611c76565b801561043b5780601f106104105761010080835404028352916020019161043b565b820191906000526020600020905b81548152906001019060200180831161041e57829003601f168201915b5050505050905090565b600033610453818585610a59565b5060019392505050565b60003361046b858285610b7d565b610476858585610bf7565b506001949350505050565b600061048b610db9565b905090565b6000336104538185856104a383836109ab565b6104ad9190611cc0565b610a59565b60004382106104dc5760405162461bcd60e51b81526004016104d390611cd8565b60405180910390fd5b6001600160a01b03831660009081526008602052604090206104fe9083610ee0565b9392505050565b61050f8282610f9c565b5050565b6001600160a01b039081166000908152600760205260409020541690565b61053b3382611026565b50565b6001600160a01b038116600090815260086020526040812054610560906110a6565b92915050565b6001600160a01b031660009081526020819052604090205490565b60006104fe61059084846104b2565b61110f565b6001600160a01b038116600090815260056020526040812054610560565b60004382106105d45760405162461bcd60e51b81526004016104d390611cd8565b610560600983610ee0565b6060600480546103c290611c76565b6001600160a01b0381166000908152600860205260408120548015610661576001600160a01b0383166000908152600860205260409020610630600183611d0f565b8154811061064057610640611d26565b600091825260209091200154600160201b90046001600160e01b0316610664565b60005b6001600160e01b03169392505050565b61050f8282611177565b6000338161068c82866109ab565b9050838110156106ec5760405162461bcd60e51b815260206004820152602560248201527f45524332303a2064656372656173656420616c6c6f77616e63652062656c6f77604482015264207a65726f60d81b60648201526084016104d3565b6104768286868403610a59565b600033610453818585610bf7565b6000610560610590836105ee565b834211156107655760405162461bcd60e51b815260206004820152601d60248201527f4552433230566f7465733a207369676e6174757265206578706972656400000060448201526064016104d3565b604080517fe48329057bfd03d55e49b547132e39cffd9c1820ad7b9d4c5307691425d15adf60208201526001600160a01b0388169181019190915260608101869052608081018590526000906107df906107d79060a0016040516020818303038152906040528051906020012061118f565b8585856111dd565b90506107ea81611205565b86146108345760405162461bcd60e51b81526020600482015260196024820152784552433230566f7465733a20696e76616c6964206e6f6e636560381b60448201526064016104d3565b61083e8188611026565b50505050505050565b834211156108975760405162461bcd60e51b815260206004820152601d60248201527f45524332305065726d69743a206578706972656420646561646c696e6500000060448201526064016104d3565b60007f6e71edae12b1b97f4d1f60370fef10105fa2faae0126114a169c64845d6126c98888886108c68c611205565b6040805160208101969096526001600160a01b0394851690860152929091166060840152608083015260a082015260c0810186905260e00160405160208183030381529060405280519060200120905060006109218261118f565b90506000610931828787876111dd565b9050896001600160a01b0316816001600160a01b0316146109945760405162461bcd60e51b815260206004820152601e60248201527f45524332305065726d69743a20696e76616c6964207369676e6174757265000060448201526064016104d3565b61099f8a8a8a610a59565b50505050505050505050565b6001600160a01b03918216600090815260016020908152604080832093909416825291909152205490565b60408051808201909152600080825260208201526001600160a01b0383166000908152600860205260409020805463ffffffff8416908110610a1a57610a1a611d26565b60009182526020918290206040805180820190915291015463ffffffff81168252600160201b90046001600160e01b0316918101919091529392505050565b6001600160a01b038316610abb5760405162461bcd60e51b8152602060048201526024808201527f45524332303a20617070726f76652066726f6d20746865207a65726f206164646044820152637265737360e01b60648201526084016104d3565b6001600160a01b038216610b1c5760405162461bcd60e51b815260206004820152602260248201527f45524332303a20617070726f766520746f20746865207a65726f206164647265604482015261737360f01b60648201526084016104d3565b6001600160a01b0383811660008181526001602090815260408083209487168084529482529182902085905590518481527f8c5be1e5ebec7d5bd14f71427d1e84f3dd0314c0f7b2291e5b200ac8c7c3b925910160405180910390a3505050565b6000610b8984846109ab565b90506000198114610bf15781811015610be45760405162461bcd60e51b815260206004820152601d60248201527f45524332303a20696e73756666696369656e7420616c6c6f77616e636500000060448201526064016104d3565b610bf18484848403610a59565b50505050565b6001600160a01b038316610c5b5760405162461bcd60e51b815260206004820152602560248201527f45524332303a207472616e736665722066726f6d20746865207a65726f206164604482015264647265737360d81b60648201526084016104d3565b6001600160a01b038216610cbd5760405162461bcd60e51b815260206004820152602360248201527f45524332303a207472616e7366657220746f20746865207a65726f206164647260448201526265737360e81b60648201526084016104d3565b6001600160a01b03831660009081526020819052604090205481811015610d355760405162461bcd60e51b815260206004820152602660248201527f45524332303a207472616e7366657220616d6f756e7420657863656564732062604482015265616c616e636560d01b60648201526084016104d3565b6001600160a01b03808516600090815260208190526040808220858503905591851681529081208054849290610d6c908490611cc0565b92505081905550826001600160a01b0316846001600160a01b0316600080516020611d7583398151915284604051610da691815260200190565b60405180910390a3610bf1848484611232565b6000306001600160a01b037f000000000000000000000000000000000000000000000000000000000000000016148015610e1257507f000000000000000000000000000000000000000000000000000000000000000046145b15610e3c57507f000000000000000000000000000000000000000000000000000000000000000090565b50604080517f00000000000000000000000000000000000000000000000000000000000000006020808301919091527f0000000000000000000000000000000000000000000000000000000000000000828401527f000000000000000000000000000000000000000000000000000000000000000060608301524660808301523060a0808401919091528351808403909101815260c0909201909252805191012090565b8154600090815b81811015610f44576000610efb828461124d565b905084868281548110610f1057610f10611d26565b60009182526020909120015463ffffffff161115610f3057809250610f3e565b610f3b816001611cc0565b91505b50610ee7565b8115610f875784610f56600184611d0f565b81548110610f6657610f66611d26565b600091825260209091200154600160201b90046001600160e01b0316610f8a565b60005b6001600160e01b031695945050505050565b610fa68282611268565b6002546001600160601b0310156110185760405162461bcd60e51b815260206004820152603060248201527f4552433230566f7465733a20746f74616c20737570706c79207269736b73206f60448201526f766572666c6f77696e6720766f74657360801b60648201526084016104d3565b610bf1600961133d83611349565b600061103183610513565b9050600061103e84610566565b6001600160a01b0385811660008181526007602052604080822080546001600160a01b031916898616908117909155905194955093928616927f3134e8a2e6d97e929a7e54011ea5485d7d196dd5f0ba4d4ef95803e8e3fc257f9190a4610bf18284836114c0565b600063ffffffff82111561110b5760405162461bcd60e51b815260206004820152602660248201527f53616665436173743a2076616c756520646f65736e27742066697420696e203360448201526532206269747360d01b60648201526084016104d3565b5090565b60006001600160601b0382111561110b5760405162461bcd60e51b815260206004820152602660248201527f53616665436173743a2076616c756520646f65736e27742066697420696e203960448201526536206269747360d01b60648201526084016104d3565b61118182826115d9565b610bf1600961171c83611349565b600061056061119c610db9565b8360405161190160f01b6020820152602281018390526042810182905260009060620160405160208183030381529060405280519060200120905092915050565b60008060006111ee87878787611728565b915091506111fb8161180b565b5095945050505050565b6001600160a01b03811660009081526005602052604090208054600181018255905b50919050565b505050565b61122d61123e84610513565b61124784610513565b836114c0565b600061125c6002848418611d3c565b6104fe90848416611cc0565b6001600160a01b0382166112be5760405162461bcd60e51b815260206004820152601f60248201527f45524332303a206d696e7420746f20746865207a65726f20616464726573730060448201526064016104d3565b80600260008282546112d09190611cc0565b90915550506001600160a01b038216600090815260208190526040812080548392906112fd908490611cc0565b90915550506040518181526001600160a01b03831690600090600080516020611d758339815191529060200160405180910390a361050f60008383611232565b60006104fe8284611cc0565b8254600090819080156113935785611362600183611d0f565b8154811061137257611372611d26565b600091825260209091200154600160201b90046001600160e01b0316611396565b60005b6001600160e01b031692506113af83858763ffffffff16565b91506000811180156113ed575043866113c9600184611d0f565b815481106113d9576113d9611d26565b60009182526020909120015463ffffffff16145b1561144d576113fb826119bc565b86611407600184611d0f565b8154811061141757611417611d26565b9060005260206000200160000160046101000a8154816001600160e01b0302191690836001600160e01b031602179055506114b7565b856040518060400160405280611462436110a6565b63ffffffff168152602001611476856119bc565b6001600160e01b039081169091528254600181018455600093845260209384902083519490930151909116600160201b0263ffffffff909316929092179101555b50935093915050565b816001600160a01b0316836001600160a01b0316141580156114e25750600081115b1561122d576001600160a01b0383161561155e576001600160a01b0383166000908152600860205260408120819061151d9061171c85611349565b91509150846001600160a01b0316600080516020611d958339815191528383604051611553929190918252602082015260400190565b60405180910390a250505b6001600160a01b0382161561122d576001600160a01b038216600090815260086020526040812081906115949061133d85611349565b91509150836001600160a01b0316600080516020611d9583398151915283836040516115ca929190918252602082015260400190565b60405180910390a25050505050565b6001600160a01b0382166116395760405162461bcd60e51b815260206004820152602160248201527f45524332303a206275726e2066726f6d20746865207a65726f206164647265736044820152607360f81b60648201526084016104d3565b6001600160a01b038216600090815260208190526040902054818110156116ad5760405162461bcd60e51b815260206004820152602260248201527f45524332303a206275726e20616d6f756e7420657863656564732062616c616e604482015261636560f01b60648201526084016104d3565b6001600160a01b03831660009081526020819052604081208383039055600280548492906116dc908490611d0f565b90915550506040518281526000906001600160a01b03851690600080516020611d758339815191529060200160405180910390a361122d83600084611232565b60006104fe8284611d0f565b6000806fa2a8918ca85bafe22016d0b997e4df60600160ff1b038311156117555750600090506003611802565b8460ff16601b1415801561176d57508460ff16601c14155b1561177e5750600090506004611802565b6040805160008082526020820180845289905260ff881692820192909252606081018690526080810185905260019060a0016020604051602081039080840390855afa1580156117d2573d6000803e3d6000fd5b5050604051601f1901519150506001600160a01b0381166117fb57600060019250925050611802565b9150600090505b94509492505050565b600081600481111561181f5761181f611d5e565b036118275750565b600181600481111561183b5761183b611d5e565b036118835760405162461bcd60e51b815260206004820152601860248201527745434453413a20696e76616c6964207369676e617475726560401b60448201526064016104d3565b600281600481111561189757611897611d5e565b036118e45760405162461bcd60e51b815260206004820152601f60248201527f45434453413a20696e76616c6964207369676e6174757265206c656e6774680060448201526064016104d3565b60038160048111156118f8576118f8611d5e565b036119505760405162461bcd60e51b815260206004820152602260248201527f45434453413a20696e76616c6964207369676e6174757265202773272076616c604482015261756560f01b60648201526084016104d3565b600481600481111561196457611964611d5e565b0361053b5760405162461bcd60e51b815260206004820152602260248201527f45434453413a20696e76616c6964207369676e6174757265202776272076616c604482015261756560f01b60648201526084016104d3565b60006001600160e01b0382111561110b5760405162461bcd60e51b815260206004820152602760248201527f53616665436173743a2076616c756520646f65736e27742066697420696e20326044820152663234206269747360c81b60648201526084016104d3565b600060208083528351808285015260005b81811015611a5257858101830151858201604001528201611a36565b81811115611a64576000604083870101525b50601f01601f1916929092016040019392505050565b80356001600160a01b0381168114611a9157600080fd5b919050565b60008060408385031215611aa957600080fd5b611ab283611a7a565b946020939093013593505050565b600080600060608486031215611ad557600080fd5b611ade84611a7a565b9250611aec60208501611a7a565b9150604084013590509250925092565b600060208284031215611b0e57600080fd5b6104fe82611a7a565b600060208284031215611b2957600080fd5b5035919050565b803560ff81168114611a9157600080fd5b60008060008060008060c08789031215611b5a57600080fd5b611b6387611a7a565b95506020870135945060408701359350611b7f60608801611b30565b92506080870135915060a087013590509295509295509295565b600080600080600080600060e0888a031215611bb457600080fd5b611bbd88611a7a565b9650611bcb60208901611a7a565b95506040880135945060608801359350611be760808901611b30565b925060a0880135915060c0880135905092959891949750929550565b60008060408385031215611c1657600080fd5b611c1f83611a7a565b9150611c2d60208401611a7a565b90509250929050565b60008060408385031215611c4957600080fd5b611c5283611a7a565b9150602083013563ffffffff81168114611c6b57600080fd5b809150509250929050565b600181811c90821680611c8a57607f821691505b60208210810361122757634e487b7160e01b600052602260045260246000fd5b634e487b7160e01b600052601160045260246000fd5b60008219821115611cd357611cd3611caa565b500190565b6020808252601f908201527f4552433230566f7465733a20626c6f636b206e6f7420796574206d696e656400604082015260600190565b600082821015611d2157611d21611caa565b500390565b634e487b7160e01b600052603260045260246000fd5b600082611d5957634e487b7160e01b600052601260045260246000fd5b500490565b634e487b7160e01b600052602160045260246000fdfeddf252ad1be2c89b69c2b068fc378daa952ba7f163c4a11628f55a4df523b3efdec2bacdd2f05b59de34da9b523dff8be42e5e38e818c82fdb0bae774387a724a2646970667358221220ff1a0ad8b2c268566b82695ebf32fae8c32f686fecbcd2d2866ff687865c52cc64736f6c634300080e0033",
  "immutableReferences": {
    "33049": [
      {
        "length": 32,
        "start": 3610
      }
    ],
    "33051": [
      {
        "length": 32,
        "start": 3568
      }
    ],
    "33053": [
      {
        "length": 32,
        "start": 3526
      }
    ],
    "33055": [
      {
        "length": 32,
        "start": 3693
      }
    ],
    "33057": [
      {
        "length": 32,
        "start": 3730
      }
    ],
    "33059": [
      {
        "length": 32,
        "start": 3651
      }
    ]
  },
  "source": "// SPDX-License-Identifier: MIT\r\n\r\npragma solidity ^0.8.0;\r\n\r\nimport \"../token/ERC20/extensions/ERC20VotesComp.sol\";\r\n\r\ncontract ERC20VotesCompMock is ERC20VotesComp {\r\n    constructor(string memory name, string memory symbol) ERC20(name, symbol) ERC20Permit(name) {}\r\n\r\n    function mint(address account, uint256 amount) public {\r\n        _mint(account, amount);\r\n    }\r\n\r\n    function burn(address account, uint256 amount) public {\r\n        _burn(account, amount);\r\n    }\r\n\r\n    function getChainId() external view returns (uint256) {\r\n        return block.chainid;\r\n    }\r\n}\r\n",
  "sourcePath": "D:\\work\\www\\yopu_dapp_nft\\contracts\\lib\\openzeppelin\\contracts\\mocks\\ERC20VotesCompMock.sol",
  "compiler": {
    "name": "solc",
    "version": "0.8.14+commit.80d49f37.Emscripten.clang"
  },
  "schemaVersion": "3.4.7",
  "updatedAt": "2022-06-28T15:05:47.485Z",
  "devdoc": {
    "kind": "dev",
    "methods": {
      "DOMAIN_SEPARATOR()": {
        "details": "See {IERC20Permit-DOMAIN_SEPARATOR}."
      },
      "allowance(address,address)": {
        "details": "See {IERC20-allowance}."
      },
      "approve(address,uint256)": {
        "details": "See {IERC20-approve}. NOTE: If `amount` is the maximum `uint256`, the allowance is not updated on `transferFrom`. This is semantically equivalent to an infinite approval. Requirements: - `spender` cannot be the zero address."
      },
      "balanceOf(address)": {
        "details": "See {IERC20-balanceOf}."
      },
      "checkpoints(address,uint32)": {
        "details": "Get the `pos`-th checkpoint for `account`."
      },
      "decimals()": {
        "details": "Returns the number of decimals used to get its user representation. For example, if `decimals` equals `2`, a balance of `505` tokens should be displayed to a user as `5.05` (`505 / 10 ** 2`). Tokens usually opt for a value of 18, imitating the relationship between Ether and Wei. This is the value {ERC20} uses, unless this function is overridden; NOTE: This information is only used for _display_ purposes: it in no way affects any of the arithmetic of the contract, including {IERC20-balanceOf} and {IERC20-transfer}."
      },
      "decreaseAllowance(address,uint256)": {
        "details": "Atomically decreases the allowance granted to `spender` by the caller. This is an alternative to {approve} that can be used as a mitigation for problems described in {IERC20-approve}. Emits an {Approval} event indicating the updated allowance. Requirements: - `spender` cannot be the zero address. - `spender` must have allowance for the caller of at least `subtractedValue`."
      },
      "delegate(address)": {
        "details": "Delegate votes from the sender to `delegatee`."
      },
      "delegateBySig(address,uint256,uint256,uint8,bytes32,bytes32)": {
        "details": "Delegates votes from signer to `delegatee`"
      },
      "delegates(address)": {
        "details": "Get the address `account` is currently delegating to."
      },
      "getCurrentVotes(address)": {
        "details": "Comp version of the {getVotes} accessor, with `uint96` return type."
      },
      "getPastTotalSupply(uint256)": {
        "details": "Retrieve the `totalSupply` at the end of `blockNumber`. Note, this value is the sum of all balances. It is but NOT the sum of all the delegated votes! Requirements: - `blockNumber` must have been already mined"
      },
      "getPastVotes(address,uint256)": {
        "details": "Retrieve the number of votes for `account` at the end of `blockNumber`. Requirements: - `blockNumber` must have been already mined"
      },
      "getPriorVotes(address,uint256)": {
        "details": "Comp version of the {getPastVotes} accessor, with `uint96` return type."
      },
      "getVotes(address)": {
        "details": "Gets the current votes balance for `account`"
      },
      "increaseAllowance(address,uint256)": {
        "details": "Atomically increases the allowance granted to `spender` by the caller. This is an alternative to {approve} that can be used as a mitigation for problems described in {IERC20-approve}. Emits an {Approval} event indicating the updated allowance. Requirements: - `spender` cannot be the zero address."
      },
      "name()": {
        "details": "Returns the name of the token."
      },
      "nonces(address)": {
        "details": "See {IERC20Permit-nonces}."
      },
      "numCheckpoints(address)": {
        "details": "Get number of checkpoints for `account`."
      },
      "permit(address,address,uint256,uint256,uint8,bytes32,bytes32)": {
        "details": "See {IERC20Permit-permit}."
      },
      "symbol()": {
        "details": "Returns the symbol of the token, usually a shorter version of the name."
      },
      "totalSupply()": {
        "details": "See {IERC20-totalSupply}."
      },
      "transfer(address,uint256)": {
        "details": "See {IERC20-transfer}. Requirements: - `to` cannot be the zero address. - the caller must have a balance of at least `amount`."
      },
      "transferFrom(address,address,uint256)": {
        "details": "See {IERC20-transferFrom}. Emits an {Approval} event indicating the updated allowance. This is not required by the EIP. See the note at the beginning of {ERC20}. NOTE: Does not update the allowance if the current allowance is the maximum `uint256`. Requirements: - `from` and `to` cannot be the zero address. - `from` must have a balance of at least `amount`. - the caller must have allowance for ``from``'s tokens of at least `amount`."
      }
    },
    "version": 1
  },
  "userdoc": {
    "kind": "user",
    "methods": {},
    "version": 1
  }
}