{
  "contractName": "ERC20WrapperMock",
  "abi": [
    {
      "inputs": [
        {
          "internalType": "contract IERC20",
          "name": "_underlyingToken",
          "type": "address"
        },
        {
          "internalType": "string",
          "name": "name",
          "type": "string"
        },
        {
          "internalType": "string",
          "name": "symbol",
          "type": "string"
        }
      ],
      "stateMutability": "nonpayable",
      "type": "constructor"
    },
    {
      "anonymous": false,
      "inputs": [
        {
          "indexed": true,
          "internalType": "address",
          "name": "owner",
          "type": "address"
        },
        {
          "indexed": true,
          "internalType": "address",
          "name": "spender",
          "type": "address"
        },
        {
          "indexed": false,
          "internalType": "uint256",
          "name": "value",
          "type": "uint256"
        }
      ],
      "name": "Approval",
      "type": "event"
    },
    {
      "anonymous": false,
      "inputs": [
        {
          "indexed": true,
          "internalType": "address",
          "name": "from",
          "type": "address"
        },
        {
          "indexed": true,
          "internalType": "address",
          "name": "to",
          "type": "address"
        },
        {
          "indexed": false,
          "internalType": "uint256",
          "name": "value",
          "type": "uint256"
        }
      ],
      "name": "Transfer",
      "type": "event"
    },
    {
      "inputs": [
        {
          "internalType": "address",
          "name": "owner",
          "type": "address"
        },
        {
          "internalType": "address",
          "name": "spender",
          "type": "address"
        }
      ],
      "name": "allowance",
      "outputs": [
        {
          "internalType": "uint256",
          "name": "",
          "type": "uint256"
        }
      ],
      "stateMutability": "view",
      "type": "function"
    },
    {
      "inputs": [
        {
          "internalType": "address",
          "name": "spender",
          "type": "address"
        },
        {
          "internalType": "uint256",
          "name": "amount",
          "type": "uint256"
        }
      ],
      "name": "approve",
      "outputs": [
        {
          "internalType": "bool",
          "name": "",
          "type": "bool"
        }
      ],
      "stateMutability": "nonpayable",
      "type": "function"
    },
    {
      "inputs": [
        {
          "internalType": "address",
          "name": "account",
          "type": "address"
        }
      ],
      "name": "balanceOf",
      "outputs": [
        {
          "internalType": "uint256",
          "name": "",
          "type": "uint256"
        }
      ],
      "stateMutability": "view",
      "type": "function"
    },
    {
      "inputs": [],
      "name": "decimals",
      "outputs": [
        {
          "internalType": "uint8",
          "name": "",
          "type": "uint8"
        }
      ],
      "stateMutability": "view",
      "type": "function"
    },
    {
      "inputs": [
        {
          "internalType": "address",
          "name": "spender",
          "type": "address"
        },
        {
          "internalType": "uint256",
          "name": "subtractedValue",
          "type": "uint256"
        }
      ],
      "name": "decreaseAllowance",
      "outputs": [
        {
          "internalType": "bool",
          "name": "",
          "type": "bool"
        }
      ],
      "stateMutability": "nonpayable",
      "type": "function"
    },
    {
      "inputs": [
        {
          "internalType": "address",
          "name": "account",
          "type": "address"
        },
        {
          "internalType": "uint256",
          "name": "amount",
          "type": "uint256"
        }
      ],
      "name": "depositFor",
      "outputs": [
        {
          "internalType": "bool",
          "name": "",
          "type": "bool"
        }
      ],
      "stateMutability": "nonpayable",
      "type": "function"
    },
    {
      "inputs": [
        {
          "internalType": "address",
          "name": "spender",
          "type": "address"
        },
        {
          "internalType": "uint256",
          "name": "addedValue",
          "type": "uint256"
        }
      ],
      "name": "increaseAllowance",
      "outputs": [
        {
          "internalType": "bool",
          "name": "",
          "type": "bool"
        }
      ],
      "stateMutability": "nonpayable",
      "type": "function"
    },
    {
      "inputs": [],
      "name": "name",
      "outputs": [
        {
          "internalType": "string",
          "name": "",
          "type": "string"
        }
      ],
      "stateMutability": "view",
      "type": "function"
    },
    {
      "inputs": [],
      "name": "symbol",
      "outputs": [
        {
          "internalType": "string",
          "name": "",
          "type": "string"
        }
      ],
      "stateMutability": "view",
      "type": "function"
    },
    {
      "inputs": [],
      "name": "totalSupply",
      "outputs": [
        {
          "internalType": "uint256",
          "name": "",
          "type": "uint256"
        }
      ],
      "stateMutability": "view",
      "type": "function"
    },
    {
      "inputs": [
        {
          "internalType": "address",
          "name": "to",
          "type": "address"
        },
        {
          "internalType": "uint256",
          "name": "amount",
          "type": "uint256"
        }
      ],
      "name": "transfer",
      "outputs": [
        {
          "internalType": "bool",
          "name": "",
          "type": "bool"
        }
      ],
      "stateMutability": "nonpayable",
      "type": "function"
    },
    {
      "inputs": [
        {
          "internalType": "address",
          "name": "from",
          "type": "address"
        },
        {
          "internalType": "address",
          "name": "to",
          "type": "address"
        },
        {
          "internalType": "uint256",
          "name": "amount",
          "type": "uint256"
        }
      ],
      "name": "transferFrom",
      "outputs": [
        {
          "internalType": "bool",
          "name": "",
          "type": "bool"
        }
      ],
      "stateMutability": "nonpayable",
      "type": "function"
    },
    {
      "inputs": [],
      "name": "underlying",
      "outputs": [
        {
          "internalType": "contract IERC20",
          "name": "",
          "type": "address"
        }
      ],
      "stateMutability": "view",
      "type": "function"
    },
    {
      "inputs": [
        {
          "internalType": "address",
          "name": "account",
          "type": "address"
        },
        {
          "internalType": "uint256",
          "name": "amount",
          "type": "uint256"
        }
      ],
      "name": "withdrawTo",
      "outputs": [
        {
          "internalType": "bool",
          "name": "",
          "type": "bool"
        }
      ],
      "stateMutability": "nonpayable",
      "type": "function"
    },
    {
      "inputs": [
        {
          "internalType": "address",
          "name": "account",
          "type": "address"
        }
      ],
      "name": "recover",
      "outputs": [
        {
          "internalType": "uint256",
          "name": "",
          "type": "uint256"
        }
      ],
      "stateMutability": "nonpayable",
      "type": "function"
    }
  ],
  "bytecode": "0x60a06040523480156200001157600080fd5b5060405162001394380380620013948339810160408190526200003491620001f1565b82828281600390805190602001906200004f9291906200007e565b508051620000659060049060208401906200007e565b5050506001600160a01b031660805250620002b7915050565b8280546200008c906200027b565b90600052602060002090601f016020900481019282620000b05760008555620000fb565b82601f10620000cb57805160ff1916838001178555620000fb565b82800160010185558215620000fb579182015b82811115620000fb578251825591602001919060010190620000de565b50620001099291506200010d565b5090565b5b808211156200010957600081556001016200010e565b634e487b7160e01b600052604160045260246000fd5b600082601f8301126200014c57600080fd5b81516001600160401b038082111562000169576200016962000124565b604051601f8301601f19908116603f0116810190828211818310171562000194576200019462000124565b81604052838152602092508683858801011115620001b157600080fd5b600091505b83821015620001d55785820183015181830184015290820190620001b6565b83821115620001e75760008385830101525b9695505050505050565b6000806000606084860312156200020757600080fd5b83516001600160a01b03811681146200021f57600080fd5b60208501519093506001600160401b03808211156200023d57600080fd5b6200024b878388016200013a565b935060408601519150808211156200026257600080fd5b5062000271868287016200013a565b9150509250925092565b600181811c908216806200029057607f821691505b602082108103620002b157634e487b7160e01b600052602260045260246000fd5b50919050565b6080516110a5620002ef6000396000818161019f015281816103040152818161035e01528181610393015261064c01526110a56000f3fe608060405234801561001057600080fd5b50600436106100c55760003560e01c806306fdde03146100ca578063095ea7b3146100e85780630cd865ec1461010b57806318160ddd1461012c578063205c28781461013457806323b872dd146101475780632f4f21e21461015a578063313ce5671461016d57806339509351146101875780636f307dc31461019a57806370a08231146101ce57806395d89b41146101f7578063a457c2d7146101ff578063a9059cbb14610212578063dd62ed3e14610225575b600080fd5b6100d2610238565b6040516100df9190610e3d565b60405180910390f35b6100fb6100f6366004610e87565b6102ca565b60405190151581526020016100df565b61011e610119366004610eb1565b6102e2565b6040519081526020016100df565b60025461011e565b6100fb610142366004610e87565b6102f3565b6100fb610155366004610ed3565b610333565b6100fb610168366004610e87565b610357565b61017561038f565b60405160ff90911681526020016100df565b6100fb610195366004610e87565b61041a565b6101c17f000000000000000000000000000000000000000000000000000000000000000081565b6040516100df9190610f0f565b61011e6101dc366004610eb1565b6001600160a01b031660009081526020819052604090205490565b6100d261043c565b6100fb61020d366004610e87565b61044b565b6100fb610220366004610e87565b6104cb565b61011e610233366004610f23565b6104d9565b60606003805461024790610f56565b80601f016020809104026020016040519081016040528092919081815260200182805461027390610f56565b80156102c05780601f10610295576101008083540402835291602001916102c0565b820191906000526020600020905b8154815290600101906020018083116102a357829003601f168201915b5050505050905090565b6000336102d8818585610504565b5060019392505050565b60006102ed82610629565b92915050565b60006102ff33836106d8565b61032a7f00000000000000000000000000000000000000000000000000000000000000008484610811565b50600192915050565b600033610341858285610874565b61034c8585856108ee565b506001949350505050565b60006103857f0000000000000000000000000000000000000000000000000000000000000000333085610aaa565b61032a8383610ae2565b60007f00000000000000000000000000000000000000000000000000000000000000006001600160a01b031663313ce5676040518163ffffffff1660e01b8152600401602060405180830381865afa92505050801561040b575060408051601f3d908101601f1916820190925261040891810190610f90565b60015b6104155750601290565b919050565b6000336102d881858561042d83836104d9565b6104379190610fc9565b610504565b60606004805461024790610f56565b6000338161045982866104d9565b9050838110156104be5760405162461bcd60e51b815260206004820152602560248201527f45524332303a2064656372656173656420616c6c6f77616e63652062656c6f77604482015264207a65726f60d81b60648201526084015b60405180910390fd5b61034c8286868403610504565b6000336102d88185856108ee565b6001600160a01b03918216600090815260016020908152604080832093909416825291909152205490565b6001600160a01b0383166105665760405162461bcd60e51b8152602060048201526024808201527f45524332303a20617070726f76652066726f6d20746865207a65726f206164646044820152637265737360e01b60648201526084016104b5565b6001600160a01b0382166105c75760405162461bcd60e51b815260206004820152602260248201527f45524332303a20617070726f766520746f20746865207a65726f206164647265604482015261737360f01b60648201526084016104b5565b6001600160a01b0383811660008181526001602090815260408083209487168084529482529182902085905590518481527f8c5be1e5ebec7d5bd14f71427d1e84f3dd0314c0f7b2291e5b200ac8c7c3b92591015b60405180910390a3505050565b60008061063560025490565b6040516370a0823160e01b81526001600160a01b037f000000000000000000000000000000000000000000000000000000000000000016906370a0823190610681903090600401610f0f565b602060405180830381865afa15801561069e573d6000803e3d6000fd5b505050506040513d601f19601f820116820180604052508101906106c29190610fe1565b6106cc9190610ffa565b90506102ed8382610ae2565b6001600160a01b0382166107385760405162461bcd60e51b815260206004820152602160248201527f45524332303a206275726e2066726f6d20746865207a65726f206164647265736044820152607360f81b60648201526084016104b5565b6001600160a01b038216600090815260208190526040902054818110156107ac5760405162461bcd60e51b815260206004820152602260248201527f45524332303a206275726e20616d6f756e7420657863656564732062616c616e604482015261636560f01b60648201526084016104b5565b6001600160a01b03831660009081526020819052604081208383039055600280548492906107db908490610ffa565b90915550506040518281526000906001600160a01b038516906000805160206110508339815191529060200161061c565b505050565b6040516001600160a01b03831660248201526044810182905261080c90849063a9059cbb60e01b906064015b60408051601f198184030181529190526020810180516001600160e01b03166001600160e01b031990931692909217909152610baf565b600061088084846104d9565b905060001981146108e857818110156108db5760405162461bcd60e51b815260206004820152601d60248201527f45524332303a20696e73756666696369656e7420616c6c6f77616e636500000060448201526064016104b5565b6108e88484848403610504565b50505050565b6001600160a01b0383166109525760405162461bcd60e51b815260206004820152602560248201527f45524332303a207472616e736665722066726f6d20746865207a65726f206164604482015264647265737360d81b60648201526084016104b5565b6001600160a01b0382166109b45760405162461bcd60e51b815260206004820152602360248201527f45524332303a207472616e7366657220746f20746865207a65726f206164647260448201526265737360e81b60648201526084016104b5565b6001600160a01b03831660009081526020819052604090205481811015610a2c5760405162461bcd60e51b815260206004820152602660248201527f45524332303a207472616e7366657220616d6f756e7420657863656564732062604482015265616c616e636560d01b60648201526084016104b5565b6001600160a01b03808516600090815260208190526040808220858503905591851681529081208054849290610a63908490610fc9565b92505081905550826001600160a01b0316846001600160a01b031660008051602061105083398151915284604051610a9d91815260200190565b60405180910390a36108e8565b6040516001600160a01b03808516602483015283166044820152606481018290526108e89085906323b872dd60e01b9060840161083d565b6001600160a01b038216610b385760405162461bcd60e51b815260206004820152601f60248201527f45524332303a206d696e7420746f20746865207a65726f20616464726573730060448201526064016104b5565b8060026000828254610b4a9190610fc9565b90915550506001600160a01b03821660009081526020819052604081208054839290610b77908490610fc9565b90915550506040518181526001600160a01b038316906000906000805160206110508339815191529060200160405180910390a35050565b6000610c04826040518060400160405280602081526020017f5361666545524332303a206c6f772d6c6576656c2063616c6c206661696c6564815250856001600160a01b0316610c819092919063ffffffff16565b80519091501561080c5780806020019051810190610c229190611011565b61080c5760405162461bcd60e51b815260206004820152602a60248201527f5361666545524332303a204552433230206f7065726174696f6e20646964206e6044820152691bdd081cdd58d8d9595960b21b60648201526084016104b5565b6060610c908484600085610c98565b949350505050565b606082471015610cf95760405162461bcd60e51b815260206004820152602660248201527f416464726573733a20696e73756666696369656e742062616c616e636520666f6044820152651c8818d85b1b60d21b60648201526084016104b5565b600080866001600160a01b03168587604051610d159190611033565b60006040518083038185875af1925050503d8060008114610d52576040519150601f19603f3d011682016040523d82523d6000602084013e610d57565b606091505b5091509150610d6887838387610d73565b979650505050505050565b60608315610de2578251600003610ddb576001600160a01b0385163b610ddb5760405162461bcd60e51b815260206004820152601d60248201527f416464726573733a2063616c6c20746f206e6f6e2d636f6e747261637400000060448201526064016104b5565b5081610c90565b610c908383815115610df75781518083602001fd5b8060405162461bcd60e51b81526004016104b59190610e3d565b60005b83811015610e2c578181015183820152602001610e14565b838111156108e85750506000910152565b6020815260008251806020840152610e5c816040850160208701610e11565b601f01601f19169190910160400192915050565b80356001600160a01b038116811461041557600080fd5b60008060408385031215610e9a57600080fd5b610ea383610e70565b946020939093013593505050565b600060208284031215610ec357600080fd5b610ecc82610e70565b9392505050565b600080600060608486031215610ee857600080fd5b610ef184610e70565b9250610eff60208501610e70565b9150604084013590509250925092565b6001600160a01b0391909116815260200190565b60008060408385031215610f3657600080fd5b610f3f83610e70565b9150610f4d60208401610e70565b90509250929050565b600181811c90821680610f6a57607f821691505b602082108103610f8a57634e487b7160e01b600052602260045260246000fd5b50919050565b600060208284031215610fa257600080fd5b815160ff81168114610ecc57600080fd5b634e487b7160e01b600052601160045260246000fd5b60008219821115610fdc57610fdc610fb3565b500190565b600060208284031215610ff357600080fd5b5051919050565b60008282101561100c5761100c610fb3565b500390565b60006020828403121561102357600080fd5b81518015158114610ecc57600080fd5b60008251611045818460208701610e11565b919091019291505056feddf252ad1be2c89b69c2b068fc378daa952ba7f163c4a11628f55a4df523b3efa264697066735822122080783f19281224d086db2295fdfccf1028e02bd93b04f71f5befb026761d211164736f6c634300080e0033",
  "immutableReferences": {
    "25671": [
      {
        "length": 32,
        "start": 415
      },
      {
        "length": 32,
        "start": 772
      },
      {
        "length": 32,
        "start": 862
      },
      {
        "length": 32,
        "start": 915
      },
      {
        "length": 32,
        "start": 1612
      }
    ]
  },
  "source": "// SPDX-License-Identifier: MIT\r\n\r\npragma solidity ^0.8.0;\r\n\r\nimport \"../token/ERC20/extensions/ERC20Wrapper.sol\";\r\n\r\ncontract ERC20WrapperMock is ERC20Wrapper {\r\n    constructor(\r\n        IERC20 _underlyingToken,\r\n        string memory name,\r\n        string memory symbol\r\n    ) ERC20(name, symbol) ERC20Wrapper(_underlyingToken) {}\r\n\r\n    function recover(address account) public returns (uint256) {\r\n        return _recover(account);\r\n    }\r\n}\r\n",
  "sourcePath": "D:\\work\\www\\yopu_dapp_nft\\contracts\\lib\\openzeppelin\\contracts\\mocks\\ERC20WrapperMock.sol",
  "compiler": {
    "name": "solc",
    "version": "0.8.14+commit.80d49f37.Emscripten.clang"
  },
  "schemaVersion": "3.4.7",
  "updatedAt": "2022-06-28T15:05:47.532Z",
  "devdoc": {
    "kind": "dev",
    "methods": {
      "allowance(address,address)": {
        "details": "See {IERC20-allowance}."
      },
      "approve(address,uint256)": {
        "details": "See {IERC20-approve}. NOTE: If `amount` is the maximum `uint256`, the allowance is not updated on `transferFrom`. This is semantically equivalent to an infinite approval. Requirements: - `spender` cannot be the zero address."
      },
      "balanceOf(address)": {
        "details": "See {IERC20-balanceOf}."
      },
      "decimals()": {
        "details": "See {ERC20-decimals}."
      },
      "decreaseAllowance(address,uint256)": {
        "details": "Atomically decreases the allowance granted to `spender` by the caller. This is an alternative to {approve} that can be used as a mitigation for problems described in {IERC20-approve}. Emits an {Approval} event indicating the updated allowance. Requirements: - `spender` cannot be the zero address. - `spender` must have allowance for the caller of at least `subtractedValue`."
      },
      "depositFor(address,uint256)": {
        "details": "Allow a user to deposit underlying tokens and mint the corresponding number of wrapped tokens."
      },
      "increaseAllowance(address,uint256)": {
        "details": "Atomically increases the allowance granted to `spender` by the caller. This is an alternative to {approve} that can be used as a mitigation for problems described in {IERC20-approve}. Emits an {Approval} event indicating the updated allowance. Requirements: - `spender` cannot be the zero address."
      },
      "name()": {
        "details": "Returns the name of the token."
      },
      "symbol()": {
        "details": "Returns the symbol of the token, usually a shorter version of the name."
      },
      "totalSupply()": {
        "details": "See {IERC20-totalSupply}."
      },
      "transfer(address,uint256)": {
        "details": "See {IERC20-transfer}. Requirements: - `to` cannot be the zero address. - the caller must have a balance of at least `amount`."
      },
      "transferFrom(address,address,uint256)": {
        "details": "See {IERC20-transferFrom}. Emits an {Approval} event indicating the updated allowance. This is not required by the EIP. See the note at the beginning of {ERC20}. NOTE: Does not update the allowance if the current allowance is the maximum `uint256`. Requirements: - `from` and `to` cannot be the zero address. - `from` must have a balance of at least `amount`. - the caller must have allowance for ``from``'s tokens of at least `amount`."
      },
      "withdrawTo(address,uint256)": {
        "details": "Allow a user to burn a number of wrapped tokens and withdraw the corresponding number of underlying tokens."
      }
    },
    "version": 1
  },
  "userdoc": {
    "kind": "user",
    "methods": {},
    "version": 1
  }
}