{
  "contractName": "ERC2771ContextMock",
  "abi": [
    {
      "inputs": [
        {
          "internalType": "address",
          "name": "trustedForwarder",
          "type": "address"
        }
      ],
      "stateMutability": "nonpayable",
      "type": "constructor"
    },
    {
      "anonymous": false,
      "inputs": [
        {
          "indexed": false,
          "internalType": "bytes",
          "name": "data",
          "type": "bytes"
        },
        {
          "indexed": false,
          "internalType": "uint256",
          "name": "integerValue",
          "type": "uint256"
        },
        {
          "indexed": false,
          "internalType": "string",
          "name": "stringValue",
          "type": "string"
        }
      ],
      "name": "Data",
      "type": "event"
    },
    {
      "anonymous": false,
      "inputs": [
        {
          "indexed": false,
          "internalType": "address",
          "name": "sender",
          "type": "address"
        }
      ],
      "name": "Sender",
      "type": "event"
    },
    {
      "inputs": [
        {
          "internalType": "address",
          "name": "forwarder",
          "type": "address"
        }
      ],
      "name": "isTrustedForwarder",
      "outputs": [
        {
          "internalType": "bool",
          "name": "",
          "type": "bool"
        }
      ],
      "stateMutability": "view",
      "type": "function"
    },
    {
      "inputs": [
        {
          "internalType": "uint256",
          "name": "integerValue",
          "type": "uint256"
        },
        {
          "internalType": "string",
          "name": "stringValue",
          "type": "string"
        }
      ],
      "name": "msgData",
      "outputs": [],
      "stateMutability": "nonpayable",
      "type": "function"
    },
    {
      "inputs": [],
      "name": "msgSender",
      "outputs": [],
      "stateMutability": "nonpayable",
      "type": "function"
    }
  ],
  "bytecode": "0x60a060405234801561001057600080fd5b506040516104f43803806104f483398101604081905261002f916100d7565b6001600160a01b0381166080527fd6558c3ed910d959271054471fd1c326679d9fece99c5091b00ed89627cf2bfc610065610086565b6040516001600160a01b03909116815260200160405180910390a150610107565b600061009a61009f60201b6101491760201c565b905090565b6080516000906001600160a01b031633036100c1575060131936013560601c90565b61009a6100d360201b6101701760201c565b3390565b6000602082840312156100e957600080fd5b81516001600160a01b038116811461010057600080fd5b9392505050565b6080516103d3610121600039600060d301526103d36000f3fe608060405234801561001057600080fd5b50600436106100415760003560e01c8063376bf26214610046578063572b6c051461005b578063d737d0c714610082575b600080fd5b6100596100543660046101dc565b61008a565b005b61006e610069366004610296565b6100d1565b604051901515815260200160405180910390f35b610059610103565b7faf235354a0a47c91ee171961326335cb2d1a8e55b8a89859b0e61eb049e50ea06100b3610174565b84846040516100c594939291906102c6565b60405180910390a15050565b7f00000000000000000000000000000000000000000000000000000000000000006001600160a01b0390811691161490565b7fd6558c3ed910d959271054471fd1c326679d9fece99c5091b00ed89627cf2bfc61012c610187565b6040516001600160a01b03909116815260200160405180910390a1565b6000610154336100d1565b15610166575060131936013560601c90565b503390565b905090565b3390565b36600061017f610191565b915091509091565b600061016b610149565b36600061019d336100d1565b156101be57600080366101b160148261034e565b9261017f93929190610373565b60003661017f565b634e487b7160e01b600052604160045260246000fd5b600080604083850312156101ef57600080fd5b8235915060208301356001600160401b038082111561020d57600080fd5b818501915085601f83011261022157600080fd5b813581811115610233576102336101c6565b604051601f8201601f19908116603f0116810190838211818310171561025b5761025b6101c6565b8160405282815288602084870101111561027457600080fd5b8260208601602083013760006020848301015280955050505050509250929050565b6000602082840312156102a857600080fd5b81356001600160a01b03811681146102bf57600080fd5b9392505050565b60608152836060820152838560808301376000608085830101526000601f1980601f8701168301602086818601526080858303016040860152855180608084015260005b818110156103265787810183015184820160a00152820161030a565b8181111561033857600060a083860101525b50601f019092160160a001979650505050505050565b60008282101561036e57634e487b7160e01b600052601160045260246000fd5b500390565b6000808585111561038357600080fd5b8386111561039057600080fd5b505082019391909203915056fea26469706673582212205baa17adf7d3135764574c384006b37321b701ab59fd294cc109a83b5aec4add64736f6c634300080e0033",
  "immutableReferences": {
    "8315": [
      {
        "length": 32,
        "start": 211
      }
    ]
  },
  "source": "// SPDX-License-Identifier: MIT\r\n\r\npragma solidity ^0.8.9;\r\n\r\nimport \"./ContextMock.sol\";\r\nimport \"../metatx/ERC2771Context.sol\";\r\n\r\n// By inheriting from ERC2771Context, Context's internal functions are overridden automatically\r\ncontract ERC2771ContextMock is ContextMock, ERC2771Context {\r\n    /// @custom:oz-upgrades-unsafe-allow constructor\r\n    constructor(address trustedForwarder) ERC2771Context(trustedForwarder) {\r\n        emit Sender(_msgSender()); // _msgSender() should be accessible during construction\r\n    }\r\n\r\n    function _msgSender() internal view virtual override(Context, ERC2771Context) returns (address) {\r\n        return ERC2771Context._msgSender();\r\n    }\r\n\r\n    function _msgData() internal view virtual override(Context, ERC2771Context) returns (bytes calldata) {\r\n        return ERC2771Context._msgData();\r\n    }\r\n}\r\n",
  "sourcePath": "D:\\work\\www\\yopu_dapp_nft\\contracts\\lib\\openzeppelin\\contracts\\mocks\\ERC2771ContextMock.sol",
  "compiler": {
    "name": "solc",
    "version": "0.8.14+commit.80d49f37.Emscripten.clang"
  },
  "schemaVersion": "3.4.7",
  "updatedAt": "2022-06-28T15:05:47.552Z",
  "devdoc": {
    "kind": "dev",
    "methods": {
      "constructor": {
        "custom:oz-upgrades-unsafe-allow": "constructor"
      }
    },
    "version": 1
  },
  "userdoc": {
    "kind": "user",
    "methods": {},
    "version": 1
  }
}