{
  "contractName": "ERC20VotesMock",
  "abi": [
    {
      "inputs": [
        {
          "internalType": "string",
          "name": "name",
          "type": "string"
        },
        {
          "internalType": "string",
          "name": "symbol",
          "type": "string"
        }
      ],
      "stateMutability": "nonpayable",
      "type": "constructor"
    },
    {
      "anonymous": false,
      "inputs": [
        {
          "indexed": true,
          "internalType": "address",
          "name": "owner",
          "type": "address"
        },
        {
          "indexed": true,
          "internalType": "address",
          "name": "spender",
          "type": "address"
        },
        {
          "indexed": false,
          "internalType": "uint256",
          "name": "value",
          "type": "uint256"
        }
      ],
      "name": "Approval",
      "type": "event"
    },
    {
      "anonymous": false,
      "inputs": [
        {
          "indexed": true,
          "internalType": "address",
          "name": "delegator",
          "type": "address"
        },
        {
          "indexed": true,
          "internalType": "address",
          "name": "fromDelegate",
          "type": "address"
        },
        {
          "indexed": true,
          "internalType": "address",
          "name": "toDelegate",
          "type": "address"
        }
      ],
      "name": "DelegateChanged",
      "type": "event"
    },
    {
      "anonymous": false,
      "inputs": [
        {
          "indexed": true,
          "internalType": "address",
          "name": "delegate",
          "type": "address"
        },
        {
          "indexed": false,
          "internalType": "uint256",
          "name": "previousBalance",
          "type": "uint256"
        },
        {
          "indexed": false,
          "internalType": "uint256",
          "name": "newBalance",
          "type": "uint256"
        }
      ],
      "name": "DelegateVotesChanged",
      "type": "event"
    },
    {
      "anonymous": false,
      "inputs": [
        {
          "indexed": true,
          "internalType": "address",
          "name": "from",
          "type": "address"
        },
        {
          "indexed": true,
          "internalType": "address",
          "name": "to",
          "type": "address"
        },
        {
          "indexed": false,
          "internalType": "uint256",
          "name": "value",
          "type": "uint256"
        }
      ],
      "name": "Transfer",
      "type": "event"
    },
    {
      "inputs": [],
      "name": "DOMAIN_SEPARATOR",
      "outputs": [
        {
          "internalType": "bytes32",
          "name": "",
          "type": "bytes32"
        }
      ],
      "stateMutability": "view",
      "type": "function"
    },
    {
      "inputs": [
        {
          "internalType": "address",
          "name": "owner",
          "type": "address"
        },
        {
          "internalType": "address",
          "name": "spender",
          "type": "address"
        }
      ],
      "name": "allowance",
      "outputs": [
        {
          "internalType": "uint256",
          "name": "",
          "type": "uint256"
        }
      ],
      "stateMutability": "view",
      "type": "function"
    },
    {
      "inputs": [
        {
          "internalType": "address",
          "name": "spender",
          "type": "address"
        },
        {
          "internalType": "uint256",
          "name": "amount",
          "type": "uint256"
        }
      ],
      "name": "approve",
      "outputs": [
        {
          "internalType": "bool",
          "name": "",
          "type": "bool"
        }
      ],
      "stateMutability": "nonpayable",
      "type": "function"
    },
    {
      "inputs": [
        {
          "internalType": "address",
          "name": "account",
          "type": "address"
        }
      ],
      "name": "balanceOf",
      "outputs": [
        {
          "internalType": "uint256",
          "name": "",
          "type": "uint256"
        }
      ],
      "stateMutability": "view",
      "type": "function"
    },
    {
      "inputs": [
        {
          "internalType": "address",
          "name": "account",
          "type": "address"
        },
        {
          "internalType": "uint32",
          "name": "pos",
          "type": "uint32"
        }
      ],
      "name": "checkpoints",
      "outputs": [
        {
          "components": [
            {
              "internalType": "uint32",
              "name": "fromBlock",
              "type": "uint32"
            },
            {
              "internalType": "uint224",
              "name": "votes",
              "type": "uint224"
            }
          ],
          "internalType": "struct ERC20Votes.Checkpoint",
          "name": "",
          "type": "tuple"
        }
      ],
      "stateMutability": "view",
      "type": "function"
    },
    {
      "inputs": [],
      "name": "decimals",
      "outputs": [
        {
          "internalType": "uint8",
          "name": "",
          "type": "uint8"
        }
      ],
      "stateMutability": "view",
      "type": "function"
    },
    {
      "inputs": [
        {
          "internalType": "address",
          "name": "spender",
          "type": "address"
        },
        {
          "internalType": "uint256",
          "name": "subtractedValue",
          "type": "uint256"
        }
      ],
      "name": "decreaseAllowance",
      "outputs": [
        {
          "internalType": "bool",
          "name": "",
          "type": "bool"
        }
      ],
      "stateMutability": "nonpayable",
      "type": "function"
    },
    {
      "inputs": [
        {
          "internalType": "address",
          "name": "delegatee",
          "type": "address"
        }
      ],
      "name": "delegate",
      "outputs": [],
      "stateMutability": "nonpayable",
      "type": "function"
    },
    {
      "inputs": [
        {
          "internalType": "address",
          "name": "delegatee",
          "type": "address"
        },
        {
          "internalType": "uint256",
          "name": "nonce",
          "type": "uint256"
        },
        {
          "internalType": "uint256",
          "name": "expiry",
          "type": "uint256"
        },
        {
          "internalType": "uint8",
          "name": "v",
          "type": "uint8"
        },
        {
          "internalType": "bytes32",
          "name": "r",
          "type": "bytes32"
        },
        {
          "internalType": "bytes32",
          "name": "s",
          "type": "bytes32"
        }
      ],
      "name": "delegateBySig",
      "outputs": [],
      "stateMutability": "nonpayable",
      "type": "function"
    },
    {
      "inputs": [
        {
          "internalType": "address",
          "name": "account",
          "type": "address"
        }
      ],
      "name": "delegates",
      "outputs": [
        {
          "internalType": "address",
          "name": "",
          "type": "address"
        }
      ],
      "stateMutability": "view",
      "type": "function"
    },
    {
      "inputs": [
        {
          "internalType": "uint256",
          "name": "blockNumber",
          "type": "uint256"
        }
      ],
      "name": "getPastTotalSupply",
      "outputs": [
        {
          "internalType": "uint256",
          "name": "",
          "type": "uint256"
        }
      ],
      "stateMutability": "view",
      "type": "function"
    },
    {
      "inputs": [
        {
          "internalType": "address",
          "name": "account",
          "type": "address"
        },
        {
          "internalType": "uint256",
          "name": "blockNumber",
          "type": "uint256"
        }
      ],
      "name": "getPastVotes",
      "outputs": [
        {
          "internalType": "uint256",
          "name": "",
          "type": "uint256"
        }
      ],
      "stateMutability": "view",
      "type": "function"
    },
    {
      "inputs": [
        {
          "internalType": "address",
          "name": "account",
          "type": "address"
        }
      ],
      "name": "getVotes",
      "outputs": [
        {
          "internalType": "uint256",
          "name": "",
          "type": "uint256"
        }
      ],
      "stateMutability": "view",
      "type": "function"
    },
    {
      "inputs": [
        {
          "internalType": "address",
          "name": "spender",
          "type": "address"
        },
        {
          "internalType": "uint256",
          "name": "addedValue",
          "type": "uint256"
        }
      ],
      "name": "increaseAllowance",
      "outputs": [
        {
          "internalType": "bool",
          "name": "",
          "type": "bool"
        }
      ],
      "stateMutability": "nonpayable",
      "type": "function"
    },
    {
      "inputs": [],
      "name": "name",
      "outputs": [
        {
          "internalType": "string",
          "name": "",
          "type": "string"
        }
      ],
      "stateMutability": "view",
      "type": "function"
    },
    {
      "inputs": [
        {
          "internalType": "address",
          "name": "owner",
          "type": "address"
        }
      ],
      "name": "nonces",
      "outputs": [
        {
          "internalType": "uint256",
          "name": "",
          "type": "uint256"
        }
      ],
      "stateMutability": "view",
      "type": "function"
    },
    {
      "inputs": [
        {
          "internalType": "address",
          "name": "account",
          "type": "address"
        }
      ],
      "name": "numCheckpoints",
      "outputs": [
        {
          "internalType": "uint32",
          "name": "",
          "type": "uint32"
        }
      ],
      "stateMutability": "view",
      "type": "function"
    },
    {
      "inputs": [
        {
          "internalType": "address",
          "name": "owner",
          "type": "address"
        },
        {
          "internalType": "address",
          "name": "spender",
          "type": "address"
        },
        {
          "internalType": "uint256",
          "name": "value",
          "type": "uint256"
        },
        {
          "internalType": "uint256",
          "name": "deadline",
          "type": "uint256"
        },
        {
          "internalType": "uint8",
          "name": "v",
          "type": "uint8"
        },
        {
          "internalType": "bytes32",
          "name": "r",
          "type": "bytes32"
        },
        {
          "internalType": "bytes32",
          "name": "s",
          "type": "bytes32"
        }
      ],
      "name": "permit",
      "outputs": [],
      "stateMutability": "nonpayable",
      "type": "function"
    },
    {
      "inputs": [],
      "name": "symbol",
      "outputs": [
        {
          "internalType": "string",
          "name": "",
          "type": "string"
        }
      ],
      "stateMutability": "view",
      "type": "function"
    },
    {
      "inputs": [],
      "name": "totalSupply",
      "outputs": [
        {
          "internalType": "uint256",
          "name": "",
          "type": "uint256"
        }
      ],
      "stateMutability": "view",
      "type": "function"
    },
    {
      "inputs": [
        {
          "internalType": "address",
          "name": "to",
          "type": "address"
        },
        {
          "internalType": "uint256",
          "name": "amount",
          "type": "uint256"
        }
      ],
      "name": "transfer",
      "outputs": [
        {
          "internalType": "bool",
          "name": "",
          "type": "bool"
        }
      ],
      "stateMutability": "nonpayable",
      "type": "function"
    },
    {
      "inputs": [
        {
          "internalType": "address",
          "name": "from",
          "type": "address"
        },
        {
          "internalType": "address",
          "name": "to",
          "type": "address"
        },
        {
          "internalType": "uint256",
          "name": "amount",
          "type": "uint256"
        }
      ],
      "name": "transferFrom",
      "outputs": [
        {
          "internalType": "bool",
          "name": "",
          "type": "bool"
        }
      ],
      "stateMutability": "nonpayable",
      "type": "function"
    },
    {
      "inputs": [
        {
          "internalType": "address",
          "name": "account",
          "type": "address"
        },
        {
          "internalType": "uint256",
          "name": "amount",
          "type": "uint256"
        }
      ],
      "name": "mint",
      "outputs": [],
      "stateMutability": "nonpayable",
      "type": "function"
    },
    {
      "inputs": [
        {
          "internalType": "address",
          "name": "account",
          "type": "address"
        },
        {
          "internalType": "uint256",
          "name": "amount",
          "type": "uint256"
        }
      ],
      "name": "burn",
      "outputs": [],
      "stateMutability": "nonpayable",
      "type": "function"
    },
    {
      "inputs": [],
      "name": "getChainId",
      "outputs": [
        {
          "internalType": "uint256",
          "name": "",
          "type": "uint256"
        }
      ],
      "stateMutability": "view",
      "type": "function"
    }
  ],
  "bytecode": "0x6101406040523480156200001257600080fd5b506040516200209438038062002094833981016040819052620000359162000292565b8180604051806040016040528060018152602001603160f81b815250848481600390805190602001906200006b9291906200011f565b508051620000819060049060208401906200011f565b5050825160208085019190912083518483012060e08290526101008190524660a0818152604080517f8b73c3c69bb8fe3d512ecc4cf759cc79239f7b179b0ffacaa9a75d522b39400f81880181905281830187905260608201869052608082019490945230818401528151808203909301835260c0019052805194019390932091935091906080523060c05261012052506200033895505050505050565b8280546200012d90620002fc565b90600052602060002090601f0160209004810192826200015157600085556200019c565b82601f106200016c57805160ff19168380011785556200019c565b828001600101855582156200019c579182015b828111156200019c5782518255916020019190600101906200017f565b50620001aa929150620001ae565b5090565b5b80821115620001aa5760008155600101620001af565b634e487b7160e01b600052604160045260246000fd5b600082601f830112620001ed57600080fd5b81516001600160401b03808211156200020a576200020a620001c5565b604051601f8301601f19908116603f01168101908282118183101715620002355762000235620001c5565b816040528381526020925086838588010111156200025257600080fd5b600091505b8382101562000276578582018301518183018401529082019062000257565b83821115620002885760008385830101525b9695505050505050565b60008060408385031215620002a657600080fd5b82516001600160401b0380821115620002be57600080fd5b620002cc86838701620001db565b93506020850151915080821115620002e357600080fd5b50620002f285828601620001db565b9150509250929050565b600181811c908216806200031157607f821691505b6020821081036200033257634e487b7160e01b600052602260045260246000fd5b50919050565b60805160a05160c05160e0516101005161012051611d0c620003886000396000610dcd01526000610e1c01526000610df701526000610d5001526000610d7a01526000610da40152611d0c6000f3fe608060405234801561001057600080fd5b50600436106101335760003560e01c806306fdde0314610138578063095ea7b31461015657806318160ddd1461017957806323b872dd1461018b578063313ce5671461019e5780633408e470146101ad5780633644e515146101b357806339509351146101bb5780633a46b1a8146101ce57806340c10f19146101e1578063587cde1e146101f65780635c19a95c146102215780636fcfff451461023457806370a082311461025c5780637ecebe001461026f5780638e539e8c1461028257806395d89b41146102955780639ab24eb01461029d5780639dc29fac146102b0578063a457c2d7146102c3578063a9059cbb146102d6578063c3cda520146102e9578063d505accf146102fc578063dd62ed3e1461030f578063f1127ed814610322575b600080fd5b61014061035f565b60405161014d9190611947565b60405180910390f35b6101696101643660046119b8565b6103f1565b604051901515815260200161014d565b6002545b60405190815260200161014d565b6101696101993660046119e2565b610409565b6040516012815260200161014d565b4661017d565b61017d61042d565b6101696101c93660046119b8565b61043c565b61017d6101dc3660046119b8565b61045e565b6101f46101ef3660046119b8565b6104b1565b005b610209610204366004611a1e565b6104bf565b6040516001600160a01b03909116815260200161014d565b6101f461022f366004611a1e565b6104dd565b610247610242366004611a1e565b6104ea565b60405163ffffffff909116815260200161014d565b61017d61026a366004611a1e565b610512565b61017d61027d366004611a1e565b61052d565b61017d610290366004611a39565b61054b565b610140610577565b61017d6102ab366004611a1e565b610586565b6101f46102be3660046119b8565b61060c565b6101696102d13660046119b8565b610616565b6101696102e43660046119b8565b610691565b6101f46102f7366004611a63565b61069f565b6101f461030a366004611abb565b6107d1565b61017d61031d366004611b25565b610935565b610335610330366004611b58565b610960565b60408051825163ffffffff1681526020928301516001600160e01b0316928101929092520161014d565b60606003805461036e90611b98565b80601f016020809104026020016040519081016040528092919081815260200182805461039a90611b98565b80156103e75780601f106103bc576101008083540402835291602001916103e7565b820191906000526020600020905b8154815290600101906020018083116103ca57829003601f168201915b5050505050905090565b6000336103ff8185856109e3565b5060019392505050565b600033610417858285610b07565b610422858585610b81565b506001949350505050565b6000610437610d43565b905090565b6000336103ff81858561044f8383610935565b6104599190611be2565b6109e3565b60004382106104885760405162461bcd60e51b815260040161047f90611bfa565b60405180910390fd5b6001600160a01b03831660009081526008602052604090206104aa9083610e6a565b9392505050565b6104bb8282610f26565b5050565b6001600160a01b039081166000908152600760205260409020541690565b6104e73382610fb0565b50565b6001600160a01b03811660009081526008602052604081205461050c90611030565b92915050565b6001600160a01b031660009081526020819052604090205490565b6001600160a01b03811660009081526005602052604081205461050c565b600043821061056c5760405162461bcd60e51b815260040161047f90611bfa565b61050c600983610e6a565b60606004805461036e90611b98565b6001600160a01b03811660009081526008602052604081205480156105f9576001600160a01b03831660009081526008602052604090206105c8600183611c31565b815481106105d8576105d8611c48565b600091825260209091200154600160201b90046001600160e01b03166105fc565b60005b6001600160e01b03169392505050565b6104bb8282611099565b600033816106248286610935565b9050838110156106845760405162461bcd60e51b815260206004820152602560248201527f45524332303a2064656372656173656420616c6c6f77616e63652062656c6f77604482015264207a65726f60d81b606482015260840161047f565b61042282868684036109e3565b6000336103ff818585610b81565b834211156106ef5760405162461bcd60e51b815260206004820152601d60248201527f4552433230566f7465733a207369676e61747572652065787069726564000000604482015260640161047f565b604080517fe48329057bfd03d55e49b547132e39cffd9c1820ad7b9d4c5307691425d15adf60208201526001600160a01b038816918101919091526060810186905260808101859052600090610769906107619060a001604051602081830303815290604052805190602001206110b1565b8585856110ff565b905061077481611127565b86146107be5760405162461bcd60e51b81526020600482015260196024820152784552433230566f7465733a20696e76616c6964206e6f6e636560381b604482015260640161047f565b6107c88188610fb0565b50505050505050565b834211156108215760405162461bcd60e51b815260206004820152601d60248201527f45524332305065726d69743a206578706972656420646561646c696e65000000604482015260640161047f565b60007f6e71edae12b1b97f4d1f60370fef10105fa2faae0126114a169c64845d6126c98888886108508c611127565b6040805160208101969096526001600160a01b0394851690860152929091166060840152608083015260a082015260c0810186905260e00160405160208183030381529060405280519060200120905060006108ab826110b1565b905060006108bb828787876110ff565b9050896001600160a01b0316816001600160a01b03161461091e5760405162461bcd60e51b815260206004820152601e60248201527f45524332305065726d69743a20696e76616c6964207369676e61747572650000604482015260640161047f565b6109298a8a8a6109e3565b50505050505050505050565b6001600160a01b03918216600090815260016020908152604080832093909416825291909152205490565b60408051808201909152600080825260208201526001600160a01b0383166000908152600860205260409020805463ffffffff84169081106109a4576109a4611c48565b60009182526020918290206040805180820190915291015463ffffffff81168252600160201b90046001600160e01b0316918101919091529392505050565b6001600160a01b038316610a455760405162461bcd60e51b8152602060048201526024808201527f45524332303a20617070726f76652066726f6d20746865207a65726f206164646044820152637265737360e01b606482015260840161047f565b6001600160a01b038216610aa65760405162461bcd60e51b815260206004820152602260248201527f45524332303a20617070726f766520746f20746865207a65726f206164647265604482015261737360f01b606482015260840161047f565b6001600160a01b0383811660008181526001602090815260408083209487168084529482529182902085905590518481527f8c5be1e5ebec7d5bd14f71427d1e84f3dd0314c0f7b2291e5b200ac8c7c3b925910160405180910390a3505050565b6000610b138484610935565b90506000198114610b7b5781811015610b6e5760405162461bcd60e51b815260206004820152601d60248201527f45524332303a20696e73756666696369656e7420616c6c6f77616e6365000000604482015260640161047f565b610b7b84848484036109e3565b50505050565b6001600160a01b038316610be55760405162461bcd60e51b815260206004820152602560248201527f45524332303a207472616e736665722066726f6d20746865207a65726f206164604482015264647265737360d81b606482015260840161047f565b6001600160a01b038216610c475760405162461bcd60e51b815260206004820152602360248201527f45524332303a207472616e7366657220746f20746865207a65726f206164647260448201526265737360e81b606482015260840161047f565b6001600160a01b03831660009081526020819052604090205481811015610cbf5760405162461bcd60e51b815260206004820152602660248201527f45524332303a207472616e7366657220616d6f756e7420657863656564732062604482015265616c616e636560d01b606482015260840161047f565b6001600160a01b03808516600090815260208190526040808220858503905591851681529081208054849290610cf6908490611be2565b92505081905550826001600160a01b0316846001600160a01b0316600080516020611c9783398151915284604051610d3091815260200190565b60405180910390a3610b7b848484611154565b6000306001600160a01b037f000000000000000000000000000000000000000000000000000000000000000016148015610d9c57507f000000000000000000000000000000000000000000000000000000000000000046145b15610dc657507f000000000000000000000000000000000000000000000000000000000000000090565b50604080517f00000000000000000000000000000000000000000000000000000000000000006020808301919091527f0000000000000000000000000000000000000000000000000000000000000000828401527f000000000000000000000000000000000000000000000000000000000000000060608301524660808301523060a0808401919091528351808403909101815260c0909201909252805191012090565b8154600090815b81811015610ece576000610e85828461116f565b905084868281548110610e9a57610e9a611c48565b60009182526020909120015463ffffffff161115610eba57809250610ec8565b610ec5816001611be2565b91505b50610e71565b8115610f115784610ee0600184611c31565b81548110610ef057610ef0611c48565b600091825260209091200154600160201b90046001600160e01b0316610f14565b60005b6001600160e01b031695945050505050565b610f30828261118a565b6002546001600160e01b031015610fa25760405162461bcd60e51b815260206004820152603060248201527f4552433230566f7465733a20746f74616c20737570706c79207269736b73206f60448201526f766572666c6f77696e6720766f74657360801b606482015260840161047f565b610b7b600961125f8361126b565b6000610fbb836104bf565b90506000610fc884610512565b6001600160a01b0385811660008181526007602052604080822080546001600160a01b031916898616908117909155905194955093928616927f3134e8a2e6d97e929a7e54011ea5485d7d196dd5f0ba4d4ef95803e8e3fc257f9190a4610b7b8284836113e2565b600063ffffffff8211156110955760405162461bcd60e51b815260206004820152602660248201527f53616665436173743a2076616c756520646f65736e27742066697420696e203360448201526532206269747360d01b606482015260840161047f565b5090565b6110a382826114fb565b610b7b600961163e8361126b565b600061050c6110be610d43565b8360405161190160f01b6020820152602281018390526042810182905260009060620160405160208183030381529060405280519060200120905092915050565b60008060006111108787878761164a565b9150915061111d8161172d565b5095945050505050565b6001600160a01b03811660009081526005602052604090208054600181018255905b50919050565b505050565b61114f611160846104bf565b611169846104bf565b836113e2565b600061117e6002848418611c5e565b6104aa90848416611be2565b6001600160a01b0382166111e05760405162461bcd60e51b815260206004820152601f60248201527f45524332303a206d696e7420746f20746865207a65726f206164647265737300604482015260640161047f565b80600260008282546111f29190611be2565b90915550506001600160a01b0382166000908152602081905260408120805483929061121f908490611be2565b90915550506040518181526001600160a01b03831690600090600080516020611c978339815191529060200160405180910390a36104bb60008383611154565b60006104aa8284611be2565b8254600090819080156112b55785611284600183611c31565b8154811061129457611294611c48565b600091825260209091200154600160201b90046001600160e01b03166112b8565b60005b6001600160e01b031692506112d183858763ffffffff16565b915060008111801561130f575043866112eb600184611c31565b815481106112fb576112fb611c48565b60009182526020909120015463ffffffff16145b1561136f5761131d826118de565b86611329600184611c31565b8154811061133957611339611c48565b9060005260206000200160000160046101000a8154816001600160e01b0302191690836001600160e01b031602179055506113d9565b85604051806040016040528061138443611030565b63ffffffff168152602001611398856118de565b6001600160e01b039081169091528254600181018455600093845260209384902083519490930151909116600160201b0263ffffffff909316929092179101555b50935093915050565b816001600160a01b0316836001600160a01b0316141580156114045750600081115b1561114f576001600160a01b03831615611480576001600160a01b0383166000908152600860205260408120819061143f9061163e8561126b565b91509150846001600160a01b0316600080516020611cb78339815191528383604051611475929190918252602082015260400190565b60405180910390a250505b6001600160a01b0382161561114f576001600160a01b038216600090815260086020526040812081906114b69061125f8561126b565b91509150836001600160a01b0316600080516020611cb783398151915283836040516114ec929190918252602082015260400190565b60405180910390a25050505050565b6001600160a01b03821661155b5760405162461bcd60e51b815260206004820152602160248201527f45524332303a206275726e2066726f6d20746865207a65726f206164647265736044820152607360f81b606482015260840161047f565b6001600160a01b038216600090815260208190526040902054818110156115cf5760405162461bcd60e51b815260206004820152602260248201527f45524332303a206275726e20616d6f756e7420657863656564732062616c616e604482015261636560f01b606482015260840161047f565b6001600160a01b03831660009081526020819052604081208383039055600280548492906115fe908490611c31565b90915550506040518281526000906001600160a01b03851690600080516020611c978339815191529060200160405180910390a361114f83600084611154565b60006104aa8284611c31565b6000806fa2a8918ca85bafe22016d0b997e4df60600160ff1b038311156116775750600090506003611724565b8460ff16601b1415801561168f57508460ff16601c14155b156116a05750600090506004611724565b6040805160008082526020820180845289905260ff881692820192909252606081018690526080810185905260019060a0016020604051602081039080840390855afa1580156116f4573d6000803e3d6000fd5b5050604051601f1901519150506001600160a01b03811661171d57600060019250925050611724565b9150600090505b94509492505050565b600081600481111561174157611741611c80565b036117495750565b600181600481111561175d5761175d611c80565b036117a55760405162461bcd60e51b815260206004820152601860248201527745434453413a20696e76616c6964207369676e617475726560401b604482015260640161047f565b60028160048111156117b9576117b9611c80565b036118065760405162461bcd60e51b815260206004820152601f60248201527f45434453413a20696e76616c6964207369676e6174757265206c656e67746800604482015260640161047f565b600381600481111561181a5761181a611c80565b036118725760405162461bcd60e51b815260206004820152602260248201527f45434453413a20696e76616c6964207369676e6174757265202773272076616c604482015261756560f01b606482015260840161047f565b600481600481111561188657611886611c80565b036104e75760405162461bcd60e51b815260206004820152602260248201527f45434453413a20696e76616c6964207369676e6174757265202776272076616c604482015261756560f01b606482015260840161047f565b60006001600160e01b038211156110955760405162461bcd60e51b815260206004820152602760248201527f53616665436173743a2076616c756520646f65736e27742066697420696e20326044820152663234206269747360c81b606482015260840161047f565b600060208083528351808285015260005b8181101561197457858101830151858201604001528201611958565b81811115611986576000604083870101525b50601f01601f1916929092016040019392505050565b80356001600160a01b03811681146119b357600080fd5b919050565b600080604083850312156119cb57600080fd5b6119d48361199c565b946020939093013593505050565b6000806000606084860312156119f757600080fd5b611a008461199c565b9250611a0e6020850161199c565b9150604084013590509250925092565b600060208284031215611a3057600080fd5b6104aa8261199c565b600060208284031215611a4b57600080fd5b5035919050565b803560ff811681146119b357600080fd5b60008060008060008060c08789031215611a7c57600080fd5b611a858761199c565b95506020870135945060408701359350611aa160608801611a52565b92506080870135915060a087013590509295509295509295565b600080600080600080600060e0888a031215611ad657600080fd5b611adf8861199c565b9650611aed6020890161199c565b95506040880135945060608801359350611b0960808901611a52565b925060a0880135915060c0880135905092959891949750929550565b60008060408385031215611b3857600080fd5b611b418361199c565b9150611b4f6020840161199c565b90509250929050565b60008060408385031215611b6b57600080fd5b611b748361199c565b9150602083013563ffffffff81168114611b8d57600080fd5b809150509250929050565b600181811c90821680611bac57607f821691505b60208210810361114957634e487b7160e01b600052602260045260246000fd5b634e487b7160e01b600052601160045260246000fd5b60008219821115611bf557611bf5611bcc565b500190565b6020808252601f908201527f4552433230566f7465733a20626c6f636b206e6f7420796574206d696e656400604082015260600190565b600082821015611c4357611c43611bcc565b500390565b634e487b7160e01b600052603260045260246000fd5b600082611c7b57634e487b7160e01b600052601260045260246000fd5b500490565b634e487b7160e01b600052602160045260246000fdfeddf252ad1be2c89b69c2b068fc378daa952ba7f163c4a11628f55a4df523b3efdec2bacdd2f05b59de34da9b523dff8be42e5e38e818c82fdb0bae774387a724a26469706673582212201a409674164056c711a5edb308366fe6c339fba58438bf974afd619ebf9cc7e564736f6c634300080e0033",
  "immutableReferences": {
    "33049": [
      {
        "length": 32,
        "start": 3492
      }
    ],
    "33051": [
      {
        "length": 32,
        "start": 3450
      }
    ],
    "33053": [
      {
        "length": 32,
        "start": 3408
      }
    ],
    "33055": [
      {
        "length": 32,
        "start": 3575
      }
    ],
    "33057": [
      {
        "length": 32,
        "start": 3612
      }
    ],
    "33059": [
      {
        "length": 32,
        "start": 3533
      }
    ]
  },
  "source": "// SPDX-License-Identifier: MIT\r\n\r\npragma solidity ^0.8.0;\r\n\r\nimport \"../token/ERC20/extensions/ERC20Votes.sol\";\r\n\r\ncontract ERC20VotesMock is ERC20Votes {\r\n    constructor(string memory name, string memory symbol) ERC20(name, symbol) ERC20Permit(name) {}\r\n\r\n    function mint(address account, uint256 amount) public {\r\n        _mint(account, amount);\r\n    }\r\n\r\n    function burn(address account, uint256 amount) public {\r\n        _burn(account, amount);\r\n    }\r\n\r\n    function getChainId() external view returns (uint256) {\r\n        return block.chainid;\r\n    }\r\n}\r\n",
  "sourcePath": "D:\\work\\www\\yopu_dapp_nft\\contracts\\lib\\openzeppelin\\contracts\\mocks\\ERC20VotesMock.sol",
  "compiler": {
    "name": "solc",
    "version": "0.8.14+commit.80d49f37.Emscripten.clang"
  },
  "schemaVersion": "3.4.7",
  "updatedAt": "2022-06-28T15:05:47.506Z",
  "devdoc": {
    "kind": "dev",
    "methods": {
      "DOMAIN_SEPARATOR()": {
        "details": "See {IERC20Permit-DOMAIN_SEPARATOR}."
      },
      "allowance(address,address)": {
        "details": "See {IERC20-allowance}."
      },
      "approve(address,uint256)": {
        "details": "See {IERC20-approve}. NOTE: If `amount` is the maximum `uint256`, the allowance is not updated on `transferFrom`. This is semantically equivalent to an infinite approval. Requirements: - `spender` cannot be the zero address."
      },
      "balanceOf(address)": {
        "details": "See {IERC20-balanceOf}."
      },
      "checkpoints(address,uint32)": {
        "details": "Get the `pos`-th checkpoint for `account`."
      },
      "decimals()": {
        "details": "Returns the number of decimals used to get its user representation. For example, if `decimals` equals `2`, a balance of `505` tokens should be displayed to a user as `5.05` (`505 / 10 ** 2`). Tokens usually opt for a value of 18, imitating the relationship between Ether and Wei. This is the value {ERC20} uses, unless this function is overridden; NOTE: This information is only used for _display_ purposes: it in no way affects any of the arithmetic of the contract, including {IERC20-balanceOf} and {IERC20-transfer}."
      },
      "decreaseAllowance(address,uint256)": {
        "details": "Atomically decreases the allowance granted to `spender` by the caller. This is an alternative to {approve} that can be used as a mitigation for problems described in {IERC20-approve}. Emits an {Approval} event indicating the updated allowance. Requirements: - `spender` cannot be the zero address. - `spender` must have allowance for the caller of at least `subtractedValue`."
      },
      "delegate(address)": {
        "details": "Delegate votes from the sender to `delegatee`."
      },
      "delegateBySig(address,uint256,uint256,uint8,bytes32,bytes32)": {
        "details": "Delegates votes from signer to `delegatee`"
      },
      "delegates(address)": {
        "details": "Get the address `account` is currently delegating to."
      },
      "getPastTotalSupply(uint256)": {
        "details": "Retrieve the `totalSupply` at the end of `blockNumber`. Note, this value is the sum of all balances. It is but NOT the sum of all the delegated votes! Requirements: - `blockNumber` must have been already mined"
      },
      "getPastVotes(address,uint256)": {
        "details": "Retrieve the number of votes for `account` at the end of `blockNumber`. Requirements: - `blockNumber` must have been already mined"
      },
      "getVotes(address)": {
        "details": "Gets the current votes balance for `account`"
      },
      "increaseAllowance(address,uint256)": {
        "details": "Atomically increases the allowance granted to `spender` by the caller. This is an alternative to {approve} that can be used as a mitigation for problems described in {IERC20-approve}. Emits an {Approval} event indicating the updated allowance. Requirements: - `spender` cannot be the zero address."
      },
      "name()": {
        "details": "Returns the name of the token."
      },
      "nonces(address)": {
        "details": "See {IERC20Permit-nonces}."
      },
      "numCheckpoints(address)": {
        "details": "Get number of checkpoints for `account`."
      },
      "permit(address,address,uint256,uint256,uint8,bytes32,bytes32)": {
        "details": "See {IERC20Permit-permit}."
      },
      "symbol()": {
        "details": "Returns the symbol of the token, usually a shorter version of the name."
      },
      "totalSupply()": {
        "details": "See {IERC20-totalSupply}."
      },
      "transfer(address,uint256)": {
        "details": "See {IERC20-transfer}. Requirements: - `to` cannot be the zero address. - the caller must have a balance of at least `amount`."
      },
      "transferFrom(address,address,uint256)": {
        "details": "See {IERC20-transferFrom}. Emits an {Approval} event indicating the updated allowance. This is not required by the EIP. See the note at the beginning of {ERC20}. NOTE: Does not update the allowance if the current allowance is the maximum `uint256`. Requirements: - `from` and `to` cannot be the zero address. - `from` must have a balance of at least `amount`. - the caller must have allowance for ``from``'s tokens of at least `amount`."
      }
    },
    "version": 1
  },
  "userdoc": {
    "kind": "user",
    "methods": {},
    "version": 1
  }
}