{
  "contractName": "ERC4626Mock",
  "abi": [
    {
      "inputs": [
        {
          "internalType": "contract IERC20Metadata",
          "name": "asset",
          "type": "address"
        },
        {
          "internalType": "string",
          "name": "name",
          "type": "string"
        },
        {
          "internalType": "string",
          "name": "symbol",
          "type": "string"
        }
      ],
      "stateMutability": "nonpayable",
      "type": "constructor"
    },
    {
      "anonymous": false,
      "inputs": [
        {
          "indexed": true,
          "internalType": "address",
          "name": "owner",
          "type": "address"
        },
        {
          "indexed": true,
          "internalType": "address",
          "name": "spender",
          "type": "address"
        },
        {
          "indexed": false,
          "internalType": "uint256",
          "name": "value",
          "type": "uint256"
        }
      ],
      "name": "Approval",
      "type": "event"
    },
    {
      "anonymous": false,
      "inputs": [
        {
          "indexed": true,
          "internalType": "address",
          "name": "caller",
          "type": "address"
        },
        {
          "indexed": true,
          "internalType": "address",
          "name": "owner",
          "type": "address"
        },
        {
          "indexed": false,
          "internalType": "uint256",
          "name": "assets",
          "type": "uint256"
        },
        {
          "indexed": false,
          "internalType": "uint256",
          "name": "shares",
          "type": "uint256"
        }
      ],
      "name": "Deposit",
      "type": "event"
    },
    {
      "anonymous": false,
      "inputs": [
        {
          "indexed": true,
          "internalType": "address",
          "name": "from",
          "type": "address"
        },
        {
          "indexed": true,
          "internalType": "address",
          "name": "to",
          "type": "address"
        },
        {
          "indexed": false,
          "internalType": "uint256",
          "name": "value",
          "type": "uint256"
        }
      ],
      "name": "Transfer",
      "type": "event"
    },
    {
      "anonymous": false,
      "inputs": [
        {
          "indexed": true,
          "internalType": "address",
          "name": "caller",
          "type": "address"
        },
        {
          "indexed": true,
          "internalType": "address",
          "name": "receiver",
          "type": "address"
        },
        {
          "indexed": true,
          "internalType": "address",
          "name": "owner",
          "type": "address"
        },
        {
          "indexed": false,
          "internalType": "uint256",
          "name": "assets",
          "type": "uint256"
        },
        {
          "indexed": false,
          "internalType": "uint256",
          "name": "shares",
          "type": "uint256"
        }
      ],
      "name": "Withdraw",
      "type": "event"
    },
    {
      "inputs": [
        {
          "internalType": "address",
          "name": "owner",
          "type": "address"
        },
        {
          "internalType": "address",
          "name": "spender",
          "type": "address"
        }
      ],
      "name": "allowance",
      "outputs": [
        {
          "internalType": "uint256",
          "name": "",
          "type": "uint256"
        }
      ],
      "stateMutability": "view",
      "type": "function"
    },
    {
      "inputs": [
        {
          "internalType": "address",
          "name": "spender",
          "type": "address"
        },
        {
          "internalType": "uint256",
          "name": "amount",
          "type": "uint256"
        }
      ],
      "name": "approve",
      "outputs": [
        {
          "internalType": "bool",
          "name": "",
          "type": "bool"
        }
      ],
      "stateMutability": "nonpayable",
      "type": "function"
    },
    {
      "inputs": [],
      "name": "asset",
      "outputs": [
        {
          "internalType": "address",
          "name": "",
          "type": "address"
        }
      ],
      "stateMutability": "view",
      "type": "function"
    },
    {
      "inputs": [
        {
          "internalType": "address",
          "name": "account",
          "type": "address"
        }
      ],
      "name": "balanceOf",
      "outputs": [
        {
          "internalType": "uint256",
          "name": "",
          "type": "uint256"
        }
      ],
      "stateMutability": "view",
      "type": "function"
    },
    {
      "inputs": [
        {
          "internalType": "uint256",
          "name": "shares",
          "type": "uint256"
        }
      ],
      "name": "convertToAssets",
      "outputs": [
        {
          "internalType": "uint256",
          "name": "assets",
          "type": "uint256"
        }
      ],
      "stateMutability": "view",
      "type": "function"
    },
    {
      "inputs": [
        {
          "internalType": "uint256",
          "name": "assets",
          "type": "uint256"
        }
      ],
      "name": "convertToShares",
      "outputs": [
        {
          "internalType": "uint256",
          "name": "shares",
          "type": "uint256"
        }
      ],
      "stateMutability": "view",
      "type": "function"
    },
    {
      "inputs": [],
      "name": "decimals",
      "outputs": [
        {
          "internalType": "uint8",
          "name": "",
          "type": "uint8"
        }
      ],
      "stateMutability": "view",
      "type": "function"
    },
    {
      "inputs": [
        {
          "internalType": "address",
          "name": "spender",
          "type": "address"
        },
        {
          "internalType": "uint256",
          "name": "subtractedValue",
          "type": "uint256"
        }
      ],
      "name": "decreaseAllowance",
      "outputs": [
        {
          "internalType": "bool",
          "name": "",
          "type": "bool"
        }
      ],
      "stateMutability": "nonpayable",
      "type": "function"
    },
    {
      "inputs": [
        {
          "internalType": "uint256",
          "name": "assets",
          "type": "uint256"
        },
        {
          "internalType": "address",
          "name": "receiver",
          "type": "address"
        }
      ],
      "name": "deposit",
      "outputs": [
        {
          "internalType": "uint256",
          "name": "",
          "type": "uint256"
        }
      ],
      "stateMutability": "nonpayable",
      "type": "function"
    },
    {
      "inputs": [
        {
          "internalType": "address",
          "name": "spender",
          "type": "address"
        },
        {
          "internalType": "uint256",
          "name": "addedValue",
          "type": "uint256"
        }
      ],
      "name": "increaseAllowance",
      "outputs": [
        {
          "internalType": "bool",
          "name": "",
          "type": "bool"
        }
      ],
      "stateMutability": "nonpayable",
      "type": "function"
    },
    {
      "inputs": [
        {
          "internalType": "address",
          "name": "",
          "type": "address"
        }
      ],
      "name": "maxDeposit",
      "outputs": [
        {
          "internalType": "uint256",
          "name": "",
          "type": "uint256"
        }
      ],
      "stateMutability": "view",
      "type": "function"
    },
    {
      "inputs": [
        {
          "internalType": "address",
          "name": "",
          "type": "address"
        }
      ],
      "name": "maxMint",
      "outputs": [
        {
          "internalType": "uint256",
          "name": "",
          "type": "uint256"
        }
      ],
      "stateMutability": "view",
      "type": "function"
    },
    {
      "inputs": [
        {
          "internalType": "address",
          "name": "owner",
          "type": "address"
        }
      ],
      "name": "maxRedeem",
      "outputs": [
        {
          "internalType": "uint256",
          "name": "",
          "type": "uint256"
        }
      ],
      "stateMutability": "view",
      "type": "function"
    },
    {
      "inputs": [
        {
          "internalType": "address",
          "name": "owner",
          "type": "address"
        }
      ],
      "name": "maxWithdraw",
      "outputs": [
        {
          "internalType": "uint256",
          "name": "",
          "type": "uint256"
        }
      ],
      "stateMutability": "view",
      "type": "function"
    },
    {
      "inputs": [
        {
          "internalType": "uint256",
          "name": "shares",
          "type": "uint256"
        },
        {
          "internalType": "address",
          "name": "receiver",
          "type": "address"
        }
      ],
      "name": "mint",
      "outputs": [
        {
          "internalType": "uint256",
          "name": "",
          "type": "uint256"
        }
      ],
      "stateMutability": "nonpayable",
      "type": "function"
    },
    {
      "inputs": [],
      "name": "name",
      "outputs": [
        {
          "internalType": "string",
          "name": "",
          "type": "string"
        }
      ],
      "stateMutability": "view",
      "type": "function"
    },
    {
      "inputs": [
        {
          "internalType": "uint256",
          "name": "assets",
          "type": "uint256"
        }
      ],
      "name": "previewDeposit",
      "outputs": [
        {
          "internalType": "uint256",
          "name": "",
          "type": "uint256"
        }
      ],
      "stateMutability": "view",
      "type": "function"
    },
    {
      "inputs": [
        {
          "internalType": "uint256",
          "name": "shares",
          "type": "uint256"
        }
      ],
      "name": "previewMint",
      "outputs": [
        {
          "internalType": "uint256",
          "name": "",
          "type": "uint256"
        }
      ],
      "stateMutability": "view",
      "type": "function"
    },
    {
      "inputs": [
        {
          "internalType": "uint256",
          "name": "shares",
          "type": "uint256"
        }
      ],
      "name": "previewRedeem",
      "outputs": [
        {
          "internalType": "uint256",
          "name": "",
          "type": "uint256"
        }
      ],
      "stateMutability": "view",
      "type": "function"
    },
    {
      "inputs": [
        {
          "internalType": "uint256",
          "name": "assets",
          "type": "uint256"
        }
      ],
      "name": "previewWithdraw",
      "outputs": [
        {
          "internalType": "uint256",
          "name": "",
          "type": "uint256"
        }
      ],
      "stateMutability": "view",
      "type": "function"
    },
    {
      "inputs": [
        {
          "internalType": "uint256",
          "name": "shares",
          "type": "uint256"
        },
        {
          "internalType": "address",
          "name": "receiver",
          "type": "address"
        },
        {
          "internalType": "address",
          "name": "owner",
          "type": "address"
        }
      ],
      "name": "redeem",
      "outputs": [
        {
          "internalType": "uint256",
          "name": "",
          "type": "uint256"
        }
      ],
      "stateMutability": "nonpayable",
      "type": "function"
    },
    {
      "inputs": [],
      "name": "symbol",
      "outputs": [
        {
          "internalType": "string",
          "name": "",
          "type": "string"
        }
      ],
      "stateMutability": "view",
      "type": "function"
    },
    {
      "inputs": [],
      "name": "totalAssets",
      "outputs": [
        {
          "internalType": "uint256",
          "name": "",
          "type": "uint256"
        }
      ],
      "stateMutability": "view",
      "type": "function"
    },
    {
      "inputs": [],
      "name": "totalSupply",
      "outputs": [
        {
          "internalType": "uint256",
          "name": "",
          "type": "uint256"
        }
      ],
      "stateMutability": "view",
      "type": "function"
    },
    {
      "inputs": [
        {
          "internalType": "address",
          "name": "to",
          "type": "address"
        },
        {
          "internalType": "uint256",
          "name": "amount",
          "type": "uint256"
        }
      ],
      "name": "transfer",
      "outputs": [
        {
          "internalType": "bool",
          "name": "",
          "type": "bool"
        }
      ],
      "stateMutability": "nonpayable",
      "type": "function"
    },
    {
      "inputs": [
        {
          "internalType": "address",
          "name": "from",
          "type": "address"
        },
        {
          "internalType": "address",
          "name": "to",
          "type": "address"
        },
        {
          "internalType": "uint256",
          "name": "amount",
          "type": "uint256"
        }
      ],
      "name": "transferFrom",
      "outputs": [
        {
          "internalType": "bool",
          "name": "",
          "type": "bool"
        }
      ],
      "stateMutability": "nonpayable",
      "type": "function"
    },
    {
      "inputs": [
        {
          "internalType": "uint256",
          "name": "assets",
          "type": "uint256"
        },
        {
          "internalType": "address",
          "name": "receiver",
          "type": "address"
        },
        {
          "internalType": "address",
          "name": "owner",
          "type": "address"
        }
      ],
      "name": "withdraw",
      "outputs": [
        {
          "internalType": "uint256",
          "name": "",
          "type": "uint256"
        }
      ],
      "stateMutability": "nonpayable",
      "type": "function"
    },
    {
      "inputs": [
        {
          "internalType": "address",
          "name": "account",
          "type": "address"
        },
        {
          "internalType": "uint256",
          "name": "amount",
          "type": "uint256"
        }
      ],
      "name": "mockMint",
      "outputs": [],
      "stateMutability": "nonpayable",
      "type": "function"
    },
    {
      "inputs": [
        {
          "internalType": "address",
          "name": "account",
          "type": "address"
        },
        {
          "internalType": "uint256",
          "name": "amount",
          "type": "uint256"
        }
      ],
      "name": "mockBurn",
      "outputs": [],
      "stateMutability": "nonpayable",
      "type": "function"
    }
  ],
  "bytecode": "0x60a06040523480156200001157600080fd5b5060405162001b7838038062001b788339810160408190526200003491620001f1565b82828281600390805190602001906200004f9291906200007e565b508051620000659060049060208401906200007e565b5050506001600160a01b031660805250620002b7915050565b8280546200008c906200027b565b90600052602060002090601f016020900481019282620000b05760008555620000fb565b82601f10620000cb57805160ff1916838001178555620000fb565b82800160010185558215620000fb579182015b82811115620000fb578251825591602001919060010190620000de565b50620001099291506200010d565b5090565b5b808211156200010957600081556001016200010e565b634e487b7160e01b600052604160045260246000fd5b600082601f8301126200014c57600080fd5b81516001600160401b038082111562000169576200016962000124565b604051601f8301601f19908116603f0116810190828211818310171562000194576200019462000124565b81604052838152602092508683858801011115620001b157600080fd5b600091505b83821015620001d55785820183015181830184015290820190620001b6565b83821115620001e75760008385830101525b9695505050505050565b6000806000606084860312156200020757600080fd5b83516001600160a01b03811681146200021f57600080fd5b60208501519093506001600160401b03808211156200023d57600080fd5b6200024b878388016200013a565b935060408601519150808211156200026257600080fd5b5062000271868287016200013a565b9150509250925092565b600181811c908216806200029057607f821691505b602082108103620002b157634e487b7160e01b600052602260045260246000fd5b50919050565b608051611882620002f66000396000818161021e0152818161039c0152818161089401528181610a9501528181610f70015261103001526118826000f3fe608060405234801561001057600080fd5b506004361061015f5760003560e01c806301e1d1141461016457806306fdde031461017f57806307a2d13a14610194578063095ea7b3146101a75780630a28a477146101ca57806318160ddd146101dd57806323b872dd146101e5578063313ce567146101f8578063378934b41461020757806338d52e0f1461021c578063395093511461024a578063402d267d1461025d578063492dc938146102705780634cdad506146101945780636e553f651461028357806370a082311461029657806394bf804d146102a957806395d89b41146102bc578063a457c2d7146102c4578063a9059cbb146102d7578063b3d7f6b9146102ea578063b460af94146102fd578063ba08765214610310578063c63d75b614610323578063c6e6f59214610336578063ce96cb7714610349578063d905777e1461035c578063dd62ed3e1461036f578063ef8b30f714610336575b600080fd5b61016c610382565b6040519081526020015b60405180910390f35b610187610417565b6040516101769190611485565b61016c6101a23660046114b8565b6104a9565b6101ba6101b53660046114ed565b6104bc565b6040519015158152602001610176565b61016c6101d83660046114b8565b6104d4565b60025461016c565b6101ba6101f3366004611517565b6104e1565b60405160128152602001610176565b61021a6102153660046114ed565b610507565b005b7f00000000000000000000000000000000000000000000000000000000000000006040516101769190611553565b6101ba6102583660046114ed565b610515565b61016c61026b366004611567565b610537565b61021a61027e3660046114ed565b610555565b61016c610291366004611582565b61055f565b61016c6102a4366004611567565b6105d7565b61016c6102b7366004611582565b6105f2565b610187610663565b6101ba6102d23660046114ed565b610672565b6101ba6102e53660046114ed565b6106f8565b61016c6102f83660046114b8565b610706565b61016c61030b3660046115ae565b610713565b61016c61031e3660046115ae565b61078f565b61016c610331366004611567565b610803565b61016c6103443660046114b8565b61080a565b61016c610357366004611567565b610817565b61016c61036a366004611567565b61082c565b61016c61037d3660046115ea565b610837565b6040516370a0823160e01b81526000906001600160a01b037f000000000000000000000000000000000000000000000000000000000000000016906370a08231906103d1903090600401611553565b602060405180830381865afa1580156103ee573d6000803e3d6000fd5b505050506040513d601f19601f820116820180604052508101906104129190611614565b905090565b6060600380546104269061162d565b80601f01602080910402602001604051908101604052809291908181526020018280546104529061162d565b801561049f5780601f106104745761010080835404028352916020019161049f565b820191906000526020600020905b81548152906001019060200180831161048257829003601f168201915b5050505050905090565b60006104b6826000610862565b92915050565b6000336104ca818585610936565b5060019392505050565b60006104b6826001610a5b565b6000336104ef858285610b15565b6104fa858585610b8f565b60019150505b9392505050565b6105118282610d4b565b5050565b6000336104ca8185856105288383610837565b610532919061167d565b610936565b6000610541610e18565b61054c5760006104b6565b60001992915050565b6105118282610e32565b600061056a82610537565b8311156105be5760405162461bcd60e51b815260206004820152601e60248201527f455243343632363a206465706f736974206d6f7265207468616e206d6178000060448201526064015b60405180910390fd5b60006105c98461080a565b905061050033848684610f6b565b6001600160a01b031660009081526020819052604090205490565b60006105fd82610803565b83111561064a5760405162461bcd60e51b815260206004820152601b60248201527a08aa486686c646c7440dad2dce840dadee4ca40e8d0c2dc40dac2f602b1b60448201526064016105b5565b600061065584610706565b905061050033848387610f6b565b6060600480546104269061162d565b600033816106808286610837565b9050838110156106e05760405162461bcd60e51b815260206004820152602560248201527f45524332303a2064656372656173656420616c6c6f77616e63652062656c6f77604482015264207a65726f60d81b60648201526084016105b5565b6106ed8286868403610936565b506001949350505050565b6000336104ca818585610b8f565b60006104b6826001610862565b600061071e82610817565b84111561076d5760405162461bcd60e51b815260206004820152601f60248201527f455243343632363a207769746864726177206d6f7265207468616e206d61780060448201526064016105b5565b6000610778856104d4565b90506107873385858885610ffd565b949350505050565b600061079a8261082c565b8411156107e95760405162461bcd60e51b815260206004820152601d60248201527f455243343632363a2072656465656d206d6f7265207468616e206d617800000060448201526064016105b5565b60006107f4856104a9565b90506107873385858489610ffd565b5060001990565b60006104b6826000610a5b565b60006104b6610825836105d7565b6000610862565b60006104b6826105d7565b6001600160a01b03918216600090815260016020908152604080832093909416825291909152205490565b60008061086e60025490565b9050801561088f5761088a610881610382565b859083866110bd565b610787565b6107877f00000000000000000000000000000000000000000000000000000000000000006001600160a01b031663313ce5676040518163ffffffff1660e01b8152600401602060405180830381865afa1580156108f0573d6000803e3d6000fd5b505050506040513d601f19601f820116820180604052508101906109149190611695565b61091f90600a61179c565b60125b61092d90600a61179c565b869190866110bd565b6001600160a01b0383166109985760405162461bcd60e51b8152602060048201526024808201527f45524332303a20617070726f76652066726f6d20746865207a65726f206164646044820152637265737360e01b60648201526084016105b5565b6001600160a01b0382166109f95760405162461bcd60e51b815260206004820152602260248201527f45524332303a20617070726f766520746f20746865207a65726f206164647265604482015261737360f01b60648201526084016105b5565b6001600160a01b0383811660008181526001602090815260408083209487168084529482529182902085905590518481527f8c5be1e5ebec7d5bd14f71427d1e84f3dd0314c0f7b2291e5b200ac8c7c3b92591015b60405180910390a3505050565b600080610a6760025490565b9050831580610a74575080155b610a845761088a8161092d610382565b610787610a936012600a61179c565b7f00000000000000000000000000000000000000000000000000000000000000006001600160a01b031663313ce5676040518163ffffffff1660e01b8152600401602060405180830381865afa158015610af1573d6000803e3d6000fd5b505050506040513d601f19601f820116820180604052508101906109229190611695565b6000610b218484610837565b90506000198114610b895781811015610b7c5760405162461bcd60e51b815260206004820152601d60248201527f45524332303a20696e73756666696369656e7420616c6c6f77616e636500000060448201526064016105b5565b610b898484848403610936565b50505050565b6001600160a01b038316610bf35760405162461bcd60e51b815260206004820152602560248201527f45524332303a207472616e736665722066726f6d20746865207a65726f206164604482015264647265737360d81b60648201526084016105b5565b6001600160a01b038216610c555760405162461bcd60e51b815260206004820152602360248201527f45524332303a207472616e7366657220746f20746865207a65726f206164647260448201526265737360e81b60648201526084016105b5565b6001600160a01b03831660009081526020819052604090205481811015610ccd5760405162461bcd60e51b815260206004820152602660248201527f45524332303a207472616e7366657220616d6f756e7420657863656564732062604482015265616c616e636560d01b60648201526084016105b5565b6001600160a01b03808516600090815260208190526040808220858503905591851681529081208054849290610d0490849061167d565b92505081905550826001600160a01b0316846001600160a01b031660008051602061182d83398151915284604051610d3e91815260200190565b60405180910390a3610b89565b6001600160a01b038216610da15760405162461bcd60e51b815260206004820152601f60248201527f45524332303a206d696e7420746f20746865207a65726f20616464726573730060448201526064016105b5565b8060026000828254610db3919061167d565b90915550506001600160a01b03821660009081526020819052604081208054839290610de090849061167d565b90915550506040518181526001600160a01b0383169060009060008051602061182d8339815191529060200160405180910390a35050565b600080610e23610382565b11806104125750506002541590565b6001600160a01b038216610e925760405162461bcd60e51b815260206004820152602160248201527f45524332303a206275726e2066726f6d20746865207a65726f206164647265736044820152607360f81b60648201526084016105b5565b6001600160a01b03821660009081526020819052604090205481811015610f065760405162461bcd60e51b815260206004820152602260248201527f45524332303a206275726e20616d6f756e7420657863656564732062616c616e604482015261636560f01b60648201526084016105b5565b6001600160a01b0383166000908152602081905260408120838303905560028054849290610f359084906117ab565b90915550506040518281526000906001600160a01b0385169060008051602061182d83398151915290602001610a4e565b505050565b610f977f000000000000000000000000000000000000000000000000000000000000000085308561111a565b610fa18382610d4b565b826001600160a01b0316846001600160a01b03167fdcbc1c05240f31ff3ad067ef1ee35ce4997762752e3a095284754544f4c709d78484604051610fef929190918252602082015260400190565b60405180910390a350505050565b826001600160a01b0316856001600160a01b03161461102157611021838683610b15565b61102b8382610e32565b6110567f00000000000000000000000000000000000000000000000000000000000000008584611185565b826001600160a01b0316846001600160a01b0316866001600160a01b03167ffbde797d201c681b91056529119e0b02407c7bb96a4a2c75c01fc9667232c8db85856040516110ae929190918252602082015260400190565b60405180910390a45050505050565b6000806110cb8686866111b5565b905060018360028111156110e1576110e16117c2565b1480156110fe5750600084806110f9576110f96117d8565b868809115b156111115761110e60018261167d565b90505b95945050505050565b6040516001600160a01b0380851660248301528316604482015260648101829052610b899085906323b872dd60e01b906084015b60408051601f198184030181529190526020810180516001600160e01b03166001600160e01b031990931692909217909152611264565b6040516001600160a01b038316602482015260448101829052610f6690849063a9059cbb60e01b9060640161114e565b60008080600019858709858702925082811083820303915050806000036111ef578382816111e5576111e56117d8565b0492505050610500565b8084116111fb57600080fd5b60008486880960026001871981018816978890046003810283188082028403028082028403028082028403028082028403028082028403029081029092039091026000889003889004909101858311909403939093029303949094049190911702949350505050565b60006112b9826040518060400160405280602081526020017f5361666545524332303a206c6f772d6c6576656c2063616c6c206661696c6564815250856001600160a01b03166113369092919063ffffffff16565b805190915015610f6657808060200190518101906112d791906117ee565b610f665760405162461bcd60e51b815260206004820152602a60248201527f5361666545524332303a204552433230206f7065726174696f6e20646964206e6044820152691bdd081cdd58d8d9595960b21b60648201526084016105b5565b6060610787848460008585600080866001600160a01b0316858760405161135d9190611810565b60006040518083038185875af1925050503d806000811461139a576040519150601f19603f3d011682016040523d82523d6000602084013e61139f565b606091505b50915091506113b0878383876113bb565b979650505050505050565b6060831561142a578251600003611423576001600160a01b0385163b6114235760405162461bcd60e51b815260206004820152601d60248201527f416464726573733a2063616c6c20746f206e6f6e2d636f6e747261637400000060448201526064016105b5565b5081610787565b610787838381511561143f5781518083602001fd5b8060405162461bcd60e51b81526004016105b59190611485565b60005b8381101561147457818101518382015260200161145c565b83811115610b895750506000910152565b60208152600082518060208401526114a4816040850160208701611459565b601f01601f19169190910160400192915050565b6000602082840312156114ca57600080fd5b5035919050565b80356001600160a01b03811681146114e857600080fd5b919050565b6000806040838503121561150057600080fd5b611509836114d1565b946020939093013593505050565b60008060006060848603121561152c57600080fd5b611535846114d1565b9250611543602085016114d1565b9150604084013590509250925092565b6001600160a01b0391909116815260200190565b60006020828403121561157957600080fd5b610500826114d1565b6000806040838503121561159557600080fd5b823591506115a5602084016114d1565b90509250929050565b6000806000606084860312156115c357600080fd5b833592506115d3602085016114d1565b91506115e1604085016114d1565b90509250925092565b600080604083850312156115fd57600080fd5b611606836114d1565b91506115a5602084016114d1565b60006020828403121561162657600080fd5b5051919050565b600181811c9082168061164157607f821691505b60208210810361166157634e487b7160e01b600052602260045260246000fd5b50919050565b634e487b7160e01b600052601160045260246000fd5b6000821982111561169057611690611667565b500190565b6000602082840312156116a757600080fd5b815160ff8116811461050057600080fd5b600181815b808511156116f35781600019048211156116d9576116d9611667565b808516156116e657918102915b93841c93908002906116bd565b509250929050565b60008261170a575060016104b6565b81611717575060006104b6565b816001811461172d576002811461173757611753565b60019150506104b6565b60ff84111561174857611748611667565b50506001821b6104b6565b5060208310610133831016604e8410600b8410161715611776575081810a6104b6565b61178083836116b8565b806000190482111561179457611794611667565b029392505050565b600061050060ff8416836116fb565b6000828210156117bd576117bd611667565b500390565b634e487b7160e01b600052602160045260246000fd5b634e487b7160e01b600052601260045260246000fd5b60006020828403121561180057600080fd5b8151801515811461050057600080fd5b60008251611822818460208701611459565b919091019291505056feddf252ad1be2c89b69c2b068fc378daa952ba7f163c4a11628f55a4df523b3efa2646970667358221220d6f78f6d6a188e5715a8c9b6d6fd2b301d8cd71c8778b48a94931a2cf202c23564736f6c634300080e0033",
  "immutableReferences": {
    "25817": [
      {
        "length": 32,
        "start": 542
      },
      {
        "length": 32,
        "start": 924
      },
      {
        "length": 32,
        "start": 2196
      },
      {
        "length": 32,
        "start": 2709
      },
      {
        "length": 32,
        "start": 3952
      },
      {
        "length": 32,
        "start": 4144
      }
    ]
  },
  "source": "// SPDX-License-Identifier: MIT\r\n\r\npragma solidity ^0.8.0;\r\n\r\nimport \"../token/ERC20/extensions/ERC4626.sol\";\r\n\r\n// mock class using ERC20\r\ncontract ERC4626Mock is ERC4626 {\r\n    constructor(\r\n        IERC20Metadata asset,\r\n        string memory name,\r\n        string memory symbol\r\n    ) ERC20(name, symbol) ERC4626(asset) {}\r\n\r\n    function mockMint(address account, uint256 amount) public {\r\n        _mint(account, amount);\r\n    }\r\n\r\n    function mockBurn(address account, uint256 amount) public {\r\n        _burn(account, amount);\r\n    }\r\n}\r\n",
  "sourcePath": "D:\\work\\www\\yopu_dapp_nft\\contracts\\lib\\openzeppelin\\contracts\\mocks\\ERC4626Mock.sol",
  "compiler": {
    "name": "solc",
    "version": "0.8.14+commit.80d49f37.Emscripten.clang"
  },
  "schemaVersion": "3.4.7",
  "updatedAt": "2022-06-28T15:05:47.576Z",
  "devdoc": {
    "kind": "dev",
    "methods": {
      "allowance(address,address)": {
        "details": "See {IERC20-allowance}."
      },
      "approve(address,uint256)": {
        "details": "See {IERC20-approve}. NOTE: If `amount` is the maximum `uint256`, the allowance is not updated on `transferFrom`. This is semantically equivalent to an infinite approval. Requirements: - `spender` cannot be the zero address."
      },
      "asset()": {
        "details": "See {IERC4262-asset}. "
      },
      "balanceOf(address)": {
        "details": "See {IERC20-balanceOf}."
      },
      "convertToAssets(uint256)": {
        "details": "See {IERC4262-convertToAssets}. "
      },
      "convertToShares(uint256)": {
        "details": "See {IERC4262-convertToShares}. "
      },
      "decimals()": {
        "details": "Returns the number of decimals used to get its user representation. For example, if `decimals` equals `2`, a balance of `505` tokens should be displayed to a user as `5.05` (`505 / 10 ** 2`). Tokens usually opt for a value of 18, imitating the relationship between Ether and Wei. This is the value {ERC20} uses, unless this function is overridden; NOTE: This information is only used for _display_ purposes: it in no way affects any of the arithmetic of the contract, including {IERC20-balanceOf} and {IERC20-transfer}."
      },
      "decreaseAllowance(address,uint256)": {
        "details": "Atomically decreases the allowance granted to `spender` by the caller. This is an alternative to {approve} that can be used as a mitigation for problems described in {IERC20-approve}. Emits an {Approval} event indicating the updated allowance. Requirements: - `spender` cannot be the zero address. - `spender` must have allowance for the caller of at least `subtractedValue`."
      },
      "deposit(uint256,address)": {
        "details": "See {IERC4262-deposit}. "
      },
      "increaseAllowance(address,uint256)": {
        "details": "Atomically increases the allowance granted to `spender` by the caller. This is an alternative to {approve} that can be used as a mitigation for problems described in {IERC20-approve}. Emits an {Approval} event indicating the updated allowance. Requirements: - `spender` cannot be the zero address."
      },
      "maxDeposit(address)": {
        "details": "See {IERC4262-maxDeposit}. "
      },
      "maxMint(address)": {
        "details": "See {IERC4262-maxMint}. "
      },
      "maxRedeem(address)": {
        "details": "See {IERC4262-maxRedeem}. "
      },
      "maxWithdraw(address)": {
        "details": "See {IERC4262-maxWithdraw}. "
      },
      "mint(uint256,address)": {
        "details": "See {IERC4262-mint}. "
      },
      "name()": {
        "details": "Returns the name of the token."
      },
      "previewDeposit(uint256)": {
        "details": "See {IERC4262-previewDeposit}. "
      },
      "previewMint(uint256)": {
        "details": "See {IERC4262-previewMint}. "
      },
      "previewRedeem(uint256)": {
        "details": "See {IERC4262-previewRedeem}. "
      },
      "previewWithdraw(uint256)": {
        "details": "See {IERC4262-previewWithdraw}. "
      },
      "redeem(uint256,address,address)": {
        "details": "See {IERC4262-redeem}. "
      },
      "symbol()": {
        "details": "Returns the symbol of the token, usually a shorter version of the name."
      },
      "totalAssets()": {
        "details": "See {IERC4262-totalAssets}. "
      },
      "totalSupply()": {
        "details": "See {IERC20-totalSupply}."
      },
      "transfer(address,uint256)": {
        "details": "See {IERC20-transfer}. Requirements: - `to` cannot be the zero address. - the caller must have a balance of at least `amount`."
      },
      "transferFrom(address,address,uint256)": {
        "details": "See {IERC20-transferFrom}. Emits an {Approval} event indicating the updated allowance. This is not required by the EIP. See the note at the beginning of {ERC20}. NOTE: Does not update the allowance if the current allowance is the maximum `uint256`. Requirements: - `from` and `to` cannot be the zero address. - `from` must have a balance of at least `amount`. - the caller must have allowance for ``from``'s tokens of at least `amount`."
      },
      "withdraw(uint256,address,address)": {
        "details": "See {IERC4262-withdraw}. "
      }
    },
    "version": 1
  },
  "userdoc": {
    "kind": "user",
    "methods": {},
    "version": 1
  }
}