{
  "contractName": "ERC777",
  "abi": [
    {
      "inputs": [
        {
          "internalType": "string",
          "name": "name_",
          "type": "string"
        },
        {
          "internalType": "string",
          "name": "symbol_",
          "type": "string"
        },
        {
          "internalType": "address[]",
          "name": "defaultOperators_",
          "type": "address[]"
        }
      ],
      "stateMutability": "nonpayable",
      "type": "constructor"
    },
    {
      "anonymous": false,
      "inputs": [
        {
          "indexed": true,
          "internalType": "address",
          "name": "owner",
          "type": "address"
        },
        {
          "indexed": true,
          "internalType": "address",
          "name": "spender",
          "type": "address"
        },
        {
          "indexed": false,
          "internalType": "uint256",
          "name": "value",
          "type": "uint256"
        }
      ],
      "name": "Approval",
      "type": "event"
    },
    {
      "anonymous": false,
      "inputs": [
        {
          "indexed": true,
          "internalType": "address",
          "name": "operator",
          "type": "address"
        },
        {
          "indexed": true,
          "internalType": "address",
          "name": "tokenHolder",
          "type": "address"
        }
      ],
      "name": "AuthorizedOperator",
      "type": "event"
    },
    {
      "anonymous": false,
      "inputs": [
        {
          "indexed": true,
          "internalType": "address",
          "name": "operator",
          "type": "address"
        },
        {
          "indexed": true,
          "internalType": "address",
          "name": "from",
          "type": "address"
        },
        {
          "indexed": false,
          "internalType": "uint256",
          "name": "amount",
          "type": "uint256"
        },
        {
          "indexed": false,
          "internalType": "bytes",
          "name": "data",
          "type": "bytes"
        },
        {
          "indexed": false,
          "internalType": "bytes",
          "name": "operatorData",
          "type": "bytes"
        }
      ],
      "name": "Burned",
      "type": "event"
    },
    {
      "anonymous": false,
      "inputs": [
        {
          "indexed": true,
          "internalType": "address",
          "name": "operator",
          "type": "address"
        },
        {
          "indexed": true,
          "internalType": "address",
          "name": "to",
          "type": "address"
        },
        {
          "indexed": false,
          "internalType": "uint256",
          "name": "amount",
          "type": "uint256"
        },
        {
          "indexed": false,
          "internalType": "bytes",
          "name": "data",
          "type": "bytes"
        },
        {
          "indexed": false,
          "internalType": "bytes",
          "name": "operatorData",
          "type": "bytes"
        }
      ],
      "name": "Minted",
      "type": "event"
    },
    {
      "anonymous": false,
      "inputs": [
        {
          "indexed": true,
          "internalType": "address",
          "name": "operator",
          "type": "address"
        },
        {
          "indexed": true,
          "internalType": "address",
          "name": "tokenHolder",
          "type": "address"
        }
      ],
      "name": "RevokedOperator",
      "type": "event"
    },
    {
      "anonymous": false,
      "inputs": [
        {
          "indexed": true,
          "internalType": "address",
          "name": "operator",
          "type": "address"
        },
        {
          "indexed": true,
          "internalType": "address",
          "name": "from",
          "type": "address"
        },
        {
          "indexed": true,
          "internalType": "address",
          "name": "to",
          "type": "address"
        },
        {
          "indexed": false,
          "internalType": "uint256",
          "name": "amount",
          "type": "uint256"
        },
        {
          "indexed": false,
          "internalType": "bytes",
          "name": "data",
          "type": "bytes"
        },
        {
          "indexed": false,
          "internalType": "bytes",
          "name": "operatorData",
          "type": "bytes"
        }
      ],
      "name": "Sent",
      "type": "event"
    },
    {
      "anonymous": false,
      "inputs": [
        {
          "indexed": true,
          "internalType": "address",
          "name": "from",
          "type": "address"
        },
        {
          "indexed": true,
          "internalType": "address",
          "name": "to",
          "type": "address"
        },
        {
          "indexed": false,
          "internalType": "uint256",
          "name": "value",
          "type": "uint256"
        }
      ],
      "name": "Transfer",
      "type": "event"
    },
    {
      "inputs": [],
      "name": "name",
      "outputs": [
        {
          "internalType": "string",
          "name": "",
          "type": "string"
        }
      ],
      "stateMutability": "view",
      "type": "function"
    },
    {
      "inputs": [],
      "name": "symbol",
      "outputs": [
        {
          "internalType": "string",
          "name": "",
          "type": "string"
        }
      ],
      "stateMutability": "view",
      "type": "function"
    },
    {
      "inputs": [],
      "name": "decimals",
      "outputs": [
        {
          "internalType": "uint8",
          "name": "",
          "type": "uint8"
        }
      ],
      "stateMutability": "pure",
      "type": "function"
    },
    {
      "inputs": [],
      "name": "granularity",
      "outputs": [
        {
          "internalType": "uint256",
          "name": "",
          "type": "uint256"
        }
      ],
      "stateMutability": "view",
      "type": "function"
    },
    {
      "inputs": [],
      "name": "totalSupply",
      "outputs": [
        {
          "internalType": "uint256",
          "name": "",
          "type": "uint256"
        }
      ],
      "stateMutability": "view",
      "type": "function"
    },
    {
      "inputs": [
        {
          "internalType": "address",
          "name": "tokenHolder",
          "type": "address"
        }
      ],
      "name": "balanceOf",
      "outputs": [
        {
          "internalType": "uint256",
          "name": "",
          "type": "uint256"
        }
      ],
      "stateMutability": "view",
      "type": "function"
    },
    {
      "inputs": [
        {
          "internalType": "address",
          "name": "recipient",
          "type": "address"
        },
        {
          "internalType": "uint256",
          "name": "amount",
          "type": "uint256"
        },
        {
          "internalType": "bytes",
          "name": "data",
          "type": "bytes"
        }
      ],
      "name": "send",
      "outputs": [],
      "stateMutability": "nonpayable",
      "type": "function"
    },
    {
      "inputs": [
        {
          "internalType": "address",
          "name": "recipient",
          "type": "address"
        },
        {
          "internalType": "uint256",
          "name": "amount",
          "type": "uint256"
        }
      ],
      "name": "transfer",
      "outputs": [
        {
          "internalType": "bool",
          "name": "",
          "type": "bool"
        }
      ],
      "stateMutability": "nonpayable",
      "type": "function"
    },
    {
      "inputs": [
        {
          "internalType": "uint256",
          "name": "amount",
          "type": "uint256"
        },
        {
          "internalType": "bytes",
          "name": "data",
          "type": "bytes"
        }
      ],
      "name": "burn",
      "outputs": [],
      "stateMutability": "nonpayable",
      "type": "function"
    },
    {
      "inputs": [
        {
          "internalType": "address",
          "name": "operator",
          "type": "address"
        },
        {
          "internalType": "address",
          "name": "tokenHolder",
          "type": "address"
        }
      ],
      "name": "isOperatorFor",
      "outputs": [
        {
          "internalType": "bool",
          "name": "",
          "type": "bool"
        }
      ],
      "stateMutability": "view",
      "type": "function"
    },
    {
      "inputs": [
        {
          "internalType": "address",
          "name": "operator",
          "type": "address"
        }
      ],
      "name": "authorizeOperator",
      "outputs": [],
      "stateMutability": "nonpayable",
      "type": "function"
    },
    {
      "inputs": [
        {
          "internalType": "address",
          "name": "operator",
          "type": "address"
        }
      ],
      "name": "revokeOperator",
      "outputs": [],
      "stateMutability": "nonpayable",
      "type": "function"
    },
    {
      "inputs": [],
      "name": "defaultOperators",
      "outputs": [
        {
          "internalType": "address[]",
          "name": "",
          "type": "address[]"
        }
      ],
      "stateMutability": "view",
      "type": "function"
    },
    {
      "inputs": [
        {
          "internalType": "address",
          "name": "sender",
          "type": "address"
        },
        {
          "internalType": "address",
          "name": "recipient",
          "type": "address"
        },
        {
          "internalType": "uint256",
          "name": "amount",
          "type": "uint256"
        },
        {
          "internalType": "bytes",
          "name": "data",
          "type": "bytes"
        },
        {
          "internalType": "bytes",
          "name": "operatorData",
          "type": "bytes"
        }
      ],
      "name": "operatorSend",
      "outputs": [],
      "stateMutability": "nonpayable",
      "type": "function"
    },
    {
      "inputs": [
        {
          "internalType": "address",
          "name": "account",
          "type": "address"
        },
        {
          "internalType": "uint256",
          "name": "amount",
          "type": "uint256"
        },
        {
          "internalType": "bytes",
          "name": "data",
          "type": "bytes"
        },
        {
          "internalType": "bytes",
          "name": "operatorData",
          "type": "bytes"
        }
      ],
      "name": "operatorBurn",
      "outputs": [],
      "stateMutability": "nonpayable",
      "type": "function"
    },
    {
      "inputs": [
        {
          "internalType": "address",
          "name": "holder",
          "type": "address"
        },
        {
          "internalType": "address",
          "name": "spender",
          "type": "address"
        }
      ],
      "name": "allowance",
      "outputs": [
        {
          "internalType": "uint256",
          "name": "",
          "type": "uint256"
        }
      ],
      "stateMutability": "view",
      "type": "function"
    },
    {
      "inputs": [
        {
          "internalType": "address",
          "name": "spender",
          "type": "address"
        },
        {
          "internalType": "uint256",
          "name": "value",
          "type": "uint256"
        }
      ],
      "name": "approve",
      "outputs": [
        {
          "internalType": "bool",
          "name": "",
          "type": "bool"
        }
      ],
      "stateMutability": "nonpayable",
      "type": "function"
    },
    {
      "inputs": [
        {
          "internalType": "address",
          "name": "holder",
          "type": "address"
        },
        {
          "internalType": "address",
          "name": "recipient",
          "type": "address"
        },
        {
          "internalType": "uint256",
          "name": "amount",
          "type": "uint256"
        }
      ],
      "name": "transferFrom",
      "outputs": [
        {
          "internalType": "bool",
          "name": "",
          "type": "bool"
        }
      ],
      "stateMutability": "nonpayable",
      "type": "function"
    }
  ],
  "bytecode": "0x60806040523480156200001157600080fd5b5060405162001b8738038062001b878339810160408190526200003491620003ed565b82516200004990600290602086019062000211565b5081516200005f90600390602085019062000211565b50805162000075906004906020840190620002a0565b5060005b8151811015620000e5576001600560008484815181106200009e576200009e62000504565b6020908102919091018101516001600160a01b03168252810191909152604001600020805460ff191691151591909117905580620000dc816200051a565b91505062000079565b506040516329965a1d60e01b8152731820a4b7618bde71dce8cdc73aab6c95905fad24906329965a1d90620001439030907fac7fbab5f54a3ca8194167523c6753bfeb96a445279294b6125b68cce217705490829060040162000542565b600060405180830381600087803b1580156200015e57600080fd5b505af115801562000173573d6000803e3d6000fd5b50506040516329965a1d60e01b8152731820a4b7618bde71dce8cdc73aab6c95905fad2492506329965a1d9150620001d49030907faea199e31a596269b42cdafd93407f14436db6e4cad65417994c2eb37381e05a90829060040162000542565b600060405180830381600087803b158015620001ef57600080fd5b505af115801562000204573d6000803e3d6000fd5b50505050505050620005a1565b8280546200021f9062000565565b90600052602060002090601f0160209004810192826200024357600085556200028e565b82601f106200025e57805160ff19168380011785556200028e565b828001600101855582156200028e579182015b828111156200028e57825182559160200191906001019062000271565b506200029c929150620002f8565b5090565b8280548282559060005260206000209081019282156200028e579160200282015b828111156200028e57825182546001600160a01b0319166001600160a01b03909116178255602090920191600190910190620002c1565b5b808211156200029c5760008155600101620002f9565b634e487b7160e01b600052604160045260246000fd5b604051601f8201601f191681016001600160401b03811182821017156200035057620003506200030f565b604052919050565b600082601f8301126200036a57600080fd5b81516001600160401b038111156200038657620003866200030f565b60206200039c601f8301601f1916820162000325565b8281528582848701011115620003b157600080fd5b60005b83811015620003d1578581018301518282018401528201620003b4565b83811115620003e35760008385840101525b5095945050505050565b6000806000606084860312156200040357600080fd5b83516001600160401b03808211156200041b57600080fd5b620004298783880162000358565b94506020915081860151818111156200044157600080fd5b6200044f8882890162000358565b9450506040860151818111156200046557600080fd5b8601601f810188136200047757600080fd5b8051828111156200048c576200048c6200030f565b8060051b92506200049f84840162000325565b818152928201840192848101908a851115620004ba57600080fd5b928501925b84841015620004f457835192506001600160a01b0383168314620004e35760008081fd5b8282529285019290850190620004bf565b8096505050505050509250925092565b634e487b7160e01b600052603260045260246000fd5b6000600182016200053b57634e487b7160e01b600052601160045260246000fd5b5060010190565b6001600160a01b0393841681526020810192909252909116604082015260600190565b600181811c908216806200057a57607f821691505b6020821081036200059b57634e487b7160e01b600052602260045260246000fd5b50919050565b6115d680620005b16000396000f3fe608060405234801561001057600080fd5b50600436106100e65760003560e01c806306e48538146100eb57806306fdde0314610109578063095ea7b31461011e57806318160ddd1461014157806323b872dd14610153578063313ce56714610166578063556f0dc71461017557806362ad1b831461017c57806370a0823114610191578063959b8c3f146101ba57806395d89b41146101cd5780639bd9bbc6146101d5578063a9059cbb146101e8578063d95b6371146101fb578063dd62ed3e1461020e578063fad8b32a14610221578063fc673c4f14610234578063fe9d930314610247575b600080fd5b6100f361025a565b6040516101009190611017565b60405180910390f35b6101116102bc565b60405161010091906110b1565b61013161012c3660046110dc565b610345565b6040519015158152602001610100565b6001545b604051908152602001610100565b610131610161366004611108565b61035d565b60405160128152602001610100565b6001610145565b61018f61018a3660046111eb565b6103a3565b005b61014561019f36600461127d565b6001600160a01b031660009081526020819052604090205490565b61018f6101c836600461127d565b6103e8565b610111610505565b61018f6101e336600461129a565b610514565b6101316101f63660046110dc565b610537565b6101316102093660046112f2565b61056f565b61014561021c3660046112f2565b610611565b61018f61022f36600461127d565b61063c565b61018f61024236600461132b565b610757565b61018f6102553660046113aa565b61078f565b606060048054806020026020016040519081016040528092919081815260200182805480156102b257602002820191906000526020600020905b81546001600160a01b03168152600190910190602001808311610294575b5050505050905090565b6060600280546102cb906113f0565b80601f01602080910402602001604051908101604052809291908181526020018280546102f7906113f0565b80156102b25780601f10610319576101008083540402835291602001916102b2565b820191906000526020600020905b81548152906001019060200180831161032757509395945050505050565b6000336103538185856107ae565b5060019392505050565b60003361036b8582856108d5565b61039885858560405180602001604052806000815250604051806020016040528060008152506000610949565b506001949350505050565b6103ad338661056f565b6103d25760405162461bcd60e51b81526004016103c99061142a565b60405180910390fd5b6103e185858585856001610949565b5050505050565b6001600160a01b038116330361044c5760405162461bcd60e51b8152602060048201526024808201527f4552433737373a20617574686f72697a696e672073656c66206173206f70657260448201526330ba37b960e11b60648201526084016103c9565b6001600160a01b03811660009081526005602052604090205460ff161561049d573360009081526007602090815260408083206001600160a01b03851684529091529020805460ff191690556104cc565b3360009081526006602090815260408083206001600160a01b03851684529091529020805460ff191660011790555b60405133906001600160a01b038316907ff4caeb2d6ca8932a215a353d0703c326ec2d81fc68170f320eb2ab49e9df61f990600090a350565b6060600380546102cb906113f0565b61053233848484604051806020016040528060008152506001610949565b505050565b600061056633848460405180602001604052806000815250604051806020016040528060008152506000610949565b50600192915050565b6000816001600160a01b0316836001600160a01b031614806105da57506001600160a01b03831660009081526005602052604090205460ff1680156105da57506001600160a01b0380831660009081526007602090815260408083209387168352929052205460ff16155b8061060a57506001600160a01b0380831660009081526006602090815260408083209387168352929052205460ff165b9392505050565b6001600160a01b03918216600090815260086020908152604080832093909416825291909152205490565b336001600160a01b0382160361069e5760405162461bcd60e51b815260206004820152602160248201527f4552433737373a207265766f6b696e672073656c66206173206f70657261746f6044820152603960f91b60648201526084016103c9565b6001600160a01b03811660009081526005602052604090205460ff16156106f2573360009081526007602090815260408083206001600160a01b03851684529091529020805460ff1916600117905561071e565b3360009081526006602090815260408083206001600160a01b03851684529091529020805460ff191690555b60405133906001600160a01b038316907f50546e66e5f44d728365dc3908c63bc5cfeeab470722c1677e3073a6ac294aa190600090a350565b610761338561056f565b61077d5760405162461bcd60e51b81526004016103c99061142a565b61078984848484610a45565b50505050565b6107aa33838360405180602001604052806000815250610a45565b5050565b6001600160a01b0383166108125760405162461bcd60e51b815260206004820152602560248201527f4552433737373a20617070726f76652066726f6d20746865207a65726f206164604482015264647265737360d81b60648201526084016103c9565b6001600160a01b0382166108745760405162461bcd60e51b815260206004820152602360248201527f4552433737373a20617070726f766520746f20746865207a65726f206164647260448201526265737360e81b60648201526084016103c9565b6001600160a01b0383811660008181526008602090815260408083209487168084529482529182902085905590518481527f8c5be1e5ebec7d5bd14f71427d1e84f3dd0314c0f7b2291e5b200ac8c7c3b925910160405180910390a3505050565b60006108e18484610611565b90506000198114610789578181101561093c5760405162461bcd60e51b815260206004820152601e60248201527f4552433737373a20696e73756666696369656e7420616c6c6f77616e6365000060448201526064016103c9565b61078984848484036107ae565b6001600160a01b0386166109ae5760405162461bcd60e51b815260206004820152602660248201527f4552433737373a207472616e736665722066726f6d20746865207a65726f206160448201526564647265737360d01b60648201526084016103c9565b6001600160a01b038516610a105760405162461bcd60e51b8152602060048201526024808201527f4552433737373a207472616e7366657220746f20746865207a65726f206164646044820152637265737360e01b60648201526084016103c9565b33610a1f818888888888610be7565b610a2d818888888888610d06565b610a3c81888888888888610e5a565b50505050505050565b6001600160a01b038416610aa65760405162461bcd60e51b815260206004820152602260248201527f4552433737373a206275726e2066726f6d20746865207a65726f206164647265604482015261737360f01b60648201526084016103c9565b33610ab681866000878787610be7565b6001600160a01b03851660009081526020819052604090205484811015610b2b5760405162461bcd60e51b815260206004820152602360248201527f4552433737373a206275726e20616d6f756e7420657863656564732062616c616044820152626e636560e81b60648201526084016103c9565b6001600160a01b0386166000908152602081905260408120868303905560018054879290610b5a90849061148c565b92505081905550856001600160a01b0316826001600160a01b03167fa78a9be3a7b862d26933ad85fb11d80ef66b8f972d7cbba06621d583943a4098878787604051610ba8939291906114a3565b60405180910390a36040518581526000906001600160a01b038816906000805160206115818339815191529060200160405180910390a3505050505050565b60405163555ddc6560e11b8152600090731820a4b7618bde71dce8cdc73aab6c95905fad249063aabbb8ca90610c439089907f29ddb589b1fb5fc7cf394961c1adf5f8c6454761adf795e67fe149f658abe895906004016114d8565b602060405180830381865afa158015610c60573d6000803e3d6000fd5b505050506040513d601f19601f82011682018060405250810190610c8491906114f1565b90506001600160a01b03811615610a3c57604051633ad5cbc160e11b81526001600160a01b038216906375ab978290610ccb908a908a908a908a908a908a9060040161150e565b600060405180830381600087803b158015610ce557600080fd5b505af1158015610cf9573d6000803e3d6000fd5b5050505050505050505050565b6001600160a01b03851660009081526020819052604090205483811015610d7f5760405162461bcd60e51b815260206004820152602760248201527f4552433737373a207472616e7366657220616d6f756e7420657863656564732060448201526662616c616e636560c81b60648201526084016103c9565b6001600160a01b03808716600090815260208190526040808220878503905591871681529081208054869290610db6908490611568565b92505081905550846001600160a01b0316866001600160a01b0316886001600160a01b03167f06b541ddaa720db2b10a4d0cdac39b8d360425fc073085fac19bc82614677987878787604051610e0e939291906114a3565b60405180910390a4846001600160a01b0316866001600160a01b031660008051602061158183398151915286604051610e4991815260200190565b60405180910390a350505050505050565b60405163555ddc6560e11b8152600090731820a4b7618bde71dce8cdc73aab6c95905fad249063aabbb8ca90610eb69089907fb281fc8c12954d22544db45de3159a39272895b169a852b314f9cc762e44c53b906004016114d8565b602060405180830381865afa158015610ed3573d6000803e3d6000fd5b505050506040513d601f19601f82011682018060405250810190610ef791906114f1565b90506001600160a01b03811615610f73576040516223de2960e01b81526001600160a01b038216906223de2990610f3c908b908b908b908b908b908b9060040161150e565b600060405180830381600087803b158015610f5657600080fd5b505af1158015610f6a573d6000803e3d6000fd5b5050505061100d565b811561100d576001600160a01b0386163b1561100d5760405162461bcd60e51b815260206004820152604d60248201527f4552433737373a20746f6b656e20726563697069656e7420636f6e747261637460448201527f20686173206e6f20696d706c656d656e74657220666f7220455243373737546f60648201526c1ad95b9cd49958da5c1a595b9d609a1b608482015260a4016103c9565b5050505050505050565b6020808252825182820181905260009190848201906040850190845b818110156110585783516001600160a01b031683529284019291840191600101611033565b50909695505050505050565b6000815180845260005b8181101561108a5760208185018101518683018201520161106e565b8181111561109c576000602083870101525b50601f01601f19169290920160200192915050565b60208152600061060a6020830184611064565b6001600160a01b03811681146110d957600080fd5b50565b600080604083850312156110ef57600080fd5b82356110fa816110c4565b946020939093013593505050565b60008060006060848603121561111d57600080fd5b8335611128816110c4565b92506020840135611138816110c4565b929592945050506040919091013590565b634e487b7160e01b600052604160045260246000fd5b600082601f83011261117057600080fd5b81356001600160401b038082111561118a5761118a611149565b604051601f8301601f19908116603f011681019082821181831017156111b2576111b2611149565b816040528381528660208588010111156111cb57600080fd5b836020870160208301376000602085830101528094505050505092915050565b600080600080600060a0868803121561120357600080fd5b853561120e816110c4565b9450602086013561121e816110c4565b93506040860135925060608601356001600160401b038082111561124157600080fd5b61124d89838a0161115f565b9350608088013591508082111561126357600080fd5b506112708882890161115f565b9150509295509295909350565b60006020828403121561128f57600080fd5b813561060a816110c4565b6000806000606084860312156112af57600080fd5b83356112ba816110c4565b92506020840135915060408401356001600160401b038111156112dc57600080fd5b6112e88682870161115f565b9150509250925092565b6000806040838503121561130557600080fd5b8235611310816110c4565b91506020830135611320816110c4565b809150509250929050565b6000806000806080858703121561134157600080fd5b843561134c816110c4565b93506020850135925060408501356001600160401b038082111561136f57600080fd5b61137b8883890161115f565b9350606087013591508082111561139157600080fd5b5061139e8782880161115f565b91505092959194509250565b600080604083850312156113bd57600080fd5b8235915060208301356001600160401b038111156113da57600080fd5b6113e68582860161115f565b9150509250929050565b600181811c9082168061140457607f821691505b60208210810361142457634e487b7160e01b600052602260045260246000fd5b50919050565b6020808252602c908201527f4552433737373a2063616c6c6572206973206e6f7420616e206f70657261746f60408201526b39103337b9103437b63232b960a11b606082015260800190565b634e487b7160e01b600052601160045260246000fd5b60008282101561149e5761149e611476565b500390565b8381526060602082015260006114bc6060830185611064565b82810360408401526114ce8185611064565b9695505050505050565b6001600160a01b03929092168252602082015260400190565b60006020828403121561150357600080fd5b815161060a816110c4565b6001600160a01b0387811682528681166020830152851660408201526060810184905260c06080820181905260009061154990830185611064565b82810360a084015261155b8185611064565b9998505050505050505050565b6000821982111561157b5761157b611476565b50019056feddf252ad1be2c89b69c2b068fc378daa952ba7f163c4a11628f55a4df523b3efa26469706673582212207a5259efbc08cf9f68b2ea94171de8cfc77f7805273cd054b78b825a94317a3164736f6c634300080e0033",
  "immutableReferences": {},
  "source": "// SPDX-License-Identifier: MIT\r\n// OpenZeppelin Contracts (last updated v4.6.0) (token/ERC777/ERC777.sol)\r\n\r\npragma solidity ^0.8.0;\r\n\r\nimport \"./IERC777.sol\";\r\nimport \"./IERC777Recipient.sol\";\r\nimport \"./IERC777Sender.sol\";\r\nimport \"../ERC20/IERC20.sol\";\r\nimport \"../../utils/Address.sol\";\r\nimport \"../../utils/Context.sol\";\r\nimport \"../../utils/introspection/IERC1820Registry.sol\";\r\n\r\n/**\r\n * @dev Implementation of the {IERC777} interface.\r\n *\r\n * This implementation is agnostic to the way tokens are created. This means\r\n * that a supply mechanism has to be added in a derived contract using {_mint}.\r\n *\r\n * Support for ERC20 is included in this contract, as specified by the EIP: both\r\n * the ERC777 and ERC20 interfaces can be safely used when interacting with it.\r\n * Both {IERC777-Sent} and {IERC20-Transfer} events are emitted on token\r\n * movements.\r\n *\r\n * Additionally, the {IERC777-granularity} value is hard-coded to `1`, meaning that there\r\n * are no special restrictions in the amount of tokens that created, moved, or\r\n * destroyed. This makes integration with ERC20 applications seamless.\r\n */\r\ncontract ERC777 is Context, IERC777, IERC20 {\r\n    using Address for address;\r\n\r\n    IERC1820Registry internal constant _ERC1820_REGISTRY = IERC1820Registry(0x1820a4B7618BdE71Dce8cdc73aAB6C95905faD24);\r\n\r\n    mapping(address => uint256) private _balances;\r\n\r\n    uint256 private _totalSupply;\r\n\r\n    string private _name;\r\n    string private _symbol;\r\n\r\n    bytes32 private constant _TOKENS_SENDER_INTERFACE_HASH = keccak256(\"ERC777TokensSender\");\r\n    bytes32 private constant _TOKENS_RECIPIENT_INTERFACE_HASH = keccak256(\"ERC777TokensRecipient\");\r\n\r\n    // This isn't ever read from - it's only used to respond to the defaultOperators query.\r\n    address[] private _defaultOperatorsArray;\r\n\r\n    // Immutable, but accounts may revoke them (tracked in __revokedDefaultOperators).\r\n    mapping(address => bool) private _defaultOperators;\r\n\r\n    // For each account, a mapping of its operators and revoked default operators.\r\n    mapping(address => mapping(address => bool)) private _operators;\r\n    mapping(address => mapping(address => bool)) private _revokedDefaultOperators;\r\n\r\n    // ERC20-allowances\r\n    mapping(address => mapping(address => uint256)) private _allowances;\r\n\r\n    /**\r\n     * @dev `defaultOperators` may be an empty array.\r\n     */\r\n    constructor(\r\n        string memory name_,\r\n        string memory symbol_,\r\n        address[] memory defaultOperators_\r\n    ) {\r\n        _name = name_;\r\n        _symbol = symbol_;\r\n\r\n        _defaultOperatorsArray = defaultOperators_;\r\n        for (uint256 i = 0; i < defaultOperators_.length; i++) {\r\n            _defaultOperators[defaultOperators_[i]] = true;\r\n        }\r\n\r\n        // register interfaces\r\n        _ERC1820_REGISTRY.setInterfaceImplementer(address(this), keccak256(\"ERC777Token\"), address(this));\r\n        _ERC1820_REGISTRY.setInterfaceImplementer(address(this), keccak256(\"ERC20Token\"), address(this));\r\n    }\r\n\r\n    /**\r\n     * @dev See {IERC777-name}.\r\n     */\r\n    function name() public view virtual override returns (string memory) {\r\n        return _name;\r\n    }\r\n\r\n    /**\r\n     * @dev See {IERC777-symbol}.\r\n     */\r\n    function symbol() public view virtual override returns (string memory) {\r\n        return _symbol;\r\n    }\r\n\r\n    /**\r\n     * @dev See {ERC20-decimals}.\r\n     *\r\n     * Always returns 18, as per the\r\n     * [ERC777 EIP](https://eips.ethereum.org/EIPS/eip-777#backward-compatibility).\r\n     */\r\n    function decimals() public pure virtual returns (uint8) {\r\n        return 18;\r\n    }\r\n\r\n    /**\r\n     * @dev See {IERC777-granularity}.\r\n     *\r\n     * This implementation always returns `1`.\r\n     */\r\n    function granularity() public view virtual override returns (uint256) {\r\n        return 1;\r\n    }\r\n\r\n    /**\r\n     * @dev See {IERC777-totalSupply}.\r\n     */\r\n    function totalSupply() public view virtual override(IERC20, IERC777) returns (uint256) {\r\n        return _totalSupply;\r\n    }\r\n\r\n    /**\r\n     * @dev Returns the amount of tokens owned by an account (`tokenHolder`).\r\n     */\r\n    function balanceOf(address tokenHolder) public view virtual override(IERC20, IERC777) returns (uint256) {\r\n        return _balances[tokenHolder];\r\n    }\r\n\r\n    /**\r\n     * @dev See {IERC777-send}.\r\n     *\r\n     * Also emits a {IERC20-Transfer} event for ERC20 compatibility.\r\n     */\r\n    function send(\r\n        address recipient,\r\n        uint256 amount,\r\n        bytes memory data\r\n    ) public virtual override {\r\n        _send(_msgSender(), recipient, amount, data, \"\", true);\r\n    }\r\n\r\n    /**\r\n     * @dev See {IERC20-transfer}.\r\n     *\r\n     * Unlike `send`, `recipient` is _not_ required to implement the {IERC777Recipient}\r\n     * interface if it is a contract.\r\n     *\r\n     * Also emits a {Sent} event.\r\n     */\r\n    function transfer(address recipient, uint256 amount) public virtual override returns (bool) {\r\n        _send(_msgSender(), recipient, amount, \"\", \"\", false);\r\n        return true;\r\n    }\r\n\r\n    /**\r\n     * @dev See {IERC777-burn}.\r\n     *\r\n     * Also emits a {IERC20-Transfer} event for ERC20 compatibility.\r\n     */\r\n    function burn(uint256 amount, bytes memory data) public virtual override {\r\n        _burn(_msgSender(), amount, data, \"\");\r\n    }\r\n\r\n    /**\r\n     * @dev See {IERC777-isOperatorFor}.\r\n     */\r\n    function isOperatorFor(address operator, address tokenHolder) public view virtual override returns (bool) {\r\n        return\r\n            operator == tokenHolder ||\r\n            (_defaultOperators[operator] && !_revokedDefaultOperators[tokenHolder][operator]) ||\r\n            _operators[tokenHolder][operator];\r\n    }\r\n\r\n    /**\r\n     * @dev See {IERC777-authorizeOperator}.\r\n     */\r\n    function authorizeOperator(address operator) public virtual override {\r\n        require(_msgSender() != operator, \"ERC777: authorizing self as operator\");\r\n\r\n        if (_defaultOperators[operator]) {\r\n            delete _revokedDefaultOperators[_msgSender()][operator];\r\n        } else {\r\n            _operators[_msgSender()][operator] = true;\r\n        }\r\n\r\n        emit AuthorizedOperator(operator, _msgSender());\r\n    }\r\n\r\n    /**\r\n     * @dev See {IERC777-revokeOperator}.\r\n     */\r\n    function revokeOperator(address operator) public virtual override {\r\n        require(operator != _msgSender(), \"ERC777: revoking self as operator\");\r\n\r\n        if (_defaultOperators[operator]) {\r\n            _revokedDefaultOperators[_msgSender()][operator] = true;\r\n        } else {\r\n            delete _operators[_msgSender()][operator];\r\n        }\r\n\r\n        emit RevokedOperator(operator, _msgSender());\r\n    }\r\n\r\n    /**\r\n     * @dev See {IERC777-defaultOperators}.\r\n     */\r\n    function defaultOperators() public view virtual override returns (address[] memory) {\r\n        return _defaultOperatorsArray;\r\n    }\r\n\r\n    /**\r\n     * @dev See {IERC777-operatorSend}.\r\n     *\r\n     * Emits {Sent} and {IERC20-Transfer} events.\r\n     */\r\n    function operatorSend(\r\n        address sender,\r\n        address recipient,\r\n        uint256 amount,\r\n        bytes memory data,\r\n        bytes memory operatorData\r\n    ) public virtual override {\r\n        require(isOperatorFor(_msgSender(), sender), \"ERC777: caller is not an operator for holder\");\r\n        _send(sender, recipient, amount, data, operatorData, true);\r\n    }\r\n\r\n    /**\r\n     * @dev See {IERC777-operatorBurn}.\r\n     *\r\n     * Emits {Burned} and {IERC20-Transfer} events.\r\n     */\r\n    function operatorBurn(\r\n        address account,\r\n        uint256 amount,\r\n        bytes memory data,\r\n        bytes memory operatorData\r\n    ) public virtual override {\r\n        require(isOperatorFor(_msgSender(), account), \"ERC777: caller is not an operator for holder\");\r\n        _burn(account, amount, data, operatorData);\r\n    }\r\n\r\n    /**\r\n     * @dev See {IERC20-allowance}.\r\n     *\r\n     * Note that operator and allowance concepts are orthogonal: operators may\r\n     * not have allowance, and accounts with allowance may not be operators\r\n     * themselves.\r\n     */\r\n    function allowance(address holder, address spender) public view virtual override returns (uint256) {\r\n        return _allowances[holder][spender];\r\n    }\r\n\r\n    /**\r\n     * @dev See {IERC20-approve}.\r\n     *\r\n     * NOTE: If `value` is the maximum `uint256`, the allowance is not updated on\r\n     * `transferFrom`. This is semantically equivalent to an infinite approval.\r\n     *\r\n     * Note that accounts cannot have allowance issued by their operators.\r\n     */\r\n    function approve(address spender, uint256 value) public virtual override returns (bool) {\r\n        address holder = _msgSender();\r\n        _approve(holder, spender, value);\r\n        return true;\r\n    }\r\n\r\n    /**\r\n     * @dev See {IERC20-transferFrom}.\r\n     *\r\n     * NOTE: Does not update the allowance if the current allowance\r\n     * is the maximum `uint256`.\r\n     *\r\n     * Note that operator and allowance concepts are orthogonal: operators cannot\r\n     * call `transferFrom` (unless they have allowance), and accounts with\r\n     * allowance cannot call `operatorSend` (unless they are operators).\r\n     *\r\n     * Emits {Sent}, {IERC20-Transfer} and {IERC20-Approval} events.\r\n     */\r\n    function transferFrom(\r\n        address holder,\r\n        address recipient,\r\n        uint256 amount\r\n    ) public virtual override returns (bool) {\r\n        address spender = _msgSender();\r\n        _spendAllowance(holder, spender, amount);\r\n        _send(holder, recipient, amount, \"\", \"\", false);\r\n        return true;\r\n    }\r\n\r\n    /**\r\n     * @dev Creates `amount` tokens and assigns them to `account`, increasing\r\n     * the total supply.\r\n     *\r\n     * If a send hook is registered for `account`, the corresponding function\r\n     * will be called with the caller address as the `operator` and with\r\n     * `userData` and `operatorData`.\r\n     *\r\n     * See {IERC777Sender} and {IERC777Recipient}.\r\n     *\r\n     * Emits {Minted} and {IERC20-Transfer} events.\r\n     *\r\n     * Requirements\r\n     *\r\n     * - `account` cannot be the zero address.\r\n     * - if `account` is a contract, it must implement the {IERC777Recipient}\r\n     * interface.\r\n     */\r\n    function _mint(\r\n        address account,\r\n        uint256 amount,\r\n        bytes memory userData,\r\n        bytes memory operatorData\r\n    ) internal virtual {\r\n        _mint(account, amount, userData, operatorData, true);\r\n    }\r\n\r\n    /**\r\n     * @dev Creates `amount` tokens and assigns them to `account`, increasing\r\n     * the total supply.\r\n     *\r\n     * If `requireReceptionAck` is set to true, and if a send hook is\r\n     * registered for `account`, the corresponding function will be called with\r\n     * `operator`, `data` and `operatorData`.\r\n     *\r\n     * See {IERC777Sender} and {IERC777Recipient}.\r\n     *\r\n     * Emits {Minted} and {IERC20-Transfer} events.\r\n     *\r\n     * Requirements\r\n     *\r\n     * - `account` cannot be the zero address.\r\n     * - if `account` is a contract, it must implement the {IERC777Recipient}\r\n     * interface.\r\n     */\r\n    function _mint(\r\n        address account,\r\n        uint256 amount,\r\n        bytes memory userData,\r\n        bytes memory operatorData,\r\n        bool requireReceptionAck\r\n    ) internal virtual {\r\n        require(account != address(0), \"ERC777: mint to the zero address\");\r\n\r\n        address operator = _msgSender();\r\n\r\n        _beforeTokenTransfer(operator, address(0), account, amount);\r\n\r\n        // Update state variables\r\n        _totalSupply += amount;\r\n        _balances[account] += amount;\r\n\r\n        _callTokensReceived(operator, address(0), account, amount, userData, operatorData, requireReceptionAck);\r\n\r\n        emit Minted(operator, account, amount, userData, operatorData);\r\n        emit Transfer(address(0), account, amount);\r\n    }\r\n\r\n    /**\r\n     * @dev Send tokens\r\n     * @param from address token holder address\r\n     * @param to address recipient address\r\n     * @param amount uint256 amount of tokens to transfer\r\n     * @param userData bytes extra information provided by the token holder (if any)\r\n     * @param operatorData bytes extra information provided by the operator (if any)\r\n     * @param requireReceptionAck if true, contract recipients are required to implement ERC777TokensRecipient\r\n     */\r\n    function _send(\r\n        address from,\r\n        address to,\r\n        uint256 amount,\r\n        bytes memory userData,\r\n        bytes memory operatorData,\r\n        bool requireReceptionAck\r\n    ) internal virtual {\r\n        require(from != address(0), \"ERC777: transfer from the zero address\");\r\n        require(to != address(0), \"ERC777: transfer to the zero address\");\r\n\r\n        address operator = _msgSender();\r\n\r\n        _callTokensToSend(operator, from, to, amount, userData, operatorData);\r\n\r\n        _move(operator, from, to, amount, userData, operatorData);\r\n\r\n        _callTokensReceived(operator, from, to, amount, userData, operatorData, requireReceptionAck);\r\n    }\r\n\r\n    /**\r\n     * @dev Burn tokens\r\n     * @param from address token holder address\r\n     * @param amount uint256 amount of tokens to burn\r\n     * @param data bytes extra information provided by the token holder\r\n     * @param operatorData bytes extra information provided by the operator (if any)\r\n     */\r\n    function _burn(\r\n        address from,\r\n        uint256 amount,\r\n        bytes memory data,\r\n        bytes memory operatorData\r\n    ) internal virtual {\r\n        require(from != address(0), \"ERC777: burn from the zero address\");\r\n\r\n        address operator = _msgSender();\r\n\r\n        _callTokensToSend(operator, from, address(0), amount, data, operatorData);\r\n\r\n        _beforeTokenTransfer(operator, from, address(0), amount);\r\n\r\n        // Update state variables\r\n        uint256 fromBalance = _balances[from];\r\n        require(fromBalance >= amount, \"ERC777: burn amount exceeds balance\");\r\n        unchecked {\r\n            _balances[from] = fromBalance - amount;\r\n        }\r\n        _totalSupply -= amount;\r\n\r\n        emit Burned(operator, from, amount, data, operatorData);\r\n        emit Transfer(from, address(0), amount);\r\n    }\r\n\r\n    function _move(\r\n        address operator,\r\n        address from,\r\n        address to,\r\n        uint256 amount,\r\n        bytes memory userData,\r\n        bytes memory operatorData\r\n    ) private {\r\n        _beforeTokenTransfer(operator, from, to, amount);\r\n\r\n        uint256 fromBalance = _balances[from];\r\n        require(fromBalance >= amount, \"ERC777: transfer amount exceeds balance\");\r\n        unchecked {\r\n            _balances[from] = fromBalance - amount;\r\n        }\r\n        _balances[to] += amount;\r\n\r\n        emit Sent(operator, from, to, amount, userData, operatorData);\r\n        emit Transfer(from, to, amount);\r\n    }\r\n\r\n    /**\r\n     * @dev See {ERC20-_approve}.\r\n     *\r\n     * Note that accounts cannot have allowance issued by their operators.\r\n     */\r\n    function _approve(\r\n        address holder,\r\n        address spender,\r\n        uint256 value\r\n    ) internal virtual {\r\n        require(holder != address(0), \"ERC777: approve from the zero address\");\r\n        require(spender != address(0), \"ERC777: approve to the zero address\");\r\n\r\n        _allowances[holder][spender] = value;\r\n        emit Approval(holder, spender, value);\r\n    }\r\n\r\n    /**\r\n     * @dev Call from.tokensToSend() if the interface is registered\r\n     * @param operator address operator requesting the transfer\r\n     * @param from address token holder address\r\n     * @param to address recipient address\r\n     * @param amount uint256 amount of tokens to transfer\r\n     * @param userData bytes extra information provided by the token holder (if any)\r\n     * @param operatorData bytes extra information provided by the operator (if any)\r\n     */\r\n    function _callTokensToSend(\r\n        address operator,\r\n        address from,\r\n        address to,\r\n        uint256 amount,\r\n        bytes memory userData,\r\n        bytes memory operatorData\r\n    ) private {\r\n        address implementer = _ERC1820_REGISTRY.getInterfaceImplementer(from, _TOKENS_SENDER_INTERFACE_HASH);\r\n        if (implementer != address(0)) {\r\n            IERC777Sender(implementer).tokensToSend(operator, from, to, amount, userData, operatorData);\r\n        }\r\n    }\r\n\r\n    /**\r\n     * @dev Call to.tokensReceived() if the interface is registered. Reverts if the recipient is a contract but\r\n     * tokensReceived() was not registered for the recipient\r\n     * @param operator address operator requesting the transfer\r\n     * @param from address token holder address\r\n     * @param to address recipient address\r\n     * @param amount uint256 amount of tokens to transfer\r\n     * @param userData bytes extra information provided by the token holder (if any)\r\n     * @param operatorData bytes extra information provided by the operator (if any)\r\n     * @param requireReceptionAck if true, contract recipients are required to implement ERC777TokensRecipient\r\n     */\r\n    function _callTokensReceived(\r\n        address operator,\r\n        address from,\r\n        address to,\r\n        uint256 amount,\r\n        bytes memory userData,\r\n        bytes memory operatorData,\r\n        bool requireReceptionAck\r\n    ) private {\r\n        address implementer = _ERC1820_REGISTRY.getInterfaceImplementer(to, _TOKENS_RECIPIENT_INTERFACE_HASH);\r\n        if (implementer != address(0)) {\r\n            IERC777Recipient(implementer).tokensReceived(operator, from, to, amount, userData, operatorData);\r\n        } else if (requireReceptionAck) {\r\n            require(!to.isContract(), \"ERC777: token recipient contract has no implementer for ERC777TokensRecipient\");\r\n        }\r\n    }\r\n\r\n    /**\r\n     * @dev Updates `owner` s allowance for `spender` based on spent `amount`.\r\n     *\r\n     * Does not update the allowance amount in case of infinite allowance.\r\n     * Revert if not enough allowance is available.\r\n     *\r\n     * Might emit an {Approval} event.\r\n     */\r\n    function _spendAllowance(\r\n        address owner,\r\n        address spender,\r\n        uint256 amount\r\n    ) internal virtual {\r\n        uint256 currentAllowance = allowance(owner, spender);\r\n        if (currentAllowance != type(uint256).max) {\r\n            require(currentAllowance >= amount, \"ERC777: insufficient allowance\");\r\n            unchecked {\r\n                _approve(owner, spender, currentAllowance - amount);\r\n            }\r\n        }\r\n    }\r\n\r\n    /**\r\n     * @dev Hook that is called before any token transfer. This includes\r\n     * calls to {send}, {transfer}, {operatorSend}, minting and burning.\r\n     *\r\n     * Calling conditions:\r\n     *\r\n     * - when `from` and `to` are both non-zero, `amount` of ``from``'s tokens\r\n     * will be to transferred to `to`.\r\n     * - when `from` is zero, `amount` tokens will be minted for `to`.\r\n     * - when `to` is zero, `amount` of ``from``'s tokens will be burned.\r\n     * - `from` and `to` are never both zero.\r\n     *\r\n     * To learn more about hooks, head to xref:ROOT:extending-contracts.adoc#using-hooks[Using Hooks].\r\n     */\r\n    function _beforeTokenTransfer(\r\n        address operator,\r\n        address from,\r\n        address to,\r\n        uint256 amount\r\n    ) internal virtual {}\r\n}\r\n",
  "sourcePath": "D:\\work\\www\\yopu_dapp_nft\\contracts\\lib\\openzeppelin\\contracts\\token\\ERC777\\ERC777.sol",
  "compiler": {
    "name": "solc",
    "version": "0.8.14+commit.80d49f37.Emscripten.clang"
  },
  "schemaVersion": "3.4.7",
  "updatedAt": "2022-06-28T15:05:48.733Z",
  "devdoc": {
    "details": "Implementation of the {IERC777} interface. This implementation is agnostic to the way tokens are created. This means that a supply mechanism has to be added in a derived contract using {_mint}. Support for ERC20 is included in this contract, as specified by the EIP: both the ERC777 and ERC20 interfaces can be safely used when interacting with it. Both {IERC777-Sent} and {IERC20-Transfer} events are emitted on token movements. Additionally, the {IERC777-granularity} value is hard-coded to `1`, meaning that there are no special restrictions in the amount of tokens that created, moved, or destroyed. This makes integration with ERC20 applications seamless.",
    "kind": "dev",
    "methods": {
      "allowance(address,address)": {
        "details": "See {IERC20-allowance}. Note that operator and allowance concepts are orthogonal: operators may not have allowance, and accounts with allowance may not be operators themselves."
      },
      "approve(address,uint256)": {
        "details": "See {IERC20-approve}. NOTE: If `value` is the maximum `uint256`, the allowance is not updated on `transferFrom`. This is semantically equivalent to an infinite approval. Note that accounts cannot have allowance issued by their operators."
      },
      "authorizeOperator(address)": {
        "details": "See {IERC777-authorizeOperator}."
      },
      "balanceOf(address)": {
        "details": "Returns the amount of tokens owned by an account (`tokenHolder`)."
      },
      "burn(uint256,bytes)": {
        "details": "See {IERC777-burn}. Also emits a {IERC20-Transfer} event for ERC20 compatibility."
      },
      "constructor": {
        "details": "`defaultOperators` may be an empty array."
      },
      "decimals()": {
        "details": "See {ERC20-decimals}. Always returns 18, as per the [ERC777 EIP](https://eips.ethereum.org/EIPS/eip-777#backward-compatibility)."
      },
      "defaultOperators()": {
        "details": "See {IERC777-defaultOperators}."
      },
      "granularity()": {
        "details": "See {IERC777-granularity}. This implementation always returns `1`."
      },
      "isOperatorFor(address,address)": {
        "details": "See {IERC777-isOperatorFor}."
      },
      "name()": {
        "details": "See {IERC777-name}."
      },
      "operatorBurn(address,uint256,bytes,bytes)": {
        "details": "See {IERC777-operatorBurn}. Emits {Burned} and {IERC20-Transfer} events."
      },
      "operatorSend(address,address,uint256,bytes,bytes)": {
        "details": "See {IERC777-operatorSend}. Emits {Sent} and {IERC20-Transfer} events."
      },
      "revokeOperator(address)": {
        "details": "See {IERC777-revokeOperator}."
      },
      "send(address,uint256,bytes)": {
        "details": "See {IERC777-send}. Also emits a {IERC20-Transfer} event for ERC20 compatibility."
      },
      "symbol()": {
        "details": "See {IERC777-symbol}."
      },
      "totalSupply()": {
        "details": "See {IERC777-totalSupply}."
      },
      "transfer(address,uint256)": {
        "details": "See {IERC20-transfer}. Unlike `send`, `recipient` is _not_ required to implement the {IERC777Recipient} interface if it is a contract. Also emits a {Sent} event."
      },
      "transferFrom(address,address,uint256)": {
        "details": "See {IERC20-transferFrom}. NOTE: Does not update the allowance if the current allowance is the maximum `uint256`. Note that operator and allowance concepts are orthogonal: operators cannot call `transferFrom` (unless they have allowance), and accounts with allowance cannot call `operatorSend` (unless they are operators). Emits {Sent}, {IERC20-Transfer} and {IERC20-Approval} events."
      }
    },
    "version": 1
  },
  "userdoc": {
    "kind": "user",
    "methods": {},
    "version": 1
  }
}