{
  "contractName": "ERC721URIStorageMock",
  "abi": [
    {
      "inputs": [
        {
          "internalType": "string",
          "name": "name",
          "type": "string"
        },
        {
          "internalType": "string",
          "name": "symbol",
          "type": "string"
        }
      ],
      "stateMutability": "nonpayable",
      "type": "constructor"
    },
    {
      "anonymous": false,
      "inputs": [
        {
          "indexed": true,
          "internalType": "address",
          "name": "owner",
          "type": "address"
        },
        {
          "indexed": true,
          "internalType": "address",
          "name": "approved",
          "type": "address"
        },
        {
          "indexed": true,
          "internalType": "uint256",
          "name": "tokenId",
          "type": "uint256"
        }
      ],
      "name": "Approval",
      "type": "event"
    },
    {
      "anonymous": false,
      "inputs": [
        {
          "indexed": true,
          "internalType": "address",
          "name": "owner",
          "type": "address"
        },
        {
          "indexed": true,
          "internalType": "address",
          "name": "operator",
          "type": "address"
        },
        {
          "indexed": false,
          "internalType": "bool",
          "name": "approved",
          "type": "bool"
        }
      ],
      "name": "ApprovalForAll",
      "type": "event"
    },
    {
      "anonymous": false,
      "inputs": [
        {
          "indexed": true,
          "internalType": "address",
          "name": "from",
          "type": "address"
        },
        {
          "indexed": true,
          "internalType": "address",
          "name": "to",
          "type": "address"
        },
        {
          "indexed": true,
          "internalType": "uint256",
          "name": "tokenId",
          "type": "uint256"
        }
      ],
      "name": "Transfer",
      "type": "event"
    },
    {
      "inputs": [
        {
          "internalType": "address",
          "name": "to",
          "type": "address"
        },
        {
          "internalType": "uint256",
          "name": "tokenId",
          "type": "uint256"
        }
      ],
      "name": "approve",
      "outputs": [],
      "stateMutability": "nonpayable",
      "type": "function"
    },
    {
      "inputs": [
        {
          "internalType": "address",
          "name": "owner",
          "type": "address"
        }
      ],
      "name": "balanceOf",
      "outputs": [
        {
          "internalType": "uint256",
          "name": "",
          "type": "uint256"
        }
      ],
      "stateMutability": "view",
      "type": "function"
    },
    {
      "inputs": [
        {
          "internalType": "uint256",
          "name": "tokenId",
          "type": "uint256"
        }
      ],
      "name": "getApproved",
      "outputs": [
        {
          "internalType": "address",
          "name": "",
          "type": "address"
        }
      ],
      "stateMutability": "view",
      "type": "function"
    },
    {
      "inputs": [
        {
          "internalType": "address",
          "name": "owner",
          "type": "address"
        },
        {
          "internalType": "address",
          "name": "operator",
          "type": "address"
        }
      ],
      "name": "isApprovedForAll",
      "outputs": [
        {
          "internalType": "bool",
          "name": "",
          "type": "bool"
        }
      ],
      "stateMutability": "view",
      "type": "function"
    },
    {
      "inputs": [],
      "name": "name",
      "outputs": [
        {
          "internalType": "string",
          "name": "",
          "type": "string"
        }
      ],
      "stateMutability": "view",
      "type": "function"
    },
    {
      "inputs": [
        {
          "internalType": "uint256",
          "name": "tokenId",
          "type": "uint256"
        }
      ],
      "name": "ownerOf",
      "outputs": [
        {
          "internalType": "address",
          "name": "",
          "type": "address"
        }
      ],
      "stateMutability": "view",
      "type": "function"
    },
    {
      "inputs": [
        {
          "internalType": "address",
          "name": "from",
          "type": "address"
        },
        {
          "internalType": "address",
          "name": "to",
          "type": "address"
        },
        {
          "internalType": "uint256",
          "name": "tokenId",
          "type": "uint256"
        }
      ],
      "name": "safeTransferFrom",
      "outputs": [],
      "stateMutability": "nonpayable",
      "type": "function"
    },
    {
      "inputs": [
        {
          "internalType": "address",
          "name": "from",
          "type": "address"
        },
        {
          "internalType": "address",
          "name": "to",
          "type": "address"
        },
        {
          "internalType": "uint256",
          "name": "tokenId",
          "type": "uint256"
        },
        {
          "internalType": "bytes",
          "name": "data",
          "type": "bytes"
        }
      ],
      "name": "safeTransferFrom",
      "outputs": [],
      "stateMutability": "nonpayable",
      "type": "function"
    },
    {
      "inputs": [
        {
          "internalType": "address",
          "name": "operator",
          "type": "address"
        },
        {
          "internalType": "bool",
          "name": "approved",
          "type": "bool"
        }
      ],
      "name": "setApprovalForAll",
      "outputs": [],
      "stateMutability": "nonpayable",
      "type": "function"
    },
    {
      "inputs": [
        {
          "internalType": "bytes4",
          "name": "interfaceId",
          "type": "bytes4"
        }
      ],
      "name": "supportsInterface",
      "outputs": [
        {
          "internalType": "bool",
          "name": "",
          "type": "bool"
        }
      ],
      "stateMutability": "view",
      "type": "function"
    },
    {
      "inputs": [],
      "name": "symbol",
      "outputs": [
        {
          "internalType": "string",
          "name": "",
          "type": "string"
        }
      ],
      "stateMutability": "view",
      "type": "function"
    },
    {
      "inputs": [
        {
          "internalType": "uint256",
          "name": "tokenId",
          "type": "uint256"
        }
      ],
      "name": "tokenURI",
      "outputs": [
        {
          "internalType": "string",
          "name": "",
          "type": "string"
        }
      ],
      "stateMutability": "view",
      "type": "function"
    },
    {
      "inputs": [
        {
          "internalType": "address",
          "name": "from",
          "type": "address"
        },
        {
          "internalType": "address",
          "name": "to",
          "type": "address"
        },
        {
          "internalType": "uint256",
          "name": "tokenId",
          "type": "uint256"
        }
      ],
      "name": "transferFrom",
      "outputs": [],
      "stateMutability": "nonpayable",
      "type": "function"
    },
    {
      "inputs": [
        {
          "internalType": "string",
          "name": "newBaseTokenURI",
          "type": "string"
        }
      ],
      "name": "setBaseURI",
      "outputs": [],
      "stateMutability": "nonpayable",
      "type": "function"
    },
    {
      "inputs": [],
      "name": "baseURI",
      "outputs": [
        {
          "internalType": "string",
          "name": "",
          "type": "string"
        }
      ],
      "stateMutability": "view",
      "type": "function"
    },
    {
      "inputs": [
        {
          "internalType": "uint256",
          "name": "tokenId",
          "type": "uint256"
        },
        {
          "internalType": "string",
          "name": "_tokenURI",
          "type": "string"
        }
      ],
      "name": "setTokenURI",
      "outputs": [],
      "stateMutability": "nonpayable",
      "type": "function"
    },
    {
      "inputs": [
        {
          "internalType": "uint256",
          "name": "tokenId",
          "type": "uint256"
        }
      ],
      "name": "exists",
      "outputs": [
        {
          "internalType": "bool",
          "name": "",
          "type": "bool"
        }
      ],
      "stateMutability": "view",
      "type": "function"
    },
    {
      "inputs": [
        {
          "internalType": "address",
          "name": "to",
          "type": "address"
        },
        {
          "internalType": "uint256",
          "name": "tokenId",
          "type": "uint256"
        }
      ],
      "name": "mint",
      "outputs": [],
      "stateMutability": "nonpayable",
      "type": "function"
    },
    {
      "inputs": [
        {
          "internalType": "address",
          "name": "to",
          "type": "address"
        },
        {
          "internalType": "uint256",
          "name": "tokenId",
          "type": "uint256"
        },
        {
          "internalType": "bytes",
          "name": "_data",
          "type": "bytes"
        }
      ],
      "name": "safeMint",
      "outputs": [],
      "stateMutability": "nonpayable",
      "type": "function"
    },
    {
      "inputs": [
        {
          "internalType": "address",
          "name": "to",
          "type": "address"
        },
        {
          "internalType": "uint256",
          "name": "tokenId",
          "type": "uint256"
        }
      ],
      "name": "safeMint",
      "outputs": [],
      "stateMutability": "nonpayable",
      "type": "function"
    },
    {
      "inputs": [
        {
          "internalType": "uint256",
          "name": "tokenId",
          "type": "uint256"
        }
      ],
      "name": "burn",
      "outputs": [],
      "stateMutability": "nonpayable",
      "type": "function"
    }
  ],
  "bytecode": "0x60806040523480156200001157600080fd5b5060405162001b0c38038062001b0c8339810160408190526200003491620001e1565b8151829082906200004d9060009060208501906200006e565b508051620000639060019060208401906200006e565b505050505062000287565b8280546200007c906200024b565b90600052602060002090601f016020900481019282620000a05760008555620000eb565b82601f10620000bb57805160ff1916838001178555620000eb565b82800160010185558215620000eb579182015b82811115620000eb578251825591602001919060010190620000ce565b50620000f9929150620000fd565b5090565b5b80821115620000f95760008155600101620000fe565b634e487b7160e01b600052604160045260246000fd5b600082601f8301126200013c57600080fd5b81516001600160401b038082111562000159576200015962000114565b604051601f8301601f19908116603f0116810190828211818310171562000184576200018462000114565b81604052838152602092508683858801011115620001a157600080fd5b600091505b83821015620001c55785820183015181830184015290820190620001a6565b83821115620001d75760008385830101525b9695505050505050565b60008060408385031215620001f557600080fd5b82516001600160401b03808211156200020d57600080fd5b6200021b868387016200012a565b935060208501519150808211156200023257600080fd5b5062000241858286016200012a565b9150509250929050565b600181811c908216806200026057607f821691505b6020821081036200028157634e487b7160e01b600052602260045260246000fd5b50919050565b61187580620002976000396000f3fe608060405234801561001057600080fd5b50600436106101075760003560e01c806301ffc9a71461010c57806306fdde0314610134578063081812fc14610149578063095ea7b314610174578063162094c41461018957806323b872dd1461019c57806340c10f19146101af57806342842e0e146101c257806342966c68146101d55780634f558e79146101e857806355f804b3146101fb5780636352211e1461020e5780636c0360eb1461022157806370a08231146102295780638832e6e31461024a57806395d89b411461025d578063a144819414610265578063a22cb46514610278578063b88d4fde1461028b578063c87b56dd1461029e578063e985e9c5146102b1575b600080fd5b61011f61011a3660046111f8565b6102c4565b60405190151581526020015b60405180910390f35b61013c610316565b60405161012b919061126d565b61015c610157366004611280565b6103a8565b6040516001600160a01b03909116815260200161012b565b6101876101823660046112b5565b6103cf565b005b61018761019736600461136a565b6104e9565b6101876101aa3660046113c4565b6104f7565b6101876101bd3660046112b5565b610528565b6101876101d03660046113c4565b610532565b6101876101e3366004611280565b61054d565b61011f6101f6366004611280565b610559565b610187610209366004611400565b610564565b61015c61021c366004611280565b610570565b61013c6105a5565b61023c610237366004611471565b6105b4565b60405190815260200161012b565b6101876102583660046114ac565b61063a565b61013c610645565b6101876102733660046112b5565b610654565b610187610286366004611502565b61065e565b61018761029936600461153e565b610669565b61013c6102ac366004611280565b6106a1565b61011f6102bf3660046115a5565b6107a4565b60006001600160e01b031982166380ac58cd60e01b14806102f557506001600160e01b03198216635b5e139f60e01b145b8061031057506301ffc9a760e01b6001600160e01b03198316145b92915050565b606060008054610325906115d8565b80601f0160208091040260200160405190810160405280929190818152602001828054610351906115d8565b801561039e5780601f106103735761010080835404028352916020019161039e565b820191906000526020600020905b81548152906001019060200180831161038157829003601f168201915b5050505050905090565b60006103b3826107d2565b506000908152600460205260409020546001600160a01b031690565b60006103da82610570565b9050806001600160a01b0316836001600160a01b03160361044c5760405162461bcd60e51b815260206004820152602160248201527f4552433732313a20617070726f76616c20746f2063757272656e74206f776e656044820152603960f91b60648201526084015b60405180910390fd5b336001600160a01b0382161480610468575061046881336107a4565b6104da5760405162461bcd60e51b815260206004820152603e60248201527f4552433732313a20617070726f76652063616c6c6572206973206e6f7420746f60448201527f6b656e206f776e6572206e6f7220617070726f76656420666f7220616c6c00006064820152608401610443565b6104e483836107f7565b505050565b6104f38282610865565b5050565b61050133826108f0565b61051d5760405162461bcd60e51b815260040161044390611612565b6104e483838361094e565b6104f38282610ad8565b6104e483838360405180602001604052806000815250610669565b61055681610bf8565b50565b600061031082610c38565b6104e46007838361109f565b6000818152600260205260408120546001600160a01b0316806103105760405162461bcd60e51b815260040161044390611660565b60606105af610c55565b905090565b60006001600160a01b03821661061e5760405162461bcd60e51b815260206004820152602960248201527f4552433732313a2061646472657373207a65726f206973206e6f7420612076616044820152683634b21037bbb732b960b91b6064820152608401610443565b506001600160a01b031660009081526003602052604090205490565b6104e4838383610c64565b606060018054610325906115d8565b6104f38282610c97565b6104f3338383610cb1565b61067333836108f0565b61068f5760405162461bcd60e51b815260040161044390611612565b61069b84848484610d7b565b50505050565b60606106ac826107d2565b600082815260066020526040812080546106c5906115d8565b80601f01602080910402602001604051908101604052809291908181526020018280546106f1906115d8565b801561073e5780601f106107135761010080835404028352916020019161073e565b820191906000526020600020905b81548152906001019060200180831161072157829003601f168201915b50505050509050600061074f610c55565b90508051600003610761575092915050565b81511561079357808260405160200161077b929190611692565b60405160208183030381529060405292505050919050565b61079c84610dae565b949350505050565b6001600160a01b03918216600090815260056020908152604080832093909416825291909152205460ff1690565b6107db81610c38565b6105565760405162461bcd60e51b815260040161044390611660565b600081815260046020526040902080546001600160a01b0319166001600160a01b038416908117909155819061082c82610570565b6001600160a01b03167f8c5be1e5ebec7d5bd14f71427d1e84f3dd0314c0f7b2291e5b200ac8c7c3b92560405160405180910390a45050565b61086e82610c38565b6108d15760405162461bcd60e51b815260206004820152602e60248201527f45524337323155524953746f726167653a2055524920736574206f66206e6f6e60448201526d32bc34b9ba32b73a103a37b5b2b760911b6064820152608401610443565b600082815260066020908152604090912082516104e492840190611123565b6000806108fc83610570565b9050806001600160a01b0316846001600160a01b03161480610923575061092381856107a4565b8061079c5750836001600160a01b031661093c846103a8565b6001600160a01b031614949350505050565b826001600160a01b031661096182610570565b6001600160a01b0316146109c55760405162461bcd60e51b815260206004820152602560248201527f4552433732313a207472616e736665722066726f6d20696e636f72726563742060448201526437bbb732b960d91b6064820152608401610443565b6001600160a01b038216610a275760405162461bcd60e51b8152602060048201526024808201527f4552433732313a207472616e7366657220746f20746865207a65726f206164646044820152637265737360e01b6064820152608401610443565b610a326000826107f7565b6001600160a01b0383166000908152600360205260408120805460019290610a5b9084906116d7565b90915550506001600160a01b0382166000908152600360205260408120805460019290610a899084906116ee565b909155505060008181526002602052604080822080546001600160a01b0319166001600160a01b03868116918217909255915184939187169160008051602061182083398151915291a4505050565b6001600160a01b038216610b2e5760405162461bcd60e51b815260206004820181905260248201527f4552433732313a206d696e7420746f20746865207a65726f20616464726573736044820152606401610443565b610b3781610c38565b15610b835760405162461bcd60e51b815260206004820152601c60248201527b115490cdcc8c4e881d1bdad95b88185b1c9958591e481b5a5b9d195960221b6044820152606401610443565b6001600160a01b0382166000908152600360205260408120805460019290610bac9084906116ee565b909155505060008181526002602052604080822080546001600160a01b0319166001600160a01b0386169081179091559051839290600080516020611820833981519152908290a45050565b610c0181610e15565b60008181526006602052604090208054610c1a906115d8565b15905061055657600081815260066020526040812061055691611197565b6000908152600260205260409020546001600160a01b0316151590565b606060078054610325906115d8565b610c6e8383610ad8565b610c7b6000848484610e9e565b6104e45760405162461bcd60e51b815260040161044390611706565b6104f3828260405180602001604052806000815250610c64565b816001600160a01b0316836001600160a01b031603610d0e5760405162461bcd60e51b815260206004820152601960248201527822a9219b99189d1030b8383937bb32903a379031b0b63632b960391b6044820152606401610443565b6001600160a01b03838116600081815260056020908152604080832094871680845294825291829020805460ff191686151590811790915591519182527f17307eab39ab6107e8899845ad3d59bd9653f200f220920489ca2b5937696c31910160405180910390a3505050565b610d8684848461094e565b610d9284848484610e9e565b61069b5760405162461bcd60e51b815260040161044390611706565b6060610db9826107d2565b6000610dc3610c55565b90506000815111610de35760405180602001604052806000815250610e0e565b80610ded84610f9f565b604051602001610dfe929190611692565b6040516020818303038152906040525b9392505050565b6000610e2082610570565b9050610e2d6000836107f7565b6001600160a01b0381166000908152600360205260408120805460019290610e569084906116d7565b909155505060008281526002602052604080822080546001600160a01b0319169055518391906001600160a01b03841690600080516020611820833981519152908390a45050565b60006001600160a01b0384163b15610f9457604051630a85bd0160e11b81526001600160a01b0385169063150b7a0290610ee2903390899088908890600401611758565b6020604051808303816000875af1925050508015610f1d575060408051601f3d908101601f19168201909252610f1a91810190611795565b60015b610f7a573d808015610f4b576040519150601f19603f3d011682016040523d82523d6000602084013e610f50565b606091505b508051600003610f725760405162461bcd60e51b815260040161044390611706565b805181602001fd5b6001600160e01b031916630a85bd0160e11b14905061079c565b506001949350505050565b606081600003610fc65750506040805180820190915260018152600360fc1b602082015290565b8160005b8115610ff05780610fda816117b2565b9150610fe99050600a836117e1565b9150610fca565b6000816001600160401b0381111561100a5761100a6112df565b6040519080825280601f01601f191660200182016040528015611034576020820181803683370190505b5090505b841561079c576110496001836116d7565b9150611056600a866117f5565b6110619060306116ee565b60f81b81838151811061107657611076611809565b60200101906001600160f81b031916908160001a905350611098600a866117e1565b9450611038565b8280546110ab906115d8565b90600052602060002090601f0160209004810192826110cd5760008555611113565b82601f106110e65782800160ff19823516178555611113565b82800160010185558215611113579182015b828111156111135782358255916020019190600101906110f8565b5061111f9291506111cd565b5090565b82805461112f906115d8565b90600052602060002090601f0160209004810192826111515760008555611113565b82601f1061116a57805160ff1916838001178555611113565b82800160010185558215611113579182015b8281111561111357825182559160200191906001019061117c565b5080546111a3906115d8565b6000825580601f106111b3575050565b601f01602090049060005260206000209081019061055691905b5b8082111561111f57600081556001016111ce565b6001600160e01b03198116811461055657600080fd5b60006020828403121561120a57600080fd5b8135610e0e816111e2565b60005b83811015611230578181015183820152602001611218565b8381111561069b5750506000910152565b60008151808452611259816020860160208601611215565b601f01601f19169290920160200192915050565b602081526000610e0e6020830184611241565b60006020828403121561129257600080fd5b5035919050565b80356001600160a01b03811681146112b057600080fd5b919050565b600080604083850312156112c857600080fd5b6112d183611299565b946020939093013593505050565b634e487b7160e01b600052604160045260246000fd5b60006001600160401b038084111561130f5761130f6112df565b604051601f8501601f19908116603f01168101908282118183101715611337576113376112df565b8160405280935085815286868601111561135057600080fd5b858560208301376000602087830101525050509392505050565b6000806040838503121561137d57600080fd5b8235915060208301356001600160401b0381111561139a57600080fd5b8301601f810185136113ab57600080fd5b6113ba858235602084016112f5565b9150509250929050565b6000806000606084860312156113d957600080fd5b6113e284611299565b92506113f060208501611299565b9150604084013590509250925092565b6000806020838503121561141357600080fd5b82356001600160401b038082111561142a57600080fd5b818501915085601f83011261143e57600080fd5b81358181111561144d57600080fd5b86602082850101111561145f57600080fd5b60209290920196919550909350505050565b60006020828403121561148357600080fd5b610e0e82611299565b600082601f83011261149d57600080fd5b610e0e838335602085016112f5565b6000806000606084860312156114c157600080fd5b6114ca84611299565b92506020840135915060408401356001600160401b038111156114ec57600080fd5b6114f88682870161148c565b9150509250925092565b6000806040838503121561151557600080fd5b61151e83611299565b91506020830135801515811461153357600080fd5b809150509250929050565b6000806000806080858703121561155457600080fd5b61155d85611299565b935061156b60208601611299565b92506040850135915060608501356001600160401b0381111561158d57600080fd5b6115998782880161148c565b91505092959194509250565b600080604083850312156115b857600080fd5b6115c183611299565b91506115cf60208401611299565b90509250929050565b600181811c908216806115ec57607f821691505b60208210810361160c57634e487b7160e01b600052602260045260246000fd5b50919050565b6020808252602e908201527f4552433732313a2063616c6c6572206973206e6f7420746f6b656e206f776e6560408201526d1c881b9bdc88185c1c1c9bdd995960921b606082015260800190565b602080825260189082015277115490cdcc8c4e881a5b9d985b1a59081d1bdad95b88125160421b604082015260600190565b600083516116a4818460208801611215565b8351908301906116b8818360208801611215565b01949350505050565b634e487b7160e01b600052601160045260246000fd5b6000828210156116e9576116e96116c1565b500390565b60008219821115611701576117016116c1565b500190565b60208082526032908201527f4552433732313a207472616e7366657220746f206e6f6e20455243373231526560408201527131b2b4bb32b91034b6b83632b6b2b73a32b960711b606082015260800190565b6001600160a01b038581168252841660208201526040810183905260806060820181905260009061178b90830184611241565b9695505050505050565b6000602082840312156117a757600080fd5b8151610e0e816111e2565b6000600182016117c4576117c46116c1565b5060010190565b634e487b7160e01b600052601260045260246000fd5b6000826117f0576117f06117cb565b500490565b600082611804576118046117cb565b500690565b634e487b7160e01b600052603260045260246000fdfeddf252ad1be2c89b69c2b068fc378daa952ba7f163c4a11628f55a4df523b3efa26469706673582212204422937ade38da62e09c1873d09b8513f025680859d002eceb04249a0399649e64736f6c634300080e0033",
  "immutableReferences": {},
  "source": "// SPDX-License-Identifier: MIT\r\n\r\npragma solidity ^0.8.0;\r\n\r\nimport \"../token/ERC721/extensions/ERC721URIStorage.sol\";\r\n\r\n/**\r\n * @title ERC721Mock\r\n * This mock just provides a public safeMint, mint, and burn functions for testing purposes\r\n */\r\ncontract ERC721URIStorageMock is ERC721URIStorage {\r\n    string private _baseTokenURI;\r\n\r\n    constructor(string memory name, string memory symbol) ERC721(name, symbol) {}\r\n\r\n    function _baseURI() internal view virtual override returns (string memory) {\r\n        return _baseTokenURI;\r\n    }\r\n\r\n    function setBaseURI(string calldata newBaseTokenURI) public {\r\n        _baseTokenURI = newBaseTokenURI;\r\n    }\r\n\r\n    function baseURI() public view returns (string memory) {\r\n        return _baseURI();\r\n    }\r\n\r\n    function setTokenURI(uint256 tokenId, string memory _tokenURI) public {\r\n        _setTokenURI(tokenId, _tokenURI);\r\n    }\r\n\r\n    function exists(uint256 tokenId) public view returns (bool) {\r\n        return _exists(tokenId);\r\n    }\r\n\r\n    function mint(address to, uint256 tokenId) public {\r\n        _mint(to, tokenId);\r\n    }\r\n\r\n    function safeMint(address to, uint256 tokenId) public {\r\n        _safeMint(to, tokenId);\r\n    }\r\n\r\n    function safeMint(\r\n        address to,\r\n        uint256 tokenId,\r\n        bytes memory _data\r\n    ) public {\r\n        _safeMint(to, tokenId, _data);\r\n    }\r\n\r\n    function burn(uint256 tokenId) public {\r\n        _burn(tokenId);\r\n    }\r\n}\r\n",
  "sourcePath": "D:\\work\\www\\yopu_dapp_nft\\contracts\\lib\\openzeppelin\\contracts\\mocks\\ERC721URIStorageMock.sol",
  "compiler": {
    "name": "solc",
    "version": "0.8.14+commit.80d49f37.Emscripten.clang"
  },
  "schemaVersion": "3.4.7",
  "updatedAt": "2022-06-28T15:05:47.672Z",
  "devdoc": {
    "kind": "dev",
    "methods": {
      "approve(address,uint256)": {
        "details": "See {IERC721-approve}."
      },
      "balanceOf(address)": {
        "details": "See {IERC721-balanceOf}."
      },
      "getApproved(uint256)": {
        "details": "See {IERC721-getApproved}."
      },
      "isApprovedForAll(address,address)": {
        "details": "See {IERC721-isApprovedForAll}."
      },
      "name()": {
        "details": "See {IERC721Metadata-name}."
      },
      "ownerOf(uint256)": {
        "details": "See {IERC721-ownerOf}."
      },
      "safeTransferFrom(address,address,uint256)": {
        "details": "See {IERC721-safeTransferFrom}."
      },
      "safeTransferFrom(address,address,uint256,bytes)": {
        "details": "See {IERC721-safeTransferFrom}."
      },
      "setApprovalForAll(address,bool)": {
        "details": "See {IERC721-setApprovalForAll}."
      },
      "supportsInterface(bytes4)": {
        "details": "See {IERC165-supportsInterface}."
      },
      "symbol()": {
        "details": "See {IERC721Metadata-symbol}."
      },
      "tokenURI(uint256)": {
        "details": "See {IERC721Metadata-tokenURI}."
      },
      "transferFrom(address,address,uint256)": {
        "details": "See {IERC721-transferFrom}."
      }
    },
    "title": "ERC721Mock This mock just provides a public safeMint, mint, and burn functions for testing purposes",
    "version": 1
  },
  "userdoc": {
    "kind": "user",
    "methods": {},
    "version": 1
  }
}