{
  "contractName": "ERC721VotesMock",
  "abi": [
    {
      "inputs": [
        {
          "internalType": "string",
          "name": "name",
          "type": "string"
        },
        {
          "internalType": "string",
          "name": "symbol",
          "type": "string"
        }
      ],
      "stateMutability": "nonpayable",
      "type": "constructor"
    },
    {
      "anonymous": false,
      "inputs": [
        {
          "indexed": true,
          "internalType": "address",
          "name": "owner",
          "type": "address"
        },
        {
          "indexed": true,
          "internalType": "address",
          "name": "approved",
          "type": "address"
        },
        {
          "indexed": true,
          "internalType": "uint256",
          "name": "tokenId",
          "type": "uint256"
        }
      ],
      "name": "Approval",
      "type": "event"
    },
    {
      "anonymous": false,
      "inputs": [
        {
          "indexed": true,
          "internalType": "address",
          "name": "owner",
          "type": "address"
        },
        {
          "indexed": true,
          "internalType": "address",
          "name": "operator",
          "type": "address"
        },
        {
          "indexed": false,
          "internalType": "bool",
          "name": "approved",
          "type": "bool"
        }
      ],
      "name": "ApprovalForAll",
      "type": "event"
    },
    {
      "anonymous": false,
      "inputs": [
        {
          "indexed": true,
          "internalType": "address",
          "name": "delegator",
          "type": "address"
        },
        {
          "indexed": true,
          "internalType": "address",
          "name": "fromDelegate",
          "type": "address"
        },
        {
          "indexed": true,
          "internalType": "address",
          "name": "toDelegate",
          "type": "address"
        }
      ],
      "name": "DelegateChanged",
      "type": "event"
    },
    {
      "anonymous": false,
      "inputs": [
        {
          "indexed": true,
          "internalType": "address",
          "name": "delegate",
          "type": "address"
        },
        {
          "indexed": false,
          "internalType": "uint256",
          "name": "previousBalance",
          "type": "uint256"
        },
        {
          "indexed": false,
          "internalType": "uint256",
          "name": "newBalance",
          "type": "uint256"
        }
      ],
      "name": "DelegateVotesChanged",
      "type": "event"
    },
    {
      "anonymous": false,
      "inputs": [
        {
          "indexed": true,
          "internalType": "address",
          "name": "from",
          "type": "address"
        },
        {
          "indexed": true,
          "internalType": "address",
          "name": "to",
          "type": "address"
        },
        {
          "indexed": true,
          "internalType": "uint256",
          "name": "tokenId",
          "type": "uint256"
        }
      ],
      "name": "Transfer",
      "type": "event"
    },
    {
      "inputs": [],
      "name": "DOMAIN_SEPARATOR",
      "outputs": [
        {
          "internalType": "bytes32",
          "name": "",
          "type": "bytes32"
        }
      ],
      "stateMutability": "view",
      "type": "function"
    },
    {
      "inputs": [
        {
          "internalType": "address",
          "name": "to",
          "type": "address"
        },
        {
          "internalType": "uint256",
          "name": "tokenId",
          "type": "uint256"
        }
      ],
      "name": "approve",
      "outputs": [],
      "stateMutability": "nonpayable",
      "type": "function"
    },
    {
      "inputs": [
        {
          "internalType": "address",
          "name": "owner",
          "type": "address"
        }
      ],
      "name": "balanceOf",
      "outputs": [
        {
          "internalType": "uint256",
          "name": "",
          "type": "uint256"
        }
      ],
      "stateMutability": "view",
      "type": "function"
    },
    {
      "inputs": [
        {
          "internalType": "address",
          "name": "delegatee",
          "type": "address"
        }
      ],
      "name": "delegate",
      "outputs": [],
      "stateMutability": "nonpayable",
      "type": "function"
    },
    {
      "inputs": [
        {
          "internalType": "address",
          "name": "delegatee",
          "type": "address"
        },
        {
          "internalType": "uint256",
          "name": "nonce",
          "type": "uint256"
        },
        {
          "internalType": "uint256",
          "name": "expiry",
          "type": "uint256"
        },
        {
          "internalType": "uint8",
          "name": "v",
          "type": "uint8"
        },
        {
          "internalType": "bytes32",
          "name": "r",
          "type": "bytes32"
        },
        {
          "internalType": "bytes32",
          "name": "s",
          "type": "bytes32"
        }
      ],
      "name": "delegateBySig",
      "outputs": [],
      "stateMutability": "nonpayable",
      "type": "function"
    },
    {
      "inputs": [
        {
          "internalType": "address",
          "name": "account",
          "type": "address"
        }
      ],
      "name": "delegates",
      "outputs": [
        {
          "internalType": "address",
          "name": "",
          "type": "address"
        }
      ],
      "stateMutability": "view",
      "type": "function"
    },
    {
      "inputs": [
        {
          "internalType": "uint256",
          "name": "tokenId",
          "type": "uint256"
        }
      ],
      "name": "getApproved",
      "outputs": [
        {
          "internalType": "address",
          "name": "",
          "type": "address"
        }
      ],
      "stateMutability": "view",
      "type": "function"
    },
    {
      "inputs": [
        {
          "internalType": "uint256",
          "name": "blockNumber",
          "type": "uint256"
        }
      ],
      "name": "getPastTotalSupply",
      "outputs": [
        {
          "internalType": "uint256",
          "name": "",
          "type": "uint256"
        }
      ],
      "stateMutability": "view",
      "type": "function"
    },
    {
      "inputs": [
        {
          "internalType": "address",
          "name": "account",
          "type": "address"
        },
        {
          "internalType": "uint256",
          "name": "blockNumber",
          "type": "uint256"
        }
      ],
      "name": "getPastVotes",
      "outputs": [
        {
          "internalType": "uint256",
          "name": "",
          "type": "uint256"
        }
      ],
      "stateMutability": "view",
      "type": "function"
    },
    {
      "inputs": [
        {
          "internalType": "address",
          "name": "account",
          "type": "address"
        }
      ],
      "name": "getVotes",
      "outputs": [
        {
          "internalType": "uint256",
          "name": "",
          "type": "uint256"
        }
      ],
      "stateMutability": "view",
      "type": "function"
    },
    {
      "inputs": [
        {
          "internalType": "address",
          "name": "owner",
          "type": "address"
        },
        {
          "internalType": "address",
          "name": "operator",
          "type": "address"
        }
      ],
      "name": "isApprovedForAll",
      "outputs": [
        {
          "internalType": "bool",
          "name": "",
          "type": "bool"
        }
      ],
      "stateMutability": "view",
      "type": "function"
    },
    {
      "inputs": [],
      "name": "name",
      "outputs": [
        {
          "internalType": "string",
          "name": "",
          "type": "string"
        }
      ],
      "stateMutability": "view",
      "type": "function"
    },
    {
      "inputs": [
        {
          "internalType": "address",
          "name": "owner",
          "type": "address"
        }
      ],
      "name": "nonces",
      "outputs": [
        {
          "internalType": "uint256",
          "name": "",
          "type": "uint256"
        }
      ],
      "stateMutability": "view",
      "type": "function"
    },
    {
      "inputs": [
        {
          "internalType": "uint256",
          "name": "tokenId",
          "type": "uint256"
        }
      ],
      "name": "ownerOf",
      "outputs": [
        {
          "internalType": "address",
          "name": "",
          "type": "address"
        }
      ],
      "stateMutability": "view",
      "type": "function"
    },
    {
      "inputs": [
        {
          "internalType": "address",
          "name": "from",
          "type": "address"
        },
        {
          "internalType": "address",
          "name": "to",
          "type": "address"
        },
        {
          "internalType": "uint256",
          "name": "tokenId",
          "type": "uint256"
        }
      ],
      "name": "safeTransferFrom",
      "outputs": [],
      "stateMutability": "nonpayable",
      "type": "function"
    },
    {
      "inputs": [
        {
          "internalType": "address",
          "name": "from",
          "type": "address"
        },
        {
          "internalType": "address",
          "name": "to",
          "type": "address"
        },
        {
          "internalType": "uint256",
          "name": "tokenId",
          "type": "uint256"
        },
        {
          "internalType": "bytes",
          "name": "data",
          "type": "bytes"
        }
      ],
      "name": "safeTransferFrom",
      "outputs": [],
      "stateMutability": "nonpayable",
      "type": "function"
    },
    {
      "inputs": [
        {
          "internalType": "address",
          "name": "operator",
          "type": "address"
        },
        {
          "internalType": "bool",
          "name": "approved",
          "type": "bool"
        }
      ],
      "name": "setApprovalForAll",
      "outputs": [],
      "stateMutability": "nonpayable",
      "type": "function"
    },
    {
      "inputs": [
        {
          "internalType": "bytes4",
          "name": "interfaceId",
          "type": "bytes4"
        }
      ],
      "name": "supportsInterface",
      "outputs": [
        {
          "internalType": "bool",
          "name": "",
          "type": "bool"
        }
      ],
      "stateMutability": "view",
      "type": "function"
    },
    {
      "inputs": [],
      "name": "symbol",
      "outputs": [
        {
          "internalType": "string",
          "name": "",
          "type": "string"
        }
      ],
      "stateMutability": "view",
      "type": "function"
    },
    {
      "inputs": [
        {
          "internalType": "uint256",
          "name": "tokenId",
          "type": "uint256"
        }
      ],
      "name": "tokenURI",
      "outputs": [
        {
          "internalType": "string",
          "name": "",
          "type": "string"
        }
      ],
      "stateMutability": "view",
      "type": "function"
    },
    {
      "inputs": [
        {
          "internalType": "address",
          "name": "from",
          "type": "address"
        },
        {
          "internalType": "address",
          "name": "to",
          "type": "address"
        },
        {
          "internalType": "uint256",
          "name": "tokenId",
          "type": "uint256"
        }
      ],
      "name": "transferFrom",
      "outputs": [],
      "stateMutability": "nonpayable",
      "type": "function"
    },
    {
      "inputs": [],
      "name": "getTotalSupply",
      "outputs": [
        {
          "internalType": "uint256",
          "name": "",
          "type": "uint256"
        }
      ],
      "stateMutability": "view",
      "type": "function"
    },
    {
      "inputs": [
        {
          "internalType": "address",
          "name": "account",
          "type": "address"
        },
        {
          "internalType": "uint256",
          "name": "tokenId",
          "type": "uint256"
        }
      ],
      "name": "mint",
      "outputs": [],
      "stateMutability": "nonpayable",
      "type": "function"
    },
    {
      "inputs": [
        {
          "internalType": "uint256",
          "name": "tokenId",
          "type": "uint256"
        }
      ],
      "name": "burn",
      "outputs": [],
      "stateMutability": "nonpayable",
      "type": "function"
    },
    {
      "inputs": [],
      "name": "getChainId",
      "outputs": [
        {
          "internalType": "uint256",
          "name": "",
          "type": "uint256"
        }
      ],
      "stateMutability": "view",
      "type": "function"
    }
  ],
  "bytecode": "0x6101406040523480156200001257600080fd5b506040516200246838038062002468833981016040819052620000359162000290565b81604051806040016040528060018152602001603160f81b815250838381600090805190602001906200006a9291906200011d565b508051620000809060019060208401906200011d565b5050825160208085019190912083518483012060e08290526101008190524660a0818152604080517f8b73c3c69bb8fe3d512ecc4cf759cc79239f7b179b0ffacaa9a75d522b39400f81880181905281830187905260608201869052608082019490945230818401528151808203909301835260c0019052805194019390932091935091906080523060c052610120525062000336945050505050565b8280546200012b90620002fa565b90600052602060002090601f0160209004810192826200014f57600085556200019a565b82601f106200016a57805160ff19168380011785556200019a565b828001600101855582156200019a579182015b828111156200019a5782518255916020019190600101906200017d565b50620001a8929150620001ac565b5090565b5b80821115620001a85760008155600101620001ad565b634e487b7160e01b600052604160045260246000fd5b600082601f830112620001eb57600080fd5b81516001600160401b0380821115620002085762000208620001c3565b604051601f8301601f19908116603f01168101908282118183101715620002335762000233620001c3565b816040528381526020925086838588010111156200025057600080fd5b600091505b8382101562000274578582018301518183018401529082019062000255565b83821115620002865760008385830101525b9695505050505050565b60008060408385031215620002a457600080fd5b82516001600160401b0380821115620002bc57600080fd5b620002ca86838701620001d9565b93506020850151915080821115620002e157600080fd5b50620002f085828601620001d9565b9150509250929050565b600181811c908216806200030f57607f821691505b6020821081036200033057634e487b7160e01b600052602260045260246000fd5b50919050565b60805160a05160c05160e05161010051610120516120e2620003866000396000610c9001526000610cdf01526000610cba01526000610c1301526000610c3d01526000610c6701526120e26000f3fe608060405234801561001057600080fd5b50600436106101335760003560e01c806301ffc9a71461013857806306fdde0314610160578063081812fc14610175578063095ea7b3146101a057806323b872dd146101b55780633408e470146101c85780633644e515146101d85780633a46b1a8146101e057806340c10f19146101f357806342842e0e1461020657806342966c6814610219578063587cde1e1461022c5780635c19a95c1461023f5780636352211e1461025257806370a08231146102655780637ecebe00146102785780638e539e8c1461028b57806395d89b411461029e5780639ab24eb0146102a6578063a22cb465146102b9578063b88d4fde146102cc578063c3cda520146102df578063c4e41b22146102f2578063c87b56dd146102fa578063e985e9c51461030d575b600080fd5b61014b610146366004611b17565b610320565b60405190151581526020015b60405180910390f35b610168610372565b6040516101579190611b8c565b610188610183366004611b9f565b610404565b6040516001600160a01b039091168152602001610157565b6101b36101ae366004611bd4565b61042b565b005b6101b36101c3366004611bfe565b610545565b465b604051908152602001610157565b6101ca610576565b6101ca6101ee366004611bd4565b610585565b6101b3610201366004611bd4565b6105ae565b6101b3610214366004611bfe565b6105bc565b6101b3610227366004611b9f565b6105d7565b61018861023a366004611c3a565b6105e3565b6101b361024d366004611c3a565b610601565b610188610260366004611b9f565b61060c565b6101ca610273366004611c3a565b610641565b6101ca610286366004611c3a565b6106c7565b6101ca610299366004611b9f565b6106e5565b61016861073e565b6101ca6102b4366004611c3a565b61074d565b6101b36102c7366004611c55565b61076e565b6101b36102da366004611ca7565b610779565b6101b36102ed366004611d82565b6107b1565b6101ca6108d9565b610168610308366004611b9f565b6108e3565b61014b61031b366004611de2565b610956565b60006001600160e01b031982166380ac58cd60e01b148061035157506001600160e01b03198216635b5e139f60e01b145b8061036c57506301ffc9a760e01b6001600160e01b03198316145b92915050565b60606000805461038190611e15565b80601f01602080910402602001604051908101604052809291908181526020018280546103ad90611e15565b80156103fa5780601f106103cf576101008083540402835291602001916103fa565b820191906000526020600020905b8154815290600101906020018083116103dd57829003601f168201915b5050505050905090565b600061040f82610984565b506000908152600460205260409020546001600160a01b031690565b60006104368261060c565b9050806001600160a01b0316836001600160a01b0316036104a85760405162461bcd60e51b815260206004820152602160248201527f4552433732313a20617070726f76616c20746f2063757272656e74206f776e656044820152603960f91b60648201526084015b60405180910390fd5b336001600160a01b03821614806104c457506104c48133610956565b6105365760405162461bcd60e51b815260206004820152603e60248201527f4552433732313a20617070726f76652063616c6c6572206973206e6f7420746f60448201527f6b656e206f776e6572206e6f7220617070726f76656420666f7220616c6c0000606482015260840161049f565b61054083836109a9565b505050565b61054f3382610a17565b61056b5760405162461bcd60e51b815260040161049f90611e49565b610540838383610a76565b6000610580610c06565b905090565b6001600160a01b03821660009081526007602052604081206105a79083610d2d565b9392505050565b6105b88282610e3b565b5050565b61054083838360405180602001604052806000815250610779565b6105e081610f63565b50565b6001600160a01b039081166000908152600660205260409020541690565b336105b88183610ff4565b6000818152600260205260408120546001600160a01b03168061036c5760405162461bcd60e51b815260040161049f90611e97565b60006001600160a01b0382166106ab5760405162461bcd60e51b815260206004820152602960248201527f4552433732313a2061646472657373207a65726f206973206e6f7420612076616044820152683634b21037bbb732b960b91b606482015260840161049f565b506001600160a01b031660009081526003602052604090205490565b6001600160a01b03811660009081526009602052604081205461036c565b60004382106107335760405162461bcd60e51b815260206004820152601a602482015279159bdd195cce88189b1bd8dac81b9bdd081e595d081b5a5b995960321b604482015260640161049f565b61036c600883610d2d565b60606001805461038190611e15565b6001600160a01b038116600090815260076020526040812061036c9061106f565b6105b83383836110ca565b6107833383610a17565b61079f5760405162461bcd60e51b815260040161049f90611e49565b6107ab84848484611194565b50505050565b834211156107fc5760405162461bcd60e51b8152602060048201526018602482015277159bdd195cce881cda59db985d1d5c9948195e1c1a5c995960421b604482015260640161049f565b604080517fe48329057bfd03d55e49b547132e39cffd9c1820ad7b9d4c5307691425d15adf60208201526001600160a01b0388169181019190915260608101869052608081018590526000906108769061086e9060a001604051602081830303815290604052805190602001206111c7565b858585611215565b90506108818161123d565b86146108c65760405162461bcd60e51b8152602060048201526014602482015273566f7465733a20696e76616c6964206e6f6e636560601b604482015260640161049f565b6108d08188610ff4565b50505050505050565b6000610580611265565b60606108ee82610984565b600061090560408051602081019091526000815290565b9050600081511161092557604051806020016040528060008152506105a7565b8061092f84611271565b604051602001610940929190611ec9565b6040516020818303038152906040529392505050565b6001600160a01b03918216600090815260056020908152604080832093909416825291909152205460ff1690565b61098d81611371565b6105e05760405162461bcd60e51b815260040161049f90611e97565b600081815260046020526040902080546001600160a01b0319166001600160a01b03841690811790915581906109de8261060c565b6001600160a01b03167f8c5be1e5ebec7d5bd14f71427d1e84f3dd0314c0f7b2291e5b200ac8c7c3b92560405160405180910390a45050565b600080610a238361060c565b9050806001600160a01b0316846001600160a01b03161480610a4a5750610a4a8185610956565b80610a6e5750836001600160a01b0316610a6384610404565b6001600160a01b0316145b949350505050565b826001600160a01b0316610a898261060c565b6001600160a01b031614610aed5760405162461bcd60e51b815260206004820152602560248201527f4552433732313a207472616e736665722066726f6d20696e636f72726563742060448201526437bbb732b960d91b606482015260840161049f565b6001600160a01b038216610b4f5760405162461bcd60e51b8152602060048201526024808201527f4552433732313a207472616e7366657220746f20746865207a65726f206164646044820152637265737360e01b606482015260840161049f565b610b5a6000826109a9565b6001600160a01b0383166000908152600360205260408120805460019290610b83908490611f0e565b90915550506001600160a01b0382166000908152600360205260408120805460019290610bb1908490611f25565b909155505060008181526002602052604080822080546001600160a01b0319166001600160a01b03868116918217909255915184939187169160008051602061206d83398151915291a461054083838361138e565b6000306001600160a01b037f000000000000000000000000000000000000000000000000000000000000000016148015610c5f57507f000000000000000000000000000000000000000000000000000000000000000046145b15610c8957507f000000000000000000000000000000000000000000000000000000000000000090565b50604080517f00000000000000000000000000000000000000000000000000000000000000006020808301919091527f0000000000000000000000000000000000000000000000000000000000000000828401527f000000000000000000000000000000000000000000000000000000000000000060608301524660808301523060a0808401919091528351808403909101815260c0909201909252805191012090565b6000438210610d7e5760405162461bcd60e51b815260206004820181905260248201527f436865636b706f696e74733a20626c6f636b206e6f7420796574206d696e6564604482015260640161049f565b825460005b81811015610de3576000610d97828461139a565b905084866000018281548110610daf57610daf611f3d565b60009182526020909120015463ffffffff161115610dcf57809250610ddd565b610dda816001611f25565b91505b50610d83565b8115610e265784610df5600184611f0e565b81548110610e0557610e05611f3d565b600091825260209091200154600160201b90046001600160e01b0316610e29565b60005b6001600160e01b031695945050505050565b6001600160a01b038216610e915760405162461bcd60e51b815260206004820181905260248201527f4552433732313a206d696e7420746f20746865207a65726f2061646472657373604482015260640161049f565b610e9a81611371565b15610ee65760405162461bcd60e51b815260206004820152601c60248201527b115490cdcc8c4e881d1bdad95b88185b1c9958591e481b5a5b9d195960221b604482015260640161049f565b6001600160a01b0382166000908152600360205260408120805460019290610f0f908490611f25565b909155505060008181526002602052604080822080546001600160a01b0319166001600160a01b038616908117909155905183929060008051602061206d833981519152908290a46105b86000838361138e565b6000610f6e8261060c565b9050610f7b6000836109a9565b6001600160a01b0381166000908152600360205260408120805460019290610fa4908490611f0e565b909155505060008281526002602052604080822080546001600160a01b0319169055518391906001600160a01b0384169060008051602061206d833981519152908390a46105b88160008461138e565b6000610fff836105e3565b6001600160a01b0384811660008181526006602052604080822080546001600160a01b031916888616908117909155905194955093928516927f3134e8a2e6d97e929a7e54011ea5485d7d196dd5f0ba4d4ef95803e8e3fc257f9190a4610540818361106a866113b5565b6113c0565b805460009080156110b75782611086600183611f0e565b8154811061109657611096611f3d565b600091825260209091200154600160201b90046001600160e01b03166110ba565b60005b6001600160e01b03169392505050565b816001600160a01b0316836001600160a01b0316036111275760405162461bcd60e51b815260206004820152601960248201527822a9219b99189d1030b8383937bb32903a379031b0b63632b960391b604482015260640161049f565b6001600160a01b03838116600081815260056020908152604080832094871680845294825291829020805460ff191686151590811790915591519182527f17307eab39ab6107e8899845ad3d59bd9653f200f220920489ca2b5937696c31910160405180910390a3505050565b61119f848484610a76565b6111ab848484846114d9565b6107ab5760405162461bcd60e51b815260040161049f90611f53565b600061036c6111d4610c06565b8360405161190160f01b6020820152602281018390526042810182905260009060620160405160208183030381529060405280519060200120905092915050565b6000806000611226878787876115d7565b91509150611233816116ba565b5095945050505050565b6001600160a01b03811660009081526009602052604090208054600181018255905b50919050565b6000610580600861106f565b6060816000036112985750506040805180820190915260018152600360fc1b602082015290565b8160005b81156112c257806112ac81611fa5565b91506112bb9050600a83611fd4565b915061129c565b6000816001600160401b038111156112dc576112dc611c91565b6040519080825280601f01601f191660200182016040528015611306576020820181803683370190505b5090505b8415610a6e5761131b600183611f0e565b9150611328600a86611fe8565b611333906030611f25565b60f81b81838151811061134857611348611f3d565b60200101906001600160f81b031916908160001a90535061136a600a86611fd4565b945061130a565b6000908152600260205260409020546001600160a01b0316151590565b6105408383600161186b565b60006113a96002848418611fd4565b6105a790848416611f25565b600061036c82610641565b816001600160a01b0316836001600160a01b0316141580156113e25750600081115b15610540576001600160a01b0383161561145e576001600160a01b0383166000908152600760205260408120819061141d906118c4856118d0565b91509150846001600160a01b031660008051602061208d8339815191528383604051611453929190918252602082015260400190565b60405180910390a250505b6001600160a01b03821615610540576001600160a01b03821660009081526007602052604081208190611494906118fe856118d0565b91509150836001600160a01b031660008051602061208d83398151915283836040516114ca929190918252602082015260400190565b60405180910390a25050505050565b60006001600160a01b0384163b156115cf57604051630a85bd0160e11b81526001600160a01b0385169063150b7a029061151d903390899088908890600401611ffc565b6020604051808303816000875af1925050508015611558575060408051601f3d908101601f1916820190925261155591810190612039565b60015b6115b5573d808015611586576040519150601f19603f3d011682016040523d82523d6000602084013e61158b565b606091505b5080516000036115ad5760405162461bcd60e51b815260040161049f90611f53565b805181602001fd5b6001600160e01b031916630a85bd0160e11b149050610a6e565b506001610a6e565b6000806fa2a8918ca85bafe22016d0b997e4df60600160ff1b0383111561160457506000905060036116b1565b8460ff16601b1415801561161c57508460ff16601c14155b1561162d57506000905060046116b1565b6040805160008082526020820180845289905260ff881692820192909252606081018690526080810185905260019060a0016020604051602081039080840390855afa158015611681573d6000803e3d6000fd5b5050604051601f1901519150506001600160a01b0381166116aa576000600192509250506116b1565b9150600090505b94509492505050565b60008160048111156116ce576116ce612056565b036116d65750565b60018160048111156116ea576116ea612056565b036117325760405162461bcd60e51b815260206004820152601860248201527745434453413a20696e76616c6964207369676e617475726560401b604482015260640161049f565b600281600481111561174657611746612056565b036117935760405162461bcd60e51b815260206004820152601f60248201527f45434453413a20696e76616c6964207369676e6174757265206c656e67746800604482015260640161049f565b60038160048111156117a7576117a7612056565b036117ff5760405162461bcd60e51b815260206004820152602260248201527f45434453413a20696e76616c6964207369676e6174757265202773272076616c604482015261756560f01b606482015260840161049f565b600481600481111561181357611813612056565b036105e05760405162461bcd60e51b815260206004820152602260248201527f45434453413a20696e76616c6964207369676e6174757265202776272076616c604482015261756560f01b606482015260840161049f565b6001600160a01b03831661188a5761188760086118fe836118d0565b50505b6001600160a01b0382166118a9576118a660086118c4836118d0565b50505b6105406118b5846105e3565b6118be846105e3565b836113c0565b60006105a78284611f0e565b6000806118f2856118ed6118e38861106f565b868863ffffffff16565b61190a565b91509150935093915050565b60006105a78284611f25565b815460009081908161191b8661106f565b905060008211801561195957504386611935600185611f0e565b8154811061194557611945611f3d565b60009182526020909120015463ffffffff16145b156119b95761196785611a2f565b86611973600185611f0e565b8154811061198357611983611f3d565b9060005260206000200160000160046101000a8154816001600160e01b0302191690836001600160e01b03160217905550611a26565b8560000160405180604001604052806119d143611a9c565b63ffffffff1681526020016119e588611a2f565b6001600160e01b039081169091528254600181018455600093845260209384902083519490930151909116600160201b0263ffffffff909316929092179101555b95939450505050565b60006001600160e01b03821115611a985760405162461bcd60e51b815260206004820152602760248201527f53616665436173743a2076616c756520646f65736e27742066697420696e20326044820152663234206269747360c81b606482015260840161049f565b5090565b600063ffffffff821115611a985760405162461bcd60e51b815260206004820152602660248201527f53616665436173743a2076616c756520646f65736e27742066697420696e203360448201526532206269747360d01b606482015260840161049f565b6001600160e01b0319811681146105e057600080fd5b600060208284031215611b2957600080fd5b81356105a781611b01565b60005b83811015611b4f578181015183820152602001611b37565b838111156107ab5750506000910152565b60008151808452611b78816020860160208601611b34565b601f01601f19169290920160200192915050565b6020815260006105a76020830184611b60565b600060208284031215611bb157600080fd5b5035919050565b80356001600160a01b0381168114611bcf57600080fd5b919050565b60008060408385031215611be757600080fd5b611bf083611bb8565b946020939093013593505050565b600080600060608486031215611c1357600080fd5b611c1c84611bb8565b9250611c2a60208501611bb8565b9150604084013590509250925092565b600060208284031215611c4c57600080fd5b6105a782611bb8565b60008060408385031215611c6857600080fd5b611c7183611bb8565b915060208301358015158114611c8657600080fd5b809150509250929050565b634e487b7160e01b600052604160045260246000fd5b60008060008060808587031215611cbd57600080fd5b611cc685611bb8565b9350611cd460208601611bb8565b92506040850135915060608501356001600160401b0380821115611cf757600080fd5b818701915087601f830112611d0b57600080fd5b813581811115611d1d57611d1d611c91565b604051601f8201601f19908116603f01168101908382118183101715611d4557611d45611c91565b816040528281528a6020848701011115611d5e57600080fd5b82602086016020830137600060208483010152809550505050505092959194509250565b60008060008060008060c08789031215611d9b57600080fd5b611da487611bb8565b95506020870135945060408701359350606087013560ff81168114611dc857600080fd5b9598949750929560808101359460a0909101359350915050565b60008060408385031215611df557600080fd5b611dfe83611bb8565b9150611e0c60208401611bb8565b90509250929050565b600181811c90821680611e2957607f821691505b60208210810361125f57634e487b7160e01b600052602260045260246000fd5b6020808252602e908201527f4552433732313a2063616c6c6572206973206e6f7420746f6b656e206f776e6560408201526d1c881b9bdc88185c1c1c9bdd995960921b606082015260800190565b602080825260189082015277115490cdcc8c4e881a5b9d985b1a59081d1bdad95b88125160421b604082015260600190565b60008351611edb818460208801611b34565b835190830190611eef818360208801611b34565b01949350505050565b634e487b7160e01b600052601160045260246000fd5b600082821015611f2057611f20611ef8565b500390565b60008219821115611f3857611f38611ef8565b500190565b634e487b7160e01b600052603260045260246000fd5b60208082526032908201527f4552433732313a207472616e7366657220746f206e6f6e20455243373231526560408201527131b2b4bb32b91034b6b83632b6b2b73a32b960711b606082015260800190565b600060018201611fb757611fb7611ef8565b5060010190565b634e487b7160e01b600052601260045260246000fd5b600082611fe357611fe3611fbe565b500490565b600082611ff757611ff7611fbe565b500690565b6001600160a01b038581168252841660208201526040810183905260806060820181905260009061202f90830184611b60565b9695505050505050565b60006020828403121561204b57600080fd5b81516105a781611b01565b634e487b7160e01b600052602160045260246000fdfeddf252ad1be2c89b69c2b068fc378daa952ba7f163c4a11628f55a4df523b3efdec2bacdd2f05b59de34da9b523dff8be42e5e38e818c82fdb0bae774387a724a2646970667358221220a762ed8f5f6ce173eedbf063021970df0bd161987e9586ea98664af620890f5564736f6c634300080e0033",
  "immutableReferences": {
    "33049": [
      {
        "length": 32,
        "start": 3175
      }
    ],
    "33051": [
      {
        "length": 32,
        "start": 3133
      }
    ],
    "33053": [
      {
        "length": 32,
        "start": 3091
      }
    ],
    "33055": [
      {
        "length": 32,
        "start": 3258
      }
    ],
    "33057": [
      {
        "length": 32,
        "start": 3295
      }
    ],
    "33059": [
      {
        "length": 32,
        "start": 3216
      }
    ]
  },
  "source": "// SPDX-License-Identifier: MIT\r\n\r\npragma solidity ^0.8.0;\r\n\r\nimport \"../token/ERC721/extensions/draft-ERC721Votes.sol\";\r\n\r\ncontract ERC721VotesMock is ERC721Votes {\r\n    constructor(string memory name, string memory symbol) ERC721(name, symbol) EIP712(name, \"1\") {}\r\n\r\n    function getTotalSupply() public view returns (uint256) {\r\n        return _getTotalSupply();\r\n    }\r\n\r\n    function mint(address account, uint256 tokenId) public {\r\n        _mint(account, tokenId);\r\n    }\r\n\r\n    function burn(uint256 tokenId) public {\r\n        _burn(tokenId);\r\n    }\r\n\r\n    function getChainId() external view returns (uint256) {\r\n        return block.chainid;\r\n    }\r\n}\r\n",
  "sourcePath": "D:\\work\\www\\yopu_dapp_nft\\contracts\\lib\\openzeppelin\\contracts\\mocks\\ERC721VotesMock.sol",
  "compiler": {
    "name": "solc",
    "version": "0.8.14+commit.80d49f37.Emscripten.clang"
  },
  "schemaVersion": "3.4.7",
  "updatedAt": "2022-06-28T15:05:47.684Z",
  "devdoc": {
    "kind": "dev",
    "methods": {
      "DOMAIN_SEPARATOR()": {
        "details": "Returns the contract's {EIP712} domain separator."
      },
      "approve(address,uint256)": {
        "details": "See {IERC721-approve}."
      },
      "balanceOf(address)": {
        "details": "See {IERC721-balanceOf}."
      },
      "delegate(address)": {
        "details": "Delegates votes from the sender to `delegatee`."
      },
      "delegateBySig(address,uint256,uint256,uint8,bytes32,bytes32)": {
        "details": "Delegates votes from signer to `delegatee`."
      },
      "delegates(address)": {
        "details": "Returns the delegate that `account` has chosen."
      },
      "getApproved(uint256)": {
        "details": "See {IERC721-getApproved}."
      },
      "getPastTotalSupply(uint256)": {
        "details": "Returns the total supply of votes available at the end of a past block (`blockNumber`). NOTE: This value is the sum of all available votes, which is not necessarily the sum of all delegated votes. Votes that have not been delegated are still part of total supply, even though they would not participate in a vote. Requirements: - `blockNumber` must have been already mined"
      },
      "getPastVotes(address,uint256)": {
        "details": "Returns the amount of votes that `account` had at the end of a past block (`blockNumber`). Requirements: - `blockNumber` must have been already mined"
      },
      "getVotes(address)": {
        "details": "Returns the current amount of votes that `account` has."
      },
      "isApprovedForAll(address,address)": {
        "details": "See {IERC721-isApprovedForAll}."
      },
      "name()": {
        "details": "See {IERC721Metadata-name}."
      },
      "nonces(address)": {
        "details": "Returns an address nonce."
      },
      "ownerOf(uint256)": {
        "details": "See {IERC721-ownerOf}."
      },
      "safeTransferFrom(address,address,uint256)": {
        "details": "See {IERC721-safeTransferFrom}."
      },
      "safeTransferFrom(address,address,uint256,bytes)": {
        "details": "See {IERC721-safeTransferFrom}."
      },
      "setApprovalForAll(address,bool)": {
        "details": "See {IERC721-setApprovalForAll}."
      },
      "supportsInterface(bytes4)": {
        "details": "See {IERC165-supportsInterface}."
      },
      "symbol()": {
        "details": "See {IERC721Metadata-symbol}."
      },
      "tokenURI(uint256)": {
        "details": "See {IERC721Metadata-tokenURI}."
      },
      "transferFrom(address,address,uint256)": {
        "details": "See {IERC721-transferFrom}."
      }
    },
    "version": 1
  },
  "userdoc": {
    "kind": "user",
    "methods": {},
    "version": 1
  }
}