{
  "contractName": "ERC777Mock",
  "abi": [
    {
      "inputs": [
        {
          "internalType": "address",
          "name": "initialHolder",
          "type": "address"
        },
        {
          "internalType": "uint256",
          "name": "initialBalance",
          "type": "uint256"
        },
        {
          "internalType": "string",
          "name": "name",
          "type": "string"
        },
        {
          "internalType": "string",
          "name": "symbol",
          "type": "string"
        },
        {
          "internalType": "address[]",
          "name": "defaultOperators",
          "type": "address[]"
        }
      ],
      "stateMutability": "nonpayable",
      "type": "constructor"
    },
    {
      "anonymous": false,
      "inputs": [
        {
          "indexed": true,
          "internalType": "address",
          "name": "owner",
          "type": "address"
        },
        {
          "indexed": true,
          "internalType": "address",
          "name": "spender",
          "type": "address"
        },
        {
          "indexed": false,
          "internalType": "uint256",
          "name": "value",
          "type": "uint256"
        }
      ],
      "name": "Approval",
      "type": "event"
    },
    {
      "anonymous": false,
      "inputs": [
        {
          "indexed": true,
          "internalType": "address",
          "name": "operator",
          "type": "address"
        },
        {
          "indexed": true,
          "internalType": "address",
          "name": "tokenHolder",
          "type": "address"
        }
      ],
      "name": "AuthorizedOperator",
      "type": "event"
    },
    {
      "anonymous": false,
      "inputs": [],
      "name": "BeforeTokenTransfer",
      "type": "event"
    },
    {
      "anonymous": false,
      "inputs": [
        {
          "indexed": true,
          "internalType": "address",
          "name": "operator",
          "type": "address"
        },
        {
          "indexed": true,
          "internalType": "address",
          "name": "from",
          "type": "address"
        },
        {
          "indexed": false,
          "internalType": "uint256",
          "name": "amount",
          "type": "uint256"
        },
        {
          "indexed": false,
          "internalType": "bytes",
          "name": "data",
          "type": "bytes"
        },
        {
          "indexed": false,
          "internalType": "bytes",
          "name": "operatorData",
          "type": "bytes"
        }
      ],
      "name": "Burned",
      "type": "event"
    },
    {
      "anonymous": false,
      "inputs": [
        {
          "indexed": true,
          "internalType": "address",
          "name": "operator",
          "type": "address"
        },
        {
          "indexed": true,
          "internalType": "address",
          "name": "to",
          "type": "address"
        },
        {
          "indexed": false,
          "internalType": "uint256",
          "name": "amount",
          "type": "uint256"
        },
        {
          "indexed": false,
          "internalType": "bytes",
          "name": "data",
          "type": "bytes"
        },
        {
          "indexed": false,
          "internalType": "bytes",
          "name": "operatorData",
          "type": "bytes"
        }
      ],
      "name": "Minted",
      "type": "event"
    },
    {
      "anonymous": false,
      "inputs": [
        {
          "indexed": true,
          "internalType": "address",
          "name": "operator",
          "type": "address"
        },
        {
          "indexed": true,
          "internalType": "address",
          "name": "tokenHolder",
          "type": "address"
        }
      ],
      "name": "RevokedOperator",
      "type": "event"
    },
    {
      "anonymous": false,
      "inputs": [
        {
          "indexed": true,
          "internalType": "address",
          "name": "operator",
          "type": "address"
        },
        {
          "indexed": true,
          "internalType": "address",
          "name": "from",
          "type": "address"
        },
        {
          "indexed": true,
          "internalType": "address",
          "name": "to",
          "type": "address"
        },
        {
          "indexed": false,
          "internalType": "uint256",
          "name": "amount",
          "type": "uint256"
        },
        {
          "indexed": false,
          "internalType": "bytes",
          "name": "data",
          "type": "bytes"
        },
        {
          "indexed": false,
          "internalType": "bytes",
          "name": "operatorData",
          "type": "bytes"
        }
      ],
      "name": "Sent",
      "type": "event"
    },
    {
      "anonymous": false,
      "inputs": [
        {
          "indexed": true,
          "internalType": "address",
          "name": "from",
          "type": "address"
        },
        {
          "indexed": true,
          "internalType": "address",
          "name": "to",
          "type": "address"
        },
        {
          "indexed": false,
          "internalType": "uint256",
          "name": "value",
          "type": "uint256"
        }
      ],
      "name": "Transfer",
      "type": "event"
    },
    {
      "inputs": [
        {
          "internalType": "address",
          "name": "holder",
          "type": "address"
        },
        {
          "internalType": "address",
          "name": "spender",
          "type": "address"
        }
      ],
      "name": "allowance",
      "outputs": [
        {
          "internalType": "uint256",
          "name": "",
          "type": "uint256"
        }
      ],
      "stateMutability": "view",
      "type": "function"
    },
    {
      "inputs": [
        {
          "internalType": "address",
          "name": "spender",
          "type": "address"
        },
        {
          "internalType": "uint256",
          "name": "value",
          "type": "uint256"
        }
      ],
      "name": "approve",
      "outputs": [
        {
          "internalType": "bool",
          "name": "",
          "type": "bool"
        }
      ],
      "stateMutability": "nonpayable",
      "type": "function"
    },
    {
      "inputs": [
        {
          "internalType": "address",
          "name": "operator",
          "type": "address"
        }
      ],
      "name": "authorizeOperator",
      "outputs": [],
      "stateMutability": "nonpayable",
      "type": "function"
    },
    {
      "inputs": [
        {
          "internalType": "address",
          "name": "tokenHolder",
          "type": "address"
        }
      ],
      "name": "balanceOf",
      "outputs": [
        {
          "internalType": "uint256",
          "name": "",
          "type": "uint256"
        }
      ],
      "stateMutability": "view",
      "type": "function"
    },
    {
      "inputs": [
        {
          "internalType": "uint256",
          "name": "amount",
          "type": "uint256"
        },
        {
          "internalType": "bytes",
          "name": "data",
          "type": "bytes"
        }
      ],
      "name": "burn",
      "outputs": [],
      "stateMutability": "nonpayable",
      "type": "function"
    },
    {
      "inputs": [],
      "name": "decimals",
      "outputs": [
        {
          "internalType": "uint8",
          "name": "",
          "type": "uint8"
        }
      ],
      "stateMutability": "pure",
      "type": "function"
    },
    {
      "inputs": [],
      "name": "defaultOperators",
      "outputs": [
        {
          "internalType": "address[]",
          "name": "",
          "type": "address[]"
        }
      ],
      "stateMutability": "view",
      "type": "function"
    },
    {
      "inputs": [],
      "name": "granularity",
      "outputs": [
        {
          "internalType": "uint256",
          "name": "",
          "type": "uint256"
        }
      ],
      "stateMutability": "view",
      "type": "function"
    },
    {
      "inputs": [
        {
          "internalType": "address",
          "name": "operator",
          "type": "address"
        },
        {
          "internalType": "address",
          "name": "tokenHolder",
          "type": "address"
        }
      ],
      "name": "isOperatorFor",
      "outputs": [
        {
          "internalType": "bool",
          "name": "",
          "type": "bool"
        }
      ],
      "stateMutability": "view",
      "type": "function"
    },
    {
      "inputs": [],
      "name": "name",
      "outputs": [
        {
          "internalType": "string",
          "name": "",
          "type": "string"
        }
      ],
      "stateMutability": "view",
      "type": "function"
    },
    {
      "inputs": [
        {
          "internalType": "address",
          "name": "account",
          "type": "address"
        },
        {
          "internalType": "uint256",
          "name": "amount",
          "type": "uint256"
        },
        {
          "internalType": "bytes",
          "name": "data",
          "type": "bytes"
        },
        {
          "internalType": "bytes",
          "name": "operatorData",
          "type": "bytes"
        }
      ],
      "name": "operatorBurn",
      "outputs": [],
      "stateMutability": "nonpayable",
      "type": "function"
    },
    {
      "inputs": [
        {
          "internalType": "address",
          "name": "sender",
          "type": "address"
        },
        {
          "internalType": "address",
          "name": "recipient",
          "type": "address"
        },
        {
          "internalType": "uint256",
          "name": "amount",
          "type": "uint256"
        },
        {
          "internalType": "bytes",
          "name": "data",
          "type": "bytes"
        },
        {
          "internalType": "bytes",
          "name": "operatorData",
          "type": "bytes"
        }
      ],
      "name": "operatorSend",
      "outputs": [],
      "stateMutability": "nonpayable",
      "type": "function"
    },
    {
      "inputs": [
        {
          "internalType": "address",
          "name": "operator",
          "type": "address"
        }
      ],
      "name": "revokeOperator",
      "outputs": [],
      "stateMutability": "nonpayable",
      "type": "function"
    },
    {
      "inputs": [
        {
          "internalType": "address",
          "name": "recipient",
          "type": "address"
        },
        {
          "internalType": "uint256",
          "name": "amount",
          "type": "uint256"
        },
        {
          "internalType": "bytes",
          "name": "data",
          "type": "bytes"
        }
      ],
      "name": "send",
      "outputs": [],
      "stateMutability": "nonpayable",
      "type": "function"
    },
    {
      "inputs": [],
      "name": "symbol",
      "outputs": [
        {
          "internalType": "string",
          "name": "",
          "type": "string"
        }
      ],
      "stateMutability": "view",
      "type": "function"
    },
    {
      "inputs": [],
      "name": "totalSupply",
      "outputs": [
        {
          "internalType": "uint256",
          "name": "",
          "type": "uint256"
        }
      ],
      "stateMutability": "view",
      "type": "function"
    },
    {
      "inputs": [
        {
          "internalType": "address",
          "name": "recipient",
          "type": "address"
        },
        {
          "internalType": "uint256",
          "name": "amount",
          "type": "uint256"
        }
      ],
      "name": "transfer",
      "outputs": [
        {
          "internalType": "bool",
          "name": "",
          "type": "bool"
        }
      ],
      "stateMutability": "nonpayable",
      "type": "function"
    },
    {
      "inputs": [
        {
          "internalType": "address",
          "name": "holder",
          "type": "address"
        },
        {
          "internalType": "address",
          "name": "recipient",
          "type": "address"
        },
        {
          "internalType": "uint256",
          "name": "amount",
          "type": "uint256"
        }
      ],
      "name": "transferFrom",
      "outputs": [
        {
          "internalType": "bool",
          "name": "",
          "type": "bool"
        }
      ],
      "stateMutability": "nonpayable",
      "type": "function"
    },
    {
      "inputs": [
        {
          "internalType": "address",
          "name": "to",
          "type": "address"
        },
        {
          "internalType": "uint256",
          "name": "amount",
          "type": "uint256"
        },
        {
          "internalType": "bytes",
          "name": "userData",
          "type": "bytes"
        },
        {
          "internalType": "bytes",
          "name": "operatorData",
          "type": "bytes"
        }
      ],
      "name": "mintInternal",
      "outputs": [],
      "stateMutability": "nonpayable",
      "type": "function"
    },
    {
      "inputs": [
        {
          "internalType": "address",
          "name": "to",
          "type": "address"
        },
        {
          "internalType": "uint256",
          "name": "amount",
          "type": "uint256"
        },
        {
          "internalType": "bytes",
          "name": "userData",
          "type": "bytes"
        },
        {
          "internalType": "bytes",
          "name": "operatorData",
          "type": "bytes"
        },
        {
          "internalType": "bool",
          "name": "requireReceptionAck",
          "type": "bool"
        }
      ],
      "name": "mintInternalExtended",
      "outputs": [],
      "stateMutability": "nonpayable",
      "type": "function"
    },
    {
      "inputs": [
        {
          "internalType": "address",
          "name": "holder",
          "type": "address"
        },
        {
          "internalType": "address",
          "name": "spender",
          "type": "address"
        },
        {
          "internalType": "uint256",
          "name": "value",
          "type": "uint256"
        }
      ],
      "name": "approveInternal",
      "outputs": [],
      "stateMutability": "nonpayable",
      "type": "function"
    }
  ],
  "bytecode": "0x60806040523480156200001157600080fd5b506040516200235e3803806200235e8339810160408190526200003491620007ef565b82828282600290805190602001906200004f929190620005e8565b50815162000065906003906020850190620005e8565b5080516200007b90600490602084019062000677565b5060005b8151811015620000eb57600160056000848481518110620000a457620000a462000918565b6020908102919091018101516001600160a01b03168252810191909152604001600020805460ff191691151591909117905580620000e28162000944565b9150506200007f565b506040516329965a1d60e01b8152731820a4b7618bde71dce8cdc73aab6c95905fad24906329965a1d90620001499030907fac7fbab5f54a3ca8194167523c6753bfeb96a445279294b6125b68cce217705490829060040162000960565b600060405180830381600087803b1580156200016457600080fd5b505af115801562000179573d6000803e3d6000fd5b50506040516329965a1d60e01b8152731820a4b7618bde71dce8cdc73aab6c95905fad2492506329965a1d9150620001da9030907faea199e31a596269b42cdafd93407f14436db6e4cad65417994c2eb37381e05a90829060040162000960565b600060405180830381600087803b158015620001f557600080fd5b505af11580156200020a573d6000803e3d6000fd5b5050505050505062000243858560405180602001604052806000815250604051806020016040528060008152506200024e60201b60201c565b505050505062000ac4565b6200025e84848484600162000264565b50505050565b6001600160a01b038516620002c05760405162461bcd60e51b815260206004820181905260248201527f4552433737373a206d696e7420746f20746865207a65726f206164647265737360448201526064015b60405180910390fd5b33620002d08160008888620003c5565b8460016000828254620002e4919062000983565b90915550506001600160a01b038616600090815260208190526040812080548792906200031390849062000983565b909155506200032b90508160008888888888620003f4565b856001600160a01b0316816001600160a01b03167f2fe5be0146f74c5bce36c0b80911af6c7d86ff27e89d5cfa61fc681327954e5d8787876040516200037493929190620009cc565b60405180910390a36040518581526001600160a01b038716906000907fddf252ad1be2c89b69c2b068fc378daa952ba7f163c4a11628f55a4df523b3ef9060200160405180910390a3505050505050565b6040517f52316ab8e8b0687ce803e403dfe429541bccd4f6c4683ec65d254d382f15a26590600090a150505050565b60405163555ddc6560e11b81526001600160a01b03861660048201527fb281fc8c12954d22544db45de3159a39272895b169a852b314f9cc762e44c53b6024820152600090731820a4b7618bde71dce8cdc73aab6c95905fad249063aabbb8ca90604401602060405180830381865afa15801562000476573d6000803e3d6000fd5b505050506040513d601f19601f820116820180604052508101906200049c919062000a05565b90506001600160a01b038116156200051e576040516223de2960e01b81526001600160a01b038216906223de2990620004e4908b908b908b908b908b908b9060040162000a2a565b600060405180830381600087803b158015620004ff57600080fd5b505af115801562000514573d6000803e3d6000fd5b50505050620005cf565b8115620005cf5762000544866001600160a01b0316620005d960201b6200082c1760201c565b15620005cf5760405162461bcd60e51b815260206004820152604d60248201527f4552433737373a20746f6b656e20726563697069656e7420636f6e747261637460448201527f20686173206e6f20696d706c656d656e74657220666f7220455243373737546f60648201526c1ad95b9cd49958da5c1a595b9d609a1b608482015260a401620002b7565b5050505050505050565b6001600160a01b03163b151590565b828054620005f69062000a88565b90600052602060002090601f0160209004810192826200061a576000855562000665565b82601f106200063557805160ff191683800117855562000665565b8280016001018555821562000665579182015b828111156200066557825182559160200191906001019062000648565b5062000673929150620006cf565b5090565b82805482825590600052602060002090810192821562000665579160200282015b828111156200066557825182546001600160a01b0319166001600160a01b0390911617825560209092019160019091019062000698565b5b80821115620006735760008155600101620006d0565b80516001600160a01b0381168114620006fe57600080fd5b919050565b634e487b7160e01b600052604160045260246000fd5b604051601f8201601f191681016001600160401b038111828210171562000744576200074462000703565b604052919050565b60005b83811015620007695781810151838201526020016200074f565b838111156200025e5750506000910152565b600082601f8301126200078d57600080fd5b81516001600160401b03811115620007a957620007a962000703565b620007be601f8201601f191660200162000719565b818152846020838601011115620007d457600080fd5b620007e78260208301602087016200074c565b949350505050565b600080600080600060a086880312156200080857600080fd5b6200081386620006e6565b60208781015160408901519297509550906001600160401b03808211156200083a57600080fd5b620008488a838b016200077b565b955060608901519150808211156200085f57600080fd5b6200086d8a838b016200077b565b945060808901519150808211156200088457600080fd5b818901915089601f8301126200089957600080fd5b815181811115620008ae57620008ae62000703565b8060051b9150620008c184830162000719565b818152918301840191848101908c841115620008dc57600080fd5b938501935b838510156200090557620008f585620006e6565b82529385019390850190620008e1565b8096505050505050509295509295909350565b634e487b7160e01b600052603260045260246000fd5b634e487b7160e01b600052601160045260246000fd5b6000600182016200095957620009596200092e565b5060010190565b6001600160a01b0393841681526020810192909252909116604082015260600190565b600082198211156200099957620009996200092e565b500190565b60008151808452620009b88160208601602086016200074c565b601f01601f19169290920160200192915050565b838152606060208201526000620009e760608301856200099e565b8281036040840152620009fb81856200099e565b9695505050505050565b60006020828403121562000a1857600080fd5b62000a2382620006e6565b9392505050565b6001600160a01b0387811682528681166020830152851660408201526060810184905260c06080820181905260009062000a67908301856200099e565b82810360a084015262000a7b81856200099e565b9998505050505050505050565b600181811c9082168062000a9d57607f821691505b60208210810362000abe57634e487b7160e01b600052602260045260246000fd5b50919050565b61188a8062000ad46000396000f3fe608060405234801561001057600080fd5b50600436106101075760003560e01c806306e485381461010c57806306fdde031461012a578063095ea7b31461013f57806318160ddd1461016257806323b872dd14610174578063313ce56714610187578063556f0dc71461019657806356189cb41461019d57806362ad1b83146101b257806370a08231146101c5578063959b8c3f146101ee57806395d89b41146102015780639bd9bbc614610209578063a9059cbb1461021c578063b1f0b5be1461022f578063cfbfab0b14610242578063d95b637114610255578063dd62ed3e14610268578063fad8b32a1461027b578063fc673c4f1461028e578063fe9d9303146102a1575b600080fd5b6101146102b4565b6040516101219190611232565b60405180910390f35b610132610316565b60405161012191906112cc565b61015261014d3660046112f7565b61039f565b6040519015158152602001610121565b6001545b604051908152602001610121565b610152610182366004611323565b6103b7565b60405160128152602001610121565b6001610166565b6101b06101ab366004611323565b6103fd565b005b6101b06101c0366004611406565b61040d565b6101666101d3366004611498565b6001600160a01b031660009081526020819052604090205490565b6101b06101fc366004611498565b610452565b61013261056f565b6101b06102173660046114b5565b61057e565b61015261022a3660046112f7565b61059c565b6101b061023d36600461150d565b6105d4565b6101b061025036600461158c565b6105e6565b610152610263366004611625565b6105f3565b610166610276366004611625565b610695565b6101b0610289366004611498565b6106c0565b6101b061029c36600461150d565b6107db565b6101b06102af36600461165e565b61080d565b6060600480548060200260200160405190810160405280929190818152602001828054801561030c57602002820191906000526020600020905b81546001600160a01b031681526001909101906020018083116102ee575b5050505050905090565b606060028054610325906116a4565b80601f0160208091040260200160405190810160405280929190818152602001828054610351906116a4565b801561030c5780601f106103735761010080835404028352916020019161030c565b820191906000526020600020905b81548152906001019060200180831161038157509395945050505050565b6000336103ad81858561083b565b5060019392505050565b6000336103c5858285610962565b6103f2858585604051806020016040528060008152506040518060200160405280600081525060006109d6565b506001949350505050565b61040883838361083b565b505050565b61041733866105f3565b61043c5760405162461bcd60e51b8152600401610433906116de565b60405180910390fd5b61044b858585858560016109d6565b5050505050565b6001600160a01b03811633036104b65760405162461bcd60e51b8152602060048201526024808201527f4552433737373a20617574686f72697a696e672073656c66206173206f70657260448201526330ba37b960e11b6064820152608401610433565b6001600160a01b03811660009081526005602052604090205460ff1615610507573360009081526007602090815260408083206001600160a01b03851684529091529020805460ff19169055610536565b3360009081526006602090815260408083206001600160a01b03851684529091529020805460ff191660011790555b60405133906001600160a01b038316907ff4caeb2d6ca8932a215a353d0703c326ec2d81fc68170f320eb2ab49e9df61f990600090a350565b606060038054610325906116a4565b610408338484846040518060200160405280600081525060016109d6565b60006105cb338484604051806020016040528060008152506040518060200160405280600081525060006109d6565b50600192915050565b6105e084848484610ad2565b50505050565b61044b8585858585610adc565b6000816001600160a01b0316836001600160a01b0316148061065e57506001600160a01b03831660009081526005602052604090205460ff16801561065e57506001600160a01b0380831660009081526007602090815260408083209387168352929052205460ff16155b8061068e57506001600160a01b0380831660009081526006602090815260408083209387168352929052205460ff165b9392505050565b6001600160a01b03918216600090815260086020908152604080832093909416825291909152205490565b336001600160a01b038216036107225760405162461bcd60e51b815260206004820152602160248201527f4552433737373a207265766f6b696e672073656c66206173206f70657261746f6044820152603960f91b6064820152608401610433565b6001600160a01b03811660009081526005602052604090205460ff1615610776573360009081526007602090815260408083206001600160a01b03851684529091529020805460ff191660011790556107a2565b3360009081526006602090815260408083206001600160a01b03851684529091529020805460ff191690555b60405133906001600160a01b038316907f50546e66e5f44d728365dc3908c63bc5cfeeab470722c1677e3073a6ac294aa190600090a350565b6107e533856105f3565b6108015760405162461bcd60e51b8152600401610433906116de565b6105e084848484610c1c565b61082833838360405180602001604052806000815250610c1c565b5050565b6001600160a01b03163b151590565b6001600160a01b03831661089f5760405162461bcd60e51b815260206004820152602560248201527f4552433737373a20617070726f76652066726f6d20746865207a65726f206164604482015264647265737360d81b6064820152608401610433565b6001600160a01b0382166109015760405162461bcd60e51b815260206004820152602360248201527f4552433737373a20617070726f766520746f20746865207a65726f206164647260448201526265737360e81b6064820152608401610433565b6001600160a01b0383811660008181526008602090815260408083209487168084529482529182902085905590518481527f8c5be1e5ebec7d5bd14f71427d1e84f3dd0314c0f7b2291e5b200ac8c7c3b925910160405180910390a3505050565b600061096e8484610695565b905060001981146105e057818110156109c95760405162461bcd60e51b815260206004820152601e60248201527f4552433737373a20696e73756666696369656e7420616c6c6f77616e636500006044820152606401610433565b6105e0848484840361083b565b6001600160a01b038616610a3b5760405162461bcd60e51b815260206004820152602660248201527f4552433737373a207472616e736665722066726f6d20746865207a65726f206160448201526564647265737360d01b6064820152608401610433565b6001600160a01b038516610a9d5760405162461bcd60e51b8152602060048201526024808201527f4552433737373a207472616e7366657220746f20746865207a65726f206164646044820152637265737360e01b6064820152608401610433565b33610aac818888888888610dc0565b610aba818888888888610edf565b610ac98188888888888861103f565b50505050505050565b6105e08484848460015b6001600160a01b038516610b325760405162461bcd60e51b815260206004820181905260248201527f4552433737373a206d696e7420746f20746865207a65726f20616464726573736044820152606401610433565b33610b408160008888611203565b8460016000828254610b529190611740565b90915550506001600160a01b03861660009081526020819052604081208054879290610b7f908490611740565b90915550610b959050816000888888888861103f565b856001600160a01b0316816001600160a01b03167f2fe5be0146f74c5bce36c0b80911af6c7d86ff27e89d5cfa61fc681327954e5d878787604051610bdc93929190611758565b60405180910390a36040518581526001600160a01b03871690600090600080516020611835833981519152906020015b60405180910390a3505050505050565b6001600160a01b038416610c7d5760405162461bcd60e51b815260206004820152602260248201527f4552433737373a206275726e2066726f6d20746865207a65726f206164647265604482015261737360f01b6064820152608401610433565b33610c8d81866000878787610dc0565b610c9a8186600087611203565b6001600160a01b03851660009081526020819052604090205484811015610d0f5760405162461bcd60e51b815260206004820152602360248201527f4552433737373a206275726e20616d6f756e7420657863656564732062616c616044820152626e636560e81b6064820152608401610433565b6001600160a01b0386166000908152602081905260408120868303905560018054879290610d3e90849061178d565b92505081905550856001600160a01b0316826001600160a01b03167fa78a9be3a7b862d26933ad85fb11d80ef66b8f972d7cbba06621d583943a4098878787604051610d8c93929190611758565b60405180910390a36040518581526000906001600160a01b0388169060008051602061183583398151915290602001610c0c565b60405163555ddc6560e11b8152600090731820a4b7618bde71dce8cdc73aab6c95905fad249063aabbb8ca90610e1c9089907f29ddb589b1fb5fc7cf394961c1adf5f8c6454761adf795e67fe149f658abe895906004016117a4565b602060405180830381865afa158015610e39573d6000803e3d6000fd5b505050506040513d601f19601f82011682018060405250810190610e5d91906117bd565b90506001600160a01b03811615610ac957604051633ad5cbc160e11b81526001600160a01b038216906375ab978290610ea4908a908a908a908a908a908a906004016117da565b600060405180830381600087803b158015610ebe57600080fd5b505af1158015610ed2573d6000803e3d6000fd5b5050505050505050505050565b610eeb86868686611203565b6001600160a01b03851660009081526020819052604090205483811015610f645760405162461bcd60e51b815260206004820152602760248201527f4552433737373a207472616e7366657220616d6f756e7420657863656564732060448201526662616c616e636560c81b6064820152608401610433565b6001600160a01b03808716600090815260208190526040808220878503905591871681529081208054869290610f9b908490611740565b92505081905550846001600160a01b0316866001600160a01b0316886001600160a01b03167f06b541ddaa720db2b10a4d0cdac39b8d360425fc073085fac19bc82614677987878787604051610ff393929190611758565b60405180910390a4846001600160a01b0316866001600160a01b03166000805160206118358339815191528660405161102e91815260200190565b60405180910390a350505050505050565b60405163555ddc6560e11b8152600090731820a4b7618bde71dce8cdc73aab6c95905fad249063aabbb8ca9061109b9089907fb281fc8c12954d22544db45de3159a39272895b169a852b314f9cc762e44c53b906004016117a4565b602060405180830381865afa1580156110b8573d6000803e3d6000fd5b505050506040513d601f19601f820116820180604052508101906110dc91906117bd565b90506001600160a01b03811615611158576040516223de2960e01b81526001600160a01b038216906223de2990611121908b908b908b908b908b908b906004016117da565b600060405180830381600087803b15801561113b57600080fd5b505af115801561114f573d6000803e3d6000fd5b505050506111f9565b81156111f957611170866001600160a01b031661082c565b156111f95760405162461bcd60e51b815260206004820152604d60248201527f4552433737373a20746f6b656e20726563697069656e7420636f6e747261637460448201527f20686173206e6f20696d706c656d656e74657220666f7220455243373737546f60648201526c1ad95b9cd49958da5c1a595b9d609a1b608482015260a401610433565b5050505050505050565b6040517f52316ab8e8b0687ce803e403dfe429541bccd4f6c4683ec65d254d382f15a26590600090a150505050565b6020808252825182820181905260009190848201906040850190845b818110156112735783516001600160a01b03168352928401929184019160010161124e565b50909695505050505050565b6000815180845260005b818110156112a557602081850181015186830182015201611289565b818111156112b7576000602083870101525b50601f01601f19169290920160200192915050565b60208152600061068e602083018461127f565b6001600160a01b03811681146112f457600080fd5b50565b6000806040838503121561130a57600080fd5b8235611315816112df565b946020939093013593505050565b60008060006060848603121561133857600080fd5b8335611343816112df565b92506020840135611353816112df565b929592945050506040919091013590565b634e487b7160e01b600052604160045260246000fd5b600082601f83011261138b57600080fd5b81356001600160401b03808211156113a5576113a5611364565b604051601f8301601f19908116603f011681019082821181831017156113cd576113cd611364565b816040528381528660208588010111156113e657600080fd5b836020870160208301376000602085830101528094505050505092915050565b600080600080600060a0868803121561141e57600080fd5b8535611429816112df565b94506020860135611439816112df565b93506040860135925060608601356001600160401b038082111561145c57600080fd5b61146889838a0161137a565b9350608088013591508082111561147e57600080fd5b5061148b8882890161137a565b9150509295509295909350565b6000602082840312156114aa57600080fd5b813561068e816112df565b6000806000606084860312156114ca57600080fd5b83356114d5816112df565b92506020840135915060408401356001600160401b038111156114f757600080fd5b6115038682870161137a565b9150509250925092565b6000806000806080858703121561152357600080fd5b843561152e816112df565b93506020850135925060408501356001600160401b038082111561155157600080fd5b61155d8883890161137a565b9350606087013591508082111561157357600080fd5b506115808782880161137a565b91505092959194509250565b600080600080600060a086880312156115a457600080fd5b85356115af816112df565b94506020860135935060408601356001600160401b03808211156115d257600080fd5b6115de89838a0161137a565b945060608801359150808211156115f457600080fd5b506116018882890161137a565b9250506080860135801515811461161757600080fd5b809150509295509295909350565b6000806040838503121561163857600080fd5b8235611643816112df565b91506020830135611653816112df565b809150509250929050565b6000806040838503121561167157600080fd5b8235915060208301356001600160401b0381111561168e57600080fd5b61169a8582860161137a565b9150509250929050565b600181811c908216806116b857607f821691505b6020821081036116d857634e487b7160e01b600052602260045260246000fd5b50919050565b6020808252602c908201527f4552433737373a2063616c6c6572206973206e6f7420616e206f70657261746f60408201526b39103337b9103437b63232b960a11b606082015260800190565b634e487b7160e01b600052601160045260246000fd5b600082198211156117535761175361172a565b500190565b838152606060208201526000611771606083018561127f565b8281036040840152611783818561127f565b9695505050505050565b60008282101561179f5761179f61172a565b500390565b6001600160a01b03929092168252602082015260400190565b6000602082840312156117cf57600080fd5b815161068e816112df565b6001600160a01b0387811682528681166020830152851660408201526060810184905260c0608082018190526000906118159083018561127f565b82810360a0840152611827818561127f565b999850505050505050505056feddf252ad1be2c89b69c2b068fc378daa952ba7f163c4a11628f55a4df523b3efa26469706673582212209fd4cedc10d8e335254c3fb823ba6a38eb6b5ee058084b0a3b8754d0e417f11d64736f6c634300080e0033",
  "immutableReferences": {},
  "source": "// SPDX-License-Identifier: MIT\r\n\r\npragma solidity ^0.8.0;\r\n\r\nimport \"../utils/Context.sol\";\r\nimport \"../token/ERC777/ERC777.sol\";\r\n\r\ncontract ERC777Mock is Context, ERC777 {\r\n    event BeforeTokenTransfer();\r\n\r\n    constructor(\r\n        address initialHolder,\r\n        uint256 initialBalance,\r\n        string memory name,\r\n        string memory symbol,\r\n        address[] memory defaultOperators\r\n    ) ERC777(name, symbol, defaultOperators) {\r\n        _mint(initialHolder, initialBalance, \"\", \"\");\r\n    }\r\n\r\n    function mintInternal(\r\n        address to,\r\n        uint256 amount,\r\n        bytes memory userData,\r\n        bytes memory operatorData\r\n    ) public {\r\n        _mint(to, amount, userData, operatorData);\r\n    }\r\n\r\n    function mintInternalExtended(\r\n        address to,\r\n        uint256 amount,\r\n        bytes memory userData,\r\n        bytes memory operatorData,\r\n        bool requireReceptionAck\r\n    ) public {\r\n        _mint(to, amount, userData, operatorData, requireReceptionAck);\r\n    }\r\n\r\n    function approveInternal(\r\n        address holder,\r\n        address spender,\r\n        uint256 value\r\n    ) public {\r\n        _approve(holder, spender, value);\r\n    }\r\n\r\n    function _beforeTokenTransfer(\r\n        address,\r\n        address,\r\n        address,\r\n        uint256\r\n    ) internal override {\r\n        emit BeforeTokenTransfer();\r\n    }\r\n}\r\n",
  "sourcePath": "D:\\work\\www\\yopu_dapp_nft\\contracts\\lib\\openzeppelin\\contracts\\mocks\\ERC777Mock.sol",
  "compiler": {
    "name": "solc",
    "version": "0.8.14+commit.80d49f37.Emscripten.clang"
  },
  "schemaVersion": "3.4.7",
  "updatedAt": "2022-06-28T15:05:47.699Z",
  "devdoc": {
    "kind": "dev",
    "methods": {
      "allowance(address,address)": {
        "details": "See {IERC20-allowance}. Note that operator and allowance concepts are orthogonal: operators may not have allowance, and accounts with allowance may not be operators themselves."
      },
      "approve(address,uint256)": {
        "details": "See {IERC20-approve}. NOTE: If `value` is the maximum `uint256`, the allowance is not updated on `transferFrom`. This is semantically equivalent to an infinite approval. Note that accounts cannot have allowance issued by their operators."
      },
      "authorizeOperator(address)": {
        "details": "See {IERC777-authorizeOperator}."
      },
      "balanceOf(address)": {
        "details": "Returns the amount of tokens owned by an account (`tokenHolder`)."
      },
      "burn(uint256,bytes)": {
        "details": "See {IERC777-burn}. Also emits a {IERC20-Transfer} event for ERC20 compatibility."
      },
      "decimals()": {
        "details": "See {ERC20-decimals}. Always returns 18, as per the [ERC777 EIP](https://eips.ethereum.org/EIPS/eip-777#backward-compatibility)."
      },
      "defaultOperators()": {
        "details": "See {IERC777-defaultOperators}."
      },
      "granularity()": {
        "details": "See {IERC777-granularity}. This implementation always returns `1`."
      },
      "isOperatorFor(address,address)": {
        "details": "See {IERC777-isOperatorFor}."
      },
      "name()": {
        "details": "See {IERC777-name}."
      },
      "operatorBurn(address,uint256,bytes,bytes)": {
        "details": "See {IERC777-operatorBurn}. Emits {Burned} and {IERC20-Transfer} events."
      },
      "operatorSend(address,address,uint256,bytes,bytes)": {
        "details": "See {IERC777-operatorSend}. Emits {Sent} and {IERC20-Transfer} events."
      },
      "revokeOperator(address)": {
        "details": "See {IERC777-revokeOperator}."
      },
      "send(address,uint256,bytes)": {
        "details": "See {IERC777-send}. Also emits a {IERC20-Transfer} event for ERC20 compatibility."
      },
      "symbol()": {
        "details": "See {IERC777-symbol}."
      },
      "totalSupply()": {
        "details": "See {IERC777-totalSupply}."
      },
      "transfer(address,uint256)": {
        "details": "See {IERC20-transfer}. Unlike `send`, `recipient` is _not_ required to implement the {IERC777Recipient} interface if it is a contract. Also emits a {Sent} event."
      },
      "transferFrom(address,address,uint256)": {
        "details": "See {IERC20-transferFrom}. NOTE: Does not update the allowance if the current allowance is the maximum `uint256`. Note that operator and allowance concepts are orthogonal: operators cannot call `transferFrom` (unless they have allowance), and accounts with allowance cannot call `operatorSend` (unless they are operators). Emits {Sent}, {IERC20-Transfer} and {IERC20-Approval} events."
      }
    },
    "version": 1
  },
  "userdoc": {
    "kind": "user",
    "methods": {},
    "version": 1
  }
}