{
  "contractName": "ERC721EnumerableMock",
  "abi": [
    {
      "inputs": [
        {
          "internalType": "string",
          "name": "name",
          "type": "string"
        },
        {
          "internalType": "string",
          "name": "symbol",
          "type": "string"
        }
      ],
      "stateMutability": "nonpayable",
      "type": "constructor"
    },
    {
      "anonymous": false,
      "inputs": [
        {
          "indexed": true,
          "internalType": "address",
          "name": "owner",
          "type": "address"
        },
        {
          "indexed": true,
          "internalType": "address",
          "name": "approved",
          "type": "address"
        },
        {
          "indexed": true,
          "internalType": "uint256",
          "name": "tokenId",
          "type": "uint256"
        }
      ],
      "name": "Approval",
      "type": "event"
    },
    {
      "anonymous": false,
      "inputs": [
        {
          "indexed": true,
          "internalType": "address",
          "name": "owner",
          "type": "address"
        },
        {
          "indexed": true,
          "internalType": "address",
          "name": "operator",
          "type": "address"
        },
        {
          "indexed": false,
          "internalType": "bool",
          "name": "approved",
          "type": "bool"
        }
      ],
      "name": "ApprovalForAll",
      "type": "event"
    },
    {
      "anonymous": false,
      "inputs": [
        {
          "indexed": true,
          "internalType": "address",
          "name": "from",
          "type": "address"
        },
        {
          "indexed": true,
          "internalType": "address",
          "name": "to",
          "type": "address"
        },
        {
          "indexed": true,
          "internalType": "uint256",
          "name": "tokenId",
          "type": "uint256"
        }
      ],
      "name": "Transfer",
      "type": "event"
    },
    {
      "inputs": [
        {
          "internalType": "address",
          "name": "to",
          "type": "address"
        },
        {
          "internalType": "uint256",
          "name": "tokenId",
          "type": "uint256"
        }
      ],
      "name": "approve",
      "outputs": [],
      "stateMutability": "nonpayable",
      "type": "function"
    },
    {
      "inputs": [
        {
          "internalType": "address",
          "name": "owner",
          "type": "address"
        }
      ],
      "name": "balanceOf",
      "outputs": [
        {
          "internalType": "uint256",
          "name": "",
          "type": "uint256"
        }
      ],
      "stateMutability": "view",
      "type": "function"
    },
    {
      "inputs": [
        {
          "internalType": "uint256",
          "name": "tokenId",
          "type": "uint256"
        }
      ],
      "name": "getApproved",
      "outputs": [
        {
          "internalType": "address",
          "name": "",
          "type": "address"
        }
      ],
      "stateMutability": "view",
      "type": "function"
    },
    {
      "inputs": [
        {
          "internalType": "address",
          "name": "owner",
          "type": "address"
        },
        {
          "internalType": "address",
          "name": "operator",
          "type": "address"
        }
      ],
      "name": "isApprovedForAll",
      "outputs": [
        {
          "internalType": "bool",
          "name": "",
          "type": "bool"
        }
      ],
      "stateMutability": "view",
      "type": "function"
    },
    {
      "inputs": [],
      "name": "name",
      "outputs": [
        {
          "internalType": "string",
          "name": "",
          "type": "string"
        }
      ],
      "stateMutability": "view",
      "type": "function"
    },
    {
      "inputs": [
        {
          "internalType": "uint256",
          "name": "tokenId",
          "type": "uint256"
        }
      ],
      "name": "ownerOf",
      "outputs": [
        {
          "internalType": "address",
          "name": "",
          "type": "address"
        }
      ],
      "stateMutability": "view",
      "type": "function"
    },
    {
      "inputs": [
        {
          "internalType": "address",
          "name": "from",
          "type": "address"
        },
        {
          "internalType": "address",
          "name": "to",
          "type": "address"
        },
        {
          "internalType": "uint256",
          "name": "tokenId",
          "type": "uint256"
        }
      ],
      "name": "safeTransferFrom",
      "outputs": [],
      "stateMutability": "nonpayable",
      "type": "function"
    },
    {
      "inputs": [
        {
          "internalType": "address",
          "name": "from",
          "type": "address"
        },
        {
          "internalType": "address",
          "name": "to",
          "type": "address"
        },
        {
          "internalType": "uint256",
          "name": "tokenId",
          "type": "uint256"
        },
        {
          "internalType": "bytes",
          "name": "data",
          "type": "bytes"
        }
      ],
      "name": "safeTransferFrom",
      "outputs": [],
      "stateMutability": "nonpayable",
      "type": "function"
    },
    {
      "inputs": [
        {
          "internalType": "address",
          "name": "operator",
          "type": "address"
        },
        {
          "internalType": "bool",
          "name": "approved",
          "type": "bool"
        }
      ],
      "name": "setApprovalForAll",
      "outputs": [],
      "stateMutability": "nonpayable",
      "type": "function"
    },
    {
      "inputs": [
        {
          "internalType": "bytes4",
          "name": "interfaceId",
          "type": "bytes4"
        }
      ],
      "name": "supportsInterface",
      "outputs": [
        {
          "internalType": "bool",
          "name": "",
          "type": "bool"
        }
      ],
      "stateMutability": "view",
      "type": "function"
    },
    {
      "inputs": [],
      "name": "symbol",
      "outputs": [
        {
          "internalType": "string",
          "name": "",
          "type": "string"
        }
      ],
      "stateMutability": "view",
      "type": "function"
    },
    {
      "inputs": [
        {
          "internalType": "uint256",
          "name": "index",
          "type": "uint256"
        }
      ],
      "name": "tokenByIndex",
      "outputs": [
        {
          "internalType": "uint256",
          "name": "",
          "type": "uint256"
        }
      ],
      "stateMutability": "view",
      "type": "function"
    },
    {
      "inputs": [
        {
          "internalType": "address",
          "name": "owner",
          "type": "address"
        },
        {
          "internalType": "uint256",
          "name": "index",
          "type": "uint256"
        }
      ],
      "name": "tokenOfOwnerByIndex",
      "outputs": [
        {
          "internalType": "uint256",
          "name": "",
          "type": "uint256"
        }
      ],
      "stateMutability": "view",
      "type": "function"
    },
    {
      "inputs": [
        {
          "internalType": "uint256",
          "name": "tokenId",
          "type": "uint256"
        }
      ],
      "name": "tokenURI",
      "outputs": [
        {
          "internalType": "string",
          "name": "",
          "type": "string"
        }
      ],
      "stateMutability": "view",
      "type": "function"
    },
    {
      "inputs": [],
      "name": "totalSupply",
      "outputs": [
        {
          "internalType": "uint256",
          "name": "",
          "type": "uint256"
        }
      ],
      "stateMutability": "view",
      "type": "function"
    },
    {
      "inputs": [
        {
          "internalType": "address",
          "name": "from",
          "type": "address"
        },
        {
          "internalType": "address",
          "name": "to",
          "type": "address"
        },
        {
          "internalType": "uint256",
          "name": "tokenId",
          "type": "uint256"
        }
      ],
      "name": "transferFrom",
      "outputs": [],
      "stateMutability": "nonpayable",
      "type": "function"
    },
    {
      "inputs": [
        {
          "internalType": "string",
          "name": "newBaseTokenURI",
          "type": "string"
        }
      ],
      "name": "setBaseURI",
      "outputs": [],
      "stateMutability": "nonpayable",
      "type": "function"
    },
    {
      "inputs": [],
      "name": "baseURI",
      "outputs": [
        {
          "internalType": "string",
          "name": "",
          "type": "string"
        }
      ],
      "stateMutability": "view",
      "type": "function"
    },
    {
      "inputs": [
        {
          "internalType": "uint256",
          "name": "tokenId",
          "type": "uint256"
        }
      ],
      "name": "exists",
      "outputs": [
        {
          "internalType": "bool",
          "name": "",
          "type": "bool"
        }
      ],
      "stateMutability": "view",
      "type": "function"
    },
    {
      "inputs": [
        {
          "internalType": "address",
          "name": "to",
          "type": "address"
        },
        {
          "internalType": "uint256",
          "name": "tokenId",
          "type": "uint256"
        }
      ],
      "name": "mint",
      "outputs": [],
      "stateMutability": "nonpayable",
      "type": "function"
    },
    {
      "inputs": [
        {
          "internalType": "address",
          "name": "to",
          "type": "address"
        },
        {
          "internalType": "uint256",
          "name": "tokenId",
          "type": "uint256"
        },
        {
          "internalType": "bytes",
          "name": "_data",
          "type": "bytes"
        }
      ],
      "name": "safeMint",
      "outputs": [],
      "stateMutability": "nonpayable",
      "type": "function"
    },
    {
      "inputs": [
        {
          "internalType": "address",
          "name": "to",
          "type": "address"
        },
        {
          "internalType": "uint256",
          "name": "tokenId",
          "type": "uint256"
        }
      ],
      "name": "safeMint",
      "outputs": [],
      "stateMutability": "nonpayable",
      "type": "function"
    },
    {
      "inputs": [
        {
          "internalType": "uint256",
          "name": "tokenId",
          "type": "uint256"
        }
      ],
      "name": "burn",
      "outputs": [],
      "stateMutability": "nonpayable",
      "type": "function"
    }
  ],
  "bytecode": "0x60806040523480156200001157600080fd5b5060405162001c2838038062001c288339810160408190526200003491620001e1565b8151829082906200004d9060009060208501906200006e565b508051620000639060019060208401906200006e565b505050505062000287565b8280546200007c906200024b565b90600052602060002090601f016020900481019282620000a05760008555620000eb565b82601f10620000bb57805160ff1916838001178555620000eb565b82800160010185558215620000eb579182015b82811115620000eb578251825591602001919060010190620000ce565b50620000f9929150620000fd565b5090565b5b80821115620000f95760008155600101620000fe565b634e487b7160e01b600052604160045260246000fd5b600082601f8301126200013c57600080fd5b81516001600160401b038082111562000159576200015962000114565b604051601f8301601f19908116603f0116810190828211818310171562000184576200018462000114565b81604052838152602092508683858801011115620001a157600080fd5b600091505b83821015620001c55785820183015181830184015290820190620001a6565b83821115620001d75760008385830101525b9695505050505050565b60008060408385031215620001f557600080fd5b82516001600160401b03808211156200020d57600080fd5b6200021b868387016200012a565b935060208501519150808211156200023257600080fd5b5062000241858286016200012a565b9150509250929050565b600181811c908216806200026057607f821691505b6020821081036200028157634e487b7160e01b600052602260045260246000fd5b50919050565b61199180620002976000396000f3fe608060405234801561001057600080fd5b506004361061011d5760003560e01c806301ffc9a71461012257806306fdde031461014a578063081812fc1461015f578063095ea7b31461018a57806318160ddd1461019f57806323b872dd146101b15780632f745c59146101c457806340c10f19146101d757806342842e0e146101ea57806342966c68146101fd5780634f558e79146102105780634f6ccce71461022357806355f804b3146102365780636352211e146102495780636c0360eb1461025c57806370a08231146102645780638832e6e31461027757806395d89b411461028a578063a144819414610292578063a22cb465146102a5578063b88d4fde146102b8578063c87b56dd146102cb578063e985e9c5146102de575b600080fd5b610135610130366004611361565b6102f1565b60405190151581526020015b60405180910390f35b61015261031c565b60405161014191906113d6565b61017261016d3660046113e9565b6103ae565b6040516001600160a01b039091168152602001610141565b61019d61019836600461141e565b6103d5565b005b6008545b604051908152602001610141565b61019d6101bf366004611448565b6104ef565b6101a36101d236600461141e565b610520565b61019d6101e536600461141e565b6105b6565b61019d6101f8366004611448565b6105c4565b61019d61020b3660046113e9565b6105df565b61013561021e3660046113e9565b6105eb565b6101a36102313660046113e9565b6105f6565b61019d610244366004611484565b610689565b6101726102573660046113e9565b610695565b6101526106ca565b6101a36102723660046114f5565b6106d9565b61019d6102853660046115b2565b61075f565b61015261076a565b61019d6102a036600461141e565b610779565b61019d6102b3366004611608565b610783565b61019d6102c6366004611644565b61078e565b6101526102d93660046113e9565b6107c6565b6101356102ec3660046116ab565b61082d565b60006001600160e01b0319821663780e9d6360e01b148061031657506103168261085b565b92915050565b60606000805461032b906116de565b80601f0160208091040260200160405190810160405280929190818152602001828054610357906116de565b80156103a45780601f10610379576101008083540402835291602001916103a4565b820191906000526020600020905b81548152906001019060200180831161038757829003601f168201915b5050505050905090565b60006103b9826108ab565b506000908152600460205260409020546001600160a01b031690565b60006103e082610695565b9050806001600160a01b0316836001600160a01b0316036104525760405162461bcd60e51b815260206004820152602160248201527f4552433732313a20617070726f76616c20746f2063757272656e74206f776e656044820152603960f91b60648201526084015b60405180910390fd5b336001600160a01b038216148061046e575061046e813361082d565b6104e05760405162461bcd60e51b815260206004820152603e60248201527f4552433732313a20617070726f76652063616c6c6572206973206e6f7420746f60448201527f6b656e206f776e6572206e6f7220617070726f76656420666f7220616c6c00006064820152608401610449565b6104ea83836108d0565b505050565b6104f9338261093e565b6105155760405162461bcd60e51b815260040161044990611718565b6104ea83838361099d565b600061052b836106d9565b821061058d5760405162461bcd60e51b815260206004820152602b60248201527f455243373231456e756d657261626c653a206f776e657220696e646578206f7560448201526a74206f6620626f756e647360a81b6064820152608401610449565b506001600160a01b03919091166000908152600660209081526040808320938352929052205490565b6105c08282610b32565b5050565b6104ea8383836040518060200160405280600081525061078e565b6105e881610c5e565b50565b600061031682610cf3565b600061060160085490565b82106106645760405162461bcd60e51b815260206004820152602c60248201527f455243373231456e756d657261626c653a20676c6f62616c20696e646578206f60448201526b7574206f6620626f756e647360a01b6064820152608401610449565b6008828154811061067757610677611766565b90600052602060002001549050919050565b6104ea600a83836112b2565b6000818152600260205260408120546001600160a01b0316806103165760405162461bcd60e51b81526004016104499061177c565b60606106d4610d10565b905090565b60006001600160a01b0382166107435760405162461bcd60e51b815260206004820152602960248201527f4552433732313a2061646472657373207a65726f206973206e6f7420612076616044820152683634b21037bbb732b960b91b6064820152608401610449565b506001600160a01b031660009081526003602052604090205490565b6104ea838383610d1f565b60606001805461032b906116de565b6105c08282610d52565b6105c0338383610d6c565b610798338361093e565b6107b45760405162461bcd60e51b815260040161044990611718565b6107c084848484610e36565b50505050565b60606107d1826108ab565b60006107db610d10565b905060008151116107fb5760405180602001604052806000815250610826565b8061080584610e69565b6040516020016108169291906117ae565b6040516020818303038152906040525b9392505050565b6001600160a01b03918216600090815260056020908152604080832093909416825291909152205460ff1690565b60006001600160e01b031982166380ac58cd60e01b148061088c57506001600160e01b03198216635b5e139f60e01b145b8061031657506301ffc9a760e01b6001600160e01b0319831614610316565b6108b481610cf3565b6105e85760405162461bcd60e51b81526004016104499061177c565b600081815260046020526040902080546001600160a01b0319166001600160a01b038416908117909155819061090582610695565b6001600160a01b03167f8c5be1e5ebec7d5bd14f71427d1e84f3dd0314c0f7b2291e5b200ac8c7c3b92560405160405180910390a45050565b60008061094a83610695565b9050806001600160a01b0316846001600160a01b031614806109715750610971818561082d565b806109955750836001600160a01b031661098a846103ae565b6001600160a01b0316145b949350505050565b826001600160a01b03166109b082610695565b6001600160a01b031614610a145760405162461bcd60e51b815260206004820152602560248201527f4552433732313a207472616e736665722066726f6d20696e636f72726563742060448201526437bbb732b960d91b6064820152608401610449565b6001600160a01b038216610a765760405162461bcd60e51b8152602060048201526024808201527f4552433732313a207472616e7366657220746f20746865207a65726f206164646044820152637265737360e01b6064820152608401610449565b610a81838383610f69565b610a8c6000826108d0565b6001600160a01b0383166000908152600360205260408120805460019290610ab59084906117f3565b90915550506001600160a01b0382166000908152600360205260408120805460019290610ae390849061180a565b909155505060008181526002602052604080822080546001600160a01b0319166001600160a01b03868116918217909255915184939187169160008051602061193c83398151915291a4505050565b6001600160a01b038216610b885760405162461bcd60e51b815260206004820181905260248201527f4552433732313a206d696e7420746f20746865207a65726f20616464726573736044820152606401610449565b610b9181610cf3565b15610bdd5760405162461bcd60e51b815260206004820152601c60248201527b115490cdcc8c4e881d1bdad95b88185b1c9958591e481b5a5b9d195960221b6044820152606401610449565b610be960008383610f69565b6001600160a01b0382166000908152600360205260408120805460019290610c1290849061180a565b909155505060008181526002602052604080822080546001600160a01b0319166001600160a01b038616908117909155905183929060008051602061193c833981519152908290a45050565b6000610c6982610695565b9050610c7781600084610f69565b610c826000836108d0565b6001600160a01b0381166000908152600360205260408120805460019290610cab9084906117f3565b909155505060008281526002602052604080822080546001600160a01b0319169055518391906001600160a01b0384169060008051602061193c833981519152908390a45050565b6000908152600260205260409020546001600160a01b0316151590565b6060600a805461032b906116de565b610d298383610b32565b610d366000848484611021565b6104ea5760405162461bcd60e51b815260040161044990611822565b6105c0828260405180602001604052806000815250610d1f565b816001600160a01b0316836001600160a01b031603610dc95760405162461bcd60e51b815260206004820152601960248201527822a9219b99189d1030b8383937bb32903a379031b0b63632b960391b6044820152606401610449565b6001600160a01b03838116600081815260056020908152604080832094871680845294825291829020805460ff191686151590811790915591519182527f17307eab39ab6107e8899845ad3d59bd9653f200f220920489ca2b5937696c31910160405180910390a3505050565b610e4184848461099d565b610e4d84848484611021565b6107c05760405162461bcd60e51b815260040161044990611822565b606081600003610e905750506040805180820190915260018152600360fc1b602082015290565b8160005b8115610eba5780610ea481611874565b9150610eb39050600a836118a3565b9150610e94565b6000816001600160401b03811115610ed457610ed4611510565b6040519080825280601f01601f191660200182016040528015610efe576020820181803683370190505b5090505b841561099557610f136001836117f3565b9150610f20600a866118b7565b610f2b90603061180a565b60f81b818381518110610f4057610f40611766565b60200101906001600160f81b031916908160001a905350610f62600a866118a3565b9450610f02565b6001600160a01b038316610fc457610fbf81600880546000838152600960205260408120829055600182018355919091527ff3f7a9fe364faab93b216da50a3214154f22a0a2b415b23a84c8169e8b636ee30155565b610fe7565b816001600160a01b0316836001600160a01b031614610fe757610fe78382611122565b6001600160a01b038216610ffe576104ea816111bf565b826001600160a01b0316826001600160a01b0316146104ea576104ea828261126e565b60006001600160a01b0384163b1561111757604051630a85bd0160e11b81526001600160a01b0385169063150b7a02906110659033908990889088906004016118cb565b6020604051808303816000875af19250505080156110a0575060408051601f3d908101601f1916820190925261109d91810190611908565b60015b6110fd573d8080156110ce576040519150601f19603f3d011682016040523d82523d6000602084013e6110d3565b606091505b5080516000036110f55760405162461bcd60e51b815260040161044990611822565b805181602001fd5b6001600160e01b031916630a85bd0160e11b149050610995565b506001949350505050565b6000600161112f846106d9565b61113991906117f3565b60008381526007602052604090205490915080821461118c576001600160a01b03841660009081526006602090815260408083208584528252808320548484528184208190558352600790915290208190555b5060009182526007602090815260408084208490556001600160a01b039094168352600681528383209183525290812055565b6008546000906111d1906001906117f3565b600083815260096020526040812054600880549394509092849081106111f9576111f9611766565b90600052602060002001549050806008838154811061121a5761121a611766565b600091825260208083209091019290925582815260099091526040808220849055858252812055600880548061125257611252611925565b6001900381819060005260206000200160009055905550505050565b6000611279836106d9565b6001600160a01b039093166000908152600660209081526040808320868452825280832085905593825260079052919091209190915550565b8280546112be906116de565b90600052602060002090601f0160209004810192826112e05760008555611326565b82601f106112f95782800160ff19823516178555611326565b82800160010185558215611326579182015b8281111561132657823582559160200191906001019061130b565b50611332929150611336565b5090565b5b808211156113325760008155600101611337565b6001600160e01b0319811681146105e857600080fd5b60006020828403121561137357600080fd5b81356108268161134b565b60005b83811015611399578181015183820152602001611381565b838111156107c05750506000910152565b600081518084526113c281602086016020860161137e565b601f01601f19169290920160200192915050565b60208152600061082660208301846113aa565b6000602082840312156113fb57600080fd5b5035919050565b80356001600160a01b038116811461141957600080fd5b919050565b6000806040838503121561143157600080fd5b61143a83611402565b946020939093013593505050565b60008060006060848603121561145d57600080fd5b61146684611402565b925061147460208501611402565b9150604084013590509250925092565b6000806020838503121561149757600080fd5b82356001600160401b03808211156114ae57600080fd5b818501915085601f8301126114c257600080fd5b8135818111156114d157600080fd5b8660208285010111156114e357600080fd5b60209290920196919550909350505050565b60006020828403121561150757600080fd5b61082682611402565b634e487b7160e01b600052604160045260246000fd5b600082601f83011261153757600080fd5b81356001600160401b038082111561155157611551611510565b604051601f8301601f19908116603f0116810190828211818310171561157957611579611510565b8160405283815286602085880101111561159257600080fd5b836020870160208301376000602085830101528094505050505092915050565b6000806000606084860312156115c757600080fd5b6115d084611402565b92506020840135915060408401356001600160401b038111156115f257600080fd5b6115fe86828701611526565b9150509250925092565b6000806040838503121561161b57600080fd5b61162483611402565b91506020830135801515811461163957600080fd5b809150509250929050565b6000806000806080858703121561165a57600080fd5b61166385611402565b935061167160208601611402565b92506040850135915060608501356001600160401b0381111561169357600080fd5b61169f87828801611526565b91505092959194509250565b600080604083850312156116be57600080fd5b6116c783611402565b91506116d560208401611402565b90509250929050565b600181811c908216806116f257607f821691505b60208210810361171257634e487b7160e01b600052602260045260246000fd5b50919050565b6020808252602e908201527f4552433732313a2063616c6c6572206973206e6f7420746f6b656e206f776e6560408201526d1c881b9bdc88185c1c1c9bdd995960921b606082015260800190565b634e487b7160e01b600052603260045260246000fd5b602080825260189082015277115490cdcc8c4e881a5b9d985b1a59081d1bdad95b88125160421b604082015260600190565b600083516117c081846020880161137e565b8351908301906117d481836020880161137e565b01949350505050565b634e487b7160e01b600052601160045260246000fd5b600082821015611805576118056117dd565b500390565b6000821982111561181d5761181d6117dd565b500190565b60208082526032908201527f4552433732313a207472616e7366657220746f206e6f6e20455243373231526560408201527131b2b4bb32b91034b6b83632b6b2b73a32b960711b606082015260800190565b600060018201611886576118866117dd565b5060010190565b634e487b7160e01b600052601260045260246000fd5b6000826118b2576118b261188d565b500490565b6000826118c6576118c661188d565b500690565b6001600160a01b03858116825284166020820152604081018390526080606082018190526000906118fe908301846113aa565b9695505050505050565b60006020828403121561191a57600080fd5b81516108268161134b565b634e487b7160e01b600052603160045260246000fdfeddf252ad1be2c89b69c2b068fc378daa952ba7f163c4a11628f55a4df523b3efa26469706673582212201149ece3afde646b4baa169ef57b3eb23749e67456e5f8521719ff78b668405764736f6c634300080e0033",
  "immutableReferences": {},
  "source": "// SPDX-License-Identifier: MIT\r\n\r\npragma solidity ^0.8.0;\r\n\r\nimport \"../token/ERC721/extensions/ERC721Enumerable.sol\";\r\n\r\n/**\r\n * @title ERC721Mock\r\n * This mock just provides a public safeMint, mint, and burn functions for testing purposes\r\n */\r\ncontract ERC721EnumerableMock is ERC721Enumerable {\r\n    string private _baseTokenURI;\r\n\r\n    constructor(string memory name, string memory symbol) ERC721(name, symbol) {}\r\n\r\n    function _baseURI() internal view virtual override returns (string memory) {\r\n        return _baseTokenURI;\r\n    }\r\n\r\n    function setBaseURI(string calldata newBaseTokenURI) public {\r\n        _baseTokenURI = newBaseTokenURI;\r\n    }\r\n\r\n    function baseURI() public view returns (string memory) {\r\n        return _baseURI();\r\n    }\r\n\r\n    function exists(uint256 tokenId) public view returns (bool) {\r\n        return _exists(tokenId);\r\n    }\r\n\r\n    function mint(address to, uint256 tokenId) public {\r\n        _mint(to, tokenId);\r\n    }\r\n\r\n    function safeMint(address to, uint256 tokenId) public {\r\n        _safeMint(to, tokenId);\r\n    }\r\n\r\n    function safeMint(\r\n        address to,\r\n        uint256 tokenId,\r\n        bytes memory _data\r\n    ) public {\r\n        _safeMint(to, tokenId, _data);\r\n    }\r\n\r\n    function burn(uint256 tokenId) public {\r\n        _burn(tokenId);\r\n    }\r\n}\r\n",
  "sourcePath": "D:\\work\\www\\yopu_dapp_nft\\contracts\\lib\\openzeppelin\\contracts\\mocks\\ERC721EnumerableMock.sol",
  "compiler": {
    "name": "solc",
    "version": "0.8.14+commit.80d49f37.Emscripten.clang"
  },
  "schemaVersion": "3.4.7",
  "updatedAt": "2022-06-28T15:05:47.621Z",
  "devdoc": {
    "kind": "dev",
    "methods": {
      "approve(address,uint256)": {
        "details": "See {IERC721-approve}."
      },
      "balanceOf(address)": {
        "details": "See {IERC721-balanceOf}."
      },
      "getApproved(uint256)": {
        "details": "See {IERC721-getApproved}."
      },
      "isApprovedForAll(address,address)": {
        "details": "See {IERC721-isApprovedForAll}."
      },
      "name()": {
        "details": "See {IERC721Metadata-name}."
      },
      "ownerOf(uint256)": {
        "details": "See {IERC721-ownerOf}."
      },
      "safeTransferFrom(address,address,uint256)": {
        "details": "See {IERC721-safeTransferFrom}."
      },
      "safeTransferFrom(address,address,uint256,bytes)": {
        "details": "See {IERC721-safeTransferFrom}."
      },
      "setApprovalForAll(address,bool)": {
        "details": "See {IERC721-setApprovalForAll}."
      },
      "supportsInterface(bytes4)": {
        "details": "See {IERC165-supportsInterface}."
      },
      "symbol()": {
        "details": "See {IERC721Metadata-symbol}."
      },
      "tokenByIndex(uint256)": {
        "details": "See {IERC721Enumerable-tokenByIndex}."
      },
      "tokenOfOwnerByIndex(address,uint256)": {
        "details": "See {IERC721Enumerable-tokenOfOwnerByIndex}."
      },
      "tokenURI(uint256)": {
        "details": "See {IERC721Metadata-tokenURI}."
      },
      "totalSupply()": {
        "details": "See {IERC721Enumerable-totalSupply}."
      },
      "transferFrom(address,address,uint256)": {
        "details": "See {IERC721-transferFrom}."
      }
    },
    "title": "ERC721Mock This mock just provides a public safeMint, mint, and burn functions for testing purposes",
    "version": 1
  },
  "userdoc": {
    "kind": "user",
    "methods": {},
    "version": 1
  }
}