{
  "contractName": "ERC721RoyaltyMock",
  "abi": [
    {
      "inputs": [
        {
          "internalType": "string",
          "name": "name",
          "type": "string"
        },
        {
          "internalType": "string",
          "name": "symbol",
          "type": "string"
        }
      ],
      "stateMutability": "nonpayable",
      "type": "constructor"
    },
    {
      "anonymous": false,
      "inputs": [
        {
          "indexed": true,
          "internalType": "address",
          "name": "owner",
          "type": "address"
        },
        {
          "indexed": true,
          "internalType": "address",
          "name": "approved",
          "type": "address"
        },
        {
          "indexed": true,
          "internalType": "uint256",
          "name": "tokenId",
          "type": "uint256"
        }
      ],
      "name": "Approval",
      "type": "event"
    },
    {
      "anonymous": false,
      "inputs": [
        {
          "indexed": true,
          "internalType": "address",
          "name": "owner",
          "type": "address"
        },
        {
          "indexed": true,
          "internalType": "address",
          "name": "operator",
          "type": "address"
        },
        {
          "indexed": false,
          "internalType": "bool",
          "name": "approved",
          "type": "bool"
        }
      ],
      "name": "ApprovalForAll",
      "type": "event"
    },
    {
      "anonymous": false,
      "inputs": [
        {
          "indexed": true,
          "internalType": "address",
          "name": "from",
          "type": "address"
        },
        {
          "indexed": true,
          "internalType": "address",
          "name": "to",
          "type": "address"
        },
        {
          "indexed": true,
          "internalType": "uint256",
          "name": "tokenId",
          "type": "uint256"
        }
      ],
      "name": "Transfer",
      "type": "event"
    },
    {
      "inputs": [
        {
          "internalType": "address",
          "name": "to",
          "type": "address"
        },
        {
          "internalType": "uint256",
          "name": "tokenId",
          "type": "uint256"
        }
      ],
      "name": "approve",
      "outputs": [],
      "stateMutability": "nonpayable",
      "type": "function"
    },
    {
      "inputs": [
        {
          "internalType": "address",
          "name": "owner",
          "type": "address"
        }
      ],
      "name": "balanceOf",
      "outputs": [
        {
          "internalType": "uint256",
          "name": "",
          "type": "uint256"
        }
      ],
      "stateMutability": "view",
      "type": "function"
    },
    {
      "inputs": [
        {
          "internalType": "uint256",
          "name": "tokenId",
          "type": "uint256"
        }
      ],
      "name": "getApproved",
      "outputs": [
        {
          "internalType": "address",
          "name": "",
          "type": "address"
        }
      ],
      "stateMutability": "view",
      "type": "function"
    },
    {
      "inputs": [
        {
          "internalType": "address",
          "name": "owner",
          "type": "address"
        },
        {
          "internalType": "address",
          "name": "operator",
          "type": "address"
        }
      ],
      "name": "isApprovedForAll",
      "outputs": [
        {
          "internalType": "bool",
          "name": "",
          "type": "bool"
        }
      ],
      "stateMutability": "view",
      "type": "function"
    },
    {
      "inputs": [],
      "name": "name",
      "outputs": [
        {
          "internalType": "string",
          "name": "",
          "type": "string"
        }
      ],
      "stateMutability": "view",
      "type": "function"
    },
    {
      "inputs": [
        {
          "internalType": "uint256",
          "name": "tokenId",
          "type": "uint256"
        }
      ],
      "name": "ownerOf",
      "outputs": [
        {
          "internalType": "address",
          "name": "",
          "type": "address"
        }
      ],
      "stateMutability": "view",
      "type": "function"
    },
    {
      "inputs": [
        {
          "internalType": "uint256",
          "name": "_tokenId",
          "type": "uint256"
        },
        {
          "internalType": "uint256",
          "name": "_salePrice",
          "type": "uint256"
        }
      ],
      "name": "royaltyInfo",
      "outputs": [
        {
          "internalType": "address",
          "name": "",
          "type": "address"
        },
        {
          "internalType": "uint256",
          "name": "",
          "type": "uint256"
        }
      ],
      "stateMutability": "view",
      "type": "function"
    },
    {
      "inputs": [
        {
          "internalType": "address",
          "name": "from",
          "type": "address"
        },
        {
          "internalType": "address",
          "name": "to",
          "type": "address"
        },
        {
          "internalType": "uint256",
          "name": "tokenId",
          "type": "uint256"
        }
      ],
      "name": "safeTransferFrom",
      "outputs": [],
      "stateMutability": "nonpayable",
      "type": "function"
    },
    {
      "inputs": [
        {
          "internalType": "address",
          "name": "from",
          "type": "address"
        },
        {
          "internalType": "address",
          "name": "to",
          "type": "address"
        },
        {
          "internalType": "uint256",
          "name": "tokenId",
          "type": "uint256"
        },
        {
          "internalType": "bytes",
          "name": "data",
          "type": "bytes"
        }
      ],
      "name": "safeTransferFrom",
      "outputs": [],
      "stateMutability": "nonpayable",
      "type": "function"
    },
    {
      "inputs": [
        {
          "internalType": "address",
          "name": "operator",
          "type": "address"
        },
        {
          "internalType": "bool",
          "name": "approved",
          "type": "bool"
        }
      ],
      "name": "setApprovalForAll",
      "outputs": [],
      "stateMutability": "nonpayable",
      "type": "function"
    },
    {
      "inputs": [
        {
          "internalType": "bytes4",
          "name": "interfaceId",
          "type": "bytes4"
        }
      ],
      "name": "supportsInterface",
      "outputs": [
        {
          "internalType": "bool",
          "name": "",
          "type": "bool"
        }
      ],
      "stateMutability": "view",
      "type": "function"
    },
    {
      "inputs": [],
      "name": "symbol",
      "outputs": [
        {
          "internalType": "string",
          "name": "",
          "type": "string"
        }
      ],
      "stateMutability": "view",
      "type": "function"
    },
    {
      "inputs": [
        {
          "internalType": "uint256",
          "name": "tokenId",
          "type": "uint256"
        }
      ],
      "name": "tokenURI",
      "outputs": [
        {
          "internalType": "string",
          "name": "",
          "type": "string"
        }
      ],
      "stateMutability": "view",
      "type": "function"
    },
    {
      "inputs": [
        {
          "internalType": "address",
          "name": "from",
          "type": "address"
        },
        {
          "internalType": "address",
          "name": "to",
          "type": "address"
        },
        {
          "internalType": "uint256",
          "name": "tokenId",
          "type": "uint256"
        }
      ],
      "name": "transferFrom",
      "outputs": [],
      "stateMutability": "nonpayable",
      "type": "function"
    },
    {
      "inputs": [
        {
          "internalType": "uint256",
          "name": "tokenId",
          "type": "uint256"
        },
        {
          "internalType": "address",
          "name": "recipient",
          "type": "address"
        },
        {
          "internalType": "uint96",
          "name": "fraction",
          "type": "uint96"
        }
      ],
      "name": "setTokenRoyalty",
      "outputs": [],
      "stateMutability": "nonpayable",
      "type": "function"
    },
    {
      "inputs": [
        {
          "internalType": "address",
          "name": "recipient",
          "type": "address"
        },
        {
          "internalType": "uint96",
          "name": "fraction",
          "type": "uint96"
        }
      ],
      "name": "setDefaultRoyalty",
      "outputs": [],
      "stateMutability": "nonpayable",
      "type": "function"
    },
    {
      "inputs": [
        {
          "internalType": "address",
          "name": "to",
          "type": "address"
        },
        {
          "internalType": "uint256",
          "name": "tokenId",
          "type": "uint256"
        }
      ],
      "name": "mint",
      "outputs": [],
      "stateMutability": "nonpayable",
      "type": "function"
    },
    {
      "inputs": [
        {
          "internalType": "uint256",
          "name": "tokenId",
          "type": "uint256"
        }
      ],
      "name": "burn",
      "outputs": [],
      "stateMutability": "nonpayable",
      "type": "function"
    },
    {
      "inputs": [],
      "name": "deleteDefaultRoyalty",
      "outputs": [],
      "stateMutability": "nonpayable",
      "type": "function"
    }
  ],
  "bytecode": "0x60806040523480156200001157600080fd5b50604051620019aa380380620019aa8339810160408190526200003491620001e1565b8151829082906200004d9060029060208501906200006e565b508051620000639060039060208401906200006e565b505050505062000287565b8280546200007c906200024b565b90600052602060002090601f016020900481019282620000a05760008555620000eb565b82601f10620000bb57805160ff1916838001178555620000eb565b82800160010185558215620000eb579182015b82811115620000eb578251825591602001919060010190620000ce565b50620000f9929150620000fd565b5090565b5b80821115620000f95760008155600101620000fe565b634e487b7160e01b600052604160045260246000fd5b600082601f8301126200013c57600080fd5b81516001600160401b038082111562000159576200015962000114565b604051601f8301601f19908116603f0116810190828211818310171562000184576200018462000114565b81604052838152602092508683858801011115620001a157600080fd5b600091505b83821015620001c55785820183015181830184015290820190620001a6565b83821115620001d75760008385830101525b9695505050505050565b60008060408385031215620001f557600080fd5b82516001600160401b03808211156200020d57600080fd5b6200021b868387016200012a565b935060208501519150808211156200023257600080fd5b5062000241858286016200012a565b9150509250929050565b600181811c908216806200026057607f821691505b6020821081036200028157634e487b7160e01b600052602260045260246000fd5b50919050565b61171380620002976000396000f3fe608060405234801561001057600080fd5b50600436106100f15760003560e01c806301ffc9a7146100f657806304634d8d1461011e57806306fdde0314610133578063081812fc14610148578063095ea7b31461017357806323b872dd146101865780632a55205a1461019957806340c10f19146101cb57806342842e0e146101de57806342966c68146101f15780635944c753146102045780636352211e1461021757806370a082311461022a57806395d89b411461024b578063a22cb46514610253578063aa1b103f14610266578063b88d4fde1461026e578063c87b56dd14610281578063e985e9c514610294575b600080fd5b6101096101043660046110d0565b6102a7565b60405190151581526020015b60405180910390f35b61013161012c366004611120565b6102b8565b005b61013b6102c6565b60405161011591906111ab565b61015b6101563660046111be565b610358565b6040516001600160a01b039091168152602001610115565b6101316101813660046111d7565b61037f565b610131610194366004611201565b610499565b6101ac6101a736600461123d565b6104ca565b604080516001600160a01b039093168352602083019190915201610115565b6101316101d93660046111d7565b610576565b6101316101ec366004611201565b610580565b6101316101ff3660046111be565b61059b565b61013161021236600461125f565b6105a7565b61015b6102253660046111be565b6105b2565b61023d61023836600461129b565b6105e7565b604051908152602001610115565b61013b61066d565b6101316102613660046112b6565b61067c565b610131610687565b61013161027c366004611308565b610692565b61013b61028f3660046111be565b6106ca565b6101096102a23660046113e3565b61073e565b60006102b28261076c565b92915050565b6102c282826107ac565b5050565b6060600280546102d59061140d565b80601f01602080910402602001604051908101604052809291908181526020018280546103019061140d565b801561034e5780601f106103235761010080835404028352916020019161034e565b820191906000526020600020905b81548152906001019060200180831161033157829003601f168201915b5050505050905090565b600061036382610862565b506000908152600660205260409020546001600160a01b031690565b600061038a826105b2565b9050806001600160a01b0316836001600160a01b0316036103fc5760405162461bcd60e51b815260206004820152602160248201527f4552433732313a20617070726f76616c20746f2063757272656e74206f776e656044820152603960f91b60648201526084015b60405180910390fd5b336001600160a01b03821614806104185750610418813361073e565b61048a5760405162461bcd60e51b815260206004820152603e60248201527f4552433732313a20617070726f76652063616c6c6572206973206e6f7420746f60448201527f6b656e206f776e6572206e6f7220617070726f76656420666f7220616c6c000060648201526084016103f3565b6104948383610887565b505050565b6104a333826108f5565b6104bf5760405162461bcd60e51b81526004016103f390611447565b610494838383610954565b60008281526001602090815260408083208151808301909252546001600160a01b038116808352600160a01b9091046001600160601b031692820192909252829161053f5750604080518082019091526000546001600160a01b0381168252600160a01b90046001600160601b031660208201525b60208101516000906127109061055e906001600160601b0316876114ab565b61056891906114e0565b915196919550909350505050565b6102c28282610ade565b61049483838360405180602001604052806000815250610692565b6105a481610bfe565b50565b610494838383610c18565b6000818152600460205260408120546001600160a01b0316806102b25760405162461bcd60e51b81526004016103f3906114f4565b60006001600160a01b0382166106515760405162461bcd60e51b815260206004820152602960248201527f4552433732313a2061646472657373207a65726f206973206e6f7420612076616044820152683634b21037bbb732b960b91b60648201526084016103f3565b506001600160a01b031660009081526005602052604090205490565b6060600380546102d59061140d565b6102c2338383610ce1565b61069060008055565b565b61069c33836108f5565b6106b85760405162461bcd60e51b81526004016103f390611447565b6106c484848484610dab565b50505050565b60606106d582610862565b60006106ec60408051602081019091526000815290565b9050600081511161070c5760405180602001604052806000815250610737565b8061071684610dde565b604051602001610727929190611526565b6040516020818303038152906040525b9392505050565b6001600160a01b03918216600090815260076020908152604080832093909416825291909152205460ff1690565b60006001600160e01b031982166380ac58cd60e01b148061079d57506001600160e01b03198216635b5e139f60e01b145b806102b257506102b282610ede565b6127106001600160601b03821611156107d75760405162461bcd60e51b81526004016103f390611555565b6001600160a01b0382166108295760405162461bcd60e51b815260206004820152601960248201527822a921991c9c189d1034b73b30b634b2103932b1b2b4bb32b960391b60448201526064016103f3565b604080518082019091526001600160a01b039092168083526001600160601b039091166020909201829052600160a01b90910217600055565b61086b81610f13565b6105a45760405162461bcd60e51b81526004016103f3906114f4565b600081815260066020526040902080546001600160a01b0319166001600160a01b03841690811790915581906108bc826105b2565b6001600160a01b03167f8c5be1e5ebec7d5bd14f71427d1e84f3dd0314c0f7b2291e5b200ac8c7c3b92560405160405180910390a45050565b600080610901836105b2565b9050806001600160a01b0316846001600160a01b031614806109285750610928818561073e565b8061094c5750836001600160a01b031661094184610358565b6001600160a01b0316145b949350505050565b826001600160a01b0316610967826105b2565b6001600160a01b0316146109cb5760405162461bcd60e51b815260206004820152602560248201527f4552433732313a207472616e736665722066726f6d20696e636f72726563742060448201526437bbb732b960d91b60648201526084016103f3565b6001600160a01b038216610a2d5760405162461bcd60e51b8152602060048201526024808201527f4552433732313a207472616e7366657220746f20746865207a65726f206164646044820152637265737360e01b60648201526084016103f3565b610a38600082610887565b6001600160a01b0383166000908152600560205260408120805460019290610a6190849061159f565b90915550506001600160a01b0382166000908152600560205260408120805460019290610a8f9084906115b6565b909155505060008181526004602052604080822080546001600160a01b0319166001600160a01b0386811691821790925591518493918716916000805160206116be83398151915291a4505050565b6001600160a01b038216610b345760405162461bcd60e51b815260206004820181905260248201527f4552433732313a206d696e7420746f20746865207a65726f206164647265737360448201526064016103f3565b610b3d81610f13565b15610b895760405162461bcd60e51b815260206004820152601c60248201527b115490cdcc8c4e881d1bdad95b88185b1c9958591e481b5a5b9d195960221b60448201526064016103f3565b6001600160a01b0382166000908152600560205260408120805460019290610bb29084906115b6565b909155505060008181526004602052604080822080546001600160a01b0319166001600160a01b03861690811790915590518392906000805160206116be833981519152908290a45050565b610c0781610f30565b600090815260016020526040812055565b6127106001600160601b0382161115610c435760405162461bcd60e51b81526004016103f390611555565b6001600160a01b038216610c975760405162461bcd60e51b815260206004820152601b60248201527a455243323938313a20496e76616c696420706172616d657465727360281b60448201526064016103f3565b6040805180820182526001600160a01b0393841681526001600160601b0392831660208083019182526000968752600190529190942093519051909116600160a01b029116179055565b816001600160a01b0316836001600160a01b031603610d3e5760405162461bcd60e51b815260206004820152601960248201527822a9219b99189d1030b8383937bb32903a379031b0b63632b960391b60448201526064016103f3565b6001600160a01b03838116600081815260076020908152604080832094871680845294825291829020805460ff191686151590811790915591519182527f17307eab39ab6107e8899845ad3d59bd9653f200f220920489ca2b5937696c31910160405180910390a3505050565b610db6848484610954565b610dc284848484610fb9565b6106c45760405162461bcd60e51b81526004016103f3906115ce565b606081600003610e055750506040805180820190915260018152600360fc1b602082015290565b8160005b8115610e2f5780610e1981611620565b9150610e289050600a836114e0565b9150610e09565b6000816001600160401b03811115610e4957610e496112f2565b6040519080825280601f01601f191660200182016040528015610e73576020820181803683370190505b5090505b841561094c57610e8860018361159f565b9150610e95600a86611639565b610ea09060306115b6565b60f81b818381518110610eb557610eb561164d565b60200101906001600160f81b031916908160001a905350610ed7600a866114e0565b9450610e77565b60006001600160e01b0319821663152a902d60e11b14806102b257506301ffc9a760e01b6001600160e01b03198316146102b2565b6000908152600460205260409020546001600160a01b0316151590565b6000610f3b826105b2565b9050610f48600083610887565b6001600160a01b0381166000908152600560205260408120805460019290610f7190849061159f565b909155505060008281526004602052604080822080546001600160a01b0319169055518391906001600160a01b038416906000805160206116be833981519152908390a45050565b60006001600160a01b0384163b156110af57604051630a85bd0160e11b81526001600160a01b0385169063150b7a0290610ffd903390899088908890600401611663565b6020604051808303816000875af1925050508015611038575060408051601f3d908101601f19168201909252611035918101906116a0565b60015b611095573d808015611066576040519150601f19603f3d011682016040523d82523d6000602084013e61106b565b606091505b50805160000361108d5760405162461bcd60e51b81526004016103f3906115ce565b805181602001fd5b6001600160e01b031916630a85bd0160e11b14905061094c565b506001949350505050565b6001600160e01b0319811681146105a457600080fd5b6000602082840312156110e257600080fd5b8135610737816110ba565b80356001600160a01b038116811461110457600080fd5b919050565b80356001600160601b038116811461110457600080fd5b6000806040838503121561113357600080fd5b61113c836110ed565b915061114a60208401611109565b90509250929050565b60005b8381101561116e578181015183820152602001611156565b838111156106c45750506000910152565b60008151808452611197816020860160208601611153565b601f01601f19169290920160200192915050565b602081526000610737602083018461117f565b6000602082840312156111d057600080fd5b5035919050565b600080604083850312156111ea57600080fd5b6111f3836110ed565b946020939093013593505050565b60008060006060848603121561121657600080fd5b61121f846110ed565b925061122d602085016110ed565b9150604084013590509250925092565b6000806040838503121561125057600080fd5b50508035926020909101359150565b60008060006060848603121561127457600080fd5b83359250611284602085016110ed565b915061129260408501611109565b90509250925092565b6000602082840312156112ad57600080fd5b610737826110ed565b600080604083850312156112c957600080fd5b6112d2836110ed565b9150602083013580151581146112e757600080fd5b809150509250929050565b634e487b7160e01b600052604160045260246000fd5b6000806000806080858703121561131e57600080fd5b611327856110ed565b9350611335602086016110ed565b92506040850135915060608501356001600160401b038082111561135857600080fd5b818701915087601f83011261136c57600080fd5b81358181111561137e5761137e6112f2565b604051601f8201601f19908116603f011681019083821181831017156113a6576113a66112f2565b816040528281528a60208487010111156113bf57600080fd5b82602086016020830137600060208483010152809550505050505092959194509250565b600080604083850312156113f657600080fd5b6113ff836110ed565b915061114a602084016110ed565b600181811c9082168061142157607f821691505b60208210810361144157634e487b7160e01b600052602260045260246000fd5b50919050565b6020808252602e908201527f4552433732313a2063616c6c6572206973206e6f7420746f6b656e206f776e6560408201526d1c881b9bdc88185c1c1c9bdd995960921b606082015260800190565b634e487b7160e01b600052601160045260246000fd5b60008160001904831182151516156114c5576114c5611495565b500290565b634e487b7160e01b600052601260045260246000fd5b6000826114ef576114ef6114ca565b500490565b602080825260189082015277115490cdcc8c4e881a5b9d985b1a59081d1bdad95b88125160421b604082015260600190565b60008351611538818460208801611153565b83519083019061154c818360208801611153565b01949350505050565b6020808252602a908201527f455243323938313a20726f79616c7479206665652077696c6c206578636565646040820152692073616c65507269636560b01b606082015260800190565b6000828210156115b1576115b1611495565b500390565b600082198211156115c9576115c9611495565b500190565b60208082526032908201527f4552433732313a207472616e7366657220746f206e6f6e20455243373231526560408201527131b2b4bb32b91034b6b83632b6b2b73a32b960711b606082015260800190565b60006001820161163257611632611495565b5060010190565b600082611648576116486114ca565b500690565b634e487b7160e01b600052603260045260246000fd5b6001600160a01b03858116825284166020820152604081018390526080606082018190526000906116969083018461117f565b9695505050505050565b6000602082840312156116b257600080fd5b8151610737816110ba56feddf252ad1be2c89b69c2b068fc378daa952ba7f163c4a11628f55a4df523b3efa26469706673582212201893d1cbf291d39fd405deeec278f16b8cbcbee1c55a5a61fe85aa454face58e64736f6c634300080e0033",
  "immutableReferences": {},
  "source": "// SPDX-License-Identifier: MIT\r\n\r\npragma solidity ^0.8.0;\r\n\r\nimport \"../token/ERC721/extensions/ERC721Royalty.sol\";\r\n\r\ncontract ERC721RoyaltyMock is ERC721Royalty {\r\n    constructor(string memory name, string memory symbol) ERC721(name, symbol) {}\r\n\r\n    function setTokenRoyalty(\r\n        uint256 tokenId,\r\n        address recipient,\r\n        uint96 fraction\r\n    ) public {\r\n        _setTokenRoyalty(tokenId, recipient, fraction);\r\n    }\r\n\r\n    function setDefaultRoyalty(address recipient, uint96 fraction) public {\r\n        _setDefaultRoyalty(recipient, fraction);\r\n    }\r\n\r\n    function mint(address to, uint256 tokenId) public {\r\n        _mint(to, tokenId);\r\n    }\r\n\r\n    function burn(uint256 tokenId) public {\r\n        _burn(tokenId);\r\n    }\r\n\r\n    function deleteDefaultRoyalty() public {\r\n        _deleteDefaultRoyalty();\r\n    }\r\n}\r\n",
  "sourcePath": "D:\\work\\www\\yopu_dapp_nft\\contracts\\lib\\openzeppelin\\contracts\\mocks\\ERC721RoyaltyMock.sol",
  "compiler": {
    "name": "solc",
    "version": "0.8.14+commit.80d49f37.Emscripten.clang"
  },
  "schemaVersion": "3.4.7",
  "updatedAt": "2022-06-28T15:05:47.659Z",
  "devdoc": {
    "kind": "dev",
    "methods": {
      "approve(address,uint256)": {
        "details": "See {IERC721-approve}."
      },
      "balanceOf(address)": {
        "details": "See {IERC721-balanceOf}."
      },
      "getApproved(uint256)": {
        "details": "See {IERC721-getApproved}."
      },
      "isApprovedForAll(address,address)": {
        "details": "See {IERC721-isApprovedForAll}."
      },
      "name()": {
        "details": "See {IERC721Metadata-name}."
      },
      "ownerOf(uint256)": {
        "details": "See {IERC721-ownerOf}."
      },
      "royaltyInfo(uint256,uint256)": {
        "details": "Returns how much royalty is owed and to whom, based on a sale price that may be denominated in any unit of exchange. The royalty amount is denominated and should be paid in that same unit of exchange."
      },
      "safeTransferFrom(address,address,uint256)": {
        "details": "See {IERC721-safeTransferFrom}."
      },
      "safeTransferFrom(address,address,uint256,bytes)": {
        "details": "See {IERC721-safeTransferFrom}."
      },
      "setApprovalForAll(address,bool)": {
        "details": "See {IERC721-setApprovalForAll}."
      },
      "supportsInterface(bytes4)": {
        "details": "See {IERC165-supportsInterface}."
      },
      "symbol()": {
        "details": "See {IERC721Metadata-symbol}."
      },
      "tokenURI(uint256)": {
        "details": "See {IERC721Metadata-tokenURI}."
      },
      "transferFrom(address,address,uint256)": {
        "details": "See {IERC721-transferFrom}."
      }
    },
    "version": 1
  },
  "userdoc": {
    "kind": "user",
    "methods": {},
    "version": 1
  }
}