{
  "contractName": "ERC721Mock",
  "abi": [
    {
      "inputs": [
        {
          "internalType": "string",
          "name": "name",
          "type": "string"
        },
        {
          "internalType": "string",
          "name": "symbol",
          "type": "string"
        }
      ],
      "stateMutability": "nonpayable",
      "type": "constructor"
    },
    {
      "anonymous": false,
      "inputs": [
        {
          "indexed": true,
          "internalType": "address",
          "name": "owner",
          "type": "address"
        },
        {
          "indexed": true,
          "internalType": "address",
          "name": "approved",
          "type": "address"
        },
        {
          "indexed": true,
          "internalType": "uint256",
          "name": "tokenId",
          "type": "uint256"
        }
      ],
      "name": "Approval",
      "type": "event"
    },
    {
      "anonymous": false,
      "inputs": [
        {
          "indexed": true,
          "internalType": "address",
          "name": "owner",
          "type": "address"
        },
        {
          "indexed": true,
          "internalType": "address",
          "name": "operator",
          "type": "address"
        },
        {
          "indexed": false,
          "internalType": "bool",
          "name": "approved",
          "type": "bool"
        }
      ],
      "name": "ApprovalForAll",
      "type": "event"
    },
    {
      "anonymous": false,
      "inputs": [
        {
          "indexed": true,
          "internalType": "address",
          "name": "from",
          "type": "address"
        },
        {
          "indexed": true,
          "internalType": "address",
          "name": "to",
          "type": "address"
        },
        {
          "indexed": true,
          "internalType": "uint256",
          "name": "tokenId",
          "type": "uint256"
        }
      ],
      "name": "Transfer",
      "type": "event"
    },
    {
      "inputs": [
        {
          "internalType": "address",
          "name": "to",
          "type": "address"
        },
        {
          "internalType": "uint256",
          "name": "tokenId",
          "type": "uint256"
        }
      ],
      "name": "approve",
      "outputs": [],
      "stateMutability": "nonpayable",
      "type": "function"
    },
    {
      "inputs": [
        {
          "internalType": "address",
          "name": "owner",
          "type": "address"
        }
      ],
      "name": "balanceOf",
      "outputs": [
        {
          "internalType": "uint256",
          "name": "",
          "type": "uint256"
        }
      ],
      "stateMutability": "view",
      "type": "function"
    },
    {
      "inputs": [
        {
          "internalType": "uint256",
          "name": "tokenId",
          "type": "uint256"
        }
      ],
      "name": "getApproved",
      "outputs": [
        {
          "internalType": "address",
          "name": "",
          "type": "address"
        }
      ],
      "stateMutability": "view",
      "type": "function"
    },
    {
      "inputs": [
        {
          "internalType": "address",
          "name": "owner",
          "type": "address"
        },
        {
          "internalType": "address",
          "name": "operator",
          "type": "address"
        }
      ],
      "name": "isApprovedForAll",
      "outputs": [
        {
          "internalType": "bool",
          "name": "",
          "type": "bool"
        }
      ],
      "stateMutability": "view",
      "type": "function"
    },
    {
      "inputs": [],
      "name": "name",
      "outputs": [
        {
          "internalType": "string",
          "name": "",
          "type": "string"
        }
      ],
      "stateMutability": "view",
      "type": "function"
    },
    {
      "inputs": [
        {
          "internalType": "uint256",
          "name": "tokenId",
          "type": "uint256"
        }
      ],
      "name": "ownerOf",
      "outputs": [
        {
          "internalType": "address",
          "name": "",
          "type": "address"
        }
      ],
      "stateMutability": "view",
      "type": "function"
    },
    {
      "inputs": [
        {
          "internalType": "address",
          "name": "from",
          "type": "address"
        },
        {
          "internalType": "address",
          "name": "to",
          "type": "address"
        },
        {
          "internalType": "uint256",
          "name": "tokenId",
          "type": "uint256"
        }
      ],
      "name": "safeTransferFrom",
      "outputs": [],
      "stateMutability": "nonpayable",
      "type": "function"
    },
    {
      "inputs": [
        {
          "internalType": "address",
          "name": "from",
          "type": "address"
        },
        {
          "internalType": "address",
          "name": "to",
          "type": "address"
        },
        {
          "internalType": "uint256",
          "name": "tokenId",
          "type": "uint256"
        },
        {
          "internalType": "bytes",
          "name": "data",
          "type": "bytes"
        }
      ],
      "name": "safeTransferFrom",
      "outputs": [],
      "stateMutability": "nonpayable",
      "type": "function"
    },
    {
      "inputs": [
        {
          "internalType": "address",
          "name": "operator",
          "type": "address"
        },
        {
          "internalType": "bool",
          "name": "approved",
          "type": "bool"
        }
      ],
      "name": "setApprovalForAll",
      "outputs": [],
      "stateMutability": "nonpayable",
      "type": "function"
    },
    {
      "inputs": [
        {
          "internalType": "bytes4",
          "name": "interfaceId",
          "type": "bytes4"
        }
      ],
      "name": "supportsInterface",
      "outputs": [
        {
          "internalType": "bool",
          "name": "",
          "type": "bool"
        }
      ],
      "stateMutability": "view",
      "type": "function"
    },
    {
      "inputs": [],
      "name": "symbol",
      "outputs": [
        {
          "internalType": "string",
          "name": "",
          "type": "string"
        }
      ],
      "stateMutability": "view",
      "type": "function"
    },
    {
      "inputs": [
        {
          "internalType": "uint256",
          "name": "tokenId",
          "type": "uint256"
        }
      ],
      "name": "tokenURI",
      "outputs": [
        {
          "internalType": "string",
          "name": "",
          "type": "string"
        }
      ],
      "stateMutability": "view",
      "type": "function"
    },
    {
      "inputs": [
        {
          "internalType": "address",
          "name": "from",
          "type": "address"
        },
        {
          "internalType": "address",
          "name": "to",
          "type": "address"
        },
        {
          "internalType": "uint256",
          "name": "tokenId",
          "type": "uint256"
        }
      ],
      "name": "transferFrom",
      "outputs": [],
      "stateMutability": "nonpayable",
      "type": "function"
    },
    {
      "inputs": [],
      "name": "baseURI",
      "outputs": [
        {
          "internalType": "string",
          "name": "",
          "type": "string"
        }
      ],
      "stateMutability": "view",
      "type": "function"
    },
    {
      "inputs": [
        {
          "internalType": "uint256",
          "name": "tokenId",
          "type": "uint256"
        }
      ],
      "name": "exists",
      "outputs": [
        {
          "internalType": "bool",
          "name": "",
          "type": "bool"
        }
      ],
      "stateMutability": "view",
      "type": "function"
    },
    {
      "inputs": [
        {
          "internalType": "address",
          "name": "to",
          "type": "address"
        },
        {
          "internalType": "uint256",
          "name": "tokenId",
          "type": "uint256"
        }
      ],
      "name": "mint",
      "outputs": [],
      "stateMutability": "nonpayable",
      "type": "function"
    },
    {
      "inputs": [
        {
          "internalType": "address",
          "name": "to",
          "type": "address"
        },
        {
          "internalType": "uint256",
          "name": "tokenId",
          "type": "uint256"
        },
        {
          "internalType": "bytes",
          "name": "_data",
          "type": "bytes"
        }
      ],
      "name": "safeMint",
      "outputs": [],
      "stateMutability": "nonpayable",
      "type": "function"
    },
    {
      "inputs": [
        {
          "internalType": "address",
          "name": "to",
          "type": "address"
        },
        {
          "internalType": "uint256",
          "name": "tokenId",
          "type": "uint256"
        }
      ],
      "name": "safeMint",
      "outputs": [],
      "stateMutability": "nonpayable",
      "type": "function"
    },
    {
      "inputs": [
        {
          "internalType": "uint256",
          "name": "tokenId",
          "type": "uint256"
        }
      ],
      "name": "burn",
      "outputs": [],
      "stateMutability": "nonpayable",
      "type": "function"
    }
  ],
  "bytecode": "0x60806040523480156200001157600080fd5b50604051620016e1380380620016e18339810160408190526200003491620001e1565b8151829082906200004d9060009060208501906200006e565b508051620000639060019060208401906200006e565b505050505062000287565b8280546200007c906200024b565b90600052602060002090601f016020900481019282620000a05760008555620000eb565b82601f10620000bb57805160ff1916838001178555620000eb565b82800160010185558215620000eb579182015b82811115620000eb578251825591602001919060010190620000ce565b50620000f9929150620000fd565b5090565b5b80821115620000f95760008155600101620000fe565b634e487b7160e01b600052604160045260246000fd5b600082601f8301126200013c57600080fd5b81516001600160401b038082111562000159576200015962000114565b604051601f8301601f19908116603f0116810190828211818310171562000184576200018462000114565b81604052838152602092508683858801011115620001a157600080fd5b600091505b83821015620001c55785820183015181830184015290820190620001a6565b83821115620001d75760008385830101525b9695505050505050565b60008060408385031215620001f557600080fd5b82516001600160401b03808211156200020d57600080fd5b6200021b868387016200012a565b935060208501519150808211156200023257600080fd5b5062000241858286016200012a565b9150509250929050565b600181811c908216806200026057607f821691505b6020821081036200028157634e487b7160e01b600052602260045260246000fd5b50919050565b61144a80620002976000396000f3fe608060405234801561001057600080fd5b50600436106100f15760003560e01c806301ffc9a7146100f657806306fdde031461011e578063081812fc14610133578063095ea7b31461015e57806323b872dd1461017357806340c10f191461018657806342842e0e1461019957806342966c68146101ac5780634f558e79146101bf5780636352211e146101d25780636c0360eb146101e557806370a08231146101ed5780638832e6e31461020e57806395d89b4114610221578063a144819414610229578063a22cb4651461023c578063b88d4fde1461024f578063c87b56dd14610262578063e985e9c514610275575b600080fd5b610109610104366004610ea1565b610288565b60405190151581526020015b60405180910390f35b6101266102da565b6040516101159190610f16565b610146610141366004610f29565b61036c565b6040516001600160a01b039091168152602001610115565b61017161016c366004610f5e565b610393565b005b610171610181366004610f88565b6104ad565b610171610194366004610f5e565b6104de565b6101716101a7366004610f88565b6104ec565b6101716101ba366004610f29565b610507565b6101096101cd366004610f29565b610513565b6101466101e0366004610f29565b61051e565b610126610553565b6102006101fb366004610fc4565b61056f565b604051908152602001610115565b61017161021c366004611081565b6105f5565b610126610600565b610171610237366004610f5e565b61060f565b61017161024a3660046110d7565b610619565b61017161025d366004611113565b610624565b610126610270366004610f29565b61065c565b61010961028336600461117a565b6106d0565b60006001600160e01b031982166380ac58cd60e01b14806102b957506001600160e01b03198216635b5e139f60e01b145b806102d457506301ffc9a760e01b6001600160e01b03198316145b92915050565b6060600080546102e9906111ad565b80601f0160208091040260200160405190810160405280929190818152602001828054610315906111ad565b80156103625780601f1061033757610100808354040283529160200191610362565b820191906000526020600020905b81548152906001019060200180831161034557829003601f168201915b5050505050905090565b6000610377826106fe565b506000908152600460205260409020546001600160a01b031690565b600061039e8261051e565b9050806001600160a01b0316836001600160a01b0316036104105760405162461bcd60e51b815260206004820152602160248201527f4552433732313a20617070726f76616c20746f2063757272656e74206f776e656044820152603960f91b60648201526084015b60405180910390fd5b336001600160a01b038216148061042c575061042c81336106d0565b61049e5760405162461bcd60e51b815260206004820152603e60248201527f4552433732313a20617070726f76652063616c6c6572206973206e6f7420746f60448201527f6b656e206f776e6572206e6f7220617070726f76656420666f7220616c6c00006064820152608401610407565b6104a88383610723565b505050565b6104b73382610791565b6104d35760405162461bcd60e51b8152600401610407906111e7565b6104a88383836107f0565b6104e8828261097a565b5050565b6104a883838360405180602001604052806000815250610624565b61051081610a9a565b50565b60006102d482610b23565b6000818152600260205260408120546001600160a01b0316806102d45760405162461bcd60e51b815260040161040790611235565b606061056a60408051602081019091526000815290565b905090565b60006001600160a01b0382166105d95760405162461bcd60e51b815260206004820152602960248201527f4552433732313a2061646472657373207a65726f206973206e6f7420612076616044820152683634b21037bbb732b960b91b6064820152608401610407565b506001600160a01b031660009081526003602052604090205490565b6104a8838383610b40565b6060600180546102e9906111ad565b6104e88282610b73565b6104e8338383610b8d565b61062e3383610791565b61064a5760405162461bcd60e51b8152600401610407906111e7565b61065684848484610c57565b50505050565b6060610667826106fe565b600061067e60408051602081019091526000815290565b9050600081511161069e57604051806020016040528060008152506106c9565b806106a884610c8a565b6040516020016106b9929190611267565b6040516020818303038152906040525b9392505050565b6001600160a01b03918216600090815260056020908152604080832093909416825291909152205460ff1690565b61070781610b23565b6105105760405162461bcd60e51b815260040161040790611235565b600081815260046020526040902080546001600160a01b0319166001600160a01b03841690811790915581906107588261051e565b6001600160a01b03167f8c5be1e5ebec7d5bd14f71427d1e84f3dd0314c0f7b2291e5b200ac8c7c3b92560405160405180910390a45050565b60008061079d8361051e565b9050806001600160a01b0316846001600160a01b031614806107c457506107c481856106d0565b806107e85750836001600160a01b03166107dd8461036c565b6001600160a01b0316145b949350505050565b826001600160a01b03166108038261051e565b6001600160a01b0316146108675760405162461bcd60e51b815260206004820152602560248201527f4552433732313a207472616e736665722066726f6d20696e636f72726563742060448201526437bbb732b960d91b6064820152608401610407565b6001600160a01b0382166108c95760405162461bcd60e51b8152602060048201526024808201527f4552433732313a207472616e7366657220746f20746865207a65726f206164646044820152637265737360e01b6064820152608401610407565b6108d4600082610723565b6001600160a01b03831660009081526003602052604081208054600192906108fd9084906112ac565b90915550506001600160a01b038216600090815260036020526040812080546001929061092b9084906112c3565b909155505060008181526002602052604080822080546001600160a01b0319166001600160a01b0386811691821790925591518493918716916000805160206113f583398151915291a4505050565b6001600160a01b0382166109d05760405162461bcd60e51b815260206004820181905260248201527f4552433732313a206d696e7420746f20746865207a65726f20616464726573736044820152606401610407565b6109d981610b23565b15610a255760405162461bcd60e51b815260206004820152601c60248201527b115490cdcc8c4e881d1bdad95b88185b1c9958591e481b5a5b9d195960221b6044820152606401610407565b6001600160a01b0382166000908152600360205260408120805460019290610a4e9084906112c3565b909155505060008181526002602052604080822080546001600160a01b0319166001600160a01b03861690811790915590518392906000805160206113f5833981519152908290a45050565b6000610aa58261051e565b9050610ab2600083610723565b6001600160a01b0381166000908152600360205260408120805460019290610adb9084906112ac565b909155505060008281526002602052604080822080546001600160a01b0319169055518391906001600160a01b038416906000805160206113f5833981519152908390a45050565b6000908152600260205260409020546001600160a01b0316151590565b610b4a838361097a565b610b576000848484610d8a565b6104a85760405162461bcd60e51b8152600401610407906112db565b6104e8828260405180602001604052806000815250610b40565b816001600160a01b0316836001600160a01b031603610bea5760405162461bcd60e51b815260206004820152601960248201527822a9219b99189d1030b8383937bb32903a379031b0b63632b960391b6044820152606401610407565b6001600160a01b03838116600081815260056020908152604080832094871680845294825291829020805460ff191686151590811790915591519182527f17307eab39ab6107e8899845ad3d59bd9653f200f220920489ca2b5937696c31910160405180910390a3505050565b610c628484846107f0565b610c6e84848484610d8a565b6106565760405162461bcd60e51b8152600401610407906112db565b606081600003610cb15750506040805180820190915260018152600360fc1b602082015290565b8160005b8115610cdb5780610cc58161132d565b9150610cd49050600a8361135c565b9150610cb5565b6000816001600160401b03811115610cf557610cf5610fdf565b6040519080825280601f01601f191660200182016040528015610d1f576020820181803683370190505b5090505b84156107e857610d346001836112ac565b9150610d41600a86611370565b610d4c9060306112c3565b60f81b818381518110610d6157610d61611384565b60200101906001600160f81b031916908160001a905350610d83600a8661135c565b9450610d23565b60006001600160a01b0384163b15610e8057604051630a85bd0160e11b81526001600160a01b0385169063150b7a0290610dce90339089908890889060040161139a565b6020604051808303816000875af1925050508015610e09575060408051601f3d908101601f19168201909252610e06918101906113d7565b60015b610e66573d808015610e37576040519150601f19603f3d011682016040523d82523d6000602084013e610e3c565b606091505b508051600003610e5e5760405162461bcd60e51b8152600401610407906112db565b805181602001fd5b6001600160e01b031916630a85bd0160e11b1490506107e8565b506001949350505050565b6001600160e01b03198116811461051057600080fd5b600060208284031215610eb357600080fd5b81356106c981610e8b565b60005b83811015610ed9578181015183820152602001610ec1565b838111156106565750506000910152565b60008151808452610f02816020860160208601610ebe565b601f01601f19169290920160200192915050565b6020815260006106c96020830184610eea565b600060208284031215610f3b57600080fd5b5035919050565b80356001600160a01b0381168114610f5957600080fd5b919050565b60008060408385031215610f7157600080fd5b610f7a83610f42565b946020939093013593505050565b600080600060608486031215610f9d57600080fd5b610fa684610f42565b9250610fb460208501610f42565b9150604084013590509250925092565b600060208284031215610fd657600080fd5b6106c982610f42565b634e487b7160e01b600052604160045260246000fd5b600082601f83011261100657600080fd5b81356001600160401b038082111561102057611020610fdf565b604051601f8301601f19908116603f0116810190828211818310171561104857611048610fdf565b8160405283815286602085880101111561106157600080fd5b836020870160208301376000602085830101528094505050505092915050565b60008060006060848603121561109657600080fd5b61109f84610f42565b92506020840135915060408401356001600160401b038111156110c157600080fd5b6110cd86828701610ff5565b9150509250925092565b600080604083850312156110ea57600080fd5b6110f383610f42565b91506020830135801515811461110857600080fd5b809150509250929050565b6000806000806080858703121561112957600080fd5b61113285610f42565b935061114060208601610f42565b92506040850135915060608501356001600160401b0381111561116257600080fd5b61116e87828801610ff5565b91505092959194509250565b6000806040838503121561118d57600080fd5b61119683610f42565b91506111a460208401610f42565b90509250929050565b600181811c908216806111c157607f821691505b6020821081036111e157634e487b7160e01b600052602260045260246000fd5b50919050565b6020808252602e908201527f4552433732313a2063616c6c6572206973206e6f7420746f6b656e206f776e6560408201526d1c881b9bdc88185c1c1c9bdd995960921b606082015260800190565b602080825260189082015277115490cdcc8c4e881a5b9d985b1a59081d1bdad95b88125160421b604082015260600190565b60008351611279818460208801610ebe565b83519083019061128d818360208801610ebe565b01949350505050565b634e487b7160e01b600052601160045260246000fd5b6000828210156112be576112be611296565b500390565b600082198211156112d6576112d6611296565b500190565b60208082526032908201527f4552433732313a207472616e7366657220746f206e6f6e20455243373231526560408201527131b2b4bb32b91034b6b83632b6b2b73a32b960711b606082015260800190565b60006001820161133f5761133f611296565b5060010190565b634e487b7160e01b600052601260045260246000fd5b60008261136b5761136b611346565b500490565b60008261137f5761137f611346565b500690565b634e487b7160e01b600052603260045260246000fd5b6001600160a01b03858116825284166020820152604081018390526080606082018190526000906113cd90830184610eea565b9695505050505050565b6000602082840312156113e957600080fd5b81516106c981610e8b56feddf252ad1be2c89b69c2b068fc378daa952ba7f163c4a11628f55a4df523b3efa2646970667358221220892f06f5cb5adad3721b1daefa18697ba571c56e17ec81fad4f24e9255f8af8b64736f6c634300080e0033",
  "immutableReferences": {},
  "source": "// SPDX-License-Identifier: MIT\r\n\r\npragma solidity ^0.8.0;\r\n\r\nimport \"../token/ERC721/ERC721.sol\";\r\n\r\n/**\r\n * @title ERC721Mock\r\n * This mock just provides a public safeMint, mint, and burn functions for testing purposes\r\n */\r\ncontract ERC721Mock is ERC721 {\r\n    constructor(string memory name, string memory symbol) ERC721(name, symbol) {}\r\n\r\n    function baseURI() public view returns (string memory) {\r\n        return _baseURI();\r\n    }\r\n\r\n    function exists(uint256 tokenId) public view returns (bool) {\r\n        return _exists(tokenId);\r\n    }\r\n\r\n    function mint(address to, uint256 tokenId) public {\r\n        _mint(to, tokenId);\r\n    }\r\n\r\n    function safeMint(address to, uint256 tokenId) public {\r\n        _safeMint(to, tokenId);\r\n    }\r\n\r\n    function safeMint(\r\n        address to,\r\n        uint256 tokenId,\r\n        bytes memory _data\r\n    ) public {\r\n        _safeMint(to, tokenId, _data);\r\n    }\r\n\r\n    function burn(uint256 tokenId) public {\r\n        _burn(tokenId);\r\n    }\r\n}\r\n",
  "sourcePath": "D:\\work\\www\\yopu_dapp_nft\\contracts\\lib\\openzeppelin\\contracts\\mocks\\ERC721Mock.sol",
  "compiler": {
    "name": "solc",
    "version": "0.8.14+commit.80d49f37.Emscripten.clang"
  },
  "schemaVersion": "3.4.7",
  "updatedAt": "2022-06-28T15:05:47.635Z",
  "devdoc": {
    "kind": "dev",
    "methods": {
      "approve(address,uint256)": {
        "details": "See {IERC721-approve}."
      },
      "balanceOf(address)": {
        "details": "See {IERC721-balanceOf}."
      },
      "getApproved(uint256)": {
        "details": "See {IERC721-getApproved}."
      },
      "isApprovedForAll(address,address)": {
        "details": "See {IERC721-isApprovedForAll}."
      },
      "name()": {
        "details": "See {IERC721Metadata-name}."
      },
      "ownerOf(uint256)": {
        "details": "See {IERC721-ownerOf}."
      },
      "safeTransferFrom(address,address,uint256)": {
        "details": "See {IERC721-safeTransferFrom}."
      },
      "safeTransferFrom(address,address,uint256,bytes)": {
        "details": "See {IERC721-safeTransferFrom}."
      },
      "setApprovalForAll(address,bool)": {
        "details": "See {IERC721-setApprovalForAll}."
      },
      "supportsInterface(bytes4)": {
        "details": "See {IERC165-supportsInterface}."
      },
      "symbol()": {
        "details": "See {IERC721Metadata-symbol}."
      },
      "tokenURI(uint256)": {
        "details": "See {IERC721Metadata-tokenURI}."
      },
      "transferFrom(address,address,uint256)": {
        "details": "See {IERC721-transferFrom}."
      }
    },
    "title": "ERC721Mock This mock just provides a public safeMint, mint, and burn functions for testing purposes",
    "version": 1
  },
  "userdoc": {
    "kind": "user",
    "methods": {},
    "version": 1
  }
}