{
  "contractName": "ERC777SenderRecipientMock",
  "abi": [
    {
      "anonymous": false,
      "inputs": [],
      "name": "BeforeTokenTransfer",
      "type": "event"
    },
    {
      "anonymous": false,
      "inputs": [
        {
          "indexed": false,
          "internalType": "address",
          "name": "operator",
          "type": "address"
        },
        {
          "indexed": false,
          "internalType": "address",
          "name": "from",
          "type": "address"
        },
        {
          "indexed": false,
          "internalType": "address",
          "name": "to",
          "type": "address"
        },
        {
          "indexed": false,
          "internalType": "uint256",
          "name": "amount",
          "type": "uint256"
        },
        {
          "indexed": false,
          "internalType": "bytes",
          "name": "data",
          "type": "bytes"
        },
        {
          "indexed": false,
          "internalType": "bytes",
          "name": "operatorData",
          "type": "bytes"
        },
        {
          "indexed": false,
          "internalType": "address",
          "name": "token",
          "type": "address"
        },
        {
          "indexed": false,
          "internalType": "uint256",
          "name": "fromBalance",
          "type": "uint256"
        },
        {
          "indexed": false,
          "internalType": "uint256",
          "name": "toBalance",
          "type": "uint256"
        }
      ],
      "name": "TokensReceivedCalled",
      "type": "event"
    },
    {
      "anonymous": false,
      "inputs": [
        {
          "indexed": false,
          "internalType": "address",
          "name": "operator",
          "type": "address"
        },
        {
          "indexed": false,
          "internalType": "address",
          "name": "from",
          "type": "address"
        },
        {
          "indexed": false,
          "internalType": "address",
          "name": "to",
          "type": "address"
        },
        {
          "indexed": false,
          "internalType": "uint256",
          "name": "amount",
          "type": "uint256"
        },
        {
          "indexed": false,
          "internalType": "bytes",
          "name": "data",
          "type": "bytes"
        },
        {
          "indexed": false,
          "internalType": "bytes",
          "name": "operatorData",
          "type": "bytes"
        },
        {
          "indexed": false,
          "internalType": "address",
          "name": "token",
          "type": "address"
        },
        {
          "indexed": false,
          "internalType": "uint256",
          "name": "fromBalance",
          "type": "uint256"
        },
        {
          "indexed": false,
          "internalType": "uint256",
          "name": "toBalance",
          "type": "uint256"
        }
      ],
      "name": "TokensToSendCalled",
      "type": "event"
    },
    {
      "inputs": [
        {
          "internalType": "bytes32",
          "name": "interfaceHash",
          "type": "bytes32"
        },
        {
          "internalType": "address",
          "name": "account",
          "type": "address"
        }
      ],
      "name": "canImplementInterfaceForAddress",
      "outputs": [
        {
          "internalType": "bytes32",
          "name": "",
          "type": "bytes32"
        }
      ],
      "stateMutability": "view",
      "type": "function"
    },
    {
      "inputs": [
        {
          "internalType": "address",
          "name": "operator",
          "type": "address"
        },
        {
          "internalType": "address",
          "name": "from",
          "type": "address"
        },
        {
          "internalType": "address",
          "name": "to",
          "type": "address"
        },
        {
          "internalType": "uint256",
          "name": "amount",
          "type": "uint256"
        },
        {
          "internalType": "bytes",
          "name": "userData",
          "type": "bytes"
        },
        {
          "internalType": "bytes",
          "name": "operatorData",
          "type": "bytes"
        }
      ],
      "name": "tokensToSend",
      "outputs": [],
      "stateMutability": "nonpayable",
      "type": "function"
    },
    {
      "inputs": [
        {
          "internalType": "address",
          "name": "operator",
          "type": "address"
        },
        {
          "internalType": "address",
          "name": "from",
          "type": "address"
        },
        {
          "internalType": "address",
          "name": "to",
          "type": "address"
        },
        {
          "internalType": "uint256",
          "name": "amount",
          "type": "uint256"
        },
        {
          "internalType": "bytes",
          "name": "userData",
          "type": "bytes"
        },
        {
          "internalType": "bytes",
          "name": "operatorData",
          "type": "bytes"
        }
      ],
      "name": "tokensReceived",
      "outputs": [],
      "stateMutability": "nonpayable",
      "type": "function"
    },
    {
      "inputs": [
        {
          "internalType": "address",
          "name": "account",
          "type": "address"
        }
      ],
      "name": "senderFor",
      "outputs": [],
      "stateMutability": "nonpayable",
      "type": "function"
    },
    {
      "inputs": [
        {
          "internalType": "address",
          "name": "sender",
          "type": "address"
        }
      ],
      "name": "registerSender",
      "outputs": [],
      "stateMutability": "nonpayable",
      "type": "function"
    },
    {
      "inputs": [
        {
          "internalType": "address",
          "name": "account",
          "type": "address"
        }
      ],
      "name": "recipientFor",
      "outputs": [],
      "stateMutability": "nonpayable",
      "type": "function"
    },
    {
      "inputs": [
        {
          "internalType": "address",
          "name": "recipient",
          "type": "address"
        }
      ],
      "name": "registerRecipient",
      "outputs": [],
      "stateMutability": "nonpayable",
      "type": "function"
    },
    {
      "inputs": [
        {
          "internalType": "bool",
          "name": "shouldRevert",
          "type": "bool"
        }
      ],
      "name": "setShouldRevertSend",
      "outputs": [],
      "stateMutability": "nonpayable",
      "type": "function"
    },
    {
      "inputs": [
        {
          "internalType": "bool",
          "name": "shouldRevert",
          "type": "bool"
        }
      ],
      "name": "setShouldRevertReceive",
      "outputs": [],
      "stateMutability": "nonpayable",
      "type": "function"
    },
    {
      "inputs": [
        {
          "internalType": "contract IERC777",
          "name": "token",
          "type": "address"
        },
        {
          "internalType": "address",
          "name": "to",
          "type": "address"
        },
        {
          "internalType": "uint256",
          "name": "amount",
          "type": "uint256"
        },
        {
          "internalType": "bytes",
          "name": "data",
          "type": "bytes"
        }
      ],
      "name": "send",
      "outputs": [],
      "stateMutability": "nonpayable",
      "type": "function"
    },
    {
      "inputs": [
        {
          "internalType": "contract IERC777",
          "name": "token",
          "type": "address"
        },
        {
          "internalType": "uint256",
          "name": "amount",
          "type": "uint256"
        },
        {
          "internalType": "bytes",
          "name": "data",
          "type": "bytes"
        }
      ],
      "name": "burn",
      "outputs": [],
      "stateMutability": "nonpayable",
      "type": "function"
    }
  ],
  "bytecode": "0x60806040526001805462010000600160b01b031916751820a4b7618bde71dce8cdc73aab6c95905fad24000017905534801561003a57600080fd5b50610b858061004a6000396000f3fe608060405234801561001057600080fd5b50600436106100985760003560e01c806223de291461009d578063249cb3fa146100b25780633836ef89146100d757806344d17187146100ea5780634e4ae5a5146100fd57806375ab97821461011e578063a8badaa514610131578063c97e18fc14610144578063d2de64741461016c578063e0eb21801461017f578063e1ecbd3014610192575b600080fd5b6100b06100ab3660046106fd565b6101a5565b005b6100c56100c03660046107ad565b6102ee565b60405190815260200160405180910390f35b6100b06100e536600461087f565b610346565b6100b06100f83660046108ea565b6103ae565b6100b061010b366004610942565b6001805460ff1916911515919091179055565b6100b061012c3660046106fd565b610413565b6100b061013f366004610964565b610542565b6100b0610152366004610942565b600180549115156101000261ff0019909216919091179055565b6100b061017a366004610964565b6105be565b6100b061018d366004610964565b6105f5565b6100b06101a0366004610964565b610628565b600154610100900460ff16156101ba57600080fd5b6040516370a0823160e01b8152339060009082906370a08231906101e2908c90600401610981565b602060405180830381865afa1580156101ff573d6000803e3d6000fd5b505050506040513d601f19601f820116820180604052508101906102239190610995565b90506000826001600160a01b03166370a082318a6040518263ffffffff1660e01b81526004016102539190610981565b602060405180830381865afa158015610270573d6000803e3d6000fd5b505050506040513d601f19601f820116820180604052508101906102949190610995565b90507f47e915878c47f3ec4d7ff646a2becb229f64fd2abe4d2b5e2bb4275b0cf50d4e8b8b8b8b8b8b8b8b8b8b8b6040516102d99b9a999897969594939291906109d7565b60405180910390a15050505050505050505050565b6000828152602081815260408083206001600160a01b038516845290915281205460ff1661031d57600061033f565b7fa2ef4600d742022d532d4747cb3547474667d6f13804902513b2ec01c848f4b45b9392505050565b604051634decdde360e11b81526001600160a01b03851690639bd9bbc69061037690869086908690600401610a9b565b600060405180830381600087803b15801561039057600080fd5b505af11580156103a4573d6000803e3d6000fd5b5050505050505050565b60405163fe9d930360e01b81526001600160a01b0384169063fe9d9303906103dc9085908590600401610acb565b600060405180830381600087803b1580156103f657600080fd5b505af115801561040a573d6000803e3d6000fd5b50505050505050565b60015460ff161561042357600080fd5b6040516370a0823160e01b8152339060009082906370a082319061044b908c90600401610981565b602060405180830381865afa158015610468573d6000803e3d6000fd5b505050506040513d601f19601f8201168201806040525081019061048c9190610995565b90506000826001600160a01b03166370a082318a6040518263ffffffff1660e01b81526004016104bc9190610981565b602060405180830381865afa1580156104d9573d6000803e3d6000fd5b505050506040513d601f19601f820116820180604052508101906104fd9190610995565b90507faa3e88aca472e90221daf7d3d601abafb62b120319089d7a2c2f63588da855298b8b8b8b8b8b8b8b8b8b8b6040516102d99b9a999897969594939291906109d7565b6001546040516329965a1d60e01b8152620100009091046001600160a01b0316906329965a1d90610589903090600080516020610b10833981519152908690600401610aec565b600060405180830381600087803b1580156105a357600080fd5b505af11580156105b7573d6000803e3d6000fd5b5050505050565b6105d6600080516020610b308339815191528261066f565b306001600160a01b0382168190036105f1576105f181610628565b5050565b61060d600080516020610b108339815191528261066f565b306001600160a01b0382168190036105f1576105f181610542565b6001546040516329965a1d60e01b8152620100009091046001600160a01b0316906329965a1d90610589903090600080516020610b30833981519152908690600401610aec565b6000918252602082815260408084206001600160a01b0390931684529190529020805460ff19166001179055565b6001600160a01b03811681146106b257600080fd5b50565b60008083601f8401126106c757600080fd5b5081356001600160401b038111156106de57600080fd5b6020830191508360208285010111156106f657600080fd5b9250929050565b60008060008060008060008060c0898b03121561071957600080fd5b88356107248161069d565b975060208901356107348161069d565b965060408901356107448161069d565b95506060890135945060808901356001600160401b038082111561076757600080fd5b6107738c838d016106b5565b909650945060a08b013591508082111561078c57600080fd5b506107998b828c016106b5565b999c989b5096995094979396929594505050565b600080604083850312156107c057600080fd5b8235915060208301356107d28161069d565b809150509250929050565b634e487b7160e01b600052604160045260246000fd5b600082601f83011261080457600080fd5b81356001600160401b038082111561081e5761081e6107dd565b604051601f8301601f19908116603f01168101908282118183101715610846576108466107dd565b8160405283815286602085880101111561085f57600080fd5b836020870160208301376000602085830101528094505050505092915050565b6000806000806080858703121561089557600080fd5b84356108a08161069d565b935060208501356108b08161069d565b92506040850135915060608501356001600160401b038111156108d257600080fd5b6108de878288016107f3565b91505092959194509250565b6000806000606084860312156108ff57600080fd5b833561090a8161069d565b92506020840135915060408401356001600160401b0381111561092c57600080fd5b610938868287016107f3565b9150509250925092565b60006020828403121561095457600080fd5b8135801515811461033f57600080fd5b60006020828403121561097657600080fd5b813561033f8161069d565b6001600160a01b0391909116815260200190565b6000602082840312156109a757600080fd5b5051919050565b81835281816020850137506000828201602090810191909152601f909101601f19169091010190565b6001600160a01b038c811682528b811660208301528a81166040830152606082018a905261012060808301819052600091610a158483018b8d6109ae565b915083820360a0850152610a2a82898b6109ae565b961660c0840152505060e08101929092526101009091015298975050505050505050565b6000815180845260005b81811015610a7457602081850181015186830182015201610a58565b81811115610a86576000602083870101525b50601f01601f19169290920160200192915050565b60018060a01b0384168152826020820152606060408201526000610ac26060830184610a4e565b95945050505050565b828152604060208201526000610ae46040830184610a4e565b949350505050565b6001600160a01b039384168152602081019290925290911660408201526060019056feb281fc8c12954d22544db45de3159a39272895b169a852b314f9cc762e44c53b29ddb589b1fb5fc7cf394961c1adf5f8c6454761adf795e67fe149f658abe895a26469706673582212209ebe1000e131a0d0352a9e91613377847a31ea6285be8c468ad86740bc84924764736f6c634300080e0033",
  "immutableReferences": {},
  "source": "// SPDX-License-Identifier: MIT\r\n\r\npragma solidity ^0.8.0;\r\n\r\nimport \"../token/ERC777/IERC777.sol\";\r\nimport \"../token/ERC777/IERC777Sender.sol\";\r\nimport \"../token/ERC777/IERC777Recipient.sol\";\r\nimport \"../utils/Context.sol\";\r\nimport \"../utils/introspection/IERC1820Registry.sol\";\r\nimport \"../utils/introspection/ERC1820Implementer.sol\";\r\n\r\ncontract ERC777SenderRecipientMock is Context, IERC777Sender, IERC777Recipient, ERC1820Implementer {\r\n    event TokensToSendCalled(\r\n        address operator,\r\n        address from,\r\n        address to,\r\n        uint256 amount,\r\n        bytes data,\r\n        bytes operatorData,\r\n        address token,\r\n        uint256 fromBalance,\r\n        uint256 toBalance\r\n    );\r\n\r\n    event TokensReceivedCalled(\r\n        address operator,\r\n        address from,\r\n        address to,\r\n        uint256 amount,\r\n        bytes data,\r\n        bytes operatorData,\r\n        address token,\r\n        uint256 fromBalance,\r\n        uint256 toBalance\r\n    );\r\n\r\n    // Emitted in ERC777Mock. Here for easier decoding\r\n    event BeforeTokenTransfer();\r\n\r\n    bool private _shouldRevertSend;\r\n    bool private _shouldRevertReceive;\r\n\r\n    IERC1820Registry private _erc1820 = IERC1820Registry(0x1820a4B7618BdE71Dce8cdc73aAB6C95905faD24);\r\n\r\n    bytes32 private constant _TOKENS_SENDER_INTERFACE_HASH = keccak256(\"ERC777TokensSender\");\r\n    bytes32 private constant _TOKENS_RECIPIENT_INTERFACE_HASH = keccak256(\"ERC777TokensRecipient\");\r\n\r\n    function tokensToSend(\r\n        address operator,\r\n        address from,\r\n        address to,\r\n        uint256 amount,\r\n        bytes calldata userData,\r\n        bytes calldata operatorData\r\n    ) external override {\r\n        if (_shouldRevertSend) {\r\n            revert();\r\n        }\r\n\r\n        IERC777 token = IERC777(_msgSender());\r\n\r\n        uint256 fromBalance = token.balanceOf(from);\r\n        // when called due to burn, to will be the zero address, which will have a balance of 0\r\n        uint256 toBalance = token.balanceOf(to);\r\n\r\n        emit TokensToSendCalled(\r\n            operator,\r\n            from,\r\n            to,\r\n            amount,\r\n            userData,\r\n            operatorData,\r\n            address(token),\r\n            fromBalance,\r\n            toBalance\r\n        );\r\n    }\r\n\r\n    function tokensReceived(\r\n        address operator,\r\n        address from,\r\n        address to,\r\n        uint256 amount,\r\n        bytes calldata userData,\r\n        bytes calldata operatorData\r\n    ) external override {\r\n        if (_shouldRevertReceive) {\r\n            revert();\r\n        }\r\n\r\n        IERC777 token = IERC777(_msgSender());\r\n\r\n        uint256 fromBalance = token.balanceOf(from);\r\n        // when called due to burn, to will be the zero address, which will have a balance of 0\r\n        uint256 toBalance = token.balanceOf(to);\r\n\r\n        emit TokensReceivedCalled(\r\n            operator,\r\n            from,\r\n            to,\r\n            amount,\r\n            userData,\r\n            operatorData,\r\n            address(token),\r\n            fromBalance,\r\n            toBalance\r\n        );\r\n    }\r\n\r\n    function senderFor(address account) public {\r\n        _registerInterfaceForAddress(_TOKENS_SENDER_INTERFACE_HASH, account);\r\n\r\n        address self = address(this);\r\n        if (account == self) {\r\n            registerSender(self);\r\n        }\r\n    }\r\n\r\n    function registerSender(address sender) public {\r\n        _erc1820.setInterfaceImplementer(address(this), _TOKENS_SENDER_INTERFACE_HASH, sender);\r\n    }\r\n\r\n    function recipientFor(address account) public {\r\n        _registerInterfaceForAddress(_TOKENS_RECIPIENT_INTERFACE_HASH, account);\r\n\r\n        address self = address(this);\r\n        if (account == self) {\r\n            registerRecipient(self);\r\n        }\r\n    }\r\n\r\n    function registerRecipient(address recipient) public {\r\n        _erc1820.setInterfaceImplementer(address(this), _TOKENS_RECIPIENT_INTERFACE_HASH, recipient);\r\n    }\r\n\r\n    function setShouldRevertSend(bool shouldRevert) public {\r\n        _shouldRevertSend = shouldRevert;\r\n    }\r\n\r\n    function setShouldRevertReceive(bool shouldRevert) public {\r\n        _shouldRevertReceive = shouldRevert;\r\n    }\r\n\r\n    function send(\r\n        IERC777 token,\r\n        address to,\r\n        uint256 amount,\r\n        bytes memory data\r\n    ) public {\r\n        // This is 777's send function, not the Solidity send function\r\n        token.send(to, amount, data); // solhint-disable-line check-send-result\r\n    }\r\n\r\n    function burn(\r\n        IERC777 token,\r\n        uint256 amount,\r\n        bytes memory data\r\n    ) public {\r\n        token.burn(amount, data);\r\n    }\r\n}\r\n",
  "sourcePath": "D:\\work\\www\\yopu_dapp_nft\\contracts\\lib\\openzeppelin\\contracts\\mocks\\ERC777SenderRecipientMock.sol",
  "compiler": {
    "name": "solc",
    "version": "0.8.14+commit.80d49f37.Emscripten.clang"
  },
  "schemaVersion": "3.4.7",
  "updatedAt": "2022-06-28T15:05:47.710Z",
  "devdoc": {
    "kind": "dev",
    "methods": {
      "canImplementInterfaceForAddress(bytes32,address)": {
        "details": "See {IERC1820Implementer-canImplementInterfaceForAddress}."
      },
      "tokensReceived(address,address,address,uint256,bytes,bytes)": {
        "details": "Called by an {IERC777} token contract whenever tokens are being moved or created into a registered account (`to`). The type of operation is conveyed by `from` being the zero address or not. This call occurs _after_ the token contract's state is updated, so {IERC777-balanceOf}, etc., can be used to query the post-operation state. This function may revert to prevent the operation from being executed."
      },
      "tokensToSend(address,address,address,uint256,bytes,bytes)": {
        "details": "Called by an {IERC777} token contract whenever a registered holder's (`from`) tokens are about to be moved or destroyed. The type of operation is conveyed by `to` being the zero address or not. This call occurs _before_ the token contract's state is updated, so {IERC777-balanceOf}, etc., can be used to query the pre-operation state. This function may revert to prevent the operation from being executed."
      }
    },
    "version": 1
  },
  "userdoc": {
    "kind": "user",
    "methods": {},
    "version": 1
  }
}