{
  "contractName": "GovernorPreventLateQuorumMock",
  "abi": [
    {
      "inputs": [
        {
          "internalType": "string",
          "name": "name_",
          "type": "string"
        },
        {
          "internalType": "contract IVotes",
          "name": "token_",
          "type": "address"
        },
        {
          "internalType": "uint256",
          "name": "votingDelay_",
          "type": "uint256"
        },
        {
          "internalType": "uint256",
          "name": "votingPeriod_",
          "type": "uint256"
        },
        {
          "internalType": "uint256",
          "name": "quorum_",
          "type": "uint256"
        },
        {
          "internalType": "uint64",
          "name": "voteExtension_",
          "type": "uint64"
        }
      ],
      "stateMutability": "nonpayable",
      "type": "constructor"
    },
    {
      "inputs": [],
      "name": "Empty",
      "type": "error"
    },
    {
      "anonymous": false,
      "inputs": [
        {
          "indexed": false,
          "internalType": "uint64",
          "name": "oldVoteExtension",
          "type": "uint64"
        },
        {
          "indexed": false,
          "internalType": "uint64",
          "name": "newVoteExtension",
          "type": "uint64"
        }
      ],
      "name": "LateQuorumVoteExtensionSet",
      "type": "event"
    },
    {
      "anonymous": false,
      "inputs": [
        {
          "indexed": false,
          "internalType": "uint256",
          "name": "proposalId",
          "type": "uint256"
        }
      ],
      "name": "ProposalCanceled",
      "type": "event"
    },
    {
      "anonymous": false,
      "inputs": [
        {
          "indexed": false,
          "internalType": "uint256",
          "name": "proposalId",
          "type": "uint256"
        },
        {
          "indexed": false,
          "internalType": "address",
          "name": "proposer",
          "type": "address"
        },
        {
          "indexed": false,
          "internalType": "address[]",
          "name": "targets",
          "type": "address[]"
        },
        {
          "indexed": false,
          "internalType": "uint256[]",
          "name": "values",
          "type": "uint256[]"
        },
        {
          "indexed": false,
          "internalType": "string[]",
          "name": "signatures",
          "type": "string[]"
        },
        {
          "indexed": false,
          "internalType": "bytes[]",
          "name": "calldatas",
          "type": "bytes[]"
        },
        {
          "indexed": false,
          "internalType": "uint256",
          "name": "startBlock",
          "type": "uint256"
        },
        {
          "indexed": false,
          "internalType": "uint256",
          "name": "endBlock",
          "type": "uint256"
        },
        {
          "indexed": false,
          "internalType": "string",
          "name": "description",
          "type": "string"
        }
      ],
      "name": "ProposalCreated",
      "type": "event"
    },
    {
      "anonymous": false,
      "inputs": [
        {
          "indexed": false,
          "internalType": "uint256",
          "name": "proposalId",
          "type": "uint256"
        }
      ],
      "name": "ProposalExecuted",
      "type": "event"
    },
    {
      "anonymous": false,
      "inputs": [
        {
          "indexed": true,
          "internalType": "uint256",
          "name": "proposalId",
          "type": "uint256"
        },
        {
          "indexed": false,
          "internalType": "uint64",
          "name": "extendedDeadline",
          "type": "uint64"
        }
      ],
      "name": "ProposalExtended",
      "type": "event"
    },
    {
      "anonymous": false,
      "inputs": [
        {
          "indexed": false,
          "internalType": "uint256",
          "name": "oldProposalThreshold",
          "type": "uint256"
        },
        {
          "indexed": false,
          "internalType": "uint256",
          "name": "newProposalThreshold",
          "type": "uint256"
        }
      ],
      "name": "ProposalThresholdSet",
      "type": "event"
    },
    {
      "anonymous": false,
      "inputs": [
        {
          "indexed": true,
          "internalType": "address",
          "name": "voter",
          "type": "address"
        },
        {
          "indexed": false,
          "internalType": "uint256",
          "name": "proposalId",
          "type": "uint256"
        },
        {
          "indexed": false,
          "internalType": "uint8",
          "name": "support",
          "type": "uint8"
        },
        {
          "indexed": false,
          "internalType": "uint256",
          "name": "weight",
          "type": "uint256"
        },
        {
          "indexed": false,
          "internalType": "string",
          "name": "reason",
          "type": "string"
        }
      ],
      "name": "VoteCast",
      "type": "event"
    },
    {
      "anonymous": false,
      "inputs": [
        {
          "indexed": true,
          "internalType": "address",
          "name": "voter",
          "type": "address"
        },
        {
          "indexed": false,
          "internalType": "uint256",
          "name": "proposalId",
          "type": "uint256"
        },
        {
          "indexed": false,
          "internalType": "uint8",
          "name": "support",
          "type": "uint8"
        },
        {
          "indexed": false,
          "internalType": "uint256",
          "name": "weight",
          "type": "uint256"
        },
        {
          "indexed": false,
          "internalType": "string",
          "name": "reason",
          "type": "string"
        },
        {
          "indexed": false,
          "internalType": "bytes",
          "name": "params",
          "type": "bytes"
        }
      ],
      "name": "VoteCastWithParams",
      "type": "event"
    },
    {
      "anonymous": false,
      "inputs": [
        {
          "indexed": false,
          "internalType": "uint256",
          "name": "oldVotingDelay",
          "type": "uint256"
        },
        {
          "indexed": false,
          "internalType": "uint256",
          "name": "newVotingDelay",
          "type": "uint256"
        }
      ],
      "name": "VotingDelaySet",
      "type": "event"
    },
    {
      "anonymous": false,
      "inputs": [
        {
          "indexed": false,
          "internalType": "uint256",
          "name": "oldVotingPeriod",
          "type": "uint256"
        },
        {
          "indexed": false,
          "internalType": "uint256",
          "name": "newVotingPeriod",
          "type": "uint256"
        }
      ],
      "name": "VotingPeriodSet",
      "type": "event"
    },
    {
      "inputs": [],
      "name": "BALLOT_TYPEHASH",
      "outputs": [
        {
          "internalType": "bytes32",
          "name": "",
          "type": "bytes32"
        }
      ],
      "stateMutability": "view",
      "type": "function"
    },
    {
      "inputs": [],
      "name": "COUNTING_MODE",
      "outputs": [
        {
          "internalType": "string",
          "name": "",
          "type": "string"
        }
      ],
      "stateMutability": "pure",
      "type": "function"
    },
    {
      "inputs": [],
      "name": "EXTENDED_BALLOT_TYPEHASH",
      "outputs": [
        {
          "internalType": "bytes32",
          "name": "",
          "type": "bytes32"
        }
      ],
      "stateMutability": "view",
      "type": "function"
    },
    {
      "inputs": [
        {
          "internalType": "uint256",
          "name": "proposalId",
          "type": "uint256"
        },
        {
          "internalType": "uint8",
          "name": "support",
          "type": "uint8"
        }
      ],
      "name": "castVote",
      "outputs": [
        {
          "internalType": "uint256",
          "name": "",
          "type": "uint256"
        }
      ],
      "stateMutability": "nonpayable",
      "type": "function"
    },
    {
      "inputs": [
        {
          "internalType": "uint256",
          "name": "proposalId",
          "type": "uint256"
        },
        {
          "internalType": "uint8",
          "name": "support",
          "type": "uint8"
        },
        {
          "internalType": "uint8",
          "name": "v",
          "type": "uint8"
        },
        {
          "internalType": "bytes32",
          "name": "r",
          "type": "bytes32"
        },
        {
          "internalType": "bytes32",
          "name": "s",
          "type": "bytes32"
        }
      ],
      "name": "castVoteBySig",
      "outputs": [
        {
          "internalType": "uint256",
          "name": "",
          "type": "uint256"
        }
      ],
      "stateMutability": "nonpayable",
      "type": "function"
    },
    {
      "inputs": [
        {
          "internalType": "uint256",
          "name": "proposalId",
          "type": "uint256"
        },
        {
          "internalType": "uint8",
          "name": "support",
          "type": "uint8"
        },
        {
          "internalType": "string",
          "name": "reason",
          "type": "string"
        }
      ],
      "name": "castVoteWithReason",
      "outputs": [
        {
          "internalType": "uint256",
          "name": "",
          "type": "uint256"
        }
      ],
      "stateMutability": "nonpayable",
      "type": "function"
    },
    {
      "inputs": [
        {
          "internalType": "uint256",
          "name": "proposalId",
          "type": "uint256"
        },
        {
          "internalType": "uint8",
          "name": "support",
          "type": "uint8"
        },
        {
          "internalType": "string",
          "name": "reason",
          "type": "string"
        },
        {
          "internalType": "bytes",
          "name": "params",
          "type": "bytes"
        }
      ],
      "name": "castVoteWithReasonAndParams",
      "outputs": [
        {
          "internalType": "uint256",
          "name": "",
          "type": "uint256"
        }
      ],
      "stateMutability": "nonpayable",
      "type": "function"
    },
    {
      "inputs": [
        {
          "internalType": "uint256",
          "name": "proposalId",
          "type": "uint256"
        },
        {
          "internalType": "uint8",
          "name": "support",
          "type": "uint8"
        },
        {
          "internalType": "string",
          "name": "reason",
          "type": "string"
        },
        {
          "internalType": "bytes",
          "name": "params",
          "type": "bytes"
        },
        {
          "internalType": "uint8",
          "name": "v",
          "type": "uint8"
        },
        {
          "internalType": "bytes32",
          "name": "r",
          "type": "bytes32"
        },
        {
          "internalType": "bytes32",
          "name": "s",
          "type": "bytes32"
        }
      ],
      "name": "castVoteWithReasonAndParamsBySig",
      "outputs": [
        {
          "internalType": "uint256",
          "name": "",
          "type": "uint256"
        }
      ],
      "stateMutability": "nonpayable",
      "type": "function"
    },
    {
      "inputs": [
        {
          "internalType": "address[]",
          "name": "targets",
          "type": "address[]"
        },
        {
          "internalType": "uint256[]",
          "name": "values",
          "type": "uint256[]"
        },
        {
          "internalType": "bytes[]",
          "name": "calldatas",
          "type": "bytes[]"
        },
        {
          "internalType": "bytes32",
          "name": "descriptionHash",
          "type": "bytes32"
        }
      ],
      "name": "execute",
      "outputs": [
        {
          "internalType": "uint256",
          "name": "",
          "type": "uint256"
        }
      ],
      "stateMutability": "payable",
      "type": "function"
    },
    {
      "inputs": [
        {
          "internalType": "address",
          "name": "account",
          "type": "address"
        },
        {
          "internalType": "uint256",
          "name": "blockNumber",
          "type": "uint256"
        }
      ],
      "name": "getVotes",
      "outputs": [
        {
          "internalType": "uint256",
          "name": "",
          "type": "uint256"
        }
      ],
      "stateMutability": "view",
      "type": "function"
    },
    {
      "inputs": [
        {
          "internalType": "address",
          "name": "account",
          "type": "address"
        },
        {
          "internalType": "uint256",
          "name": "blockNumber",
          "type": "uint256"
        },
        {
          "internalType": "bytes",
          "name": "params",
          "type": "bytes"
        }
      ],
      "name": "getVotesWithParams",
      "outputs": [
        {
          "internalType": "uint256",
          "name": "",
          "type": "uint256"
        }
      ],
      "stateMutability": "view",
      "type": "function"
    },
    {
      "inputs": [
        {
          "internalType": "uint256",
          "name": "proposalId",
          "type": "uint256"
        },
        {
          "internalType": "address",
          "name": "account",
          "type": "address"
        }
      ],
      "name": "hasVoted",
      "outputs": [
        {
          "internalType": "bool",
          "name": "",
          "type": "bool"
        }
      ],
      "stateMutability": "view",
      "type": "function"
    },
    {
      "inputs": [
        {
          "internalType": "address[]",
          "name": "targets",
          "type": "address[]"
        },
        {
          "internalType": "uint256[]",
          "name": "values",
          "type": "uint256[]"
        },
        {
          "internalType": "bytes[]",
          "name": "calldatas",
          "type": "bytes[]"
        },
        {
          "internalType": "bytes32",
          "name": "descriptionHash",
          "type": "bytes32"
        }
      ],
      "name": "hashProposal",
      "outputs": [
        {
          "internalType": "uint256",
          "name": "",
          "type": "uint256"
        }
      ],
      "stateMutability": "pure",
      "type": "function"
    },
    {
      "inputs": [],
      "name": "lateQuorumVoteExtension",
      "outputs": [
        {
          "internalType": "uint64",
          "name": "",
          "type": "uint64"
        }
      ],
      "stateMutability": "view",
      "type": "function"
    },
    {
      "inputs": [],
      "name": "name",
      "outputs": [
        {
          "internalType": "string",
          "name": "",
          "type": "string"
        }
      ],
      "stateMutability": "view",
      "type": "function"
    },
    {
      "inputs": [
        {
          "internalType": "address",
          "name": "",
          "type": "address"
        },
        {
          "internalType": "address",
          "name": "",
          "type": "address"
        },
        {
          "internalType": "uint256[]",
          "name": "",
          "type": "uint256[]"
        },
        {
          "internalType": "uint256[]",
          "name": "",
          "type": "uint256[]"
        },
        {
          "internalType": "bytes",
          "name": "",
          "type": "bytes"
        }
      ],
      "name": "onERC1155BatchReceived",
      "outputs": [
        {
          "internalType": "bytes4",
          "name": "",
          "type": "bytes4"
        }
      ],
      "stateMutability": "nonpayable",
      "type": "function"
    },
    {
      "inputs": [
        {
          "internalType": "address",
          "name": "",
          "type": "address"
        },
        {
          "internalType": "address",
          "name": "",
          "type": "address"
        },
        {
          "internalType": "uint256",
          "name": "",
          "type": "uint256"
        },
        {
          "internalType": "uint256",
          "name": "",
          "type": "uint256"
        },
        {
          "internalType": "bytes",
          "name": "",
          "type": "bytes"
        }
      ],
      "name": "onERC1155Received",
      "outputs": [
        {
          "internalType": "bytes4",
          "name": "",
          "type": "bytes4"
        }
      ],
      "stateMutability": "nonpayable",
      "type": "function"
    },
    {
      "inputs": [
        {
          "internalType": "address",
          "name": "",
          "type": "address"
        },
        {
          "internalType": "address",
          "name": "",
          "type": "address"
        },
        {
          "internalType": "uint256",
          "name": "",
          "type": "uint256"
        },
        {
          "internalType": "bytes",
          "name": "",
          "type": "bytes"
        }
      ],
      "name": "onERC721Received",
      "outputs": [
        {
          "internalType": "bytes4",
          "name": "",
          "type": "bytes4"
        }
      ],
      "stateMutability": "nonpayable",
      "type": "function"
    },
    {
      "inputs": [
        {
          "internalType": "uint256",
          "name": "proposalId",
          "type": "uint256"
        }
      ],
      "name": "proposalSnapshot",
      "outputs": [
        {
          "internalType": "uint256",
          "name": "",
          "type": "uint256"
        }
      ],
      "stateMutability": "view",
      "type": "function"
    },
    {
      "inputs": [
        {
          "internalType": "uint256",
          "name": "proposalId",
          "type": "uint256"
        }
      ],
      "name": "proposalVotes",
      "outputs": [
        {
          "internalType": "uint256",
          "name": "againstVotes",
          "type": "uint256"
        },
        {
          "internalType": "uint256",
          "name": "forVotes",
          "type": "uint256"
        },
        {
          "internalType": "uint256",
          "name": "abstainVotes",
          "type": "uint256"
        }
      ],
      "stateMutability": "view",
      "type": "function"
    },
    {
      "inputs": [
        {
          "internalType": "address[]",
          "name": "targets",
          "type": "address[]"
        },
        {
          "internalType": "uint256[]",
          "name": "values",
          "type": "uint256[]"
        },
        {
          "internalType": "bytes[]",
          "name": "calldatas",
          "type": "bytes[]"
        },
        {
          "internalType": "string",
          "name": "description",
          "type": "string"
        }
      ],
      "name": "propose",
      "outputs": [
        {
          "internalType": "uint256",
          "name": "",
          "type": "uint256"
        }
      ],
      "stateMutability": "nonpayable",
      "type": "function"
    },
    {
      "inputs": [
        {
          "internalType": "address",
          "name": "target",
          "type": "address"
        },
        {
          "internalType": "uint256",
          "name": "value",
          "type": "uint256"
        },
        {
          "internalType": "bytes",
          "name": "data",
          "type": "bytes"
        }
      ],
      "name": "relay",
      "outputs": [],
      "stateMutability": "nonpayable",
      "type": "function"
    },
    {
      "inputs": [
        {
          "internalType": "uint64",
          "name": "newVoteExtension",
          "type": "uint64"
        }
      ],
      "name": "setLateQuorumVoteExtension",
      "outputs": [],
      "stateMutability": "nonpayable",
      "type": "function"
    },
    {
      "inputs": [
        {
          "internalType": "uint256",
          "name": "newProposalThreshold",
          "type": "uint256"
        }
      ],
      "name": "setProposalThreshold",
      "outputs": [],
      "stateMutability": "nonpayable",
      "type": "function"
    },
    {
      "inputs": [
        {
          "internalType": "uint256",
          "name": "newVotingDelay",
          "type": "uint256"
        }
      ],
      "name": "setVotingDelay",
      "outputs": [],
      "stateMutability": "nonpayable",
      "type": "function"
    },
    {
      "inputs": [
        {
          "internalType": "uint256",
          "name": "newVotingPeriod",
          "type": "uint256"
        }
      ],
      "name": "setVotingPeriod",
      "outputs": [],
      "stateMutability": "nonpayable",
      "type": "function"
    },
    {
      "inputs": [
        {
          "internalType": "uint256",
          "name": "proposalId",
          "type": "uint256"
        }
      ],
      "name": "state",
      "outputs": [
        {
          "internalType": "enum IGovernor.ProposalState",
          "name": "",
          "type": "uint8"
        }
      ],
      "stateMutability": "view",
      "type": "function"
    },
    {
      "inputs": [
        {
          "internalType": "bytes4",
          "name": "interfaceId",
          "type": "bytes4"
        }
      ],
      "name": "supportsInterface",
      "outputs": [
        {
          "internalType": "bool",
          "name": "",
          "type": "bool"
        }
      ],
      "stateMutability": "view",
      "type": "function"
    },
    {
      "inputs": [],
      "name": "token",
      "outputs": [
        {
          "internalType": "contract IVotes",
          "name": "",
          "type": "address"
        }
      ],
      "stateMutability": "view",
      "type": "function"
    },
    {
      "inputs": [],
      "name": "version",
      "outputs": [
        {
          "internalType": "string",
          "name": "",
          "type": "string"
        }
      ],
      "stateMutability": "view",
      "type": "function"
    },
    {
      "inputs": [],
      "name": "votingDelay",
      "outputs": [
        {
          "internalType": "uint256",
          "name": "",
          "type": "uint256"
        }
      ],
      "stateMutability": "view",
      "type": "function"
    },
    {
      "inputs": [],
      "name": "votingPeriod",
      "outputs": [
        {
          "internalType": "uint256",
          "name": "",
          "type": "uint256"
        }
      ],
      "stateMutability": "view",
      "type": "function"
    },
    {
      "stateMutability": "payable",
      "type": "receive"
    },
    {
      "inputs": [
        {
          "internalType": "uint256",
          "name": "",
          "type": "uint256"
        }
      ],
      "name": "quorum",
      "outputs": [
        {
          "internalType": "uint256",
          "name": "",
          "type": "uint256"
        }
      ],
      "stateMutability": "view",
      "type": "function"
    },
    {
      "inputs": [
        {
          "internalType": "uint256",
          "name": "proposalId",
          "type": "uint256"
        }
      ],
      "name": "proposalDeadline",
      "outputs": [
        {
          "internalType": "uint256",
          "name": "",
          "type": "uint256"
        }
      ],
      "stateMutability": "view",
      "type": "function"
    },
    {
      "inputs": [],
      "name": "proposalThreshold",
      "outputs": [
        {
          "internalType": "uint256",
          "name": "",
          "type": "uint256"
        }
      ],
      "stateMutability": "view",
      "type": "function"
    }
  ],
  "bytecode": "0x6101606040523480156200001257600080fd5b5060405162003442380380620034428339810160408190526200003591620003d3565b8085858560008a806200005c6040805180820190915260018152603160f81b602082015290565b815160208084019190912082518383012060e08290526101008190524660a0818152604080517f8b73c3c69bb8fe3d512ecc4cf759cc79239f7b179b0ffacaa9a75d522b39400f81880181905281830187905260608201869052608082019490945230818401528151808203909301835260c00190528051940193909320919290916080523060c0526101205250508251620001029250600091506020840190620002e2565b506200011090508362000151565b6200011b8262000192565b620001268162000238565b5050506001600160a01b031661014052620001418162000279565b5050600a55506200052e92505050565b60045460408051918252602082018390527fc565b045403dc03c2eea82b81a0465edad9e2e7fc4d97e11421c209da93d7a93910160405180910390a1600455565b60008111620001f75760405162461bcd60e51b815260206004820152602760248201527f476f7665726e6f7253657474696e67733a20766f74696e6720706572696f6420604482015266746f6f206c6f7760c81b606482015260840160405180910390fd5b60055460408051918252602082018390527f7e3f7f0708a84de9203036abaa450dccc85ad5ff52f78c170f3edb55cf5e8828910160405180910390a1600555565b60065460408051918252602082018390527fccb45da8d5717e6c4544694297c4ba5cf151d455c9bb0ed4fc7a38411bc05461910160405180910390a1600655565b600854604080516001600160401b03928316815291831660208301527f7ca4ac117ed3cdce75c1161d8207c440389b1a15d69d096831664657c07dafc2910160405180910390a1600880546001600160401b0319166001600160401b0392909216919091179055565b828054620002f090620004f2565b90600052602060002090601f0160209004810192826200031457600085556200035f565b82601f106200032f57805160ff19168380011785556200035f565b828001600101855582156200035f579182015b828111156200035f57825182559160200191906001019062000342565b506200036d92915062000371565b5090565b5b808211156200036d576000815560010162000372565b634e487b7160e01b600052604160045260246000fd5b80516001600160a01b0381168114620003b657600080fd5b919050565b80516001600160401b0381168114620003b657600080fd5b60008060008060008060c08789031215620003ed57600080fd5b86516001600160401b03808211156200040557600080fd5b818901915089601f8301126200041a57600080fd5b8151818111156200042f576200042f62000388565b604051601f8201601f19908116603f011681019083821181831017156200045a576200045a62000388565b81604052828152602093508c848487010111156200047757600080fd5b600091505b828210156200049b57848201840151818301850152908301906200047c565b82821115620004ad5760008484830101525b9950620004bf9150508982016200039e565b96505050604087015193506060870151925060808701519150620004e660a08801620003bb565b90509295509295509295565b600181811c908216806200050757607f821691505b6020821081036200052857634e487b7160e01b600052602260045260246000fd5b50919050565b60805160a05160c05160e051610100516101205161014051612eb262000590600039600081816106c40152611503015260006117a7015260006117f6015260006117d10152600061172a015260006117540152600061177e0152612eb26000f3fe6080604052600436106101985760003560e01c806301ffc9a7146101a657806302a251a3146101db57806303420181146101fa57806306fdde031461021a578063150b7a021461023c5780632656227d146102755780632d63f693146102885780632fe3e261146102a857806332b8113e146102ca5780633932abb1146102f05780633bccf4fd146103055780633e4f49e6146103255780634385963214610352578063544ffc9c1461039c57806354fd4d50146103f1578063567813881461041b5780635f398a141461043b57806370b0f6601461045b5780637b3c71d31461047b5780637d5e81e21461049b5780639a802a6d146104bb578063b58131b0146104db578063bc197c81146104f0578063c01f9e371461051c578063c28bc2fa1461053c578063c59057e41461055c578063d07f91e91461057c578063dd4e2ba51461059c578063deaaa7cc146105e2578063ea0217cf14610604578063eb9019d414610624578063ece40cc114610644578063f23a6e6114610664578063f8ce560a14610690578063fc0c546a146106b257600080fd5b366101a157005b005b600080fd5b3480156101b257600080fd5b506101c66101c13660046120aa565b6106fe565b60405190151581526020015b60405180910390f35b3480156101e757600080fd5b506005545b6040519081526020016101d2565b34801561020657600080fd5b506101ec6102153660046121ef565b61076b565b34801561022657600080fd5b5061022f610851565b6040516101d291906122f1565b34801561024857600080fd5b5061025c61025736600461231b565b6108e3565b6040516001600160e01b031990911681526020016101d2565b6101ec6102833660046124e6565b6108f4565b34801561029457600080fd5b506101ec6102a3366004612575565b610a20565b3480156102b457600080fd5b506101ec600080516020612e0d83398151915281565b3480156102d657600080fd5b506008546001600160401b03166040516101d2919061258e565b3480156102fc57600080fd5b506004546101ec565b34801561031157600080fd5b506101ec6103203660046125a2565b610a57565b34801561033157600080fd5b50610345610340366004612575565b610abb565b6040516101d29190612606565b34801561035e57600080fd5b506101c661036d36600461262e565b60008281526007602090815260408083206001600160a01b038516845260030190915290205460ff1692915050565b3480156103a857600080fd5b506103d66103b7366004612575565b6000908152600760205260409020805460018201546002909201549092565b604080519384526020840192909252908201526060016101d2565b3480156103fd57600080fd5b506040805180820190915260018152603160f81b602082015261022f565b34801561042757600080fd5b506101ec61043636600461265a565b610bca565b34801561044757600080fd5b506101ec61045636600461267d565b610beb565b34801561046757600080fd5b5061019f610476366004612575565b610c35565b34801561048757600080fd5b506101ec610496366004612700565b610c77565b3480156104a757600080fd5b506101ec6104b6366004612759565b610cc9565b3480156104c757600080fd5b506101ec6104d636600461280d565b610f68565b3480156104e757600080fd5b506101ec610f7f565b3480156104fc57600080fd5b5061025c61050b366004612863565b63bc197c8160e01b95945050505050565b34801561052857600080fd5b506101ec610537366004612575565b610f8f565b34801561054857600080fd5b5061019f6105573660046128f2565b610f9a565b34801561056857600080fd5b506101ec6105773660046124e6565b611019565b34801561058857600080fd5b5061019f610597366004612933565b611053565b3480156105a857600080fd5b506040805180820190915260208082527f737570706f72743d627261766f2671756f72756d3d666f722c6162737461696e9082015261022f565b3480156105ee57600080fd5b506101ec600080516020612ded83398151915281565b34801561061057600080fd5b5061019f61061f366004612575565b611092565b34801561063057600080fd5b506101ec61063f36600461295c565b6110d1565b34801561065057600080fd5b5061019f61065f366004612575565b6110f2565b34801561067057600080fd5b5061025c61067f366004612986565b63f23a6e6160e01b95945050505050565b34801561069c57600080fd5b506101ec6106ab366004612575565b50600a5490565b3480156106be57600080fd5b506106e67f000000000000000000000000000000000000000000000000000000000000000081565b6040516001600160a01b0390911681526020016101d2565b60006001600160e01b0319821663bf26d89760e01b148061072f57506001600160e01b031982166379dd796f60e01b145b8061074a57506001600160e01b03198216630271189760e51b145b8061076557506301ffc9a760e01b6001600160e01b03198316145b92915050565b6000806107fd6107f5600080516020612e0d8339815191528c8c8c8c6040516107959291906129ea565b60405180910390208b805190602001206040516020016107da959493929190948552602085019390935260ff9190911660408401526060830152608082015260a00190565b60405160208183030381529060405280519060200120611131565b86868661117f565b90506108438a828b8b8b8080601f0160208091040260200160405190810160405280939291908181526020018383808284376000920191909152508d925061119d915050565b9a9950505050505050505050565b606060008054610860906129fa565b80601f016020809104026020016040519081016040528092919081815260200182805461088c906129fa565b80156108d95780601f106108ae576101008083540402835291602001916108d9565b820191906000526020600020905b8154815290600101906020018083116108bc57829003601f168201915b5050505050905090565b630a85bd0160e11b5b949350505050565b60008061090386868686611019565b9050600061091082610abb565b90506004816007811115610926576109266125f0565b148061094357506005816007811115610941576109416125f0565b145b61099e5760405162461bcd60e51b815260206004820152602160248201527f476f7665726e6f723a2070726f706f73616c206e6f74207375636365737366756044820152601b60fa1b60648201526084015b60405180910390fd5b600082815260016020818152604092839020600201805460ff191690921790915590518381527f712ae1383f79ac853f8d882153778e0260ef8f03b504e2866e0593e04d2b291f910160405180910390a16109fc82888888886111ac565b610a098288888888611238565b610a1682888888886111ac565b5095945050505050565b60008181526001602090815260408083208151928301909152546001600160401b0316908190525b6001600160401b031692915050565b60408051600080516020612ded833981519152602082015290810186905260ff851660608201526000908190610a93906107f5906080016107da565b9050610ab087828860405180602001604052806000815250611337565b979650505050505050565b6000818152600160205260408120600281015460ff1615610adf5750600792915050565b6002810154610100900460ff1615610afa5750600292915050565b6000610b0584610a20565b905080600003610b575760405162461bcd60e51b815260206004820152601d60248201527f476f7665726e6f723a20756e6b6e6f776e2070726f706f73616c2069640000006044820152606401610995565b438110610b68575060009392505050565b6000610b7385610f8f565b9050438110610b8757506001949350505050565b610b9085611363565b8015610baf575060008581526007602052604090208054600190910154115b15610bbf57506004949350505050565b506003949350505050565b6000803390506108ec84828560405180602001604052806000815250611337565b600080339050610ab087828888888080601f0160208091040260200160405190810160405280939291908181526020018383808284376000920191909152508a925061119d915050565b333014610c545760405162461bcd60e51b815260040161099590612a34565b610c6b565b80610c64600261139a565b03610c5957505b610c7481611410565b50565b600080339050610cbf86828787878080601f01602080910402602001604051908101604052809392919081815260200183838082843760009201919091525061133792505050565b9695505050505050565b6000610cd3610f7f565b610ce23361063f600143612a7c565b1015610d4a5760405162461bcd60e51b815260206004820152603160248201527f476f7665726e6f723a2070726f706f73657220766f7465732062656c6f7720706044820152701c9bdc1bdcd85b081d1a1c995cda1bdb19607a1b6064820152608401610995565b6000610d5f8686868680519060200120611019565b90508451865114610d825760405162461bcd60e51b815260040161099590612a93565b8351865114610da35760405162461bcd60e51b815260040161099590612a93565b6000865111610def5760405162461bcd60e51b815260206004820152601860248201527711dbdd995c9b9bdc8e88195b5c1d1e481c1c9bdc1bdcd85b60421b6044820152606401610995565b600081815260016020908152604091829020825191820190925281546001600160401b03169081905215610e6f5760405162461bcd60e51b815260206004820152602160248201527f476f7665726e6f723a2070726f706f73616c20616c72656164792065786973746044820152607360f81b6064820152608401610995565b6000610e82610e7d60045490565b611451565b610e8b43611451565b610e959190612ad4565b90506000610ea5610e7d60055490565b610eaf9083612ad4565b9050610ebb83836114bd565b610ec860018401826114bd565b7f7d84a6263ae0d98d3329bd7b46bb4e8d6f98cd35a7adb45c274c8b7fd5ebd5e084338b8b8d516001600160401b03811115610f0657610f06612132565b604051908082528060200260200182016040528015610f3957816020015b6060815260200190600190039081610f245790505b508c88888e604051610f5399989796959493929190612bc8565b60405180910390a15091979650505050505050565b6000610f758484846114da565b90505b9392505050565b6000610f8a60065490565b905090565b600061076582611570565b333014610fb95760405162461bcd60e51b815260040161099590612a34565b610fd0565b80610fc9600261139a565b03610fbe57505b6110128483838080601f0160208091040260200160405190810160405280939291908181526020018383808284376000920191909152508892506115ac915050565b5050505050565b6000848484846040516020016110329493929190612cb7565b60408051601f19818403018152919052805160209091012095945050505050565b3330146110725760405162461bcd60e51b815260040161099590612a34565b611089565b80611082600261139a565b0361107757505b610c74816115d2565b3330146110b15760405162461bcd60e51b815260040161099590612a34565b6110c8565b806110c1600261139a565b036110b657505b610c748161163b565b6000610f7883836110ed60408051602081019091526000815290565b6114da565b3330146111115760405162461bcd60e51b815260040161099590612a34565b611128565b80611121600261139a565b0361111657505b610c74816116dc565b600061076561113e61171d565b8360405161190160f01b6020820152602281018390526042810182905260009060620160405160208183030381529060405280519060200120905092915050565b600080600061119087878787611844565b91509150610a1681611927565b6000610cbf8686868686611ad8565b611012565b845181101561123057306001600160a01b03168582815181106111d6576111d6612d02565b60200260200101516001600160a01b0316036112205761122083828151811061120157611201612d02565b6020026020010151805190602001206002611bbd90919063ffffffff16565b61122981612d18565b90506111b1565b505050505050565b6000604051806060016040528060278152602001612e2d60279139905060005b855181101561132e5760008087838151811061127657611276612d02565b60200260200101516001600160a01b031687848151811061129957611299612d02565b60200260200101518785815181106112b3576112b3612d02565b60200260200101516040516112c89190612d31565b60006040518083038185875af1925050503d8060008114611305576040519150601f19603f3d011682016040523d82523d6000602084013e61130a565b606091505b509150915061131a828286611bf9565b5050508061132790612d18565b9050611258565b50505050505050565b600061135a8585858561135560408051602081019091526000815290565b61119d565b95945050505050565b6000818152600760205260408120600281015460018201546113859190612d4d565b6113916106ab85610a20565b11159392505050565b60006113b58254600f81810b600160801b909204900b131590565b156113d357604051631ed9509560e11b815260040160405180910390fd5b508054600f0b6000818152600180840160205260408220805492905583546001600160801b03191692016001600160801b03169190911790915590565b60045460408051918252602082018390527fc565b045403dc03c2eea82b81a0465edad9e2e7fc4d97e11421c209da93d7a93910160405180910390a1600455565b60006001600160401b038211156114b95760405162461bcd60e51b815260206004820152602660248201527f53616665436173743a2076616c756520646f65736e27742066697420696e203660448201526534206269747360d01b6064820152608401610995565b5090565b81546001600160401b0319166001600160401b0391909116179055565b604051630748d63560e31b81526001600160a01b038481166004830152602482018490526000917f000000000000000000000000000000000000000000000000000000000000000090911690633a46b1a890604401602060405180830381865afa15801561154c573d6000803e3d6000fd5b505050506040513d601f19601f82011682018060405250810190610f759190612d65565b600061076561157e83611c12565b600084815260096020908152604091829020825191820190925290546001600160401b031690819052611c41565b6060610f75848484604051806060016040528060298152602001612e5460299139611c58565b600854604080516001600160401b03928316815291831660208301527f7ca4ac117ed3cdce75c1161d8207c440389b1a15d69d096831664657c07dafc2910160405180910390a1600880546001600160401b0319166001600160401b0392909216919091179055565b6000811161169b5760405162461bcd60e51b815260206004820152602760248201527f476f7665726e6f7253657474696e67733a20766f74696e6720706572696f6420604482015266746f6f206c6f7760c81b6064820152608401610995565b60055460408051918252602082018390527f7e3f7f0708a84de9203036abaa450dccc85ad5ff52f78c170f3edb55cf5e8828910160405180910390a1600555565b60065460408051918252602082018390527fccb45da8d5717e6c4544694297c4ba5cf151d455c9bb0ed4fc7a38411bc05461910160405180910390a1600655565b6000306001600160a01b037f00000000000000000000000000000000000000000000000000000000000000001614801561177657507f000000000000000000000000000000000000000000000000000000000000000046145b156117a057507f000000000000000000000000000000000000000000000000000000000000000090565b50604080517f00000000000000000000000000000000000000000000000000000000000000006020808301919091527f0000000000000000000000000000000000000000000000000000000000000000828401527f000000000000000000000000000000000000000000000000000000000000000060608301524660808301523060a0808401919091528351808403909101815260c0909201909252805191012090565b6000806fa2a8918ca85bafe22016d0b997e4df60600160ff1b03831115611871575060009050600361191e565b8460ff16601b1415801561188957508460ff16601c14155b1561189a575060009050600461191e565b6040805160008082526020820180845289905260ff881692820192909252606081018690526080810185905260019060a0016020604051602081039080840390855afa1580156118ee573d6000803e3d6000fd5b5050604051601f1901519150506001600160a01b0381166119175760006001925092505061191e565b9150600090505b94509492505050565b600081600481111561193b5761193b6125f0565b036119435750565b6001816004811115611957576119576125f0565b0361199f5760405162461bcd60e51b815260206004820152601860248201527745434453413a20696e76616c6964207369676e617475726560401b6044820152606401610995565b60028160048111156119b3576119b36125f0565b03611a005760405162461bcd60e51b815260206004820152601f60248201527f45434453413a20696e76616c6964207369676e6174757265206c656e677468006044820152606401610995565b6003816004811115611a1457611a146125f0565b03611a6c5760405162461bcd60e51b815260206004820152602260248201527f45434453413a20696e76616c6964207369676e6174757265202773272076616c604482015261756560f01b6064820152608401610995565b6004816004811115611a8057611a806125f0565b03610c745760405162461bcd60e51b815260206004820152602260248201527f45434453413a20696e76616c6964207369676e6174757265202776272076616c604482015261756560f01b6064820152608401610995565b600080611ae88787878787611d28565b600088815260096020908152604091829020825191820190925281546001600160401b03169081905291925090158015611b265750611b2688611363565b15611bb2576000611b3f6008546001600160401b031690565b611b4843611451565b611b529190612ad4565b9050611b5d89610f8f565b816001600160401b03161115611ba657887f541f725fb9f7c98a30cc9c0ff32fbb14358cd7159c847a3aa20a2bdc442ba51182604051611b9d919061258e565b60405180910390a25b611bb082826114bd565b505b509695505050505050565b8154600160801b90819004600f0b6000818152600180860160205260409091209390935583546001600160801b03908116939091011602179055565b60608315611c08575081610f78565b610f788383611e8d565b60008181526001602081815260408084208151928301909152909101546001600160401b031690819052610a48565b600081831015611c515781610f78565b5090919050565b606082471015611cb95760405162461bcd60e51b815260206004820152602660248201527f416464726573733a20696e73756666696369656e742062616c616e636520666f6044820152651c8818d85b1b60d21b6064820152608401610995565b600080866001600160a01b03168587604051611cd59190612d31565b60006040518083038185875af1925050503d8060008114611d12576040519150601f19603f3d011682016040523d82523d6000602084013e611d17565b606091505b5091509150610ab087838387611eb7565b6000858152600160208190526040822090611d4288610abb565b6007811115611d5357611d536125f0565b14611dac5760405162461bcd60e51b815260206004820152602360248201527f476f7665726e6f723a20766f7465206e6f742063757272656e746c792061637460448201526269766560e81b6064820152608401610995565b604080516020810190915281546001600160401b031690819052600090611dd5908890866114da565b9050611de48888888488611f30565b8351600003611e3957866001600160a01b03167fb8e138887d0aa13bab447e82de9d5c1777041ecd21ca36ba824ff1e6c07ddda489888489604051611e2c9493929190612d7e565b60405180910390a2610ab0565b866001600160a01b03167fe2babfbac5889a709b63bb7f598b324e08bc5a4fb9ec647fb3cbc9ec07eb87128988848989604051611e7a959493929190612da6565b60405180910390a2979650505050505050565b815115611e9d5781518083602001fd5b8060405162461bcd60e51b815260040161099591906122f1565b60608315611f26578251600003611f1f576001600160a01b0385163b611f1f5760405162461bcd60e51b815260206004820152601d60248201527f416464726573733a2063616c6c20746f206e6f6e2d636f6e74726163740000006044820152606401610995565b50816108ec565b6108ec8383611e8d565b60008581526007602090815260408083206001600160a01b0388168452600381019092529091205460ff1615611fb85760405162461bcd60e51b815260206004820152602760248201527f476f7665726e6f72566f74696e6753696d706c653a20766f746520616c726561604482015266191e4818d85cdd60ca1b6064820152608401610995565b6001600160a01b03851660009081526003820160205260409020805460ff1916600117905560ff84166120045782816000016000828254611ff99190612d4d565b909155506112309050565b60001960ff8516016120245782816001016000828254611ff99190612d4d565b60011960ff8516016120445782816002016000828254611ff99190612d4d565b60405162461bcd60e51b815260206004820152603560248201527f476f7665726e6f72566f74696e6753696d706c653a20696e76616c69642076616044820152746c756520666f7220656e756d20566f74655479706560581b6064820152608401610995565b6000602082840312156120bc57600080fd5b81356001600160e01b031981168114610f7857600080fd5b803560ff811681146120e557600080fd5b919050565b60008083601f8401126120fc57600080fd5b5081356001600160401b0381111561211357600080fd5b60208301915083602082850101111561212b57600080fd5b9250929050565b634e487b7160e01b600052604160045260246000fd5b604051601f8201601f191681016001600160401b038111828210171561217057612170612132565b604052919050565b60006001600160401b0383111561219157612191612132565b6121a4601f8401601f1916602001612148565b90508281528383830111156121b857600080fd5b828260208301376000602084830101529392505050565b600082601f8301126121e057600080fd5b610f7883833560208501612178565b60008060008060008060008060e0898b03121561220b57600080fd5b8835975061221b60208a016120d4565b965060408901356001600160401b038082111561223757600080fd5b6122438c838d016120ea565b909850965060608b013591508082111561225c57600080fd5b506122698b828c016121cf565b94505061227860808a016120d4565b925060a0890135915060c089013590509295985092959890939650565b60005b838110156122b0578181015183820152602001612298565b838111156122bf576000848401525b50505050565b600081518084526122dd816020860160208601612295565b601f01601f19169290920160200192915050565b602081526000610f7860208301846122c5565b80356001600160a01b03811681146120e557600080fd5b6000806000806080858703121561233157600080fd5b61233a85612304565b935061234860208601612304565b92506040850135915060608501356001600160401b0381111561236a57600080fd5b612376878288016121cf565b91505092959194509250565b60006001600160401b0382111561239b5761239b612132565b5060051b60200190565b600082601f8301126123b657600080fd5b813560206123cb6123c683612382565b612148565b82815260059290921b840181019181810190868411156123ea57600080fd5b8286015b84811015611bb2576123ff81612304565b83529183019183016123ee565b600082601f83011261241d57600080fd5b8135602061242d6123c683612382565b82815260059290921b8401810191818101908684111561244c57600080fd5b8286015b84811015611bb25780358352918301918301612450565b600082601f83011261247857600080fd5b813560206124886123c683612382565b82815260059290921b840181019181810190868411156124a757600080fd5b8286015b84811015611bb25780356001600160401b038111156124ca5760008081fd5b6124d88986838b01016121cf565b8452509183019183016124ab565b600080600080608085870312156124fc57600080fd5b84356001600160401b038082111561251357600080fd5b61251f888389016123a5565b9550602087013591508082111561253557600080fd5b6125418883890161240c565b9450604087013591508082111561255757600080fd5b5061256487828801612467565b949793965093946060013593505050565b60006020828403121561258757600080fd5b5035919050565b6001600160401b0391909116815260200190565b600080600080600060a086880312156125ba57600080fd5b853594506125ca602087016120d4565b93506125d8604087016120d4565b94979396509394606081013594506080013592915050565b634e487b7160e01b600052602160045260246000fd5b602081016008831061262857634e487b7160e01b600052602160045260246000fd5b91905290565b6000806040838503121561264157600080fd5b8235915061265160208401612304565b90509250929050565b6000806040838503121561266d57600080fd5b82359150612651602084016120d4565b60008060008060006080868803121561269557600080fd5b853594506126a5602087016120d4565b935060408601356001600160401b03808211156126c157600080fd5b6126cd89838a016120ea565b909550935060608801359150808211156126e657600080fd5b506126f3888289016121cf565b9150509295509295909350565b6000806000806060858703121561271657600080fd5b84359350612726602086016120d4565b925060408501356001600160401b0381111561274157600080fd5b61274d878288016120ea565b95989497509550505050565b6000806000806080858703121561276f57600080fd5b84356001600160401b038082111561278657600080fd5b612792888389016123a5565b955060208701359150808211156127a857600080fd5b6127b48883890161240c565b945060408701359150808211156127ca57600080fd5b6127d688838901612467565b935060608701359150808211156127ec57600080fd5b508501601f810187136127fe57600080fd5b61237687823560208401612178565b60008060006060848603121561282257600080fd5b61282b84612304565b92506020840135915060408401356001600160401b0381111561284d57600080fd5b612859868287016121cf565b9150509250925092565b600080600080600060a0868803121561287b57600080fd5b61288486612304565b945061289260208701612304565b935060408601356001600160401b03808211156128ae57600080fd5b6128ba89838a0161240c565b945060608801359150808211156128d057600080fd5b6128dc89838a0161240c565b935060808801359150808211156126e657600080fd5b6000806000806060858703121561290857600080fd5b61291185612304565b93506020850135925060408501356001600160401b0381111561274157600080fd5b60006020828403121561294557600080fd5b81356001600160401b0381168114610f7857600080fd5b6000806040838503121561296f57600080fd5b61297883612304565b946020939093013593505050565b600080600080600060a0868803121561299e57600080fd5b6129a786612304565b94506129b560208701612304565b9350604086013592506060860135915060808601356001600160401b038111156129de57600080fd5b6126f3888289016121cf565b8183823760009101908152919050565b600181811c90821680612a0e57607f821691505b602082108103612a2e57634e487b7160e01b600052602260045260246000fd5b50919050565b602080825260189082015277476f7665726e6f723a206f6e6c79476f7665726e616e636560401b604082015260600190565b634e487b7160e01b600052601160045260246000fd5b600082821015612a8e57612a8e612a66565b500390565b60208082526021908201527f476f7665726e6f723a20696e76616c69642070726f706f73616c206c656e67746040820152600d60fb1b606082015260800190565b60006001600160401b03828116848216808303821115612af657612af6612a66565b01949350505050565b600081518084526020808501945080840160005b83811015612b385781516001600160a01b031687529582019590820190600101612b13565b509495945050505050565b600081518084526020808501945080840160005b83811015612b3857815187529582019590820190600101612b57565b600081518084526020808501808196508360051b8101915082860160005b85811015612bbb578284038952612ba98483516122c5565b98850198935090840190600101612b91565b5091979650505050505050565b60006101208b8352602060018060a01b038c1681850152816040850152612bf18285018c612aff565b91508382036060850152612c05828b612b43565b915083820360808501528189518084528284019150828160051b850101838c0160005b83811015612c5657601f19878403018552612c448383516122c5565b94860194925090850190600101612c28565b505086810360a0880152612c6a818c612b73565b945050505050612c8560c08401876001600160401b03169052565b6001600160401b03851660e0840152828103610100840152612ca781856122c5565b9c9b505050505050505050505050565b608081526000612cca6080830187612aff565b8281036020840152612cdc8187612b43565b90508281036040840152612cf08186612b73565b91505082606083015295945050505050565b634e487b7160e01b600052603260045260246000fd5b600060018201612d2a57612d2a612a66565b5060010190565b60008251612d43818460208701612295565b9190910192915050565b60008219821115612d6057612d60612a66565b500190565b600060208284031215612d7757600080fd5b5051919050565b84815260ff84166020820152826040820152608060608201526000610cbf60808301846122c5565b85815260ff8516602082015283604082015260a060608201526000612dce60a08301856122c5565b8281036080840152612de081856122c5565b9897505050505050505056fe150214d74d59b7d1e90c73fc22ef3d991dd0a76b046543d4d80ab92d2a50328fb3b3f3b703cd84ce352197dcff232b1b5d3cfb2025ce47cf04742d0651f1af88476f7665726e6f723a2063616c6c20726576657274656420776974686f7574206d657373616765416464726573733a206c6f772d6c6576656c2063616c6c20776974682076616c7565206661696c6564a26469706673582212204aa0498d2af05bbc9ca6afaf2b3423208567148ba356df86b987ffbdce8060e964736f6c634300080e0033",
  "immutableReferences": {
    "7117": [
      {
        "length": 32,
        "start": 1732
      },
      {
        "length": 32,
        "start": 5379
      }
    ],
    "33049": [
      {
        "length": 32,
        "start": 6014
      }
    ],
    "33051": [
      {
        "length": 32,
        "start": 5972
      }
    ],
    "33053": [
      {
        "length": 32,
        "start": 5930
      }
    ],
    "33055": [
      {
        "length": 32,
        "start": 6097
      }
    ],
    "33057": [
      {
        "length": 32,
        "start": 6134
      }
    ],
    "33059": [
      {
        "length": 32,
        "start": 6055
      }
    ]
  },
  "source": "// SPDX-License-Identifier: MIT\r\n\r\npragma solidity ^0.8.0;\r\n\r\nimport \"../governance/extensions/GovernorPreventLateQuorum.sol\";\r\nimport \"../governance/extensions/GovernorSettings.sol\";\r\nimport \"../governance/extensions/GovernorCountingSimple.sol\";\r\nimport \"../governance/extensions/GovernorVotes.sol\";\r\n\r\ncontract GovernorPreventLateQuorumMock is\r\n    GovernorSettings,\r\n    GovernorVotes,\r\n    GovernorCountingSimple,\r\n    GovernorPreventLateQuorum\r\n{\r\n    uint256 private _quorum;\r\n\r\n    constructor(\r\n        string memory name_,\r\n        IVotes token_,\r\n        uint256 votingDelay_,\r\n        uint256 votingPeriod_,\r\n        uint256 quorum_,\r\n        uint64 voteExtension_\r\n    )\r\n        Governor(name_)\r\n        GovernorSettings(votingDelay_, votingPeriod_, 0)\r\n        GovernorVotes(token_)\r\n        GovernorPreventLateQuorum(voteExtension_)\r\n    {\r\n        _quorum = quorum_;\r\n    }\r\n\r\n    function quorum(uint256) public view virtual override returns (uint256) {\r\n        return _quorum;\r\n    }\r\n\r\n    function proposalDeadline(uint256 proposalId)\r\n        public\r\n        view\r\n        virtual\r\n        override(Governor, GovernorPreventLateQuorum)\r\n        returns (uint256)\r\n    {\r\n        return super.proposalDeadline(proposalId);\r\n    }\r\n\r\n    function proposalThreshold() public view virtual override(Governor, GovernorSettings) returns (uint256) {\r\n        return super.proposalThreshold();\r\n    }\r\n\r\n    function _castVote(\r\n        uint256 proposalId,\r\n        address account,\r\n        uint8 support,\r\n        string memory reason,\r\n        bytes memory params\r\n    ) internal virtual override(Governor, GovernorPreventLateQuorum) returns (uint256) {\r\n        return super._castVote(proposalId, account, support, reason, params);\r\n    }\r\n}\r\n",
  "sourcePath": "D:\\work\\www\\yopu_dapp_nft\\contracts\\lib\\openzeppelin\\contracts\\mocks\\GovernorPreventLateQuorumMock.sol",
  "compiler": {
    "name": "solc",
    "version": "0.8.14+commit.80d49f37.Emscripten.clang"
  },
  "schemaVersion": "3.4.7",
  "updatedAt": "2022-06-28T15:05:47.863Z",
  "devdoc": {
    "errors": {
      "Empty()": [
        {
          "details": "An operation (e.g. {front}) couldn't be completed due to the queue being empty."
        }
      ]
    },
    "kind": "dev",
    "methods": {
      "COUNTING_MODE()": {
        "details": "See {IGovernor-COUNTING_MODE}."
      },
      "castVote(uint256,uint8)": {
        "details": "See {IGovernor-castVote}."
      },
      "castVoteBySig(uint256,uint8,uint8,bytes32,bytes32)": {
        "details": "See {IGovernor-castVoteBySig}."
      },
      "castVoteWithReason(uint256,uint8,string)": {
        "details": "See {IGovernor-castVoteWithReason}."
      },
      "castVoteWithReasonAndParams(uint256,uint8,string,bytes)": {
        "details": "See {IGovernor-castVoteWithReasonAndParams}."
      },
      "castVoteWithReasonAndParamsBySig(uint256,uint8,string,bytes,uint8,bytes32,bytes32)": {
        "details": "See {IGovernor-castVoteWithReasonAndParamsBySig}."
      },
      "execute(address[],uint256[],bytes[],bytes32)": {
        "details": "See {IGovernor-execute}."
      },
      "getVotes(address,uint256)": {
        "details": "See {IGovernor-getVotes}."
      },
      "getVotesWithParams(address,uint256,bytes)": {
        "details": "See {IGovernor-getVotesWithParams}."
      },
      "hasVoted(uint256,address)": {
        "details": "See {IGovernor-hasVoted}."
      },
      "hashProposal(address[],uint256[],bytes[],bytes32)": {
        "details": "See {IGovernor-hashProposal}. The proposal id is produced by hashing the RLC encoded `targets` array, the `values` array, the `calldatas` array and the descriptionHash (bytes32 which itself is the keccak256 hash of the description string). This proposal id can be produced from the proposal data which is part of the {ProposalCreated} event. It can even be computed in advance, before the proposal is submitted. Note that the chainId and the governor address are not part of the proposal id computation. Consequently, the same proposal (with same operation and same description) will have the same id if submitted on multiple governors across multiple networks. This also means that in order to execute the same operation twice (on the same governor) the proposer will have to change the description in order to avoid proposal id conflicts."
      },
      "lateQuorumVoteExtension()": {
        "details": "Returns the current value of the vote extension parameter: the number of blocks that are required to pass from the time a proposal reaches quorum until its voting period ends."
      },
      "name()": {
        "details": "See {IGovernor-name}."
      },
      "onERC1155BatchReceived(address,address,uint256[],uint256[],bytes)": {
        "details": "See {IERC1155Receiver-onERC1155BatchReceived}."
      },
      "onERC1155Received(address,address,uint256,uint256,bytes)": {
        "details": "See {IERC1155Receiver-onERC1155Received}."
      },
      "onERC721Received(address,address,uint256,bytes)": {
        "details": "See {IERC721Receiver-onERC721Received}."
      },
      "proposalSnapshot(uint256)": {
        "details": "See {IGovernor-proposalSnapshot}."
      },
      "proposalVotes(uint256)": {
        "details": "Accessor to the internal vote counts."
      },
      "propose(address[],uint256[],bytes[],string)": {
        "details": "See {IGovernor-propose}."
      },
      "relay(address,uint256,bytes)": {
        "details": "Relays a transaction or function call to an arbitrary target. In cases where the governance executor is some contract other than the governor itself, like when using a timelock, this function can be invoked in a governance proposal to recover tokens or Ether that was sent to the governor contract by mistake. Note that if the executor is simply the governor itself, use of `relay` is redundant."
      },
      "setLateQuorumVoteExtension(uint64)": {
        "details": "Changes the {lateQuorumVoteExtension}. This operation can only be performed by the governance executor, generally through a governance proposal. Emits a {LateQuorumVoteExtensionSet} event."
      },
      "setProposalThreshold(uint256)": {
        "details": "Update the proposal threshold. This operation can only be performed through a governance proposal. Emits a {ProposalThresholdSet} event."
      },
      "setVotingDelay(uint256)": {
        "details": "Update the voting delay. This operation can only be performed through a governance proposal. Emits a {VotingDelaySet} event."
      },
      "setVotingPeriod(uint256)": {
        "details": "Update the voting period. This operation can only be performed through a governance proposal. Emits a {VotingPeriodSet} event."
      },
      "state(uint256)": {
        "details": "See {IGovernor-state}."
      },
      "supportsInterface(bytes4)": {
        "details": "See {IERC165-supportsInterface}."
      },
      "version()": {
        "details": "See {IGovernor-version}."
      },
      "votingDelay()": {
        "details": "See {IGovernor-votingDelay}."
      },
      "votingPeriod()": {
        "details": "See {IGovernor-votingPeriod}."
      }
    },
    "version": 1
  },
  "userdoc": {
    "kind": "user",
    "methods": {},
    "version": 1
  }
}