{
  "contractName": "GovernorTimelockCompoundMock",
  "abi": [
    {
      "inputs": [
        {
          "internalType": "string",
          "name": "name_",
          "type": "string"
        },
        {
          "internalType": "contract IVotes",
          "name": "token_",
          "type": "address"
        },
        {
          "internalType": "uint256",
          "name": "votingDelay_",
          "type": "uint256"
        },
        {
          "internalType": "uint256",
          "name": "votingPeriod_",
          "type": "uint256"
        },
        {
          "internalType": "contract ICompoundTimelock",
          "name": "timelock_",
          "type": "address"
        },
        {
          "internalType": "uint256",
          "name": "quorumNumerator_",
          "type": "uint256"
        }
      ],
      "stateMutability": "nonpayable",
      "type": "constructor"
    },
    {
      "inputs": [],
      "name": "Empty",
      "type": "error"
    },
    {
      "anonymous": false,
      "inputs": [
        {
          "indexed": false,
          "internalType": "uint256",
          "name": "proposalId",
          "type": "uint256"
        }
      ],
      "name": "ProposalCanceled",
      "type": "event"
    },
    {
      "anonymous": false,
      "inputs": [
        {
          "indexed": false,
          "internalType": "uint256",
          "name": "proposalId",
          "type": "uint256"
        },
        {
          "indexed": false,
          "internalType": "address",
          "name": "proposer",
          "type": "address"
        },
        {
          "indexed": false,
          "internalType": "address[]",
          "name": "targets",
          "type": "address[]"
        },
        {
          "indexed": false,
          "internalType": "uint256[]",
          "name": "values",
          "type": "uint256[]"
        },
        {
          "indexed": false,
          "internalType": "string[]",
          "name": "signatures",
          "type": "string[]"
        },
        {
          "indexed": false,
          "internalType": "bytes[]",
          "name": "calldatas",
          "type": "bytes[]"
        },
        {
          "indexed": false,
          "internalType": "uint256",
          "name": "startBlock",
          "type": "uint256"
        },
        {
          "indexed": false,
          "internalType": "uint256",
          "name": "endBlock",
          "type": "uint256"
        },
        {
          "indexed": false,
          "internalType": "string",
          "name": "description",
          "type": "string"
        }
      ],
      "name": "ProposalCreated",
      "type": "event"
    },
    {
      "anonymous": false,
      "inputs": [
        {
          "indexed": false,
          "internalType": "uint256",
          "name": "proposalId",
          "type": "uint256"
        }
      ],
      "name": "ProposalExecuted",
      "type": "event"
    },
    {
      "anonymous": false,
      "inputs": [
        {
          "indexed": false,
          "internalType": "uint256",
          "name": "proposalId",
          "type": "uint256"
        },
        {
          "indexed": false,
          "internalType": "uint256",
          "name": "eta",
          "type": "uint256"
        }
      ],
      "name": "ProposalQueued",
      "type": "event"
    },
    {
      "anonymous": false,
      "inputs": [
        {
          "indexed": false,
          "internalType": "uint256",
          "name": "oldProposalThreshold",
          "type": "uint256"
        },
        {
          "indexed": false,
          "internalType": "uint256",
          "name": "newProposalThreshold",
          "type": "uint256"
        }
      ],
      "name": "ProposalThresholdSet",
      "type": "event"
    },
    {
      "anonymous": false,
      "inputs": [
        {
          "indexed": false,
          "internalType": "uint256",
          "name": "oldQuorumNumerator",
          "type": "uint256"
        },
        {
          "indexed": false,
          "internalType": "uint256",
          "name": "newQuorumNumerator",
          "type": "uint256"
        }
      ],
      "name": "QuorumNumeratorUpdated",
      "type": "event"
    },
    {
      "anonymous": false,
      "inputs": [
        {
          "indexed": false,
          "internalType": "address",
          "name": "oldTimelock",
          "type": "address"
        },
        {
          "indexed": false,
          "internalType": "address",
          "name": "newTimelock",
          "type": "address"
        }
      ],
      "name": "TimelockChange",
      "type": "event"
    },
    {
      "anonymous": false,
      "inputs": [
        {
          "indexed": true,
          "internalType": "address",
          "name": "voter",
          "type": "address"
        },
        {
          "indexed": false,
          "internalType": "uint256",
          "name": "proposalId",
          "type": "uint256"
        },
        {
          "indexed": false,
          "internalType": "uint8",
          "name": "support",
          "type": "uint8"
        },
        {
          "indexed": false,
          "internalType": "uint256",
          "name": "weight",
          "type": "uint256"
        },
        {
          "indexed": false,
          "internalType": "string",
          "name": "reason",
          "type": "string"
        }
      ],
      "name": "VoteCast",
      "type": "event"
    },
    {
      "anonymous": false,
      "inputs": [
        {
          "indexed": true,
          "internalType": "address",
          "name": "voter",
          "type": "address"
        },
        {
          "indexed": false,
          "internalType": "uint256",
          "name": "proposalId",
          "type": "uint256"
        },
        {
          "indexed": false,
          "internalType": "uint8",
          "name": "support",
          "type": "uint8"
        },
        {
          "indexed": false,
          "internalType": "uint256",
          "name": "weight",
          "type": "uint256"
        },
        {
          "indexed": false,
          "internalType": "string",
          "name": "reason",
          "type": "string"
        },
        {
          "indexed": false,
          "internalType": "bytes",
          "name": "params",
          "type": "bytes"
        }
      ],
      "name": "VoteCastWithParams",
      "type": "event"
    },
    {
      "anonymous": false,
      "inputs": [
        {
          "indexed": false,
          "internalType": "uint256",
          "name": "oldVotingDelay",
          "type": "uint256"
        },
        {
          "indexed": false,
          "internalType": "uint256",
          "name": "newVotingDelay",
          "type": "uint256"
        }
      ],
      "name": "VotingDelaySet",
      "type": "event"
    },
    {
      "anonymous": false,
      "inputs": [
        {
          "indexed": false,
          "internalType": "uint256",
          "name": "oldVotingPeriod",
          "type": "uint256"
        },
        {
          "indexed": false,
          "internalType": "uint256",
          "name": "newVotingPeriod",
          "type": "uint256"
        }
      ],
      "name": "VotingPeriodSet",
      "type": "event"
    },
    {
      "inputs": [],
      "name": "BALLOT_TYPEHASH",
      "outputs": [
        {
          "internalType": "bytes32",
          "name": "",
          "type": "bytes32"
        }
      ],
      "stateMutability": "view",
      "type": "function"
    },
    {
      "inputs": [],
      "name": "COUNTING_MODE",
      "outputs": [
        {
          "internalType": "string",
          "name": "",
          "type": "string"
        }
      ],
      "stateMutability": "pure",
      "type": "function"
    },
    {
      "inputs": [],
      "name": "EXTENDED_BALLOT_TYPEHASH",
      "outputs": [
        {
          "internalType": "bytes32",
          "name": "",
          "type": "bytes32"
        }
      ],
      "stateMutability": "view",
      "type": "function"
    },
    {
      "inputs": [],
      "name": "__acceptAdmin",
      "outputs": [],
      "stateMutability": "nonpayable",
      "type": "function"
    },
    {
      "inputs": [
        {
          "internalType": "uint256",
          "name": "proposalId",
          "type": "uint256"
        },
        {
          "internalType": "uint8",
          "name": "support",
          "type": "uint8"
        }
      ],
      "name": "castVote",
      "outputs": [
        {
          "internalType": "uint256",
          "name": "",
          "type": "uint256"
        }
      ],
      "stateMutability": "nonpayable",
      "type": "function"
    },
    {
      "inputs": [
        {
          "internalType": "uint256",
          "name": "proposalId",
          "type": "uint256"
        },
        {
          "internalType": "uint8",
          "name": "support",
          "type": "uint8"
        },
        {
          "internalType": "uint8",
          "name": "v",
          "type": "uint8"
        },
        {
          "internalType": "bytes32",
          "name": "r",
          "type": "bytes32"
        },
        {
          "internalType": "bytes32",
          "name": "s",
          "type": "bytes32"
        }
      ],
      "name": "castVoteBySig",
      "outputs": [
        {
          "internalType": "uint256",
          "name": "",
          "type": "uint256"
        }
      ],
      "stateMutability": "nonpayable",
      "type": "function"
    },
    {
      "inputs": [
        {
          "internalType": "uint256",
          "name": "proposalId",
          "type": "uint256"
        },
        {
          "internalType": "uint8",
          "name": "support",
          "type": "uint8"
        },
        {
          "internalType": "string",
          "name": "reason",
          "type": "string"
        }
      ],
      "name": "castVoteWithReason",
      "outputs": [
        {
          "internalType": "uint256",
          "name": "",
          "type": "uint256"
        }
      ],
      "stateMutability": "nonpayable",
      "type": "function"
    },
    {
      "inputs": [
        {
          "internalType": "uint256",
          "name": "proposalId",
          "type": "uint256"
        },
        {
          "internalType": "uint8",
          "name": "support",
          "type": "uint8"
        },
        {
          "internalType": "string",
          "name": "reason",
          "type": "string"
        },
        {
          "internalType": "bytes",
          "name": "params",
          "type": "bytes"
        }
      ],
      "name": "castVoteWithReasonAndParams",
      "outputs": [
        {
          "internalType": "uint256",
          "name": "",
          "type": "uint256"
        }
      ],
      "stateMutability": "nonpayable",
      "type": "function"
    },
    {
      "inputs": [
        {
          "internalType": "uint256",
          "name": "proposalId",
          "type": "uint256"
        },
        {
          "internalType": "uint8",
          "name": "support",
          "type": "uint8"
        },
        {
          "internalType": "string",
          "name": "reason",
          "type": "string"
        },
        {
          "internalType": "bytes",
          "name": "params",
          "type": "bytes"
        },
        {
          "internalType": "uint8",
          "name": "v",
          "type": "uint8"
        },
        {
          "internalType": "bytes32",
          "name": "r",
          "type": "bytes32"
        },
        {
          "internalType": "bytes32",
          "name": "s",
          "type": "bytes32"
        }
      ],
      "name": "castVoteWithReasonAndParamsBySig",
      "outputs": [
        {
          "internalType": "uint256",
          "name": "",
          "type": "uint256"
        }
      ],
      "stateMutability": "nonpayable",
      "type": "function"
    },
    {
      "inputs": [
        {
          "internalType": "address[]",
          "name": "targets",
          "type": "address[]"
        },
        {
          "internalType": "uint256[]",
          "name": "values",
          "type": "uint256[]"
        },
        {
          "internalType": "bytes[]",
          "name": "calldatas",
          "type": "bytes[]"
        },
        {
          "internalType": "bytes32",
          "name": "descriptionHash",
          "type": "bytes32"
        }
      ],
      "name": "execute",
      "outputs": [
        {
          "internalType": "uint256",
          "name": "",
          "type": "uint256"
        }
      ],
      "stateMutability": "payable",
      "type": "function"
    },
    {
      "inputs": [
        {
          "internalType": "address",
          "name": "account",
          "type": "address"
        },
        {
          "internalType": "uint256",
          "name": "blockNumber",
          "type": "uint256"
        }
      ],
      "name": "getVotes",
      "outputs": [
        {
          "internalType": "uint256",
          "name": "",
          "type": "uint256"
        }
      ],
      "stateMutability": "view",
      "type": "function"
    },
    {
      "inputs": [
        {
          "internalType": "address",
          "name": "account",
          "type": "address"
        },
        {
          "internalType": "uint256",
          "name": "blockNumber",
          "type": "uint256"
        },
        {
          "internalType": "bytes",
          "name": "params",
          "type": "bytes"
        }
      ],
      "name": "getVotesWithParams",
      "outputs": [
        {
          "internalType": "uint256",
          "name": "",
          "type": "uint256"
        }
      ],
      "stateMutability": "view",
      "type": "function"
    },
    {
      "inputs": [
        {
          "internalType": "uint256",
          "name": "proposalId",
          "type": "uint256"
        },
        {
          "internalType": "address",
          "name": "account",
          "type": "address"
        }
      ],
      "name": "hasVoted",
      "outputs": [
        {
          "internalType": "bool",
          "name": "",
          "type": "bool"
        }
      ],
      "stateMutability": "view",
      "type": "function"
    },
    {
      "inputs": [
        {
          "internalType": "address[]",
          "name": "targets",
          "type": "address[]"
        },
        {
          "internalType": "uint256[]",
          "name": "values",
          "type": "uint256[]"
        },
        {
          "internalType": "bytes[]",
          "name": "calldatas",
          "type": "bytes[]"
        },
        {
          "internalType": "bytes32",
          "name": "descriptionHash",
          "type": "bytes32"
        }
      ],
      "name": "hashProposal",
      "outputs": [
        {
          "internalType": "uint256",
          "name": "",
          "type": "uint256"
        }
      ],
      "stateMutability": "pure",
      "type": "function"
    },
    {
      "inputs": [],
      "name": "name",
      "outputs": [
        {
          "internalType": "string",
          "name": "",
          "type": "string"
        }
      ],
      "stateMutability": "view",
      "type": "function"
    },
    {
      "inputs": [
        {
          "internalType": "address",
          "name": "",
          "type": "address"
        },
        {
          "internalType": "address",
          "name": "",
          "type": "address"
        },
        {
          "internalType": "uint256[]",
          "name": "",
          "type": "uint256[]"
        },
        {
          "internalType": "uint256[]",
          "name": "",
          "type": "uint256[]"
        },
        {
          "internalType": "bytes",
          "name": "",
          "type": "bytes"
        }
      ],
      "name": "onERC1155BatchReceived",
      "outputs": [
        {
          "internalType": "bytes4",
          "name": "",
          "type": "bytes4"
        }
      ],
      "stateMutability": "nonpayable",
      "type": "function"
    },
    {
      "inputs": [
        {
          "internalType": "address",
          "name": "",
          "type": "address"
        },
        {
          "internalType": "address",
          "name": "",
          "type": "address"
        },
        {
          "internalType": "uint256",
          "name": "",
          "type": "uint256"
        },
        {
          "internalType": "uint256",
          "name": "",
          "type": "uint256"
        },
        {
          "internalType": "bytes",
          "name": "",
          "type": "bytes"
        }
      ],
      "name": "onERC1155Received",
      "outputs": [
        {
          "internalType": "bytes4",
          "name": "",
          "type": "bytes4"
        }
      ],
      "stateMutability": "nonpayable",
      "type": "function"
    },
    {
      "inputs": [
        {
          "internalType": "address",
          "name": "",
          "type": "address"
        },
        {
          "internalType": "address",
          "name": "",
          "type": "address"
        },
        {
          "internalType": "uint256",
          "name": "",
          "type": "uint256"
        },
        {
          "internalType": "bytes",
          "name": "",
          "type": "bytes"
        }
      ],
      "name": "onERC721Received",
      "outputs": [
        {
          "internalType": "bytes4",
          "name": "",
          "type": "bytes4"
        }
      ],
      "stateMutability": "nonpayable",
      "type": "function"
    },
    {
      "inputs": [
        {
          "internalType": "uint256",
          "name": "proposalId",
          "type": "uint256"
        }
      ],
      "name": "proposalDeadline",
      "outputs": [
        {
          "internalType": "uint256",
          "name": "",
          "type": "uint256"
        }
      ],
      "stateMutability": "view",
      "type": "function"
    },
    {
      "inputs": [
        {
          "internalType": "uint256",
          "name": "proposalId",
          "type": "uint256"
        }
      ],
      "name": "proposalEta",
      "outputs": [
        {
          "internalType": "uint256",
          "name": "",
          "type": "uint256"
        }
      ],
      "stateMutability": "view",
      "type": "function"
    },
    {
      "inputs": [
        {
          "internalType": "uint256",
          "name": "proposalId",
          "type": "uint256"
        }
      ],
      "name": "proposalSnapshot",
      "outputs": [
        {
          "internalType": "uint256",
          "name": "",
          "type": "uint256"
        }
      ],
      "stateMutability": "view",
      "type": "function"
    },
    {
      "inputs": [
        {
          "internalType": "uint256",
          "name": "proposalId",
          "type": "uint256"
        }
      ],
      "name": "proposalVotes",
      "outputs": [
        {
          "internalType": "uint256",
          "name": "againstVotes",
          "type": "uint256"
        },
        {
          "internalType": "uint256",
          "name": "forVotes",
          "type": "uint256"
        },
        {
          "internalType": "uint256",
          "name": "abstainVotes",
          "type": "uint256"
        }
      ],
      "stateMutability": "view",
      "type": "function"
    },
    {
      "inputs": [
        {
          "internalType": "address[]",
          "name": "targets",
          "type": "address[]"
        },
        {
          "internalType": "uint256[]",
          "name": "values",
          "type": "uint256[]"
        },
        {
          "internalType": "bytes[]",
          "name": "calldatas",
          "type": "bytes[]"
        },
        {
          "internalType": "string",
          "name": "description",
          "type": "string"
        }
      ],
      "name": "propose",
      "outputs": [
        {
          "internalType": "uint256",
          "name": "",
          "type": "uint256"
        }
      ],
      "stateMutability": "nonpayable",
      "type": "function"
    },
    {
      "inputs": [
        {
          "internalType": "address[]",
          "name": "targets",
          "type": "address[]"
        },
        {
          "internalType": "uint256[]",
          "name": "values",
          "type": "uint256[]"
        },
        {
          "internalType": "bytes[]",
          "name": "calldatas",
          "type": "bytes[]"
        },
        {
          "internalType": "bytes32",
          "name": "descriptionHash",
          "type": "bytes32"
        }
      ],
      "name": "queue",
      "outputs": [
        {
          "internalType": "uint256",
          "name": "",
          "type": "uint256"
        }
      ],
      "stateMutability": "nonpayable",
      "type": "function"
    },
    {
      "inputs": [],
      "name": "quorumDenominator",
      "outputs": [
        {
          "internalType": "uint256",
          "name": "",
          "type": "uint256"
        }
      ],
      "stateMutability": "view",
      "type": "function"
    },
    {
      "inputs": [],
      "name": "quorumNumerator",
      "outputs": [
        {
          "internalType": "uint256",
          "name": "",
          "type": "uint256"
        }
      ],
      "stateMutability": "view",
      "type": "function"
    },
    {
      "inputs": [
        {
          "internalType": "address",
          "name": "target",
          "type": "address"
        },
        {
          "internalType": "uint256",
          "name": "value",
          "type": "uint256"
        },
        {
          "internalType": "bytes",
          "name": "data",
          "type": "bytes"
        }
      ],
      "name": "relay",
      "outputs": [],
      "stateMutability": "nonpayable",
      "type": "function"
    },
    {
      "inputs": [
        {
          "internalType": "uint256",
          "name": "newProposalThreshold",
          "type": "uint256"
        }
      ],
      "name": "setProposalThreshold",
      "outputs": [],
      "stateMutability": "nonpayable",
      "type": "function"
    },
    {
      "inputs": [
        {
          "internalType": "uint256",
          "name": "newVotingDelay",
          "type": "uint256"
        }
      ],
      "name": "setVotingDelay",
      "outputs": [],
      "stateMutability": "nonpayable",
      "type": "function"
    },
    {
      "inputs": [
        {
          "internalType": "uint256",
          "name": "newVotingPeriod",
          "type": "uint256"
        }
      ],
      "name": "setVotingPeriod",
      "outputs": [],
      "stateMutability": "nonpayable",
      "type": "function"
    },
    {
      "inputs": [],
      "name": "timelock",
      "outputs": [
        {
          "internalType": "address",
          "name": "",
          "type": "address"
        }
      ],
      "stateMutability": "view",
      "type": "function"
    },
    {
      "inputs": [],
      "name": "token",
      "outputs": [
        {
          "internalType": "contract IVotes",
          "name": "",
          "type": "address"
        }
      ],
      "stateMutability": "view",
      "type": "function"
    },
    {
      "inputs": [
        {
          "internalType": "uint256",
          "name": "newQuorumNumerator",
          "type": "uint256"
        }
      ],
      "name": "updateQuorumNumerator",
      "outputs": [],
      "stateMutability": "nonpayable",
      "type": "function"
    },
    {
      "inputs": [
        {
          "internalType": "contract ICompoundTimelock",
          "name": "newTimelock",
          "type": "address"
        }
      ],
      "name": "updateTimelock",
      "outputs": [],
      "stateMutability": "nonpayable",
      "type": "function"
    },
    {
      "inputs": [],
      "name": "version",
      "outputs": [
        {
          "internalType": "string",
          "name": "",
          "type": "string"
        }
      ],
      "stateMutability": "view",
      "type": "function"
    },
    {
      "inputs": [],
      "name": "votingDelay",
      "outputs": [
        {
          "internalType": "uint256",
          "name": "",
          "type": "uint256"
        }
      ],
      "stateMutability": "view",
      "type": "function"
    },
    {
      "inputs": [],
      "name": "votingPeriod",
      "outputs": [
        {
          "internalType": "uint256",
          "name": "",
          "type": "uint256"
        }
      ],
      "stateMutability": "view",
      "type": "function"
    },
    {
      "stateMutability": "payable",
      "type": "receive"
    },
    {
      "inputs": [
        {
          "internalType": "bytes4",
          "name": "interfaceId",
          "type": "bytes4"
        }
      ],
      "name": "supportsInterface",
      "outputs": [
        {
          "internalType": "bool",
          "name": "",
          "type": "bool"
        }
      ],
      "stateMutability": "view",
      "type": "function"
    },
    {
      "inputs": [
        {
          "internalType": "uint256",
          "name": "blockNumber",
          "type": "uint256"
        }
      ],
      "name": "quorum",
      "outputs": [
        {
          "internalType": "uint256",
          "name": "",
          "type": "uint256"
        }
      ],
      "stateMutability": "view",
      "type": "function"
    },
    {
      "inputs": [
        {
          "internalType": "address[]",
          "name": "targets",
          "type": "address[]"
        },
        {
          "internalType": "uint256[]",
          "name": "values",
          "type": "uint256[]"
        },
        {
          "internalType": "bytes[]",
          "name": "calldatas",
          "type": "bytes[]"
        },
        {
          "internalType": "bytes32",
          "name": "salt",
          "type": "bytes32"
        }
      ],
      "name": "cancel",
      "outputs": [
        {
          "internalType": "uint256",
          "name": "proposalId",
          "type": "uint256"
        }
      ],
      "stateMutability": "nonpayable",
      "type": "function"
    },
    {
      "inputs": [
        {
          "internalType": "uint256",
          "name": "proposalId",
          "type": "uint256"
        }
      ],
      "name": "state",
      "outputs": [
        {
          "internalType": "enum IGovernor.ProposalState",
          "name": "",
          "type": "uint8"
        }
      ],
      "stateMutability": "view",
      "type": "function"
    },
    {
      "inputs": [],
      "name": "proposalThreshold",
      "outputs": [
        {
          "internalType": "uint256",
          "name": "",
          "type": "uint256"
        }
      ],
      "stateMutability": "view",
      "type": "function"
    }
  ],
  "bytecode": "0x6101606040523480156200001257600080fd5b50604051620042a4380380620042a4833981016040819052620000359162000496565b808583868660008b806200005d6040805180820190915260018152603160f81b602082015290565b815160208084019190912082518383012060e08290526101008190524660a0818152604080517f8b73c3c69bb8fe3d512ecc4cf759cc79239f7b179b0ffacaa9a75d522b39400f81880181905281830187905260608201869052608082019490945230818401528151808203909301835260c00190528051940193909320919290916080523060c0526101205250508251620001039250600091506020840190620003bd565b506200011190508362000161565b6200011c82620001a2565b620001278162000249565b5050506200013b816200028a60201b60201c565b506001600160a01b0316610140526200015481620002f3565b50505050505050620005f1565b60045460408051918252602082018390527fc565b045403dc03c2eea82b81a0465edad9e2e7fc4d97e11421c209da93d7a93910160405180910390a1600455565b60008111620002085760405162461bcd60e51b815260206004820152602760248201527f476f7665726e6f7253657474696e67733a20766f74696e6720706572696f6420604482015266746f6f206c6f7760c81b60648201526084015b60405180910390fd5b60055460408051918252602082018390527f7e3f7f0708a84de9203036abaa450dccc85ad5ff52f78c170f3edb55cf5e8828910160405180910390a1600555565b60065460408051918252602082018390527fccb45da8d5717e6c4544694297c4ba5cf151d455c9bb0ed4fc7a38411bc05461910160405180910390a1600655565b600754604080516001600160a01b03928316815291831660208301527f08f74ea46ef7894f65eabfb5e6e695de773a000b47c529ab559178069b226401910160405180910390a1600780546001600160a01b0319166001600160a01b0392909216919091179055565b6064811115620003785760405162461bcd60e51b815260206004820152604360248201527f476f7665726e6f72566f74657351756f72756d4672616374696f6e3a2071756f60448201527f72756d4e756d657261746f72206f7665722071756f72756d44656e6f6d696e616064820152623a37b960e91b608482015260a401620001ff565b600980549082905560408051828152602081018490527f0553476bf02ef2726e8ce5ced78d63e26e602e4a2257b1f559418e24b4633997910160405180910390a15050565b828054620003cb90620005b5565b90600052602060002090601f016020900481019282620003ef57600085556200043a565b82601f106200040a57805160ff19168380011785556200043a565b828001600101855582156200043a579182015b828111156200043a5782518255916020019190600101906200041d565b50620004489291506200044c565b5090565b5b808211156200044857600081556001016200044d565b634e487b7160e01b600052604160045260246000fd5b80516001600160a01b03811681146200049157600080fd5b919050565b60008060008060008060c08789031215620004b057600080fd5b86516001600160401b0380821115620004c857600080fd5b818901915089601f830112620004dd57600080fd5b815181811115620004f257620004f262000463565b604051601f8201601f19908116603f011681019083821181831017156200051d576200051d62000463565b81604052828152602093508c848487010111156200053a57600080fd5b600091505b828210156200055e57848201840151818301850152908301906200053f565b82821115620005705760008484830101525b99506200058291505089820162000479565b965050506040870151935060608701519250620005a26080880162000479565b915060a087015190509295509295509295565b600181811c90821680620005ca57607f821691505b602082108103620005eb57634e487b7160e01b600052602260045260246000fd5b50919050565b60805160a05160c05160e051610100516101205161014051613c4a6200065a600039600081816107ee01528181611d100152611f0901526000612085015260006120d4015260006120af01526000612008015260006120320152600061205c0152613c4a6000f3fe6080604052600436106101e55760003560e01c806301ffc9a71461020d57806302a251a314610242578063034201811461026157806306f3f9e61461028157806306fdde03146102a1578063150b7a02146102c3578063160cbed7146102fc5780632656227d1461031c5780632d63f6931461032f5780632fe3e2611461034f5780633932abb1146103715780633bccf4fd146103865780633e4f49e6146103a657806343859632146103d3578063452115d61461041d578063544ffc9c1461043d57806354fd4d501461049257806356781388146104bc5780635f398a14146104dc57806370b0f660146104fc5780637b3c71d31461051c5780637d5e81e21461053c57806397c3d3341461055c5780639a802a6d14610570578063a7713a7014610590578063a890c910146105a5578063ab58fb8e146105c5578063b58131b0146105e5578063b9a61961146105fa578063bc197c811461060f578063c01f9e371461063b578063c28bc2fa1461065b578063c59057e41461067b578063d33219b41461069b578063dd4e2ba5146106c8578063deaaa7cc1461070e578063ea0217cf14610730578063eb9019d414610750578063ece40cc114610770578063f23a6e6114610790578063f8ce560a146107bc578063fc0c546a146107dc57600080fd5b3661020857306101f3610810565b6001600160a01b03161461020657600080fd5b005b600080fd5b34801561021957600080fd5b5061022d610228366004612cf5565b61081f565b60405190151581526020015b60405180910390f35b34801561024e57600080fd5b506005545b604051908152602001610239565b34801561026d57600080fd5b5061025361027c366004612e48565b610830565b34801561028d57600080fd5b5061020661029c366004612eee565b610916565b3480156102ad57600080fd5b506102b66109a9565b6040516102399190612f5f565b3480156102cf57600080fd5b506102e36102de366004612f87565b610a3b565b6040516001600160e01b03199091168152602001610239565b34801561030857600080fd5b5061025361031736600461315e565b610a4c565b61025361032a36600461315e565b610dc5565b34801561033b57600080fd5b5061025361034a366004612eee565b610eb2565b34801561035b57600080fd5b50610253600080516020613bcc83398151915281565b34801561037d57600080fd5b50600454610253565b34801561039257600080fd5b506102536103a13660046131ed565b610ee9565b3480156103b257600080fd5b506103c66103c1366004612eee565b610f4d565b6040516102399190613251565b3480156103df57600080fd5b5061022d6103ee366004613279565b6000828152600a602090815260408083206001600160a01b038516845260030190915290205460ff1692915050565b34801561042957600080fd5b5061025361043836600461315e565b610f58565b34801561044957600080fd5b50610477610458366004612eee565b6000908152600a60205260409020805460018201546002909201549092565b60408051938452602084019290925290820152606001610239565b34801561049e57600080fd5b506040805180820190915260018152603160f81b60208201526102b6565b3480156104c857600080fd5b506102536104d73660046132a9565b610f6f565b3480156104e857600080fd5b506102536104f73660046132d5565b610f90565b34801561050857600080fd5b50610206610517366004612eee565b610fda565b34801561052857600080fd5b50610253610537366004613358565b611061565b34801561054857600080fd5b506102536105573660046133b1565b6110b3565b34801561056857600080fd5b506064610253565b34801561057c57600080fd5b5061025361058b366004613465565b611352565b34801561059c57600080fd5b50600954610253565b3480156105b157600080fd5b506102066105c03660046134bd565b61135f565b3480156105d157600080fd5b506102536105e0366004612eee565b6113e6565b3480156105f157600080fd5b50610253611412565b34801561060657600080fd5b5061020661141d565b34801561061b57600080fd5b506102e361062a3660046134da565b63bc197c8160e01b95945050505050565b34801561064757600080fd5b50610253610656366004612eee565b611487565b34801561066757600080fd5b5061020661067636600461356d565b6114b6565b34801561068757600080fd5b5061025361069636600461315e565b61157d565b3480156106a757600080fd5b506106b06115b7565b6040516001600160a01b039091168152602001610239565b3480156106d457600080fd5b506040805180820190915260208082527f737570706f72743d627261766f2671756f72756d3d666f722c6162737461696e908201526102b6565b34801561071a57600080fd5b50610253600080516020613bac83398151915281565b34801561073c57600080fd5b5061020661074b366004612eee565b6115c6565b34801561075c57600080fd5b5061025361076b3660046135b0565b61164d565b34801561077c57600080fd5b5061020661078b366004612eee565b611675565b34801561079c57600080fd5b506102e36107ab3660046135dc565b63f23a6e6160e01b95945050505050565b3480156107c857600080fd5b506102536107d7366004612eee565b6116fc565b3480156107e857600080fd5b506106b07f000000000000000000000000000000000000000000000000000000000000000081565b600061081a6115b7565b905090565b600061082a82611707565b92915050565b6000806108c26108ba600080516020613bcc8339815191528c8c8c8c60405161085a929190613644565b60405180910390208b8051906020012060405160200161089f959493929190948552602085019390935260ff9190911660408401526060830152608082015260a00190565b6040516020818303038152906040528051906020012061172c565b86868661177a565b90506109088a828b8b8b8080601f0160208091040260200160405190810160405280939291908181526020018383808284376000920191909152508d9250611798915050565b9a9950505050505050505050565b61091e610810565b6001600160a01b0316336001600160a01b0316146109575760405162461bcd60e51b815260040161094e90613654565b60405180910390fd5b30610960610810565b6001600160a01b03161461099d5760008036604051610980929190613644565b604051809103902090505b8061099660026118fd565b0361098b57505b6109a681611963565b50565b6060600080546109b890613686565b80601f01602080910402602001604051908101604052809291908181526020018280546109e490613686565b8015610a315780601f10610a0657610100808354040283529160200191610a31565b820191906000526020600020905b815481529060010190602001808311610a1457829003601f168201915b5050505050905090565b630a85bd0160e11b5b949350505050565b600080610a5b8686868661157d565b90506004610a6882610f4d565b6007811115610a7957610a7961323b565b14610a965760405162461bcd60e51b815260040161094e906136c0565b60075460408051630d48571f60e31b815290516000926001600160a01b031691636a42b8f89160048083019260209291908290030181865afa158015610ae0573d6000803e3d6000fd5b505050506040513d601f19601f82011682018060405250810190610b049190613701565b610b0e9042613730565b9050610b30610b1c82611a2c565b600084815260086020526040902090611a98565b60005b8751811015610d815760075488516001600160a01b039091169063f2b06537908a9084908110610b6557610b65613748565b6020026020010151898481518110610b7f57610b7f613748565b6020026020010151898581518110610b9957610b99613748565b602002602001015186604051602001610bb5949392919061375e565b604051602081830303815290604052805190602001206040518263ffffffff1660e01b8152600401610be991815260200190565b602060405180830381865afa158015610c06573d6000803e3d6000fd5b505050506040513d601f19601f82011682018060405250810190610c2a91906137a4565b15610ca85760405162461bcd60e51b815260206004820152604260248201527f476f7665726e6f7254696d656c6f636b436f6d706f756e643a206964656e746960448201527f63616c2070726f706f73616c20616374696f6e20616c72656164792071756575606482015261195960f21b608482015260a40161094e565b60075488516001600160a01b0390911690633a66f901908a9084908110610cd157610cd1613748565b6020026020010151898481518110610ceb57610ceb613748565b6020026020010151898581518110610d0557610d05613748565b6020026020010151866040518563ffffffff1660e01b8152600401610d2d949392919061375e565b6020604051808303816000875af1158015610d4c573d6000803e3d6000fd5b505050506040513d601f19601f82011682018060405250810190610d709190613701565b50610d7a816137c6565b9050610b33565b507f9a2e42fd6722813d69113e7d0079d3d940171428df7373df9c7f7617cfda28928282604051610db39291906137df565b60405180910390a15095945050505050565b600080610dd48686868661157d565b90506000610de182610f4d565b90506004816007811115610df757610df761323b565b1480610e1457506005816007811115610e1257610e1261323b565b145b610e305760405162461bcd60e51b815260040161094e906136c0565b600082815260016020818152604092839020600201805460ff191690921790915590518381527f712ae1383f79ac853f8d882153778e0260ef8f03b504e2866e0593e04d2b291f910160405180910390a1610e8e8288888888611ab5565b610e9b8288888888611b56565b610ea88288888888611b63565b5095945050505050565b60008181526001602090815260408083208151928301909152546001600160401b0316908190525b6001600160401b031692915050565b60408051600080516020613bac833981519152602082015290810186905260ff851660608201526000908190610f25906108ba9060800161089f565b9050610f4287828860405180602001604052806000815250611b92565b979650505050505050565b600061082a82611bb5565b6000610f6685858585611c99565b95945050505050565b600080339050610a4484828560405180602001604052806000815250611b92565b600080339050610f4287828888888080601f0160208091040260200160405190810160405280939291908181526020018383808284376000920191909152508a9250611798915050565b610fe2610810565b6001600160a01b0316336001600160a01b0316146110125760405162461bcd60e51b815260040161094e90613654565b3061101b610810565b6001600160a01b031614611058576000803660405161103b929190613644565b604051809103902090505b8061105160026118fd565b0361104657505b6109a681611ca7565b6000803390506110a986828787878080601f016020809104026020016040519081016040528093929190818152602001838380828437600092019190915250611b9292505050565b9695505050505050565b60006110bd611412565b6110cc3361076b6001436137ed565b10156111345760405162461bcd60e51b815260206004820152603160248201527f476f7665726e6f723a2070726f706f73657220766f7465732062656c6f7720706044820152701c9bdc1bdcd85b081d1a1c995cda1bdb19607a1b606482015260840161094e565b6000611149868686868051906020012061157d565b9050845186511461116c5760405162461bcd60e51b815260040161094e90613804565b835186511461118d5760405162461bcd60e51b815260040161094e90613804565b60008651116111d95760405162461bcd60e51b815260206004820152601860248201527711dbdd995c9b9bdc8e88195b5c1d1e481c1c9bdc1bdcd85b60421b604482015260640161094e565b600081815260016020908152604091829020825191820190925281546001600160401b031690819052156112595760405162461bcd60e51b815260206004820152602160248201527f476f7665726e6f723a2070726f706f73616c20616c72656164792065786973746044820152607360f81b606482015260840161094e565b600061126c61126760045490565b611a2c565b61127543611a2c565b61127f9190613845565b9050600061128f61126760055490565b6112999083613845565b90506112a58383611a98565b6112b26001840182611a98565b7f7d84a6263ae0d98d3329bd7b46bb4e8d6f98cd35a7adb45c274c8b7fd5ebd5e084338b8b8d516001600160401b038111156112f0576112f0612d7d565b60405190808252806020026020018201604052801561132357816020015b606081526020019060019003908161130e5790505b508c88888e60405161133d99989796959493929190613939565b60405180910390a15091979650505050505050565b6000610a44848484611ce7565b611367610810565b6001600160a01b0316336001600160a01b0316146113975760405162461bcd60e51b815260040161094e90613654565b306113a0610810565b6001600160a01b0316146113dd57600080366040516113c0929190613644565b604051809103902090505b806113d660026118fd565b036113cb57505b6109a681611d7d565b60008181526008602090815260408083208151928301909152546001600160401b031690819052610eda565b600061081a60065490565b600760009054906101000a90046001600160a01b03166001600160a01b0316630e18b6816040518163ffffffff1660e01b8152600401600060405180830381600087803b15801561146d57600080fd5b505af1158015611481573d6000803e3d6000fd5b50505050565b60008181526001602081815260408084208151928301909152909101546001600160401b031690819052610eda565b6114be610810565b6001600160a01b0316336001600160a01b0316146114ee5760405162461bcd60e51b815260040161094e90613654565b306114f7610810565b6001600160a01b0316146115345760008036604051611517929190613644565b604051809103902090505b8061152d60026118fd565b0361152257505b6115768483838080601f016020809104026020016040519081016040528093929190818152602001838380828437600092019190915250889250611de6915050565b5050505050565b6000848484846040516020016115969493929190613a28565b60408051601f19818403018152919052805160209091012095945050505050565b6007546001600160a01b031690565b6115ce610810565b6001600160a01b0316336001600160a01b0316146115fe5760405162461bcd60e51b815260040161094e90613654565b30611607610810565b6001600160a01b0316146116445760008036604051611627929190613644565b604051809103902090505b8061163d60026118fd565b0361163257505b6109a681611e0c565b600061166e838361166960408051602081019091526000815290565b611ce7565b9392505050565b61167d610810565b6001600160a01b0316336001600160a01b0316146116ad5760405162461bcd60e51b815260040161094e90613654565b306116b6610810565b6001600160a01b0316146116f357600080366040516116d6929190613644565b604051809103902090505b806116ec60026118fd565b036116e157505b6109a681611eac565b600061082a82611eec565b60006001600160e01b03198216636e665ced60e01b148061082a575061082a82611f90565b600061082a611739611ffb565b8360405161190160f01b6020820152602281018390526042810182905260009060620160405160208183030381529060405280519060200120905092915050565b600080600061178b87878787612122565b91509150610ea881612205565b60008581526001602081905260408220906117b288610f4d565b60078111156117c3576117c361323b565b1461181c5760405162461bcd60e51b815260206004820152602360248201527f476f7665726e6f723a20766f7465206e6f742063757272656e746c792061637460448201526269766560e81b606482015260840161094e565b604080516020810190915281546001600160401b03169081905260009061184590889086611ce7565b905061185488888884886123b6565b83516000036118a957866001600160a01b03167fb8e138887d0aa13bab447e82de9d5c1777041ecd21ca36ba824ff1e6c07ddda48988848960405161189c9493929190613a73565b60405180910390a2610f42565b866001600160a01b03167fe2babfbac5889a709b63bb7f598b324e08bc5a4fb9ec647fb3cbc9ec07eb871289888489896040516118ea959493929190613a9b565b60405180910390a2979650505050505050565b600061190882612530565b1561192657604051631ed9509560e11b815260040160405180910390fd5b508054600f0b6000818152600180840160205260408220805492905583546001600160801b03191692016001600160801b03169190911790915590565b60648111156119e65760405162461bcd60e51b815260206004820152604360248201527f476f7665726e6f72566f74657351756f72756d4672616374696f6e3a2071756f60448201527f72756d4e756d657261746f72206f7665722071756f72756d44656e6f6d696e616064820152623a37b960e91b608482015260a40161094e565b60098054908290556040517f0553476bf02ef2726e8ce5ced78d63e26e602e4a2257b1f559418e24b463399790611a2090839085906137df565b60405180910390a15050565b60006001600160401b03821115611a945760405162461bcd60e51b815260206004820152602660248201527f53616665436173743a2076616c756520646f65736e27742066697420696e203660448201526534206269747360d01b606482015260840161094e565b5090565b81546001600160401b0319166001600160401b0391909116179055565b30611abe610810565b6001600160a01b0316146115765760005b8451811015611b4e57306001600160a01b0316858281518110611af457611af4613748565b60200260200101516001600160a01b031603611b3e57611b3e838281518110611b1f57611b1f613748565b602002602001015180519060200120600261254590919063ffffffff16565b611b47816137c6565b9050611acf565b505050505050565b6115768585858585612581565b30611b6c610810565b6001600160a01b03161461157657611b846002612530565b611576576000600255611576565b6000610f6685858585611bb060408051602081019091526000815290565b611798565b600080611bc183612700565b90506004816007811115611bd757611bd761323b565b14611be25792915050565b6000611bed846113e6565b905080600003611bfe575092915050565b600760009054906101000a90046001600160a01b03166001600160a01b031663c1a287e26040518163ffffffff1660e01b8152600401602060405180830381865afa158015611c51573d6000803e3d6000fd5b505050506040513d601f19601f82011682018060405250810190611c759190613701565b611c7f9082613730565b4210611c8f575060069392505050565b5060059392505050565b6000610f668585858561280f565b7fc565b045403dc03c2eea82b81a0465edad9e2e7fc4d97e11421c209da93d7a9360045482604051611cda9291906137df565b60405180910390a1600455565b604051630748d63560e31b81526001600160a01b038481166004830152602482018490526000917f000000000000000000000000000000000000000000000000000000000000000090911690633a46b1a890604401602060405180830381865afa158015611d59573d6000803e3d6000fd5b505050506040513d601f19601f82011682018060405250810190610a449190613701565b600754604080516001600160a01b03928316815291831660208301527f08f74ea46ef7894f65eabfb5e6e695de773a000b47c529ab559178069b226401910160405180910390a1600780546001600160a01b0319166001600160a01b0392909216919091179055565b6060610a44848484604051806060016040528060298152602001613bec60299139612929565b60008111611e6c5760405162461bcd60e51b815260206004820152602760248201527f476f7665726e6f7253657474696e67733a20766f74696e6720706572696f6420604482015266746f6f206c6f7760c81b606482015260840161094e565b7f7e3f7f0708a84de9203036abaa450dccc85ad5ff52f78c170f3edb55cf5e882860055482604051611e9f9291906137df565b60405180910390a1600555565b7fccb45da8d5717e6c4544694297c4ba5cf151d455c9bb0ed4fc7a38411bc0546160065482604051611edf9291906137df565b60405180910390a1600655565b60006064600954604051632394e7a360e21b8152600481018590527f00000000000000000000000000000000000000000000000000000000000000006001600160a01b031690638e539e8c90602401602060405180830381865afa158015611f58573d6000803e3d6000fd5b505050506040513d601f19601f82011682018060405250810190611f7c9190613701565b611f869190613ae1565b61082a9190613b00565b60006001600160e01b0319821663bf26d89760e01b1480611fc157506001600160e01b031982166379dd796f60e01b145b80611fdc57506001600160e01b03198216630271189760e51b145b8061082a57506301ffc9a760e01b6001600160e01b031983161461082a565b6000306001600160a01b037f00000000000000000000000000000000000000000000000000000000000000001614801561205457507f000000000000000000000000000000000000000000000000000000000000000046145b1561207e57507f000000000000000000000000000000000000000000000000000000000000000090565b50604080517f00000000000000000000000000000000000000000000000000000000000000006020808301919091527f0000000000000000000000000000000000000000000000000000000000000000828401527f000000000000000000000000000000000000000000000000000000000000000060608301524660808301523060a0808401919091528351808403909101815260c0909201909252805191012090565b6000806fa2a8918ca85bafe22016d0b997e4df60600160ff1b0383111561214f57506000905060036121fc565b8460ff16601b1415801561216757508460ff16601c14155b1561217857506000905060046121fc565b6040805160008082526020820180845289905260ff881692820192909252606081018690526080810185905260019060a0016020604051602081039080840390855afa1580156121cc573d6000803e3d6000fd5b5050604051601f1901519150506001600160a01b0381166121f5576000600192509250506121fc565b9150600090505b94509492505050565b60008160048111156122195761221961323b565b036122215750565b60018160048111156122355761223561323b565b0361227d5760405162461bcd60e51b815260206004820152601860248201527745434453413a20696e76616c6964207369676e617475726560401b604482015260640161094e565b60028160048111156122915761229161323b565b036122de5760405162461bcd60e51b815260206004820152601f60248201527f45434453413a20696e76616c6964207369676e6174757265206c656e67746800604482015260640161094e565b60038160048111156122f2576122f261323b565b0361234a5760405162461bcd60e51b815260206004820152602260248201527f45434453413a20696e76616c6964207369676e6174757265202773272076616c604482015261756560f01b606482015260840161094e565b600481600481111561235e5761235e61323b565b036109a65760405162461bcd60e51b815260206004820152602260248201527f45434453413a20696e76616c6964207369676e6174757265202776272076616c604482015261756560f01b606482015260840161094e565b6000858152600a602090815260408083206001600160a01b0388168452600381019092529091205460ff161561243e5760405162461bcd60e51b815260206004820152602760248201527f476f7665726e6f72566f74696e6753696d706c653a20766f746520616c726561604482015266191e4818d85cdd60ca1b606482015260840161094e565b6001600160a01b03851660009081526003820160205260409020805460ff1916600117905560ff841661248a578281600001600082825461247f9190613730565b90915550611b4e9050565b60001960ff8516016124aa578281600101600082825461247f9190613730565b60011960ff8516016124ca578281600201600082825461247f9190613730565b60405162461bcd60e51b815260206004820152603560248201527f476f7665726e6f72566f74696e6753696d706c653a20696e76616c69642076616044820152746c756520666f7220656e756d20566f74655479706560581b606482015260840161094e565b54600f81810b600160801b909204900b131590565b8154600160801b90819004600f0b6000818152600180860160205260409091209390935583546001600160801b03908116939091011602179055565b600061258c866113e6565b9050600081116125f85760405162461bcd60e51b815260206004820152603160248201527f476f7665726e6f7254696d656c6f636b436f6d706f756e643a2070726f706f73604482015270185b081b9bdd081e595d081c5d595d5959607a1b606482015260840161094e565b60075461260e906001600160a01b0316346129f9565b60005b85518110156126f75760075486516001600160a01b0390911690630825f38f9088908490811061264357612643613748565b602002602001015187848151811061265d5761265d613748565b602002602001015187858151811061267757612677613748565b6020026020010151866040518563ffffffff1660e01b815260040161269f949392919061375e565b6000604051808303816000875af11580156126be573d6000803e3d6000fd5b505050506040513d6000823e601f3d908101601f191682016040526126e69190810190613b22565b506126f0816137c6565b9050612611565b50505050505050565b6000818152600160205260408120600281015460ff16156127245750600792915050565b6002810154610100900460ff161561273f5750600292915050565b600061274a84610eb2565b90508060000361279c5760405162461bcd60e51b815260206004820152601d60248201527f476f7665726e6f723a20756e6b6e6f776e2070726f706f73616c206964000000604482015260640161094e565b4381106127ad575060009392505050565b60006127b885611487565b90504381106127cc57506001949350505050565b6127d585612b14565b80156127f457506000858152600a602052604090208054600190910154115b1561280457506004949350505050565b506003949350505050565b60008061281e86868686612b4b565b9050600061282b826113e6565b90508015610ea85760005b87518110156129075760075488516001600160a01b039091169063591fcdfe908a908490811061286857612868613748565b602002602001015189848151811061288257612882613748565b602002602001015189858151811061289c5761289c613748565b6020026020010151866040518563ffffffff1660e01b81526004016128c4949392919061375e565b600060405180830381600087803b1580156128de57600080fd5b505af11580156128f2573d6000803e3d6000fd5b5050505080612900906137c6565b9050612836565b50600082815260086020526040902080546001600160401b0319169055610ea8565b60608247101561298a5760405162461bcd60e51b815260206004820152602660248201527f416464726573733a20696e73756666696369656e742062616c616e636520666f6044820152651c8818d85b1b60d21b606482015260840161094e565b600080866001600160a01b031685876040516129a69190613b8f565b60006040518083038185875af1925050503d80600081146129e3576040519150601f19603f3d011682016040523d82523d6000602084013e6129e8565b606091505b5091509150610f4287838387612c57565b80471015612a495760405162461bcd60e51b815260206004820152601d60248201527f416464726573733a20696e73756666696369656e742062616c616e6365000000604482015260640161094e565b6000826001600160a01b03168260405160006040518083038185875af1925050503d8060008114612a96576040519150601f19603f3d011682016040523d82523d6000602084013e612a9b565b606091505b5050905080612b0f5760405162461bcd60e51b815260206004820152603a60248201527f416464726573733a20756e61626c6520746f2073656e642076616c75652c20726044820152791958da5c1a595b9d081b585e481a185d99481c995d995c9d195960321b606482015260840161094e565b505050565b6000818152600a6020526040812060028101546001820154612b369190613730565b612b426107d785610eb2565b11159392505050565b600080612b5a8686868661157d565b90506000612b6782610f4d565b90506002816007811115612b7d57612b7d61323b565b14158015612b9d57506006816007811115612b9a57612b9a61323b565b14155b8015612bbb57506007816007811115612bb857612bb861323b565b14155b612c075760405162461bcd60e51b815260206004820152601d60248201527f476f7665726e6f723a2070726f706f73616c206e6f7420616374697665000000604482015260640161094e565b60008281526001602052604090819020600201805461ff001916610100179055517f789cf55be980739dad1d0699b93b58e806b51c9d96619bfa8fe0a28abaa7b30c90610db39084815260200190565b60608315612cc6578251600003612cbf576001600160a01b0385163b612cbf5760405162461bcd60e51b815260206004820152601d60248201527f416464726573733a2063616c6c20746f206e6f6e2d636f6e7472616374000000604482015260640161094e565b5081610a44565b610a448383815115612cdb5781518083602001fd5b8060405162461bcd60e51b815260040161094e9190612f5f565b600060208284031215612d0757600080fd5b81356001600160e01b03198116811461166e57600080fd5b803560ff81168114612d3057600080fd5b919050565b60008083601f840112612d4757600080fd5b5081356001600160401b03811115612d5e57600080fd5b602083019150836020828501011115612d7657600080fd5b9250929050565b634e487b7160e01b600052604160045260246000fd5b604051601f8201601f191681016001600160401b0381118282101715612dbb57612dbb612d7d565b604052919050565b60006001600160401b03821115612ddc57612ddc612d7d565b50601f01601f191660200190565b6000612dfd612df884612dc3565b612d93565b9050828152838383011115612e1157600080fd5b828260208301376000602084830101529392505050565b600082601f830112612e3957600080fd5b61166e83833560208501612dea565b60008060008060008060008060e0898b031215612e6457600080fd5b88359750612e7460208a01612d1f565b965060408901356001600160401b0380821115612e9057600080fd5b612e9c8c838d01612d35565b909850965060608b0135915080821115612eb557600080fd5b50612ec28b828c01612e28565b945050612ed160808a01612d1f565b925060a0890135915060c089013590509295985092959890939650565b600060208284031215612f0057600080fd5b5035919050565b60005b83811015612f22578181015183820152602001612f0a565b838111156114815750506000910152565b60008151808452612f4b816020860160208601612f07565b601f01601f19169290920160200192915050565b60208152600061166e6020830184612f33565b6001600160a01b03811681146109a657600080fd5b60008060008060808587031215612f9d57600080fd5b8435612fa881612f72565b93506020850135612fb881612f72565b92506040850135915060608501356001600160401b03811115612fda57600080fd5b612fe687828801612e28565b91505092959194509250565b60006001600160401b0382111561300b5761300b612d7d565b5060051b60200190565b600082601f83011261302657600080fd5b81356020613036612df883612ff2565b82815260059290921b8401810191818101908684111561305557600080fd5b8286015b8481101561307957803561306c81612f72565b8352918301918301613059565b509695505050505050565b600082601f83011261309557600080fd5b813560206130a5612df883612ff2565b82815260059290921b840181019181810190868411156130c457600080fd5b8286015b8481101561307957803583529183019183016130c8565b600082601f8301126130f057600080fd5b81356020613100612df883612ff2565b82815260059290921b8401810191818101908684111561311f57600080fd5b8286015b848110156130795780356001600160401b038111156131425760008081fd5b6131508986838b0101612e28565b845250918301918301613123565b6000806000806080858703121561317457600080fd5b84356001600160401b038082111561318b57600080fd5b61319788838901613015565b955060208701359150808211156131ad57600080fd5b6131b988838901613084565b945060408701359150808211156131cf57600080fd5b506131dc878288016130df565b949793965093946060013593505050565b600080600080600060a0868803121561320557600080fd5b8535945061321560208701612d1f565b935061322360408701612d1f565b94979396509394606081013594506080013592915050565b634e487b7160e01b600052602160045260246000fd5b602081016008831061327357634e487b7160e01b600052602160045260246000fd5b91905290565b6000806040838503121561328c57600080fd5b82359150602083013561329e81612f72565b809150509250929050565b600080604083850312156132bc57600080fd5b823591506132cc60208401612d1f565b90509250929050565b6000806000806000608086880312156132ed57600080fd5b853594506132fd60208701612d1f565b935060408601356001600160401b038082111561331957600080fd5b61332589838a01612d35565b9095509350606088013591508082111561333e57600080fd5b5061334b88828901612e28565b9150509295509295909350565b6000806000806060858703121561336e57600080fd5b8435935061337e60208601612d1f565b925060408501356001600160401b0381111561339957600080fd5b6133a587828801612d35565b95989497509550505050565b600080600080608085870312156133c757600080fd5b84356001600160401b03808211156133de57600080fd5b6133ea88838901613015565b9550602087013591508082111561340057600080fd5b61340c88838901613084565b9450604087013591508082111561342257600080fd5b61342e888389016130df565b9350606087013591508082111561344457600080fd5b508501601f8101871361345657600080fd5b612fe687823560208401612dea565b60008060006060848603121561347a57600080fd5b833561348581612f72565b92506020840135915060408401356001600160401b038111156134a757600080fd5b6134b386828701612e28565b9150509250925092565b6000602082840312156134cf57600080fd5b813561166e81612f72565b600080600080600060a086880312156134f257600080fd5b85356134fd81612f72565b9450602086013561350d81612f72565b935060408601356001600160401b038082111561352957600080fd5b61353589838a01613084565b9450606088013591508082111561354b57600080fd5b61355789838a01613084565b9350608088013591508082111561333e57600080fd5b6000806000806060858703121561358357600080fd5b843561358e81612f72565b93506020850135925060408501356001600160401b0381111561339957600080fd5b600080604083850312156135c357600080fd5b82356135ce81612f72565b946020939093013593505050565b600080600080600060a086880312156135f457600080fd5b85356135ff81612f72565b9450602086013561360f81612f72565b9350604086013592506060860135915060808601356001600160401b0381111561363857600080fd5b61334b88828901612e28565b8183823760009101908152919050565b602080825260189082015277476f7665726e6f723a206f6e6c79476f7665726e616e636560401b604082015260600190565b600181811c9082168061369a57607f821691505b6020821081036136ba57634e487b7160e01b600052602260045260246000fd5b50919050565b60208082526021908201527f476f7665726e6f723a2070726f706f73616c206e6f74207375636365737366756040820152601b60fa1b606082015260800190565b60006020828403121561371357600080fd5b5051919050565b634e487b7160e01b600052601160045260246000fd5b600082198211156137435761374361371a565b500190565b634e487b7160e01b600052603260045260246000fd5b60018060a01b038516815283602082015260a06040820152600060a082015260c06060820152600061379360c0830185612f33565b905082608083015295945050505050565b6000602082840312156137b657600080fd5b8151801515811461166e57600080fd5b6000600182016137d8576137d861371a565b5060010190565b918252602082015260400190565b6000828210156137ff576137ff61371a565b500390565b60208082526021908201527f476f7665726e6f723a20696e76616c69642070726f706f73616c206c656e67746040820152600d60fb1b606082015260800190565b60006001600160401b038281168482168083038211156138675761386761371a565b01949350505050565b600081518084526020808501945080840160005b838110156138a95781516001600160a01b031687529582019590820190600101613884565b509495945050505050565b600081518084526020808501945080840160005b838110156138a9578151875295820195908201906001016138c8565b600081518084526020808501808196508360051b8101915082860160005b8581101561392c57828403895261391a848351612f33565b98850198935090840190600101613902565b5091979650505050505050565b60006101208b8352602060018060a01b038c16818501528160408501526139628285018c613870565b91508382036060850152613976828b6138b4565b915083820360808501528189518084528284019150828160051b850101838c0160005b838110156139c757601f198784030185526139b5838351612f33565b94860194925090850190600101613999565b505086810360a08801526139db818c6138e4565b9450505050506139f660c08401876001600160401b03169052565b6001600160401b03851660e0840152828103610100840152613a188185612f33565b9c9b505050505050505050505050565b608081526000613a3b6080830187613870565b8281036020840152613a4d81876138b4565b90508281036040840152613a6181866138e4565b91505082606083015295945050505050565b84815260ff841660208201528260408201526080606082015260006110a96080830184612f33565b85815260ff8516602082015283604082015260a060608201526000613ac360a0830185612f33565b8281036080840152613ad58185612f33565b98975050505050505050565b6000816000190483118215151615613afb57613afb61371a565b500290565b600082613b1d57634e487b7160e01b600052601260045260246000fd5b500490565b600060208284031215613b3457600080fd5b81516001600160401b03811115613b4a57600080fd5b8201601f81018413613b5b57600080fd5b8051613b69612df882612dc3565b818152856020838501011115613b7e57600080fd5b610f66826020830160208601612f07565b60008251613ba1818460208701612f07565b919091019291505056fe150214d74d59b7d1e90c73fc22ef3d991dd0a76b046543d4d80ab92d2a50328fb3b3f3b703cd84ce352197dcff232b1b5d3cfb2025ce47cf04742d0651f1af88416464726573733a206c6f772d6c6576656c2063616c6c20776974682076616c7565206661696c6564a264697066735822122013c45ef4417731cb4f195a852842c6d0aec966b6ec922800b9e4642f71f1fab364736f6c634300080e0033",
  "immutableReferences": {
    "7117": [
      {
        "length": 32,
        "start": 2030
      },
      {
        "length": 32,
        "start": 7440
      },
      {
        "length": 32,
        "start": 7945
      }
    ],
    "33049": [
      {
        "length": 32,
        "start": 8284
      }
    ],
    "33051": [
      {
        "length": 32,
        "start": 8242
      }
    ],
    "33053": [
      {
        "length": 32,
        "start": 8200
      }
    ],
    "33055": [
      {
        "length": 32,
        "start": 8367
      }
    ],
    "33057": [
      {
        "length": 32,
        "start": 8404
      }
    ],
    "33059": [
      {
        "length": 32,
        "start": 8325
      }
    ]
  },
  "source": "// SPDX-License-Identifier: MIT\r\n\r\npragma solidity ^0.8.0;\r\n\r\nimport \"../governance/extensions/GovernorTimelockCompound.sol\";\r\nimport \"../governance/extensions/GovernorSettings.sol\";\r\nimport \"../governance/extensions/GovernorCountingSimple.sol\";\r\nimport \"../governance/extensions/GovernorVotesQuorumFraction.sol\";\r\n\r\ncontract GovernorTimelockCompoundMock is\r\n    GovernorSettings,\r\n    GovernorTimelockCompound,\r\n    GovernorVotesQuorumFraction,\r\n    GovernorCountingSimple\r\n{\r\n    constructor(\r\n        string memory name_,\r\n        IVotes token_,\r\n        uint256 votingDelay_,\r\n        uint256 votingPeriod_,\r\n        ICompoundTimelock timelock_,\r\n        uint256 quorumNumerator_\r\n    )\r\n        Governor(name_)\r\n        GovernorTimelockCompound(timelock_)\r\n        GovernorSettings(votingDelay_, votingPeriod_, 0)\r\n        GovernorVotes(token_)\r\n        GovernorVotesQuorumFraction(quorumNumerator_)\r\n    {}\r\n\r\n    function supportsInterface(bytes4 interfaceId)\r\n        public\r\n        view\r\n        virtual\r\n        override(Governor, GovernorTimelockCompound)\r\n        returns (bool)\r\n    {\r\n        return super.supportsInterface(interfaceId);\r\n    }\r\n\r\n    function quorum(uint256 blockNumber)\r\n        public\r\n        view\r\n        override(IGovernor, GovernorVotesQuorumFraction)\r\n        returns (uint256)\r\n    {\r\n        return super.quorum(blockNumber);\r\n    }\r\n\r\n    function cancel(\r\n        address[] memory targets,\r\n        uint256[] memory values,\r\n        bytes[] memory calldatas,\r\n        bytes32 salt\r\n    ) public returns (uint256 proposalId) {\r\n        return _cancel(targets, values, calldatas, salt);\r\n    }\r\n\r\n    /**\r\n     * Overriding nightmare\r\n     */\r\n    function state(uint256 proposalId)\r\n        public\r\n        view\r\n        virtual\r\n        override(Governor, GovernorTimelockCompound)\r\n        returns (ProposalState)\r\n    {\r\n        return super.state(proposalId);\r\n    }\r\n\r\n    function proposalThreshold() public view override(Governor, GovernorSettings) returns (uint256) {\r\n        return super.proposalThreshold();\r\n    }\r\n\r\n    function _execute(\r\n        uint256 proposalId,\r\n        address[] memory targets,\r\n        uint256[] memory values,\r\n        bytes[] memory calldatas,\r\n        bytes32 descriptionHash\r\n    ) internal virtual override(Governor, GovernorTimelockCompound) {\r\n        super._execute(proposalId, targets, values, calldatas, descriptionHash);\r\n    }\r\n\r\n    function _cancel(\r\n        address[] memory targets,\r\n        uint256[] memory values,\r\n        bytes[] memory calldatas,\r\n        bytes32 salt\r\n    ) internal virtual override(Governor, GovernorTimelockCompound) returns (uint256 proposalId) {\r\n        return super._cancel(targets, values, calldatas, salt);\r\n    }\r\n\r\n    function _executor() internal view virtual override(Governor, GovernorTimelockCompound) returns (address) {\r\n        return super._executor();\r\n    }\r\n}\r\n",
  "sourcePath": "D:\\work\\www\\yopu_dapp_nft\\contracts\\lib\\openzeppelin\\contracts\\mocks\\GovernorTimelockCompoundMock.sol",
  "compiler": {
    "name": "solc",
    "version": "0.8.14+commit.80d49f37.Emscripten.clang"
  },
  "schemaVersion": "3.4.7",
  "updatedAt": "2022-06-28T15:05:47.903Z",
  "devdoc": {
    "errors": {
      "Empty()": [
        {
          "details": "An operation (e.g. {front}) couldn't be completed due to the queue being empty."
        }
      ]
    },
    "kind": "dev",
    "methods": {
      "COUNTING_MODE()": {
        "details": "See {IGovernor-COUNTING_MODE}."
      },
      "__acceptAdmin()": {
        "details": "Accept admin right over the timelock."
      },
      "castVote(uint256,uint8)": {
        "details": "See {IGovernor-castVote}."
      },
      "castVoteBySig(uint256,uint8,uint8,bytes32,bytes32)": {
        "details": "See {IGovernor-castVoteBySig}."
      },
      "castVoteWithReason(uint256,uint8,string)": {
        "details": "See {IGovernor-castVoteWithReason}."
      },
      "castVoteWithReasonAndParams(uint256,uint8,string,bytes)": {
        "details": "See {IGovernor-castVoteWithReasonAndParams}."
      },
      "castVoteWithReasonAndParamsBySig(uint256,uint8,string,bytes,uint8,bytes32,bytes32)": {
        "details": "See {IGovernor-castVoteWithReasonAndParamsBySig}."
      },
      "execute(address[],uint256[],bytes[],bytes32)": {
        "details": "See {IGovernor-execute}."
      },
      "getVotes(address,uint256)": {
        "details": "See {IGovernor-getVotes}."
      },
      "getVotesWithParams(address,uint256,bytes)": {
        "details": "See {IGovernor-getVotesWithParams}."
      },
      "hasVoted(uint256,address)": {
        "details": "See {IGovernor-hasVoted}."
      },
      "hashProposal(address[],uint256[],bytes[],bytes32)": {
        "details": "See {IGovernor-hashProposal}. The proposal id is produced by hashing the RLC encoded `targets` array, the `values` array, the `calldatas` array and the descriptionHash (bytes32 which itself is the keccak256 hash of the description string). This proposal id can be produced from the proposal data which is part of the {ProposalCreated} event. It can even be computed in advance, before the proposal is submitted. Note that the chainId and the governor address are not part of the proposal id computation. Consequently, the same proposal (with same operation and same description) will have the same id if submitted on multiple governors across multiple networks. This also means that in order to execute the same operation twice (on the same governor) the proposer will have to change the description in order to avoid proposal id conflicts."
      },
      "name()": {
        "details": "See {IGovernor-name}."
      },
      "onERC1155BatchReceived(address,address,uint256[],uint256[],bytes)": {
        "details": "See {IERC1155Receiver-onERC1155BatchReceived}."
      },
      "onERC1155Received(address,address,uint256,uint256,bytes)": {
        "details": "See {IERC1155Receiver-onERC1155Received}."
      },
      "onERC721Received(address,address,uint256,bytes)": {
        "details": "See {IERC721Receiver-onERC721Received}."
      },
      "proposalDeadline(uint256)": {
        "details": "See {IGovernor-proposalDeadline}."
      },
      "proposalEta(uint256)": {
        "details": "Public accessor to check the eta of a queued proposal"
      },
      "proposalSnapshot(uint256)": {
        "details": "See {IGovernor-proposalSnapshot}."
      },
      "proposalVotes(uint256)": {
        "details": "Accessor to the internal vote counts."
      },
      "propose(address[],uint256[],bytes[],string)": {
        "details": "See {IGovernor-propose}."
      },
      "queue(address[],uint256[],bytes[],bytes32)": {
        "details": "Function to queue a proposal to the timelock."
      },
      "quorumDenominator()": {
        "details": "Returns the quorum denominator. Defaults to 100, but may be overridden."
      },
      "quorumNumerator()": {
        "details": "Returns the current quorum numerator. See {quorumDenominator}."
      },
      "relay(address,uint256,bytes)": {
        "details": "Relays a transaction or function call to an arbitrary target. In cases where the governance executor is some contract other than the governor itself, like when using a timelock, this function can be invoked in a governance proposal to recover tokens or Ether that was sent to the governor contract by mistake. Note that if the executor is simply the governor itself, use of `relay` is redundant."
      },
      "setProposalThreshold(uint256)": {
        "details": "Update the proposal threshold. This operation can only be performed through a governance proposal. Emits a {ProposalThresholdSet} event."
      },
      "setVotingDelay(uint256)": {
        "details": "Update the voting delay. This operation can only be performed through a governance proposal. Emits a {VotingDelaySet} event."
      },
      "setVotingPeriod(uint256)": {
        "details": "Update the voting period. This operation can only be performed through a governance proposal. Emits a {VotingPeriodSet} event."
      },
      "timelock()": {
        "details": "Public accessor to check the address of the timelock"
      },
      "updateQuorumNumerator(uint256)": {
        "details": "Changes the quorum numerator. Emits a {QuorumNumeratorUpdated} event. Requirements: - Must be called through a governance proposal. - New numerator must be smaller or equal to the denominator."
      },
      "updateTimelock(address)": {
        "details": "Public endpoint to update the underlying timelock instance. Restricted to the timelock itself, so updates must be proposed, scheduled, and executed through governance proposals. For security reasons, the timelock must be handed over to another admin before setting up a new one. The two operations (hand over the timelock) and do the update can be batched in a single proposal. Note that if the timelock admin has been handed over in a previous operation, we refuse updates made through the timelock if admin of the timelock has already been accepted and the operation is executed outside the scope of governance. CAUTION: It is not recommended to change the timelock while there are other queued governance proposals."
      },
      "version()": {
        "details": "See {IGovernor-version}."
      },
      "votingDelay()": {
        "details": "See {IGovernor-votingDelay}."
      },
      "votingPeriod()": {
        "details": "See {IGovernor-votingPeriod}."
      }
    },
    "version": 1
  },
  "userdoc": {
    "kind": "user",
    "methods": {
      "state(uint256)": {
        "notice": "Overriding nightmare"
      }
    },
    "version": 1
  }
}