{
  "contractName": "GovernorTimelockControlMock",
  "abi": [
    {
      "inputs": [
        {
          "internalType": "string",
          "name": "name_",
          "type": "string"
        },
        {
          "internalType": "contract IVotes",
          "name": "token_",
          "type": "address"
        },
        {
          "internalType": "uint256",
          "name": "votingDelay_",
          "type": "uint256"
        },
        {
          "internalType": "uint256",
          "name": "votingPeriod_",
          "type": "uint256"
        },
        {
          "internalType": "contract TimelockController",
          "name": "timelock_",
          "type": "address"
        },
        {
          "internalType": "uint256",
          "name": "quorumNumerator_",
          "type": "uint256"
        }
      ],
      "stateMutability": "nonpayable",
      "type": "constructor"
    },
    {
      "inputs": [],
      "name": "Empty",
      "type": "error"
    },
    {
      "anonymous": false,
      "inputs": [
        {
          "indexed": false,
          "internalType": "uint256",
          "name": "proposalId",
          "type": "uint256"
        }
      ],
      "name": "ProposalCanceled",
      "type": "event"
    },
    {
      "anonymous": false,
      "inputs": [
        {
          "indexed": false,
          "internalType": "uint256",
          "name": "proposalId",
          "type": "uint256"
        },
        {
          "indexed": false,
          "internalType": "address",
          "name": "proposer",
          "type": "address"
        },
        {
          "indexed": false,
          "internalType": "address[]",
          "name": "targets",
          "type": "address[]"
        },
        {
          "indexed": false,
          "internalType": "uint256[]",
          "name": "values",
          "type": "uint256[]"
        },
        {
          "indexed": false,
          "internalType": "string[]",
          "name": "signatures",
          "type": "string[]"
        },
        {
          "indexed": false,
          "internalType": "bytes[]",
          "name": "calldatas",
          "type": "bytes[]"
        },
        {
          "indexed": false,
          "internalType": "uint256",
          "name": "startBlock",
          "type": "uint256"
        },
        {
          "indexed": false,
          "internalType": "uint256",
          "name": "endBlock",
          "type": "uint256"
        },
        {
          "indexed": false,
          "internalType": "string",
          "name": "description",
          "type": "string"
        }
      ],
      "name": "ProposalCreated",
      "type": "event"
    },
    {
      "anonymous": false,
      "inputs": [
        {
          "indexed": false,
          "internalType": "uint256",
          "name": "proposalId",
          "type": "uint256"
        }
      ],
      "name": "ProposalExecuted",
      "type": "event"
    },
    {
      "anonymous": false,
      "inputs": [
        {
          "indexed": false,
          "internalType": "uint256",
          "name": "proposalId",
          "type": "uint256"
        },
        {
          "indexed": false,
          "internalType": "uint256",
          "name": "eta",
          "type": "uint256"
        }
      ],
      "name": "ProposalQueued",
      "type": "event"
    },
    {
      "anonymous": false,
      "inputs": [
        {
          "indexed": false,
          "internalType": "uint256",
          "name": "oldProposalThreshold",
          "type": "uint256"
        },
        {
          "indexed": false,
          "internalType": "uint256",
          "name": "newProposalThreshold",
          "type": "uint256"
        }
      ],
      "name": "ProposalThresholdSet",
      "type": "event"
    },
    {
      "anonymous": false,
      "inputs": [
        {
          "indexed": false,
          "internalType": "uint256",
          "name": "oldQuorumNumerator",
          "type": "uint256"
        },
        {
          "indexed": false,
          "internalType": "uint256",
          "name": "newQuorumNumerator",
          "type": "uint256"
        }
      ],
      "name": "QuorumNumeratorUpdated",
      "type": "event"
    },
    {
      "anonymous": false,
      "inputs": [
        {
          "indexed": false,
          "internalType": "address",
          "name": "oldTimelock",
          "type": "address"
        },
        {
          "indexed": false,
          "internalType": "address",
          "name": "newTimelock",
          "type": "address"
        }
      ],
      "name": "TimelockChange",
      "type": "event"
    },
    {
      "anonymous": false,
      "inputs": [
        {
          "indexed": true,
          "internalType": "address",
          "name": "voter",
          "type": "address"
        },
        {
          "indexed": false,
          "internalType": "uint256",
          "name": "proposalId",
          "type": "uint256"
        },
        {
          "indexed": false,
          "internalType": "uint8",
          "name": "support",
          "type": "uint8"
        },
        {
          "indexed": false,
          "internalType": "uint256",
          "name": "weight",
          "type": "uint256"
        },
        {
          "indexed": false,
          "internalType": "string",
          "name": "reason",
          "type": "string"
        }
      ],
      "name": "VoteCast",
      "type": "event"
    },
    {
      "anonymous": false,
      "inputs": [
        {
          "indexed": true,
          "internalType": "address",
          "name": "voter",
          "type": "address"
        },
        {
          "indexed": false,
          "internalType": "uint256",
          "name": "proposalId",
          "type": "uint256"
        },
        {
          "indexed": false,
          "internalType": "uint8",
          "name": "support",
          "type": "uint8"
        },
        {
          "indexed": false,
          "internalType": "uint256",
          "name": "weight",
          "type": "uint256"
        },
        {
          "indexed": false,
          "internalType": "string",
          "name": "reason",
          "type": "string"
        },
        {
          "indexed": false,
          "internalType": "bytes",
          "name": "params",
          "type": "bytes"
        }
      ],
      "name": "VoteCastWithParams",
      "type": "event"
    },
    {
      "anonymous": false,
      "inputs": [
        {
          "indexed": false,
          "internalType": "uint256",
          "name": "oldVotingDelay",
          "type": "uint256"
        },
        {
          "indexed": false,
          "internalType": "uint256",
          "name": "newVotingDelay",
          "type": "uint256"
        }
      ],
      "name": "VotingDelaySet",
      "type": "event"
    },
    {
      "anonymous": false,
      "inputs": [
        {
          "indexed": false,
          "internalType": "uint256",
          "name": "oldVotingPeriod",
          "type": "uint256"
        },
        {
          "indexed": false,
          "internalType": "uint256",
          "name": "newVotingPeriod",
          "type": "uint256"
        }
      ],
      "name": "VotingPeriodSet",
      "type": "event"
    },
    {
      "inputs": [],
      "name": "BALLOT_TYPEHASH",
      "outputs": [
        {
          "internalType": "bytes32",
          "name": "",
          "type": "bytes32"
        }
      ],
      "stateMutability": "view",
      "type": "function"
    },
    {
      "inputs": [],
      "name": "COUNTING_MODE",
      "outputs": [
        {
          "internalType": "string",
          "name": "",
          "type": "string"
        }
      ],
      "stateMutability": "pure",
      "type": "function"
    },
    {
      "inputs": [],
      "name": "EXTENDED_BALLOT_TYPEHASH",
      "outputs": [
        {
          "internalType": "bytes32",
          "name": "",
          "type": "bytes32"
        }
      ],
      "stateMutability": "view",
      "type": "function"
    },
    {
      "inputs": [
        {
          "internalType": "uint256",
          "name": "proposalId",
          "type": "uint256"
        },
        {
          "internalType": "uint8",
          "name": "support",
          "type": "uint8"
        }
      ],
      "name": "castVote",
      "outputs": [
        {
          "internalType": "uint256",
          "name": "",
          "type": "uint256"
        }
      ],
      "stateMutability": "nonpayable",
      "type": "function"
    },
    {
      "inputs": [
        {
          "internalType": "uint256",
          "name": "proposalId",
          "type": "uint256"
        },
        {
          "internalType": "uint8",
          "name": "support",
          "type": "uint8"
        },
        {
          "internalType": "uint8",
          "name": "v",
          "type": "uint8"
        },
        {
          "internalType": "bytes32",
          "name": "r",
          "type": "bytes32"
        },
        {
          "internalType": "bytes32",
          "name": "s",
          "type": "bytes32"
        }
      ],
      "name": "castVoteBySig",
      "outputs": [
        {
          "internalType": "uint256",
          "name": "",
          "type": "uint256"
        }
      ],
      "stateMutability": "nonpayable",
      "type": "function"
    },
    {
      "inputs": [
        {
          "internalType": "uint256",
          "name": "proposalId",
          "type": "uint256"
        },
        {
          "internalType": "uint8",
          "name": "support",
          "type": "uint8"
        },
        {
          "internalType": "string",
          "name": "reason",
          "type": "string"
        }
      ],
      "name": "castVoteWithReason",
      "outputs": [
        {
          "internalType": "uint256",
          "name": "",
          "type": "uint256"
        }
      ],
      "stateMutability": "nonpayable",
      "type": "function"
    },
    {
      "inputs": [
        {
          "internalType": "uint256",
          "name": "proposalId",
          "type": "uint256"
        },
        {
          "internalType": "uint8",
          "name": "support",
          "type": "uint8"
        },
        {
          "internalType": "string",
          "name": "reason",
          "type": "string"
        },
        {
          "internalType": "bytes",
          "name": "params",
          "type": "bytes"
        }
      ],
      "name": "castVoteWithReasonAndParams",
      "outputs": [
        {
          "internalType": "uint256",
          "name": "",
          "type": "uint256"
        }
      ],
      "stateMutability": "nonpayable",
      "type": "function"
    },
    {
      "inputs": [
        {
          "internalType": "uint256",
          "name": "proposalId",
          "type": "uint256"
        },
        {
          "internalType": "uint8",
          "name": "support",
          "type": "uint8"
        },
        {
          "internalType": "string",
          "name": "reason",
          "type": "string"
        },
        {
          "internalType": "bytes",
          "name": "params",
          "type": "bytes"
        },
        {
          "internalType": "uint8",
          "name": "v",
          "type": "uint8"
        },
        {
          "internalType": "bytes32",
          "name": "r",
          "type": "bytes32"
        },
        {
          "internalType": "bytes32",
          "name": "s",
          "type": "bytes32"
        }
      ],
      "name": "castVoteWithReasonAndParamsBySig",
      "outputs": [
        {
          "internalType": "uint256",
          "name": "",
          "type": "uint256"
        }
      ],
      "stateMutability": "nonpayable",
      "type": "function"
    },
    {
      "inputs": [
        {
          "internalType": "address[]",
          "name": "targets",
          "type": "address[]"
        },
        {
          "internalType": "uint256[]",
          "name": "values",
          "type": "uint256[]"
        },
        {
          "internalType": "bytes[]",
          "name": "calldatas",
          "type": "bytes[]"
        },
        {
          "internalType": "bytes32",
          "name": "descriptionHash",
          "type": "bytes32"
        }
      ],
      "name": "execute",
      "outputs": [
        {
          "internalType": "uint256",
          "name": "",
          "type": "uint256"
        }
      ],
      "stateMutability": "payable",
      "type": "function"
    },
    {
      "inputs": [
        {
          "internalType": "address",
          "name": "account",
          "type": "address"
        },
        {
          "internalType": "uint256",
          "name": "blockNumber",
          "type": "uint256"
        }
      ],
      "name": "getVotes",
      "outputs": [
        {
          "internalType": "uint256",
          "name": "",
          "type": "uint256"
        }
      ],
      "stateMutability": "view",
      "type": "function"
    },
    {
      "inputs": [
        {
          "internalType": "address",
          "name": "account",
          "type": "address"
        },
        {
          "internalType": "uint256",
          "name": "blockNumber",
          "type": "uint256"
        },
        {
          "internalType": "bytes",
          "name": "params",
          "type": "bytes"
        }
      ],
      "name": "getVotesWithParams",
      "outputs": [
        {
          "internalType": "uint256",
          "name": "",
          "type": "uint256"
        }
      ],
      "stateMutability": "view",
      "type": "function"
    },
    {
      "inputs": [
        {
          "internalType": "uint256",
          "name": "proposalId",
          "type": "uint256"
        },
        {
          "internalType": "address",
          "name": "account",
          "type": "address"
        }
      ],
      "name": "hasVoted",
      "outputs": [
        {
          "internalType": "bool",
          "name": "",
          "type": "bool"
        }
      ],
      "stateMutability": "view",
      "type": "function"
    },
    {
      "inputs": [
        {
          "internalType": "address[]",
          "name": "targets",
          "type": "address[]"
        },
        {
          "internalType": "uint256[]",
          "name": "values",
          "type": "uint256[]"
        },
        {
          "internalType": "bytes[]",
          "name": "calldatas",
          "type": "bytes[]"
        },
        {
          "internalType": "bytes32",
          "name": "descriptionHash",
          "type": "bytes32"
        }
      ],
      "name": "hashProposal",
      "outputs": [
        {
          "internalType": "uint256",
          "name": "",
          "type": "uint256"
        }
      ],
      "stateMutability": "pure",
      "type": "function"
    },
    {
      "inputs": [],
      "name": "name",
      "outputs": [
        {
          "internalType": "string",
          "name": "",
          "type": "string"
        }
      ],
      "stateMutability": "view",
      "type": "function"
    },
    {
      "inputs": [
        {
          "internalType": "address",
          "name": "",
          "type": "address"
        },
        {
          "internalType": "address",
          "name": "",
          "type": "address"
        },
        {
          "internalType": "uint256[]",
          "name": "",
          "type": "uint256[]"
        },
        {
          "internalType": "uint256[]",
          "name": "",
          "type": "uint256[]"
        },
        {
          "internalType": "bytes",
          "name": "",
          "type": "bytes"
        }
      ],
      "name": "onERC1155BatchReceived",
      "outputs": [
        {
          "internalType": "bytes4",
          "name": "",
          "type": "bytes4"
        }
      ],
      "stateMutability": "nonpayable",
      "type": "function"
    },
    {
      "inputs": [
        {
          "internalType": "address",
          "name": "",
          "type": "address"
        },
        {
          "internalType": "address",
          "name": "",
          "type": "address"
        },
        {
          "internalType": "uint256",
          "name": "",
          "type": "uint256"
        },
        {
          "internalType": "uint256",
          "name": "",
          "type": "uint256"
        },
        {
          "internalType": "bytes",
          "name": "",
          "type": "bytes"
        }
      ],
      "name": "onERC1155Received",
      "outputs": [
        {
          "internalType": "bytes4",
          "name": "",
          "type": "bytes4"
        }
      ],
      "stateMutability": "nonpayable",
      "type": "function"
    },
    {
      "inputs": [
        {
          "internalType": "address",
          "name": "",
          "type": "address"
        },
        {
          "internalType": "address",
          "name": "",
          "type": "address"
        },
        {
          "internalType": "uint256",
          "name": "",
          "type": "uint256"
        },
        {
          "internalType": "bytes",
          "name": "",
          "type": "bytes"
        }
      ],
      "name": "onERC721Received",
      "outputs": [
        {
          "internalType": "bytes4",
          "name": "",
          "type": "bytes4"
        }
      ],
      "stateMutability": "nonpayable",
      "type": "function"
    },
    {
      "inputs": [
        {
          "internalType": "uint256",
          "name": "proposalId",
          "type": "uint256"
        }
      ],
      "name": "proposalDeadline",
      "outputs": [
        {
          "internalType": "uint256",
          "name": "",
          "type": "uint256"
        }
      ],
      "stateMutability": "view",
      "type": "function"
    },
    {
      "inputs": [
        {
          "internalType": "uint256",
          "name": "proposalId",
          "type": "uint256"
        }
      ],
      "name": "proposalEta",
      "outputs": [
        {
          "internalType": "uint256",
          "name": "",
          "type": "uint256"
        }
      ],
      "stateMutability": "view",
      "type": "function"
    },
    {
      "inputs": [
        {
          "internalType": "uint256",
          "name": "proposalId",
          "type": "uint256"
        }
      ],
      "name": "proposalSnapshot",
      "outputs": [
        {
          "internalType": "uint256",
          "name": "",
          "type": "uint256"
        }
      ],
      "stateMutability": "view",
      "type": "function"
    },
    {
      "inputs": [
        {
          "internalType": "uint256",
          "name": "proposalId",
          "type": "uint256"
        }
      ],
      "name": "proposalVotes",
      "outputs": [
        {
          "internalType": "uint256",
          "name": "againstVotes",
          "type": "uint256"
        },
        {
          "internalType": "uint256",
          "name": "forVotes",
          "type": "uint256"
        },
        {
          "internalType": "uint256",
          "name": "abstainVotes",
          "type": "uint256"
        }
      ],
      "stateMutability": "view",
      "type": "function"
    },
    {
      "inputs": [
        {
          "internalType": "address[]",
          "name": "targets",
          "type": "address[]"
        },
        {
          "internalType": "uint256[]",
          "name": "values",
          "type": "uint256[]"
        },
        {
          "internalType": "bytes[]",
          "name": "calldatas",
          "type": "bytes[]"
        },
        {
          "internalType": "string",
          "name": "description",
          "type": "string"
        }
      ],
      "name": "propose",
      "outputs": [
        {
          "internalType": "uint256",
          "name": "",
          "type": "uint256"
        }
      ],
      "stateMutability": "nonpayable",
      "type": "function"
    },
    {
      "inputs": [
        {
          "internalType": "address[]",
          "name": "targets",
          "type": "address[]"
        },
        {
          "internalType": "uint256[]",
          "name": "values",
          "type": "uint256[]"
        },
        {
          "internalType": "bytes[]",
          "name": "calldatas",
          "type": "bytes[]"
        },
        {
          "internalType": "bytes32",
          "name": "descriptionHash",
          "type": "bytes32"
        }
      ],
      "name": "queue",
      "outputs": [
        {
          "internalType": "uint256",
          "name": "",
          "type": "uint256"
        }
      ],
      "stateMutability": "nonpayable",
      "type": "function"
    },
    {
      "inputs": [],
      "name": "quorumDenominator",
      "outputs": [
        {
          "internalType": "uint256",
          "name": "",
          "type": "uint256"
        }
      ],
      "stateMutability": "view",
      "type": "function"
    },
    {
      "inputs": [],
      "name": "quorumNumerator",
      "outputs": [
        {
          "internalType": "uint256",
          "name": "",
          "type": "uint256"
        }
      ],
      "stateMutability": "view",
      "type": "function"
    },
    {
      "inputs": [
        {
          "internalType": "address",
          "name": "target",
          "type": "address"
        },
        {
          "internalType": "uint256",
          "name": "value",
          "type": "uint256"
        },
        {
          "internalType": "bytes",
          "name": "data",
          "type": "bytes"
        }
      ],
      "name": "relay",
      "outputs": [],
      "stateMutability": "nonpayable",
      "type": "function"
    },
    {
      "inputs": [
        {
          "internalType": "uint256",
          "name": "newProposalThreshold",
          "type": "uint256"
        }
      ],
      "name": "setProposalThreshold",
      "outputs": [],
      "stateMutability": "nonpayable",
      "type": "function"
    },
    {
      "inputs": [
        {
          "internalType": "uint256",
          "name": "newVotingDelay",
          "type": "uint256"
        }
      ],
      "name": "setVotingDelay",
      "outputs": [],
      "stateMutability": "nonpayable",
      "type": "function"
    },
    {
      "inputs": [
        {
          "internalType": "uint256",
          "name": "newVotingPeriod",
          "type": "uint256"
        }
      ],
      "name": "setVotingPeriod",
      "outputs": [],
      "stateMutability": "nonpayable",
      "type": "function"
    },
    {
      "inputs": [],
      "name": "timelock",
      "outputs": [
        {
          "internalType": "address",
          "name": "",
          "type": "address"
        }
      ],
      "stateMutability": "view",
      "type": "function"
    },
    {
      "inputs": [],
      "name": "token",
      "outputs": [
        {
          "internalType": "contract IVotes",
          "name": "",
          "type": "address"
        }
      ],
      "stateMutability": "view",
      "type": "function"
    },
    {
      "inputs": [
        {
          "internalType": "uint256",
          "name": "newQuorumNumerator",
          "type": "uint256"
        }
      ],
      "name": "updateQuorumNumerator",
      "outputs": [],
      "stateMutability": "nonpayable",
      "type": "function"
    },
    {
      "inputs": [
        {
          "internalType": "contract TimelockController",
          "name": "newTimelock",
          "type": "address"
        }
      ],
      "name": "updateTimelock",
      "outputs": [],
      "stateMutability": "nonpayable",
      "type": "function"
    },
    {
      "inputs": [],
      "name": "version",
      "outputs": [
        {
          "internalType": "string",
          "name": "",
          "type": "string"
        }
      ],
      "stateMutability": "view",
      "type": "function"
    },
    {
      "inputs": [],
      "name": "votingDelay",
      "outputs": [
        {
          "internalType": "uint256",
          "name": "",
          "type": "uint256"
        }
      ],
      "stateMutability": "view",
      "type": "function"
    },
    {
      "inputs": [],
      "name": "votingPeriod",
      "outputs": [
        {
          "internalType": "uint256",
          "name": "",
          "type": "uint256"
        }
      ],
      "stateMutability": "view",
      "type": "function"
    },
    {
      "stateMutability": "payable",
      "type": "receive"
    },
    {
      "inputs": [
        {
          "internalType": "bytes4",
          "name": "interfaceId",
          "type": "bytes4"
        }
      ],
      "name": "supportsInterface",
      "outputs": [
        {
          "internalType": "bool",
          "name": "",
          "type": "bool"
        }
      ],
      "stateMutability": "view",
      "type": "function"
    },
    {
      "inputs": [
        {
          "internalType": "uint256",
          "name": "blockNumber",
          "type": "uint256"
        }
      ],
      "name": "quorum",
      "outputs": [
        {
          "internalType": "uint256",
          "name": "",
          "type": "uint256"
        }
      ],
      "stateMutability": "view",
      "type": "function"
    },
    {
      "inputs": [
        {
          "internalType": "address[]",
          "name": "targets",
          "type": "address[]"
        },
        {
          "internalType": "uint256[]",
          "name": "values",
          "type": "uint256[]"
        },
        {
          "internalType": "bytes[]",
          "name": "calldatas",
          "type": "bytes[]"
        },
        {
          "internalType": "bytes32",
          "name": "descriptionHash",
          "type": "bytes32"
        }
      ],
      "name": "cancel",
      "outputs": [
        {
          "internalType": "uint256",
          "name": "proposalId",
          "type": "uint256"
        }
      ],
      "stateMutability": "nonpayable",
      "type": "function"
    },
    {
      "inputs": [
        {
          "internalType": "uint256",
          "name": "proposalId",
          "type": "uint256"
        }
      ],
      "name": "state",
      "outputs": [
        {
          "internalType": "enum IGovernor.ProposalState",
          "name": "",
          "type": "uint8"
        }
      ],
      "stateMutability": "view",
      "type": "function"
    },
    {
      "inputs": [],
      "name": "proposalThreshold",
      "outputs": [
        {
          "internalType": "uint256",
          "name": "",
          "type": "uint256"
        }
      ],
      "stateMutability": "view",
      "type": "function"
    },
    {
      "inputs": [],
      "name": "nonGovernanceFunction",
      "outputs": [],
      "stateMutability": "nonpayable",
      "type": "function"
    }
  ],
  "bytecode": "0x6101606040523480156200001257600080fd5b5060405162003ee438038062003ee4833981016040819052620000359162000496565b808583868660008b806200005d6040805180820190915260018152603160f81b602082015290565b815160208084019190912082518383012060e08290526101008190524660a0818152604080517f8b73c3c69bb8fe3d512ecc4cf759cc79239f7b179b0ffacaa9a75d522b39400f81880181905281830187905260608201869052608082019490945230818401528151808203909301835260c00190528051940193909320919290916080523060c0526101205250508251620001039250600091506020840190620003bd565b506200011190508362000161565b6200011c82620001a2565b620001278162000249565b5050506200013b816200028a60201b60201c565b506001600160a01b0316610140526200015481620002f3565b50505050505050620005f1565b60045460408051918252602082018390527fc565b045403dc03c2eea82b81a0465edad9e2e7fc4d97e11421c209da93d7a93910160405180910390a1600455565b60008111620002085760405162461bcd60e51b815260206004820152602760248201527f476f7665726e6f7253657474696e67733a20766f74696e6720706572696f6420604482015266746f6f206c6f7760c81b60648201526084015b60405180910390fd5b60055460408051918252602082018390527f7e3f7f0708a84de9203036abaa450dccc85ad5ff52f78c170f3edb55cf5e8828910160405180910390a1600555565b60065460408051918252602082018390527fccb45da8d5717e6c4544694297c4ba5cf151d455c9bb0ed4fc7a38411bc05461910160405180910390a1600655565b600754604080516001600160a01b03928316815291831660208301527f08f74ea46ef7894f65eabfb5e6e695de773a000b47c529ab559178069b226401910160405180910390a1600780546001600160a01b0319166001600160a01b0392909216919091179055565b6064811115620003785760405162461bcd60e51b815260206004820152604360248201527f476f7665726e6f72566f74657351756f72756d4672616374696f6e3a2071756f60448201527f72756d4e756d657261746f72206f7665722071756f72756d44656e6f6d696e616064820152623a37b960e91b608482015260a401620001ff565b600980549082905560408051828152602081018490527f0553476bf02ef2726e8ce5ced78d63e26e602e4a2257b1f559418e24b4633997910160405180910390a15050565b828054620003cb90620005b5565b90600052602060002090601f016020900481019282620003ef57600085556200043a565b82601f106200040a57805160ff19168380011785556200043a565b828001600101855582156200043a579182015b828111156200043a5782518255916020019190600101906200041d565b50620004489291506200044c565b5090565b5b808211156200044857600081556001016200044d565b634e487b7160e01b600052604160045260246000fd5b80516001600160a01b03811681146200049157600080fd5b919050565b60008060008060008060c08789031215620004b057600080fd5b86516001600160401b0380821115620004c857600080fd5b818901915089601f830112620004dd57600080fd5b815181811115620004f257620004f262000463565b604051601f8201601f19908116603f011681019083821181831017156200051d576200051d62000463565b81604052828152602093508c848487010111156200053a57600080fd5b600091505b828210156200055e57848201840151818301850152908301906200053f565b82821115620005705760008484830101525b99506200058291505089820162000479565b965050506040870151935060608701519250620005a26080880162000479565b915060a087015190509295509295509295565b600181811c90821680620005ca57607f821691505b602082108103620005eb57634e487b7160e01b600052602260045260246000fd5b50919050565b60805160a05160c05160e05161010051610120516101405161388a6200065a600039600081816107e501528181611bf00152611de901526000611f6501526000611fb401526000611f8f01526000611ee801526000611f1201526000611f3c015261388a6000f3fe6080604052600436106101e55760003560e01c806301ffc9a71461020d57806302a251a314610242578063034201811461026157806306f3f9e61461028157806306fdde03146102a1578063150b7a02146102c3578063160cbed7146102fc5780632656227d1461031c5780632d63f6931461032f5780632fe3e2611461034f5780633932abb1146103715780633bccf4fd146103865780633e4f49e6146103a6578063417491db146103d357806343859632146103df578063452115d614610429578063544ffc9c1461044957806354fd4d501461049e57806356781388146104c85780635f398a14146104e857806370b0f660146105085780637b3c71d3146105285780637d5e81e21461054857806397c3d334146105685780639a802a6d1461057c578063a7713a701461059c578063a890c910146105b1578063ab58fb8e146105d1578063b58131b0146105f1578063bc197c8114610606578063c01f9e3714610632578063c28bc2fa14610652578063c59057e414610672578063d33219b414610692578063dd4e2ba5146106bf578063deaaa7cc14610705578063ea0217cf14610727578063eb9019d414610747578063ece40cc114610767578063f23a6e6114610787578063f8ce560a146107b3578063fc0c546a146107d357600080fd5b3661020857306101f3610807565b6001600160a01b03161461020657600080fd5b005b600080fd5b34801561021957600080fd5b5061022d610228366004612947565b610816565b60405190151581526020015b60405180910390f35b34801561024e57600080fd5b506005545b604051908152602001610239565b34801561026d57600080fd5b5061025361027c366004612a8c565b610827565b34801561028d57600080fd5b5061020661029c366004612b32565b61090d565b3480156102ad57600080fd5b506102b66109a0565b6040516102399190612ba7565b3480156102cf57600080fd5b506102e36102de366004612bcf565b610a32565b6040516001600160e01b03199091168152602001610239565b34801561030857600080fd5b50610253610317366004612dab565b610a43565b61025361032a366004612dab565b610c41565b34801561033b57600080fd5b5061025361034a366004612b32565b610d2e565b34801561035b57600080fd5b5061025360008051602061380c83398151915281565b34801561037d57600080fd5b50600454610253565b34801561039257600080fd5b506102536103a1366004612e3a565b610d65565b3480156103b257600080fd5b506103c66103c1366004612b32565b610dc9565b6040516102399190612e9e565b34801561020657600080fd5b3480156103eb57600080fd5b5061022d6103fa366004612ec6565b6000828152600a602090815260408083206001600160a01b038516845260030190915290205460ff1692915050565b34801561043557600080fd5b50610253610444366004612dab565b610dd4565b34801561045557600080fd5b50610483610464366004612b32565b6000908152600a60205260409020805460018201546002909201549092565b60408051938452602084019290925290820152606001610239565b3480156104aa57600080fd5b506040805180820190915260018152603160f81b60208201526102b6565b3480156104d457600080fd5b506102536104e3366004612ef6565b610deb565b3480156104f457600080fd5b50610253610503366004612f22565b610e0c565b34801561051457600080fd5b50610206610523366004612b32565b610e56565b34801561053457600080fd5b50610253610543366004612fa5565b610edd565b34801561055457600080fd5b50610253610563366004612ffe565b610f2f565b34801561057457600080fd5b506064610253565b34801561058857600080fd5b506102536105973660046130b2565b6111ce565b3480156105a857600080fd5b50600954610253565b3480156105bd57600080fd5b506102066105cc36600461310a565b6111db565b3480156105dd57600080fd5b506102536105ec366004612b32565b611262565b3480156105fd57600080fd5b506102536112fd565b34801561061257600080fd5b506102e3610621366004613127565b63bc197c8160e01b95945050505050565b34801561063e57600080fd5b5061025361064d366004612b32565b611308565b34801561065e57600080fd5b5061020661066d3660046131ba565b611337565b34801561067e57600080fd5b5061025361068d366004612dab565b6113fe565b34801561069e57600080fd5b506106a7611438565b6040516001600160a01b039091168152602001610239565b3480156106cb57600080fd5b506040805180820190915260208082527f737570706f72743d627261766f2671756f72756d3d666f722c6162737461696e908201526102b6565b34801561071157600080fd5b506102536000805160206137ec83398151915281565b34801561073357600080fd5b50610206610742366004612b32565b611447565b34801561075357600080fd5b506102536107623660046131fd565b6114ce565b34801561077357600080fd5b50610206610782366004612b32565b6114ef565b34801561079357600080fd5b506102e36107a2366004613229565b63f23a6e6160e01b95945050505050565b3480156107bf57600080fd5b506102536107ce366004612b32565b611576565b3480156107df57600080fd5b506106a77f000000000000000000000000000000000000000000000000000000000000000081565b6000610811611438565b905090565b600061082182611581565b92915050565b6000806108b96108b160008051602061380c8339815191528c8c8c8c604051610851929190613291565b60405180910390208b80519060200120604051602001610896959493929190948552602085019390935260ff9190911660408401526060830152608082015260a00190565b604051602081830303815290604052805190602001206115a6565b8686866115f4565b90506108ff8a828b8b8b8080601f0160208091040260200160405190810160405280939291908181526020018383808284376000920191909152508d9250611612915050565b9a9950505050505050505050565b610915610807565b6001600160a01b0316336001600160a01b03161461094e5760405162461bcd60e51b8152600401610945906132a1565b60405180910390fd5b30610957610807565b6001600160a01b0316146109945760008036604051610977929190613291565b604051809103902090505b8061098d6002611777565b0361098257505b61099d816117dd565b50565b6060600080546109af906132d3565b80601f01602080910402602001604051908101604052809291908181526020018280546109db906132d3565b8015610a285780601f106109fd57610100808354040283529160200191610a28565b820191906000526020600020905b815481529060010190602001808311610a0b57829003601f168201915b5050505050905090565b630a85bd0160e11b5b949350505050565b600080610a52868686866113fe565b90506004610a5f82610dc9565b6007811115610a7057610a70612e88565b14610a8d5760405162461bcd60e51b81526004016109459061330d565b6007546040805163793d064960e11b815290516000926001600160a01b03169163f27a0c929160048083019260209291908290030181865afa158015610ad7573d6000803e3d6000fd5b505050506040513d601f19601f82011682018060405250810190610afb919061334e565b60075460405163b1c5f42760e01b81529192506001600160a01b03169063b1c5f42790610b35908a908a908a906000908b90600401613430565b602060405180830381865afa158015610b52573d6000803e3d6000fd5b505050506040513d601f19601f82011682018060405250810190610b76919061334e565b6000838152600860205260408082209290925560075491516308f2a0bb60e41b81526001600160a01b0390921691638f2a0bb091610bc1918b918b918b91908b90899060040161347e565b600060405180830381600087803b158015610bdb57600080fd5b505af1158015610bef573d6000803e3d6000fd5b505050507f9a2e42fd6722813d69113e7d0079d3d940171428df7373df9c7f7617cfda2892828242610c2191906134ec565b604051610c2f929190613504565b60405180910390a15095945050505050565b600080610c50868686866113fe565b90506000610c5d82610dc9565b90506004816007811115610c7357610c73612e88565b1480610c9057506005816007811115610c8e57610c8e612e88565b145b610cac5760405162461bcd60e51b81526004016109459061330d565b600082815260016020818152604092839020600201805460ff191690921790915590518381527f712ae1383f79ac853f8d882153778e0260ef8f03b504e2866e0593e04d2b291f910160405180910390a1610d0a82888888886118a6565b610d178288888888611947565b610d248288888888611954565b5095945050505050565b60008181526001602090815260408083208151928301909152546001600160401b0316908190525b6001600160401b031692915050565b604080516000805160206137ec833981519152602082015290810186905260ff851660608201526000908190610da1906108b190608001610896565b9050610dbe87828860405180602001604052806000815250611983565b979650505050505050565b6000610821826119a6565b6000610de285858585611af0565b95945050505050565b600080339050610a3b84828560405180602001604052806000815250611983565b600080339050610dbe87828888888080601f0160208091040260200160405190810160405280939291908181526020018383808284376000920191909152508a9250611612915050565b610e5e610807565b6001600160a01b0316336001600160a01b031614610e8e5760405162461bcd60e51b8152600401610945906132a1565b30610e97610807565b6001600160a01b031614610ed45760008036604051610eb7929190613291565b604051809103902090505b80610ecd6002611777565b03610ec257505b61099d81611afe565b600080339050610f2586828787878080601f01602080910402602001604051908101604052809392919081815260200183838082843760009201919091525061198392505050565b9695505050505050565b6000610f396112fd565b610f4833610762600143613512565b1015610fb05760405162461bcd60e51b815260206004820152603160248201527f476f7665726e6f723a2070726f706f73657220766f7465732062656c6f7720706044820152701c9bdc1bdcd85b081d1a1c995cda1bdb19607a1b6064820152608401610945565b6000610fc586868686805190602001206113fe565b90508451865114610fe85760405162461bcd60e51b815260040161094590613529565b83518651146110095760405162461bcd60e51b815260040161094590613529565b60008651116110555760405162461bcd60e51b815260206004820152601860248201527711dbdd995c9b9bdc8e88195b5c1d1e481c1c9bdc1bdcd85b60421b6044820152606401610945565b600081815260016020908152604091829020825191820190925281546001600160401b031690819052156110d55760405162461bcd60e51b815260206004820152602160248201527f476f7665726e6f723a2070726f706f73616c20616c72656164792065786973746044820152607360f81b6064820152608401610945565b60006110e86110e360045490565b611b3e565b6110f143611b3e565b6110fb919061356a565b9050600061110b6110e360055490565b611115908361356a565b90506111218383611baa565b61112e6001840182611baa565b7f7d84a6263ae0d98d3329bd7b46bb4e8d6f98cd35a7adb45c274c8b7fd5ebd5e084338b8b8d516001600160401b0381111561116c5761116c6129cf565b60405190808252806020026020018201604052801561119f57816020015b606081526020019060019003908161118a5790505b508c88888e6040516111b999989796959493929190613595565b60405180910390a15091979650505050505050565b6000610a3b848484611bc7565b6111e3610807565b6001600160a01b0316336001600160a01b0316146112135760405162461bcd60e51b8152600401610945906132a1565b3061121c610807565b6001600160a01b031614611259576000803660405161123c929190613291565b604051809103902090505b806112526002611777565b0361124757505b61099d81611c5d565b60075460008281526008602052604080822054905163d45c443560e01b81526004810191909152909182916001600160a01b039091169063d45c443590602401602060405180830381865afa1580156112bf573d6000803e3d6000fd5b505050506040513d601f19601f820116820180604052508101906112e3919061334e565b9050806001146112f357806112f6565b60005b9392505050565b600061081160065490565b60008181526001602081815260408084208151928301909152909101546001600160401b031690819052610d56565b61133f610807565b6001600160a01b0316336001600160a01b03161461136f5760405162461bcd60e51b8152600401610945906132a1565b30611378610807565b6001600160a01b0316146113b55760008036604051611398929190613291565b604051809103902090505b806113ae6002611777565b036113a357505b6113f78483838080601f016020809104026020016040519081016040528093929190818152602001838380828437600092019190915250889250611cc6915050565b5050505050565b6000848484846040516020016114179493929190613684565b60408051601f19818403018152919052805160209091012095945050505050565b6007546001600160a01b031690565b61144f610807565b6001600160a01b0316336001600160a01b03161461147f5760405162461bcd60e51b8152600401610945906132a1565b30611488610807565b6001600160a01b0316146114c557600080366040516114a8929190613291565b604051809103902090505b806114be6002611777565b036114b357505b61099d81611cec565b60006112f683836114ea60408051602081019091526000815290565b611bc7565b6114f7610807565b6001600160a01b0316336001600160a01b0316146115275760405162461bcd60e51b8152600401610945906132a1565b30611530610807565b6001600160a01b03161461156d5760008036604051611550929190613291565b604051809103902090505b806115666002611777565b0361155b57505b61099d81611d8c565b600061082182611dcc565b60006001600160e01b03198216636e665ced60e01b1480610821575061082182611e70565b60006108216115b3611edb565b8360405161190160f01b6020820152602281018390526042810182905260009060620160405160208183030381529060405280519060200120905092915050565b600080600061160587878787612002565b91509150610d24816120e5565b600085815260016020819052604082209061162c88610dc9565b600781111561163d5761163d612e88565b146116965760405162461bcd60e51b815260206004820152602360248201527f476f7665726e6f723a20766f7465206e6f742063757272656e746c792061637460448201526269766560e81b6064820152608401610945565b604080516020810190915281546001600160401b0316908190526000906116bf90889086611bc7565b90506116ce8888888488612296565b835160000361172357866001600160a01b03167fb8e138887d0aa13bab447e82de9d5c1777041ecd21ca36ba824ff1e6c07ddda48988848960405161171694939291906136cf565b60405180910390a2610dbe565b866001600160a01b03167fe2babfbac5889a709b63bb7f598b324e08bc5a4fb9ec647fb3cbc9ec07eb871289888489896040516117649594939291906136f7565b60405180910390a2979650505050505050565b600061178282612410565b156117a057604051631ed9509560e11b815260040160405180910390fd5b508054600f0b6000818152600180840160205260408220805492905583546001600160801b03191692016001600160801b03169190911790915590565b60648111156118605760405162461bcd60e51b815260206004820152604360248201527f476f7665726e6f72566f74657351756f72756d4672616374696f6e3a2071756f60448201527f72756d4e756d657261746f72206f7665722071756f72756d44656e6f6d696e616064820152623a37b960e91b608482015260a401610945565b60098054908290556040517f0553476bf02ef2726e8ce5ced78d63e26e602e4a2257b1f559418e24b46339979061189a9083908590613504565b60405180910390a15050565b306118af610807565b6001600160a01b0316146113f75760005b845181101561193f57306001600160a01b03168582815181106118e5576118e561373d565b60200260200101516001600160a01b03160361192f5761192f8382815181106119105761191061373d565b602002602001015180519060200120600261242590919063ffffffff16565b61193881613753565b90506118c0565b505050505050565b6113f78585858585612461565b3061195d610807565b6001600160a01b0316146113f7576119756002612410565b6113f75760006002556113f7565b6000610de2858585856119a160408051602081019091526000815290565b611612565b6000806119b2836124d5565b905060048160078111156119c8576119c8612e88565b146119d35792915050565b600083815260086020526040902054806119ee575092915050565b600754604051632ab0f52960e01b8152600481018390526001600160a01b0390911690632ab0f52990602401602060405180830381865afa158015611a37573d6000803e3d6000fd5b505050506040513d601f19601f82011682018060405250810190611a5b919061376c565b15611a6a575060079392505050565b600754604051632c258a9f60e11b8152600481018390526001600160a01b039091169063584b153e90602401602060405180830381865afa158015611ab3573d6000803e3d6000fd5b505050506040513d601f19601f82011682018060405250810190611ad7919061376c565b15611ae6575060059392505050565b5060029392505050565b6000610de2858585856125e4565b7fc565b045403dc03c2eea82b81a0465edad9e2e7fc4d97e11421c209da93d7a9360045482604051611b31929190613504565b60405180910390a1600455565b60006001600160401b03821115611ba65760405162461bcd60e51b815260206004820152602660248201527f53616665436173743a2076616c756520646f65736e27742066697420696e203660448201526534206269747360d01b6064820152608401610945565b5090565b81546001600160401b0319166001600160401b0391909116179055565b604051630748d63560e31b81526001600160a01b038481166004830152602482018490526000917f000000000000000000000000000000000000000000000000000000000000000090911690633a46b1a890604401602060405180830381865afa158015611c39573d6000803e3d6000fd5b505050506040513d601f19601f82011682018060405250810190610a3b919061334e565b600754604080516001600160a01b03928316815291831660208301527f08f74ea46ef7894f65eabfb5e6e695de773a000b47c529ab559178069b226401910160405180910390a1600780546001600160a01b0319166001600160a01b0392909216919091179055565b6060610a3b84848460405180606001604052806029815260200161382c60299139612696565b60008111611d4c5760405162461bcd60e51b815260206004820152602760248201527f476f7665726e6f7253657474696e67733a20766f74696e6720706572696f6420604482015266746f6f206c6f7760c81b6064820152608401610945565b7f7e3f7f0708a84de9203036abaa450dccc85ad5ff52f78c170f3edb55cf5e882860055482604051611d7f929190613504565b60405180910390a1600555565b7fccb45da8d5717e6c4544694297c4ba5cf151d455c9bb0ed4fc7a38411bc0546160065482604051611dbf929190613504565b60405180910390a1600655565b60006064600954604051632394e7a360e21b8152600481018590527f00000000000000000000000000000000000000000000000000000000000000006001600160a01b031690638e539e8c90602401602060405180830381865afa158015611e38573d6000803e3d6000fd5b505050506040513d601f19601f82011682018060405250810190611e5c919061334e565b611e66919061378e565b61082191906137ad565b60006001600160e01b0319821663bf26d89760e01b1480611ea157506001600160e01b031982166379dd796f60e01b145b80611ebc57506001600160e01b03198216630271189760e51b145b8061082157506301ffc9a760e01b6001600160e01b0319831614610821565b6000306001600160a01b037f000000000000000000000000000000000000000000000000000000000000000016148015611f3457507f000000000000000000000000000000000000000000000000000000000000000046145b15611f5e57507f000000000000000000000000000000000000000000000000000000000000000090565b50604080517f00000000000000000000000000000000000000000000000000000000000000006020808301919091527f0000000000000000000000000000000000000000000000000000000000000000828401527f000000000000000000000000000000000000000000000000000000000000000060608301524660808301523060a0808401919091528351808403909101815260c0909201909252805191012090565b6000806fa2a8918ca85bafe22016d0b997e4df60600160ff1b0383111561202f57506000905060036120dc565b8460ff16601b1415801561204757508460ff16601c14155b1561205857506000905060046120dc565b6040805160008082526020820180845289905260ff881692820192909252606081018690526080810185905260019060a0016020604051602081039080840390855afa1580156120ac573d6000803e3d6000fd5b5050604051601f1901519150506001600160a01b0381166120d5576000600192509250506120dc565b9150600090505b94509492505050565b60008160048111156120f9576120f9612e88565b036121015750565b600181600481111561211557612115612e88565b0361215d5760405162461bcd60e51b815260206004820152601860248201527745434453413a20696e76616c6964207369676e617475726560401b6044820152606401610945565b600281600481111561217157612171612e88565b036121be5760405162461bcd60e51b815260206004820152601f60248201527f45434453413a20696e76616c6964207369676e6174757265206c656e677468006044820152606401610945565b60038160048111156121d2576121d2612e88565b0361222a5760405162461bcd60e51b815260206004820152602260248201527f45434453413a20696e76616c6964207369676e6174757265202773272076616c604482015261756560f01b6064820152608401610945565b600481600481111561223e5761223e612e88565b0361099d5760405162461bcd60e51b815260206004820152602260248201527f45434453413a20696e76616c6964207369676e6174757265202776272076616c604482015261756560f01b6064820152608401610945565b6000858152600a602090815260408083206001600160a01b0388168452600381019092529091205460ff161561231e5760405162461bcd60e51b815260206004820152602760248201527f476f7665726e6f72566f74696e6753696d706c653a20766f746520616c726561604482015266191e4818d85cdd60ca1b6064820152608401610945565b6001600160a01b03851660009081526003820160205260409020805460ff1916600117905560ff841661236a578281600001600082825461235f91906134ec565b9091555061193f9050565b60001960ff85160161238a578281600101600082825461235f91906134ec565b60011960ff8516016123aa578281600201600082825461235f91906134ec565b60405162461bcd60e51b815260206004820152603560248201527f476f7665726e6f72566f74696e6753696d706c653a20696e76616c69642076616044820152746c756520666f7220656e756d20566f74655479706560581b6064820152608401610945565b54600f81810b600160801b909204900b131590565b8154600160801b90819004600f0b6000818152600180860160205260409091209390935583546001600160801b03908116939091011602179055565b60075460405163e38335e560e01b81526001600160a01b039091169063e38335e590349061249c908890889088906000908990600401613430565b6000604051808303818588803b1580156124b557600080fd5b505af11580156124c9573d6000803e3d6000fd5b50505050505050505050565b6000818152600160205260408120600281015460ff16156124f95750600792915050565b6002810154610100900460ff16156125145750600292915050565b600061251f84610d2e565b9050806000036125715760405162461bcd60e51b815260206004820152601d60248201527f476f7665726e6f723a20756e6b6e6f776e2070726f706f73616c2069640000006044820152606401610945565b438110612582575060009392505050565b600061258d85611308565b90504381106125a157506001949350505050565b6125aa85612766565b80156125c957506000858152600a602052604090208054600190910154115b156125d957506004949350505050565b506003949350505050565b6000806125f38686868661279d565b60008181526008602052604090205490915015610de2576007546000828152600860205260409081902054905163c4d252f560e01b81526001600160a01b039092169163c4d252f59161264c9160040190815260200190565b600060405180830381600087803b15801561266657600080fd5b505af115801561267a573d6000803e3d6000fd5b5050506000828152600860205260408120555095945050505050565b6060824710156126f75760405162461bcd60e51b815260206004820152602660248201527f416464726573733a20696e73756666696369656e742062616c616e636520666f6044820152651c8818d85b1b60d21b6064820152608401610945565b600080866001600160a01b0316858760405161271391906137cf565b60006040518083038185875af1925050503d8060008114612750576040519150601f19603f3d011682016040523d82523d6000602084013e612755565b606091505b5091509150610dbe878383876128a9565b6000818152600a602052604081206002810154600182015461278891906134ec565b6127946107ce85610d2e565b11159392505050565b6000806127ac868686866113fe565b905060006127b982610dc9565b905060028160078111156127cf576127cf612e88565b141580156127ef575060068160078111156127ec576127ec612e88565b14155b801561280d5750600781600781111561280a5761280a612e88565b14155b6128595760405162461bcd60e51b815260206004820152601d60248201527f476f7665726e6f723a2070726f706f73616c206e6f74206163746976650000006044820152606401610945565b60008281526001602052604090819020600201805461ff001916610100179055517f789cf55be980739dad1d0699b93b58e806b51c9d96619bfa8fe0a28abaa7b30c90610c2f9084815260200190565b60608315612918578251600003612911576001600160a01b0385163b6129115760405162461bcd60e51b815260206004820152601d60248201527f416464726573733a2063616c6c20746f206e6f6e2d636f6e74726163740000006044820152606401610945565b5081610a3b565b610a3b838381511561292d5781518083602001fd5b8060405162461bcd60e51b81526004016109459190612ba7565b60006020828403121561295957600080fd5b81356001600160e01b0319811681146112f657600080fd5b803560ff8116811461298257600080fd5b919050565b60008083601f84011261299957600080fd5b5081356001600160401b038111156129b057600080fd5b6020830191508360208285010111156129c857600080fd5b9250929050565b634e487b7160e01b600052604160045260246000fd5b604051601f8201601f191681016001600160401b0381118282101715612a0d57612a0d6129cf565b604052919050565b60006001600160401b03831115612a2e57612a2e6129cf565b612a41601f8401601f19166020016129e5565b9050828152838383011115612a5557600080fd5b828260208301376000602084830101529392505050565b600082601f830112612a7d57600080fd5b6112f683833560208501612a15565b60008060008060008060008060e0898b031215612aa857600080fd5b88359750612ab860208a01612971565b965060408901356001600160401b0380821115612ad457600080fd5b612ae08c838d01612987565b909850965060608b0135915080821115612af957600080fd5b50612b068b828c01612a6c565b945050612b1560808a01612971565b925060a0890135915060c089013590509295985092959890939650565b600060208284031215612b4457600080fd5b5035919050565b60005b83811015612b66578181015183820152602001612b4e565b83811115612b75576000848401525b50505050565b60008151808452612b93816020860160208601612b4b565b601f01601f19169290920160200192915050565b6020815260006112f66020830184612b7b565b6001600160a01b038116811461099d57600080fd5b60008060008060808587031215612be557600080fd5b8435612bf081612bba565b93506020850135612c0081612bba565b92506040850135915060608501356001600160401b03811115612c2257600080fd5b612c2e87828801612a6c565b91505092959194509250565b60006001600160401b03821115612c5357612c536129cf565b5060051b60200190565b600082601f830112612c6e57600080fd5b81356020612c83612c7e83612c3a565b6129e5565b82815260059290921b84018101918181019086841115612ca257600080fd5b8286015b84811015612cc6578035612cb981612bba565b8352918301918301612ca6565b509695505050505050565b600082601f830112612ce257600080fd5b81356020612cf2612c7e83612c3a565b82815260059290921b84018101918181019086841115612d1157600080fd5b8286015b84811015612cc65780358352918301918301612d15565b600082601f830112612d3d57600080fd5b81356020612d4d612c7e83612c3a565b82815260059290921b84018101918181019086841115612d6c57600080fd5b8286015b84811015612cc65780356001600160401b03811115612d8f5760008081fd5b612d9d8986838b0101612a6c565b845250918301918301612d70565b60008060008060808587031215612dc157600080fd5b84356001600160401b0380821115612dd857600080fd5b612de488838901612c5d565b95506020870135915080821115612dfa57600080fd5b612e0688838901612cd1565b94506040870135915080821115612e1c57600080fd5b50612e2987828801612d2c565b949793965093946060013593505050565b600080600080600060a08688031215612e5257600080fd5b85359450612e6260208701612971565b9350612e7060408701612971565b94979396509394606081013594506080013592915050565b634e487b7160e01b600052602160045260246000fd5b6020810160088310612ec057634e487b7160e01b600052602160045260246000fd5b91905290565b60008060408385031215612ed957600080fd5b823591506020830135612eeb81612bba565b809150509250929050565b60008060408385031215612f0957600080fd5b82359150612f1960208401612971565b90509250929050565b600080600080600060808688031215612f3a57600080fd5b85359450612f4a60208701612971565b935060408601356001600160401b0380821115612f6657600080fd5b612f7289838a01612987565b90955093506060880135915080821115612f8b57600080fd5b50612f9888828901612a6c565b9150509295509295909350565b60008060008060608587031215612fbb57600080fd5b84359350612fcb60208601612971565b925060408501356001600160401b03811115612fe657600080fd5b612ff287828801612987565b95989497509550505050565b6000806000806080858703121561301457600080fd5b84356001600160401b038082111561302b57600080fd5b61303788838901612c5d565b9550602087013591508082111561304d57600080fd5b61305988838901612cd1565b9450604087013591508082111561306f57600080fd5b61307b88838901612d2c565b9350606087013591508082111561309157600080fd5b508501601f810187136130a357600080fd5b612c2e87823560208401612a15565b6000806000606084860312156130c757600080fd5b83356130d281612bba565b92506020840135915060408401356001600160401b038111156130f457600080fd5b61310086828701612a6c565b9150509250925092565b60006020828403121561311c57600080fd5b81356112f681612bba565b600080600080600060a0868803121561313f57600080fd5b853561314a81612bba565b9450602086013561315a81612bba565b935060408601356001600160401b038082111561317657600080fd5b61318289838a01612cd1565b9450606088013591508082111561319857600080fd5b6131a489838a01612cd1565b93506080880135915080821115612f8b57600080fd5b600080600080606085870312156131d057600080fd5b84356131db81612bba565b93506020850135925060408501356001600160401b03811115612fe657600080fd5b6000806040838503121561321057600080fd5b823561321b81612bba565b946020939093013593505050565b600080600080600060a0868803121561324157600080fd5b853561324c81612bba565b9450602086013561325c81612bba565b9350604086013592506060860135915060808601356001600160401b0381111561328557600080fd5b612f9888828901612a6c565b8183823760009101908152919050565b602080825260189082015277476f7665726e6f723a206f6e6c79476f7665726e616e636560401b604082015260600190565b600181811c908216806132e757607f821691505b60208210810361330757634e487b7160e01b600052602260045260246000fd5b50919050565b60208082526021908201527f476f7665726e6f723a2070726f706f73616c206e6f74207375636365737366756040820152601b60fa1b606082015260800190565b60006020828403121561336057600080fd5b5051919050565b600081518084526020808501945080840160005b838110156133a05781516001600160a01b03168752958201959082019060010161337b565b509495945050505050565b600081518084526020808501945080840160005b838110156133a0578151875295820195908201906001016133bf565b600081518084526020808501808196508360051b8101915082860160005b85811015613423578284038952613411848351612b7b565b988501989350908401906001016133f9565b5091979650505050505050565b60a08152600061344360a0830188613367565b828103602084015261345581886133ab565b9050828103604084015261346981876133db565b60608401959095525050608001529392505050565b60c08152600061349160c0830189613367565b82810360208401526134a381896133ab565b905082810360408401526134b781886133db565b60608401969096525050608081019290925260a0909101529392505050565b634e487b7160e01b600052601160045260246000fd5b600082198211156134ff576134ff6134d6565b500190565b918252602082015260400190565b600082821015613524576135246134d6565b500390565b60208082526021908201527f476f7665726e6f723a20696e76616c69642070726f706f73616c206c656e67746040820152600d60fb1b606082015260800190565b60006001600160401b0382811684821680830382111561358c5761358c6134d6565b01949350505050565b60006101208b8352602060018060a01b038c16818501528160408501526135be8285018c613367565b915083820360608501526135d2828b6133ab565b915083820360808501528189518084528284019150828160051b850101838c0160005b8381101561362357601f19878403018552613611838351612b7b565b948601949250908501906001016135f5565b505086810360a0880152613637818c6133db565b94505050505061365260c08401876001600160401b03169052565b6001600160401b03851660e08401528281036101008401526136748185612b7b565b9c9b505050505050505050505050565b6080815260006136976080830187613367565b82810360208401526136a981876133ab565b905082810360408401526136bd81866133db565b91505082606083015295945050505050565b84815260ff84166020820152826040820152608060608201526000610f256080830184612b7b565b85815260ff8516602082015283604082015260a06060820152600061371f60a0830185612b7b565b82810360808401526137318185612b7b565b98975050505050505050565b634e487b7160e01b600052603260045260246000fd5b600060018201613765576137656134d6565b5060010190565b60006020828403121561377e57600080fd5b815180151581146112f657600080fd5b60008160001904831182151516156137a8576137a86134d6565b500290565b6000826137ca57634e487b7160e01b600052601260045260246000fd5b500490565b600082516137e1818460208701612b4b565b919091019291505056fe150214d74d59b7d1e90c73fc22ef3d991dd0a76b046543d4d80ab92d2a50328fb3b3f3b703cd84ce352197dcff232b1b5d3cfb2025ce47cf04742d0651f1af88416464726573733a206c6f772d6c6576656c2063616c6c20776974682076616c7565206661696c6564a26469706673582212209a67108f392013e8e5e430b1fccd86663d6c3f2dce0333cf00bf957a161681e664736f6c634300080e0033",
  "immutableReferences": {
    "7117": [
      {
        "length": 32,
        "start": 2021
      },
      {
        "length": 32,
        "start": 7152
      },
      {
        "length": 32,
        "start": 7657
      }
    ],
    "33049": [
      {
        "length": 32,
        "start": 7996
      }
    ],
    "33051": [
      {
        "length": 32,
        "start": 7954
      }
    ],
    "33053": [
      {
        "length": 32,
        "start": 7912
      }
    ],
    "33055": [
      {
        "length": 32,
        "start": 8079
      }
    ],
    "33057": [
      {
        "length": 32,
        "start": 8116
      }
    ],
    "33059": [
      {
        "length": 32,
        "start": 8037
      }
    ]
  },
  "source": "// SPDX-License-Identifier: MIT\r\n\r\npragma solidity ^0.8.0;\r\n\r\nimport \"../governance/extensions/GovernorTimelockControl.sol\";\r\nimport \"../governance/extensions/GovernorSettings.sol\";\r\nimport \"../governance/extensions/GovernorCountingSimple.sol\";\r\nimport \"../governance/extensions/GovernorVotesQuorumFraction.sol\";\r\n\r\ncontract GovernorTimelockControlMock is\r\n    GovernorSettings,\r\n    GovernorTimelockControl,\r\n    GovernorVotesQuorumFraction,\r\n    GovernorCountingSimple\r\n{\r\n    constructor(\r\n        string memory name_,\r\n        IVotes token_,\r\n        uint256 votingDelay_,\r\n        uint256 votingPeriod_,\r\n        TimelockController timelock_,\r\n        uint256 quorumNumerator_\r\n    )\r\n        Governor(name_)\r\n        GovernorTimelockControl(timelock_)\r\n        GovernorSettings(votingDelay_, votingPeriod_, 0)\r\n        GovernorVotes(token_)\r\n        GovernorVotesQuorumFraction(quorumNumerator_)\r\n    {}\r\n\r\n    function supportsInterface(bytes4 interfaceId)\r\n        public\r\n        view\r\n        virtual\r\n        override(Governor, GovernorTimelockControl)\r\n        returns (bool)\r\n    {\r\n        return super.supportsInterface(interfaceId);\r\n    }\r\n\r\n    function quorum(uint256 blockNumber)\r\n        public\r\n        view\r\n        override(IGovernor, GovernorVotesQuorumFraction)\r\n        returns (uint256)\r\n    {\r\n        return super.quorum(blockNumber);\r\n    }\r\n\r\n    function cancel(\r\n        address[] memory targets,\r\n        uint256[] memory values,\r\n        bytes[] memory calldatas,\r\n        bytes32 descriptionHash\r\n    ) public returns (uint256 proposalId) {\r\n        return _cancel(targets, values, calldatas, descriptionHash);\r\n    }\r\n\r\n    /**\r\n     * Overriding nightmare\r\n     */\r\n    function state(uint256 proposalId)\r\n        public\r\n        view\r\n        virtual\r\n        override(Governor, GovernorTimelockControl)\r\n        returns (ProposalState)\r\n    {\r\n        return super.state(proposalId);\r\n    }\r\n\r\n    function proposalThreshold() public view override(Governor, GovernorSettings) returns (uint256) {\r\n        return super.proposalThreshold();\r\n    }\r\n\r\n    function _execute(\r\n        uint256 proposalId,\r\n        address[] memory targets,\r\n        uint256[] memory values,\r\n        bytes[] memory calldatas,\r\n        bytes32 descriptionHash\r\n    ) internal virtual override(Governor, GovernorTimelockControl) {\r\n        super._execute(proposalId, targets, values, calldatas, descriptionHash);\r\n    }\r\n\r\n    function _cancel(\r\n        address[] memory targets,\r\n        uint256[] memory values,\r\n        bytes[] memory calldatas,\r\n        bytes32 descriptionHash\r\n    ) internal virtual override(Governor, GovernorTimelockControl) returns (uint256 proposalId) {\r\n        return super._cancel(targets, values, calldatas, descriptionHash);\r\n    }\r\n\r\n    function _executor() internal view virtual override(Governor, GovernorTimelockControl) returns (address) {\r\n        return super._executor();\r\n    }\r\n\r\n    function nonGovernanceFunction() external {}\r\n}\r\n",
  "sourcePath": "D:\\work\\www\\yopu_dapp_nft\\contracts\\lib\\openzeppelin\\contracts\\mocks\\GovernorTimelockControlMock.sol",
  "compiler": {
    "name": "solc",
    "version": "0.8.14+commit.80d49f37.Emscripten.clang"
  },
  "schemaVersion": "3.4.7",
  "updatedAt": "2022-06-28T15:05:47.939Z",
  "devdoc": {
    "errors": {
      "Empty()": [
        {
          "details": "An operation (e.g. {front}) couldn't be completed due to the queue being empty."
        }
      ]
    },
    "kind": "dev",
    "methods": {
      "COUNTING_MODE()": {
        "details": "See {IGovernor-COUNTING_MODE}."
      },
      "castVote(uint256,uint8)": {
        "details": "See {IGovernor-castVote}."
      },
      "castVoteBySig(uint256,uint8,uint8,bytes32,bytes32)": {
        "details": "See {IGovernor-castVoteBySig}."
      },
      "castVoteWithReason(uint256,uint8,string)": {
        "details": "See {IGovernor-castVoteWithReason}."
      },
      "castVoteWithReasonAndParams(uint256,uint8,string,bytes)": {
        "details": "See {IGovernor-castVoteWithReasonAndParams}."
      },
      "castVoteWithReasonAndParamsBySig(uint256,uint8,string,bytes,uint8,bytes32,bytes32)": {
        "details": "See {IGovernor-castVoteWithReasonAndParamsBySig}."
      },
      "execute(address[],uint256[],bytes[],bytes32)": {
        "details": "See {IGovernor-execute}."
      },
      "getVotes(address,uint256)": {
        "details": "See {IGovernor-getVotes}."
      },
      "getVotesWithParams(address,uint256,bytes)": {
        "details": "See {IGovernor-getVotesWithParams}."
      },
      "hasVoted(uint256,address)": {
        "details": "See {IGovernor-hasVoted}."
      },
      "hashProposal(address[],uint256[],bytes[],bytes32)": {
        "details": "See {IGovernor-hashProposal}. The proposal id is produced by hashing the RLC encoded `targets` array, the `values` array, the `calldatas` array and the descriptionHash (bytes32 which itself is the keccak256 hash of the description string). This proposal id can be produced from the proposal data which is part of the {ProposalCreated} event. It can even be computed in advance, before the proposal is submitted. Note that the chainId and the governor address are not part of the proposal id computation. Consequently, the same proposal (with same operation and same description) will have the same id if submitted on multiple governors across multiple networks. This also means that in order to execute the same operation twice (on the same governor) the proposer will have to change the description in order to avoid proposal id conflicts."
      },
      "name()": {
        "details": "See {IGovernor-name}."
      },
      "onERC1155BatchReceived(address,address,uint256[],uint256[],bytes)": {
        "details": "See {IERC1155Receiver-onERC1155BatchReceived}."
      },
      "onERC1155Received(address,address,uint256,uint256,bytes)": {
        "details": "See {IERC1155Receiver-onERC1155Received}."
      },
      "onERC721Received(address,address,uint256,bytes)": {
        "details": "See {IERC721Receiver-onERC721Received}."
      },
      "proposalDeadline(uint256)": {
        "details": "See {IGovernor-proposalDeadline}."
      },
      "proposalEta(uint256)": {
        "details": "Public accessor to check the eta of a queued proposal"
      },
      "proposalSnapshot(uint256)": {
        "details": "See {IGovernor-proposalSnapshot}."
      },
      "proposalVotes(uint256)": {
        "details": "Accessor to the internal vote counts."
      },
      "propose(address[],uint256[],bytes[],string)": {
        "details": "See {IGovernor-propose}."
      },
      "queue(address[],uint256[],bytes[],bytes32)": {
        "details": "Function to queue a proposal to the timelock."
      },
      "quorumDenominator()": {
        "details": "Returns the quorum denominator. Defaults to 100, but may be overridden."
      },
      "quorumNumerator()": {
        "details": "Returns the current quorum numerator. See {quorumDenominator}."
      },
      "relay(address,uint256,bytes)": {
        "details": "Relays a transaction or function call to an arbitrary target. In cases where the governance executor is some contract other than the governor itself, like when using a timelock, this function can be invoked in a governance proposal to recover tokens or Ether that was sent to the governor contract by mistake. Note that if the executor is simply the governor itself, use of `relay` is redundant."
      },
      "setProposalThreshold(uint256)": {
        "details": "Update the proposal threshold. This operation can only be performed through a governance proposal. Emits a {ProposalThresholdSet} event."
      },
      "setVotingDelay(uint256)": {
        "details": "Update the voting delay. This operation can only be performed through a governance proposal. Emits a {VotingDelaySet} event."
      },
      "setVotingPeriod(uint256)": {
        "details": "Update the voting period. This operation can only be performed through a governance proposal. Emits a {VotingPeriodSet} event."
      },
      "timelock()": {
        "details": "Public accessor to check the address of the timelock"
      },
      "updateQuorumNumerator(uint256)": {
        "details": "Changes the quorum numerator. Emits a {QuorumNumeratorUpdated} event. Requirements: - Must be called through a governance proposal. - New numerator must be smaller or equal to the denominator."
      },
      "updateTimelock(address)": {
        "details": "Public endpoint to update the underlying timelock instance. Restricted to the timelock itself, so updates must be proposed, scheduled, and executed through governance proposals. CAUTION: It is not recommended to change the timelock while there are other queued governance proposals."
      },
      "version()": {
        "details": "See {IGovernor-version}."
      },
      "votingDelay()": {
        "details": "See {IGovernor-votingDelay}."
      },
      "votingPeriod()": {
        "details": "See {IGovernor-votingPeriod}."
      }
    },
    "version": 1
  },
  "userdoc": {
    "kind": "user",
    "methods": {
      "state(uint256)": {
        "notice": "Overriding nightmare"
      }
    },
    "version": 1
  }
}