{
  "contractName": "GovernorCompatibilityBravoMock",
  "abi": [
    {
      "inputs": [
        {
          "internalType": "string",
          "name": "name_",
          "type": "string"
        },
        {
          "internalType": "contract ERC20VotesComp",
          "name": "token_",
          "type": "address"
        },
        {
          "internalType": "uint256",
          "name": "votingDelay_",
          "type": "uint256"
        },
        {
          "internalType": "uint256",
          "name": "votingPeriod_",
          "type": "uint256"
        },
        {
          "internalType": "uint256",
          "name": "proposalThreshold_",
          "type": "uint256"
        },
        {
          "internalType": "contract ICompoundTimelock",
          "name": "timelock_",
          "type": "address"
        }
      ],
      "stateMutability": "nonpayable",
      "type": "constructor"
    },
    {
      "inputs": [],
      "name": "Empty",
      "type": "error"
    },
    {
      "anonymous": false,
      "inputs": [
        {
          "indexed": false,
          "internalType": "uint256",
          "name": "proposalId",
          "type": "uint256"
        }
      ],
      "name": "ProposalCanceled",
      "type": "event"
    },
    {
      "anonymous": false,
      "inputs": [
        {
          "indexed": false,
          "internalType": "uint256",
          "name": "proposalId",
          "type": "uint256"
        },
        {
          "indexed": false,
          "internalType": "address",
          "name": "proposer",
          "type": "address"
        },
        {
          "indexed": false,
          "internalType": "address[]",
          "name": "targets",
          "type": "address[]"
        },
        {
          "indexed": false,
          "internalType": "uint256[]",
          "name": "values",
          "type": "uint256[]"
        },
        {
          "indexed": false,
          "internalType": "string[]",
          "name": "signatures",
          "type": "string[]"
        },
        {
          "indexed": false,
          "internalType": "bytes[]",
          "name": "calldatas",
          "type": "bytes[]"
        },
        {
          "indexed": false,
          "internalType": "uint256",
          "name": "startBlock",
          "type": "uint256"
        },
        {
          "indexed": false,
          "internalType": "uint256",
          "name": "endBlock",
          "type": "uint256"
        },
        {
          "indexed": false,
          "internalType": "string",
          "name": "description",
          "type": "string"
        }
      ],
      "name": "ProposalCreated",
      "type": "event"
    },
    {
      "anonymous": false,
      "inputs": [
        {
          "indexed": false,
          "internalType": "uint256",
          "name": "proposalId",
          "type": "uint256"
        }
      ],
      "name": "ProposalExecuted",
      "type": "event"
    },
    {
      "anonymous": false,
      "inputs": [
        {
          "indexed": false,
          "internalType": "uint256",
          "name": "proposalId",
          "type": "uint256"
        },
        {
          "indexed": false,
          "internalType": "uint256",
          "name": "eta",
          "type": "uint256"
        }
      ],
      "name": "ProposalQueued",
      "type": "event"
    },
    {
      "anonymous": false,
      "inputs": [
        {
          "indexed": false,
          "internalType": "uint256",
          "name": "oldProposalThreshold",
          "type": "uint256"
        },
        {
          "indexed": false,
          "internalType": "uint256",
          "name": "newProposalThreshold",
          "type": "uint256"
        }
      ],
      "name": "ProposalThresholdSet",
      "type": "event"
    },
    {
      "anonymous": false,
      "inputs": [
        {
          "indexed": false,
          "internalType": "address",
          "name": "oldTimelock",
          "type": "address"
        },
        {
          "indexed": false,
          "internalType": "address",
          "name": "newTimelock",
          "type": "address"
        }
      ],
      "name": "TimelockChange",
      "type": "event"
    },
    {
      "anonymous": false,
      "inputs": [
        {
          "indexed": true,
          "internalType": "address",
          "name": "voter",
          "type": "address"
        },
        {
          "indexed": false,
          "internalType": "uint256",
          "name": "proposalId",
          "type": "uint256"
        },
        {
          "indexed": false,
          "internalType": "uint8",
          "name": "support",
          "type": "uint8"
        },
        {
          "indexed": false,
          "internalType": "uint256",
          "name": "weight",
          "type": "uint256"
        },
        {
          "indexed": false,
          "internalType": "string",
          "name": "reason",
          "type": "string"
        }
      ],
      "name": "VoteCast",
      "type": "event"
    },
    {
      "anonymous": false,
      "inputs": [
        {
          "indexed": true,
          "internalType": "address",
          "name": "voter",
          "type": "address"
        },
        {
          "indexed": false,
          "internalType": "uint256",
          "name": "proposalId",
          "type": "uint256"
        },
        {
          "indexed": false,
          "internalType": "uint8",
          "name": "support",
          "type": "uint8"
        },
        {
          "indexed": false,
          "internalType": "uint256",
          "name": "weight",
          "type": "uint256"
        },
        {
          "indexed": false,
          "internalType": "string",
          "name": "reason",
          "type": "string"
        },
        {
          "indexed": false,
          "internalType": "bytes",
          "name": "params",
          "type": "bytes"
        }
      ],
      "name": "VoteCastWithParams",
      "type": "event"
    },
    {
      "anonymous": false,
      "inputs": [
        {
          "indexed": false,
          "internalType": "uint256",
          "name": "oldVotingDelay",
          "type": "uint256"
        },
        {
          "indexed": false,
          "internalType": "uint256",
          "name": "newVotingDelay",
          "type": "uint256"
        }
      ],
      "name": "VotingDelaySet",
      "type": "event"
    },
    {
      "anonymous": false,
      "inputs": [
        {
          "indexed": false,
          "internalType": "uint256",
          "name": "oldVotingPeriod",
          "type": "uint256"
        },
        {
          "indexed": false,
          "internalType": "uint256",
          "name": "newVotingPeriod",
          "type": "uint256"
        }
      ],
      "name": "VotingPeriodSet",
      "type": "event"
    },
    {
      "inputs": [],
      "name": "BALLOT_TYPEHASH",
      "outputs": [
        {
          "internalType": "bytes32",
          "name": "",
          "type": "bytes32"
        }
      ],
      "stateMutability": "view",
      "type": "function"
    },
    {
      "inputs": [],
      "name": "COUNTING_MODE",
      "outputs": [
        {
          "internalType": "string",
          "name": "",
          "type": "string"
        }
      ],
      "stateMutability": "pure",
      "type": "function"
    },
    {
      "inputs": [],
      "name": "EXTENDED_BALLOT_TYPEHASH",
      "outputs": [
        {
          "internalType": "bytes32",
          "name": "",
          "type": "bytes32"
        }
      ],
      "stateMutability": "view",
      "type": "function"
    },
    {
      "inputs": [],
      "name": "__acceptAdmin",
      "outputs": [],
      "stateMutability": "nonpayable",
      "type": "function"
    },
    {
      "inputs": [
        {
          "internalType": "uint256",
          "name": "proposalId",
          "type": "uint256"
        },
        {
          "internalType": "uint8",
          "name": "support",
          "type": "uint8"
        }
      ],
      "name": "castVote",
      "outputs": [
        {
          "internalType": "uint256",
          "name": "",
          "type": "uint256"
        }
      ],
      "stateMutability": "nonpayable",
      "type": "function"
    },
    {
      "inputs": [
        {
          "internalType": "uint256",
          "name": "proposalId",
          "type": "uint256"
        },
        {
          "internalType": "uint8",
          "name": "support",
          "type": "uint8"
        },
        {
          "internalType": "uint8",
          "name": "v",
          "type": "uint8"
        },
        {
          "internalType": "bytes32",
          "name": "r",
          "type": "bytes32"
        },
        {
          "internalType": "bytes32",
          "name": "s",
          "type": "bytes32"
        }
      ],
      "name": "castVoteBySig",
      "outputs": [
        {
          "internalType": "uint256",
          "name": "",
          "type": "uint256"
        }
      ],
      "stateMutability": "nonpayable",
      "type": "function"
    },
    {
      "inputs": [
        {
          "internalType": "uint256",
          "name": "proposalId",
          "type": "uint256"
        },
        {
          "internalType": "uint8",
          "name": "support",
          "type": "uint8"
        },
        {
          "internalType": "string",
          "name": "reason",
          "type": "string"
        }
      ],
      "name": "castVoteWithReason",
      "outputs": [
        {
          "internalType": "uint256",
          "name": "",
          "type": "uint256"
        }
      ],
      "stateMutability": "nonpayable",
      "type": "function"
    },
    {
      "inputs": [
        {
          "internalType": "uint256",
          "name": "proposalId",
          "type": "uint256"
        },
        {
          "internalType": "uint8",
          "name": "support",
          "type": "uint8"
        },
        {
          "internalType": "string",
          "name": "reason",
          "type": "string"
        },
        {
          "internalType": "bytes",
          "name": "params",
          "type": "bytes"
        }
      ],
      "name": "castVoteWithReasonAndParams",
      "outputs": [
        {
          "internalType": "uint256",
          "name": "",
          "type": "uint256"
        }
      ],
      "stateMutability": "nonpayable",
      "type": "function"
    },
    {
      "inputs": [
        {
          "internalType": "uint256",
          "name": "proposalId",
          "type": "uint256"
        },
        {
          "internalType": "uint8",
          "name": "support",
          "type": "uint8"
        },
        {
          "internalType": "string",
          "name": "reason",
          "type": "string"
        },
        {
          "internalType": "bytes",
          "name": "params",
          "type": "bytes"
        },
        {
          "internalType": "uint8",
          "name": "v",
          "type": "uint8"
        },
        {
          "internalType": "bytes32",
          "name": "r",
          "type": "bytes32"
        },
        {
          "internalType": "bytes32",
          "name": "s",
          "type": "bytes32"
        }
      ],
      "name": "castVoteWithReasonAndParamsBySig",
      "outputs": [
        {
          "internalType": "uint256",
          "name": "",
          "type": "uint256"
        }
      ],
      "stateMutability": "nonpayable",
      "type": "function"
    },
    {
      "inputs": [
        {
          "internalType": "uint256",
          "name": "proposalId",
          "type": "uint256"
        }
      ],
      "name": "getActions",
      "outputs": [
        {
          "internalType": "address[]",
          "name": "targets",
          "type": "address[]"
        },
        {
          "internalType": "uint256[]",
          "name": "values",
          "type": "uint256[]"
        },
        {
          "internalType": "string[]",
          "name": "signatures",
          "type": "string[]"
        },
        {
          "internalType": "bytes[]",
          "name": "calldatas",
          "type": "bytes[]"
        }
      ],
      "stateMutability": "view",
      "type": "function"
    },
    {
      "inputs": [
        {
          "internalType": "uint256",
          "name": "proposalId",
          "type": "uint256"
        },
        {
          "internalType": "address",
          "name": "voter",
          "type": "address"
        }
      ],
      "name": "getReceipt",
      "outputs": [
        {
          "components": [
            {
              "internalType": "bool",
              "name": "hasVoted",
              "type": "bool"
            },
            {
              "internalType": "uint8",
              "name": "support",
              "type": "uint8"
            },
            {
              "internalType": "uint96",
              "name": "votes",
              "type": "uint96"
            }
          ],
          "internalType": "struct IGovernorCompatibilityBravo.Receipt",
          "name": "",
          "type": "tuple"
        }
      ],
      "stateMutability": "view",
      "type": "function"
    },
    {
      "inputs": [
        {
          "internalType": "address",
          "name": "account",
          "type": "address"
        },
        {
          "internalType": "uint256",
          "name": "blockNumber",
          "type": "uint256"
        }
      ],
      "name": "getVotes",
      "outputs": [
        {
          "internalType": "uint256",
          "name": "",
          "type": "uint256"
        }
      ],
      "stateMutability": "view",
      "type": "function"
    },
    {
      "inputs": [
        {
          "internalType": "address",
          "name": "account",
          "type": "address"
        },
        {
          "internalType": "uint256",
          "name": "blockNumber",
          "type": "uint256"
        },
        {
          "internalType": "bytes",
          "name": "params",
          "type": "bytes"
        }
      ],
      "name": "getVotesWithParams",
      "outputs": [
        {
          "internalType": "uint256",
          "name": "",
          "type": "uint256"
        }
      ],
      "stateMutability": "view",
      "type": "function"
    },
    {
      "inputs": [
        {
          "internalType": "uint256",
          "name": "proposalId",
          "type": "uint256"
        },
        {
          "internalType": "address",
          "name": "account",
          "type": "address"
        }
      ],
      "name": "hasVoted",
      "outputs": [
        {
          "internalType": "bool",
          "name": "",
          "type": "bool"
        }
      ],
      "stateMutability": "view",
      "type": "function"
    },
    {
      "inputs": [
        {
          "internalType": "address[]",
          "name": "targets",
          "type": "address[]"
        },
        {
          "internalType": "uint256[]",
          "name": "values",
          "type": "uint256[]"
        },
        {
          "internalType": "bytes[]",
          "name": "calldatas",
          "type": "bytes[]"
        },
        {
          "internalType": "bytes32",
          "name": "descriptionHash",
          "type": "bytes32"
        }
      ],
      "name": "hashProposal",
      "outputs": [
        {
          "internalType": "uint256",
          "name": "",
          "type": "uint256"
        }
      ],
      "stateMutability": "pure",
      "type": "function"
    },
    {
      "inputs": [],
      "name": "name",
      "outputs": [
        {
          "internalType": "string",
          "name": "",
          "type": "string"
        }
      ],
      "stateMutability": "view",
      "type": "function"
    },
    {
      "inputs": [
        {
          "internalType": "address",
          "name": "",
          "type": "address"
        },
        {
          "internalType": "address",
          "name": "",
          "type": "address"
        },
        {
          "internalType": "uint256[]",
          "name": "",
          "type": "uint256[]"
        },
        {
          "internalType": "uint256[]",
          "name": "",
          "type": "uint256[]"
        },
        {
          "internalType": "bytes",
          "name": "",
          "type": "bytes"
        }
      ],
      "name": "onERC1155BatchReceived",
      "outputs": [
        {
          "internalType": "bytes4",
          "name": "",
          "type": "bytes4"
        }
      ],
      "stateMutability": "nonpayable",
      "type": "function"
    },
    {
      "inputs": [
        {
          "internalType": "address",
          "name": "",
          "type": "address"
        },
        {
          "internalType": "address",
          "name": "",
          "type": "address"
        },
        {
          "internalType": "uint256",
          "name": "",
          "type": "uint256"
        },
        {
          "internalType": "uint256",
          "name": "",
          "type": "uint256"
        },
        {
          "internalType": "bytes",
          "name": "",
          "type": "bytes"
        }
      ],
      "name": "onERC1155Received",
      "outputs": [
        {
          "internalType": "bytes4",
          "name": "",
          "type": "bytes4"
        }
      ],
      "stateMutability": "nonpayable",
      "type": "function"
    },
    {
      "inputs": [
        {
          "internalType": "address",
          "name": "",
          "type": "address"
        },
        {
          "internalType": "address",
          "name": "",
          "type": "address"
        },
        {
          "internalType": "uint256",
          "name": "",
          "type": "uint256"
        },
        {
          "internalType": "bytes",
          "name": "",
          "type": "bytes"
        }
      ],
      "name": "onERC721Received",
      "outputs": [
        {
          "internalType": "bytes4",
          "name": "",
          "type": "bytes4"
        }
      ],
      "stateMutability": "nonpayable",
      "type": "function"
    },
    {
      "inputs": [
        {
          "internalType": "uint256",
          "name": "proposalId",
          "type": "uint256"
        }
      ],
      "name": "proposalDeadline",
      "outputs": [
        {
          "internalType": "uint256",
          "name": "",
          "type": "uint256"
        }
      ],
      "stateMutability": "view",
      "type": "function"
    },
    {
      "inputs": [
        {
          "internalType": "uint256",
          "name": "proposalId",
          "type": "uint256"
        }
      ],
      "name": "proposalSnapshot",
      "outputs": [
        {
          "internalType": "uint256",
          "name": "",
          "type": "uint256"
        }
      ],
      "stateMutability": "view",
      "type": "function"
    },
    {
      "inputs": [
        {
          "internalType": "uint256",
          "name": "proposalId",
          "type": "uint256"
        }
      ],
      "name": "proposals",
      "outputs": [
        {
          "internalType": "uint256",
          "name": "id",
          "type": "uint256"
        },
        {
          "internalType": "address",
          "name": "proposer",
          "type": "address"
        },
        {
          "internalType": "uint256",
          "name": "eta",
          "type": "uint256"
        },
        {
          "internalType": "uint256",
          "name": "startBlock",
          "type": "uint256"
        },
        {
          "internalType": "uint256",
          "name": "endBlock",
          "type": "uint256"
        },
        {
          "internalType": "uint256",
          "name": "forVotes",
          "type": "uint256"
        },
        {
          "internalType": "uint256",
          "name": "againstVotes",
          "type": "uint256"
        },
        {
          "internalType": "uint256",
          "name": "abstainVotes",
          "type": "uint256"
        },
        {
          "internalType": "bool",
          "name": "canceled",
          "type": "bool"
        },
        {
          "internalType": "bool",
          "name": "executed",
          "type": "bool"
        }
      ],
      "stateMutability": "view",
      "type": "function"
    },
    {
      "inputs": [],
      "name": "quorumVotes",
      "outputs": [
        {
          "internalType": "uint256",
          "name": "",
          "type": "uint256"
        }
      ],
      "stateMutability": "view",
      "type": "function"
    },
    {
      "inputs": [
        {
          "internalType": "address",
          "name": "target",
          "type": "address"
        },
        {
          "internalType": "uint256",
          "name": "value",
          "type": "uint256"
        },
        {
          "internalType": "bytes",
          "name": "data",
          "type": "bytes"
        }
      ],
      "name": "relay",
      "outputs": [],
      "stateMutability": "nonpayable",
      "type": "function"
    },
    {
      "inputs": [
        {
          "internalType": "uint256",
          "name": "newProposalThreshold",
          "type": "uint256"
        }
      ],
      "name": "setProposalThreshold",
      "outputs": [],
      "stateMutability": "nonpayable",
      "type": "function"
    },
    {
      "inputs": [
        {
          "internalType": "uint256",
          "name": "newVotingDelay",
          "type": "uint256"
        }
      ],
      "name": "setVotingDelay",
      "outputs": [],
      "stateMutability": "nonpayable",
      "type": "function"
    },
    {
      "inputs": [
        {
          "internalType": "uint256",
          "name": "newVotingPeriod",
          "type": "uint256"
        }
      ],
      "name": "setVotingPeriod",
      "outputs": [],
      "stateMutability": "nonpayable",
      "type": "function"
    },
    {
      "inputs": [],
      "name": "timelock",
      "outputs": [
        {
          "internalType": "address",
          "name": "",
          "type": "address"
        }
      ],
      "stateMutability": "view",
      "type": "function"
    },
    {
      "inputs": [],
      "name": "token",
      "outputs": [
        {
          "internalType": "contract ERC20VotesComp",
          "name": "",
          "type": "address"
        }
      ],
      "stateMutability": "view",
      "type": "function"
    },
    {
      "inputs": [
        {
          "internalType": "contract ICompoundTimelock",
          "name": "newTimelock",
          "type": "address"
        }
      ],
      "name": "updateTimelock",
      "outputs": [],
      "stateMutability": "nonpayable",
      "type": "function"
    },
    {
      "inputs": [],
      "name": "version",
      "outputs": [
        {
          "internalType": "string",
          "name": "",
          "type": "string"
        }
      ],
      "stateMutability": "view",
      "type": "function"
    },
    {
      "inputs": [],
      "name": "votingDelay",
      "outputs": [
        {
          "internalType": "uint256",
          "name": "",
          "type": "uint256"
        }
      ],
      "stateMutability": "view",
      "type": "function"
    },
    {
      "inputs": [],
      "name": "votingPeriod",
      "outputs": [
        {
          "internalType": "uint256",
          "name": "",
          "type": "uint256"
        }
      ],
      "stateMutability": "view",
      "type": "function"
    },
    {
      "stateMutability": "payable",
      "type": "receive"
    },
    {
      "inputs": [
        {
          "internalType": "bytes4",
          "name": "interfaceId",
          "type": "bytes4"
        }
      ],
      "name": "supportsInterface",
      "outputs": [
        {
          "internalType": "bool",
          "name": "",
          "type": "bool"
        }
      ],
      "stateMutability": "view",
      "type": "function"
    },
    {
      "inputs": [
        {
          "internalType": "uint256",
          "name": "",
          "type": "uint256"
        }
      ],
      "name": "quorum",
      "outputs": [
        {
          "internalType": "uint256",
          "name": "",
          "type": "uint256"
        }
      ],
      "stateMutability": "pure",
      "type": "function"
    },
    {
      "inputs": [
        {
          "internalType": "uint256",
          "name": "proposalId",
          "type": "uint256"
        }
      ],
      "name": "state",
      "outputs": [
        {
          "internalType": "enum IGovernor.ProposalState",
          "name": "",
          "type": "uint8"
        }
      ],
      "stateMutability": "view",
      "type": "function"
    },
    {
      "inputs": [
        {
          "internalType": "uint256",
          "name": "proposalId",
          "type": "uint256"
        }
      ],
      "name": "proposalEta",
      "outputs": [
        {
          "internalType": "uint256",
          "name": "",
          "type": "uint256"
        }
      ],
      "stateMutability": "view",
      "type": "function"
    },
    {
      "inputs": [],
      "name": "proposalThreshold",
      "outputs": [
        {
          "internalType": "uint256",
          "name": "",
          "type": "uint256"
        }
      ],
      "stateMutability": "view",
      "type": "function"
    },
    {
      "inputs": [
        {
          "internalType": "address[]",
          "name": "targets",
          "type": "address[]"
        },
        {
          "internalType": "uint256[]",
          "name": "values",
          "type": "uint256[]"
        },
        {
          "internalType": "bytes[]",
          "name": "calldatas",
          "type": "bytes[]"
        },
        {
          "internalType": "string",
          "name": "description",
          "type": "string"
        }
      ],
      "name": "propose",
      "outputs": [
        {
          "internalType": "uint256",
          "name": "",
          "type": "uint256"
        }
      ],
      "stateMutability": "nonpayable",
      "type": "function"
    },
    {
      "inputs": [
        {
          "internalType": "address[]",
          "name": "targets",
          "type": "address[]"
        },
        {
          "internalType": "uint256[]",
          "name": "values",
          "type": "uint256[]"
        },
        {
          "internalType": "string[]",
          "name": "signatures",
          "type": "string[]"
        },
        {
          "internalType": "bytes[]",
          "name": "calldatas",
          "type": "bytes[]"
        },
        {
          "internalType": "string",
          "name": "description",
          "type": "string"
        }
      ],
      "name": "propose",
      "outputs": [
        {
          "internalType": "uint256",
          "name": "",
          "type": "uint256"
        }
      ],
      "stateMutability": "nonpayable",
      "type": "function"
    },
    {
      "inputs": [
        {
          "internalType": "address[]",
          "name": "targets",
          "type": "address[]"
        },
        {
          "internalType": "uint256[]",
          "name": "values",
          "type": "uint256[]"
        },
        {
          "internalType": "bytes[]",
          "name": "calldatas",
          "type": "bytes[]"
        },
        {
          "internalType": "bytes32",
          "name": "salt",
          "type": "bytes32"
        }
      ],
      "name": "queue",
      "outputs": [
        {
          "internalType": "uint256",
          "name": "",
          "type": "uint256"
        }
      ],
      "stateMutability": "nonpayable",
      "type": "function"
    },
    {
      "inputs": [
        {
          "internalType": "uint256",
          "name": "proposalId",
          "type": "uint256"
        }
      ],
      "name": "queue",
      "outputs": [],
      "stateMutability": "nonpayable",
      "type": "function"
    },
    {
      "inputs": [
        {
          "internalType": "address[]",
          "name": "targets",
          "type": "address[]"
        },
        {
          "internalType": "uint256[]",
          "name": "values",
          "type": "uint256[]"
        },
        {
          "internalType": "bytes[]",
          "name": "calldatas",
          "type": "bytes[]"
        },
        {
          "internalType": "bytes32",
          "name": "salt",
          "type": "bytes32"
        }
      ],
      "name": "execute",
      "outputs": [
        {
          "internalType": "uint256",
          "name": "",
          "type": "uint256"
        }
      ],
      "stateMutability": "payable",
      "type": "function"
    },
    {
      "inputs": [
        {
          "internalType": "uint256",
          "name": "proposalId",
          "type": "uint256"
        }
      ],
      "name": "execute",
      "outputs": [],
      "stateMutability": "payable",
      "type": "function"
    },
    {
      "inputs": [
        {
          "internalType": "uint256",
          "name": "proposalId",
          "type": "uint256"
        }
      ],
      "name": "cancel",
      "outputs": [],
      "stateMutability": "nonpayable",
      "type": "function"
    },
    {
      "inputs": [
        {
          "internalType": "address[]",
          "name": "targets",
          "type": "address[]"
        },
        {
          "internalType": "uint256[]",
          "name": "values",
          "type": "uint256[]"
        },
        {
          "internalType": "bytes[]",
          "name": "calldatas",
          "type": "bytes[]"
        },
        {
          "internalType": "bytes32",
          "name": "salt",
          "type": "bytes32"
        }
      ],
      "name": "cancel",
      "outputs": [
        {
          "internalType": "uint256",
          "name": "proposalId",
          "type": "uint256"
        }
      ],
      "stateMutability": "nonpayable",
      "type": "function"
    }
  ],
  "bytecode": "0x6101606040523480156200001257600080fd5b5060405162005325380380620053258339810160408190526200003591620003be565b84818585858a806200005b6040805180820190915260018152603160f81b602082015290565b815160208084019190912082518383012060e08290526101008190524660a0818152604080517f8b73c3c69bb8fe3d512ecc4cf759cc79239f7b179b0ffacaa9a75d522b39400f81880181905281830187905260608201869052608082019490945230818401528151808203909301835260c00190528051940193909320919290916080523060c0526101205250508251620001019250600091506020840190620002e5565b506200010f90508362000154565b6200011a8262000195565b62000125816200023b565b50505062000139816200027c60201b60201c565b506001600160a01b0316610140525062000519945050505050565b60055460408051918252602082018390527fc565b045403dc03c2eea82b81a0465edad9e2e7fc4d97e11421c209da93d7a93910160405180910390a1600555565b60008111620001fa5760405162461bcd60e51b815260206004820152602760248201527f476f7665726e6f7253657474696e67733a20766f74696e6720706572696f6420604482015266746f6f206c6f7760c81b606482015260840160405180910390fd5b60065460408051918252602082018390527f7e3f7f0708a84de9203036abaa450dccc85ad5ff52f78c170f3edb55cf5e8828910160405180910390a1600655565b60075460408051918252602082018390527fccb45da8d5717e6c4544694297c4ba5cf151d455c9bb0ed4fc7a38411bc05461910160405180910390a1600755565b600854604080516001600160a01b03928316815291831660208301527f08f74ea46ef7894f65eabfb5e6e695de773a000b47c529ab559178069b226401910160405180910390a1600880546001600160a01b0319166001600160a01b0392909216919091179055565b828054620002f390620004dd565b90600052602060002090601f01602090048101928262000317576000855562000362565b82601f106200033257805160ff191683800117855562000362565b8280016001018555821562000362579182015b828111156200036257825182559160200191906001019062000345565b506200037092915062000374565b5090565b5b8082111562000370576000815560010162000375565b634e487b7160e01b600052604160045260246000fd5b80516001600160a01b0381168114620003b957600080fd5b919050565b60008060008060008060c08789031215620003d857600080fd5b86516001600160401b0380821115620003f057600080fd5b818901915089601f8301126200040557600080fd5b8151818111156200041a576200041a6200038b565b604051601f8201601f19908116603f011681019083821181831017156200044557620004456200038b565b81604052828152602093508c848487010111156200046257600080fd5b600091505b8282101562000486578482018401518183018501529083019062000467565b82821115620004985760008484830101525b9950620004aa915050898201620003a1565b96505050604087015193506060870151925060808701519150620004d160a08801620003a1565b90509295509295509295565b600181811c90821680620004f257607f821691505b6020821081036200051357634e487b7160e01b600052602260045260246000fd5b50919050565b60805160a05160c05160e051610100516101205161014051614daa6200057b6000396000818161095f015261263601526000612a0101526000612a5001526000612a2b01526000612984015260006129ae015260006129d80152614daa6000f3fe6080604052600436106102115760003560e01c8063013cf08b1461023957806301ffc9a7146102b457806302a251a3146102e4578063034201811461030357806306fdde0314610323578063150b7a0214610345578063160cbed71461037e57806324bc1a641461039e5780632656227d146103b35780632d63f693146103c65780632fe3e261146103e6578063328dd982146104085780633932abb1146104385780633bccf4fd1461044d5780633e4f49e61461046d57806340e58ee51461049a57806343859632146104ba578063452115d61461050457806354fd4d5014610524578063567813881461054e5780635f398a141461056e57806370b0f6601461058e5780637b3c71d3146105ae5780637d5e81e2146105ce5780639a802a6d146105ee578063a890c9101461060e578063ab58fb8e1461062e578063b58131b01461064e578063b9a6196114610663578063bc197c8114610678578063c01f9e37146106a4578063c28bc2fa146106c4578063c59057e4146106e4578063d33219b414610704578063da95691a14610731578063dd4e2ba514610751578063ddf0b00914610794578063deaaa7cc146107b4578063e23a9a52146107d6578063ea0217cf146108a0578063eb9019d4146108c0578063ece40cc1146108e0578063f23a6e6114610900578063f8ce560a1461092c578063fc0c546a1461094d578063fe0d94c11461098157600080fd5b36610234573061021f610994565b6001600160a01b03161461023257600080fd5b005b600080fd5b34801561024557600080fd5b50610259610254366004613d3a565b6109a3565b604080519a8b526001600160a01b0390991660208b0152978901969096526060880194909452608087019290925260a086015260c085015260e084015215156101008301521515610120820152610140015b60405180910390f35b3480156102c057600080fd5b506102d46102cf366004613d53565b610a4c565b60405190151581526020016102ab565b3480156102f057600080fd5b506006545b6040519081526020016102ab565b34801561030f57600080fd5b506102f561031e366004613e9e565b610a5d565b34801561032f57600080fd5b50610338610b43565b6040516102ab9190613f9c565b34801561035157600080fd5b50610365610360366004613fc4565b610bd5565b6040516001600160e01b031990911681526020016102ab565b34801561038a57600080fd5b506102f561039936600461419b565b610be6565b3480156103aa57600080fd5b506102f5610bfd565b6102f56103c136600461419b565b610c0d565b3480156103d257600080fd5b506102f56103e1366004613d3a565b610c1b565b3480156103f257600080fd5b506102f5600080516020614d2c83398151915281565b34801561041457600080fd5b50610428610423366004613d3a565b610c52565b6040516102ab94939291906142f0565b34801561044457600080fd5b506005546102f5565b34801561045957600080fd5b506102f561046836600461433d565b610ee3565b34801561047957600080fd5b5061048d610488366004613d3a565b610f47565b6040516102ab91906143a1565b3480156104a657600080fd5b506102326104b5366004613d3a565b610f52565b3480156104c657600080fd5b506102d46104d53660046143c9565b60008281526004602090815260408083206001600160a01b038516845260080190915290205460ff1692915050565b34801561051057600080fd5b506102f561051f36600461419b565b61126f565b34801561053057600080fd5b506040805180820190915260018152603160f81b6020820152610338565b34801561055a57600080fd5b506102f56105693660046143f9565b61127d565b34801561057a57600080fd5b506102f5610589366004614425565b61129e565b34801561059a57600080fd5b506102326105a9366004613d3a565b6112e8565b3480156105ba57600080fd5b506102f56105c93660046144a8565b611372565b3480156105da57600080fd5b506102f56105e9366004614501565b6113c4565b3480156105fa57600080fd5b506102f56106093660046145a1565b6113d2565b34801561061a57600080fd5b506102326106293660046145f9565b6113df565b34801561063a57600080fd5b506102f5610649366004613d3a565b611466565b34801561065a57600080fd5b506102f5611471565b34801561066f57600080fd5b5061023261147c565b34801561068457600080fd5b50610365610693366004614616565b63bc197c8160e01b95945050505050565b3480156106b057600080fd5b506102f56106bf366004613d3a565b6114e6565b3480156106d057600080fd5b506102326106df3660046146a9565b611515565b3480156106f057600080fd5b506102f56106ff36600461419b565b6115dc565b34801561071057600080fd5b50610719611616565b6040516001600160a01b0390911681526020016102ab565b34801561073d57600080fd5b506102f561074c36600461476b565b611625565b34801561075d57600080fd5b5060408051808201909152601a815279737570706f72743d627261766f2671756f72756d3d627261766f60301b6020820152610338565b3480156107a057600080fd5b506102326107af366004613d3a565b61164a565b3480156107c057600080fd5b506102f5600080516020614d0c83398151915281565b3480156107e257600080fd5b506108706107f13660046143c9565b60408051606081018252600080825260208201819052918101919091525060009182526004602090815260408084206001600160a01b0393909316845260089092018152918190208151606081018352905460ff8082161515835261010082041693820193909352620100009092046001600160601b03169082015290565b6040805182511515815260208084015160ff1690820152918101516001600160601b0316908201526060016102ab565b3480156108ac57600080fd5b506102326108bb366004613d3a565b6118b8565b3480156108cc57600080fd5b506102f56108db36600461480c565b61193f565b3480156108ec57600080fd5b506102326108fb366004613d3a565b611967565b34801561090c57600080fd5b5061036561091b366004614838565b63f23a6e6160e01b95945050505050565b34801561093857600080fd5b506102f5610947366004613d3a565b50600090565b34801561095957600080fd5b506107197f000000000000000000000000000000000000000000000000000000000000000081565b61023261098f366004613d3a565b6119ee565b600061099e611616565b905090565b80600080808080808080806109b78a611466565b97506109c28b610c1b565b96506109cd8b6114e6565b60008c815260046020526040812080546005820154600683015460078401546001600160a01b039093169e50949a509850929650919450610a0d8d610f47565b90506002816007811115610a2357610a2361438b565b1493506007816007811115610a3a57610a3a61438b565b14925050509193959799509193959799565b6000610a5782611c5c565b92915050565b600080610aef610ae7600080516020614d2c8339815191528c8c8c8c604051610a879291906148a0565b60405180910390208b80519060200120604051602001610acc959493929190948552602085019390935260ff9190911660408401526060830152608082015260a00190565b60405160208183030381529060405280519060200120611c81565b868686611ccf565b9050610b358a828b8b8b8080601f0160208091040260200160405190810160405280939291908181526020018383808284376000920191909152508d9250611cf7915050565b9a9950505050505050505050565b606060008054610b52906148b0565b80601f0160208091040260200160405190810160405280929190818152602001828054610b7e906148b0565b8015610bcb5780601f10610ba057610100808354040283529160200191610bcb565b820191906000526020600020905b815481529060010190602001808311610bae57829003601f168201915b5050505050905090565b630a85bd0160e11b5b949350505050565b6000610bf485858585611e5c565b95945050505050565b600061099e610947600143614900565b6000610bf4858585856121d5565b60008181526001602090815260408083208151928301909152546001600160401b0316908190525b6001600160401b031692915050565b60608060608060006004600087815260200190815260200160002090508060010181600201826003018360040183805480602002602001604051908101604052809291908181526020018280548015610cd457602002820191906000526020600020905b81546001600160a01b03168152600190910190602001808311610cb6575b5050505050935082805480602002602001604051908101604052809291908181526020018280548015610d2657602002820191906000526020600020905b815481526020019060010190808311610d12575b5050505050925081805480602002602001604051908101604052809291908181526020016000905b82821015610dfa578382906000526020600020018054610d6d906148b0565b80601f0160208091040260200160405190810160405280929190818152602001828054610d99906148b0565b8015610de65780601f10610dbb57610100808354040283529160200191610de6565b820191906000526020600020905b815481529060010190602001808311610dc957829003601f168201915b505050505081526020019060010190610d4e565b50505050915080805480602002602001604051908101604052809291908181526020016000905b82821015610ecd578382906000526020600020018054610e40906148b0565b80601f0160208091040260200160405190810160405280929190818152602001828054610e6c906148b0565b8015610eb95780601f10610e8e57610100808354040283529160200191610eb9565b820191906000526020600020905b815481529060010190602001808311610e9c57829003601f168201915b505050505081526020019060010190610e21565b5050505090509450945094509450509193509193565b60408051600080516020614d0c833981519152602082015290810186905260ff851660608201526000908190610f1f90610ae790608001610acc565b9050610f3c878288604051806020016040528060008152506122b8565b979650505050505050565b6000610a57826122db565b600081815260046020526040902080546001600160a01b0316336001600160a01b03161480610fa05750610f84611471565b8154610f9e906001600160a01b03166108db600143614900565b105b6110015760405162461bcd60e51b815260206004820152602760248201527f476f7665726e6f72427261766f3a2070726f706f7365722061626f76652074686044820152661c995cda1bdb1960ca1b60648201526084015b60405180910390fd5b61126a8160010180548060200260200160405190810160405280929190818152602001828054801561105c57602002820191906000526020600020905b81546001600160a01b0316815260019091019060200180831161103e575b5050505050826002018054806020026020016040519081016040528092919081815260200182805480156110af57602002820191906000526020600020905b81548152602001906001019080831161109b575b505050505061126084600301805480602002602001604051908101604052809291908181526020016000905b828210156111875783829060005260206000200180546110fa906148b0565b80601f0160208091040260200160405190810160405280929190818152602001828054611126906148b0565b80156111735780601f1061114857610100808354040283529160200191611173565b820191906000526020600020905b81548152906001019060200180831161115657829003601f168201915b5050505050815260200190600101906110db565b50505060048701805460408051602080840282018101909252828152935060009084015b828210156112575783829060005260206000200180546111ca906148b0565b80601f01602080910402602001604051908101604052809291908181526020018280546111f6906148b0565b80156112435780601f1061121857610100808354040283529160200191611243565b820191906000526020600020905b81548152906001019060200180831161122657829003601f168201915b5050505050815260200190600101906111ab565b505050506123bf565b84600901546124f1565b505050565b6000610bf4858585856124f1565b600080339050610bde848285604051806020016040528060008152506122b8565b600080339050610f3c87828888888080601f0160208091040260200160405190810160405280939291908181526020018383808284376000920191909152508a9250611cf7915050565b6112f0610994565b6001600160a01b0316336001600160a01b0316146113205760405162461bcd60e51b8152600401610ff890614917565b30611329610994565b6001600160a01b03161461136657600080366040516113499291906148a0565b604051809103902090505b8061135f60026124ff565b0361135457505b61136f81612565565b50565b6000803390506113ba86828787878080601f0160208091040260200160405190810160405280939291908181526020018383808284376000920191909152506122b892505050565b9695505050505050565b6000610bf4858585856125a5565b6000610bde84848461260d565b6113e7610994565b6001600160a01b0316336001600160a01b0316146114175760405162461bcd60e51b8152600401610ff890614917565b30611420610994565b6001600160a01b03161461145d57600080366040516114409291906148a0565b604051809103902090505b8061145660026124ff565b0361144b57505b61136f816126b4565b6000610a578261271d565b600061099e60075490565b600860009054906101000a90046001600160a01b03166001600160a01b0316630e18b6816040518163ffffffff1660e01b8152600401600060405180830381600087803b1580156114cc57600080fd5b505af11580156114e0573d6000803e3d6000fd5b50505050565b60008181526001602081815260408084208151928301909152909101546001600160401b031690819052610c43565b61151d610994565b6001600160a01b0316336001600160a01b03161461154d5760405162461bcd60e51b8152600401610ff890614917565b30611556610994565b6001600160a01b03161461159357600080366040516115769291906148a0565b604051809103902090505b8061158c60026124ff565b0361158157505b6115d58483838080601f016020809104026020016040519081016040528093929190818152602001838380828437600092019190915250889250612749915050565b5050505050565b6000848484846040516020016115f59493929190614949565b60408051601f19818403018152919052805160209091012095945050505050565b6008546001600160a01b031690565b600061163533878787878761276f565b6113ba868661164487876123bf565b856113c4565b600081815260046020908152604091829020600181018054845181850281018501909552808552919361126a939092908301828280156116b357602002820191906000526020600020905b81546001600160a01b03168152600190910190602001808311611695575b50505050508260020180548060200260200160405190810160405280929190818152602001828054801561170657602002820191906000526020600020905b8154815260200190600101908083116116f2575b50505050506118ae84600301805480602002602001604051908101604052809291908181526020016000905b828210156117de578382906000526020600020018054611751906148b0565b80601f016020809104026020016040519081016040528092919081815260200182805461177d906148b0565b80156117ca5780601f1061179f576101008083540402835291602001916117ca565b820191906000526020600020905b8154815290600101906020018083116117ad57829003601f168201915b505050505081526020019060010190611732565b50505060048701805460408051602080840282018101909252828152935060009084015b82821015611257578382906000526020600020018054611821906148b0565b80601f016020809104026020016040519081016040528092919081815260200182805461184d906148b0565b801561189a5780601f1061186f5761010080835404028352916020019161189a565b820191906000526020600020905b81548152906001019060200180831161187d57829003601f168201915b505050505081526020019060010190611802565b8460090154610be6565b6118c0610994565b6001600160a01b0316336001600160a01b0316146118f05760405162461bcd60e51b8152600401610ff890614917565b306118f9610994565b6001600160a01b03161461193657600080366040516119199291906148a0565b604051809103902090505b8061192f60026124ff565b0361192457505b61136f8161282c565b6000611960838361195b60408051602081019091526000815290565b61260d565b9392505050565b61196f610994565b6001600160a01b0316336001600160a01b03161461199f5760405162461bcd60e51b8152600401610ff890614917565b306119a8610994565b6001600160a01b0316146119e557600080366040516119c89291906148a0565b604051809103902090505b806119de60026124ff565b036119d357505b61136f816128cc565b600081815260046020908152604091829020600181018054845181850281018501909552808552919361126a93909290830182828015611a5757602002820191906000526020600020905b81546001600160a01b03168152600190910190602001808311611a39575b505050505082600201805480602002602001604051908101604052809291908181526020018280548015611aaa57602002820191906000526020600020905b815481526020019060010190808311611a96575b5050505050611c5284600301805480602002602001604051908101604052809291908181526020016000905b82821015611b82578382906000526020600020018054611af5906148b0565b80601f0160208091040260200160405190810160405280929190818152602001828054611b21906148b0565b8015611b6e5780601f10611b4357610100808354040283529160200191611b6e565b820191906000526020600020905b815481529060010190602001808311611b5157829003601f168201915b505050505081526020019060010190611ad6565b50505060048701805460408051602080840282018101909252828152935060009084015b82821015611257578382906000526020600020018054611bc5906148b0565b80601f0160208091040260200160405190810160405280929190818152602001828054611bf1906148b0565b8015611c3e5780601f10611c1357610100808354040283529160200191611c3e565b820191906000526020600020905b815481529060010190602001808311611c2157829003601f168201915b505050505081526020019060010190611ba6565b8460090154610c0d565b60006001600160e01b03198216636e665ced60e01b1480610a575750610a578261290c565b6000610a57611c8e612977565b8360405161190160f01b6020820152602281018390526042810182905260009060620160405160208183030381529060405280519060200120905092915050565b6000806000611ce087878787612a9e565b91509150611ced81612b81565b5095945050505050565b6000858152600160208190526040822090611d1188610f47565b6007811115611d2257611d2261438b565b14611d7b5760405162461bcd60e51b815260206004820152602360248201527f476f7665726e6f723a20766f7465206e6f742063757272656e746c792061637460448201526269766560e81b6064820152608401610ff8565b604080516020810190915281546001600160401b031690819052600090611da49088908661260d565b9050611db38888888488612d32565b8351600003611e0857866001600160a01b03167fb8e138887d0aa13bab447e82de9d5c1777041ecd21ca36ba824ff1e6c07ddda489888489604051611dfb9493929190614994565b60405180910390a2610f3c565b866001600160a01b03167fe2babfbac5889a709b63bb7f598b324e08bc5a4fb9ec647fb3cbc9ec07eb87128988848989604051611e499594939291906149bc565b60405180910390a2979650505050505050565b600080611e6b868686866115dc565b90506004611e7882610f47565b6007811115611e8957611e8961438b565b14611ea65760405162461bcd60e51b8152600401610ff890614a02565b60085460408051630d48571f60e31b815290516000926001600160a01b031691636a42b8f89160048083019260209291908290030181865afa158015611ef0573d6000803e3d6000fd5b505050506040513d601f19601f82011682018060405250810190611f149190614a43565b611f1e9042614a5c565b9050611f40611f2c82612ed3565b600084815260096020526040902090612f3f565b60005b87518110156121915760085488516001600160a01b039091169063f2b06537908a9084908110611f7557611f75614a74565b6020026020010151898481518110611f8f57611f8f614a74565b6020026020010151898581518110611fa957611fa9614a74565b602002602001015186604051602001611fc59493929190614a8a565b604051602081830303815290604052805190602001206040518263ffffffff1660e01b8152600401611ff991815260200190565b602060405180830381865afa158015612016573d6000803e3d6000fd5b505050506040513d601f19601f8201168201806040525081019061203a9190614ad0565b156120b85760405162461bcd60e51b815260206004820152604260248201527f476f7665726e6f7254696d656c6f636b436f6d706f756e643a206964656e746960448201527f63616c2070726f706f73616c20616374696f6e20616c72656164792071756575606482015261195960f21b608482015260a401610ff8565b60085488516001600160a01b0390911690633a66f901908a90849081106120e1576120e1614a74565b60200260200101518984815181106120fb576120fb614a74565b602002602001015189858151811061211557612115614a74565b6020026020010151866040518563ffffffff1660e01b815260040161213d9493929190614a8a565b6020604051808303816000875af115801561215c573d6000803e3d6000fd5b505050506040513d601f19601f820116820180604052508101906121809190614a43565b5061218a81614af2565b9050611f43565b507f9a2e42fd6722813d69113e7d0079d3d940171428df7373df9c7f7617cfda289282826040516121c3929190614b0b565b60405180910390a15095945050505050565b6000806121e4868686866115dc565b905060006121f182610f47565b905060048160078111156122075761220761438b565b1480612224575060058160078111156122225761222261438b565b145b6122405760405162461bcd60e51b8152600401610ff890614a02565b600082815260016020818152604092839020600201805460ff191690921790915590518381527f712ae1383f79ac853f8d882153778e0260ef8f03b504e2866e0593e04d2b291f910160405180910390a161229e8288888888612f5c565b6122ab8288888888612ffd565b611ced828888888861300a565b6000610bf4858585856122d660408051602081019091526000815290565b611cf7565b6000806122e783613039565b905060048160078111156122fd576122fd61438b565b146123085792915050565b600061231384611466565b905080600003612324575092915050565b600860009054906101000a90046001600160a01b03166001600160a01b031663c1a287e26040518163ffffffff1660e01b8152600401602060405180830381865afa158015612377573d6000803e3d6000fd5b505050506040513d601f19601f8201168201806040525081019061239b9190614a43565b6123a59082614a5c565b42106123b5575060069392505050565b5060059392505050565b6060600082516001600160401b038111156123dc576123dc613ddb565b60405190808252806020026020018201604052801561240f57816020015b60608152602001906001900390816123fa5790505b50905060005b84518110156124e95784818151811061243057612430614a74565b6020026020010151516000146124a05784818151811061245257612452614a74565b60200260200101518051906020012084828151811061247357612473614a74565b602002602001015160405160200161248c929190614b19565b6040516020818303038152906040526124bb565b8381815181106124b2576124b2614a74565b60200260200101515b8282815181106124cd576124cd614a74565b6020026020010181905250806124e290614af2565b9050612415565b509392505050565b6000610bf48585858561314b565b600061250a82613265565b1561252857604051631ed9509560e11b815260040160405180910390fd5b508054600f0b6000818152600180840160205260408220805492905583546001600160801b03191692016001600160801b03169190911790915590565b7fc565b045403dc03c2eea82b81a0465edad9e2e7fc4d97e11421c209da93d7a9360055482604051612598929190614b0b565b60405180910390a1600555565b600061260133868686516001600160401b038111156125c6576125c6613ddb565b6040519080825280602002602001820160405280156125f957816020015b60608152602001906001900390816125e45790505b50878761276f565b610bf48585858561327a565b60405163782d6fe160e01b81526001600160a01b038481166004830152602482018490526000917f00000000000000000000000000000000000000000000000000000000000000009091169063782d6fe190604401602060405180830381865afa15801561267f573d6000803e3d6000fd5b505050506040513d601f19601f820116820180604052508101906126a39190614b4a565b6001600160601b0316949350505050565b600854604080516001600160a01b03928316815291831660208301527f08f74ea46ef7894f65eabfb5e6e695de773a000b47c529ab559178069b226401910160405180910390a1600880546001600160a01b0319166001600160a01b0392909216919091179055565b60008181526009602090815260408083208151928301909152546001600160401b031690819052610c43565b6060610bde848484604051806060016040528060298152602001614d4c60299139613519565b80516020820120600061278d878761278788886123bf565b856115dc565b60008181526004602052604090206009810154919250906128215780546001600160a01b0319166001600160a01b038a1617815587516127d690600183019060208b0190613af0565b5086516127ec90600283019060208a0190613b51565b5085516128029060038301906020890190613b8c565b5084516128189060048301906020880190613be5565b50600981018390555b505050505050505050565b6000811161288c5760405162461bcd60e51b815260206004820152602760248201527f476f7665726e6f7253657474696e67733a20766f74696e6720706572696f6420604482015266746f6f206c6f7760c81b6064820152608401610ff8565b7f7e3f7f0708a84de9203036abaa450dccc85ad5ff52f78c170f3edb55cf5e8828600654826040516128bf929190614b0b565b60405180910390a1600655565b7fccb45da8d5717e6c4544694297c4ba5cf151d455c9bb0ed4fc7a38411bc05461600754826040516128ff929190614b0b565b60405180910390a1600755565b60006001600160e01b0319821663bf26d89760e01b148061293d57506001600160e01b031982166379dd796f60e01b145b8061295857506001600160e01b03198216630271189760e51b145b80610a5757506301ffc9a760e01b6001600160e01b0319831614610a57565b6000306001600160a01b037f0000000000000000000000000000000000000000000000000000000000000000161480156129d057507f000000000000000000000000000000000000000000000000000000000000000046145b156129fa57507f000000000000000000000000000000000000000000000000000000000000000090565b50604080517f00000000000000000000000000000000000000000000000000000000000000006020808301919091527f0000000000000000000000000000000000000000000000000000000000000000828401527f000000000000000000000000000000000000000000000000000000000000000060608301524660808301523060a0808401919091528351808403909101815260c0909201909252805191012090565b6000806fa2a8918ca85bafe22016d0b997e4df60600160ff1b03831115612acb5750600090506003612b78565b8460ff16601b14158015612ae357508460ff16601c14155b15612af45750600090506004612b78565b6040805160008082526020820180845289905260ff881692820192909252606081018690526080810185905260019060a0016020604051602081039080840390855afa158015612b48573d6000803e3d6000fd5b5050604051601f1901519150506001600160a01b038116612b7157600060019250925050612b78565b9150600090505b94509492505050565b6000816004811115612b9557612b9561438b565b03612b9d5750565b6001816004811115612bb157612bb161438b565b03612bf95760405162461bcd60e51b815260206004820152601860248201527745434453413a20696e76616c6964207369676e617475726560401b6044820152606401610ff8565b6002816004811115612c0d57612c0d61438b565b03612c5a5760405162461bcd60e51b815260206004820152601f60248201527f45434453413a20696e76616c6964207369676e6174757265206c656e677468006044820152606401610ff8565b6003816004811115612c6e57612c6e61438b565b03612cc65760405162461bcd60e51b815260206004820152602260248201527f45434453413a20696e76616c6964207369676e6174757265202773272076616c604482015261756560f01b6064820152608401610ff8565b6004816004811115612cda57612cda61438b565b0361136f5760405162461bcd60e51b815260206004820152602260248201527f45434453413a20696e76616c6964207369676e6174757265202776272076616c604482015261756560f01b6064820152608401610ff8565b60008581526004602090815260408083206001600160a01b038816845260088101909252909120805460ff1615612dc15760405162461bcd60e51b815260206004820152602d60248201527f476f7665726e6f72436f6d7061746962696c697479427261766f3a20766f746560448201526c08185b1c9958591e4818d85cdd609a1b6064820152608401610ff8565b805460ff86166101000261ffff19909116176001178155612de1846135e9565b81546001600160601b0391909116620100000262010000600160701b031990911617815560ff8516612e2c5783826006016000828254612e219190614a5c565b90915550612eca9050565b60001960ff861601612e4c5783826005016000828254612e219190614a5c565b60011960ff861601612e6c5783826007016000828254612e219190614a5c565b60405162461bcd60e51b815260206004820152602d60248201527f476f7665726e6f72436f6d7061746962696c697479427261766f3a20696e766160448201526c6c696420766f7465207479706560981b6064820152608401610ff8565b50505050505050565b60006001600160401b03821115612f3b5760405162461bcd60e51b815260206004820152602660248201527f53616665436173743a2076616c756520646f65736e27742066697420696e203660448201526534206269747360d01b6064820152608401610ff8565b5090565b81546001600160401b0319166001600160401b0391909116179055565b30612f65610994565b6001600160a01b0316146115d55760005b8451811015612ff557306001600160a01b0316858281518110612f9b57612f9b614a74565b60200260200101516001600160a01b031603612fe557612fe5838281518110612fc657612fc6614a74565b602002602001015180519060200120600261365190919063ffffffff16565b612fee81614af2565b9050612f76565b505050505050565b6115d5858585858561368d565b30613013610994565b6001600160a01b0316146115d55761302b6002613265565b6115d55760006002556115d5565b6000818152600160205260408120600281015460ff161561305d5750600792915050565b6002810154610100900460ff16156130785750600292915050565b600061308384610c1b565b9050806000036130d55760405162461bcd60e51b815260206004820152601d60248201527f476f7665726e6f723a20756e6b6e6f776e2070726f706f73616c2069640000006044820152606401610ff8565b4381106130e6575060009392505050565b60006130f1856114e6565b905043811061310557506001949350505050565b61310e85613803565b8015613130575060008581526004602052604090206006810154600590910154115b1561314057506004949350505050565b506003949350505050565b60008061315a8686868661382b565b9050600061316782611466565b90508015611ced5760005b87518110156132435760085488516001600160a01b039091169063591fcdfe908a90849081106131a4576131a4614a74565b60200260200101518984815181106131be576131be614a74565b60200260200101518985815181106131d8576131d8614a74565b6020026020010151866040518563ffffffff1660e01b81526004016132009493929190614a8a565b600060405180830381600087803b15801561321a57600080fd5b505af115801561322e573d6000803e3d6000fd5b505050508061323c90614af2565b9050613172565b50600082815260096020526040902080546001600160401b0319169055611ced565b54600f81810b600160801b909204900b131590565b6000613284611471565b613293336108db600143614900565b10156132fb5760405162461bcd60e51b815260206004820152603160248201527f476f7665726e6f723a2070726f706f73657220766f7465732062656c6f7720706044820152701c9bdc1bdcd85b081d1a1c995cda1bdb19607a1b6064820152608401610ff8565b600061331086868686805190602001206115dc565b905084518651146133335760405162461bcd60e51b8152600401610ff890614b73565b83518651146133545760405162461bcd60e51b8152600401610ff890614b73565b60008651116133a05760405162461bcd60e51b815260206004820152601860248201527711dbdd995c9b9bdc8e88195b5c1d1e481c1c9bdc1bdcd85b60421b6044820152606401610ff8565b600081815260016020908152604091829020825191820190925281546001600160401b031690819052156134205760405162461bcd60e51b815260206004820152602160248201527f476f7665726e6f723a2070726f706f73616c20616c72656164792065786973746044820152607360f81b6064820152608401610ff8565b600061343361342e60055490565b612ed3565b61343c43612ed3565b6134469190614bb4565b9050600061345661342e60065490565b6134609083614bb4565b905061346c8383612f3f565b6134796001840182612f3f565b7f7d84a6263ae0d98d3329bd7b46bb4e8d6f98cd35a7adb45c274c8b7fd5ebd5e084338b8b8d516001600160401b038111156134b7576134b7613ddb565b6040519080825280602002602001820160405280156134ea57816020015b60608152602001906001900390816134d55790505b508c88888e60405161350499989796959493929190614bdf565b60405180910390a15091979650505050505050565b60608247101561357a5760405162461bcd60e51b815260206004820152602660248201527f416464726573733a20696e73756666696369656e742062616c616e636520666f6044820152651c8818d85b1b60d21b6064820152608401610ff8565b600080866001600160a01b031685876040516135969190614c82565b60006040518083038185875af1925050503d80600081146135d3576040519150601f19603f3d011682016040523d82523d6000602084013e6135d8565b606091505b5091509150610f3c87838387613937565b60006001600160601b03821115612f3b5760405162461bcd60e51b815260206004820152602660248201527f53616665436173743a2076616c756520646f65736e27742066697420696e203960448201526536206269747360d01b6064820152608401610ff8565b8154600160801b90819004600f0b6000818152600180860160205260409091209390935583546001600160801b03908116939091011602179055565b600061369886611466565b9050600081116137045760405162461bcd60e51b815260206004820152603160248201527f476f7665726e6f7254696d656c6f636b436f6d706f756e643a2070726f706f73604482015270185b081b9bdd081e595d081c5d595d5959607a1b6064820152608401610ff8565b60085461371a906001600160a01b0316346139b0565b60005b8551811015612eca5760085486516001600160a01b0390911690630825f38f9088908490811061374f5761374f614a74565b602002602001015187848151811061376957613769614a74565b602002602001015187858151811061378357613783614a74565b6020026020010151866040518563ffffffff1660e01b81526004016137ab9493929190614a8a565b6000604051808303816000875af11580156137ca573d6000803e3d6000fd5b505050506040513d6000823e601f3d908101601f191682016040526137f29190810190614c9e565b506137fc81614af2565b905061371d565b6000818152600460205260408120600581015461382261094785610c1b565b11159392505050565b60008061383a868686866115dc565b9050600061384782610f47565b9050600281600781111561385d5761385d61438b565b1415801561387d5750600681600781111561387a5761387a61438b565b14155b801561389b575060078160078111156138985761389861438b565b14155b6138e75760405162461bcd60e51b815260206004820152601d60248201527f476f7665726e6f723a2070726f706f73616c206e6f74206163746976650000006044820152606401610ff8565b60008281526001602052604090819020600201805461ff001916610100179055517f789cf55be980739dad1d0699b93b58e806b51c9d96619bfa8fe0a28abaa7b30c906121c39084815260200190565b606083156139a657825160000361399f576001600160a01b0385163b61399f5760405162461bcd60e51b815260206004820152601d60248201527f416464726573733a2063616c6c20746f206e6f6e2d636f6e74726163740000006044820152606401610ff8565b5081610bde565b610bde8383613ac6565b80471015613a005760405162461bcd60e51b815260206004820152601d60248201527f416464726573733a20696e73756666696369656e742062616c616e63650000006044820152606401610ff8565b6000826001600160a01b03168260405160006040518083038185875af1925050503d8060008114613a4d576040519150601f19603f3d011682016040523d82523d6000602084013e613a52565b606091505b505090508061126a5760405162461bcd60e51b815260206004820152603a60248201527f416464726573733a20756e61626c6520746f2073656e642076616c75652c20726044820152791958da5c1a595b9d081b585e481a185d99481c995d995c9d195960321b6064820152608401610ff8565b815115613ad65781518083602001fd5b8060405162461bcd60e51b8152600401610ff89190613f9c565b828054828255906000526020600020908101928215613b45579160200282015b82811115613b4557825182546001600160a01b0319166001600160a01b03909116178255602090920191600190910190613b10565b50612f3b929150613c3e565b828054828255906000526020600020908101928215613b45579160200282015b82811115613b45578251825591602001919060010190613b71565b828054828255906000526020600020908101928215613bd9579160200282015b82811115613bd95782518051613bc9918491602090910190613c53565b5091602001919060010190613bac565b50612f3b929150613cc6565b828054828255906000526020600020908101928215613c32579160200282015b82811115613c325782518051613c22918491602090910190613c53565b5091602001919060010190613c05565b50612f3b929150613ce3565b5b80821115612f3b5760008155600101613c3f565b828054613c5f906148b0565b90600052602060002090601f016020900481019282613c815760008555613b45565b82601f10613c9a57805160ff1916838001178555613b45565b82800160010185558215613b455791820182811115613b45578251825591602001919060010190613b71565b80821115612f3b576000613cda8282613d00565b50600101613cc6565b80821115612f3b576000613cf78282613d00565b50600101613ce3565b508054613d0c906148b0565b6000825580601f10613d1c575050565b601f01602090049060005260206000209081019061136f9190613c3e565b600060208284031215613d4c57600080fd5b5035919050565b600060208284031215613d6557600080fd5b81356001600160e01b03198116811461196057600080fd5b803560ff81168114613d8e57600080fd5b919050565b60008083601f840112613da557600080fd5b5081356001600160401b03811115613dbc57600080fd5b602083019150836020828501011115613dd457600080fd5b9250929050565b634e487b7160e01b600052604160045260246000fd5b604051601f8201601f191681016001600160401b0381118282101715613e1957613e19613ddb565b604052919050565b60006001600160401b03821115613e3a57613e3a613ddb565b50601f01601f191660200190565b600082601f830112613e5957600080fd5b8135613e6c613e6782613e21565b613df1565b818152846020838601011115613e8157600080fd5b816020850160208301376000918101602001919091529392505050565b60008060008060008060008060e0898b031215613eba57600080fd5b88359750613eca60208a01613d7d565b965060408901356001600160401b0380821115613ee657600080fd5b613ef28c838d01613d93565b909850965060608b0135915080821115613f0b57600080fd5b50613f188b828c01613e48565b945050613f2760808a01613d7d565b925060a0890135915060c089013590509295985092959890939650565b60005b83811015613f5f578181015183820152602001613f47565b838111156114e05750506000910152565b60008151808452613f88816020860160208601613f44565b601f01601f19169290920160200192915050565b6020815260006119606020830184613f70565b6001600160a01b038116811461136f57600080fd5b60008060008060808587031215613fda57600080fd5b8435613fe581613faf565b93506020850135613ff581613faf565b92506040850135915060608501356001600160401b0381111561401757600080fd5b61402387828801613e48565b91505092959194509250565b60006001600160401b0382111561404857614048613ddb565b5060051b60200190565b600082601f83011261406357600080fd5b81356020614073613e678361402f565b82815260059290921b8401810191818101908684111561409257600080fd5b8286015b848110156140b65780356140a981613faf565b8352918301918301614096565b509695505050505050565b600082601f8301126140d257600080fd5b813560206140e2613e678361402f565b82815260059290921b8401810191818101908684111561410157600080fd5b8286015b848110156140b65780358352918301918301614105565b600082601f83011261412d57600080fd5b8135602061413d613e678361402f565b82815260059290921b8401810191818101908684111561415c57600080fd5b8286015b848110156140b65780356001600160401b0381111561417f5760008081fd5b61418d8986838b0101613e48565b845250918301918301614160565b600080600080608085870312156141b157600080fd5b84356001600160401b03808211156141c857600080fd5b6141d488838901614052565b955060208701359150808211156141ea57600080fd5b6141f6888389016140c1565b9450604087013591508082111561420c57600080fd5b506142198782880161411c565b949793965093946060013593505050565b600081518084526020808501945080840160005b838110156142635781516001600160a01b03168752958201959082019060010161423e565b509495945050505050565b600081518084526020808501945080840160005b8381101561426357815187529582019590820190600101614282565b6000815180845260208085019450848260051b860182860160005b858110156142e35783830389526142d1838351613f70565b988501989250908401906001016142b9565b5090979650505050505050565b608081526000614303608083018761422a565b8281036020840152614315818761426e565b90508281036040840152614329818661429e565b90508281036060840152610f3c818561429e565b600080600080600060a0868803121561435557600080fd5b8535945061436560208701613d7d565b935061437360408701613d7d565b94979396509394606081013594506080013592915050565b634e487b7160e01b600052602160045260246000fd5b60208101600883106143c357634e487b7160e01b600052602160045260246000fd5b91905290565b600080604083850312156143dc57600080fd5b8235915060208301356143ee81613faf565b809150509250929050565b6000806040838503121561440c57600080fd5b8235915061441c60208401613d7d565b90509250929050565b60008060008060006080868803121561443d57600080fd5b8535945061444d60208701613d7d565b935060408601356001600160401b038082111561446957600080fd5b61447589838a01613d93565b9095509350606088013591508082111561448e57600080fd5b5061449b88828901613e48565b9150509295509295909350565b600080600080606085870312156144be57600080fd5b843593506144ce60208601613d7d565b925060408501356001600160401b038111156144e957600080fd5b6144f587828801613d93565b95989497509550505050565b6000806000806080858703121561451757600080fd5b84356001600160401b038082111561452e57600080fd5b61453a88838901614052565b9550602087013591508082111561455057600080fd5b61455c888389016140c1565b9450604087013591508082111561457257600080fd5b61457e8883890161411c565b9350606087013591508082111561459457600080fd5b5061402387828801613e48565b6000806000606084860312156145b657600080fd5b83356145c181613faf565b92506020840135915060408401356001600160401b038111156145e357600080fd5b6145ef86828701613e48565b9150509250925092565b60006020828403121561460b57600080fd5b813561196081613faf565b600080600080600060a0868803121561462e57600080fd5b853561463981613faf565b9450602086013561464981613faf565b935060408601356001600160401b038082111561466557600080fd5b61467189838a016140c1565b9450606088013591508082111561468757600080fd5b61469389838a016140c1565b9350608088013591508082111561448e57600080fd5b600080600080606085870312156146bf57600080fd5b84356146ca81613faf565b93506020850135925060408501356001600160401b038111156144e957600080fd5b600082601f8301126146fd57600080fd5b8135602061470d613e678361402f565b82815260059290921b8401810191818101908684111561472c57600080fd5b8286015b848110156140b65780356001600160401b0381111561474f5760008081fd5b61475d8986838b0101613e48565b845250918301918301614730565b600080600080600060a0868803121561478357600080fd5b85356001600160401b038082111561479a57600080fd5b6147a689838a01614052565b965060208801359150808211156147bc57600080fd5b6147c889838a016140c1565b955060408801359150808211156147de57600080fd5b6147ea89838a016146ec565b9450606088013591508082111561480057600080fd5b61469389838a0161411c565b6000806040838503121561481f57600080fd5b823561482a81613faf565b946020939093013593505050565b600080600080600060a0868803121561485057600080fd5b853561485b81613faf565b9450602086013561486b81613faf565b9350604086013592506060860135915060808601356001600160401b0381111561489457600080fd5b61449b88828901613e48565b8183823760009101908152919050565b600181811c908216806148c457607f821691505b6020821081036148e457634e487b7160e01b600052602260045260246000fd5b50919050565b634e487b7160e01b600052601160045260246000fd5b600082821015614912576149126148ea565b500390565b602080825260189082015277476f7665726e6f723a206f6e6c79476f7665726e616e636560401b604082015260600190565b60808152600061495c608083018761422a565b828103602084015261496e818761426e565b90508281036040840152614982818661429e565b91505082606083015295945050505050565b84815260ff841660208201528260408201526080606082015260006113ba6080830184613f70565b85815260ff8516602082015283604082015260a0606082015260006149e460a0830185613f70565b82810360808401526149f68185613f70565b98975050505050505050565b60208082526021908201527f476f7665726e6f723a2070726f706f73616c206e6f74207375636365737366756040820152601b60fa1b606082015260800190565b600060208284031215614a5557600080fd5b5051919050565b60008219821115614a6f57614a6f6148ea565b500190565b634e487b7160e01b600052603260045260246000fd5b60018060a01b038516815283602082015260a06040820152600060a082015260c060608201526000614abf60c0830185613f70565b905082608083015295945050505050565b600060208284031215614ae257600080fd5b8151801515811461196057600080fd5b600060018201614b0457614b046148ea565b5060010190565b918252602082015260400190565b6001600160e01b0319831681528151600090614b3c816004850160208701613f44565b919091016004019392505050565b600060208284031215614b5c57600080fd5b81516001600160601b038116811461196057600080fd5b60208082526021908201527f476f7665726e6f723a20696e76616c69642070726f706f73616c206c656e67746040820152600d60fb1b606082015260800190565b60006001600160401b03828116848216808303821115614bd657614bd66148ea565b01949350505050565b8981526001600160a01b038916602082015261012060408201819052600090614c0a8382018b61422a565b90508281036060840152614c1e818a61426e565b90508281036080840152614c32818961429e565b905082810360a0840152614c46818861429e565b6001600160401b0387811660c0860152861660e08501528381036101008501529050614c728185613f70565b9c9b505050505050505050505050565b60008251614c94818460208701613f44565b9190910192915050565b600060208284031215614cb057600080fd5b81516001600160401b03811115614cc657600080fd5b8201601f81018413614cd757600080fd5b8051614ce5613e6782613e21565b818152856020838501011115614cfa57600080fd5b610bf4826020830160208601613f4456fe150214d74d59b7d1e90c73fc22ef3d991dd0a76b046543d4d80ab92d2a50328fb3b3f3b703cd84ce352197dcff232b1b5d3cfb2025ce47cf04742d0651f1af88416464726573733a206c6f772d6c6576656c2063616c6c20776974682076616c7565206661696c6564a2646970667358221220d3385d8b08ccecf26637b8f721f689b94a84bb7075250d3492468eaea2e964be64736f6c634300080e0033",
  "immutableReferences": {
    "7159": [
      {
        "length": 32,
        "start": 2399
      },
      {
        "length": 32,
        "start": 9782
      }
    ],
    "33049": [
      {
        "length": 32,
        "start": 10712
      }
    ],
    "33051": [
      {
        "length": 32,
        "start": 10670
      }
    ],
    "33053": [
      {
        "length": 32,
        "start": 10628
      }
    ],
    "33055": [
      {
        "length": 32,
        "start": 10795
      }
    ],
    "33057": [
      {
        "length": 32,
        "start": 10832
      }
    ],
    "33059": [
      {
        "length": 32,
        "start": 10753
      }
    ]
  },
  "source": "// SPDX-License-Identifier: MIT\r\n\r\npragma solidity ^0.8.0;\r\n\r\nimport \"../governance/compatibility/GovernorCompatibilityBravo.sol\";\r\nimport \"../governance/extensions/GovernorTimelockCompound.sol\";\r\nimport \"../governance/extensions/GovernorSettings.sol\";\r\nimport \"../governance/extensions/GovernorVotesComp.sol\";\r\n\r\ncontract GovernorCompatibilityBravoMock is\r\n    GovernorCompatibilityBravo,\r\n    GovernorSettings,\r\n    GovernorTimelockCompound,\r\n    GovernorVotesComp\r\n{\r\n    constructor(\r\n        string memory name_,\r\n        ERC20VotesComp token_,\r\n        uint256 votingDelay_,\r\n        uint256 votingPeriod_,\r\n        uint256 proposalThreshold_,\r\n        ICompoundTimelock timelock_\r\n    )\r\n        Governor(name_)\r\n        GovernorTimelockCompound(timelock_)\r\n        GovernorSettings(votingDelay_, votingPeriod_, proposalThreshold_)\r\n        GovernorVotesComp(token_)\r\n    {}\r\n\r\n    function supportsInterface(bytes4 interfaceId)\r\n        public\r\n        view\r\n        virtual\r\n        override(IERC165, Governor, GovernorTimelockCompound)\r\n        returns (bool)\r\n    {\r\n        return super.supportsInterface(interfaceId);\r\n    }\r\n\r\n    function quorum(uint256) public pure override returns (uint256) {\r\n        return 0;\r\n    }\r\n\r\n    function state(uint256 proposalId)\r\n        public\r\n        view\r\n        virtual\r\n        override(IGovernor, Governor, GovernorTimelockCompound)\r\n        returns (ProposalState)\r\n    {\r\n        return super.state(proposalId);\r\n    }\r\n\r\n    function proposalEta(uint256 proposalId)\r\n        public\r\n        view\r\n        virtual\r\n        override(IGovernorTimelock, GovernorTimelockCompound)\r\n        returns (uint256)\r\n    {\r\n        return super.proposalEta(proposalId);\r\n    }\r\n\r\n    function proposalThreshold() public view override(Governor, GovernorSettings) returns (uint256) {\r\n        return super.proposalThreshold();\r\n    }\r\n\r\n    function propose(\r\n        address[] memory targets,\r\n        uint256[] memory values,\r\n        bytes[] memory calldatas,\r\n        string memory description\r\n    ) public virtual override(IGovernor, Governor, GovernorCompatibilityBravo) returns (uint256) {\r\n        return super.propose(targets, values, calldatas, description);\r\n    }\r\n\r\n    function queue(\r\n        address[] memory targets,\r\n        uint256[] memory values,\r\n        bytes[] memory calldatas,\r\n        bytes32 salt\r\n    ) public virtual override(IGovernorTimelock, GovernorTimelockCompound) returns (uint256) {\r\n        return super.queue(targets, values, calldatas, salt);\r\n    }\r\n\r\n    function execute(\r\n        address[] memory targets,\r\n        uint256[] memory values,\r\n        bytes[] memory calldatas,\r\n        bytes32 salt\r\n    ) public payable virtual override(IGovernor, Governor) returns (uint256) {\r\n        return super.execute(targets, values, calldatas, salt);\r\n    }\r\n\r\n    function _execute(\r\n        uint256 proposalId,\r\n        address[] memory targets,\r\n        uint256[] memory values,\r\n        bytes[] memory calldatas,\r\n        bytes32 descriptionHash\r\n    ) internal virtual override(Governor, GovernorTimelockCompound) {\r\n        super._execute(proposalId, targets, values, calldatas, descriptionHash);\r\n    }\r\n\r\n    /**\r\n     * @notice WARNING: this is for mock purposes only. Ability to the _cancel function should be restricted for live\r\n     * deployments.\r\n     */\r\n    function cancel(\r\n        address[] memory targets,\r\n        uint256[] memory values,\r\n        bytes[] memory calldatas,\r\n        bytes32 salt\r\n    ) public returns (uint256 proposalId) {\r\n        return _cancel(targets, values, calldatas, salt);\r\n    }\r\n\r\n    function _cancel(\r\n        address[] memory targets,\r\n        uint256[] memory values,\r\n        bytes[] memory calldatas,\r\n        bytes32 salt\r\n    ) internal virtual override(Governor, GovernorTimelockCompound) returns (uint256 proposalId) {\r\n        return super._cancel(targets, values, calldatas, salt);\r\n    }\r\n\r\n    function _executor() internal view virtual override(Governor, GovernorTimelockCompound) returns (address) {\r\n        return super._executor();\r\n    }\r\n}\r\n",
  "sourcePath": "D:\\work\\www\\yopu_dapp_nft\\contracts\\lib\\openzeppelin\\contracts\\mocks\\GovernorCompatibilityBravoMock.sol",
  "compiler": {
    "name": "solc",
    "version": "0.8.14+commit.80d49f37.Emscripten.clang"
  },
  "schemaVersion": "3.4.7",
  "updatedAt": "2022-06-28T15:05:47.818Z",
  "devdoc": {
    "errors": {
      "Empty()": [
        {
          "details": "An operation (e.g. {front}) couldn't be completed due to the queue being empty."
        }
      ]
    },
    "kind": "dev",
    "methods": {
      "COUNTING_MODE()": {
        "details": "A description of the possible `support` values for {castVote} and the way these votes are counted, meant to be consumed by UIs to show correct vote options and interpret the results. The string is a URL-encoded sequence of key-value pairs that each describe one aspect, for example `support=bravo&quorum=for,abstain`. There are 2 standard keys: `support` and `quorum`. - `support=bravo` refers to the vote options 0 = Against, 1 = For, 2 = Abstain, as in `GovernorBravo`. - `quorum=bravo` means that only For votes are counted towards quorum. - `quorum=for,abstain` means that both For and Abstain votes are counted towards quorum. If a counting module makes use of encoded `params`, it should  include this under a `params` key with a unique name that describes the behavior. For example: - `params=fractional` might refer to a scheme where votes are divided fractionally between for/against/abstain. - `params=erc721` might refer to a scheme where specific NFTs are delegated to vote. NOTE: The string can be decoded by the standard https://developer.mozilla.org/en-US/docs/Web/API/URLSearchParams[`URLSearchParams`] JavaScript class."
      },
      "__acceptAdmin()": {
        "details": "Accept admin right over the timelock."
      },
      "cancel(uint256)": {
        "details": "Cancels a proposal only if sender is the proposer, or proposer delegates dropped below proposal threshold."
      },
      "castVote(uint256,uint8)": {
        "details": "See {IGovernor-castVote}."
      },
      "castVoteBySig(uint256,uint8,uint8,bytes32,bytes32)": {
        "details": "See {IGovernor-castVoteBySig}."
      },
      "castVoteWithReason(uint256,uint8,string)": {
        "details": "See {IGovernor-castVoteWithReason}."
      },
      "castVoteWithReasonAndParams(uint256,uint8,string,bytes)": {
        "details": "See {IGovernor-castVoteWithReasonAndParams}."
      },
      "castVoteWithReasonAndParamsBySig(uint256,uint8,string,bytes,uint8,bytes32,bytes32)": {
        "details": "See {IGovernor-castVoteWithReasonAndParamsBySig}."
      },
      "execute(uint256)": {
        "details": "See {IGovernorCompatibilityBravo-execute}."
      },
      "getActions(uint256)": {
        "details": "See {IGovernorCompatibilityBravo-getActions}."
      },
      "getReceipt(uint256,address)": {
        "details": "See {IGovernorCompatibilityBravo-getReceipt}."
      },
      "getVotes(address,uint256)": {
        "details": "See {IGovernor-getVotes}."
      },
      "getVotesWithParams(address,uint256,bytes)": {
        "details": "See {IGovernor-getVotesWithParams}."
      },
      "hasVoted(uint256,address)": {
        "details": "See {IGovernor-hasVoted}."
      },
      "hashProposal(address[],uint256[],bytes[],bytes32)": {
        "details": "See {IGovernor-hashProposal}. The proposal id is produced by hashing the RLC encoded `targets` array, the `values` array, the `calldatas` array and the descriptionHash (bytes32 which itself is the keccak256 hash of the description string). This proposal id can be produced from the proposal data which is part of the {ProposalCreated} event. It can even be computed in advance, before the proposal is submitted. Note that the chainId and the governor address are not part of the proposal id computation. Consequently, the same proposal (with same operation and same description) will have the same id if submitted on multiple governors across multiple networks. This also means that in order to execute the same operation twice (on the same governor) the proposer will have to change the description in order to avoid proposal id conflicts."
      },
      "name()": {
        "details": "See {IGovernor-name}."
      },
      "onERC1155BatchReceived(address,address,uint256[],uint256[],bytes)": {
        "details": "See {IERC1155Receiver-onERC1155BatchReceived}."
      },
      "onERC1155Received(address,address,uint256,uint256,bytes)": {
        "details": "See {IERC1155Receiver-onERC1155Received}."
      },
      "onERC721Received(address,address,uint256,bytes)": {
        "details": "See {IERC721Receiver-onERC721Received}."
      },
      "proposalDeadline(uint256)": {
        "details": "See {IGovernor-proposalDeadline}."
      },
      "proposalSnapshot(uint256)": {
        "details": "See {IGovernor-proposalSnapshot}."
      },
      "proposals(uint256)": {
        "details": "See {IGovernorCompatibilityBravo-proposals}."
      },
      "propose(address[],uint256[],string[],bytes[],string)": {
        "details": "See {IGovernorCompatibilityBravo-propose}."
      },
      "queue(uint256)": {
        "details": "See {IGovernorCompatibilityBravo-queue}."
      },
      "quorumVotes()": {
        "details": "See {IGovernorCompatibilityBravo-quorumVotes}."
      },
      "relay(address,uint256,bytes)": {
        "details": "Relays a transaction or function call to an arbitrary target. In cases where the governance executor is some contract other than the governor itself, like when using a timelock, this function can be invoked in a governance proposal to recover tokens or Ether that was sent to the governor contract by mistake. Note that if the executor is simply the governor itself, use of `relay` is redundant."
      },
      "setProposalThreshold(uint256)": {
        "details": "Update the proposal threshold. This operation can only be performed through a governance proposal. Emits a {ProposalThresholdSet} event."
      },
      "setVotingDelay(uint256)": {
        "details": "Update the voting delay. This operation can only be performed through a governance proposal. Emits a {VotingDelaySet} event."
      },
      "setVotingPeriod(uint256)": {
        "details": "Update the voting period. This operation can only be performed through a governance proposal. Emits a {VotingPeriodSet} event."
      },
      "timelock()": {
        "details": "Public accessor to check the address of the timelock"
      },
      "updateTimelock(address)": {
        "details": "Public endpoint to update the underlying timelock instance. Restricted to the timelock itself, so updates must be proposed, scheduled, and executed through governance proposals. For security reasons, the timelock must be handed over to another admin before setting up a new one. The two operations (hand over the timelock) and do the update can be batched in a single proposal. Note that if the timelock admin has been handed over in a previous operation, we refuse updates made through the timelock if admin of the timelock has already been accepted and the operation is executed outside the scope of governance. CAUTION: It is not recommended to change the timelock while there are other queued governance proposals."
      },
      "version()": {
        "details": "See {IGovernor-version}."
      },
      "votingDelay()": {
        "details": "See {IGovernor-votingDelay}."
      },
      "votingPeriod()": {
        "details": "See {IGovernor-votingPeriod}."
      }
    },
    "version": 1
  },
  "userdoc": {
    "kind": "user",
    "methods": {
      "COUNTING_MODE()": {
        "notice": "module:voting"
      },
      "cancel(address[],uint256[],bytes[],bytes32)": {
        "notice": "WARNING: this is for mock purposes only. Ability to the _cancel function should be restricted for live deployments."
      }
    },
    "version": 1
  }
}