{
  "contractName": "GovernorVoteMocks",
  "abi": [
    {
      "inputs": [
        {
          "internalType": "string",
          "name": "name_",
          "type": "string"
        },
        {
          "internalType": "contract IVotes",
          "name": "token_",
          "type": "address"
        }
      ],
      "stateMutability": "nonpayable",
      "type": "constructor"
    },
    {
      "inputs": [],
      "name": "Empty",
      "type": "error"
    },
    {
      "anonymous": false,
      "inputs": [
        {
          "indexed": false,
          "internalType": "uint256",
          "name": "proposalId",
          "type": "uint256"
        }
      ],
      "name": "ProposalCanceled",
      "type": "event"
    },
    {
      "anonymous": false,
      "inputs": [
        {
          "indexed": false,
          "internalType": "uint256",
          "name": "proposalId",
          "type": "uint256"
        },
        {
          "indexed": false,
          "internalType": "address",
          "name": "proposer",
          "type": "address"
        },
        {
          "indexed": false,
          "internalType": "address[]",
          "name": "targets",
          "type": "address[]"
        },
        {
          "indexed": false,
          "internalType": "uint256[]",
          "name": "values",
          "type": "uint256[]"
        },
        {
          "indexed": false,
          "internalType": "string[]",
          "name": "signatures",
          "type": "string[]"
        },
        {
          "indexed": false,
          "internalType": "bytes[]",
          "name": "calldatas",
          "type": "bytes[]"
        },
        {
          "indexed": false,
          "internalType": "uint256",
          "name": "startBlock",
          "type": "uint256"
        },
        {
          "indexed": false,
          "internalType": "uint256",
          "name": "endBlock",
          "type": "uint256"
        },
        {
          "indexed": false,
          "internalType": "string",
          "name": "description",
          "type": "string"
        }
      ],
      "name": "ProposalCreated",
      "type": "event"
    },
    {
      "anonymous": false,
      "inputs": [
        {
          "indexed": false,
          "internalType": "uint256",
          "name": "proposalId",
          "type": "uint256"
        }
      ],
      "name": "ProposalExecuted",
      "type": "event"
    },
    {
      "anonymous": false,
      "inputs": [
        {
          "indexed": true,
          "internalType": "address",
          "name": "voter",
          "type": "address"
        },
        {
          "indexed": false,
          "internalType": "uint256",
          "name": "proposalId",
          "type": "uint256"
        },
        {
          "indexed": false,
          "internalType": "uint8",
          "name": "support",
          "type": "uint8"
        },
        {
          "indexed": false,
          "internalType": "uint256",
          "name": "weight",
          "type": "uint256"
        },
        {
          "indexed": false,
          "internalType": "string",
          "name": "reason",
          "type": "string"
        }
      ],
      "name": "VoteCast",
      "type": "event"
    },
    {
      "anonymous": false,
      "inputs": [
        {
          "indexed": true,
          "internalType": "address",
          "name": "voter",
          "type": "address"
        },
        {
          "indexed": false,
          "internalType": "uint256",
          "name": "proposalId",
          "type": "uint256"
        },
        {
          "indexed": false,
          "internalType": "uint8",
          "name": "support",
          "type": "uint8"
        },
        {
          "indexed": false,
          "internalType": "uint256",
          "name": "weight",
          "type": "uint256"
        },
        {
          "indexed": false,
          "internalType": "string",
          "name": "reason",
          "type": "string"
        },
        {
          "indexed": false,
          "internalType": "bytes",
          "name": "params",
          "type": "bytes"
        }
      ],
      "name": "VoteCastWithParams",
      "type": "event"
    },
    {
      "inputs": [],
      "name": "BALLOT_TYPEHASH",
      "outputs": [
        {
          "internalType": "bytes32",
          "name": "",
          "type": "bytes32"
        }
      ],
      "stateMutability": "view",
      "type": "function"
    },
    {
      "inputs": [],
      "name": "COUNTING_MODE",
      "outputs": [
        {
          "internalType": "string",
          "name": "",
          "type": "string"
        }
      ],
      "stateMutability": "pure",
      "type": "function"
    },
    {
      "inputs": [],
      "name": "EXTENDED_BALLOT_TYPEHASH",
      "outputs": [
        {
          "internalType": "bytes32",
          "name": "",
          "type": "bytes32"
        }
      ],
      "stateMutability": "view",
      "type": "function"
    },
    {
      "inputs": [
        {
          "internalType": "uint256",
          "name": "proposalId",
          "type": "uint256"
        },
        {
          "internalType": "uint8",
          "name": "support",
          "type": "uint8"
        }
      ],
      "name": "castVote",
      "outputs": [
        {
          "internalType": "uint256",
          "name": "",
          "type": "uint256"
        }
      ],
      "stateMutability": "nonpayable",
      "type": "function"
    },
    {
      "inputs": [
        {
          "internalType": "uint256",
          "name": "proposalId",
          "type": "uint256"
        },
        {
          "internalType": "uint8",
          "name": "support",
          "type": "uint8"
        },
        {
          "internalType": "uint8",
          "name": "v",
          "type": "uint8"
        },
        {
          "internalType": "bytes32",
          "name": "r",
          "type": "bytes32"
        },
        {
          "internalType": "bytes32",
          "name": "s",
          "type": "bytes32"
        }
      ],
      "name": "castVoteBySig",
      "outputs": [
        {
          "internalType": "uint256",
          "name": "",
          "type": "uint256"
        }
      ],
      "stateMutability": "nonpayable",
      "type": "function"
    },
    {
      "inputs": [
        {
          "internalType": "uint256",
          "name": "proposalId",
          "type": "uint256"
        },
        {
          "internalType": "uint8",
          "name": "support",
          "type": "uint8"
        },
        {
          "internalType": "string",
          "name": "reason",
          "type": "string"
        }
      ],
      "name": "castVoteWithReason",
      "outputs": [
        {
          "internalType": "uint256",
          "name": "",
          "type": "uint256"
        }
      ],
      "stateMutability": "nonpayable",
      "type": "function"
    },
    {
      "inputs": [
        {
          "internalType": "uint256",
          "name": "proposalId",
          "type": "uint256"
        },
        {
          "internalType": "uint8",
          "name": "support",
          "type": "uint8"
        },
        {
          "internalType": "string",
          "name": "reason",
          "type": "string"
        },
        {
          "internalType": "bytes",
          "name": "params",
          "type": "bytes"
        }
      ],
      "name": "castVoteWithReasonAndParams",
      "outputs": [
        {
          "internalType": "uint256",
          "name": "",
          "type": "uint256"
        }
      ],
      "stateMutability": "nonpayable",
      "type": "function"
    },
    {
      "inputs": [
        {
          "internalType": "uint256",
          "name": "proposalId",
          "type": "uint256"
        },
        {
          "internalType": "uint8",
          "name": "support",
          "type": "uint8"
        },
        {
          "internalType": "string",
          "name": "reason",
          "type": "string"
        },
        {
          "internalType": "bytes",
          "name": "params",
          "type": "bytes"
        },
        {
          "internalType": "uint8",
          "name": "v",
          "type": "uint8"
        },
        {
          "internalType": "bytes32",
          "name": "r",
          "type": "bytes32"
        },
        {
          "internalType": "bytes32",
          "name": "s",
          "type": "bytes32"
        }
      ],
      "name": "castVoteWithReasonAndParamsBySig",
      "outputs": [
        {
          "internalType": "uint256",
          "name": "",
          "type": "uint256"
        }
      ],
      "stateMutability": "nonpayable",
      "type": "function"
    },
    {
      "inputs": [
        {
          "internalType": "address[]",
          "name": "targets",
          "type": "address[]"
        },
        {
          "internalType": "uint256[]",
          "name": "values",
          "type": "uint256[]"
        },
        {
          "internalType": "bytes[]",
          "name": "calldatas",
          "type": "bytes[]"
        },
        {
          "internalType": "bytes32",
          "name": "descriptionHash",
          "type": "bytes32"
        }
      ],
      "name": "execute",
      "outputs": [
        {
          "internalType": "uint256",
          "name": "",
          "type": "uint256"
        }
      ],
      "stateMutability": "payable",
      "type": "function"
    },
    {
      "inputs": [
        {
          "internalType": "address",
          "name": "account",
          "type": "address"
        },
        {
          "internalType": "uint256",
          "name": "blockNumber",
          "type": "uint256"
        }
      ],
      "name": "getVotes",
      "outputs": [
        {
          "internalType": "uint256",
          "name": "",
          "type": "uint256"
        }
      ],
      "stateMutability": "view",
      "type": "function"
    },
    {
      "inputs": [
        {
          "internalType": "address",
          "name": "account",
          "type": "address"
        },
        {
          "internalType": "uint256",
          "name": "blockNumber",
          "type": "uint256"
        },
        {
          "internalType": "bytes",
          "name": "params",
          "type": "bytes"
        }
      ],
      "name": "getVotesWithParams",
      "outputs": [
        {
          "internalType": "uint256",
          "name": "",
          "type": "uint256"
        }
      ],
      "stateMutability": "view",
      "type": "function"
    },
    {
      "inputs": [
        {
          "internalType": "uint256",
          "name": "proposalId",
          "type": "uint256"
        },
        {
          "internalType": "address",
          "name": "account",
          "type": "address"
        }
      ],
      "name": "hasVoted",
      "outputs": [
        {
          "internalType": "bool",
          "name": "",
          "type": "bool"
        }
      ],
      "stateMutability": "view",
      "type": "function"
    },
    {
      "inputs": [
        {
          "internalType": "address[]",
          "name": "targets",
          "type": "address[]"
        },
        {
          "internalType": "uint256[]",
          "name": "values",
          "type": "uint256[]"
        },
        {
          "internalType": "bytes[]",
          "name": "calldatas",
          "type": "bytes[]"
        },
        {
          "internalType": "bytes32",
          "name": "descriptionHash",
          "type": "bytes32"
        }
      ],
      "name": "hashProposal",
      "outputs": [
        {
          "internalType": "uint256",
          "name": "",
          "type": "uint256"
        }
      ],
      "stateMutability": "pure",
      "type": "function"
    },
    {
      "inputs": [],
      "name": "name",
      "outputs": [
        {
          "internalType": "string",
          "name": "",
          "type": "string"
        }
      ],
      "stateMutability": "view",
      "type": "function"
    },
    {
      "inputs": [
        {
          "internalType": "address",
          "name": "",
          "type": "address"
        },
        {
          "internalType": "address",
          "name": "",
          "type": "address"
        },
        {
          "internalType": "uint256[]",
          "name": "",
          "type": "uint256[]"
        },
        {
          "internalType": "uint256[]",
          "name": "",
          "type": "uint256[]"
        },
        {
          "internalType": "bytes",
          "name": "",
          "type": "bytes"
        }
      ],
      "name": "onERC1155BatchReceived",
      "outputs": [
        {
          "internalType": "bytes4",
          "name": "",
          "type": "bytes4"
        }
      ],
      "stateMutability": "nonpayable",
      "type": "function"
    },
    {
      "inputs": [
        {
          "internalType": "address",
          "name": "",
          "type": "address"
        },
        {
          "internalType": "address",
          "name": "",
          "type": "address"
        },
        {
          "internalType": "uint256",
          "name": "",
          "type": "uint256"
        },
        {
          "internalType": "uint256",
          "name": "",
          "type": "uint256"
        },
        {
          "internalType": "bytes",
          "name": "",
          "type": "bytes"
        }
      ],
      "name": "onERC1155Received",
      "outputs": [
        {
          "internalType": "bytes4",
          "name": "",
          "type": "bytes4"
        }
      ],
      "stateMutability": "nonpayable",
      "type": "function"
    },
    {
      "inputs": [
        {
          "internalType": "address",
          "name": "",
          "type": "address"
        },
        {
          "internalType": "address",
          "name": "",
          "type": "address"
        },
        {
          "internalType": "uint256",
          "name": "",
          "type": "uint256"
        },
        {
          "internalType": "bytes",
          "name": "",
          "type": "bytes"
        }
      ],
      "name": "onERC721Received",
      "outputs": [
        {
          "internalType": "bytes4",
          "name": "",
          "type": "bytes4"
        }
      ],
      "stateMutability": "nonpayable",
      "type": "function"
    },
    {
      "inputs": [
        {
          "internalType": "uint256",
          "name": "proposalId",
          "type": "uint256"
        }
      ],
      "name": "proposalDeadline",
      "outputs": [
        {
          "internalType": "uint256",
          "name": "",
          "type": "uint256"
        }
      ],
      "stateMutability": "view",
      "type": "function"
    },
    {
      "inputs": [
        {
          "internalType": "uint256",
          "name": "proposalId",
          "type": "uint256"
        }
      ],
      "name": "proposalSnapshot",
      "outputs": [
        {
          "internalType": "uint256",
          "name": "",
          "type": "uint256"
        }
      ],
      "stateMutability": "view",
      "type": "function"
    },
    {
      "inputs": [],
      "name": "proposalThreshold",
      "outputs": [
        {
          "internalType": "uint256",
          "name": "",
          "type": "uint256"
        }
      ],
      "stateMutability": "view",
      "type": "function"
    },
    {
      "inputs": [
        {
          "internalType": "uint256",
          "name": "proposalId",
          "type": "uint256"
        }
      ],
      "name": "proposalVotes",
      "outputs": [
        {
          "internalType": "uint256",
          "name": "againstVotes",
          "type": "uint256"
        },
        {
          "internalType": "uint256",
          "name": "forVotes",
          "type": "uint256"
        },
        {
          "internalType": "uint256",
          "name": "abstainVotes",
          "type": "uint256"
        }
      ],
      "stateMutability": "view",
      "type": "function"
    },
    {
      "inputs": [
        {
          "internalType": "address[]",
          "name": "targets",
          "type": "address[]"
        },
        {
          "internalType": "uint256[]",
          "name": "values",
          "type": "uint256[]"
        },
        {
          "internalType": "bytes[]",
          "name": "calldatas",
          "type": "bytes[]"
        },
        {
          "internalType": "string",
          "name": "description",
          "type": "string"
        }
      ],
      "name": "propose",
      "outputs": [
        {
          "internalType": "uint256",
          "name": "",
          "type": "uint256"
        }
      ],
      "stateMutability": "nonpayable",
      "type": "function"
    },
    {
      "inputs": [
        {
          "internalType": "address",
          "name": "target",
          "type": "address"
        },
        {
          "internalType": "uint256",
          "name": "value",
          "type": "uint256"
        },
        {
          "internalType": "bytes",
          "name": "data",
          "type": "bytes"
        }
      ],
      "name": "relay",
      "outputs": [],
      "stateMutability": "nonpayable",
      "type": "function"
    },
    {
      "inputs": [
        {
          "internalType": "uint256",
          "name": "proposalId",
          "type": "uint256"
        }
      ],
      "name": "state",
      "outputs": [
        {
          "internalType": "enum IGovernor.ProposalState",
          "name": "",
          "type": "uint8"
        }
      ],
      "stateMutability": "view",
      "type": "function"
    },
    {
      "inputs": [
        {
          "internalType": "bytes4",
          "name": "interfaceId",
          "type": "bytes4"
        }
      ],
      "name": "supportsInterface",
      "outputs": [
        {
          "internalType": "bool",
          "name": "",
          "type": "bool"
        }
      ],
      "stateMutability": "view",
      "type": "function"
    },
    {
      "inputs": [],
      "name": "token",
      "outputs": [
        {
          "internalType": "contract IVotes",
          "name": "",
          "type": "address"
        }
      ],
      "stateMutability": "view",
      "type": "function"
    },
    {
      "inputs": [],
      "name": "version",
      "outputs": [
        {
          "internalType": "string",
          "name": "",
          "type": "string"
        }
      ],
      "stateMutability": "view",
      "type": "function"
    },
    {
      "stateMutability": "payable",
      "type": "receive"
    },
    {
      "inputs": [
        {
          "internalType": "uint256",
          "name": "",
          "type": "uint256"
        }
      ],
      "name": "quorum",
      "outputs": [
        {
          "internalType": "uint256",
          "name": "",
          "type": "uint256"
        }
      ],
      "stateMutability": "pure",
      "type": "function"
    },
    {
      "inputs": [],
      "name": "votingDelay",
      "outputs": [
        {
          "internalType": "uint256",
          "name": "",
          "type": "uint256"
        }
      ],
      "stateMutability": "pure",
      "type": "function"
    },
    {
      "inputs": [],
      "name": "votingPeriod",
      "outputs": [
        {
          "internalType": "uint256",
          "name": "",
          "type": "uint256"
        }
      ],
      "stateMutability": "pure",
      "type": "function"
    },
    {
      "inputs": [
        {
          "internalType": "address[]",
          "name": "targets",
          "type": "address[]"
        },
        {
          "internalType": "uint256[]",
          "name": "values",
          "type": "uint256[]"
        },
        {
          "internalType": "bytes[]",
          "name": "calldatas",
          "type": "bytes[]"
        },
        {
          "internalType": "bytes32",
          "name": "salt",
          "type": "bytes32"
        }
      ],
      "name": "cancel",
      "outputs": [
        {
          "internalType": "uint256",
          "name": "proposalId",
          "type": "uint256"
        }
      ],
      "stateMutability": "nonpayable",
      "type": "function"
    }
  ],
  "bytecode": "0x6101606040523480156200001257600080fd5b5060405162002e7238038062002e728339810160408190526200003591620001ee565b808280620000576040805180820190915260018152603160f81b602082015290565b815160208084019190912082518383012060e08290526101008190524660a0818152604080517f8b73c3c69bb8fe3d512ecc4cf759cc79239f7b179b0ffacaa9a75d522b39400f81880181905281830187905260608201869052608082019490945230818401528151808203909301835260c00190528051940193909320919290916080523060c0526101205250508251620000fd925060009150602084019062000115565b50506001600160a01b031661014052506200031b9050565b8280546200012390620002df565b90600052602060002090601f01602090048101928262000147576000855562000192565b82601f106200016257805160ff191683800117855562000192565b8280016001018555821562000192579182015b828111156200019257825182559160200191906001019062000175565b50620001a0929150620001a4565b5090565b5b80821115620001a05760008155600101620001a5565b634e487b7160e01b600052604160045260246000fd5b80516001600160a01b0381168114620001e957600080fd5b919050565b600080604083850312156200020257600080fd5b82516001600160401b03808211156200021a57600080fd5b818501915085601f8301126200022f57600080fd5b815181811115620002445762000244620001bb565b604051601f8201601f19908116603f011681019083821181831017156200026f576200026f620001bb565b816040528281526020935088848487010111156200028c57600080fd5b600091505b82821015620002b0578482018401518183018501529083019062000291565b82821115620002c25760008484830101525b9550620002d4915050858201620001d1565b925050509250929050565b600181811c90821680620002f457607f821691505b6020821081036200031557634e487b7160e01b600052602260045260246000fd5b50919050565b60805160a05160c05160e051610100516101205161014051612af56200037d6000396000818161060e0152611548015260006116db0152600061172a015260006117050152600061165e01526000611688015260006116b20152612af56000f3fe60806040526004361061016c5760003560e01c806301ffc9a71461017a57806302a251a3146101af57806303420181146101cd57806306fdde03146101ed578063150b7a021461020f5780632656227d146102485780632d63f6931461025b5780632fe3e2611461027b5780633932abb11461029d5780633bccf4fd146102b15780633e4f49e6146102d157806343859632146102fe578063452115d614610348578063544ffc9c1461036857806354fd4d50146103bd57806356781388146103e75780635f398a14146104075780637b3c71d3146104275780637d5e81e2146104475780639a802a6d14610467578063b58131b014610487578063bc197c811461049b578063c01f9e37146104c7578063c28bc2fa146104e7578063c59057e414610507578063dd4e2ba514610527578063deaaa7cc1461056d578063eb9019d41461058f578063f23a6e61146105af578063f8ce560a146105db578063fc0c546a146105fc57600080fd5b3661017557005b005b600080fd5b34801561018657600080fd5b5061019a610195366004611d51565b610648565b60405190151581526020015b60405180910390f35b3480156101bb57600080fd5b5060105b6040519081526020016101a6565b3480156101d957600080fd5b506101bf6101e8366004611e96565b6106b5565b3480156101f957600080fd5b5061020261079b565b6040516101a69190611f98565b34801561021b57600080fd5b5061022f61022a366004611fc2565b61082d565b6040516001600160e01b031990911681526020016101a6565b6101bf610256366004612198565b61083e565b34801561026757600080fd5b506101bf610276366004612227565b61096a565b34801561028757600080fd5b506101bf600080516020612a5083398151915281565b3480156102a957600080fd5b5060046101bf565b3480156102bd57600080fd5b506101bf6102cc366004612240565b6109a1565b3480156102dd57600080fd5b506102f16102ec366004612227565b610a05565b6040516101a691906122a4565b34801561030a57600080fd5b5061019a6103193660046122cc565b60008281526004602090815260408083206001600160a01b038516845260030190915290205460ff1692915050565b34801561035457600080fd5b506101bf610363366004612198565b610b14565b34801561037457600080fd5b506103a2610383366004612227565b6000908152600460205260409020805460018201546002909201549092565b604080519384526020840192909252908201526060016101a6565b3480156103c957600080fd5b506040805180820190915260018152603160f81b6020820152610202565b3480156103f357600080fd5b506101bf6104023660046122f8565b610b2b565b34801561041357600080fd5b506101bf61042236600461231b565b610b4c565b34801561043357600080fd5b506101bf61044236600461239e565b610b96565b34801561045357600080fd5b506101bf6104623660046123f7565b610be8565b34801561047357600080fd5b506101bf6104823660046124ab565b610e77565b34801561049357600080fd5b5060006101bf565b3480156104a757600080fd5b5061022f6104b6366004612501565b63bc197c8160e01b95945050505050565b3480156104d357600080fd5b506101bf6104e2366004612227565b610e8e565b3480156104f357600080fd5b50610173610502366004612590565b610ebd565b34801561051357600080fd5b506101bf610522366004612198565b610f67565b34801561053357600080fd5b506040805180820190915260208082527f737570706f72743d627261766f2671756f72756d3d666f722c6162737461696e90820152610202565b34801561057957600080fd5b506101bf600080516020612a3083398151915281565b34801561059b57600080fd5b506101bf6105aa3660046125d1565b610fa1565b3480156105bb57600080fd5b5061022f6105ca3660046125fb565b63f23a6e6160e01b95945050505050565b3480156105e757600080fd5b506101bf6105f6366004612227565b50600090565b34801561060857600080fd5b506106307f000000000000000000000000000000000000000000000000000000000000000081565b6040516001600160a01b0390911681526020016101a6565b60006001600160e01b0319821663bf26d89760e01b148061067957506001600160e01b031982166379dd796f60e01b145b8061069457506001600160e01b03198216630271189760e51b145b806106af57506301ffc9a760e01b6001600160e01b03198316145b92915050565b60008061074761073f600080516020612a508339815191528c8c8c8c6040516106df92919061265f565b60405180910390208b80519060200120604051602001610724959493929190948552602085019390935260ff9190911660408401526060830152608082015260a00190565b60405160208183030381529060405280519060200120610fc2565b868686611010565b905061078d8a828b8b8b8080601f0160208091040260200160405190810160405280939291908181526020018383808284376000920191909152508d925061102e915050565b9a9950505050505050505050565b6060600080546107aa9061266f565b80601f01602080910402602001604051908101604052809291908181526020018280546107d69061266f565b80156108235780601f106107f857610100808354040283529160200191610823565b820191906000526020600020905b81548152906001019060200180831161080657829003601f168201915b5050505050905090565b630a85bd0160e11b5b949350505050565b60008061084d86868686610f67565b9050600061085a82610a05565b905060048160078111156108705761087061228e565b148061088d5750600581600781111561088b5761088b61228e565b145b6108e85760405162461bcd60e51b815260206004820152602160248201527f476f7665726e6f723a2070726f706f73616c206e6f74207375636365737366756044820152601b60fa1b60648201526084015b60405180910390fd5b600082815260016020818152604092839020600201805460ff191690921790915590518381527f712ae1383f79ac853f8d882153778e0260ef8f03b504e2866e0593e04d2b291f910160405180910390a16109468288888888611193565b610953828888888861121f565b6109608288888888611193565b5095945050505050565b60008181526001602090815260408083208151928301909152546001600160401b0316908190525b6001600160401b031692915050565b60408051600080516020612a30833981519152602082015290810186905260ff8516606082015260009081906109dd9061073f90608001610724565b90506109fa8782886040518060200160405280600081525061131e565b979650505050505050565b6000818152600160205260408120600281015460ff1615610a295750600792915050565b6002810154610100900460ff1615610a445750600292915050565b6000610a4f8461096a565b905080600003610aa15760405162461bcd60e51b815260206004820152601d60248201527f476f7665726e6f723a20756e6b6e6f776e2070726f706f73616c20696400000060448201526064016108df565b438110610ab2575060009392505050565b6000610abd85610e8e565b9050438110610ad157506001949350505050565b610ada85611341565b8015610af9575060008581526004602052604090208054600190910154115b15610b0957506004949350505050565b506003949350505050565b6000610b2285858585611378565b95945050505050565b6000803390506108368482856040518060200160405280600081525061131e565b6000803390506109fa87828888888080601f0160208091040260200160405190810160405280939291908181526020018383808284376000920191909152508a925061102e915050565b600080339050610bde86828787878080601f01602080910402602001604051908101604052809392919081815260200183838082843760009201919091525061131e92505050565b9695505050505050565b600080610bfa336105aa6001436126bf565b1015610c625760405162461bcd60e51b815260206004820152603160248201527f476f7665726e6f723a2070726f706f73657220766f7465732062656c6f7720706044820152701c9bdc1bdcd85b081d1a1c995cda1bdb19607a1b60648201526084016108df565b6000610c778686868680519060200120610f67565b90508451865114610c9a5760405162461bcd60e51b81526004016108df906126d6565b8351865114610cbb5760405162461bcd60e51b81526004016108df906126d6565b6000865111610d075760405162461bcd60e51b815260206004820152601860248201527711dbdd995c9b9bdc8e88195b5c1d1e481c1c9bdc1bdcd85b60421b60448201526064016108df565b600081815260016020908152604091829020825191820190925281546001600160401b03169081905215610d875760405162461bcd60e51b815260206004820152602160248201527f476f7665726e6f723a2070726f706f73616c20616c72656164792065786973746044820152607360f81b60648201526084016108df565b6000610d936004611496565b610d9c43611496565b610da69190612717565b90506000610db46010611496565b610dbe9083612717565b9050610dca8383611502565b610dd76001840182611502565b7f7d84a6263ae0d98d3329bd7b46bb4e8d6f98cd35a7adb45c274c8b7fd5ebd5e084338b8b8d516001600160401b03811115610e1557610e15611dd9565b604051908082528060200260200182016040528015610e4857816020015b6060815260200190600190039081610e335790505b508c88888e604051610e629998979695949392919061280b565b60405180910390a15091979650505050505050565b6000610e8484848461151f565b90505b9392505050565b60008181526001602081815260408084208151928301909152909101546001600160401b031690819052610992565b333014610f075760405162461bcd60e51b8152602060048201526018602482015277476f7665726e6f723a206f6e6c79476f7665726e616e636560401b60448201526064016108df565b610f1e565b80610f1760026115b5565b03610f0c57505b610f608483838080601f01602080910402602001604051908101604052809392919081815260200183838082843760009201919091525088925061162b915050565b5050505050565b600084848484604051602001610f8094939291906128fa565b60408051601f19818403018152919052805160209091012095945050505050565b6000610e878383610fbd60408051602081019091526000815290565b61151f565b60006106af610fcf611651565b8360405161190160f01b6020820152602281018390526042810182905260009060620160405160208183030381529060405280519060200120905092915050565b600080600061102187878787611778565b915091506109608161185b565b600085815260016020819052604082209061104888610a05565b60078111156110595761105961228e565b146110b25760405162461bcd60e51b815260206004820152602360248201527f476f7665726e6f723a20766f7465206e6f742063757272656e746c792061637460448201526269766560e81b60648201526084016108df565b604080516020810190915281546001600160401b0316908190526000906110db9088908661151f565b90506110ea8888888488611a0f565b835160000361113f57866001600160a01b03167fb8e138887d0aa13bab447e82de9d5c1777041ecd21ca36ba824ff1e6c07ddda4898884896040516111329493929190612945565b60405180910390a26109fa565b866001600160a01b03167fe2babfbac5889a709b63bb7f598b324e08bc5a4fb9ec647fb3cbc9ec07eb8712898884898960405161118095949392919061296d565b60405180910390a2979650505050505050565b610f60565b845181101561121757306001600160a01b03168582815181106111bd576111bd6129b3565b60200260200101516001600160a01b031603611207576112078382815181106111e8576111e86129b3565b6020026020010151805190602001206002611b8990919063ffffffff16565b611210816129c9565b9050611198565b505050505050565b6000604051806060016040528060278152602001612a7060279139905060005b85518110156113155760008087838151811061125d5761125d6129b3565b60200260200101516001600160a01b0316878481518110611280576112806129b3565b602002602001015187858151811061129a5761129a6129b3565b60200260200101516040516112af91906129e2565b60006040518083038185875af1925050503d80600081146112ec576040519150601f19603f3d011682016040523d82523d6000602084013e6112f1565b606091505b5091509150611301828286611bc5565b5050508061130e906129c9565b905061123f565b50505050505050565b6000610b228585858561133c60408051602081019091526000815290565b61102e565b60008181526004602052604081206002810154600182015461136391906129fe565b61136f6105f68561096a565b11159392505050565b60008061138786868686610f67565b9050600061139482610a05565b905060028160078111156113aa576113aa61228e565b141580156113ca575060068160078111156113c7576113c761228e565b14155b80156113e8575060078160078111156113e5576113e561228e565b14155b6114345760405162461bcd60e51b815260206004820152601d60248201527f476f7665726e6f723a2070726f706f73616c206e6f742061637469766500000060448201526064016108df565b60008281526001602052604090819020600201805461ff001916610100179055517f789cf55be980739dad1d0699b93b58e806b51c9d96619bfa8fe0a28abaa7b30c906114849084815260200190565b60405180910390a15095945050505050565b60006001600160401b038211156114fe5760405162461bcd60e51b815260206004820152602660248201527f53616665436173743a2076616c756520646f65736e27742066697420696e203660448201526534206269747360d01b60648201526084016108df565b5090565b81546001600160401b0319166001600160401b0391909116179055565b604051630748d63560e31b81526001600160a01b038481166004830152602482018490526000917f000000000000000000000000000000000000000000000000000000000000000090911690633a46b1a890604401602060405180830381865afa158015611591573d6000803e3d6000fd5b505050506040513d601f19601f82011682018060405250810190610e849190612a16565b60006115d08254600f81810b600160801b909204900b131590565b156115ee57604051631ed9509560e11b815260040160405180910390fd5b508054600f0b6000818152600180840160205260408220805492905583546001600160801b03191692016001600160801b03169190911790915590565b6060610e84848484604051806060016040528060298152602001612a9760299139611bde565b6000306001600160a01b037f0000000000000000000000000000000000000000000000000000000000000000161480156116aa57507f000000000000000000000000000000000000000000000000000000000000000046145b156116d457507f000000000000000000000000000000000000000000000000000000000000000090565b50604080517f00000000000000000000000000000000000000000000000000000000000000006020808301919091527f0000000000000000000000000000000000000000000000000000000000000000828401527f000000000000000000000000000000000000000000000000000000000000000060608301524660808301523060a0808401919091528351808403909101815260c0909201909252805191012090565b6000806fa2a8918ca85bafe22016d0b997e4df60600160ff1b038311156117a55750600090506003611852565b8460ff16601b141580156117bd57508460ff16601c14155b156117ce5750600090506004611852565b6040805160008082526020820180845289905260ff881692820192909252606081018690526080810185905260019060a0016020604051602081039080840390855afa158015611822573d6000803e3d6000fd5b5050604051601f1901519150506001600160a01b03811661184b57600060019250925050611852565b9150600090505b94509492505050565b600081600481111561186f5761186f61228e565b036118775750565b600181600481111561188b5761188b61228e565b036118d35760405162461bcd60e51b815260206004820152601860248201527745434453413a20696e76616c6964207369676e617475726560401b60448201526064016108df565b60028160048111156118e7576118e761228e565b036119345760405162461bcd60e51b815260206004820152601f60248201527f45434453413a20696e76616c6964207369676e6174757265206c656e6774680060448201526064016108df565b60038160048111156119485761194861228e565b036119a05760405162461bcd60e51b815260206004820152602260248201527f45434453413a20696e76616c6964207369676e6174757265202773272076616c604482015261756560f01b60648201526084016108df565b60048160048111156119b4576119b461228e565b03611a0c5760405162461bcd60e51b815260206004820152602260248201527f45434453413a20696e76616c6964207369676e6174757265202776272076616c604482015261756560f01b60648201526084016108df565b50565b60008581526004602090815260408083206001600160a01b0388168452600381019092529091205460ff1615611a975760405162461bcd60e51b815260206004820152602760248201527f476f7665726e6f72566f74696e6753696d706c653a20766f746520616c726561604482015266191e4818d85cdd60ca1b60648201526084016108df565b6001600160a01b03851660009081526003820160205260409020805460ff1916600117905560ff8416611ae35782816000016000828254611ad891906129fe565b909155506112179050565b60001960ff851601611b035782816001016000828254611ad891906129fe565b60011960ff851601611b235782816002016000828254611ad891906129fe565b60405162461bcd60e51b815260206004820152603560248201527f476f7665726e6f72566f74696e6753696d706c653a20696e76616c69642076616044820152746c756520666f7220656e756d20566f74655479706560581b60648201526084016108df565b8154600160801b90819004600f0b6000818152600180860160205260409091209390935583546001600160801b03908116939091011602179055565b60608315611bd4575081610e87565b610e878383611cae565b606082471015611c3f5760405162461bcd60e51b815260206004820152602660248201527f416464726573733a20696e73756666696369656e742062616c616e636520666f6044820152651c8818d85b1b60d21b60648201526084016108df565b600080866001600160a01b03168587604051611c5b91906129e2565b60006040518083038185875af1925050503d8060008114611c98576040519150601f19603f3d011682016040523d82523d6000602084013e611c9d565b606091505b50915091506109fa87838387611cd8565b815115611cbe5781518083602001fd5b8060405162461bcd60e51b81526004016108df9190611f98565b60608315611d47578251600003611d40576001600160a01b0385163b611d405760405162461bcd60e51b815260206004820152601d60248201527f416464726573733a2063616c6c20746f206e6f6e2d636f6e747261637400000060448201526064016108df565b5081610836565b6108368383611cae565b600060208284031215611d6357600080fd5b81356001600160e01b031981168114610e8757600080fd5b803560ff81168114611d8c57600080fd5b919050565b60008083601f840112611da357600080fd5b5081356001600160401b03811115611dba57600080fd5b602083019150836020828501011115611dd257600080fd5b9250929050565b634e487b7160e01b600052604160045260246000fd5b604051601f8201601f191681016001600160401b0381118282101715611e1757611e17611dd9565b604052919050565b60006001600160401b03831115611e3857611e38611dd9565b611e4b601f8401601f1916602001611def565b9050828152838383011115611e5f57600080fd5b828260208301376000602084830101529392505050565b600082601f830112611e8757600080fd5b610e8783833560208501611e1f565b60008060008060008060008060e0898b031215611eb257600080fd5b88359750611ec260208a01611d7b565b965060408901356001600160401b0380821115611ede57600080fd5b611eea8c838d01611d91565b909850965060608b0135915080821115611f0357600080fd5b50611f108b828c01611e76565b945050611f1f60808a01611d7b565b925060a0890135915060c089013590509295985092959890939650565b60005b83811015611f57578181015183820152602001611f3f565b83811115611f66576000848401525b50505050565b60008151808452611f84816020860160208601611f3c565b601f01601f19169290920160200192915050565b602081526000610e876020830184611f6c565b80356001600160a01b0381168114611d8c57600080fd5b60008060008060808587031215611fd857600080fd5b611fe185611fab565b9350611fef60208601611fab565b92506040850135915060608501356001600160401b0381111561201157600080fd5b61201d87828801611e76565b91505092959194509250565b60006001600160401b0382111561204257612042611dd9565b5060051b60200190565b600082601f83011261205d57600080fd5b8135602061207261206d83612029565b611def565b82815260059290921b8401810191818101908684111561209157600080fd5b8286015b848110156120b3576120a681611fab565b8352918301918301612095565b509695505050505050565b600082601f8301126120cf57600080fd5b813560206120df61206d83612029565b82815260059290921b840181019181810190868411156120fe57600080fd5b8286015b848110156120b35780358352918301918301612102565b600082601f83011261212a57600080fd5b8135602061213a61206d83612029565b82815260059290921b8401810191818101908684111561215957600080fd5b8286015b848110156120b35780356001600160401b0381111561217c5760008081fd5b61218a8986838b0101611e76565b84525091830191830161215d565b600080600080608085870312156121ae57600080fd5b84356001600160401b03808211156121c557600080fd5b6121d18883890161204c565b955060208701359150808211156121e757600080fd5b6121f3888389016120be565b9450604087013591508082111561220957600080fd5b5061221687828801612119565b949793965093946060013593505050565b60006020828403121561223957600080fd5b5035919050565b600080600080600060a0868803121561225857600080fd5b8535945061226860208701611d7b565b935061227660408701611d7b565b94979396509394606081013594506080013592915050565b634e487b7160e01b600052602160045260246000fd5b60208101600883106122c657634e487b7160e01b600052602160045260246000fd5b91905290565b600080604083850312156122df57600080fd5b823591506122ef60208401611fab565b90509250929050565b6000806040838503121561230b57600080fd5b823591506122ef60208401611d7b565b60008060008060006080868803121561233357600080fd5b8535945061234360208701611d7b565b935060408601356001600160401b038082111561235f57600080fd5b61236b89838a01611d91565b9095509350606088013591508082111561238457600080fd5b5061239188828901611e76565b9150509295509295909350565b600080600080606085870312156123b457600080fd5b843593506123c460208601611d7b565b925060408501356001600160401b038111156123df57600080fd5b6123eb87828801611d91565b95989497509550505050565b6000806000806080858703121561240d57600080fd5b84356001600160401b038082111561242457600080fd5b6124308883890161204c565b9550602087013591508082111561244657600080fd5b612452888389016120be565b9450604087013591508082111561246857600080fd5b61247488838901612119565b9350606087013591508082111561248a57600080fd5b508501601f8101871361249c57600080fd5b61201d87823560208401611e1f565b6000806000606084860312156124c057600080fd5b6124c984611fab565b92506020840135915060408401356001600160401b038111156124eb57600080fd5b6124f786828701611e76565b9150509250925092565b600080600080600060a0868803121561251957600080fd5b61252286611fab565b945061253060208701611fab565b935060408601356001600160401b038082111561254c57600080fd5b61255889838a016120be565b9450606088013591508082111561256e57600080fd5b61257a89838a016120be565b9350608088013591508082111561238457600080fd5b600080600080606085870312156125a657600080fd5b6125af85611fab565b93506020850135925060408501356001600160401b038111156123df57600080fd5b600080604083850312156125e457600080fd5b6125ed83611fab565b946020939093013593505050565b600080600080600060a0868803121561261357600080fd5b61261c86611fab565b945061262a60208701611fab565b9350604086013592506060860135915060808601356001600160401b0381111561265357600080fd5b61239188828901611e76565b8183823760009101908152919050565b600181811c9082168061268357607f821691505b6020821081036126a357634e487b7160e01b600052602260045260246000fd5b50919050565b634e487b7160e01b600052601160045260246000fd5b6000828210156126d1576126d16126a9565b500390565b60208082526021908201527f476f7665726e6f723a20696e76616c69642070726f706f73616c206c656e67746040820152600d60fb1b606082015260800190565b60006001600160401b03828116848216808303821115612739576127396126a9565b01949350505050565b600081518084526020808501945080840160005b8381101561277b5781516001600160a01b031687529582019590820190600101612756565b509495945050505050565b600081518084526020808501945080840160005b8381101561277b5781518752958201959082019060010161279a565b600081518084526020808501808196508360051b8101915082860160005b858110156127fe5782840389526127ec848351611f6c565b988501989350908401906001016127d4565b5091979650505050505050565b60006101208b8352602060018060a01b038c16818501528160408501526128348285018c612742565b91508382036060850152612848828b612786565b915083820360808501528189518084528284019150828160051b850101838c0160005b8381101561289957601f19878403018552612887838351611f6c565b9486019492509085019060010161286b565b505086810360a08801526128ad818c6127b6565b9450505050506128c860c08401876001600160401b03169052565b6001600160401b03851660e08401528281036101008401526128ea8185611f6c565b9c9b505050505050505050505050565b60808152600061290d6080830187612742565b828103602084015261291f8187612786565b9050828103604084015261293381866127b6565b91505082606083015295945050505050565b84815260ff84166020820152826040820152608060608201526000610bde6080830184611f6c565b85815260ff8516602082015283604082015260a06060820152600061299560a0830185611f6c565b82810360808401526129a78185611f6c565b98975050505050505050565b634e487b7160e01b600052603260045260246000fd5b6000600182016129db576129db6126a9565b5060010190565b600082516129f4818460208701611f3c565b9190910192915050565b60008219821115612a1157612a116126a9565b500190565b600060208284031215612a2857600080fd5b505191905056fe150214d74d59b7d1e90c73fc22ef3d991dd0a76b046543d4d80ab92d2a50328fb3b3f3b703cd84ce352197dcff232b1b5d3cfb2025ce47cf04742d0651f1af88476f7665726e6f723a2063616c6c20726576657274656420776974686f7574206d657373616765416464726573733a206c6f772d6c6576656c2063616c6c20776974682076616c7565206661696c6564a2646970667358221220994d0b3e408eed425c2d2b50b40a5aa2954b90f9255675ecba795e9e4ec5c13464736f6c634300080e0033",
  "immutableReferences": {
    "7117": [
      {
        "length": 32,
        "start": 1550
      },
      {
        "length": 32,
        "start": 5448
      }
    ],
    "33049": [
      {
        "length": 32,
        "start": 5810
      }
    ],
    "33051": [
      {
        "length": 32,
        "start": 5768
      }
    ],
    "33053": [
      {
        "length": 32,
        "start": 5726
      }
    ],
    "33055": [
      {
        "length": 32,
        "start": 5893
      }
    ],
    "33057": [
      {
        "length": 32,
        "start": 5930
      }
    ],
    "33059": [
      {
        "length": 32,
        "start": 5851
      }
    ]
  },
  "source": "// SPDX-License-Identifier: MIT\r\n\r\npragma solidity ^0.8.0;\r\n\r\nimport \"../governance/extensions/GovernorCountingSimple.sol\";\r\nimport \"../governance/extensions/GovernorVotes.sol\";\r\n\r\ncontract GovernorVoteMocks is GovernorVotes, GovernorCountingSimple {\r\n    constructor(string memory name_, IVotes token_) Governor(name_) GovernorVotes(token_) {}\r\n\r\n    function quorum(uint256) public pure override returns (uint256) {\r\n        return 0;\r\n    }\r\n\r\n    function votingDelay() public pure override returns (uint256) {\r\n        return 4;\r\n    }\r\n\r\n    function votingPeriod() public pure override returns (uint256) {\r\n        return 16;\r\n    }\r\n\r\n    function cancel(\r\n        address[] memory targets,\r\n        uint256[] memory values,\r\n        bytes[] memory calldatas,\r\n        bytes32 salt\r\n    ) public returns (uint256 proposalId) {\r\n        return _cancel(targets, values, calldatas, salt);\r\n    }\r\n}\r\n",
  "sourcePath": "D:\\work\\www\\yopu_dapp_nft\\contracts\\lib\\openzeppelin\\contracts\\mocks\\GovernorVoteMock.sol",
  "compiler": {
    "name": "solc",
    "version": "0.8.14+commit.80d49f37.Emscripten.clang"
  },
  "schemaVersion": "3.4.7",
  "updatedAt": "2022-06-28T15:05:47.974Z",
  "devdoc": {
    "errors": {
      "Empty()": [
        {
          "details": "An operation (e.g. {front}) couldn't be completed due to the queue being empty."
        }
      ]
    },
    "kind": "dev",
    "methods": {
      "COUNTING_MODE()": {
        "details": "See {IGovernor-COUNTING_MODE}."
      },
      "castVote(uint256,uint8)": {
        "details": "See {IGovernor-castVote}."
      },
      "castVoteBySig(uint256,uint8,uint8,bytes32,bytes32)": {
        "details": "See {IGovernor-castVoteBySig}."
      },
      "castVoteWithReason(uint256,uint8,string)": {
        "details": "See {IGovernor-castVoteWithReason}."
      },
      "castVoteWithReasonAndParams(uint256,uint8,string,bytes)": {
        "details": "See {IGovernor-castVoteWithReasonAndParams}."
      },
      "castVoteWithReasonAndParamsBySig(uint256,uint8,string,bytes,uint8,bytes32,bytes32)": {
        "details": "See {IGovernor-castVoteWithReasonAndParamsBySig}."
      },
      "execute(address[],uint256[],bytes[],bytes32)": {
        "details": "See {IGovernor-execute}."
      },
      "getVotes(address,uint256)": {
        "details": "See {IGovernor-getVotes}."
      },
      "getVotesWithParams(address,uint256,bytes)": {
        "details": "See {IGovernor-getVotesWithParams}."
      },
      "hasVoted(uint256,address)": {
        "details": "See {IGovernor-hasVoted}."
      },
      "hashProposal(address[],uint256[],bytes[],bytes32)": {
        "details": "See {IGovernor-hashProposal}. The proposal id is produced by hashing the RLC encoded `targets` array, the `values` array, the `calldatas` array and the descriptionHash (bytes32 which itself is the keccak256 hash of the description string). This proposal id can be produced from the proposal data which is part of the {ProposalCreated} event. It can even be computed in advance, before the proposal is submitted. Note that the chainId and the governor address are not part of the proposal id computation. Consequently, the same proposal (with same operation and same description) will have the same id if submitted on multiple governors across multiple networks. This also means that in order to execute the same operation twice (on the same governor) the proposer will have to change the description in order to avoid proposal id conflicts."
      },
      "name()": {
        "details": "See {IGovernor-name}."
      },
      "onERC1155BatchReceived(address,address,uint256[],uint256[],bytes)": {
        "details": "See {IERC1155Receiver-onERC1155BatchReceived}."
      },
      "onERC1155Received(address,address,uint256,uint256,bytes)": {
        "details": "See {IERC1155Receiver-onERC1155Received}."
      },
      "onERC721Received(address,address,uint256,bytes)": {
        "details": "See {IERC721Receiver-onERC721Received}."
      },
      "proposalDeadline(uint256)": {
        "details": "See {IGovernor-proposalDeadline}."
      },
      "proposalSnapshot(uint256)": {
        "details": "See {IGovernor-proposalSnapshot}."
      },
      "proposalThreshold()": {
        "details": "Part of the Governor Bravo's interface: _\"The number of votes required in order for a voter to become a proposer\"_."
      },
      "proposalVotes(uint256)": {
        "details": "Accessor to the internal vote counts."
      },
      "propose(address[],uint256[],bytes[],string)": {
        "details": "See {IGovernor-propose}."
      },
      "relay(address,uint256,bytes)": {
        "details": "Relays a transaction or function call to an arbitrary target. In cases where the governance executor is some contract other than the governor itself, like when using a timelock, this function can be invoked in a governance proposal to recover tokens or Ether that was sent to the governor contract by mistake. Note that if the executor is simply the governor itself, use of `relay` is redundant."
      },
      "state(uint256)": {
        "details": "See {IGovernor-state}."
      },
      "supportsInterface(bytes4)": {
        "details": "See {IERC165-supportsInterface}."
      },
      "version()": {
        "details": "See {IGovernor-version}."
      },
      "votingDelay()": {
        "details": "Delay, in number of block, between the proposal is created and the vote starts. This can be increassed to leave time for users to buy voting power, of delegate it, before the voting of a proposal starts."
      },
      "votingPeriod()": {
        "details": "Delay, in number of blocks, between the vote start and vote ends. NOTE: The {votingDelay} can delay the start of the vote. This must be considered when setting the voting duration compared to the voting delay."
      }
    },
    "version": 1
  },
  "userdoc": {
    "kind": "user",
    "methods": {
      "votingDelay()": {
        "notice": "module:user-config"
      },
      "votingPeriod()": {
        "notice": "module:user-config"
      }
    },
    "version": 1
  }
}