{
  "contractName": "GovernorMock",
  "abi": [
    {
      "inputs": [
        {
          "internalType": "string",
          "name": "name_",
          "type": "string"
        },
        {
          "internalType": "contract IVotes",
          "name": "token_",
          "type": "address"
        },
        {
          "internalType": "uint256",
          "name": "votingDelay_",
          "type": "uint256"
        },
        {
          "internalType": "uint256",
          "name": "votingPeriod_",
          "type": "uint256"
        },
        {
          "internalType": "uint256",
          "name": "quorumNumerator_",
          "type": "uint256"
        }
      ],
      "stateMutability": "nonpayable",
      "type": "constructor"
    },
    {
      "inputs": [],
      "name": "Empty",
      "type": "error"
    },
    {
      "anonymous": false,
      "inputs": [
        {
          "indexed": false,
          "internalType": "uint256",
          "name": "proposalId",
          "type": "uint256"
        }
      ],
      "name": "ProposalCanceled",
      "type": "event"
    },
    {
      "anonymous": false,
      "inputs": [
        {
          "indexed": false,
          "internalType": "uint256",
          "name": "proposalId",
          "type": "uint256"
        },
        {
          "indexed": false,
          "internalType": "address",
          "name": "proposer",
          "type": "address"
        },
        {
          "indexed": false,
          "internalType": "address[]",
          "name": "targets",
          "type": "address[]"
        },
        {
          "indexed": false,
          "internalType": "uint256[]",
          "name": "values",
          "type": "uint256[]"
        },
        {
          "indexed": false,
          "internalType": "string[]",
          "name": "signatures",
          "type": "string[]"
        },
        {
          "indexed": false,
          "internalType": "bytes[]",
          "name": "calldatas",
          "type": "bytes[]"
        },
        {
          "indexed": false,
          "internalType": "uint256",
          "name": "startBlock",
          "type": "uint256"
        },
        {
          "indexed": false,
          "internalType": "uint256",
          "name": "endBlock",
          "type": "uint256"
        },
        {
          "indexed": false,
          "internalType": "string",
          "name": "description",
          "type": "string"
        }
      ],
      "name": "ProposalCreated",
      "type": "event"
    },
    {
      "anonymous": false,
      "inputs": [
        {
          "indexed": false,
          "internalType": "uint256",
          "name": "proposalId",
          "type": "uint256"
        }
      ],
      "name": "ProposalExecuted",
      "type": "event"
    },
    {
      "anonymous": false,
      "inputs": [
        {
          "indexed": false,
          "internalType": "uint256",
          "name": "oldProposalThreshold",
          "type": "uint256"
        },
        {
          "indexed": false,
          "internalType": "uint256",
          "name": "newProposalThreshold",
          "type": "uint256"
        }
      ],
      "name": "ProposalThresholdSet",
      "type": "event"
    },
    {
      "anonymous": false,
      "inputs": [
        {
          "indexed": false,
          "internalType": "uint256",
          "name": "oldQuorumNumerator",
          "type": "uint256"
        },
        {
          "indexed": false,
          "internalType": "uint256",
          "name": "newQuorumNumerator",
          "type": "uint256"
        }
      ],
      "name": "QuorumNumeratorUpdated",
      "type": "event"
    },
    {
      "anonymous": false,
      "inputs": [
        {
          "indexed": true,
          "internalType": "address",
          "name": "voter",
          "type": "address"
        },
        {
          "indexed": false,
          "internalType": "uint256",
          "name": "proposalId",
          "type": "uint256"
        },
        {
          "indexed": false,
          "internalType": "uint8",
          "name": "support",
          "type": "uint8"
        },
        {
          "indexed": false,
          "internalType": "uint256",
          "name": "weight",
          "type": "uint256"
        },
        {
          "indexed": false,
          "internalType": "string",
          "name": "reason",
          "type": "string"
        }
      ],
      "name": "VoteCast",
      "type": "event"
    },
    {
      "anonymous": false,
      "inputs": [
        {
          "indexed": true,
          "internalType": "address",
          "name": "voter",
          "type": "address"
        },
        {
          "indexed": false,
          "internalType": "uint256",
          "name": "proposalId",
          "type": "uint256"
        },
        {
          "indexed": false,
          "internalType": "uint8",
          "name": "support",
          "type": "uint8"
        },
        {
          "indexed": false,
          "internalType": "uint256",
          "name": "weight",
          "type": "uint256"
        },
        {
          "indexed": false,
          "internalType": "string",
          "name": "reason",
          "type": "string"
        },
        {
          "indexed": false,
          "internalType": "bytes",
          "name": "params",
          "type": "bytes"
        }
      ],
      "name": "VoteCastWithParams",
      "type": "event"
    },
    {
      "anonymous": false,
      "inputs": [
        {
          "indexed": false,
          "internalType": "uint256",
          "name": "oldVotingDelay",
          "type": "uint256"
        },
        {
          "indexed": false,
          "internalType": "uint256",
          "name": "newVotingDelay",
          "type": "uint256"
        }
      ],
      "name": "VotingDelaySet",
      "type": "event"
    },
    {
      "anonymous": false,
      "inputs": [
        {
          "indexed": false,
          "internalType": "uint256",
          "name": "oldVotingPeriod",
          "type": "uint256"
        },
        {
          "indexed": false,
          "internalType": "uint256",
          "name": "newVotingPeriod",
          "type": "uint256"
        }
      ],
      "name": "VotingPeriodSet",
      "type": "event"
    },
    {
      "inputs": [],
      "name": "BALLOT_TYPEHASH",
      "outputs": [
        {
          "internalType": "bytes32",
          "name": "",
          "type": "bytes32"
        }
      ],
      "stateMutability": "view",
      "type": "function"
    },
    {
      "inputs": [],
      "name": "COUNTING_MODE",
      "outputs": [
        {
          "internalType": "string",
          "name": "",
          "type": "string"
        }
      ],
      "stateMutability": "pure",
      "type": "function"
    },
    {
      "inputs": [],
      "name": "EXTENDED_BALLOT_TYPEHASH",
      "outputs": [
        {
          "internalType": "bytes32",
          "name": "",
          "type": "bytes32"
        }
      ],
      "stateMutability": "view",
      "type": "function"
    },
    {
      "inputs": [
        {
          "internalType": "uint256",
          "name": "proposalId",
          "type": "uint256"
        },
        {
          "internalType": "uint8",
          "name": "support",
          "type": "uint8"
        }
      ],
      "name": "castVote",
      "outputs": [
        {
          "internalType": "uint256",
          "name": "",
          "type": "uint256"
        }
      ],
      "stateMutability": "nonpayable",
      "type": "function"
    },
    {
      "inputs": [
        {
          "internalType": "uint256",
          "name": "proposalId",
          "type": "uint256"
        },
        {
          "internalType": "uint8",
          "name": "support",
          "type": "uint8"
        },
        {
          "internalType": "uint8",
          "name": "v",
          "type": "uint8"
        },
        {
          "internalType": "bytes32",
          "name": "r",
          "type": "bytes32"
        },
        {
          "internalType": "bytes32",
          "name": "s",
          "type": "bytes32"
        }
      ],
      "name": "castVoteBySig",
      "outputs": [
        {
          "internalType": "uint256",
          "name": "",
          "type": "uint256"
        }
      ],
      "stateMutability": "nonpayable",
      "type": "function"
    },
    {
      "inputs": [
        {
          "internalType": "uint256",
          "name": "proposalId",
          "type": "uint256"
        },
        {
          "internalType": "uint8",
          "name": "support",
          "type": "uint8"
        },
        {
          "internalType": "string",
          "name": "reason",
          "type": "string"
        }
      ],
      "name": "castVoteWithReason",
      "outputs": [
        {
          "internalType": "uint256",
          "name": "",
          "type": "uint256"
        }
      ],
      "stateMutability": "nonpayable",
      "type": "function"
    },
    {
      "inputs": [
        {
          "internalType": "uint256",
          "name": "proposalId",
          "type": "uint256"
        },
        {
          "internalType": "uint8",
          "name": "support",
          "type": "uint8"
        },
        {
          "internalType": "string",
          "name": "reason",
          "type": "string"
        },
        {
          "internalType": "bytes",
          "name": "params",
          "type": "bytes"
        }
      ],
      "name": "castVoteWithReasonAndParams",
      "outputs": [
        {
          "internalType": "uint256",
          "name": "",
          "type": "uint256"
        }
      ],
      "stateMutability": "nonpayable",
      "type": "function"
    },
    {
      "inputs": [
        {
          "internalType": "uint256",
          "name": "proposalId",
          "type": "uint256"
        },
        {
          "internalType": "uint8",
          "name": "support",
          "type": "uint8"
        },
        {
          "internalType": "string",
          "name": "reason",
          "type": "string"
        },
        {
          "internalType": "bytes",
          "name": "params",
          "type": "bytes"
        },
        {
          "internalType": "uint8",
          "name": "v",
          "type": "uint8"
        },
        {
          "internalType": "bytes32",
          "name": "r",
          "type": "bytes32"
        },
        {
          "internalType": "bytes32",
          "name": "s",
          "type": "bytes32"
        }
      ],
      "name": "castVoteWithReasonAndParamsBySig",
      "outputs": [
        {
          "internalType": "uint256",
          "name": "",
          "type": "uint256"
        }
      ],
      "stateMutability": "nonpayable",
      "type": "function"
    },
    {
      "inputs": [
        {
          "internalType": "address[]",
          "name": "targets",
          "type": "address[]"
        },
        {
          "internalType": "uint256[]",
          "name": "values",
          "type": "uint256[]"
        },
        {
          "internalType": "bytes[]",
          "name": "calldatas",
          "type": "bytes[]"
        },
        {
          "internalType": "bytes32",
          "name": "descriptionHash",
          "type": "bytes32"
        }
      ],
      "name": "execute",
      "outputs": [
        {
          "internalType": "uint256",
          "name": "",
          "type": "uint256"
        }
      ],
      "stateMutability": "payable",
      "type": "function"
    },
    {
      "inputs": [
        {
          "internalType": "address",
          "name": "account",
          "type": "address"
        },
        {
          "internalType": "uint256",
          "name": "blockNumber",
          "type": "uint256"
        }
      ],
      "name": "getVotes",
      "outputs": [
        {
          "internalType": "uint256",
          "name": "",
          "type": "uint256"
        }
      ],
      "stateMutability": "view",
      "type": "function"
    },
    {
      "inputs": [
        {
          "internalType": "address",
          "name": "account",
          "type": "address"
        },
        {
          "internalType": "uint256",
          "name": "blockNumber",
          "type": "uint256"
        },
        {
          "internalType": "bytes",
          "name": "params",
          "type": "bytes"
        }
      ],
      "name": "getVotesWithParams",
      "outputs": [
        {
          "internalType": "uint256",
          "name": "",
          "type": "uint256"
        }
      ],
      "stateMutability": "view",
      "type": "function"
    },
    {
      "inputs": [
        {
          "internalType": "uint256",
          "name": "proposalId",
          "type": "uint256"
        },
        {
          "internalType": "address",
          "name": "account",
          "type": "address"
        }
      ],
      "name": "hasVoted",
      "outputs": [
        {
          "internalType": "bool",
          "name": "",
          "type": "bool"
        }
      ],
      "stateMutability": "view",
      "type": "function"
    },
    {
      "inputs": [
        {
          "internalType": "address[]",
          "name": "targets",
          "type": "address[]"
        },
        {
          "internalType": "uint256[]",
          "name": "values",
          "type": "uint256[]"
        },
        {
          "internalType": "bytes[]",
          "name": "calldatas",
          "type": "bytes[]"
        },
        {
          "internalType": "bytes32",
          "name": "descriptionHash",
          "type": "bytes32"
        }
      ],
      "name": "hashProposal",
      "outputs": [
        {
          "internalType": "uint256",
          "name": "",
          "type": "uint256"
        }
      ],
      "stateMutability": "pure",
      "type": "function"
    },
    {
      "inputs": [],
      "name": "name",
      "outputs": [
        {
          "internalType": "string",
          "name": "",
          "type": "string"
        }
      ],
      "stateMutability": "view",
      "type": "function"
    },
    {
      "inputs": [
        {
          "internalType": "address",
          "name": "",
          "type": "address"
        },
        {
          "internalType": "address",
          "name": "",
          "type": "address"
        },
        {
          "internalType": "uint256[]",
          "name": "",
          "type": "uint256[]"
        },
        {
          "internalType": "uint256[]",
          "name": "",
          "type": "uint256[]"
        },
        {
          "internalType": "bytes",
          "name": "",
          "type": "bytes"
        }
      ],
      "name": "onERC1155BatchReceived",
      "outputs": [
        {
          "internalType": "bytes4",
          "name": "",
          "type": "bytes4"
        }
      ],
      "stateMutability": "nonpayable",
      "type": "function"
    },
    {
      "inputs": [
        {
          "internalType": "address",
          "name": "",
          "type": "address"
        },
        {
          "internalType": "address",
          "name": "",
          "type": "address"
        },
        {
          "internalType": "uint256",
          "name": "",
          "type": "uint256"
        },
        {
          "internalType": "uint256",
          "name": "",
          "type": "uint256"
        },
        {
          "internalType": "bytes",
          "name": "",
          "type": "bytes"
        }
      ],
      "name": "onERC1155Received",
      "outputs": [
        {
          "internalType": "bytes4",
          "name": "",
          "type": "bytes4"
        }
      ],
      "stateMutability": "nonpayable",
      "type": "function"
    },
    {
      "inputs": [
        {
          "internalType": "address",
          "name": "",
          "type": "address"
        },
        {
          "internalType": "address",
          "name": "",
          "type": "address"
        },
        {
          "internalType": "uint256",
          "name": "",
          "type": "uint256"
        },
        {
          "internalType": "bytes",
          "name": "",
          "type": "bytes"
        }
      ],
      "name": "onERC721Received",
      "outputs": [
        {
          "internalType": "bytes4",
          "name": "",
          "type": "bytes4"
        }
      ],
      "stateMutability": "nonpayable",
      "type": "function"
    },
    {
      "inputs": [
        {
          "internalType": "uint256",
          "name": "proposalId",
          "type": "uint256"
        }
      ],
      "name": "proposalDeadline",
      "outputs": [
        {
          "internalType": "uint256",
          "name": "",
          "type": "uint256"
        }
      ],
      "stateMutability": "view",
      "type": "function"
    },
    {
      "inputs": [
        {
          "internalType": "uint256",
          "name": "proposalId",
          "type": "uint256"
        }
      ],
      "name": "proposalSnapshot",
      "outputs": [
        {
          "internalType": "uint256",
          "name": "",
          "type": "uint256"
        }
      ],
      "stateMutability": "view",
      "type": "function"
    },
    {
      "inputs": [
        {
          "internalType": "uint256",
          "name": "proposalId",
          "type": "uint256"
        }
      ],
      "name": "proposalVotes",
      "outputs": [
        {
          "internalType": "uint256",
          "name": "againstVotes",
          "type": "uint256"
        },
        {
          "internalType": "uint256",
          "name": "forVotes",
          "type": "uint256"
        },
        {
          "internalType": "uint256",
          "name": "abstainVotes",
          "type": "uint256"
        }
      ],
      "stateMutability": "view",
      "type": "function"
    },
    {
      "inputs": [
        {
          "internalType": "uint256",
          "name": "blockNumber",
          "type": "uint256"
        }
      ],
      "name": "quorum",
      "outputs": [
        {
          "internalType": "uint256",
          "name": "",
          "type": "uint256"
        }
      ],
      "stateMutability": "view",
      "type": "function"
    },
    {
      "inputs": [],
      "name": "quorumDenominator",
      "outputs": [
        {
          "internalType": "uint256",
          "name": "",
          "type": "uint256"
        }
      ],
      "stateMutability": "view",
      "type": "function"
    },
    {
      "inputs": [],
      "name": "quorumNumerator",
      "outputs": [
        {
          "internalType": "uint256",
          "name": "",
          "type": "uint256"
        }
      ],
      "stateMutability": "view",
      "type": "function"
    },
    {
      "inputs": [
        {
          "internalType": "address",
          "name": "target",
          "type": "address"
        },
        {
          "internalType": "uint256",
          "name": "value",
          "type": "uint256"
        },
        {
          "internalType": "bytes",
          "name": "data",
          "type": "bytes"
        }
      ],
      "name": "relay",
      "outputs": [],
      "stateMutability": "nonpayable",
      "type": "function"
    },
    {
      "inputs": [
        {
          "internalType": "uint256",
          "name": "newProposalThreshold",
          "type": "uint256"
        }
      ],
      "name": "setProposalThreshold",
      "outputs": [],
      "stateMutability": "nonpayable",
      "type": "function"
    },
    {
      "inputs": [
        {
          "internalType": "uint256",
          "name": "newVotingDelay",
          "type": "uint256"
        }
      ],
      "name": "setVotingDelay",
      "outputs": [],
      "stateMutability": "nonpayable",
      "type": "function"
    },
    {
      "inputs": [
        {
          "internalType": "uint256",
          "name": "newVotingPeriod",
          "type": "uint256"
        }
      ],
      "name": "setVotingPeriod",
      "outputs": [],
      "stateMutability": "nonpayable",
      "type": "function"
    },
    {
      "inputs": [
        {
          "internalType": "uint256",
          "name": "proposalId",
          "type": "uint256"
        }
      ],
      "name": "state",
      "outputs": [
        {
          "internalType": "enum IGovernor.ProposalState",
          "name": "",
          "type": "uint8"
        }
      ],
      "stateMutability": "view",
      "type": "function"
    },
    {
      "inputs": [
        {
          "internalType": "bytes4",
          "name": "interfaceId",
          "type": "bytes4"
        }
      ],
      "name": "supportsInterface",
      "outputs": [
        {
          "internalType": "bool",
          "name": "",
          "type": "bool"
        }
      ],
      "stateMutability": "view",
      "type": "function"
    },
    {
      "inputs": [],
      "name": "token",
      "outputs": [
        {
          "internalType": "contract IVotes",
          "name": "",
          "type": "address"
        }
      ],
      "stateMutability": "view",
      "type": "function"
    },
    {
      "inputs": [
        {
          "internalType": "uint256",
          "name": "newQuorumNumerator",
          "type": "uint256"
        }
      ],
      "name": "updateQuorumNumerator",
      "outputs": [],
      "stateMutability": "nonpayable",
      "type": "function"
    },
    {
      "inputs": [],
      "name": "version",
      "outputs": [
        {
          "internalType": "string",
          "name": "",
          "type": "string"
        }
      ],
      "stateMutability": "view",
      "type": "function"
    },
    {
      "inputs": [],
      "name": "votingDelay",
      "outputs": [
        {
          "internalType": "uint256",
          "name": "",
          "type": "uint256"
        }
      ],
      "stateMutability": "view",
      "type": "function"
    },
    {
      "inputs": [],
      "name": "votingPeriod",
      "outputs": [
        {
          "internalType": "uint256",
          "name": "",
          "type": "uint256"
        }
      ],
      "stateMutability": "view",
      "type": "function"
    },
    {
      "stateMutability": "payable",
      "type": "receive"
    },
    {
      "inputs": [
        {
          "internalType": "address[]",
          "name": "targets",
          "type": "address[]"
        },
        {
          "internalType": "uint256[]",
          "name": "values",
          "type": "uint256[]"
        },
        {
          "internalType": "bytes[]",
          "name": "calldatas",
          "type": "bytes[]"
        },
        {
          "internalType": "bytes32",
          "name": "salt",
          "type": "bytes32"
        }
      ],
      "name": "cancel",
      "outputs": [
        {
          "internalType": "uint256",
          "name": "proposalId",
          "type": "uint256"
        }
      ],
      "stateMutability": "nonpayable",
      "type": "function"
    },
    {
      "inputs": [],
      "name": "proposalThreshold",
      "outputs": [
        {
          "internalType": "uint256",
          "name": "",
          "type": "uint256"
        }
      ],
      "stateMutability": "view",
      "type": "function"
    },
    {
      "inputs": [
        {
          "internalType": "address[]",
          "name": "targets",
          "type": "address[]"
        },
        {
          "internalType": "uint256[]",
          "name": "values",
          "type": "uint256[]"
        },
        {
          "internalType": "bytes[]",
          "name": "calldatas",
          "type": "bytes[]"
        },
        {
          "internalType": "string",
          "name": "description",
          "type": "string"
        }
      ],
      "name": "propose",
      "outputs": [
        {
          "internalType": "uint256",
          "name": "",
          "type": "uint256"
        }
      ],
      "stateMutability": "nonpayable",
      "type": "function"
    }
  ],
  "bytecode": "0x6101606040523480156200001257600080fd5b50604051620035cb380380620035cb833981016040819052620000359162000419565b80848484600089806200005c6040805180820190915260018152603160f81b602082015290565b815160208084019190912082518383012060e08290526101008190524660a0818152604080517f8b73c3c69bb8fe3d512ecc4cf759cc79239f7b179b0ffacaa9a75d522b39400f81880181905281830187905260608201869052608082019490945230818401528151808203909301835260c00190528051940193909320919290916080523060c052610120525050825162000102925060009150602084019062000340565b50620001109050836200014d565b6200011b826200018e565b620001268162000235565b5050506001600160a01b031661014052620001418162000276565b50505050505062000561565b60045460408051918252602082018390527fc565b045403dc03c2eea82b81a0465edad9e2e7fc4d97e11421c209da93d7a93910160405180910390a1600455565b60008111620001f45760405162461bcd60e51b815260206004820152602760248201527f476f7665726e6f7253657474696e67733a20766f74696e6720706572696f6420604482015266746f6f206c6f7760c81b60648201526084015b60405180910390fd5b60055460408051918252602082018390527f7e3f7f0708a84de9203036abaa450dccc85ad5ff52f78c170f3edb55cf5e8828910160405180910390a1600555565b60065460408051918252602082018390527fccb45da8d5717e6c4544694297c4ba5cf151d455c9bb0ed4fc7a38411bc05461910160405180910390a1600655565b6064811115620002fb5760405162461bcd60e51b815260206004820152604360248201527f476f7665726e6f72566f74657351756f72756d4672616374696f6e3a2071756f60448201527f72756d4e756d657261746f72206f7665722071756f72756d44656e6f6d696e616064820152623a37b960e91b608482015260a401620001eb565b600780549082905560408051828152602081018490527f0553476bf02ef2726e8ce5ced78d63e26e602e4a2257b1f559418e24b4633997910160405180910390a15050565b8280546200034e9062000525565b90600052602060002090601f016020900481019282620003725760008555620003bd565b82601f106200038d57805160ff1916838001178555620003bd565b82800160010185558215620003bd579182015b82811115620003bd578251825591602001919060010190620003a0565b50620003cb929150620003cf565b5090565b5b80821115620003cb5760008155600101620003d0565b634e487b7160e01b600052604160045260246000fd5b80516001600160a01b03811681146200041457600080fd5b919050565b600080600080600060a086880312156200043257600080fd5b85516001600160401b03808211156200044a57600080fd5b818801915088601f8301126200045f57600080fd5b815181811115620004745762000474620003e6565b604051601f8201601f19908116603f011681019083821181831017156200049f576200049f620003e6565b81604052828152602093508b84848701011115620004bc57600080fd5b600091505b82821015620004e05784820184015181830185015290830190620004c1565b82821115620004f25760008484830101525b985062000504915050888201620003fc565b604089015160608a01516080909a0151989b919a5098979650945050505050565b600181811c908216806200053a57607f821691505b6020821081036200055b57634e487b7160e01b600052602260045260246000fd5b50919050565b60805160a05160c05160e051610100516101205161014051613001620005ca600039600081816106fb01528181610f33015261164401526000611841015260006118900152600061186b015260006117c4015260006117ee0152600061181801526130016000f3fe6080604052600436106101ae5760003560e01c806301ffc9a7146101bc57806302a251a3146101f1578063034201811461021057806306f3f9e61461023057806306fdde0314610250578063150b7a02146102725780632656227d146102ab5780632d63f693146102be5780632fe3e261146102de5780633932abb1146103005780633bccf4fd146103155780633e4f49e6146103355780634385963214610362578063452115d6146103ac578063544ffc9c146103cc57806354fd4d5014610421578063567813881461044b5780635f398a141461046b57806370b0f6601461048b5780637b3c71d3146104ab5780637d5e81e2146104cb57806397c3d334146104eb5780639a802a6d146104ff578063a7713a701461051f578063b58131b014610534578063bc197c8114610549578063c01f9e3714610575578063c28bc2fa14610595578063c59057e4146105b5578063dd4e2ba5146105d5578063deaaa7cc1461061b578063ea0217cf1461063d578063eb9019d41461065d578063ece40cc11461067d578063f23a6e611461069d578063f8ce560a146106c9578063fc0c546a146106e957600080fd5b366101b757005b005b600080fd5b3480156101c857600080fd5b506101dc6101d73660046121dc565b610735565b60405190151581526020015b60405180910390f35b3480156101fd57600080fd5b506005545b6040519081526020016101e8565b34801561021c57600080fd5b5061020261022b366004612321565b6107a2565b34801561023c57600080fd5b506101b561024b3660046123c7565b610888565b34801561025c57600080fd5b506102656108d3565b6040516101e8919061243c565b34801561027e57600080fd5b5061029261028d366004612466565b610965565b6040516001600160e01b031990911681526020016101e8565b6102026102b936600461263c565b610976565b3480156102ca57600080fd5b506102026102d93660046123c7565b610a9d565b3480156102ea57600080fd5b50610202600080516020612f5c83398151915281565b34801561030c57600080fd5b50600454610202565b34801561032157600080fd5b506102026103303660046126cb565b610ad4565b34801561034157600080fd5b506103556103503660046123c7565b610b38565b6040516101e8919061272f565b34801561036e57600080fd5b506101dc61037d366004612757565b60008281526008602090815260408083206001600160a01b038516845260030190915290205460ff1692915050565b3480156103b857600080fd5b506102026103c736600461263c565b610c47565b3480156103d857600080fd5b506104066103e73660046123c7565b6000908152600860205260409020805460018201546002909201549092565b604080519384526020840192909252908201526060016101e8565b34801561042d57600080fd5b506040805180820190915260018152603160f81b6020820152610265565b34801561045757600080fd5b50610202610466366004612783565b610c5e565b34801561047757600080fd5b506102026104863660046127a6565b610c7f565b34801561049757600080fd5b506101b56104a63660046123c7565b610cc9565b3480156104b757600080fd5b506102026104c6366004612829565b610d08565b3480156104d757600080fd5b506102026104e6366004612882565b610d5a565b3480156104f757600080fd5b506064610202565b34801561050b57600080fd5b5061020261051a366004612936565b610d68565b34801561052b57600080fd5b50600754610202565b34801561054057600080fd5b50610202610d7f565b34801561055557600080fd5b5061029261056436600461298c565b63bc197c8160e01b95945050505050565b34801561058157600080fd5b506102026105903660046123c7565b610d8f565b3480156105a157600080fd5b506101b56105b0366004612a1b565b610dbe565b3480156105c157600080fd5b506102026105d036600461263c565b610e3d565b3480156105e157600080fd5b506040805180820190915260208082527f737570706f72743d627261766f2671756f72756d3d666f722c6162737461696e90820152610265565b34801561062757600080fd5b50610202600080516020612f3c83398151915281565b34801561064957600080fd5b506101b56106583660046123c7565b610e77565b34801561066957600080fd5b50610202610678366004612a5c565b610eb6565b34801561068957600080fd5b506101b56106983660046123c7565b610ed7565b3480156106a957600080fd5b506102926106b8366004612a86565b63f23a6e6160e01b95945050505050565b3480156106d557600080fd5b506102026106e43660046123c7565b610f16565b3480156106f557600080fd5b5061071d7f000000000000000000000000000000000000000000000000000000000000000081565b6040516001600160a01b0390911681526020016101e8565b60006001600160e01b0319821663bf26d89760e01b148061076657506001600160e01b031982166379dd796f60e01b145b8061078157506001600160e01b03198216630271189760e51b145b8061079c57506301ffc9a760e01b6001600160e01b03198316145b92915050565b60008061083461082c600080516020612f5c8339815191528c8c8c8c6040516107cc929190612aea565b60405180910390208b80519060200120604051602001610811959493929190948552602085019390935260ff9190911660408401526060830152608082015260a00190565b60405160208183030381529060405280519060200120610fba565b868686611008565b905061087a8a828b8b8b8080601f0160208091040260200160405190810160405280939291908181526020018383808284376000920191909152508d9250611026915050565b9a9950505050505050505050565b3330146108b05760405162461bcd60e51b81526004016108a790612afa565b60405180910390fd5b6108c7565b806108c0600261118b565b036108b557505b6108d081611201565b50565b6060600080546108e290612b2c565b80601f016020809104026020016040519081016040528092919081815260200182805461090e90612b2c565b801561095b5780601f106109305761010080835404028352916020019161095b565b820191906000526020600020905b81548152906001019060200180831161093e57829003601f168201915b5050505050905090565b630a85bd0160e11b5b949350505050565b60008061098586868686610e3d565b9050600061099282610b38565b905060048160078111156109a8576109a8612719565b14806109c5575060058160078111156109c3576109c3612719565b145b610a1b5760405162461bcd60e51b815260206004820152602160248201527f476f7665726e6f723a2070726f706f73616c206e6f74207375636365737366756044820152601b60fa1b60648201526084016108a7565b600082815260016020818152604092839020600201805460ff191690921790915590518381527f712ae1383f79ac853f8d882153778e0260ef8f03b504e2866e0593e04d2b291f910160405180910390a1610a7982888888886112ca565b610a868288888888611356565b610a9382888888886112ca565b5095945050505050565b60008181526001602090815260408083208151928301909152546001600160401b0316908190525b6001600160401b031692915050565b60408051600080516020612f3c833981519152602082015290810186905260ff851660608201526000908190610b109061082c90608001610811565b9050610b2d87828860405180602001604052806000815250611455565b979650505050505050565b6000818152600160205260408120600281015460ff1615610b5c5750600792915050565b6002810154610100900460ff1615610b775750600292915050565b6000610b8284610a9d565b905080600003610bd45760405162461bcd60e51b815260206004820152601d60248201527f476f7665726e6f723a20756e6b6e6f776e2070726f706f73616c20696400000060448201526064016108a7565b438110610be5575060009392505050565b6000610bf085610d8f565b9050438110610c0457506001949350505050565b610c0d85611478565b8015610c2c575060008581526008602052604090208054600190910154115b15610c3c57506004949350505050565b506003949350505050565b6000610c55858585856114af565b95945050505050565b60008033905061096e84828560405180602001604052806000815250611455565b600080339050610b2d87828888888080601f0160208091040260200160405190810160405280939291908181526020018383808284376000920191909152508a9250611026915050565b333014610ce85760405162461bcd60e51b81526004016108a790612afa565b610cff565b80610cf8600261118b565b03610ced57505b6108d0816115cd565b600080339050610d5086828787878080601f01602080910402602001604051908101604052809392919081815260200183838082843760009201919091525061145592505050565b9695505050505050565b6000610c558585858561160d565b6000610d7584848461161b565b90505b9392505050565b6000610d8a60065490565b905090565b60008181526001602081815260408084208151928301909152909101546001600160401b031690819052610ac5565b333014610ddd5760405162461bcd60e51b81526004016108a790612afa565b610df4565b80610ded600261118b565b03610de257505b610e368483838080601f0160208091040260200160405190810160405280939291908181526020018383808284376000920191909152508892506116b1915050565b5050505050565b600084848484604051602001610e569493929190612c2f565b60408051601f19818403018152919052805160209091012095945050505050565b333014610e965760405162461bcd60e51b81526004016108a790612afa565b610ead565b80610ea6600261118b565b03610e9b57505b6108d0816116d7565b6000610d788383610ed260408051602081019091526000815290565b61161b565b333014610ef65760405162461bcd60e51b81526004016108a790612afa565b610f0d565b80610f06600261118b565b03610efb57505b6108d081611777565b60006064600754604051632394e7a360e21b8152600481018590527f00000000000000000000000000000000000000000000000000000000000000006001600160a01b031690638e539e8c90602401602060405180830381865afa158015610f82573d6000803e3d6000fd5b505050506040513d601f19601f82011682018060405250810190610fa69190612c7a565b610fb09190612ca9565b61079c9190612cc8565b600061079c610fc76117b7565b8360405161190160f01b6020820152602281018390526042810182905260009060620160405160208183030381529060405280519060200120905092915050565b6000806000611019878787876118de565b91509150610a93816119c1565b600085815260016020819052604082209061104088610b38565b600781111561105157611051612719565b146110aa5760405162461bcd60e51b815260206004820152602360248201527f476f7665726e6f723a20766f7465206e6f742063757272656e746c792061637460448201526269766560e81b60648201526084016108a7565b604080516020810190915281546001600160401b0316908190526000906110d39088908661161b565b90506110e28888888488611b72565b835160000361113757866001600160a01b03167fb8e138887d0aa13bab447e82de9d5c1777041ecd21ca36ba824ff1e6c07ddda48988848960405161112a9493929190612cea565b60405180910390a2610b2d565b866001600160a01b03167fe2babfbac5889a709b63bb7f598b324e08bc5a4fb9ec647fb3cbc9ec07eb87128988848989604051611178959493929190612d12565b60405180910390a2979650505050505050565b60006111a68254600f81810b600160801b909204900b131590565b156111c457604051631ed9509560e11b815260040160405180910390fd5b508054600f0b6000818152600180840160205260408220805492905583546001600160801b03191692016001600160801b03169190911790915590565b60648111156112845760405162461bcd60e51b815260206004820152604360248201527f476f7665726e6f72566f74657351756f72756d4672616374696f6e3a2071756f60448201527f72756d4e756d657261746f72206f7665722071756f72756d44656e6f6d696e616064820152623a37b960e91b608482015260a4016108a7565b60078054908290556040517f0553476bf02ef2726e8ce5ced78d63e26e602e4a2257b1f559418e24b4633997906112be9083908590612d58565b60405180910390a15050565b610e36565b845181101561134e57306001600160a01b03168582815181106112f4576112f4612d66565b60200260200101516001600160a01b03160361133e5761133e83828151811061131f5761131f612d66565b6020026020010151805190602001206002611cec90919063ffffffff16565b61134781612d7c565b90506112cf565b505050505050565b6000604051806060016040528060278152602001612f7c60279139905060005b855181101561144c5760008087838151811061139457611394612d66565b60200260200101516001600160a01b03168784815181106113b7576113b7612d66565b60200260200101518785815181106113d1576113d1612d66565b60200260200101516040516113e69190612d95565b60006040518083038185875af1925050503d8060008114611423576040519150601f19603f3d011682016040523d82523d6000602084013e611428565b606091505b5091509150611438828286611d28565b5050508061144590612d7c565b9050611376565b50505050505050565b6000610c558585858561147360408051602081019091526000815290565b611026565b60008181526008602052604081206002810154600182015461149a9190612db1565b6114a66106e485610a9d565b11159392505050565b6000806114be86868686610e3d565b905060006114cb82610b38565b905060028160078111156114e1576114e1612719565b14158015611501575060068160078111156114fe576114fe612719565b14155b801561151f5750600781600781111561151c5761151c612719565b14155b61156b5760405162461bcd60e51b815260206004820152601d60248201527f476f7665726e6f723a2070726f706f73616c206e6f742061637469766500000060448201526064016108a7565b60008281526001602052604090819020600201805461ff001916610100179055517f789cf55be980739dad1d0699b93b58e806b51c9d96619bfa8fe0a28abaa7b30c906115bb9084815260200190565b60405180910390a15095945050505050565b7fc565b045403dc03c2eea82b81a0465edad9e2e7fc4d97e11421c209da93d7a9360045482604051611600929190612d58565b60405180910390a1600455565b6000610c5585858585611d41565b604051630748d63560e31b81526001600160a01b038481166004830152602482018490526000917f000000000000000000000000000000000000000000000000000000000000000090911690633a46b1a890604401602060405180830381865afa15801561168d573d6000803e3d6000fd5b505050506040513d601f19601f82011682018060405250810190610d759190612c7a565b6060610d75848484604051806060016040528060298152602001612fa360299139611fe0565b600081116117375760405162461bcd60e51b815260206004820152602760248201527f476f7665726e6f7253657474696e67733a20766f74696e6720706572696f6420604482015266746f6f206c6f7760c81b60648201526084016108a7565b7f7e3f7f0708a84de9203036abaa450dccc85ad5ff52f78c170f3edb55cf5e88286005548260405161176a929190612d58565b60405180910390a1600555565b7fccb45da8d5717e6c4544694297c4ba5cf151d455c9bb0ed4fc7a38411bc05461600654826040516117aa929190612d58565b60405180910390a1600655565b6000306001600160a01b037f00000000000000000000000000000000000000000000000000000000000000001614801561181057507f000000000000000000000000000000000000000000000000000000000000000046145b1561183a57507f000000000000000000000000000000000000000000000000000000000000000090565b50604080517f00000000000000000000000000000000000000000000000000000000000000006020808301919091527f0000000000000000000000000000000000000000000000000000000000000000828401527f000000000000000000000000000000000000000000000000000000000000000060608301524660808301523060a0808401919091528351808403909101815260c0909201909252805191012090565b6000806fa2a8918ca85bafe22016d0b997e4df60600160ff1b0383111561190b57506000905060036119b8565b8460ff16601b1415801561192357508460ff16601c14155b1561193457506000905060046119b8565b6040805160008082526020820180845289905260ff881692820192909252606081018690526080810185905260019060a0016020604051602081039080840390855afa158015611988573d6000803e3d6000fd5b5050604051601f1901519150506001600160a01b0381166119b1576000600192509250506119b8565b9150600090505b94509492505050565b60008160048111156119d5576119d5612719565b036119dd5750565b60018160048111156119f1576119f1612719565b03611a395760405162461bcd60e51b815260206004820152601860248201527745434453413a20696e76616c6964207369676e617475726560401b60448201526064016108a7565b6002816004811115611a4d57611a4d612719565b03611a9a5760405162461bcd60e51b815260206004820152601f60248201527f45434453413a20696e76616c6964207369676e6174757265206c656e6774680060448201526064016108a7565b6003816004811115611aae57611aae612719565b03611b065760405162461bcd60e51b815260206004820152602260248201527f45434453413a20696e76616c6964207369676e6174757265202773272076616c604482015261756560f01b60648201526084016108a7565b6004816004811115611b1a57611b1a612719565b036108d05760405162461bcd60e51b815260206004820152602260248201527f45434453413a20696e76616c6964207369676e6174757265202776272076616c604482015261756560f01b60648201526084016108a7565b60008581526008602090815260408083206001600160a01b0388168452600381019092529091205460ff1615611bfa5760405162461bcd60e51b815260206004820152602760248201527f476f7665726e6f72566f74696e6753696d706c653a20766f746520616c726561604482015266191e4818d85cdd60ca1b60648201526084016108a7565b6001600160a01b03851660009081526003820160205260409020805460ff1916600117905560ff8416611c465782816000016000828254611c3b9190612db1565b9091555061134e9050565b60001960ff851601611c665782816001016000828254611c3b9190612db1565b60011960ff851601611c865782816002016000828254611c3b9190612db1565b60405162461bcd60e51b815260206004820152603560248201527f476f7665726e6f72566f74696e6753696d706c653a20696e76616c69642076616044820152746c756520666f7220656e756d20566f74655479706560581b60648201526084016108a7565b8154600160801b90819004600f0b6000818152600180860160205260409091209390935583546001600160801b03908116939091011602179055565b60608315611d37575081610d78565b610d7883836120b0565b6000611d4b610d7f565b611d5a33610678600143612dc9565b1015611dc25760405162461bcd60e51b815260206004820152603160248201527f476f7665726e6f723a2070726f706f73657220766f7465732062656c6f7720706044820152701c9bdc1bdcd85b081d1a1c995cda1bdb19607a1b60648201526084016108a7565b6000611dd78686868680519060200120610e3d565b90508451865114611dfa5760405162461bcd60e51b81526004016108a790612de0565b8351865114611e1b5760405162461bcd60e51b81526004016108a790612de0565b6000865111611e675760405162461bcd60e51b815260206004820152601860248201527711dbdd995c9b9bdc8e88195b5c1d1e481c1c9bdc1bdcd85b60421b60448201526064016108a7565b600081815260016020908152604091829020825191820190925281546001600160401b03169081905215611ee75760405162461bcd60e51b815260206004820152602160248201527f476f7665726e6f723a2070726f706f73616c20616c72656164792065786973746044820152607360f81b60648201526084016108a7565b6000611efa611ef560045490565b6120da565b611f03436120da565b611f0d9190612e21565b90506000611f1d611ef560055490565b611f279083612e21565b9050611f338383612146565b611f406001840182612146565b7f7d84a6263ae0d98d3329bd7b46bb4e8d6f98cd35a7adb45c274c8b7fd5ebd5e084338b8b8d516001600160401b03811115611f7e57611f7e612264565b604051908082528060200260200182016040528015611fb157816020015b6060815260200190600190039081611f9c5790505b508c88888e604051611fcb99989796959493929190612e4c565b60405180910390a15091979650505050505050565b6060824710156120415760405162461bcd60e51b815260206004820152602660248201527f416464726573733a20696e73756666696369656e742062616c616e636520666f6044820152651c8818d85b1b60d21b60648201526084016108a7565b600080866001600160a01b0316858760405161205d9190612d95565b60006040518083038185875af1925050503d806000811461209a576040519150601f19603f3d011682016040523d82523d6000602084013e61209f565b606091505b5091509150610b2d87838387612163565b8151156120c05781518083602001fd5b8060405162461bcd60e51b81526004016108a7919061243c565b60006001600160401b038211156121425760405162461bcd60e51b815260206004820152602660248201527f53616665436173743a2076616c756520646f65736e27742066697420696e203660448201526534206269747360d01b60648201526084016108a7565b5090565b81546001600160401b0319166001600160401b0391909116179055565b606083156121d25782516000036121cb576001600160a01b0385163b6121cb5760405162461bcd60e51b815260206004820152601d60248201527f416464726573733a2063616c6c20746f206e6f6e2d636f6e747261637400000060448201526064016108a7565b508161096e565b61096e83836120b0565b6000602082840312156121ee57600080fd5b81356001600160e01b031981168114610d7857600080fd5b803560ff8116811461221757600080fd5b919050565b60008083601f84011261222e57600080fd5b5081356001600160401b0381111561224557600080fd5b60208301915083602082850101111561225d57600080fd5b9250929050565b634e487b7160e01b600052604160045260246000fd5b604051601f8201601f191681016001600160401b03811182821017156122a2576122a2612264565b604052919050565b60006001600160401b038311156122c3576122c3612264565b6122d6601f8401601f191660200161227a565b90508281528383830111156122ea57600080fd5b828260208301376000602084830101529392505050565b600082601f83011261231257600080fd5b610d78838335602085016122aa565b60008060008060008060008060e0898b03121561233d57600080fd5b8835975061234d60208a01612206565b965060408901356001600160401b038082111561236957600080fd5b6123758c838d0161221c565b909850965060608b013591508082111561238e57600080fd5b5061239b8b828c01612301565b9450506123aa60808a01612206565b925060a0890135915060c089013590509295985092959890939650565b6000602082840312156123d957600080fd5b5035919050565b60005b838110156123fb5781810151838201526020016123e3565b8381111561240a576000848401525b50505050565b600081518084526124288160208601602086016123e0565b601f01601f19169290920160200192915050565b602081526000610d786020830184612410565b80356001600160a01b038116811461221757600080fd5b6000806000806080858703121561247c57600080fd5b6124858561244f565b93506124936020860161244f565b92506040850135915060608501356001600160401b038111156124b557600080fd5b6124c187828801612301565b91505092959194509250565b60006001600160401b038211156124e6576124e6612264565b5060051b60200190565b600082601f83011261250157600080fd5b81356020612516612511836124cd565b61227a565b82815260059290921b8401810191818101908684111561253557600080fd5b8286015b848110156125575761254a8161244f565b8352918301918301612539565b509695505050505050565b600082601f83011261257357600080fd5b81356020612583612511836124cd565b82815260059290921b840181019181810190868411156125a257600080fd5b8286015b8481101561255757803583529183019183016125a6565b600082601f8301126125ce57600080fd5b813560206125de612511836124cd565b82815260059290921b840181019181810190868411156125fd57600080fd5b8286015b848110156125575780356001600160401b038111156126205760008081fd5b61262e8986838b0101612301565b845250918301918301612601565b6000806000806080858703121561265257600080fd5b84356001600160401b038082111561266957600080fd5b612675888389016124f0565b9550602087013591508082111561268b57600080fd5b61269788838901612562565b945060408701359150808211156126ad57600080fd5b506126ba878288016125bd565b949793965093946060013593505050565b600080600080600060a086880312156126e357600080fd5b853594506126f360208701612206565b935061270160408701612206565b94979396509394606081013594506080013592915050565b634e487b7160e01b600052602160045260246000fd5b602081016008831061275157634e487b7160e01b600052602160045260246000fd5b91905290565b6000806040838503121561276a57600080fd5b8235915061277a6020840161244f565b90509250929050565b6000806040838503121561279657600080fd5b8235915061277a60208401612206565b6000806000806000608086880312156127be57600080fd5b853594506127ce60208701612206565b935060408601356001600160401b03808211156127ea57600080fd5b6127f689838a0161221c565b9095509350606088013591508082111561280f57600080fd5b5061281c88828901612301565b9150509295509295909350565b6000806000806060858703121561283f57600080fd5b8435935061284f60208601612206565b925060408501356001600160401b0381111561286a57600080fd5b6128768782880161221c565b95989497509550505050565b6000806000806080858703121561289857600080fd5b84356001600160401b03808211156128af57600080fd5b6128bb888389016124f0565b955060208701359150808211156128d157600080fd5b6128dd88838901612562565b945060408701359150808211156128f357600080fd5b6128ff888389016125bd565b9350606087013591508082111561291557600080fd5b508501601f8101871361292757600080fd5b6124c1878235602084016122aa565b60008060006060848603121561294b57600080fd5b6129548461244f565b92506020840135915060408401356001600160401b0381111561297657600080fd5b61298286828701612301565b9150509250925092565b600080600080600060a086880312156129a457600080fd5b6129ad8661244f565b94506129bb6020870161244f565b935060408601356001600160401b03808211156129d757600080fd5b6129e389838a01612562565b945060608801359150808211156129f957600080fd5b612a0589838a01612562565b9350608088013591508082111561280f57600080fd5b60008060008060608587031215612a3157600080fd5b612a3a8561244f565b93506020850135925060408501356001600160401b0381111561286a57600080fd5b60008060408385031215612a6f57600080fd5b612a788361244f565b946020939093013593505050565b600080600080600060a08688031215612a9e57600080fd5b612aa78661244f565b9450612ab56020870161244f565b9350604086013592506060860135915060808601356001600160401b03811115612ade57600080fd5b61281c88828901612301565b8183823760009101908152919050565b602080825260189082015277476f7665726e6f723a206f6e6c79476f7665726e616e636560401b604082015260600190565b600181811c90821680612b4057607f821691505b602082108103612b6057634e487b7160e01b600052602260045260246000fd5b50919050565b600081518084526020808501945080840160005b83811015612b9f5781516001600160a01b031687529582019590820190600101612b7a565b509495945050505050565b600081518084526020808501945080840160005b83811015612b9f57815187529582019590820190600101612bbe565b600081518084526020808501808196508360051b8101915082860160005b85811015612c22578284038952612c10848351612410565b98850198935090840190600101612bf8565b5091979650505050505050565b608081526000612c426080830187612b66565b8281036020840152612c548187612baa565b90508281036040840152612c688186612bda565b91505082606083015295945050505050565b600060208284031215612c8c57600080fd5b5051919050565b634e487b7160e01b600052601160045260246000fd5b6000816000190483118215151615612cc357612cc3612c93565b500290565b600082612ce557634e487b7160e01b600052601260045260246000fd5b500490565b84815260ff84166020820152826040820152608060608201526000610d506080830184612410565b85815260ff8516602082015283604082015260a060608201526000612d3a60a0830185612410565b8281036080840152612d4c8185612410565b98975050505050505050565b918252602082015260400190565b634e487b7160e01b600052603260045260246000fd5b600060018201612d8e57612d8e612c93565b5060010190565b60008251612da78184602087016123e0565b9190910192915050565b60008219821115612dc457612dc4612c93565b500190565b600082821015612ddb57612ddb612c93565b500390565b60208082526021908201527f476f7665726e6f723a20696e76616c69642070726f706f73616c206c656e67746040820152600d60fb1b606082015260800190565b60006001600160401b03828116848216808303821115612e4357612e43612c93565b01949350505050565b60006101208b8352602060018060a01b038c1681850152816040850152612e758285018c612b66565b91508382036060850152612e89828b612baa565b915083820360808501528189518084528284019150828160051b850101838c0160005b83811015612eda57601f19878403018552612ec8838351612410565b94860194925090850190600101612eac565b505086810360a0880152612eee818c612bda565b945050505050612f0960c08401876001600160401b03169052565b6001600160401b03851660e0840152828103610100840152612f2b8185612410565b9c9b50505050505050505050505056fe150214d74d59b7d1e90c73fc22ef3d991dd0a76b046543d4d80ab92d2a50328fb3b3f3b703cd84ce352197dcff232b1b5d3cfb2025ce47cf04742d0651f1af88476f7665726e6f723a2063616c6c20726576657274656420776974686f7574206d657373616765416464726573733a206c6f772d6c6576656c2063616c6c20776974682076616c7565206661696c6564a26469706673582212207ec449441b094e70d3746578a5b471272d3ae3b6406600578a8931f9b08a1dbb64736f6c634300080e0033",
  "immutableReferences": {
    "7117": [
      {
        "length": 32,
        "start": 1787
      },
      {
        "length": 32,
        "start": 3891
      },
      {
        "length": 32,
        "start": 5700
      }
    ],
    "33049": [
      {
        "length": 32,
        "start": 6168
      }
    ],
    "33051": [
      {
        "length": 32,
        "start": 6126
      }
    ],
    "33053": [
      {
        "length": 32,
        "start": 6084
      }
    ],
    "33055": [
      {
        "length": 32,
        "start": 6251
      }
    ],
    "33057": [
      {
        "length": 32,
        "start": 6288
      }
    ],
    "33059": [
      {
        "length": 32,
        "start": 6209
      }
    ]
  },
  "source": "// SPDX-License-Identifier: MIT\r\n\r\npragma solidity ^0.8.0;\r\n\r\nimport \"../governance/extensions/GovernorProposalThreshold.sol\";\r\nimport \"../governance/extensions/GovernorSettings.sol\";\r\nimport \"../governance/extensions/GovernorCountingSimple.sol\";\r\nimport \"../governance/extensions/GovernorVotesQuorumFraction.sol\";\r\n\r\ncontract GovernorMock is\r\n    GovernorProposalThreshold,\r\n    GovernorSettings,\r\n    GovernorVotesQuorumFraction,\r\n    GovernorCountingSimple\r\n{\r\n    constructor(\r\n        string memory name_,\r\n        IVotes token_,\r\n        uint256 votingDelay_,\r\n        uint256 votingPeriod_,\r\n        uint256 quorumNumerator_\r\n    )\r\n        Governor(name_)\r\n        GovernorSettings(votingDelay_, votingPeriod_, 0)\r\n        GovernorVotes(token_)\r\n        GovernorVotesQuorumFraction(quorumNumerator_)\r\n    {}\r\n\r\n    function cancel(\r\n        address[] memory targets,\r\n        uint256[] memory values,\r\n        bytes[] memory calldatas,\r\n        bytes32 salt\r\n    ) public returns (uint256 proposalId) {\r\n        return _cancel(targets, values, calldatas, salt);\r\n    }\r\n\r\n    function proposalThreshold() public view override(Governor, GovernorSettings) returns (uint256) {\r\n        return super.proposalThreshold();\r\n    }\r\n\r\n    function propose(\r\n        address[] memory targets,\r\n        uint256[] memory values,\r\n        bytes[] memory calldatas,\r\n        string memory description\r\n    ) public virtual override(Governor, GovernorProposalThreshold) returns (uint256) {\r\n        return super.propose(targets, values, calldatas, description);\r\n    }\r\n}\r\n",
  "sourcePath": "D:\\work\\www\\yopu_dapp_nft\\contracts\\lib\\openzeppelin\\contracts\\mocks\\GovernorMock.sol",
  "compiler": {
    "name": "solc",
    "version": "0.8.14+commit.80d49f37.Emscripten.clang"
  },
  "schemaVersion": "3.4.7",
  "updatedAt": "2022-06-28T15:05:47.842Z",
  "devdoc": {
    "errors": {
      "Empty()": [
        {
          "details": "An operation (e.g. {front}) couldn't be completed due to the queue being empty."
        }
      ]
    },
    "kind": "dev",
    "methods": {
      "COUNTING_MODE()": {
        "details": "See {IGovernor-COUNTING_MODE}."
      },
      "castVote(uint256,uint8)": {
        "details": "See {IGovernor-castVote}."
      },
      "castVoteBySig(uint256,uint8,uint8,bytes32,bytes32)": {
        "details": "See {IGovernor-castVoteBySig}."
      },
      "castVoteWithReason(uint256,uint8,string)": {
        "details": "See {IGovernor-castVoteWithReason}."
      },
      "castVoteWithReasonAndParams(uint256,uint8,string,bytes)": {
        "details": "See {IGovernor-castVoteWithReasonAndParams}."
      },
      "castVoteWithReasonAndParamsBySig(uint256,uint8,string,bytes,uint8,bytes32,bytes32)": {
        "details": "See {IGovernor-castVoteWithReasonAndParamsBySig}."
      },
      "execute(address[],uint256[],bytes[],bytes32)": {
        "details": "See {IGovernor-execute}."
      },
      "getVotes(address,uint256)": {
        "details": "See {IGovernor-getVotes}."
      },
      "getVotesWithParams(address,uint256,bytes)": {
        "details": "See {IGovernor-getVotesWithParams}."
      },
      "hasVoted(uint256,address)": {
        "details": "See {IGovernor-hasVoted}."
      },
      "hashProposal(address[],uint256[],bytes[],bytes32)": {
        "details": "See {IGovernor-hashProposal}. The proposal id is produced by hashing the RLC encoded `targets` array, the `values` array, the `calldatas` array and the descriptionHash (bytes32 which itself is the keccak256 hash of the description string). This proposal id can be produced from the proposal data which is part of the {ProposalCreated} event. It can even be computed in advance, before the proposal is submitted. Note that the chainId and the governor address are not part of the proposal id computation. Consequently, the same proposal (with same operation and same description) will have the same id if submitted on multiple governors across multiple networks. This also means that in order to execute the same operation twice (on the same governor) the proposer will have to change the description in order to avoid proposal id conflicts."
      },
      "name()": {
        "details": "See {IGovernor-name}."
      },
      "onERC1155BatchReceived(address,address,uint256[],uint256[],bytes)": {
        "details": "See {IERC1155Receiver-onERC1155BatchReceived}."
      },
      "onERC1155Received(address,address,uint256,uint256,bytes)": {
        "details": "See {IERC1155Receiver-onERC1155Received}."
      },
      "onERC721Received(address,address,uint256,bytes)": {
        "details": "See {IERC721Receiver-onERC721Received}."
      },
      "proposalDeadline(uint256)": {
        "details": "See {IGovernor-proposalDeadline}."
      },
      "proposalSnapshot(uint256)": {
        "details": "See {IGovernor-proposalSnapshot}."
      },
      "proposalVotes(uint256)": {
        "details": "Accessor to the internal vote counts."
      },
      "quorum(uint256)": {
        "details": "Returns the quorum for a block number, in terms of number of votes: `supply * numerator / denominator`."
      },
      "quorumDenominator()": {
        "details": "Returns the quorum denominator. Defaults to 100, but may be overridden."
      },
      "quorumNumerator()": {
        "details": "Returns the current quorum numerator. See {quorumDenominator}."
      },
      "relay(address,uint256,bytes)": {
        "details": "Relays a transaction or function call to an arbitrary target. In cases where the governance executor is some contract other than the governor itself, like when using a timelock, this function can be invoked in a governance proposal to recover tokens or Ether that was sent to the governor contract by mistake. Note that if the executor is simply the governor itself, use of `relay` is redundant."
      },
      "setProposalThreshold(uint256)": {
        "details": "Update the proposal threshold. This operation can only be performed through a governance proposal. Emits a {ProposalThresholdSet} event."
      },
      "setVotingDelay(uint256)": {
        "details": "Update the voting delay. This operation can only be performed through a governance proposal. Emits a {VotingDelaySet} event."
      },
      "setVotingPeriod(uint256)": {
        "details": "Update the voting period. This operation can only be performed through a governance proposal. Emits a {VotingPeriodSet} event."
      },
      "state(uint256)": {
        "details": "See {IGovernor-state}."
      },
      "supportsInterface(bytes4)": {
        "details": "See {IERC165-supportsInterface}."
      },
      "updateQuorumNumerator(uint256)": {
        "details": "Changes the quorum numerator. Emits a {QuorumNumeratorUpdated} event. Requirements: - Must be called through a governance proposal. - New numerator must be smaller or equal to the denominator."
      },
      "version()": {
        "details": "See {IGovernor-version}."
      },
      "votingDelay()": {
        "details": "See {IGovernor-votingDelay}."
      },
      "votingPeriod()": {
        "details": "See {IGovernor-votingPeriod}."
      }
    },
    "version": 1
  },
  "userdoc": {
    "kind": "user",
    "methods": {},
    "version": 1
  }
}