{
  "contractName": "Implementation3",
  "abi": [
    {
      "anonymous": false,
      "inputs": [
        {
          "indexed": false,
          "internalType": "uint8",
          "name": "version",
          "type": "uint8"
        }
      ],
      "name": "Initialized",
      "type": "event"
    },
    {
      "inputs": [],
      "name": "initialize",
      "outputs": [],
      "stateMutability": "nonpayable",
      "type": "function"
    },
    {
      "inputs": [
        {
          "internalType": "uint256",
          "name": "_number",
          "type": "uint256"
        }
      ],
      "name": "setValue",
      "outputs": [],
      "stateMutability": "nonpayable",
      "type": "function"
    },
    {
      "inputs": [
        {
          "internalType": "uint256",
          "name": "_number",
          "type": "uint256"
        }
      ],
      "name": "getValue",
      "outputs": [
        {
          "internalType": "uint256",
          "name": "",
          "type": "uint256"
        }
      ],
      "stateMutability": "view",
      "type": "function"
    }
  ],
  "bytecode": "0x608060405234801561001057600080fd5b50610220806100206000396000f3fe608060405234801561001057600080fd5b50600436106100415760003560e01c80630ff4c91614610046578063552410771461006b5780638129fc1c14610080575b600080fd5b6100596100543660046101ab565b610088565b60405190815260200160405180910390f35b61007e6100793660046101ab565b600155565b005b61007e61009e565b60008160015461009891906101c4565b92915050565b600054610100900460ff16158080156100be5750600054600160ff909116105b806100d85750303b1580156100d8575060005460ff166001145b61013f5760405162461bcd60e51b815260206004820152602e60248201527f496e697469616c697a61626c653a20636f6e747261637420697320616c72656160448201526d191e481a5b9a5d1a585b1a5e995960921b606482015260840160405180910390fd5b6000805460ff191660011790558015610162576000805461ff0019166101001790555b80156101a8576000805461ff0019169055604051600181527f7f26b83ff96e1f2b6a682f133852f6798a09c465da95921460cefb38474024989060200160405180910390a15b50565b6000602082840312156101bd57600080fd5b5035919050565b600082198211156101e557634e487b7160e01b600052601160045260246000fd5b50019056fea26469706673582212204221c5796cecd91fecb1f2c5cbe46da6c2684d38744ff828a2d074622177442364736f6c634300080e0033",
  "immutableReferences": {},
  "source": "// SPDX-License-Identifier: MIT\r\n\r\npragma solidity ^0.8.0;\r\n\r\nimport \"../proxy/utils/Initializable.sol\";\r\n\r\ncontract Implementation1 is Initializable {\r\n    uint256 internal _value;\r\n\r\n    function initialize() public initializer {}\r\n\r\n    function setValue(uint256 _number) public {\r\n        _value = _number;\r\n    }\r\n}\r\n\r\ncontract Implementation2 is Initializable {\r\n    uint256 internal _value;\r\n\r\n    function initialize() public initializer {}\r\n\r\n    function setValue(uint256 _number) public {\r\n        _value = _number;\r\n    }\r\n\r\n    function getValue() public view returns (uint256) {\r\n        return _value;\r\n    }\r\n}\r\n\r\ncontract Implementation3 is Initializable {\r\n    uint256 internal _value;\r\n\r\n    function initialize() public initializer {}\r\n\r\n    function setValue(uint256 _number) public {\r\n        _value = _number;\r\n    }\r\n\r\n    function getValue(uint256 _number) public view returns (uint256) {\r\n        return _value + _number;\r\n    }\r\n}\r\n\r\ncontract Implementation4 is Initializable {\r\n    uint256 internal _value;\r\n\r\n    function initialize() public initializer {}\r\n\r\n    function setValue(uint256 _number) public {\r\n        _value = _number;\r\n    }\r\n\r\n    function getValue() public view returns (uint256) {\r\n        return _value;\r\n    }\r\n\r\n    fallback() external {\r\n        _value = 1;\r\n    }\r\n}\r\n",
  "sourcePath": "D:\\work\\www\\yopu_dapp_nft\\contracts\\lib\\openzeppelin\\contracts\\mocks\\RegressionImplementation.sol",
  "compiler": {
    "name": "solc",
    "version": "0.8.14+commit.80d49f37.Emscripten.clang"
  },
  "schemaVersion": "3.4.7",
  "updatedAt": "2022-06-28T15:05:48.162Z",
  "devdoc": {
    "kind": "dev",
    "methods": {},
    "version": 1
  },
  "userdoc": {
    "kind": "user",
    "methods": {},
    "version": 1
  }
}