{
  "contractName": "Implementation1",
  "abi": [
    {
      "anonymous": false,
      "inputs": [
        {
          "indexed": false,
          "internalType": "uint8",
          "name": "version",
          "type": "uint8"
        }
      ],
      "name": "Initialized",
      "type": "event"
    },
    {
      "inputs": [],
      "name": "initialize",
      "outputs": [],
      "stateMutability": "nonpayable",
      "type": "function"
    },
    {
      "inputs": [
        {
          "internalType": "uint256",
          "name": "_number",
          "type": "uint256"
        }
      ],
      "name": "setValue",
      "outputs": [],
      "stateMutability": "nonpayable",
      "type": "function"
    }
  ],
  "bytecode": "0x608060405234801561001057600080fd5b506101af806100206000396000f3fe608060405234801561001057600080fd5b50600436106100365760003560e01c8063552410771461003b5780638129fc1c14610050575b600080fd5b61004e610049366004610160565b600155565b005b61004e600054610100900460ff16158080156100735750600054600160ff909116105b8061008d5750303b15801561008d575060005460ff166001145b6100f45760405162461bcd60e51b815260206004820152602e60248201527f496e697469616c697a61626c653a20636f6e747261637420697320616c72656160448201526d191e481a5b9a5d1a585b1a5e995960921b606482015260840160405180910390fd5b6000805460ff191660011790558015610117576000805461ff0019166101001790555b801561015d576000805461ff0019169055604051600181527f7f26b83ff96e1f2b6a682f133852f6798a09c465da95921460cefb38474024989060200160405180910390a15b50565b60006020828403121561017257600080fd5b503591905056fea26469706673582212204af4cce9083435ac31231fe9e1a6b053d0ddbce11a1efbec1671ab4230691c5264736f6c634300080e0033",
  "immutableReferences": {},
  "source": "// SPDX-License-Identifier: MIT\r\n\r\npragma solidity ^0.8.0;\r\n\r\nimport \"../proxy/utils/Initializable.sol\";\r\n\r\ncontract Implementation1 is Initializable {\r\n    uint256 internal _value;\r\n\r\n    function initialize() public initializer {}\r\n\r\n    function setValue(uint256 _number) public {\r\n        _value = _number;\r\n    }\r\n}\r\n\r\ncontract Implementation2 is Initializable {\r\n    uint256 internal _value;\r\n\r\n    function initialize() public initializer {}\r\n\r\n    function setValue(uint256 _number) public {\r\n        _value = _number;\r\n    }\r\n\r\n    function getValue() public view returns (uint256) {\r\n        return _value;\r\n    }\r\n}\r\n\r\ncontract Implementation3 is Initializable {\r\n    uint256 internal _value;\r\n\r\n    function initialize() public initializer {}\r\n\r\n    function setValue(uint256 _number) public {\r\n        _value = _number;\r\n    }\r\n\r\n    function getValue(uint256 _number) public view returns (uint256) {\r\n        return _value + _number;\r\n    }\r\n}\r\n\r\ncontract Implementation4 is Initializable {\r\n    uint256 internal _value;\r\n\r\n    function initialize() public initializer {}\r\n\r\n    function setValue(uint256 _number) public {\r\n        _value = _number;\r\n    }\r\n\r\n    function getValue() public view returns (uint256) {\r\n        return _value;\r\n    }\r\n\r\n    fallback() external {\r\n        _value = 1;\r\n    }\r\n}\r\n",
  "sourcePath": "D:\\work\\www\\yopu_dapp_nft\\contracts\\lib\\openzeppelin\\contracts\\mocks\\RegressionImplementation.sol",
  "compiler": {
    "name": "solc",
    "version": "0.8.14+commit.80d49f37.Emscripten.clang"
  },
  "schemaVersion": "3.4.7",
  "updatedAt": "2022-06-28T15:05:48.156Z",
  "devdoc": {
    "kind": "dev",
    "methods": {},
    "version": 1
  },
  "userdoc": {
    "kind": "user",
    "methods": {},
    "version": 1
  }
}