{
  "contractName": "LibArbitrumL2",
  "abi": [
    {
      "inputs": [],
      "name": "ARBSYS",
      "outputs": [
        {
          "internalType": "address",
          "name": "",
          "type": "address"
        }
      ],
      "stateMutability": "view",
      "type": "function"
    }
  ],
  "bytecode": "0x6091610038600b82828239805160001a607314602b57634e487b7160e01b600052600060045260246000fd5b30600052607381538281f3fe730000000000000000000000000000000000000000301460806040526004361060335760003560e01c8063bf0a12cf146038575b600080fd5b603f606481565b6040516001600160a01b03909116815260200160405180910390f3fea26469706673582212208aeafd4db9e3b46a673c92acca013d47e00cfbc4d31ad0562866cd16cc9b354864736f6c634300080e0033",
  "immutableReferences": {},
  "source": "// SPDX-License-Identifier: MIT\r\n// OpenZeppelin Contracts (last updated v4.6.0) (crosschain/arbitrum/LibArbitrumL2.sol)\r\n\r\npragma solidity ^0.8.4;\r\n\r\nimport {IArbSys as ArbitrumL2_Bridge} from \"../../vendor/arbitrum/IArbSys.sol\";\r\nimport \"../errors.sol\";\r\n\r\n/**\r\n * @dev Primitives for cross-chain aware contracts for\r\n * https://arbitrum.io/[Arbitrum].\r\n *\r\n * This version should only be used on L2 to process cross-chain messages\r\n * originating from L1. For the other side, use {LibArbitrumL1}.\r\n */\r\nlibrary LibArbitrumL2 {\r\n    /**\r\n     * @dev Returns whether the current function call is the result of a\r\n     * cross-chain message relayed by `arbsys`.\r\n     */\r\n    address public constant ARBSYS = 0x0000000000000000000000000000000000000064;\r\n\r\n    function isCrossChain(address arbsys) internal view returns (bool) {\r\n        return ArbitrumL2_Bridge(arbsys).isTopLevelCall();\r\n    }\r\n\r\n    /**\r\n     * @dev Returns the address of the sender that triggered the current\r\n     * cross-chain message through `arbsys`.\r\n     *\r\n     * NOTE: {isCrossChain} should be checked before trying to recover the\r\n     * sender, as it will revert with `NotCrossChainCall` if the current\r\n     * function call is not the result of a cross-chain message.\r\n     */\r\n    function crossChainSender(address arbsys) internal view returns (address) {\r\n        if (!isCrossChain(arbsys)) revert NotCrossChainCall();\r\n\r\n        return\r\n            ArbitrumL2_Bridge(arbsys).wasMyCallersAddressAliased()\r\n                ? ArbitrumL2_Bridge(arbsys).myCallersAddressWithoutAliasing()\r\n                : msg.sender;\r\n    }\r\n}\r\n",
  "sourcePath": "D:\\work\\www\\yopu_dapp_nft\\contracts\\lib\\openzeppelin\\contracts\\crosschain\\arbitrum\\LibArbitrumL2.sol",
  "compiler": {
    "name": "solc",
    "version": "0.8.14+commit.80d49f37.Emscripten.clang"
  },
  "schemaVersion": "3.4.7",
  "updatedAt": "2022-06-28T15:05:46.865Z",
  "devdoc": {
    "details": "Primitives for cross-chain aware contracts for https://arbitrum.io/[Arbitrum]. This version should only be used on L2 to process cross-chain messages originating from L1. For the other side, use {LibArbitrumL1}.",
    "kind": "dev",
    "methods": {},
    "stateVariables": {
      "ARBSYS": {
        "details": "Returns whether the current function call is the result of a cross-chain message relayed by `arbsys`."
      }
    },
    "version": 1
  },
  "userdoc": {
    "kind": "user",
    "methods": {},
    "version": 1
  }
}