{
  "contractName": "MathMock",
  "abi": [
    {
      "inputs": [
        {
          "internalType": "uint256",
          "name": "a",
          "type": "uint256"
        },
        {
          "internalType": "uint256",
          "name": "b",
          "type": "uint256"
        }
      ],
      "name": "max",
      "outputs": [
        {
          "internalType": "uint256",
          "name": "",
          "type": "uint256"
        }
      ],
      "stateMutability": "pure",
      "type": "function"
    },
    {
      "inputs": [
        {
          "internalType": "uint256",
          "name": "a",
          "type": "uint256"
        },
        {
          "internalType": "uint256",
          "name": "b",
          "type": "uint256"
        }
      ],
      "name": "min",
      "outputs": [
        {
          "internalType": "uint256",
          "name": "",
          "type": "uint256"
        }
      ],
      "stateMutability": "pure",
      "type": "function"
    },
    {
      "inputs": [
        {
          "internalType": "uint256",
          "name": "a",
          "type": "uint256"
        },
        {
          "internalType": "uint256",
          "name": "b",
          "type": "uint256"
        }
      ],
      "name": "average",
      "outputs": [
        {
          "internalType": "uint256",
          "name": "",
          "type": "uint256"
        }
      ],
      "stateMutability": "pure",
      "type": "function"
    },
    {
      "inputs": [
        {
          "internalType": "uint256",
          "name": "a",
          "type": "uint256"
        },
        {
          "internalType": "uint256",
          "name": "b",
          "type": "uint256"
        }
      ],
      "name": "ceilDiv",
      "outputs": [
        {
          "internalType": "uint256",
          "name": "",
          "type": "uint256"
        }
      ],
      "stateMutability": "pure",
      "type": "function"
    },
    {
      "inputs": [
        {
          "internalType": "uint256",
          "name": "a",
          "type": "uint256"
        },
        {
          "internalType": "uint256",
          "name": "b",
          "type": "uint256"
        },
        {
          "internalType": "uint256",
          "name": "denominator",
          "type": "uint256"
        },
        {
          "internalType": "enum Math.Rounding",
          "name": "direction",
          "type": "uint8"
        }
      ],
      "name": "mulDiv",
      "outputs": [
        {
          "internalType": "uint256",
          "name": "",
          "type": "uint256"
        }
      ],
      "stateMutability": "pure",
      "type": "function"
    },
    {
      "inputs": [
        {
          "internalType": "uint256",
          "name": "a",
          "type": "uint256"
        },
        {
          "internalType": "enum Math.Rounding",
          "name": "direction",
          "type": "uint8"
        }
      ],
      "name": "sqrt",
      "outputs": [
        {
          "internalType": "uint256",
          "name": "",
          "type": "uint256"
        }
      ],
      "stateMutability": "pure",
      "type": "function"
    }
  ],
  "bytecode": "0x608060405234801561001057600080fd5b50610604806100206000396000f3fe608060405234801561001057600080fd5b50600436106100625760003560e01c80631a134248146100675780632b7423ab1461008c5780636d5433e61461009f5780637ae2b5c7146100b25780639cb35327146100c5578063ae2affdd146100d8575b600080fd5b61007a61007536600461048f565b6100eb565b60405190815260200160405180910390f35b61007a61009a3660046104ce565b610102565b61007a6100ad3660046104ce565b610115565b61007a6100c03660046104ce565b610121565b61007a6100d33660046104ce565b61012d565b61007a6100e63660046104f0565b610139565b60006100f985858585610145565b95945050505050565b600061010e83836101a0565b9392505050565b600061010e83836101bb565b600061010e83836101d2565b600061010e83836101e1565b600061010e8383610218565b600080610153868686610267565b905060018360028111156101695761016961051c565b14801561018657506000848061018157610181610532565b868809115b156100f95761019660018261055e565b9695505050505050565b60006101af6002848418610576565b61010e9084841661055e565b6000818310156101cb578161010e565b5090919050565b60008183106101cb578161010e565b6000821561020f57816101f5600185610598565b6101ff9190610576565b61020a90600161055e565b61010e565b50600092915050565b60008061022484610315565b9050600183600281111561023a5761023a61051c565b14801561024f57508361024d82806105af565b105b1561010e5761025f60018261055e565b949350505050565b60008080600019858709858702925082811083820303915050806000036102a15783828161029757610297610532565b049250505061010e565b8084116102ad57600080fd5b600084868809600260036001881981018916988990049182028318808302840302808302840302808302840302808302840302808302840302918202909203026000889003889004909101858311909403939093029303949094049190911702949350505050565b60008160000361032757506000919050565b600182608081901c1561033f5760409190911b9060801c5b604081901c156103545760209190911b9060401c5b602081901c156103695760109190911b9060201c5b601081901c1561037e5760089190911b9060101c5b600881901c156103935760049190911b9060081c5b600481901c156103a85760029190911b9060041c5b600281901c156103ba57600182901b91505b60018285816103cb576103cb610532565b048301901c915060018285816103e3576103e3610532565b048301901c915060018285816103fb576103fb610532565b048301901c9150600182858161041357610413610532565b048301901c9150600182858161042b5761042b610532565b048301901c9150600182858161044357610443610532565b048301901c9150600182858161045b5761045b610532565b048301901c915061025f8283868161047557610475610532565b046101d2565b80356003811061048a57600080fd5b919050565b600080600080608085870312156104a557600080fd5b8435935060208501359250604085013591506104c36060860161047b565b905092959194509250565b600080604083850312156104e157600080fd5b50508035926020909101359150565b6000806040838503121561050357600080fd5b823591506105136020840161047b565b90509250929050565b634e487b7160e01b600052602160045260246000fd5b634e487b7160e01b600052601260045260246000fd5b634e487b7160e01b600052601160045260246000fd5b6000821982111561057157610571610548565b500190565b60008261059357634e487b7160e01b600052601260045260246000fd5b500490565b6000828210156105aa576105aa610548565b500390565b60008160001904831182151516156105c9576105c9610548565b50029056fea26469706673582212208ce75ceac0c05e30c9891a75fe30455f022b13a326838220daffc1b4a7cad11464736f6c634300080e0033",
  "immutableReferences": {},
  "source": "// SPDX-License-Identifier: MIT\r\n\r\npragma solidity ^0.8.0;\r\n\r\nimport \"../utils/math/Math.sol\";\r\n\r\ncontract MathMock {\r\n    function max(uint256 a, uint256 b) public pure returns (uint256) {\r\n        return Math.max(a, b);\r\n    }\r\n\r\n    function min(uint256 a, uint256 b) public pure returns (uint256) {\r\n        return Math.min(a, b);\r\n    }\r\n\r\n    function average(uint256 a, uint256 b) public pure returns (uint256) {\r\n        return Math.average(a, b);\r\n    }\r\n\r\n    function ceilDiv(uint256 a, uint256 b) public pure returns (uint256) {\r\n        return Math.ceilDiv(a, b);\r\n    }\r\n\r\n    function mulDiv(\r\n        uint256 a,\r\n        uint256 b,\r\n        uint256 denominator,\r\n        Math.Rounding direction\r\n    ) public pure returns (uint256) {\r\n        return Math.mulDiv(a, b, denominator, direction);\r\n    }\r\n\r\n    function sqrt(uint256 a, Math.Rounding direction) public pure returns (uint256) {\r\n        return Math.sqrt(a, direction);\r\n    }\r\n}\r\n",
  "sourcePath": "D:\\work\\www\\yopu_dapp_nft\\contracts\\lib\\openzeppelin\\contracts\\mocks\\MathMock.sol",
  "compiler": {
    "name": "solc",
    "version": "0.8.14+commit.80d49f37.Emscripten.clang"
  },
  "schemaVersion": "3.4.7",
  "updatedAt": "2022-06-28T15:05:48.086Z",
  "devdoc": {
    "kind": "dev",
    "methods": {},
    "version": 1
  },
  "userdoc": {
    "kind": "user",
    "methods": {},
    "version": 1
  }
}