{
  "contractName": "MerkleProofWrapper",
  "abi": [
    {
      "inputs": [
        {
          "internalType": "bytes32[]",
          "name": "proof",
          "type": "bytes32[]"
        },
        {
          "internalType": "bytes32",
          "name": "root",
          "type": "bytes32"
        },
        {
          "internalType": "bytes32",
          "name": "leaf",
          "type": "bytes32"
        }
      ],
      "name": "verify",
      "outputs": [
        {
          "internalType": "bool",
          "name": "",
          "type": "bool"
        }
      ],
      "stateMutability": "pure",
      "type": "function"
    },
    {
      "inputs": [
        {
          "internalType": "bytes32[]",
          "name": "proof",
          "type": "bytes32[]"
        },
        {
          "internalType": "bytes32",
          "name": "root",
          "type": "bytes32"
        },
        {
          "internalType": "bytes32",
          "name": "leaf",
          "type": "bytes32"
        }
      ],
      "name": "verifyCalldata",
      "outputs": [
        {
          "internalType": "bool",
          "name": "",
          "type": "bool"
        }
      ],
      "stateMutability": "pure",
      "type": "function"
    },
    {
      "inputs": [
        {
          "internalType": "bytes32[]",
          "name": "proof",
          "type": "bytes32[]"
        },
        {
          "internalType": "bytes32",
          "name": "leaf",
          "type": "bytes32"
        }
      ],
      "name": "processProof",
      "outputs": [
        {
          "internalType": "bytes32",
          "name": "",
          "type": "bytes32"
        }
      ],
      "stateMutability": "pure",
      "type": "function"
    },
    {
      "inputs": [
        {
          "internalType": "bytes32[]",
          "name": "proof",
          "type": "bytes32[]"
        },
        {
          "internalType": "bytes32",
          "name": "leaf",
          "type": "bytes32"
        }
      ],
      "name": "processProofCalldata",
      "outputs": [
        {
          "internalType": "bytes32",
          "name": "",
          "type": "bytes32"
        }
      ],
      "stateMutability": "pure",
      "type": "function"
    },
    {
      "inputs": [
        {
          "internalType": "bytes32[]",
          "name": "proofs",
          "type": "bytes32[]"
        },
        {
          "internalType": "bool[]",
          "name": "proofFlag",
          "type": "bool[]"
        },
        {
          "internalType": "bytes32",
          "name": "root",
          "type": "bytes32"
        },
        {
          "internalType": "bytes32[]",
          "name": "leaves",
          "type": "bytes32[]"
        }
      ],
      "name": "multiProofVerify",
      "outputs": [
        {
          "internalType": "bool",
          "name": "",
          "type": "bool"
        }
      ],
      "stateMutability": "pure",
      "type": "function"
    },
    {
      "inputs": [
        {
          "internalType": "bytes32[]",
          "name": "proofs",
          "type": "bytes32[]"
        },
        {
          "internalType": "bool[]",
          "name": "proofFlag",
          "type": "bool[]"
        },
        {
          "internalType": "bytes32",
          "name": "root",
          "type": "bytes32"
        },
        {
          "internalType": "bytes32[]",
          "name": "leaves",
          "type": "bytes32[]"
        }
      ],
      "name": "multiProofVerifyCalldata",
      "outputs": [
        {
          "internalType": "bool",
          "name": "",
          "type": "bool"
        }
      ],
      "stateMutability": "pure",
      "type": "function"
    },
    {
      "inputs": [
        {
          "internalType": "bytes32[]",
          "name": "proofs",
          "type": "bytes32[]"
        },
        {
          "internalType": "bool[]",
          "name": "proofFlag",
          "type": "bool[]"
        },
        {
          "internalType": "bytes32[]",
          "name": "leaves",
          "type": "bytes32[]"
        }
      ],
      "name": "processMultiProof",
      "outputs": [
        {
          "internalType": "bytes32",
          "name": "",
          "type": "bytes32"
        }
      ],
      "stateMutability": "pure",
      "type": "function"
    },
    {
      "inputs": [
        {
          "internalType": "bytes32[]",
          "name": "proofs",
          "type": "bytes32[]"
        },
        {
          "internalType": "bool[]",
          "name": "proofFlag",
          "type": "bool[]"
        },
        {
          "internalType": "bytes32[]",
          "name": "leaves",
          "type": "bytes32[]"
        }
      ],
      "name": "processMultiProofCalldata",
      "outputs": [
        {
          "internalType": "bytes32",
          "name": "",
          "type": "bytes32"
        }
      ],
      "stateMutability": "pure",
      "type": "function"
    }
  ],
  "bytecode": "0x608060405234801561001057600080fd5b50610d66806100206000396000f3fe608060405234801561001057600080fd5b50600436106100785760003560e01c806332712d221461007d57806353b0f85f146100a35780635a9a49c7146100b657806362702a6b146100d95780637ffe9d8c146100ec578063862aac96146100ff5780638633381614610112578063ea5d3eb614610125575b600080fd5b61009061008b366004610881565b610138565b6040519081526020015b60405180910390f35b6100906100b1366004610914565b610153565b6100c96100c436600461095f565b61016a565b604051901515815260200161009a565b6100906100e73660046109ac565b610177565b6100c96100fa3660046109f0565b610183565b6100c961010d366004610a40565b610191565b6100c9610120366004610b52565b6101ac565b610090610133366004610be3565b6101ba565b600061014786868686866101c7565b90505b95945050505050565b600061016084848461041e565b90505b9392505050565b600061016084848461046a565b60006101638383610480565b600061014a858585856104cd565b60006101a18787878787876104e5565b979650505050505050565b600061014a85858585610501565b600061016084848461050b565b8051600090838060016101da8985610c80565b6101e49190610c98565b1461020a5760405162461bcd60e51b815260040161020190610caf565b60405180910390fd5b6000816001600160401b03811115610224576102246107ad565b60405190808252806020026020018201604052801561024d578160200160208202803683370190505b5090506000806000805b858110156103a657600087851061029257858461027381610ce6565b95508151811061028557610285610cff565b60200260200101516102b8565b898561029d81610ce6565b9650815181106102af576102af610cff565b60200260200101515b905060008c8c848181106102ce576102ce610cff565b90506020020160208101906102e39190610d15565b610310578e8e856102f381610ce6565b965081811061030457610304610cff565b90506020020135610367565b88861061034157868561032281610ce6565b96508151811061033457610334610cff565b6020026020010151610367565b8a8661034c81610ce6565b97508151811061035e5761035e610cff565b60200260200101515b90506103738282610733565b87848151811061038557610385610cff565b6020026020010181815250505050808061039e90610ce6565b915050610257565b5084156103de57836103b9600187610c98565b815181106103c9576103c9610cff565b6020026020010151965050505050505061014a565b85156103f757876000815181106103c9576103c9610cff565b8b8b600081811061040a5761040a610cff565b90506020020135965050505050505061014a565b600081815b848110156104615761044d8287878481811061044157610441610cff565b90506020020135610733565b91508061045981610ce6565b915050610423565b50949350505050565b6000826104778584610480565b14949350505050565b600081815b84518110156104c5576104b1828683815181106104a4576104a4610cff565b6020026020010151610733565b9150806104bd81610ce6565b915050610485565b509392505050565b6000826104db86868561041e565b1495945050505050565b6000826104f588888888876101c7565b14979650505050505050565b6000826104db8686855b805182518451600092919081906001906105259085610c80565b61052f9190610c98565b1461054c5760405162461bcd60e51b815260040161020190610caf565b6000816001600160401b03811115610566576105666107ad565b60405190808252806020026020018201604052801561058f578160200160208202803683370190505b5090506000806000805b858110156106cf5760008785106105d45785846105b581610ce6565b9550815181106105c7576105c7610cff565b60200260200101516105fa565b89856105df81610ce6565b9650815181106105f1576105f1610cff565b60200260200101515b905060008b838151811061061057610610610cff565b6020026020010151610646578c8461062781610ce6565b95508151811061063957610639610cff565b6020026020010151610690565b88861061066a57868561065881610ce6565b96508151811061063957610639610cff565b8a8661067581610ce6565b97508151811061068757610687610cff565b60200260200101515b905061069c8282610733565b8784815181106106ae576106ae610cff565b602002602001018181525050505080806106c790610ce6565b915050610599565b50841561070757836106e2600187610c98565b815181106106f2576106f2610cff565b60200260200101519650505050505050610163565b851561072057876000815181106106f2576106f2610cff565b896000815181106106f2576106f2610cff565b600081831061074f576000828152602084905260409020610163565b6000838152602083905260409020610163565b60008083601f84011261077457600080fd5b5081356001600160401b0381111561078b57600080fd5b6020830191508360208260051b85010111156107a657600080fd5b9250929050565b634e487b7160e01b600052604160045260246000fd5b604051601f8201601f191681016001600160401b03811182821017156107eb576107eb6107ad565b604052919050565b60006001600160401b0382111561080c5761080c6107ad565b5060051b60200190565b600082601f83011261082757600080fd5b8135602061083c610837836107f3565b6107c3565b82815260059290921b8401810191818101908684111561085b57600080fd5b8286015b84811015610876578035835291830191830161085f565b509695505050505050565b60008060008060006060868803121561089957600080fd5b85356001600160401b03808211156108b057600080fd5b6108bc89838a01610762565b909750955060208801359150808211156108d557600080fd5b6108e189838a01610762565b909550935060408801359150808211156108fa57600080fd5b5061090788828901610816565b9150509295509295909350565b60008060006040848603121561092957600080fd5b83356001600160401b0381111561093f57600080fd5b61094b86828701610762565b909790965060209590950135949350505050565b60008060006060848603121561097457600080fd5b83356001600160401b0381111561098a57600080fd5b61099686828701610816565b9660208601359650604090950135949350505050565b600080604083850312156109bf57600080fd5b82356001600160401b038111156109d557600080fd5b6109e185828601610816565b95602094909401359450505050565b60008060008060608587031215610a0657600080fd5b84356001600160401b03811115610a1c57600080fd5b610a2887828801610762565b90989097506020870135966040013595509350505050565b60008060008060008060808789031215610a5957600080fd5b86356001600160401b0380821115610a7057600080fd5b610a7c8a838b01610762565b90985096506020890135915080821115610a9557600080fd5b610aa18a838b01610762565b9096509450604089013593506060890135915080821115610ac157600080fd5b50610ace89828a01610816565b9150509295509295509295565b80358015158114610aeb57600080fd5b919050565b600082601f830112610b0157600080fd5b81356020610b11610837836107f3565b82815260059290921b84018101918181019086841115610b3057600080fd5b8286015b8481101561087657610b4581610adb565b8352918301918301610b34565b60008060008060808587031215610b6857600080fd5b84356001600160401b0380821115610b7f57600080fd5b610b8b88838901610816565b95506020870135915080821115610ba157600080fd5b610bad88838901610af0565b9450604087013593506060870135915080821115610bca57600080fd5b50610bd787828801610816565b91505092959194509250565b600080600060608486031215610bf857600080fd5b83356001600160401b0380821115610c0f57600080fd5b610c1b87838801610816565b94506020860135915080821115610c3157600080fd5b610c3d87838801610af0565b93506040860135915080821115610c5357600080fd5b50610c6086828701610816565b9150509250925092565b634e487b7160e01b600052601160045260246000fd5b60008219821115610c9357610c93610c6a565b500190565b600082821015610caa57610caa610c6a565b500390565b6020808252601f908201527f4d65726b6c6550726f6f663a20696e76616c6964206d756c746970726f6f6600604082015260600190565b600060018201610cf857610cf8610c6a565b5060010190565b634e487b7160e01b600052603260045260246000fd5b600060208284031215610d2757600080fd5b61016382610adb56fea2646970667358221220c2e5f91d9308e576e32aa38a21076e37414082e043dd424b42d50c79e4ff668564736f6c634300080e0033",
  "immutableReferences": {},
  "source": "// SPDX-License-Identifier: MIT\r\n\r\npragma solidity ^0.8.0;\r\n\r\nimport \"../utils/cryptography/MerkleProof.sol\";\r\n\r\ncontract MerkleProofWrapper {\r\n    function verify(\r\n        bytes32[] memory proof,\r\n        bytes32 root,\r\n        bytes32 leaf\r\n    ) public pure returns (bool) {\r\n        return MerkleProof.verify(proof, root, leaf);\r\n    }\r\n\r\n    function verifyCalldata(\r\n        bytes32[] calldata proof,\r\n        bytes32 root,\r\n        bytes32 leaf\r\n    ) public pure returns (bool) {\r\n        return MerkleProof.verifyCalldata(proof, root, leaf);\r\n    }\r\n\r\n    function processProof(bytes32[] memory proof, bytes32 leaf) public pure returns (bytes32) {\r\n        return MerkleProof.processProof(proof, leaf);\r\n    }\r\n\r\n    function processProofCalldata(bytes32[] calldata proof, bytes32 leaf) public pure returns (bytes32) {\r\n        return MerkleProof.processProofCalldata(proof, leaf);\r\n    }\r\n\r\n    function multiProofVerify(\r\n        bytes32[] memory proofs,\r\n        bool[] memory proofFlag,\r\n        bytes32 root,\r\n        bytes32[] memory leaves\r\n    ) public pure returns (bool) {\r\n        return MerkleProof.multiProofVerify(proofs, proofFlag, root, leaves);\r\n    }\r\n\r\n    function multiProofVerifyCalldata(\r\n        bytes32[] calldata proofs,\r\n        bool[] calldata proofFlag,\r\n        bytes32 root,\r\n        bytes32[] memory leaves\r\n    ) public pure returns (bool) {\r\n        return MerkleProof.multiProofVerifyCalldata(proofs, proofFlag, root, leaves);\r\n    }\r\n\r\n    function processMultiProof(\r\n        bytes32[] memory proofs,\r\n        bool[] memory proofFlag,\r\n        bytes32[] memory leaves\r\n    ) public pure returns (bytes32) {\r\n        return MerkleProof.processMultiProof(proofs, proofFlag, leaves);\r\n    }\r\n\r\n    function processMultiProofCalldata(\r\n        bytes32[] calldata proofs,\r\n        bool[] calldata proofFlag,\r\n        bytes32[] memory leaves\r\n    ) public pure returns (bytes32) {\r\n        return MerkleProof.processMultiProofCalldata(proofs, proofFlag, leaves);\r\n    }\r\n}\r\n",
  "sourcePath": "D:\\work\\www\\yopu_dapp_nft\\contracts\\lib\\openzeppelin\\contracts\\mocks\\MerkleProofWrapper.sol",
  "compiler": {
    "name": "solc",
    "version": "0.8.14+commit.80d49f37.Emscripten.clang"
  },
  "schemaVersion": "3.4.7",
  "updatedAt": "2022-06-28T15:05:48.094Z",
  "devdoc": {
    "kind": "dev",
    "methods": {},
    "version": 1
  },
  "userdoc": {
    "kind": "user",
    "methods": {},
    "version": 1
  }
}