{
  "contractName": "MigratableMockV3",
  "abi": [
    {
      "anonymous": false,
      "inputs": [
        {
          "indexed": false,
          "internalType": "uint8",
          "name": "version",
          "type": "uint8"
        }
      ],
      "name": "Initialized",
      "type": "event"
    },
    {
      "inputs": [
        {
          "internalType": "uint256",
          "name": "value",
          "type": "uint256"
        }
      ],
      "name": "initialize",
      "outputs": [],
      "stateMutability": "payable",
      "type": "function"
    },
    {
      "inputs": [],
      "name": "x",
      "outputs": [
        {
          "internalType": "uint256",
          "name": "",
          "type": "uint256"
        }
      ],
      "stateMutability": "view",
      "type": "function"
    },
    {
      "inputs": [],
      "name": "y",
      "outputs": [
        {
          "internalType": "uint256",
          "name": "",
          "type": "uint256"
        }
      ],
      "stateMutability": "view",
      "type": "function"
    },
    {
      "inputs": [
        {
          "internalType": "uint256",
          "name": "value",
          "type": "uint256"
        },
        {
          "internalType": "uint256",
          "name": "anotherValue",
          "type": "uint256"
        }
      ],
      "name": "migrate",
      "outputs": [],
      "stateMutability": "payable",
      "type": "function"
    },
    {
      "inputs": [],
      "name": "migrate",
      "outputs": [],
      "stateMutability": "payable",
      "type": "function"
    }
  ],
  "bytecode": "0x608060405234801561001057600080fd5b50610292806100206000396000f3fe60806040526004361061004a5760003560e01c80630c55699c1461004f5780633e54bacb146100775780638fd3ab801461008c578063a56dfe4a14610094578063fe4b84df146100aa575b600080fd5b34801561005b57600080fd5b5061006560015481565b60405190815260200160405180910390f35b61008a610085366004610221565b6100bd565b005b61008a6100e4565b3480156100a057600080fd5b5061006560035481565b61008a6100b8366004610243565b61010e565b60025460ff16156100cd57600080fd5b60019182556003556002805460ff19169091179055565b60045460ff16156100f457600080fd5b60018054600380548355556004805460ff19169091179055565b600054610100900460ff161580801561012e5750600054600160ff909116105b806101485750303b158015610148575060005460ff166001145b6101af5760405162461bcd60e51b815260206004820152602e60248201527f496e697469616c697a61626c653a20636f6e747261637420697320616c72656160448201526d191e481a5b9a5d1a585b1a5e995960921b606482015260840160405180910390fd5b6000805460ff1916600117905580156101d2576000805461ff0019166101001790555b6001829055801561021d576000805461ff0019169055604051600181527f7f26b83ff96e1f2b6a682f133852f6798a09c465da95921460cefb38474024989060200160405180910390a15b5050565b6000806040838503121561023457600080fd5b50508035926020909101359150565b60006020828403121561025557600080fd5b503591905056fea2646970667358221220aa4c45e9f82ae74fde07358a496281dbe809624bb88bde62ea6f273e5e50103164736f6c634300080e0033",
  "immutableReferences": {},
  "source": "// SPDX-License-Identifier: MIT\r\n\r\npragma solidity ^0.8.0;\r\n\r\nimport \"../proxy/utils/Initializable.sol\";\r\n\r\n/**\r\n * @title MigratableMockV1\r\n * @dev This contract is a mock to test initializable functionality through migrations\r\n */\r\ncontract MigratableMockV1 is Initializable {\r\n    uint256 public x;\r\n\r\n    function initialize(uint256 value) public payable initializer {\r\n        x = value;\r\n    }\r\n}\r\n\r\n/**\r\n * @title MigratableMockV2\r\n * @dev This contract is a mock to test migratable functionality with params\r\n */\r\ncontract MigratableMockV2 is MigratableMockV1 {\r\n    bool internal _migratedV2;\r\n    uint256 public y;\r\n\r\n    function migrate(uint256 value, uint256 anotherValue) public payable {\r\n        require(!_migratedV2);\r\n        x = value;\r\n        y = anotherValue;\r\n        _migratedV2 = true;\r\n    }\r\n}\r\n\r\n/**\r\n * @title MigratableMockV3\r\n * @dev This contract is a mock to test migratable functionality without params\r\n */\r\ncontract MigratableMockV3 is MigratableMockV2 {\r\n    bool internal _migratedV3;\r\n\r\n    function migrate() public payable {\r\n        require(!_migratedV3);\r\n        uint256 oldX = x;\r\n        x = y;\r\n        y = oldX;\r\n        _migratedV3 = true;\r\n    }\r\n}\r\n",
  "sourcePath": "D:\\work\\www\\yopu_dapp_nft\\contracts\\lib\\openzeppelin\\contracts\\mocks\\SingleInheritanceInitializableMocks.sol",
  "compiler": {
    "name": "solc",
    "version": "0.8.14+commit.80d49f37.Emscripten.clang"
  },
  "schemaVersion": "3.4.7",
  "updatedAt": "2022-06-28T15:05:48.256Z",
  "devdoc": {
    "details": "This contract is a mock to test migratable functionality without params",
    "kind": "dev",
    "methods": {},
    "title": "MigratableMockV3",
    "version": 1
  },
  "userdoc": {
    "kind": "user",
    "methods": {},
    "version": 1
  }
}