{
  "contractName": "MulticallTest",
  "abi": [
    {
      "inputs": [
        {
          "internalType": "contract MulticallTokenMock",
          "name": "multicallToken",
          "type": "address"
        },
        {
          "internalType": "address[]",
          "name": "recipients",
          "type": "address[]"
        },
        {
          "internalType": "uint256[]",
          "name": "amounts",
          "type": "uint256[]"
        }
      ],
      "name": "testReturnValues",
      "outputs": [],
      "stateMutability": "nonpayable",
      "type": "function"
    }
  ],
  "bytecode": "0x608060405234801561001057600080fd5b506105d3806100206000396000f3fe608060405234801561001057600080fd5b506004361061002b5760003560e01c8063bc548f7614610030575b600080fd5b61004361003e366004610293565b610045565b005b6000836001600160401b0381111561005f5761005f610315565b60405190808252806020026020018201604052801561009257816020015b606081526020019060019003908161007d5790505b50905060005b84811015610159578585828181106100b2576100b261032b565b90506020020160208101906100c79190610341565b8484838181106100d9576100d961032b565b6040516001600160a01b039094166024850152602002919091013560448301525060640160408051601f198184030181529190526020810180516001600160e01b031663a9059cbb60e01b179052825183908390811061013b5761013b61032b565b6020026020010181905250808061015190610365565b915050610098565b50604051631592ca1b60e31b81526000906001600160a01b0388169063ac9650d8906101899085906004016103bc565b6000604051808303816000875af11580156101a8573d6000803e3d6000fd5b505050506040513d6000823e601f3d908101601f191682016040526101d09190810190610466565b905060005b8151811015610226578181815181106101f0576101f061032b565b602002602001015180602001905181019061020b919061057b565b61021457600080fd5b8061021e81610365565b9150506101d5565b5050505050505050565b6001600160a01b038116811461024557600080fd5b50565b60008083601f84011261025a57600080fd5b5081356001600160401b0381111561027157600080fd5b6020830191508360208260051b850101111561028c57600080fd5b9250929050565b6000806000806000606086880312156102ab57600080fd5b85356102b681610230565b945060208601356001600160401b03808211156102d257600080fd5b6102de89838a01610248565b909650945060408801359150808211156102f757600080fd5b5061030488828901610248565b969995985093965092949392505050565b634e487b7160e01b600052604160045260246000fd5b634e487b7160e01b600052603260045260246000fd5b60006020828403121561035357600080fd5b813561035e81610230565b9392505050565b60006001820161038557634e487b7160e01b600052601160045260246000fd5b5060010190565b60005b838110156103a757818101518382015260200161038f565b838111156103b6576000848401525b50505050565b6000602080830181845280855180835260408601915060408160051b870101925083870160005b8281101561042957878503603f190184528151805180875261040a818989018a850161038c565b601f01601f1916959095018601945092850192908501906001016103e3565b5092979650505050505050565b604051601f8201601f191681016001600160401b038111828210171561045e5761045e610315565b604052919050565b6000602080838503121561047957600080fd5b82516001600160401b038082111561049057600080fd5b8185019150601f86818401126104a557600080fd5b8251828111156104b7576104b7610315565b8060051b6104c6868201610436565b918252848101860191868101908a8411156104e057600080fd5b87870192505b8383101561056d578251868111156104fe5760008081fd5b8701603f81018c136105105760008081fd5b8881015160408882111561052657610526610315565b610537828901601f19168c01610436565b8281528e8284860101111561054c5760008081fd5b61055b838d830184870161038c565b855250505091870191908701906104e6565b9a9950505050505050505050565b60006020828403121561058d57600080fd5b8151801515811461035e57600080fdfea264697066735822122031ea310fca26eb2ef6b0b4be17ff9de2c6044ceb7487d17f0e157c5f8bad439564736f6c634300080e0033",
  "immutableReferences": {},
  "source": "// SPDX-License-Identifier: MIT\r\n\r\npragma solidity ^0.8.0;\r\n\r\nimport \"./MulticallTokenMock.sol\";\r\n\r\ncontract MulticallTest {\r\n    function testReturnValues(\r\n        MulticallTokenMock multicallToken,\r\n        address[] calldata recipients,\r\n        uint256[] calldata amounts\r\n    ) external {\r\n        bytes[] memory calls = new bytes[](recipients.length);\r\n        for (uint256 i = 0; i < recipients.length; i++) {\r\n            calls[i] = abi.encodeWithSignature(\"transfer(address,uint256)\", recipients[i], amounts[i]);\r\n        }\r\n\r\n        bytes[] memory results = multicallToken.multicall(calls);\r\n        for (uint256 i = 0; i < results.length; i++) {\r\n            require(abi.decode(results[i], (bool)));\r\n        }\r\n    }\r\n}\r\n",
  "sourcePath": "D:\\work\\www\\yopu_dapp_nft\\contracts\\lib\\openzeppelin\\contracts\\mocks\\MulticallTest.sol",
  "compiler": {
    "name": "solc",
    "version": "0.8.14+commit.80d49f37.Emscripten.clang"
  },
  "schemaVersion": "3.4.7",
  "updatedAt": "2022-06-28T15:05:48.103Z",
  "devdoc": {
    "kind": "dev",
    "methods": {},
    "version": 1
  },
  "userdoc": {
    "kind": "user",
    "methods": {},
    "version": 1
  }
}