{
  "contractName": "MulticallTokenMock",
  "abi": [
    {
      "inputs": [
        {
          "internalType": "uint256",
          "name": "initialBalance",
          "type": "uint256"
        }
      ],
      "stateMutability": "nonpayable",
      "type": "constructor"
    },
    {
      "anonymous": false,
      "inputs": [
        {
          "indexed": true,
          "internalType": "address",
          "name": "owner",
          "type": "address"
        },
        {
          "indexed": true,
          "internalType": "address",
          "name": "spender",
          "type": "address"
        },
        {
          "indexed": false,
          "internalType": "uint256",
          "name": "value",
          "type": "uint256"
        }
      ],
      "name": "Approval",
      "type": "event"
    },
    {
      "anonymous": false,
      "inputs": [
        {
          "indexed": true,
          "internalType": "address",
          "name": "from",
          "type": "address"
        },
        {
          "indexed": true,
          "internalType": "address",
          "name": "to",
          "type": "address"
        },
        {
          "indexed": false,
          "internalType": "uint256",
          "name": "value",
          "type": "uint256"
        }
      ],
      "name": "Transfer",
      "type": "event"
    },
    {
      "inputs": [
        {
          "internalType": "address",
          "name": "owner",
          "type": "address"
        },
        {
          "internalType": "address",
          "name": "spender",
          "type": "address"
        }
      ],
      "name": "allowance",
      "outputs": [
        {
          "internalType": "uint256",
          "name": "",
          "type": "uint256"
        }
      ],
      "stateMutability": "view",
      "type": "function"
    },
    {
      "inputs": [
        {
          "internalType": "address",
          "name": "spender",
          "type": "address"
        },
        {
          "internalType": "uint256",
          "name": "amount",
          "type": "uint256"
        }
      ],
      "name": "approve",
      "outputs": [
        {
          "internalType": "bool",
          "name": "",
          "type": "bool"
        }
      ],
      "stateMutability": "nonpayable",
      "type": "function"
    },
    {
      "inputs": [
        {
          "internalType": "address",
          "name": "owner",
          "type": "address"
        },
        {
          "internalType": "address",
          "name": "spender",
          "type": "address"
        },
        {
          "internalType": "uint256",
          "name": "value",
          "type": "uint256"
        }
      ],
      "name": "approveInternal",
      "outputs": [],
      "stateMutability": "nonpayable",
      "type": "function"
    },
    {
      "inputs": [
        {
          "internalType": "address",
          "name": "account",
          "type": "address"
        }
      ],
      "name": "balanceOf",
      "outputs": [
        {
          "internalType": "uint256",
          "name": "",
          "type": "uint256"
        }
      ],
      "stateMutability": "view",
      "type": "function"
    },
    {
      "inputs": [
        {
          "internalType": "address",
          "name": "account",
          "type": "address"
        },
        {
          "internalType": "uint256",
          "name": "amount",
          "type": "uint256"
        }
      ],
      "name": "burn",
      "outputs": [],
      "stateMutability": "nonpayable",
      "type": "function"
    },
    {
      "inputs": [],
      "name": "decimals",
      "outputs": [
        {
          "internalType": "uint8",
          "name": "",
          "type": "uint8"
        }
      ],
      "stateMutability": "view",
      "type": "function"
    },
    {
      "inputs": [
        {
          "internalType": "address",
          "name": "spender",
          "type": "address"
        },
        {
          "internalType": "uint256",
          "name": "subtractedValue",
          "type": "uint256"
        }
      ],
      "name": "decreaseAllowance",
      "outputs": [
        {
          "internalType": "bool",
          "name": "",
          "type": "bool"
        }
      ],
      "stateMutability": "nonpayable",
      "type": "function"
    },
    {
      "inputs": [
        {
          "internalType": "address",
          "name": "spender",
          "type": "address"
        },
        {
          "internalType": "uint256",
          "name": "addedValue",
          "type": "uint256"
        }
      ],
      "name": "increaseAllowance",
      "outputs": [
        {
          "internalType": "bool",
          "name": "",
          "type": "bool"
        }
      ],
      "stateMutability": "nonpayable",
      "type": "function"
    },
    {
      "inputs": [
        {
          "internalType": "address",
          "name": "account",
          "type": "address"
        },
        {
          "internalType": "uint256",
          "name": "amount",
          "type": "uint256"
        }
      ],
      "name": "mint",
      "outputs": [],
      "stateMutability": "nonpayable",
      "type": "function"
    },
    {
      "inputs": [
        {
          "internalType": "bytes[]",
          "name": "data",
          "type": "bytes[]"
        }
      ],
      "name": "multicall",
      "outputs": [
        {
          "internalType": "bytes[]",
          "name": "results",
          "type": "bytes[]"
        }
      ],
      "stateMutability": "nonpayable",
      "type": "function"
    },
    {
      "inputs": [],
      "name": "name",
      "outputs": [
        {
          "internalType": "string",
          "name": "",
          "type": "string"
        }
      ],
      "stateMutability": "view",
      "type": "function"
    },
    {
      "inputs": [],
      "name": "symbol",
      "outputs": [
        {
          "internalType": "string",
          "name": "",
          "type": "string"
        }
      ],
      "stateMutability": "view",
      "type": "function"
    },
    {
      "inputs": [],
      "name": "totalSupply",
      "outputs": [
        {
          "internalType": "uint256",
          "name": "",
          "type": "uint256"
        }
      ],
      "stateMutability": "view",
      "type": "function"
    },
    {
      "inputs": [
        {
          "internalType": "address",
          "name": "to",
          "type": "address"
        },
        {
          "internalType": "uint256",
          "name": "amount",
          "type": "uint256"
        }
      ],
      "name": "transfer",
      "outputs": [
        {
          "internalType": "bool",
          "name": "",
          "type": "bool"
        }
      ],
      "stateMutability": "nonpayable",
      "type": "function"
    },
    {
      "inputs": [
        {
          "internalType": "address",
          "name": "from",
          "type": "address"
        },
        {
          "internalType": "address",
          "name": "to",
          "type": "address"
        },
        {
          "internalType": "uint256",
          "name": "amount",
          "type": "uint256"
        }
      ],
      "name": "transferFrom",
      "outputs": [
        {
          "internalType": "bool",
          "name": "",
          "type": "bool"
        }
      ],
      "stateMutability": "nonpayable",
      "type": "function"
    },
    {
      "inputs": [
        {
          "internalType": "address",
          "name": "from",
          "type": "address"
        },
        {
          "internalType": "address",
          "name": "to",
          "type": "address"
        },
        {
          "internalType": "uint256",
          "name": "value",
          "type": "uint256"
        }
      ],
      "name": "transferInternal",
      "outputs": [],
      "stateMutability": "nonpayable",
      "type": "function"
    }
  ],
  "bytecode": "0x60806040523480156200001157600080fd5b506040516200126138038062001261833981016040819052620000349162000257565b6040518060400160405280600e81526020016d26bab63a34b1b0b6362a37b5b2b760911b815250604051806040016040528060038152602001621090d560ea1b81525033838383816003908051906020019062000093929190620001b1565b508051620000a9906004906020840190620001b1565b505050620000be8282620000c960201b60201c565b5050505050620002d4565b6001600160a01b038216620001245760405162461bcd60e51b815260206004820152601f60248201527f45524332303a206d696e7420746f20746865207a65726f206164647265737300604482015260640160405180910390fd5b806002600082825462000138919062000271565b90915550506001600160a01b038216600090815260208190526040812080548392906200016790849062000271565b90915550506040518181526001600160a01b038316906000907fddf252ad1be2c89b69c2b068fc378daa952ba7f163c4a11628f55a4df523b3ef9060200160405180910390a35050565b828054620001bf9062000298565b90600052602060002090601f016020900481019282620001e357600085556200022e565b82601f10620001fe57805160ff19168380011785556200022e565b828001600101855582156200022e579182015b828111156200022e57825182559160200191906001019062000211565b506200023c92915062000240565b5090565b5b808211156200023c576000815560010162000241565b6000602082840312156200026a57600080fd5b5051919050565b600082198211156200029357634e487b7160e01b600052601160045260246000fd5b500190565b600181811c90821680620002ad57607f821691505b602082108103620002ce57634e487b7160e01b600052602260045260246000fd5b50919050565b610f7d80620002e46000396000f3fe608060405234801561001057600080fd5b50600436106100d05760003560e01c806306fdde03146100d5578063095ea7b3146100f357806318160ddd14610116578063222f5be01461012857806323b872dd1461013d578063313ce56714610150578063395093511461015f57806340c10f191461017257806356189cb41461018557806370a082311461019857806395d89b41146101c15780639dc29fac146101c9578063a457c2d7146101dc578063a9059cbb146101ef578063ac9650d814610202578063dd62ed3e14610222575b600080fd5b6100dd610235565b6040516100ea9190610c1a565b60405180910390f35b610106610101366004610c49565b6102c7565b60405190151581526020016100ea565b6002545b6040519081526020016100ea565b61013b610136366004610c73565b6102df565b005b61010661014b366004610c73565b6102ef565b604051601281526020016100ea565b61010661016d366004610c49565b610313565b61013b610180366004610c49565b610335565b61013b610193366004610c73565b610343565b61011a6101a6366004610caf565b6001600160a01b031660009081526020819052604090205490565b6100dd61034e565b61013b6101d7366004610c49565b61035d565b6101066101ea366004610c49565b610367565b6101066101fd366004610c49565b6103e7565b610215610210366004610cca565b6103f5565b6040516100ea9190610d3e565b61011a610230366004610da0565b6104e9565b60606003805461024490610dd3565b80601f016020809104026020016040519081016040528092919081815260200182805461027090610dd3565b80156102bd5780601f10610292576101008083540402835291602001916102bd565b820191906000526020600020905b8154815290600101906020018083116102a057829003601f168201915b5050505050905090565b6000336102d5818585610514565b5060019392505050565b6102ea838383610638565b505050565b6000336102fd8582856107f6565b610308858585610638565b506001949350505050565b6000336102d581858561032683836104e9565b6103309190610e23565b610514565b61033f828261086a565b5050565b6102ea838383610514565b60606004805461024490610dd3565b61033f8282610937565b6000338161037582866104e9565b9050838110156103da5760405162461bcd60e51b815260206004820152602560248201527f45524332303a2064656372656173656420616c6c6f77616e63652062656c6f77604482015264207a65726f60d81b60648201526084015b60405180910390fd5b6103088286868403610514565b6000336102d5818585610638565b6060816001600160401b0381111561040f5761040f610e3b565b60405190808252806020026020018201604052801561044257816020015b606081526020019060019003908161042d5790505b50905060005b828110156104e2576104b23085858481811061046657610466610e51565b90506020028101906104789190610e67565b8080601f016020809104026020016040519081016040528093929190818152602001838380828437600092019190915250610a7392505050565b8282815181106104c4576104c4610e51565b602002602001018190525080806104da90610eb4565b915050610448565b5092915050565b6001600160a01b03918216600090815260016020908152604080832093909416825291909152205490565b6001600160a01b0383166105765760405162461bcd60e51b8152602060048201526024808201527f45524332303a20617070726f76652066726f6d20746865207a65726f206164646044820152637265737360e01b60648201526084016103d1565b6001600160a01b0382166105d75760405162461bcd60e51b815260206004820152602260248201527f45524332303a20617070726f766520746f20746865207a65726f206164647265604482015261737360f01b60648201526084016103d1565b6001600160a01b0383811660008181526001602090815260408083209487168084529482529182902085905590518481527f8c5be1e5ebec7d5bd14f71427d1e84f3dd0314c0f7b2291e5b200ac8c7c3b925910160405180910390a3505050565b6001600160a01b03831661069c5760405162461bcd60e51b815260206004820152602560248201527f45524332303a207472616e736665722066726f6d20746865207a65726f206164604482015264647265737360d81b60648201526084016103d1565b6001600160a01b0382166106fe5760405162461bcd60e51b815260206004820152602360248201527f45524332303a207472616e7366657220746f20746865207a65726f206164647260448201526265737360e81b60648201526084016103d1565b6001600160a01b038316600090815260208190526040902054818110156107765760405162461bcd60e51b815260206004820152602660248201527f45524332303a207472616e7366657220616d6f756e7420657863656564732062604482015265616c616e636560d01b60648201526084016103d1565b6001600160a01b038085166000908152602081905260408082208585039055918516815290812080548492906107ad908490610e23565b92505081905550826001600160a01b0316846001600160a01b0316600080516020610f28833981519152846040516107e791815260200190565b60405180910390a35b50505050565b600061080284846104e9565b905060001981146107f0578181101561085d5760405162461bcd60e51b815260206004820152601d60248201527f45524332303a20696e73756666696369656e7420616c6c6f77616e636500000060448201526064016103d1565b6107f08484848403610514565b6001600160a01b0382166108c05760405162461bcd60e51b815260206004820152601f60248201527f45524332303a206d696e7420746f20746865207a65726f20616464726573730060448201526064016103d1565b80600260008282546108d29190610e23565b90915550506001600160a01b038216600090815260208190526040812080548392906108ff908490610e23565b90915550506040518181526001600160a01b03831690600090600080516020610f288339815191529060200160405180910390a35050565b6001600160a01b0382166109975760405162461bcd60e51b815260206004820152602160248201527f45524332303a206275726e2066726f6d20746865207a65726f206164647265736044820152607360f81b60648201526084016103d1565b6001600160a01b03821660009081526020819052604090205481811015610a0b5760405162461bcd60e51b815260206004820152602260248201527f45524332303a206275726e20616d6f756e7420657863656564732062616c616e604482015261636560f01b60648201526084016103d1565b6001600160a01b0383166000908152602081905260408120838303905560028054849290610a3a908490610ecd565b90915550506040518281526000906001600160a01b03851690600080516020610f288339815191529060200160405180910390a3505050565b6060610a988383604051806060016040528060278152602001610f0160279139610a9f565b9392505050565b6060600080856001600160a01b031685604051610abc9190610ee4565b600060405180830381855af49150503d8060008114610af7576040519150601f19603f3d011682016040523d82523d6000602084013e610afc565b606091505b5091509150610b0d86838387610b17565b9695505050505050565b60608315610b86578251600003610b7f576001600160a01b0385163b610b7f5760405162461bcd60e51b815260206004820152601d60248201527f416464726573733a2063616c6c20746f206e6f6e2d636f6e747261637400000060448201526064016103d1565b5081610b90565b610b908383610b98565b949350505050565b815115610ba85781518083602001fd5b8060405162461bcd60e51b81526004016103d19190610c1a565b60005b83811015610bdd578181015183820152602001610bc5565b838111156107f05750506000910152565b60008151808452610c06816020860160208601610bc2565b601f01601f19169290920160200192915050565b602081526000610a986020830184610bee565b80356001600160a01b0381168114610c4457600080fd5b919050565b60008060408385031215610c5c57600080fd5b610c6583610c2d565b946020939093013593505050565b600080600060608486031215610c8857600080fd5b610c9184610c2d565b9250610c9f60208501610c2d565b9150604084013590509250925092565b600060208284031215610cc157600080fd5b610a9882610c2d565b60008060208385031215610cdd57600080fd5b82356001600160401b0380821115610cf457600080fd5b818501915085601f830112610d0857600080fd5b813581811115610d1757600080fd5b8660208260051b8501011115610d2c57600080fd5b60209290920196919550909350505050565b6000602080830181845280855180835260408601915060408160051b870101925083870160005b82811015610d9357603f19888603018452610d81858351610bee565b94509285019290850190600101610d65565b5092979650505050505050565b60008060408385031215610db357600080fd5b610dbc83610c2d565b9150610dca60208401610c2d565b90509250929050565b600181811c90821680610de757607f821691505b602082108103610e0757634e487b7160e01b600052602260045260246000fd5b50919050565b634e487b7160e01b600052601160045260246000fd5b60008219821115610e3657610e36610e0d565b500190565b634e487b7160e01b600052604160045260246000fd5b634e487b7160e01b600052603260045260246000fd5b6000808335601e19843603018112610e7e57600080fd5b8301803591506001600160401b03821115610e9857600080fd5b602001915036819003821315610ead57600080fd5b9250929050565b600060018201610ec657610ec6610e0d565b5060010190565b600082821015610edf57610edf610e0d565b500390565b60008251610ef6818460208701610bc2565b919091019291505056fe416464726573733a206c6f772d6c6576656c2064656c65676174652063616c6c206661696c6564ddf252ad1be2c89b69c2b068fc378daa952ba7f163c4a11628f55a4df523b3efa2646970667358221220de52f2726339f6c85fbbbc31dd314607c48a5a8f34426563add32fdb124ba97164736f6c634300080e0033",
  "immutableReferences": {},
  "source": "// SPDX-License-Identifier: MIT\r\n\r\npragma solidity ^0.8.0;\r\n\r\nimport \"../utils/Multicall.sol\";\r\nimport \"./ERC20Mock.sol\";\r\n\r\ncontract MulticallTokenMock is ERC20Mock, Multicall {\r\n    constructor(uint256 initialBalance) ERC20Mock(\"MulticallToken\", \"BCT\", msg.sender, initialBalance) {}\r\n}\r\n",
  "sourcePath": "D:\\work\\www\\yopu_dapp_nft\\contracts\\lib\\openzeppelin\\contracts\\mocks\\MulticallTokenMock.sol",
  "compiler": {
    "name": "solc",
    "version": "0.8.14+commit.80d49f37.Emscripten.clang"
  },
  "schemaVersion": "3.4.7",
  "updatedAt": "2022-06-28T15:05:48.109Z",
  "devdoc": {
    "kind": "dev",
    "methods": {
      "allowance(address,address)": {
        "details": "See {IERC20-allowance}."
      },
      "approve(address,uint256)": {
        "details": "See {IERC20-approve}. NOTE: If `amount` is the maximum `uint256`, the allowance is not updated on `transferFrom`. This is semantically equivalent to an infinite approval. Requirements: - `spender` cannot be the zero address."
      },
      "balanceOf(address)": {
        "details": "See {IERC20-balanceOf}."
      },
      "decimals()": {
        "details": "Returns the number of decimals used to get its user representation. For example, if `decimals` equals `2`, a balance of `505` tokens should be displayed to a user as `5.05` (`505 / 10 ** 2`). Tokens usually opt for a value of 18, imitating the relationship between Ether and Wei. This is the value {ERC20} uses, unless this function is overridden; NOTE: This information is only used for _display_ purposes: it in no way affects any of the arithmetic of the contract, including {IERC20-balanceOf} and {IERC20-transfer}."
      },
      "decreaseAllowance(address,uint256)": {
        "details": "Atomically decreases the allowance granted to `spender` by the caller. This is an alternative to {approve} that can be used as a mitigation for problems described in {IERC20-approve}. Emits an {Approval} event indicating the updated allowance. Requirements: - `spender` cannot be the zero address. - `spender` must have allowance for the caller of at least `subtractedValue`."
      },
      "increaseAllowance(address,uint256)": {
        "details": "Atomically increases the allowance granted to `spender` by the caller. This is an alternative to {approve} that can be used as a mitigation for problems described in {IERC20-approve}. Emits an {Approval} event indicating the updated allowance. Requirements: - `spender` cannot be the zero address."
      },
      "multicall(bytes[])": {
        "details": "Receives and executes a batch of function calls on this contract."
      },
      "name()": {
        "details": "Returns the name of the token."
      },
      "symbol()": {
        "details": "Returns the symbol of the token, usually a shorter version of the name."
      },
      "totalSupply()": {
        "details": "See {IERC20-totalSupply}."
      },
      "transfer(address,uint256)": {
        "details": "See {IERC20-transfer}. Requirements: - `to` cannot be the zero address. - the caller must have a balance of at least `amount`."
      },
      "transferFrom(address,address,uint256)": {
        "details": "See {IERC20-transferFrom}. Emits an {Approval} event indicating the updated allowance. This is not required by the EIP. See the note at the beginning of {ERC20}. NOTE: Does not update the allowance if the current allowance is the maximum `uint256`. Requirements: - `from` and `to` cannot be the zero address. - `from` must have a balance of at least `amount`. - the caller must have allowance for ``from``'s tokens of at least `amount`."
      }
    },
    "version": 1
  },
  "userdoc": {
    "kind": "user",
    "methods": {},
    "version": 1
  }
}