{
  "contractName": "MyGovernor2",
  "abi": [
    {
      "inputs": [
        {
          "internalType": "contract IVotes",
          "name": "_token",
          "type": "address"
        },
        {
          "internalType": "contract TimelockController",
          "name": "_timelock",
          "type": "address"
        }
      ],
      "stateMutability": "nonpayable",
      "type": "constructor"
    },
    {
      "inputs": [],
      "name": "Empty",
      "type": "error"
    },
    {
      "anonymous": false,
      "inputs": [
        {
          "indexed": false,
          "internalType": "uint256",
          "name": "proposalId",
          "type": "uint256"
        }
      ],
      "name": "ProposalCanceled",
      "type": "event"
    },
    {
      "anonymous": false,
      "inputs": [
        {
          "indexed": false,
          "internalType": "uint256",
          "name": "proposalId",
          "type": "uint256"
        },
        {
          "indexed": false,
          "internalType": "address",
          "name": "proposer",
          "type": "address"
        },
        {
          "indexed": false,
          "internalType": "address[]",
          "name": "targets",
          "type": "address[]"
        },
        {
          "indexed": false,
          "internalType": "uint256[]",
          "name": "values",
          "type": "uint256[]"
        },
        {
          "indexed": false,
          "internalType": "string[]",
          "name": "signatures",
          "type": "string[]"
        },
        {
          "indexed": false,
          "internalType": "bytes[]",
          "name": "calldatas",
          "type": "bytes[]"
        },
        {
          "indexed": false,
          "internalType": "uint256",
          "name": "startBlock",
          "type": "uint256"
        },
        {
          "indexed": false,
          "internalType": "uint256",
          "name": "endBlock",
          "type": "uint256"
        },
        {
          "indexed": false,
          "internalType": "string",
          "name": "description",
          "type": "string"
        }
      ],
      "name": "ProposalCreated",
      "type": "event"
    },
    {
      "anonymous": false,
      "inputs": [
        {
          "indexed": false,
          "internalType": "uint256",
          "name": "proposalId",
          "type": "uint256"
        }
      ],
      "name": "ProposalExecuted",
      "type": "event"
    },
    {
      "anonymous": false,
      "inputs": [
        {
          "indexed": false,
          "internalType": "uint256",
          "name": "proposalId",
          "type": "uint256"
        },
        {
          "indexed": false,
          "internalType": "uint256",
          "name": "eta",
          "type": "uint256"
        }
      ],
      "name": "ProposalQueued",
      "type": "event"
    },
    {
      "anonymous": false,
      "inputs": [
        {
          "indexed": false,
          "internalType": "uint256",
          "name": "oldQuorumNumerator",
          "type": "uint256"
        },
        {
          "indexed": false,
          "internalType": "uint256",
          "name": "newQuorumNumerator",
          "type": "uint256"
        }
      ],
      "name": "QuorumNumeratorUpdated",
      "type": "event"
    },
    {
      "anonymous": false,
      "inputs": [
        {
          "indexed": false,
          "internalType": "address",
          "name": "oldTimelock",
          "type": "address"
        },
        {
          "indexed": false,
          "internalType": "address",
          "name": "newTimelock",
          "type": "address"
        }
      ],
      "name": "TimelockChange",
      "type": "event"
    },
    {
      "anonymous": false,
      "inputs": [
        {
          "indexed": true,
          "internalType": "address",
          "name": "voter",
          "type": "address"
        },
        {
          "indexed": false,
          "internalType": "uint256",
          "name": "proposalId",
          "type": "uint256"
        },
        {
          "indexed": false,
          "internalType": "uint8",
          "name": "support",
          "type": "uint8"
        },
        {
          "indexed": false,
          "internalType": "uint256",
          "name": "weight",
          "type": "uint256"
        },
        {
          "indexed": false,
          "internalType": "string",
          "name": "reason",
          "type": "string"
        }
      ],
      "name": "VoteCast",
      "type": "event"
    },
    {
      "anonymous": false,
      "inputs": [
        {
          "indexed": true,
          "internalType": "address",
          "name": "voter",
          "type": "address"
        },
        {
          "indexed": false,
          "internalType": "uint256",
          "name": "proposalId",
          "type": "uint256"
        },
        {
          "indexed": false,
          "internalType": "uint8",
          "name": "support",
          "type": "uint8"
        },
        {
          "indexed": false,
          "internalType": "uint256",
          "name": "weight",
          "type": "uint256"
        },
        {
          "indexed": false,
          "internalType": "string",
          "name": "reason",
          "type": "string"
        },
        {
          "indexed": false,
          "internalType": "bytes",
          "name": "params",
          "type": "bytes"
        }
      ],
      "name": "VoteCastWithParams",
      "type": "event"
    },
    {
      "inputs": [],
      "name": "BALLOT_TYPEHASH",
      "outputs": [
        {
          "internalType": "bytes32",
          "name": "",
          "type": "bytes32"
        }
      ],
      "stateMutability": "view",
      "type": "function"
    },
    {
      "inputs": [],
      "name": "COUNTING_MODE",
      "outputs": [
        {
          "internalType": "string",
          "name": "",
          "type": "string"
        }
      ],
      "stateMutability": "pure",
      "type": "function"
    },
    {
      "inputs": [],
      "name": "EXTENDED_BALLOT_TYPEHASH",
      "outputs": [
        {
          "internalType": "bytes32",
          "name": "",
          "type": "bytes32"
        }
      ],
      "stateMutability": "view",
      "type": "function"
    },
    {
      "inputs": [
        {
          "internalType": "uint256",
          "name": "proposalId",
          "type": "uint256"
        },
        {
          "internalType": "uint8",
          "name": "support",
          "type": "uint8"
        }
      ],
      "name": "castVote",
      "outputs": [
        {
          "internalType": "uint256",
          "name": "",
          "type": "uint256"
        }
      ],
      "stateMutability": "nonpayable",
      "type": "function"
    },
    {
      "inputs": [
        {
          "internalType": "uint256",
          "name": "proposalId",
          "type": "uint256"
        },
        {
          "internalType": "uint8",
          "name": "support",
          "type": "uint8"
        },
        {
          "internalType": "uint8",
          "name": "v",
          "type": "uint8"
        },
        {
          "internalType": "bytes32",
          "name": "r",
          "type": "bytes32"
        },
        {
          "internalType": "bytes32",
          "name": "s",
          "type": "bytes32"
        }
      ],
      "name": "castVoteBySig",
      "outputs": [
        {
          "internalType": "uint256",
          "name": "",
          "type": "uint256"
        }
      ],
      "stateMutability": "nonpayable",
      "type": "function"
    },
    {
      "inputs": [
        {
          "internalType": "uint256",
          "name": "proposalId",
          "type": "uint256"
        },
        {
          "internalType": "uint8",
          "name": "support",
          "type": "uint8"
        },
        {
          "internalType": "string",
          "name": "reason",
          "type": "string"
        }
      ],
      "name": "castVoteWithReason",
      "outputs": [
        {
          "internalType": "uint256",
          "name": "",
          "type": "uint256"
        }
      ],
      "stateMutability": "nonpayable",
      "type": "function"
    },
    {
      "inputs": [
        {
          "internalType": "uint256",
          "name": "proposalId",
          "type": "uint256"
        },
        {
          "internalType": "uint8",
          "name": "support",
          "type": "uint8"
        },
        {
          "internalType": "string",
          "name": "reason",
          "type": "string"
        },
        {
          "internalType": "bytes",
          "name": "params",
          "type": "bytes"
        }
      ],
      "name": "castVoteWithReasonAndParams",
      "outputs": [
        {
          "internalType": "uint256",
          "name": "",
          "type": "uint256"
        }
      ],
      "stateMutability": "nonpayable",
      "type": "function"
    },
    {
      "inputs": [
        {
          "internalType": "uint256",
          "name": "proposalId",
          "type": "uint256"
        },
        {
          "internalType": "uint8",
          "name": "support",
          "type": "uint8"
        },
        {
          "internalType": "string",
          "name": "reason",
          "type": "string"
        },
        {
          "internalType": "bytes",
          "name": "params",
          "type": "bytes"
        },
        {
          "internalType": "uint8",
          "name": "v",
          "type": "uint8"
        },
        {
          "internalType": "bytes32",
          "name": "r",
          "type": "bytes32"
        },
        {
          "internalType": "bytes32",
          "name": "s",
          "type": "bytes32"
        }
      ],
      "name": "castVoteWithReasonAndParamsBySig",
      "outputs": [
        {
          "internalType": "uint256",
          "name": "",
          "type": "uint256"
        }
      ],
      "stateMutability": "nonpayable",
      "type": "function"
    },
    {
      "inputs": [
        {
          "internalType": "address[]",
          "name": "targets",
          "type": "address[]"
        },
        {
          "internalType": "uint256[]",
          "name": "values",
          "type": "uint256[]"
        },
        {
          "internalType": "bytes[]",
          "name": "calldatas",
          "type": "bytes[]"
        },
        {
          "internalType": "bytes32",
          "name": "descriptionHash",
          "type": "bytes32"
        }
      ],
      "name": "execute",
      "outputs": [
        {
          "internalType": "uint256",
          "name": "",
          "type": "uint256"
        }
      ],
      "stateMutability": "payable",
      "type": "function"
    },
    {
      "inputs": [
        {
          "internalType": "address",
          "name": "account",
          "type": "address"
        },
        {
          "internalType": "uint256",
          "name": "blockNumber",
          "type": "uint256"
        }
      ],
      "name": "getVotes",
      "outputs": [
        {
          "internalType": "uint256",
          "name": "",
          "type": "uint256"
        }
      ],
      "stateMutability": "view",
      "type": "function"
    },
    {
      "inputs": [
        {
          "internalType": "address",
          "name": "account",
          "type": "address"
        },
        {
          "internalType": "uint256",
          "name": "blockNumber",
          "type": "uint256"
        },
        {
          "internalType": "bytes",
          "name": "params",
          "type": "bytes"
        }
      ],
      "name": "getVotesWithParams",
      "outputs": [
        {
          "internalType": "uint256",
          "name": "",
          "type": "uint256"
        }
      ],
      "stateMutability": "view",
      "type": "function"
    },
    {
      "inputs": [
        {
          "internalType": "uint256",
          "name": "proposalId",
          "type": "uint256"
        },
        {
          "internalType": "address",
          "name": "account",
          "type": "address"
        }
      ],
      "name": "hasVoted",
      "outputs": [
        {
          "internalType": "bool",
          "name": "",
          "type": "bool"
        }
      ],
      "stateMutability": "view",
      "type": "function"
    },
    {
      "inputs": [
        {
          "internalType": "address[]",
          "name": "targets",
          "type": "address[]"
        },
        {
          "internalType": "uint256[]",
          "name": "values",
          "type": "uint256[]"
        },
        {
          "internalType": "bytes[]",
          "name": "calldatas",
          "type": "bytes[]"
        },
        {
          "internalType": "bytes32",
          "name": "descriptionHash",
          "type": "bytes32"
        }
      ],
      "name": "hashProposal",
      "outputs": [
        {
          "internalType": "uint256",
          "name": "",
          "type": "uint256"
        }
      ],
      "stateMutability": "pure",
      "type": "function"
    },
    {
      "inputs": [],
      "name": "name",
      "outputs": [
        {
          "internalType": "string",
          "name": "",
          "type": "string"
        }
      ],
      "stateMutability": "view",
      "type": "function"
    },
    {
      "inputs": [
        {
          "internalType": "address",
          "name": "",
          "type": "address"
        },
        {
          "internalType": "address",
          "name": "",
          "type": "address"
        },
        {
          "internalType": "uint256[]",
          "name": "",
          "type": "uint256[]"
        },
        {
          "internalType": "uint256[]",
          "name": "",
          "type": "uint256[]"
        },
        {
          "internalType": "bytes",
          "name": "",
          "type": "bytes"
        }
      ],
      "name": "onERC1155BatchReceived",
      "outputs": [
        {
          "internalType": "bytes4",
          "name": "",
          "type": "bytes4"
        }
      ],
      "stateMutability": "nonpayable",
      "type": "function"
    },
    {
      "inputs": [
        {
          "internalType": "address",
          "name": "",
          "type": "address"
        },
        {
          "internalType": "address",
          "name": "",
          "type": "address"
        },
        {
          "internalType": "uint256",
          "name": "",
          "type": "uint256"
        },
        {
          "internalType": "uint256",
          "name": "",
          "type": "uint256"
        },
        {
          "internalType": "bytes",
          "name": "",
          "type": "bytes"
        }
      ],
      "name": "onERC1155Received",
      "outputs": [
        {
          "internalType": "bytes4",
          "name": "",
          "type": "bytes4"
        }
      ],
      "stateMutability": "nonpayable",
      "type": "function"
    },
    {
      "inputs": [
        {
          "internalType": "address",
          "name": "",
          "type": "address"
        },
        {
          "internalType": "address",
          "name": "",
          "type": "address"
        },
        {
          "internalType": "uint256",
          "name": "",
          "type": "uint256"
        },
        {
          "internalType": "bytes",
          "name": "",
          "type": "bytes"
        }
      ],
      "name": "onERC721Received",
      "outputs": [
        {
          "internalType": "bytes4",
          "name": "",
          "type": "bytes4"
        }
      ],
      "stateMutability": "nonpayable",
      "type": "function"
    },
    {
      "inputs": [
        {
          "internalType": "uint256",
          "name": "proposalId",
          "type": "uint256"
        }
      ],
      "name": "proposalDeadline",
      "outputs": [
        {
          "internalType": "uint256",
          "name": "",
          "type": "uint256"
        }
      ],
      "stateMutability": "view",
      "type": "function"
    },
    {
      "inputs": [
        {
          "internalType": "uint256",
          "name": "proposalId",
          "type": "uint256"
        }
      ],
      "name": "proposalEta",
      "outputs": [
        {
          "internalType": "uint256",
          "name": "",
          "type": "uint256"
        }
      ],
      "stateMutability": "view",
      "type": "function"
    },
    {
      "inputs": [
        {
          "internalType": "uint256",
          "name": "proposalId",
          "type": "uint256"
        }
      ],
      "name": "proposalSnapshot",
      "outputs": [
        {
          "internalType": "uint256",
          "name": "",
          "type": "uint256"
        }
      ],
      "stateMutability": "view",
      "type": "function"
    },
    {
      "inputs": [
        {
          "internalType": "uint256",
          "name": "proposalId",
          "type": "uint256"
        }
      ],
      "name": "proposalVotes",
      "outputs": [
        {
          "internalType": "uint256",
          "name": "againstVotes",
          "type": "uint256"
        },
        {
          "internalType": "uint256",
          "name": "forVotes",
          "type": "uint256"
        },
        {
          "internalType": "uint256",
          "name": "abstainVotes",
          "type": "uint256"
        }
      ],
      "stateMutability": "view",
      "type": "function"
    },
    {
      "inputs": [
        {
          "internalType": "address[]",
          "name": "targets",
          "type": "address[]"
        },
        {
          "internalType": "uint256[]",
          "name": "values",
          "type": "uint256[]"
        },
        {
          "internalType": "bytes[]",
          "name": "calldatas",
          "type": "bytes[]"
        },
        {
          "internalType": "bytes32",
          "name": "descriptionHash",
          "type": "bytes32"
        }
      ],
      "name": "queue",
      "outputs": [
        {
          "internalType": "uint256",
          "name": "",
          "type": "uint256"
        }
      ],
      "stateMutability": "nonpayable",
      "type": "function"
    },
    {
      "inputs": [],
      "name": "quorumDenominator",
      "outputs": [
        {
          "internalType": "uint256",
          "name": "",
          "type": "uint256"
        }
      ],
      "stateMutability": "view",
      "type": "function"
    },
    {
      "inputs": [],
      "name": "quorumNumerator",
      "outputs": [
        {
          "internalType": "uint256",
          "name": "",
          "type": "uint256"
        }
      ],
      "stateMutability": "view",
      "type": "function"
    },
    {
      "inputs": [
        {
          "internalType": "address",
          "name": "target",
          "type": "address"
        },
        {
          "internalType": "uint256",
          "name": "value",
          "type": "uint256"
        },
        {
          "internalType": "bytes",
          "name": "data",
          "type": "bytes"
        }
      ],
      "name": "relay",
      "outputs": [],
      "stateMutability": "nonpayable",
      "type": "function"
    },
    {
      "inputs": [],
      "name": "timelock",
      "outputs": [
        {
          "internalType": "address",
          "name": "",
          "type": "address"
        }
      ],
      "stateMutability": "view",
      "type": "function"
    },
    {
      "inputs": [],
      "name": "token",
      "outputs": [
        {
          "internalType": "contract IVotes",
          "name": "",
          "type": "address"
        }
      ],
      "stateMutability": "view",
      "type": "function"
    },
    {
      "inputs": [
        {
          "internalType": "uint256",
          "name": "newQuorumNumerator",
          "type": "uint256"
        }
      ],
      "name": "updateQuorumNumerator",
      "outputs": [],
      "stateMutability": "nonpayable",
      "type": "function"
    },
    {
      "inputs": [
        {
          "internalType": "contract TimelockController",
          "name": "newTimelock",
          "type": "address"
        }
      ],
      "name": "updateTimelock",
      "outputs": [],
      "stateMutability": "nonpayable",
      "type": "function"
    },
    {
      "inputs": [],
      "name": "version",
      "outputs": [
        {
          "internalType": "string",
          "name": "",
          "type": "string"
        }
      ],
      "stateMutability": "view",
      "type": "function"
    },
    {
      "stateMutability": "payable",
      "type": "receive"
    },
    {
      "inputs": [],
      "name": "votingDelay",
      "outputs": [
        {
          "internalType": "uint256",
          "name": "",
          "type": "uint256"
        }
      ],
      "stateMutability": "pure",
      "type": "function"
    },
    {
      "inputs": [],
      "name": "votingPeriod",
      "outputs": [
        {
          "internalType": "uint256",
          "name": "",
          "type": "uint256"
        }
      ],
      "stateMutability": "pure",
      "type": "function"
    },
    {
      "inputs": [],
      "name": "proposalThreshold",
      "outputs": [
        {
          "internalType": "uint256",
          "name": "",
          "type": "uint256"
        }
      ],
      "stateMutability": "pure",
      "type": "function"
    },
    {
      "inputs": [
        {
          "internalType": "uint256",
          "name": "blockNumber",
          "type": "uint256"
        }
      ],
      "name": "quorum",
      "outputs": [
        {
          "internalType": "uint256",
          "name": "",
          "type": "uint256"
        }
      ],
      "stateMutability": "view",
      "type": "function"
    },
    {
      "inputs": [
        {
          "internalType": "uint256",
          "name": "proposalId",
          "type": "uint256"
        }
      ],
      "name": "state",
      "outputs": [
        {
          "internalType": "enum IGovernor.ProposalState",
          "name": "",
          "type": "uint8"
        }
      ],
      "stateMutability": "view",
      "type": "function"
    },
    {
      "inputs": [
        {
          "internalType": "address[]",
          "name": "targets",
          "type": "address[]"
        },
        {
          "internalType": "uint256[]",
          "name": "values",
          "type": "uint256[]"
        },
        {
          "internalType": "bytes[]",
          "name": "calldatas",
          "type": "bytes[]"
        },
        {
          "internalType": "string",
          "name": "description",
          "type": "string"
        }
      ],
      "name": "propose",
      "outputs": [
        {
          "internalType": "uint256",
          "name": "",
          "type": "uint256"
        }
      ],
      "stateMutability": "nonpayable",
      "type": "function"
    },
    {
      "inputs": [
        {
          "internalType": "bytes4",
          "name": "interfaceId",
          "type": "bytes4"
        }
      ],
      "name": "supportsInterface",
      "outputs": [
        {
          "internalType": "bool",
          "name": "",
          "type": "bool"
        }
      ],
      "stateMutability": "view",
      "type": "function"
    }
  ],
  "bytecode": "0x6101606040523480156200001257600080fd5b506040516200377238038062003772833981016040819052620000359162000353565b600482826040518060400160405280600a81526020016926bca3b7bb32b93737b960b11b815250806200006d6200014360201b60201c565b815160208084019190912082518383012060e08290526101008190524660a0818152604080517f8b73c3c69bb8fe3d512ecc4cf759cc79239f7b179b0ffacaa9a75d522b39400f81880181905281830187905260608201869052608082019490945230818401528151808203909301835260c00190528051940193909320919290916080523060c052610120525050825162000113925060009150602084019062000294565b50620001219050816200015e565b506001600160a01b0316610140526200013a81620001c7565b505050620003ce565b6040805180820190915260018152603160f81b602082015290565b600454604080516001600160a01b03928316815291831660208301527f08f74ea46ef7894f65eabfb5e6e695de773a000b47c529ab559178069b226401910160405180910390a1600480546001600160a01b0319166001600160a01b0392909216919091179055565b60648111156200024f5760405162461bcd60e51b815260206004820152604360248201527f476f7665726e6f72566f74657351756f72756d4672616374696f6e3a2071756f60448201527f72756d4e756d657261746f72206f7665722071756f72756d44656e6f6d696e616064820152623a37b960e91b608482015260a40160405180910390fd5b600680549082905560408051828152602081018490527f0553476bf02ef2726e8ce5ced78d63e26e602e4a2257b1f559418e24b4633997910160405180910390a15050565b828054620002a29062000392565b90600052602060002090601f016020900481019282620002c6576000855562000311565b82601f10620002e157805160ff191683800117855562000311565b8280016001018555821562000311579182015b8281111562000311578251825591602001919060010190620002f4565b506200031f92915062000323565b5090565b5b808211156200031f576000815560010162000324565b6001600160a01b03811681146200035057600080fd5b50565b600080604083850312156200036757600080fd5b825162000374816200033a565b602084015190925062000387816200033a565b809150509250929050565b600181811c90821680620003a757607f821691505b602082108103620003c857634e487b7160e01b600052602260045260246000fd5b50919050565b60805160a05160c05160e05161010051610120516101405161333b62000437600039600081816107280152818161162c0152611745015260006118c101526000611910015260006118eb015260006118440152600061186e01526000611898015261333b6000f3fe6080604052600436106101ae5760003560e01c806301ffc9a7146101d657806302a251a31461020b578063034201811461022a57806306f3f9e61461024a57806306fdde031461026a578063150b7a021461028c578063160cbed7146102c55780632656227d146102e55780632d63f693146102f85780632fe3e261146103185780633932abb11461033a5780633bccf4fd1461034e5780633e4f49e61461036e578063438596321461039b578063544ffc9c146103e557806354fd4d501461043a57806356781388146104645780635f398a14146104845780637b3c71d3146104a45780637d5e81e2146104c457806397c3d334146104e45780639a802a6d146104f8578063a7713a7014610518578063a890c9101461052d578063ab58fb8e1461054d578063b58131b01461056d578063bc197c8114610589578063c01f9e37146105b5578063c28bc2fa146105d5578063c59057e4146105f5578063d33219b414610615578063dd4e2ba514610642578063deaaa7cc14610688578063eb9019d4146106aa578063f23a6e61146106ca578063f8ce560a146106f6578063fc0c546a1461071657600080fd5b366101d157306101bc61074a565b6001600160a01b0316146101cf57600080fd5b005b600080fd5b3480156101e257600080fd5b506101f66101f1366004612406565b610759565b60405190151581526020015b60405180910390f35b34801561021757600080fd5b5061b2fa5b604051908152602001610202565b34801561023657600080fd5b5061021c61024536600461254b565b61076a565b34801561025657600080fd5b506101cf6102653660046125f1565b610850565b34801561027657600080fd5b5061027f6108e3565b6040516102029190612666565b34801561029857600080fd5b506102ac6102a736600461268e565b610975565b6040516001600160e01b03199091168152602001610202565b3480156102d157600080fd5b5061021c6102e036600461286a565b610986565b61021c6102f336600461286a565b610b90565b34801561030457600080fd5b5061021c6103133660046125f1565b610c7d565b34801561032457600080fd5b5061021c6000805160206132bd83398151915281565b34801561034657600080fd5b50600161021c565b34801561035a57600080fd5b5061021c6103693660046128f9565b610cb4565b34801561037a57600080fd5b5061038e6103893660046125f1565b610d18565b604051610202919061295d565b3480156103a757600080fd5b506101f66103b6366004612985565b60008281526007602090815260408083206001600160a01b038516845260030190915290205460ff1692915050565b3480156103f157600080fd5b5061041f6104003660046125f1565b6000908152600760205260409020805460018201546002909201549092565b60408051938452602084019290925290820152606001610202565b34801561044657600080fd5b506040805180820190915260018152603160f81b602082015261027f565b34801561047057600080fd5b5061021c61047f3660046129b5565b610d23565b34801561049057600080fd5b5061021c61049f3660046129e1565b610d44565b3480156104b057600080fd5b5061021c6104bf366004612a64565b610d8e565b3480156104d057600080fd5b5061021c6104df366004612abd565b610de0565b3480156104f057600080fd5b50606461021c565b34801561050457600080fd5b5061021c610513366004612b71565b610df7565b34801561052457600080fd5b5060065461021c565b34801561053957600080fd5b506101cf610548366004612bc9565b610e04565b34801561055957600080fd5b5061021c6105683660046125f1565b610e8b565b34801561057957600080fd5b50683635c9adc5dea0000061021c565b34801561059557600080fd5b506102ac6105a4366004612be6565b63bc197c8160e01b95945050505050565b3480156105c157600080fd5b5061021c6105d03660046125f1565b610f20565b3480156105e157600080fd5b506101cf6105f0366004612c79565b610f4f565b34801561060157600080fd5b5061021c61061036600461286a565b611016565b34801561062157600080fd5b5061062a611050565b6040516001600160a01b039091168152602001610202565b34801561064e57600080fd5b506040805180820190915260208082527f737570706f72743d627261766f2671756f72756d3d666f722c6162737461696e9082015261027f565b34801561069457600080fd5b5061021c60008051602061329d83398151915281565b3480156106b657600080fd5b5061021c6106c5366004612cbc565b61105f565b3480156106d657600080fd5b506102ac6106e5366004612ce8565b63f23a6e6160e01b95945050505050565b34801561070257600080fd5b5061021c6107113660046125f1565b611080565b34801561072257600080fd5b5061062a7f000000000000000000000000000000000000000000000000000000000000000081565b6000610754611050565b905090565b60006107648261108b565b92915050565b6000806107fc6107f46000805160206132bd8339815191528c8c8c8c604051610794929190612d50565b60405180910390208b805190602001206040516020016107d9959493929190948552602085019390935260ff9190911660408401526060830152608082015260a00190565b604051602081830303815290604052805190602001206110b0565b8686866110fe565b90506108428a828b8b8b8080601f0160208091040260200160405190810160405280939291908181526020018383808284376000920191909152508d925061111c915050565b9a9950505050505050505050565b61085861074a565b6001600160a01b0316336001600160a01b0316146108915760405162461bcd60e51b815260040161088890612d60565b60405180910390fd5b3061089a61074a565b6001600160a01b0316146108d757600080366040516108ba929190612d50565b604051809103902090505b806108d06002611281565b036108c557505b6108e0816112e7565b50565b6060600080546108f290612d92565b80601f016020809104026020016040519081016040528092919081815260200182805461091e90612d92565b801561096b5780601f106109405761010080835404028352916020019161096b565b820191906000526020600020905b81548152906001019060200180831161094e57829003601f168201915b5050505050905090565b630a85bd0160e11b5b949350505050565b60008061099586868686611016565b905060046109a282610d18565b60078111156109b3576109b3612947565b146109d05760405162461bcd60e51b815260040161088890612dcc565b6000600460009054906101000a90046001600160a01b03166001600160a01b031663f27a0c926040518163ffffffff1660e01b8152600401602060405180830381865afa158015610a25573d6000803e3d6000fd5b505050506040513d601f19601f82011682018060405250810190610a499190612e0d565b6004805460405163b1c5f42760e01b81529293506001600160a01b03169163b1c5f42791610a82918b918b918b916000918c9101612eef565b602060405180830381865afa158015610a9f573d6000803e3d6000fd5b505050506040513d601f19601f82011682018060405250810190610ac39190612e0d565b600083815260056020526040808220929092556004805492516308f2a0bb60e41b81526001600160a01b0390931692638f2a0bb092610b0e928c928c928c9290918c918a9101612f3d565b600060405180830381600087803b158015610b2857600080fd5b505af1158015610b3c573d6000803e3d6000fd5b505050507f9a2e42fd6722813d69113e7d0079d3d940171428df7373df9c7f7617cfda2892828242610b6e9190612fab565b6040805192835260208301919091520160405180910390a15095945050505050565b600080610b9f86868686611016565b90506000610bac82610d18565b90506004816007811115610bc257610bc2612947565b1480610bdf57506005816007811115610bdd57610bdd612947565b145b610bfb5760405162461bcd60e51b815260040161088890612dcc565b600082815260016020818152604092839020600201805460ff191690921790915590518381527f712ae1383f79ac853f8d882153778e0260ef8f03b504e2866e0593e04d2b291f910160405180910390a1610c5982888888886113af565b610c668288888888611450565b610c73828888888861145d565b5095945050505050565b60008181526001602090815260408083208151928301909152546001600160401b0316908190525b6001600160401b031692915050565b6040805160008051602061329d833981519152602082015290810186905260ff851660608201526000908190610cf0906107f4906080016107d9565b9050610d0d8782886040518060200160405280600081525061148c565b979650505050505050565b6000610764826114af565b60008033905061097e8482856040518060200160405280600081525061148c565b600080339050610d0d87828888888080601f0160208091040260200160405190810160405280939291908181526020018383808284376000920191909152508a925061111c915050565b600080339050610dd686828787878080601f01602080910402602001604051908101604052809392919081815260200183838082843760009201919091525061148c92505050565b9695505050505050565b6000610dee858585856115f5565b95945050505050565b600061097e848484611603565b610e0c61074a565b6001600160a01b0316336001600160a01b031614610e3c5760405162461bcd60e51b815260040161088890612d60565b30610e4561074a565b6001600160a01b031614610e825760008036604051610e65929190612d50565b604051809103902090505b80610e7b6002611281565b03610e7057505b6108e081611699565b6004805460008381526005602052604080822054905163d45c443560e01b8152938401529182916001600160a01b03169063d45c443590602401602060405180830381865afa158015610ee2573d6000803e3d6000fd5b505050506040513d601f19601f82011682018060405250810190610f069190612e0d565b905080600114610f165780610f19565b60005b9392505050565b60008181526001602081815260408084208151928301909152909101546001600160401b031690819052610ca5565b610f5761074a565b6001600160a01b0316336001600160a01b031614610f875760405162461bcd60e51b815260040161088890612d60565b30610f9061074a565b6001600160a01b031614610fcd5760008036604051610fb0929190612d50565b604051809103902090505b80610fc66002611281565b03610fbb57505b61100f8483838080601f016020809104026020016040519081016040528093929190818152602001838380828437600092019190915250889250611702915050565b5050505050565b60008484848460405160200161102f9493929190612fc3565b60408051601f19818403018152919052805160209091012095945050505050565b6004546001600160a01b031690565b6000610f19838361107b60408051602081019091526000815290565b611603565b600061076482611728565b60006001600160e01b03198216636e665ced60e01b14806107645750610764826117cc565b60006107646110bd611837565b8360405161190160f01b6020820152602281018390526042810182905260009060620160405160208183030381529060405280519060200120905092915050565b600080600061110f8787878761195e565b91509150610c7381611a41565b600085815260016020819052604082209061113688610d18565b600781111561114757611147612947565b146111a05760405162461bcd60e51b815260206004820152602360248201527f476f7665726e6f723a20766f7465206e6f742063757272656e746c792061637460448201526269766560e81b6064820152608401610888565b604080516020810190915281546001600160401b0316908190526000906111c990889086611603565b90506111d88888888488611bf2565b835160000361122d57866001600160a01b03167fb8e138887d0aa13bab447e82de9d5c1777041ecd21ca36ba824ff1e6c07ddda489888489604051611220949392919061300e565b60405180910390a2610d0d565b866001600160a01b03167fe2babfbac5889a709b63bb7f598b324e08bc5a4fb9ec647fb3cbc9ec07eb8712898884898960405161126e959493929190613036565b60405180910390a2979650505050505050565b600061128c82611d6c565b156112aa57604051631ed9509560e11b815260040160405180910390fd5b508054600f0b6000818152600180840160205260408220805492905583546001600160801b03191692016001600160801b03169190911790915590565b606481111561136a5760405162461bcd60e51b815260206004820152604360248201527f476f7665726e6f72566f74657351756f72756d4672616374696f6e3a2071756f60448201527f72756d4e756d657261746f72206f7665722071756f72756d44656e6f6d696e616064820152623a37b960e91b608482015260a401610888565b600680549082905560408051828152602081018490527f0553476bf02ef2726e8ce5ced78d63e26e602e4a2257b1f559418e24b4633997910160405180910390a15050565b306113b861074a565b6001600160a01b03161461100f5760005b845181101561144857306001600160a01b03168582815181106113ee576113ee61307c565b60200260200101516001600160a01b031603611438576114388382815181106114195761141961307c565b6020026020010151805190602001206002611d8190919063ffffffff16565b61144181613092565b90506113c9565b505050505050565b61100f8585858585611dbd565b3061146661074a565b6001600160a01b03161461100f5761147e6002611d6c565b61100f57600060025561100f565b6000610dee858585856114aa60408051602081019091526000815290565b61111c565b6000806114bb83611e30565b905060048160078111156114d1576114d1612947565b146114dc5792915050565b600083815260056020526040902054806114f7575092915050565b60048054604051632ab0f52960e01b81529182018390526001600160a01b031690632ab0f52990602401602060405180830381865afa15801561153e573d6000803e3d6000fd5b505050506040513d601f19601f8201168201806040525081019061156291906130ab565b15611571575060079392505050565b60048054604051632c258a9f60e11b81529182018390526001600160a01b03169063584b153e90602401602060405180830381865afa1580156115b8573d6000803e3d6000fd5b505050506040513d601f19601f820116820180604052508101906115dc91906130ab565b156115eb575060059392505050565b5060029392505050565b6000610dee85858585611f3f565b604051630748d63560e31b81526001600160a01b038481166004830152602482018490526000917f000000000000000000000000000000000000000000000000000000000000000090911690633a46b1a890604401602060405180830381865afa158015611675573d6000803e3d6000fd5b505050506040513d601f19601f8201168201806040525081019061097e9190612e0d565b600454604080516001600160a01b03928316815291831660208301527f08f74ea46ef7894f65eabfb5e6e695de773a000b47c529ab559178069b226401910160405180910390a1600480546001600160a01b0319166001600160a01b0392909216919091179055565b606061097e8484846040518060600160405280602981526020016132dd602991396121d8565b60006064600654604051632394e7a360e21b8152600481018590527f00000000000000000000000000000000000000000000000000000000000000006001600160a01b031690638e539e8c90602401602060405180830381865afa158015611794573d6000803e3d6000fd5b505050506040513d601f19601f820116820180604052508101906117b89190612e0d565b6117c291906130cd565b61076491906130ec565b60006001600160e01b0319821663bf26d89760e01b14806117fd57506001600160e01b031982166379dd796f60e01b145b8061181857506001600160e01b03198216630271189760e51b145b8061076457506301ffc9a760e01b6001600160e01b0319831614610764565b6000306001600160a01b037f00000000000000000000000000000000000000000000000000000000000000001614801561189057507f000000000000000000000000000000000000000000000000000000000000000046145b156118ba57507f000000000000000000000000000000000000000000000000000000000000000090565b50604080517f00000000000000000000000000000000000000000000000000000000000000006020808301919091527f0000000000000000000000000000000000000000000000000000000000000000828401527f000000000000000000000000000000000000000000000000000000000000000060608301524660808301523060a0808401919091528351808403909101815260c0909201909252805191012090565b6000806fa2a8918ca85bafe22016d0b997e4df60600160ff1b0383111561198b5750600090506003611a38565b8460ff16601b141580156119a357508460ff16601c14155b156119b45750600090506004611a38565b6040805160008082526020820180845289905260ff881692820192909252606081018690526080810185905260019060a0016020604051602081039080840390855afa158015611a08573d6000803e3d6000fd5b5050604051601f1901519150506001600160a01b038116611a3157600060019250925050611a38565b9150600090505b94509492505050565b6000816004811115611a5557611a55612947565b03611a5d5750565b6001816004811115611a7157611a71612947565b03611ab95760405162461bcd60e51b815260206004820152601860248201527745434453413a20696e76616c6964207369676e617475726560401b6044820152606401610888565b6002816004811115611acd57611acd612947565b03611b1a5760405162461bcd60e51b815260206004820152601f60248201527f45434453413a20696e76616c6964207369676e6174757265206c656e677468006044820152606401610888565b6003816004811115611b2e57611b2e612947565b03611b865760405162461bcd60e51b815260206004820152602260248201527f45434453413a20696e76616c6964207369676e6174757265202773272076616c604482015261756560f01b6064820152608401610888565b6004816004811115611b9a57611b9a612947565b036108e05760405162461bcd60e51b815260206004820152602260248201527f45434453413a20696e76616c6964207369676e6174757265202776272076616c604482015261756560f01b6064820152608401610888565b60008581526007602090815260408083206001600160a01b0388168452600381019092529091205460ff1615611c7a5760405162461bcd60e51b815260206004820152602760248201527f476f7665726e6f72566f74696e6753696d706c653a20766f746520616c726561604482015266191e4818d85cdd60ca1b6064820152608401610888565b6001600160a01b03851660009081526003820160205260409020805460ff1916600117905560ff8416611cc65782816000016000828254611cbb9190612fab565b909155506114489050565b60001960ff851601611ce65782816001016000828254611cbb9190612fab565b60011960ff851601611d065782816002016000828254611cbb9190612fab565b60405162461bcd60e51b815260206004820152603560248201527f476f7665726e6f72566f74696e6753696d706c653a20696e76616c69642076616044820152746c756520666f7220656e756d20566f74655479706560581b6064820152608401610888565b54600f81810b600160801b909204900b131590565b8154600160801b90819004600f0b6000818152600180860160205260409091209390935583546001600160801b03908116939091011602179055565b6004805460405163e38335e560e01b81526001600160a01b039091169163e38335e5913491611df7918991899189916000918a9101612eef565b6000604051808303818588803b158015611e1057600080fd5b505af1158015611e24573d6000803e3d6000fd5b50505050505050505050565b6000818152600160205260408120600281015460ff1615611e545750600792915050565b6002810154610100900460ff1615611e6f5750600292915050565b6000611e7a84610c7d565b905080600003611ecc5760405162461bcd60e51b815260206004820152601d60248201527f476f7665726e6f723a20756e6b6e6f776e2070726f706f73616c2069640000006044820152606401610888565b438110611edd575060009392505050565b6000611ee885610f20565b9050438110611efc57506001949350505050565b611f05856122a8565b8015611f24575060008581526007602052604090208054600190910154115b15611f3457506004949350505050565b506003949350505050565b6000683635c9adc5dea00000611f5a336106c560014361310e565b1015611fc25760405162461bcd60e51b815260206004820152603160248201527f476f7665726e6f723a2070726f706f73657220766f7465732062656c6f7720706044820152701c9bdc1bdcd85b081d1a1c995cda1bdb19607a1b6064820152608401610888565b6000611fd78686868680519060200120611016565b90508451865114611ffa5760405162461bcd60e51b815260040161088890613125565b835186511461201b5760405162461bcd60e51b815260040161088890613125565b60008651116120675760405162461bcd60e51b815260206004820152601860248201527711dbdd995c9b9bdc8e88195b5c1d1e481c1c9bdc1bdcd85b60421b6044820152606401610888565b600081815260016020908152604091829020825191820190925281546001600160401b031690819052156120e75760405162461bcd60e51b815260206004820152602160248201527f476f7665726e6f723a2070726f706f73616c20616c72656164792065786973746044820152607360f81b6064820152608401610888565b60006120f360016122df565b6120fc436122df565b6121069190613166565b9050600061211561b2fa6122df565b61211f9083613166565b905061212b838361234b565b612138600184018261234b565b7f7d84a6263ae0d98d3329bd7b46bb4e8d6f98cd35a7adb45c274c8b7fd5ebd5e084338b8b8d516001600160401b038111156121765761217661248e565b6040519080825280602002602001820160405280156121a957816020015b60608152602001906001900390816121945790505b508c88888e6040516121c399989796959493929190613191565b60405180910390a15091979650505050505050565b6060824710156122395760405162461bcd60e51b815260206004820152602660248201527f416464726573733a20696e73756666696369656e742062616c616e636520666f6044820152651c8818d85b1b60d21b6064820152608401610888565b600080866001600160a01b031685876040516122559190613280565b60006040518083038185875af1925050503d8060008114612292576040519150601f19603f3d011682016040523d82523d6000602084013e612297565b606091505b5091509150610d0d87838387612368565b6000818152600760205260408120600281015460018201546122ca9190612fab565b6122d661071185610c7d565b11159392505050565b60006001600160401b038211156123475760405162461bcd60e51b815260206004820152602660248201527f53616665436173743a2076616c756520646f65736e27742066697420696e203660448201526534206269747360d01b6064820152608401610888565b5090565b81546001600160401b0319166001600160401b0391909116179055565b606083156123d75782516000036123d0576001600160a01b0385163b6123d05760405162461bcd60e51b815260206004820152601d60248201527f416464726573733a2063616c6c20746f206e6f6e2d636f6e74726163740000006044820152606401610888565b508161097e565b61097e83838151156123ec5781518083602001fd5b8060405162461bcd60e51b81526004016108889190612666565b60006020828403121561241857600080fd5b81356001600160e01b031981168114610f1957600080fd5b803560ff8116811461244157600080fd5b919050565b60008083601f84011261245857600080fd5b5081356001600160401b0381111561246f57600080fd5b60208301915083602082850101111561248757600080fd5b9250929050565b634e487b7160e01b600052604160045260246000fd5b604051601f8201601f191681016001600160401b03811182821017156124cc576124cc61248e565b604052919050565b60006001600160401b038311156124ed576124ed61248e565b612500601f8401601f19166020016124a4565b905082815283838301111561251457600080fd5b828260208301376000602084830101529392505050565b600082601f83011261253c57600080fd5b610f19838335602085016124d4565b60008060008060008060008060e0898b03121561256757600080fd5b8835975061257760208a01612430565b965060408901356001600160401b038082111561259357600080fd5b61259f8c838d01612446565b909850965060608b01359150808211156125b857600080fd5b506125c58b828c0161252b565b9450506125d460808a01612430565b925060a0890135915060c089013590509295985092959890939650565b60006020828403121561260357600080fd5b5035919050565b60005b8381101561262557818101518382015260200161260d565b83811115612634576000848401525b50505050565b6000815180845261265281602086016020860161260a565b601f01601f19169290920160200192915050565b602081526000610f19602083018461263a565b6001600160a01b03811681146108e057600080fd5b600080600080608085870312156126a457600080fd5b84356126af81612679565b935060208501356126bf81612679565b92506040850135915060608501356001600160401b038111156126e157600080fd5b6126ed8782880161252b565b91505092959194509250565b60006001600160401b038211156127125761271261248e565b5060051b60200190565b600082601f83011261272d57600080fd5b8135602061274261273d836126f9565b6124a4565b82815260059290921b8401810191818101908684111561276157600080fd5b8286015b8481101561278557803561277881612679565b8352918301918301612765565b509695505050505050565b600082601f8301126127a157600080fd5b813560206127b161273d836126f9565b82815260059290921b840181019181810190868411156127d057600080fd5b8286015b8481101561278557803583529183019183016127d4565b600082601f8301126127fc57600080fd5b8135602061280c61273d836126f9565b82815260059290921b8401810191818101908684111561282b57600080fd5b8286015b848110156127855780356001600160401b0381111561284e5760008081fd5b61285c8986838b010161252b565b84525091830191830161282f565b6000806000806080858703121561288057600080fd5b84356001600160401b038082111561289757600080fd5b6128a38883890161271c565b955060208701359150808211156128b957600080fd5b6128c588838901612790565b945060408701359150808211156128db57600080fd5b506128e8878288016127eb565b949793965093946060013593505050565b600080600080600060a0868803121561291157600080fd5b8535945061292160208701612430565b935061292f60408701612430565b94979396509394606081013594506080013592915050565b634e487b7160e01b600052602160045260246000fd5b602081016008831061297f57634e487b7160e01b600052602160045260246000fd5b91905290565b6000806040838503121561299857600080fd5b8235915060208301356129aa81612679565b809150509250929050565b600080604083850312156129c857600080fd5b823591506129d860208401612430565b90509250929050565b6000806000806000608086880312156129f957600080fd5b85359450612a0960208701612430565b935060408601356001600160401b0380821115612a2557600080fd5b612a3189838a01612446565b90955093506060880135915080821115612a4a57600080fd5b50612a578882890161252b565b9150509295509295909350565b60008060008060608587031215612a7a57600080fd5b84359350612a8a60208601612430565b925060408501356001600160401b03811115612aa557600080fd5b612ab187828801612446565b95989497509550505050565b60008060008060808587031215612ad357600080fd5b84356001600160401b0380821115612aea57600080fd5b612af68883890161271c565b95506020870135915080821115612b0c57600080fd5b612b1888838901612790565b94506040870135915080821115612b2e57600080fd5b612b3a888389016127eb565b93506060870135915080821115612b5057600080fd5b508501601f81018713612b6257600080fd5b6126ed878235602084016124d4565b600080600060608486031215612b8657600080fd5b8335612b9181612679565b92506020840135915060408401356001600160401b03811115612bb357600080fd5b612bbf8682870161252b565b9150509250925092565b600060208284031215612bdb57600080fd5b8135610f1981612679565b600080600080600060a08688031215612bfe57600080fd5b8535612c0981612679565b94506020860135612c1981612679565b935060408601356001600160401b0380821115612c3557600080fd5b612c4189838a01612790565b94506060880135915080821115612c5757600080fd5b612c6389838a01612790565b93506080880135915080821115612a4a57600080fd5b60008060008060608587031215612c8f57600080fd5b8435612c9a81612679565b93506020850135925060408501356001600160401b03811115612aa557600080fd5b60008060408385031215612ccf57600080fd5b8235612cda81612679565b946020939093013593505050565b600080600080600060a08688031215612d0057600080fd5b8535612d0b81612679565b94506020860135612d1b81612679565b9350604086013592506060860135915060808601356001600160401b03811115612d4457600080fd5b612a578882890161252b565b8183823760009101908152919050565b602080825260189082015277476f7665726e6f723a206f6e6c79476f7665726e616e636560401b604082015260600190565b600181811c90821680612da657607f821691505b602082108103612dc657634e487b7160e01b600052602260045260246000fd5b50919050565b60208082526021908201527f476f7665726e6f723a2070726f706f73616c206e6f74207375636365737366756040820152601b60fa1b606082015260800190565b600060208284031215612e1f57600080fd5b5051919050565b600081518084526020808501945080840160005b83811015612e5f5781516001600160a01b031687529582019590820190600101612e3a565b509495945050505050565b600081518084526020808501945080840160005b83811015612e5f57815187529582019590820190600101612e7e565b600081518084526020808501808196508360051b8101915082860160005b85811015612ee2578284038952612ed084835161263a565b98850198935090840190600101612eb8565b5091979650505050505050565b60a081526000612f0260a0830188612e26565b8281036020840152612f148188612e6a565b90508281036040840152612f288187612e9a565b60608401959095525050608001529392505050565b60c081526000612f5060c0830189612e26565b8281036020840152612f628189612e6a565b90508281036040840152612f768188612e9a565b60608401969096525050608081019290925260a0909101529392505050565b634e487b7160e01b600052601160045260246000fd5b60008219821115612fbe57612fbe612f95565b500190565b608081526000612fd66080830187612e26565b8281036020840152612fe88187612e6a565b90508281036040840152612ffc8186612e9a565b91505082606083015295945050505050565b84815260ff84166020820152826040820152608060608201526000610dd6608083018461263a565b85815260ff8516602082015283604082015260a06060820152600061305e60a083018561263a565b8281036080840152613070818561263a565b98975050505050505050565b634e487b7160e01b600052603260045260246000fd5b6000600182016130a4576130a4612f95565b5060010190565b6000602082840312156130bd57600080fd5b81518015158114610f1957600080fd5b60008160001904831182151516156130e7576130e7612f95565b500290565b60008261310957634e487b7160e01b600052601260045260246000fd5b500490565b60008282101561312057613120612f95565b500390565b60208082526021908201527f476f7665726e6f723a20696e76616c69642070726f706f73616c206c656e67746040820152600d60fb1b606082015260800190565b60006001600160401b0382811684821680830382111561318857613188612f95565b01949350505050565b60006101208b8352602060018060a01b038c16818501528160408501526131ba8285018c612e26565b915083820360608501526131ce828b612e6a565b915083820360808501528189518084528284019150828160051b850101838c0160005b8381101561321f57601f1987840301855261320d83835161263a565b948601949250908501906001016131f1565b505086810360a0880152613233818c612e9a565b94505050505061324e60c08401876001600160401b03169052565b6001600160401b03851660e0840152828103610100840152613270818561263a565b9c9b505050505050505050505050565b6000825161329281846020870161260a565b919091019291505056fe150214d74d59b7d1e90c73fc22ef3d991dd0a76b046543d4d80ab92d2a50328fb3b3f3b703cd84ce352197dcff232b1b5d3cfb2025ce47cf04742d0651f1af88416464726573733a206c6f772d6c6576656c2063616c6c20776974682076616c7565206661696c6564a264697066735822122028b055e9d5e629a1b5a9dfbbd51269efc5ca140e2b78a1b2a89c468cf794c64964736f6c634300080e0033",
  "immutableReferences": {
    "7117": [
      {
        "length": 32,
        "start": 1832
      },
      {
        "length": 32,
        "start": 5676
      },
      {
        "length": 32,
        "start": 5957
      }
    ],
    "33049": [
      {
        "length": 32,
        "start": 6296
      }
    ],
    "33051": [
      {
        "length": 32,
        "start": 6254
      }
    ],
    "33053": [
      {
        "length": 32,
        "start": 6212
      }
    ],
    "33055": [
      {
        "length": 32,
        "start": 6379
      }
    ],
    "33057": [
      {
        "length": 32,
        "start": 6416
      }
    ],
    "33059": [
      {
        "length": 32,
        "start": 6337
      }
    ]
  },
  "source": "// SPDX-License-Identifier: MIT\r\npragma solidity ^0.8.2;\r\n\r\nimport \"../../governance/Governor.sol\";\r\nimport \"../../governance/extensions/GovernorProposalThreshold.sol\";\r\nimport \"../../governance/extensions/GovernorCountingSimple.sol\";\r\nimport \"../../governance/extensions/GovernorVotes.sol\";\r\nimport \"../../governance/extensions/GovernorVotesQuorumFraction.sol\";\r\nimport \"../../governance/extensions/GovernorTimelockControl.sol\";\r\n\r\ncontract MyGovernor2 is\r\n    Governor,\r\n    GovernorTimelockControl,\r\n    GovernorProposalThreshold,\r\n    GovernorVotes,\r\n    GovernorVotesQuorumFraction,\r\n    GovernorCountingSimple\r\n{\r\n    constructor(IVotes _token, TimelockController _timelock)\r\n        Governor(\"MyGovernor\")\r\n        GovernorVotes(_token)\r\n        GovernorVotesQuorumFraction(4)\r\n        GovernorTimelockControl(_timelock)\r\n    {}\r\n\r\n    function votingDelay() public pure override returns (uint256) {\r\n        return 1; // 1 block\r\n    }\r\n\r\n    function votingPeriod() public pure override returns (uint256) {\r\n        return 45818; // 1 week\r\n    }\r\n\r\n    function proposalThreshold() public pure override returns (uint256) {\r\n        return 1000e18;\r\n    }\r\n\r\n    // The following functions are overrides required by Solidity.\r\n\r\n    function quorum(uint256 blockNumber)\r\n        public\r\n        view\r\n        override(IGovernor, GovernorVotesQuorumFraction)\r\n        returns (uint256)\r\n    {\r\n        return super.quorum(blockNumber);\r\n    }\r\n\r\n    function state(uint256 proposalId) public view override(Governor, GovernorTimelockControl) returns (ProposalState) {\r\n        return super.state(proposalId);\r\n    }\r\n\r\n    function propose(\r\n        address[] memory targets,\r\n        uint256[] memory values,\r\n        bytes[] memory calldatas,\r\n        string memory description\r\n    ) public override(Governor, GovernorProposalThreshold, IGovernor) returns (uint256) {\r\n        return super.propose(targets, values, calldatas, description);\r\n    }\r\n\r\n    function _execute(\r\n        uint256 proposalId,\r\n        address[] memory targets,\r\n        uint256[] memory values,\r\n        bytes[] memory calldatas,\r\n        bytes32 descriptionHash\r\n    ) internal override(Governor, GovernorTimelockControl) {\r\n        super._execute(proposalId, targets, values, calldatas, descriptionHash);\r\n    }\r\n\r\n    function _cancel(\r\n        address[] memory targets,\r\n        uint256[] memory values,\r\n        bytes[] memory calldatas,\r\n        bytes32 descriptionHash\r\n    ) internal override(Governor, GovernorTimelockControl) returns (uint256) {\r\n        return super._cancel(targets, values, calldatas, descriptionHash);\r\n    }\r\n\r\n    function _executor() internal view override(Governor, GovernorTimelockControl) returns (address) {\r\n        return super._executor();\r\n    }\r\n\r\n    function supportsInterface(bytes4 interfaceId)\r\n        public\r\n        view\r\n        override(Governor, GovernorTimelockControl)\r\n        returns (bool)\r\n    {\r\n        return super.supportsInterface(interfaceId);\r\n    }\r\n}\r\n",
  "sourcePath": "D:\\work\\www\\yopu_dapp_nft\\contracts\\lib\\openzeppelin\\contracts\\mocks\\wizard\\MyGovernor2.sol",
  "compiler": {
    "name": "solc",
    "version": "0.8.14+commit.80d49f37.Emscripten.clang"
  },
  "schemaVersion": "3.4.7",
  "updatedAt": "2022-06-28T15:05:48.397Z",
  "devdoc": {
    "errors": {
      "Empty()": [
        {
          "details": "An operation (e.g. {front}) couldn't be completed due to the queue being empty."
        }
      ]
    },
    "kind": "dev",
    "methods": {
      "COUNTING_MODE()": {
        "details": "See {IGovernor-COUNTING_MODE}."
      },
      "castVote(uint256,uint8)": {
        "details": "See {IGovernor-castVote}."
      },
      "castVoteBySig(uint256,uint8,uint8,bytes32,bytes32)": {
        "details": "See {IGovernor-castVoteBySig}."
      },
      "castVoteWithReason(uint256,uint8,string)": {
        "details": "See {IGovernor-castVoteWithReason}."
      },
      "castVoteWithReasonAndParams(uint256,uint8,string,bytes)": {
        "details": "See {IGovernor-castVoteWithReasonAndParams}."
      },
      "castVoteWithReasonAndParamsBySig(uint256,uint8,string,bytes,uint8,bytes32,bytes32)": {
        "details": "See {IGovernor-castVoteWithReasonAndParamsBySig}."
      },
      "execute(address[],uint256[],bytes[],bytes32)": {
        "details": "See {IGovernor-execute}."
      },
      "getVotes(address,uint256)": {
        "details": "See {IGovernor-getVotes}."
      },
      "getVotesWithParams(address,uint256,bytes)": {
        "details": "See {IGovernor-getVotesWithParams}."
      },
      "hasVoted(uint256,address)": {
        "details": "See {IGovernor-hasVoted}."
      },
      "hashProposal(address[],uint256[],bytes[],bytes32)": {
        "details": "See {IGovernor-hashProposal}. The proposal id is produced by hashing the RLC encoded `targets` array, the `values` array, the `calldatas` array and the descriptionHash (bytes32 which itself is the keccak256 hash of the description string). This proposal id can be produced from the proposal data which is part of the {ProposalCreated} event. It can even be computed in advance, before the proposal is submitted. Note that the chainId and the governor address are not part of the proposal id computation. Consequently, the same proposal (with same operation and same description) will have the same id if submitted on multiple governors across multiple networks. This also means that in order to execute the same operation twice (on the same governor) the proposer will have to change the description in order to avoid proposal id conflicts."
      },
      "name()": {
        "details": "See {IGovernor-name}."
      },
      "onERC1155BatchReceived(address,address,uint256[],uint256[],bytes)": {
        "details": "See {IERC1155Receiver-onERC1155BatchReceived}."
      },
      "onERC1155Received(address,address,uint256,uint256,bytes)": {
        "details": "See {IERC1155Receiver-onERC1155Received}."
      },
      "onERC721Received(address,address,uint256,bytes)": {
        "details": "See {IERC721Receiver-onERC721Received}."
      },
      "proposalDeadline(uint256)": {
        "details": "See {IGovernor-proposalDeadline}."
      },
      "proposalEta(uint256)": {
        "details": "Public accessor to check the eta of a queued proposal"
      },
      "proposalSnapshot(uint256)": {
        "details": "See {IGovernor-proposalSnapshot}."
      },
      "proposalThreshold()": {
        "details": "Part of the Governor Bravo's interface: _\"The number of votes required in order for a voter to become a proposer\"_."
      },
      "proposalVotes(uint256)": {
        "details": "Accessor to the internal vote counts."
      },
      "queue(address[],uint256[],bytes[],bytes32)": {
        "details": "Function to queue a proposal to the timelock."
      },
      "quorumDenominator()": {
        "details": "Returns the quorum denominator. Defaults to 100, but may be overridden."
      },
      "quorumNumerator()": {
        "details": "Returns the current quorum numerator. See {quorumDenominator}."
      },
      "relay(address,uint256,bytes)": {
        "details": "Relays a transaction or function call to an arbitrary target. In cases where the governance executor is some contract other than the governor itself, like when using a timelock, this function can be invoked in a governance proposal to recover tokens or Ether that was sent to the governor contract by mistake. Note that if the executor is simply the governor itself, use of `relay` is redundant."
      },
      "timelock()": {
        "details": "Public accessor to check the address of the timelock"
      },
      "updateQuorumNumerator(uint256)": {
        "details": "Changes the quorum numerator. Emits a {QuorumNumeratorUpdated} event. Requirements: - Must be called through a governance proposal. - New numerator must be smaller or equal to the denominator."
      },
      "updateTimelock(address)": {
        "details": "Public endpoint to update the underlying timelock instance. Restricted to the timelock itself, so updates must be proposed, scheduled, and executed through governance proposals. CAUTION: It is not recommended to change the timelock while there are other queued governance proposals."
      },
      "version()": {
        "details": "See {IGovernor-version}."
      },
      "votingDelay()": {
        "details": "Delay, in number of block, between the proposal is created and the vote starts. This can be increassed to leave time for users to buy voting power, of delegate it, before the voting of a proposal starts."
      },
      "votingPeriod()": {
        "details": "Delay, in number of blocks, between the vote start and vote ends. NOTE: The {votingDelay} can delay the start of the vote. This must be considered when setting the voting duration compared to the voting delay."
      }
    },
    "version": 1
  },
  "userdoc": {
    "kind": "user",
    "methods": {
      "votingDelay()": {
        "notice": "module:user-config"
      },
      "votingPeriod()": {
        "notice": "module:user-config"
      }
    },
    "version": 1
  }
}