{
  "contractName": "MyGovernor1",
  "abi": [
    {
      "inputs": [
        {
          "internalType": "contract IVotes",
          "name": "_token",
          "type": "address"
        },
        {
          "internalType": "contract TimelockController",
          "name": "_timelock",
          "type": "address"
        }
      ],
      "stateMutability": "nonpayable",
      "type": "constructor"
    },
    {
      "inputs": [],
      "name": "Empty",
      "type": "error"
    },
    {
      "anonymous": false,
      "inputs": [
        {
          "indexed": false,
          "internalType": "uint256",
          "name": "proposalId",
          "type": "uint256"
        }
      ],
      "name": "ProposalCanceled",
      "type": "event"
    },
    {
      "anonymous": false,
      "inputs": [
        {
          "indexed": false,
          "internalType": "uint256",
          "name": "proposalId",
          "type": "uint256"
        },
        {
          "indexed": false,
          "internalType": "address",
          "name": "proposer",
          "type": "address"
        },
        {
          "indexed": false,
          "internalType": "address[]",
          "name": "targets",
          "type": "address[]"
        },
        {
          "indexed": false,
          "internalType": "uint256[]",
          "name": "values",
          "type": "uint256[]"
        },
        {
          "indexed": false,
          "internalType": "string[]",
          "name": "signatures",
          "type": "string[]"
        },
        {
          "indexed": false,
          "internalType": "bytes[]",
          "name": "calldatas",
          "type": "bytes[]"
        },
        {
          "indexed": false,
          "internalType": "uint256",
          "name": "startBlock",
          "type": "uint256"
        },
        {
          "indexed": false,
          "internalType": "uint256",
          "name": "endBlock",
          "type": "uint256"
        },
        {
          "indexed": false,
          "internalType": "string",
          "name": "description",
          "type": "string"
        }
      ],
      "name": "ProposalCreated",
      "type": "event"
    },
    {
      "anonymous": false,
      "inputs": [
        {
          "indexed": false,
          "internalType": "uint256",
          "name": "proposalId",
          "type": "uint256"
        }
      ],
      "name": "ProposalExecuted",
      "type": "event"
    },
    {
      "anonymous": false,
      "inputs": [
        {
          "indexed": false,
          "internalType": "uint256",
          "name": "proposalId",
          "type": "uint256"
        },
        {
          "indexed": false,
          "internalType": "uint256",
          "name": "eta",
          "type": "uint256"
        }
      ],
      "name": "ProposalQueued",
      "type": "event"
    },
    {
      "anonymous": false,
      "inputs": [
        {
          "indexed": false,
          "internalType": "uint256",
          "name": "oldQuorumNumerator",
          "type": "uint256"
        },
        {
          "indexed": false,
          "internalType": "uint256",
          "name": "newQuorumNumerator",
          "type": "uint256"
        }
      ],
      "name": "QuorumNumeratorUpdated",
      "type": "event"
    },
    {
      "anonymous": false,
      "inputs": [
        {
          "indexed": false,
          "internalType": "address",
          "name": "oldTimelock",
          "type": "address"
        },
        {
          "indexed": false,
          "internalType": "address",
          "name": "newTimelock",
          "type": "address"
        }
      ],
      "name": "TimelockChange",
      "type": "event"
    },
    {
      "anonymous": false,
      "inputs": [
        {
          "indexed": true,
          "internalType": "address",
          "name": "voter",
          "type": "address"
        },
        {
          "indexed": false,
          "internalType": "uint256",
          "name": "proposalId",
          "type": "uint256"
        },
        {
          "indexed": false,
          "internalType": "uint8",
          "name": "support",
          "type": "uint8"
        },
        {
          "indexed": false,
          "internalType": "uint256",
          "name": "weight",
          "type": "uint256"
        },
        {
          "indexed": false,
          "internalType": "string",
          "name": "reason",
          "type": "string"
        }
      ],
      "name": "VoteCast",
      "type": "event"
    },
    {
      "anonymous": false,
      "inputs": [
        {
          "indexed": true,
          "internalType": "address",
          "name": "voter",
          "type": "address"
        },
        {
          "indexed": false,
          "internalType": "uint256",
          "name": "proposalId",
          "type": "uint256"
        },
        {
          "indexed": false,
          "internalType": "uint8",
          "name": "support",
          "type": "uint8"
        },
        {
          "indexed": false,
          "internalType": "uint256",
          "name": "weight",
          "type": "uint256"
        },
        {
          "indexed": false,
          "internalType": "string",
          "name": "reason",
          "type": "string"
        },
        {
          "indexed": false,
          "internalType": "bytes",
          "name": "params",
          "type": "bytes"
        }
      ],
      "name": "VoteCastWithParams",
      "type": "event"
    },
    {
      "inputs": [],
      "name": "BALLOT_TYPEHASH",
      "outputs": [
        {
          "internalType": "bytes32",
          "name": "",
          "type": "bytes32"
        }
      ],
      "stateMutability": "view",
      "type": "function"
    },
    {
      "inputs": [],
      "name": "COUNTING_MODE",
      "outputs": [
        {
          "internalType": "string",
          "name": "",
          "type": "string"
        }
      ],
      "stateMutability": "pure",
      "type": "function"
    },
    {
      "inputs": [],
      "name": "EXTENDED_BALLOT_TYPEHASH",
      "outputs": [
        {
          "internalType": "bytes32",
          "name": "",
          "type": "bytes32"
        }
      ],
      "stateMutability": "view",
      "type": "function"
    },
    {
      "inputs": [
        {
          "internalType": "uint256",
          "name": "proposalId",
          "type": "uint256"
        },
        {
          "internalType": "uint8",
          "name": "support",
          "type": "uint8"
        }
      ],
      "name": "castVote",
      "outputs": [
        {
          "internalType": "uint256",
          "name": "",
          "type": "uint256"
        }
      ],
      "stateMutability": "nonpayable",
      "type": "function"
    },
    {
      "inputs": [
        {
          "internalType": "uint256",
          "name": "proposalId",
          "type": "uint256"
        },
        {
          "internalType": "uint8",
          "name": "support",
          "type": "uint8"
        },
        {
          "internalType": "uint8",
          "name": "v",
          "type": "uint8"
        },
        {
          "internalType": "bytes32",
          "name": "r",
          "type": "bytes32"
        },
        {
          "internalType": "bytes32",
          "name": "s",
          "type": "bytes32"
        }
      ],
      "name": "castVoteBySig",
      "outputs": [
        {
          "internalType": "uint256",
          "name": "",
          "type": "uint256"
        }
      ],
      "stateMutability": "nonpayable",
      "type": "function"
    },
    {
      "inputs": [
        {
          "internalType": "uint256",
          "name": "proposalId",
          "type": "uint256"
        },
        {
          "internalType": "uint8",
          "name": "support",
          "type": "uint8"
        },
        {
          "internalType": "string",
          "name": "reason",
          "type": "string"
        }
      ],
      "name": "castVoteWithReason",
      "outputs": [
        {
          "internalType": "uint256",
          "name": "",
          "type": "uint256"
        }
      ],
      "stateMutability": "nonpayable",
      "type": "function"
    },
    {
      "inputs": [
        {
          "internalType": "uint256",
          "name": "proposalId",
          "type": "uint256"
        },
        {
          "internalType": "uint8",
          "name": "support",
          "type": "uint8"
        },
        {
          "internalType": "string",
          "name": "reason",
          "type": "string"
        },
        {
          "internalType": "bytes",
          "name": "params",
          "type": "bytes"
        }
      ],
      "name": "castVoteWithReasonAndParams",
      "outputs": [
        {
          "internalType": "uint256",
          "name": "",
          "type": "uint256"
        }
      ],
      "stateMutability": "nonpayable",
      "type": "function"
    },
    {
      "inputs": [
        {
          "internalType": "uint256",
          "name": "proposalId",
          "type": "uint256"
        },
        {
          "internalType": "uint8",
          "name": "support",
          "type": "uint8"
        },
        {
          "internalType": "string",
          "name": "reason",
          "type": "string"
        },
        {
          "internalType": "bytes",
          "name": "params",
          "type": "bytes"
        },
        {
          "internalType": "uint8",
          "name": "v",
          "type": "uint8"
        },
        {
          "internalType": "bytes32",
          "name": "r",
          "type": "bytes32"
        },
        {
          "internalType": "bytes32",
          "name": "s",
          "type": "bytes32"
        }
      ],
      "name": "castVoteWithReasonAndParamsBySig",
      "outputs": [
        {
          "internalType": "uint256",
          "name": "",
          "type": "uint256"
        }
      ],
      "stateMutability": "nonpayable",
      "type": "function"
    },
    {
      "inputs": [
        {
          "internalType": "address[]",
          "name": "targets",
          "type": "address[]"
        },
        {
          "internalType": "uint256[]",
          "name": "values",
          "type": "uint256[]"
        },
        {
          "internalType": "bytes[]",
          "name": "calldatas",
          "type": "bytes[]"
        },
        {
          "internalType": "bytes32",
          "name": "descriptionHash",
          "type": "bytes32"
        }
      ],
      "name": "execute",
      "outputs": [
        {
          "internalType": "uint256",
          "name": "",
          "type": "uint256"
        }
      ],
      "stateMutability": "payable",
      "type": "function"
    },
    {
      "inputs": [
        {
          "internalType": "address",
          "name": "account",
          "type": "address"
        },
        {
          "internalType": "uint256",
          "name": "blockNumber",
          "type": "uint256"
        }
      ],
      "name": "getVotes",
      "outputs": [
        {
          "internalType": "uint256",
          "name": "",
          "type": "uint256"
        }
      ],
      "stateMutability": "view",
      "type": "function"
    },
    {
      "inputs": [
        {
          "internalType": "address",
          "name": "account",
          "type": "address"
        },
        {
          "internalType": "uint256",
          "name": "blockNumber",
          "type": "uint256"
        },
        {
          "internalType": "bytes",
          "name": "params",
          "type": "bytes"
        }
      ],
      "name": "getVotesWithParams",
      "outputs": [
        {
          "internalType": "uint256",
          "name": "",
          "type": "uint256"
        }
      ],
      "stateMutability": "view",
      "type": "function"
    },
    {
      "inputs": [
        {
          "internalType": "uint256",
          "name": "proposalId",
          "type": "uint256"
        },
        {
          "internalType": "address",
          "name": "account",
          "type": "address"
        }
      ],
      "name": "hasVoted",
      "outputs": [
        {
          "internalType": "bool",
          "name": "",
          "type": "bool"
        }
      ],
      "stateMutability": "view",
      "type": "function"
    },
    {
      "inputs": [
        {
          "internalType": "address[]",
          "name": "targets",
          "type": "address[]"
        },
        {
          "internalType": "uint256[]",
          "name": "values",
          "type": "uint256[]"
        },
        {
          "internalType": "bytes[]",
          "name": "calldatas",
          "type": "bytes[]"
        },
        {
          "internalType": "bytes32",
          "name": "descriptionHash",
          "type": "bytes32"
        }
      ],
      "name": "hashProposal",
      "outputs": [
        {
          "internalType": "uint256",
          "name": "",
          "type": "uint256"
        }
      ],
      "stateMutability": "pure",
      "type": "function"
    },
    {
      "inputs": [],
      "name": "name",
      "outputs": [
        {
          "internalType": "string",
          "name": "",
          "type": "string"
        }
      ],
      "stateMutability": "view",
      "type": "function"
    },
    {
      "inputs": [
        {
          "internalType": "address",
          "name": "",
          "type": "address"
        },
        {
          "internalType": "address",
          "name": "",
          "type": "address"
        },
        {
          "internalType": "uint256[]",
          "name": "",
          "type": "uint256[]"
        },
        {
          "internalType": "uint256[]",
          "name": "",
          "type": "uint256[]"
        },
        {
          "internalType": "bytes",
          "name": "",
          "type": "bytes"
        }
      ],
      "name": "onERC1155BatchReceived",
      "outputs": [
        {
          "internalType": "bytes4",
          "name": "",
          "type": "bytes4"
        }
      ],
      "stateMutability": "nonpayable",
      "type": "function"
    },
    {
      "inputs": [
        {
          "internalType": "address",
          "name": "",
          "type": "address"
        },
        {
          "internalType": "address",
          "name": "",
          "type": "address"
        },
        {
          "internalType": "uint256",
          "name": "",
          "type": "uint256"
        },
        {
          "internalType": "uint256",
          "name": "",
          "type": "uint256"
        },
        {
          "internalType": "bytes",
          "name": "",
          "type": "bytes"
        }
      ],
      "name": "onERC1155Received",
      "outputs": [
        {
          "internalType": "bytes4",
          "name": "",
          "type": "bytes4"
        }
      ],
      "stateMutability": "nonpayable",
      "type": "function"
    },
    {
      "inputs": [
        {
          "internalType": "address",
          "name": "",
          "type": "address"
        },
        {
          "internalType": "address",
          "name": "",
          "type": "address"
        },
        {
          "internalType": "uint256",
          "name": "",
          "type": "uint256"
        },
        {
          "internalType": "bytes",
          "name": "",
          "type": "bytes"
        }
      ],
      "name": "onERC721Received",
      "outputs": [
        {
          "internalType": "bytes4",
          "name": "",
          "type": "bytes4"
        }
      ],
      "stateMutability": "nonpayable",
      "type": "function"
    },
    {
      "inputs": [
        {
          "internalType": "uint256",
          "name": "proposalId",
          "type": "uint256"
        }
      ],
      "name": "proposalDeadline",
      "outputs": [
        {
          "internalType": "uint256",
          "name": "",
          "type": "uint256"
        }
      ],
      "stateMutability": "view",
      "type": "function"
    },
    {
      "inputs": [
        {
          "internalType": "uint256",
          "name": "proposalId",
          "type": "uint256"
        }
      ],
      "name": "proposalEta",
      "outputs": [
        {
          "internalType": "uint256",
          "name": "",
          "type": "uint256"
        }
      ],
      "stateMutability": "view",
      "type": "function"
    },
    {
      "inputs": [
        {
          "internalType": "uint256",
          "name": "proposalId",
          "type": "uint256"
        }
      ],
      "name": "proposalSnapshot",
      "outputs": [
        {
          "internalType": "uint256",
          "name": "",
          "type": "uint256"
        }
      ],
      "stateMutability": "view",
      "type": "function"
    },
    {
      "inputs": [],
      "name": "proposalThreshold",
      "outputs": [
        {
          "internalType": "uint256",
          "name": "",
          "type": "uint256"
        }
      ],
      "stateMutability": "view",
      "type": "function"
    },
    {
      "inputs": [
        {
          "internalType": "uint256",
          "name": "proposalId",
          "type": "uint256"
        }
      ],
      "name": "proposalVotes",
      "outputs": [
        {
          "internalType": "uint256",
          "name": "againstVotes",
          "type": "uint256"
        },
        {
          "internalType": "uint256",
          "name": "forVotes",
          "type": "uint256"
        },
        {
          "internalType": "uint256",
          "name": "abstainVotes",
          "type": "uint256"
        }
      ],
      "stateMutability": "view",
      "type": "function"
    },
    {
      "inputs": [
        {
          "internalType": "address[]",
          "name": "targets",
          "type": "address[]"
        },
        {
          "internalType": "uint256[]",
          "name": "values",
          "type": "uint256[]"
        },
        {
          "internalType": "bytes[]",
          "name": "calldatas",
          "type": "bytes[]"
        },
        {
          "internalType": "bytes32",
          "name": "descriptionHash",
          "type": "bytes32"
        }
      ],
      "name": "queue",
      "outputs": [
        {
          "internalType": "uint256",
          "name": "",
          "type": "uint256"
        }
      ],
      "stateMutability": "nonpayable",
      "type": "function"
    },
    {
      "inputs": [],
      "name": "quorumDenominator",
      "outputs": [
        {
          "internalType": "uint256",
          "name": "",
          "type": "uint256"
        }
      ],
      "stateMutability": "view",
      "type": "function"
    },
    {
      "inputs": [],
      "name": "quorumNumerator",
      "outputs": [
        {
          "internalType": "uint256",
          "name": "",
          "type": "uint256"
        }
      ],
      "stateMutability": "view",
      "type": "function"
    },
    {
      "inputs": [
        {
          "internalType": "address",
          "name": "target",
          "type": "address"
        },
        {
          "internalType": "uint256",
          "name": "value",
          "type": "uint256"
        },
        {
          "internalType": "bytes",
          "name": "data",
          "type": "bytes"
        }
      ],
      "name": "relay",
      "outputs": [],
      "stateMutability": "nonpayable",
      "type": "function"
    },
    {
      "inputs": [],
      "name": "timelock",
      "outputs": [
        {
          "internalType": "address",
          "name": "",
          "type": "address"
        }
      ],
      "stateMutability": "view",
      "type": "function"
    },
    {
      "inputs": [],
      "name": "token",
      "outputs": [
        {
          "internalType": "contract IVotes",
          "name": "",
          "type": "address"
        }
      ],
      "stateMutability": "view",
      "type": "function"
    },
    {
      "inputs": [
        {
          "internalType": "uint256",
          "name": "newQuorumNumerator",
          "type": "uint256"
        }
      ],
      "name": "updateQuorumNumerator",
      "outputs": [],
      "stateMutability": "nonpayable",
      "type": "function"
    },
    {
      "inputs": [
        {
          "internalType": "contract TimelockController",
          "name": "newTimelock",
          "type": "address"
        }
      ],
      "name": "updateTimelock",
      "outputs": [],
      "stateMutability": "nonpayable",
      "type": "function"
    },
    {
      "inputs": [],
      "name": "version",
      "outputs": [
        {
          "internalType": "string",
          "name": "",
          "type": "string"
        }
      ],
      "stateMutability": "view",
      "type": "function"
    },
    {
      "stateMutability": "payable",
      "type": "receive"
    },
    {
      "inputs": [],
      "name": "votingDelay",
      "outputs": [
        {
          "internalType": "uint256",
          "name": "",
          "type": "uint256"
        }
      ],
      "stateMutability": "pure",
      "type": "function"
    },
    {
      "inputs": [],
      "name": "votingPeriod",
      "outputs": [
        {
          "internalType": "uint256",
          "name": "",
          "type": "uint256"
        }
      ],
      "stateMutability": "pure",
      "type": "function"
    },
    {
      "inputs": [
        {
          "internalType": "uint256",
          "name": "blockNumber",
          "type": "uint256"
        }
      ],
      "name": "quorum",
      "outputs": [
        {
          "internalType": "uint256",
          "name": "",
          "type": "uint256"
        }
      ],
      "stateMutability": "view",
      "type": "function"
    },
    {
      "inputs": [
        {
          "internalType": "uint256",
          "name": "proposalId",
          "type": "uint256"
        }
      ],
      "name": "state",
      "outputs": [
        {
          "internalType": "enum IGovernor.ProposalState",
          "name": "",
          "type": "uint8"
        }
      ],
      "stateMutability": "view",
      "type": "function"
    },
    {
      "inputs": [
        {
          "internalType": "address[]",
          "name": "targets",
          "type": "address[]"
        },
        {
          "internalType": "uint256[]",
          "name": "values",
          "type": "uint256[]"
        },
        {
          "internalType": "bytes[]",
          "name": "calldatas",
          "type": "bytes[]"
        },
        {
          "internalType": "string",
          "name": "description",
          "type": "string"
        }
      ],
      "name": "propose",
      "outputs": [
        {
          "internalType": "uint256",
          "name": "",
          "type": "uint256"
        }
      ],
      "stateMutability": "nonpayable",
      "type": "function"
    },
    {
      "inputs": [
        {
          "internalType": "bytes4",
          "name": "interfaceId",
          "type": "bytes4"
        }
      ],
      "name": "supportsInterface",
      "outputs": [
        {
          "internalType": "bool",
          "name": "",
          "type": "bool"
        }
      ],
      "stateMutability": "view",
      "type": "function"
    }
  ],
  "bytecode": "0x6101606040523480156200001257600080fd5b506040516200375338038062003753833981016040819052620000359162000353565b600482826040518060400160405280600a81526020016926bca3b7bb32b93737b960b11b815250806200006d6200014360201b60201c565b815160208084019190912082518383012060e08290526101008190524660a0818152604080517f8b73c3c69bb8fe3d512ecc4cf759cc79239f7b179b0ffacaa9a75d522b39400f81880181905281830187905260608201869052608082019490945230818401528151808203909301835260c00190528051940193909320919290916080523060c052610120525050825162000113925060009150602084019062000294565b50620001219050816200015e565b506001600160a01b0316610140526200013a81620001c7565b505050620003ce565b6040805180820190915260018152603160f81b602082015290565b600454604080516001600160a01b03928316815291831660208301527f08f74ea46ef7894f65eabfb5e6e695de773a000b47c529ab559178069b226401910160405180910390a1600480546001600160a01b0319166001600160a01b0392909216919091179055565b60648111156200024f5760405162461bcd60e51b815260206004820152604360248201527f476f7665726e6f72566f74657351756f72756d4672616374696f6e3a2071756f60448201527f72756d4e756d657261746f72206f7665722071756f72756d44656e6f6d696e616064820152623a37b960e91b608482015260a40160405180910390fd5b600680549082905560408051828152602081018490527f0553476bf02ef2726e8ce5ced78d63e26e602e4a2257b1f559418e24b4633997910160405180910390a15050565b828054620002a29062000392565b90600052602060002090601f016020900481019282620002c6576000855562000311565b82601f10620002e157805160ff191683800117855562000311565b8280016001018555821562000311579182015b8281111562000311578251825591602001919060010190620002f4565b506200031f92915062000323565b5090565b5b808211156200031f576000815560010162000324565b6001600160a01b03811681146200035057600080fd5b50565b600080604083850312156200036757600080fd5b825162000374816200033a565b602084015190925062000387816200033a565b809150509250929050565b600181811c90821680620003a757607f821691505b602082108103620003c857634e487b7160e01b600052602260045260246000fd5b50919050565b60805160a05160c05160e05161010051610120516101405161331c6200043760003960008181610720015281816118a601526119bf01526000611b3b01526000611b8a01526000611b6501526000611abe01526000611ae801526000611b12015261331c6000f3fe6080604052600436106101ae5760003560e01c806301ffc9a7146101d657806302a251a31461020b578063034201811461022a57806306f3f9e61461024a57806306fdde031461026a578063150b7a021461028c578063160cbed7146102c55780632656227d146102e55780632d63f693146102f85780632fe3e261146103185780633932abb11461033a5780633bccf4fd1461034e5780633e4f49e61461036e578063438596321461039b578063544ffc9c146103e557806354fd4d501461043a57806356781388146104645780635f398a14146104845780637b3c71d3146104a45780637d5e81e2146104c457806397c3d334146104e45780639a802a6d146104f8578063a7713a7014610518578063a890c9101461052d578063ab58fb8e1461054d578063b58131b01461056d578063bc197c8114610581578063c01f9e37146105ad578063c28bc2fa146105cd578063c59057e4146105ed578063d33219b41461060d578063dd4e2ba51461063a578063deaaa7cc14610680578063eb9019d4146106a2578063f23a6e61146106c2578063f8ce560a146106ee578063fc0c546a1461070e57600080fd5b366101d157306101bc610742565b6001600160a01b0316146101cf57600080fd5b005b600080fd5b3480156101e257600080fd5b506101f66101f13660046123e7565b610751565b60405190151581526020015b60405180910390f35b34801561021757600080fd5b5061b2fa5b604051908152602001610202565b34801561023657600080fd5b5061021c61024536600461252c565b610762565b34801561025657600080fd5b506101cf6102653660046125d2565b610848565b34801561027657600080fd5b5061027f6108db565b6040516102029190612647565b34801561029857600080fd5b506102ac6102a736600461266f565b61096d565b6040516001600160e01b03199091168152602001610202565b3480156102d157600080fd5b5061021c6102e036600461284b565b61097e565b61021c6102f336600461284b565b610b88565b34801561030457600080fd5b5061021c6103133660046125d2565b610c75565b34801561032457600080fd5b5061021c60008051602061329e83398151915281565b34801561034657600080fd5b50600161021c565b34801561035a57600080fd5b5061021c6103693660046128da565b610cac565b34801561037a57600080fd5b5061038e6103893660046125d2565b610d10565b604051610202919061293e565b3480156103a757600080fd5b506101f66103b6366004612966565b60008281526007602090815260408083206001600160a01b038516845260030190915290205460ff1692915050565b3480156103f157600080fd5b5061041f6104003660046125d2565b6000908152600760205260409020805460018201546002909201549092565b60408051938452602084019290925290820152606001610202565b34801561044657600080fd5b506040805180820190915260018152603160f81b602082015261027f565b34801561047057600080fd5b5061021c61047f366004612996565b610d1b565b34801561049057600080fd5b5061021c61049f3660046129c2565b610d3c565b3480156104b057600080fd5b5061021c6104bf366004612a45565b610d86565b3480156104d057600080fd5b5061021c6104df366004612a9e565b610dd8565b3480156104f057600080fd5b50606461021c565b34801561050457600080fd5b5061021c610513366004612b52565b610def565b34801561052457600080fd5b5060065461021c565b34801561053957600080fd5b506101cf610548366004612baa565b610dfc565b34801561055957600080fd5b5061021c6105683660046125d2565b610e83565b34801561057957600080fd5b50600061021c565b34801561058d57600080fd5b506102ac61059c366004612bc7565b63bc197c8160e01b95945050505050565b3480156105b957600080fd5b5061021c6105c83660046125d2565b610f18565b3480156105d957600080fd5b506101cf6105e8366004612c5a565b610f47565b3480156105f957600080fd5b5061021c61060836600461284b565b61100e565b34801561061957600080fd5b50610622611048565b6040516001600160a01b039091168152602001610202565b34801561064657600080fd5b506040805180820190915260208082527f737570706f72743d627261766f2671756f72756d3d666f722c6162737461696e9082015261027f565b34801561068c57600080fd5b5061021c60008051602061327e83398151915281565b3480156106ae57600080fd5b5061021c6106bd366004612c9d565b611057565b3480156106ce57600080fd5b506102ac6106dd366004612cc9565b63f23a6e6160e01b95945050505050565b3480156106fa57600080fd5b5061021c6107093660046125d2565b611078565b34801561071a57600080fd5b506106227f000000000000000000000000000000000000000000000000000000000000000081565b600061074c611048565b905090565b600061075c82611083565b92915050565b6000806107f46107ec60008051602061329e8339815191528c8c8c8c60405161078c929190612d31565b60405180910390208b805190602001206040516020016107d1959493929190948552602085019390935260ff9190911660408401526060830152608082015260a00190565b604051602081830303815290604052805190602001206110a8565b8686866110f6565b905061083a8a828b8b8b8080601f0160208091040260200160405190810160405280939291908181526020018383808284376000920191909152508d9250611114915050565b9a9950505050505050505050565b610850610742565b6001600160a01b0316336001600160a01b0316146108895760405162461bcd60e51b815260040161088090612d41565b60405180910390fd5b30610892610742565b6001600160a01b0316146108cf57600080366040516108b2929190612d31565b604051809103902090505b806108c86002611279565b036108bd57505b6108d8816112df565b50565b6060600080546108ea90612d73565b80601f016020809104026020016040519081016040528092919081815260200182805461091690612d73565b80156109635780601f1061093857610100808354040283529160200191610963565b820191906000526020600020905b81548152906001019060200180831161094657829003601f168201915b5050505050905090565b630a85bd0160e11b5b949350505050565b60008061098d8686868661100e565b9050600461099a82610d10565b60078111156109ab576109ab612928565b146109c85760405162461bcd60e51b815260040161088090612dad565b6000600460009054906101000a90046001600160a01b03166001600160a01b031663f27a0c926040518163ffffffff1660e01b8152600401602060405180830381865afa158015610a1d573d6000803e3d6000fd5b505050506040513d601f19601f82011682018060405250810190610a419190612dee565b6004805460405163b1c5f42760e01b81529293506001600160a01b03169163b1c5f42791610a7a918b918b918b916000918c9101612ed0565b602060405180830381865afa158015610a97573d6000803e3d6000fd5b505050506040513d601f19601f82011682018060405250810190610abb9190612dee565b600083815260056020526040808220929092556004805492516308f2a0bb60e41b81526001600160a01b0390931692638f2a0bb092610b06928c928c928c9290918c918a9101612f1e565b600060405180830381600087803b158015610b2057600080fd5b505af1158015610b34573d6000803e3d6000fd5b505050507f9a2e42fd6722813d69113e7d0079d3d940171428df7373df9c7f7617cfda2892828242610b669190612f8c565b6040805192835260208301919091520160405180910390a15095945050505050565b600080610b978686868661100e565b90506000610ba482610d10565b90506004816007811115610bba57610bba612928565b1480610bd757506005816007811115610bd557610bd5612928565b145b610bf35760405162461bcd60e51b815260040161088090612dad565b600082815260016020818152604092839020600201805460ff191690921790915590518381527f712ae1383f79ac853f8d882153778e0260ef8f03b504e2866e0593e04d2b291f910160405180910390a1610c5182888888886113a7565b610c5e8288888888611448565b610c6b8288888888611455565b5095945050505050565b60008181526001602090815260408083208151928301909152546001600160401b0316908190525b6001600160401b031692915050565b6040805160008051602061327e833981519152602082015290810186905260ff851660608201526000908190610ce8906107ec906080016107d1565b9050610d0587828860405180602001604052806000815250611484565b979650505050505050565b600061075c826114a7565b60008033905061097684828560405180602001604052806000815250611484565b600080339050610d0587828888888080601f0160208091040260200160405190810160405280939291908181526020018383808284376000920191909152508a9250611114915050565b600080339050610dce86828787878080601f01602080910402602001604051908101604052809392919081815260200183838082843760009201919091525061148492505050565b9695505050505050565b6000610de6858585856115ed565b95945050505050565b600061097684848461187d565b610e04610742565b6001600160a01b0316336001600160a01b031614610e345760405162461bcd60e51b815260040161088090612d41565b30610e3d610742565b6001600160a01b031614610e7a5760008036604051610e5d929190612d31565b604051809103902090505b80610e736002611279565b03610e6857505b6108d881611913565b6004805460008381526005602052604080822054905163d45c443560e01b8152938401529182916001600160a01b03169063d45c443590602401602060405180830381865afa158015610eda573d6000803e3d6000fd5b505050506040513d601f19601f82011682018060405250810190610efe9190612dee565b905080600114610f0e5780610f11565b60005b9392505050565b60008181526001602081815260408084208151928301909152909101546001600160401b031690819052610c9d565b610f4f610742565b6001600160a01b0316336001600160a01b031614610f7f5760405162461bcd60e51b815260040161088090612d41565b30610f88610742565b6001600160a01b031614610fc55760008036604051610fa8929190612d31565b604051809103902090505b80610fbe6002611279565b03610fb357505b6110078483838080601f01602080910402602001604051908101604052809392919081815260200183838082843760009201919091525088925061197c915050565b5050505050565b6000848484846040516020016110279493929190612fa4565b60408051601f19818403018152919052805160209091012095945050505050565b6004546001600160a01b031690565b6000610f11838361107360408051602081019091526000815290565b61187d565b600061075c826119a2565b60006001600160e01b03198216636e665ced60e01b148061075c575061075c82611a46565b600061075c6110b5611ab1565b8360405161190160f01b6020820152602281018390526042810182905260009060620160405160208183030381529060405280519060200120905092915050565b600080600061110787878787611bd8565b91509150610c6b81611cbb565b600085815260016020819052604082209061112e88610d10565b600781111561113f5761113f612928565b146111985760405162461bcd60e51b815260206004820152602360248201527f476f7665726e6f723a20766f7465206e6f742063757272656e746c792061637460448201526269766560e81b6064820152608401610880565b604080516020810190915281546001600160401b0316908190526000906111c19088908661187d565b90506111d08888888488611e6c565b835160000361122557866001600160a01b03167fb8e138887d0aa13bab447e82de9d5c1777041ecd21ca36ba824ff1e6c07ddda4898884896040516112189493929190612fef565b60405180910390a2610d05565b866001600160a01b03167fe2babfbac5889a709b63bb7f598b324e08bc5a4fb9ec647fb3cbc9ec07eb87128988848989604051611266959493929190613017565b60405180910390a2979650505050505050565b600061128482611fe6565b156112a257604051631ed9509560e11b815260040160405180910390fd5b508054600f0b6000818152600180840160205260408220805492905583546001600160801b03191692016001600160801b03169190911790915590565b60648111156113625760405162461bcd60e51b815260206004820152604360248201527f476f7665726e6f72566f74657351756f72756d4672616374696f6e3a2071756f60448201527f72756d4e756d657261746f72206f7665722071756f72756d44656e6f6d696e616064820152623a37b960e91b608482015260a401610880565b600680549082905560408051828152602081018490527f0553476bf02ef2726e8ce5ced78d63e26e602e4a2257b1f559418e24b4633997910160405180910390a15050565b306113b0610742565b6001600160a01b0316146110075760005b845181101561144057306001600160a01b03168582815181106113e6576113e661305d565b60200260200101516001600160a01b031603611430576114308382815181106114115761141161305d565b6020026020010151805190602001206002611ffb90919063ffffffff16565b61143981613073565b90506113c1565b505050505050565b6110078585858585612037565b3061145e610742565b6001600160a01b031614611007576114766002611fe6565b611007576000600255611007565b6000610de6858585856114a260408051602081019091526000815290565b611114565b6000806114b3836120aa565b905060048160078111156114c9576114c9612928565b146114d45792915050565b600083815260056020526040902054806114ef575092915050565b60048054604051632ab0f52960e01b81529182018390526001600160a01b031690632ab0f52990602401602060405180830381865afa158015611536573d6000803e3d6000fd5b505050506040513d601f19601f8201168201806040525081019061155a919061308c565b15611569575060079392505050565b60048054604051632c258a9f60e11b81529182018390526001600160a01b03169063584b153e90602401602060405180830381865afa1580156115b0573d6000803e3d6000fd5b505050506040513d601f19601f820116820180604052508101906115d4919061308c565b156115e3575060059392505050565b5060029392505050565b6000806115ff336106bd6001436130ae565b10156116675760405162461bcd60e51b815260206004820152603160248201527f476f7665726e6f723a2070726f706f73657220766f7465732062656c6f7720706044820152701c9bdc1bdcd85b081d1a1c995cda1bdb19607a1b6064820152608401610880565b600061167c868686868051906020012061100e565b9050845186511461169f5760405162461bcd60e51b8152600401610880906130c5565b83518651146116c05760405162461bcd60e51b8152600401610880906130c5565b600086511161170c5760405162461bcd60e51b815260206004820152601860248201527711dbdd995c9b9bdc8e88195b5c1d1e481c1c9bdc1bdcd85b60421b6044820152606401610880565b600081815260016020908152604091829020825191820190925281546001600160401b0316908190521561178c5760405162461bcd60e51b815260206004820152602160248201527f476f7665726e6f723a2070726f706f73616c20616c72656164792065786973746044820152607360f81b6064820152608401610880565b600061179860016121b9565b6117a1436121b9565b6117ab9190613106565b905060006117ba61b2fa6121b9565b6117c49083613106565b90506117d08383612225565b6117dd6001840182612225565b7f7d84a6263ae0d98d3329bd7b46bb4e8d6f98cd35a7adb45c274c8b7fd5ebd5e084338b8b8d516001600160401b0381111561181b5761181b61246f565b60405190808252806020026020018201604052801561184e57816020015b60608152602001906001900390816118395790505b508c88888e60405161186899989796959493929190613131565b60405180910390a15091979650505050505050565b604051630748d63560e31b81526001600160a01b038481166004830152602482018490526000917f000000000000000000000000000000000000000000000000000000000000000090911690633a46b1a890604401602060405180830381865afa1580156118ef573d6000803e3d6000fd5b505050506040513d601f19601f820116820180604052508101906109769190612dee565b600454604080516001600160a01b03928316815291831660208301527f08f74ea46ef7894f65eabfb5e6e695de773a000b47c529ab559178069b226401910160405180910390a1600480546001600160a01b0319166001600160a01b0392909216919091179055565b60606109768484846040518060600160405280602981526020016132be60299139612242565b60006064600654604051632394e7a360e21b8152600481018590527f00000000000000000000000000000000000000000000000000000000000000006001600160a01b031690638e539e8c90602401602060405180830381865afa158015611a0e573d6000803e3d6000fd5b505050506040513d601f19601f82011682018060405250810190611a329190612dee565b611a3c9190613220565b61075c919061323f565b60006001600160e01b0319821663bf26d89760e01b1480611a7757506001600160e01b031982166379dd796f60e01b145b80611a9257506001600160e01b03198216630271189760e51b145b8061075c57506301ffc9a760e01b6001600160e01b031983161461075c565b6000306001600160a01b037f000000000000000000000000000000000000000000000000000000000000000016148015611b0a57507f000000000000000000000000000000000000000000000000000000000000000046145b15611b3457507f000000000000000000000000000000000000000000000000000000000000000090565b50604080517f00000000000000000000000000000000000000000000000000000000000000006020808301919091527f0000000000000000000000000000000000000000000000000000000000000000828401527f000000000000000000000000000000000000000000000000000000000000000060608301524660808301523060a0808401919091528351808403909101815260c0909201909252805191012090565b6000806fa2a8918ca85bafe22016d0b997e4df60600160ff1b03831115611c055750600090506003611cb2565b8460ff16601b14158015611c1d57508460ff16601c14155b15611c2e5750600090506004611cb2565b6040805160008082526020820180845289905260ff881692820192909252606081018690526080810185905260019060a0016020604051602081039080840390855afa158015611c82573d6000803e3d6000fd5b5050604051601f1901519150506001600160a01b038116611cab57600060019250925050611cb2565b9150600090505b94509492505050565b6000816004811115611ccf57611ccf612928565b03611cd75750565b6001816004811115611ceb57611ceb612928565b03611d335760405162461bcd60e51b815260206004820152601860248201527745434453413a20696e76616c6964207369676e617475726560401b6044820152606401610880565b6002816004811115611d4757611d47612928565b03611d945760405162461bcd60e51b815260206004820152601f60248201527f45434453413a20696e76616c6964207369676e6174757265206c656e677468006044820152606401610880565b6003816004811115611da857611da8612928565b03611e005760405162461bcd60e51b815260206004820152602260248201527f45434453413a20696e76616c6964207369676e6174757265202773272076616c604482015261756560f01b6064820152608401610880565b6004816004811115611e1457611e14612928565b036108d85760405162461bcd60e51b815260206004820152602260248201527f45434453413a20696e76616c6964207369676e6174757265202776272076616c604482015261756560f01b6064820152608401610880565b60008581526007602090815260408083206001600160a01b0388168452600381019092529091205460ff1615611ef45760405162461bcd60e51b815260206004820152602760248201527f476f7665726e6f72566f74696e6753696d706c653a20766f746520616c726561604482015266191e4818d85cdd60ca1b6064820152608401610880565b6001600160a01b03851660009081526003820160205260409020805460ff1916600117905560ff8416611f405782816000016000828254611f359190612f8c565b909155506114409050565b60001960ff851601611f605782816001016000828254611f359190612f8c565b60011960ff851601611f805782816002016000828254611f359190612f8c565b60405162461bcd60e51b815260206004820152603560248201527f476f7665726e6f72566f74696e6753696d706c653a20696e76616c69642076616044820152746c756520666f7220656e756d20566f74655479706560581b6064820152608401610880565b54600f81810b600160801b909204900b131590565b8154600160801b90819004600f0b6000818152600180860160205260409091209390935583546001600160801b03908116939091011602179055565b6004805460405163e38335e560e01b81526001600160a01b039091169163e38335e5913491612071918991899189916000918a9101612ed0565b6000604051808303818588803b15801561208a57600080fd5b505af115801561209e573d6000803e3d6000fd5b50505050505050505050565b6000818152600160205260408120600281015460ff16156120ce5750600792915050565b6002810154610100900460ff16156120e95750600292915050565b60006120f484610c75565b9050806000036121465760405162461bcd60e51b815260206004820152601d60248201527f476f7665726e6f723a20756e6b6e6f776e2070726f706f73616c2069640000006044820152606401610880565b438110612157575060009392505050565b600061216285610f18565b905043811061217657506001949350505050565b61217f85612312565b801561219e575060008581526007602052604090208054600190910154115b156121ae57506004949350505050565b506003949350505050565b60006001600160401b038211156122215760405162461bcd60e51b815260206004820152602660248201527f53616665436173743a2076616c756520646f65736e27742066697420696e203660448201526534206269747360d01b6064820152608401610880565b5090565b81546001600160401b0319166001600160401b0391909116179055565b6060824710156122a35760405162461bcd60e51b815260206004820152602660248201527f416464726573733a20696e73756666696369656e742062616c616e636520666f6044820152651c8818d85b1b60d21b6064820152608401610880565b600080866001600160a01b031685876040516122bf9190613261565b60006040518083038185875af1925050503d80600081146122fc576040519150601f19603f3d011682016040523d82523d6000602084013e612301565b606091505b5091509150610d0587838387612349565b6000818152600760205260408120600281015460018201546123349190612f8c565b61234061070985610c75565b11159392505050565b606083156123b85782516000036123b1576001600160a01b0385163b6123b15760405162461bcd60e51b815260206004820152601d60248201527f416464726573733a2063616c6c20746f206e6f6e2d636f6e74726163740000006044820152606401610880565b5081610976565b61097683838151156123cd5781518083602001fd5b8060405162461bcd60e51b81526004016108809190612647565b6000602082840312156123f957600080fd5b81356001600160e01b031981168114610f1157600080fd5b803560ff8116811461242257600080fd5b919050565b60008083601f84011261243957600080fd5b5081356001600160401b0381111561245057600080fd5b60208301915083602082850101111561246857600080fd5b9250929050565b634e487b7160e01b600052604160045260246000fd5b604051601f8201601f191681016001600160401b03811182821017156124ad576124ad61246f565b604052919050565b60006001600160401b038311156124ce576124ce61246f565b6124e1601f8401601f1916602001612485565b90508281528383830111156124f557600080fd5b828260208301376000602084830101529392505050565b600082601f83011261251d57600080fd5b610f11838335602085016124b5565b60008060008060008060008060e0898b03121561254857600080fd5b8835975061255860208a01612411565b965060408901356001600160401b038082111561257457600080fd5b6125808c838d01612427565b909850965060608b013591508082111561259957600080fd5b506125a68b828c0161250c565b9450506125b560808a01612411565b925060a0890135915060c089013590509295985092959890939650565b6000602082840312156125e457600080fd5b5035919050565b60005b838110156126065781810151838201526020016125ee565b83811115612615576000848401525b50505050565b600081518084526126338160208601602086016125eb565b601f01601f19169290920160200192915050565b602081526000610f11602083018461261b565b6001600160a01b03811681146108d857600080fd5b6000806000806080858703121561268557600080fd5b84356126908161265a565b935060208501356126a08161265a565b92506040850135915060608501356001600160401b038111156126c257600080fd5b6126ce8782880161250c565b91505092959194509250565b60006001600160401b038211156126f3576126f361246f565b5060051b60200190565b600082601f83011261270e57600080fd5b8135602061272361271e836126da565b612485565b82815260059290921b8401810191818101908684111561274257600080fd5b8286015b848110156127665780356127598161265a565b8352918301918301612746565b509695505050505050565b600082601f83011261278257600080fd5b8135602061279261271e836126da565b82815260059290921b840181019181810190868411156127b157600080fd5b8286015b8481101561276657803583529183019183016127b5565b600082601f8301126127dd57600080fd5b813560206127ed61271e836126da565b82815260059290921b8401810191818101908684111561280c57600080fd5b8286015b848110156127665780356001600160401b0381111561282f5760008081fd5b61283d8986838b010161250c565b845250918301918301612810565b6000806000806080858703121561286157600080fd5b84356001600160401b038082111561287857600080fd5b612884888389016126fd565b9550602087013591508082111561289a57600080fd5b6128a688838901612771565b945060408701359150808211156128bc57600080fd5b506128c9878288016127cc565b949793965093946060013593505050565b600080600080600060a086880312156128f257600080fd5b8535945061290260208701612411565b935061291060408701612411565b94979396509394606081013594506080013592915050565b634e487b7160e01b600052602160045260246000fd5b602081016008831061296057634e487b7160e01b600052602160045260246000fd5b91905290565b6000806040838503121561297957600080fd5b82359150602083013561298b8161265a565b809150509250929050565b600080604083850312156129a957600080fd5b823591506129b960208401612411565b90509250929050565b6000806000806000608086880312156129da57600080fd5b853594506129ea60208701612411565b935060408601356001600160401b0380821115612a0657600080fd5b612a1289838a01612427565b90955093506060880135915080821115612a2b57600080fd5b50612a388882890161250c565b9150509295509295909350565b60008060008060608587031215612a5b57600080fd5b84359350612a6b60208601612411565b925060408501356001600160401b03811115612a8657600080fd5b612a9287828801612427565b95989497509550505050565b60008060008060808587031215612ab457600080fd5b84356001600160401b0380821115612acb57600080fd5b612ad7888389016126fd565b95506020870135915080821115612aed57600080fd5b612af988838901612771565b94506040870135915080821115612b0f57600080fd5b612b1b888389016127cc565b93506060870135915080821115612b3157600080fd5b508501601f81018713612b4357600080fd5b6126ce878235602084016124b5565b600080600060608486031215612b6757600080fd5b8335612b728161265a565b92506020840135915060408401356001600160401b03811115612b9457600080fd5b612ba08682870161250c565b9150509250925092565b600060208284031215612bbc57600080fd5b8135610f118161265a565b600080600080600060a08688031215612bdf57600080fd5b8535612bea8161265a565b94506020860135612bfa8161265a565b935060408601356001600160401b0380821115612c1657600080fd5b612c2289838a01612771565b94506060880135915080821115612c3857600080fd5b612c4489838a01612771565b93506080880135915080821115612a2b57600080fd5b60008060008060608587031215612c7057600080fd5b8435612c7b8161265a565b93506020850135925060408501356001600160401b03811115612a8657600080fd5b60008060408385031215612cb057600080fd5b8235612cbb8161265a565b946020939093013593505050565b600080600080600060a08688031215612ce157600080fd5b8535612cec8161265a565b94506020860135612cfc8161265a565b9350604086013592506060860135915060808601356001600160401b03811115612d2557600080fd5b612a388882890161250c565b8183823760009101908152919050565b602080825260189082015277476f7665726e6f723a206f6e6c79476f7665726e616e636560401b604082015260600190565b600181811c90821680612d8757607f821691505b602082108103612da757634e487b7160e01b600052602260045260246000fd5b50919050565b60208082526021908201527f476f7665726e6f723a2070726f706f73616c206e6f74207375636365737366756040820152601b60fa1b606082015260800190565b600060208284031215612e0057600080fd5b5051919050565b600081518084526020808501945080840160005b83811015612e405781516001600160a01b031687529582019590820190600101612e1b565b509495945050505050565b600081518084526020808501945080840160005b83811015612e4057815187529582019590820190600101612e5f565b600081518084526020808501808196508360051b8101915082860160005b85811015612ec3578284038952612eb184835161261b565b98850198935090840190600101612e99565b5091979650505050505050565b60a081526000612ee360a0830188612e07565b8281036020840152612ef58188612e4b565b90508281036040840152612f098187612e7b565b60608401959095525050608001529392505050565b60c081526000612f3160c0830189612e07565b8281036020840152612f438189612e4b565b90508281036040840152612f578188612e7b565b60608401969096525050608081019290925260a0909101529392505050565b634e487b7160e01b600052601160045260246000fd5b60008219821115612f9f57612f9f612f76565b500190565b608081526000612fb76080830187612e07565b8281036020840152612fc98187612e4b565b90508281036040840152612fdd8186612e7b565b91505082606083015295945050505050565b84815260ff84166020820152826040820152608060608201526000610dce608083018461261b565b85815260ff8516602082015283604082015260a06060820152600061303f60a083018561261b565b8281036080840152613051818561261b565b98975050505050505050565b634e487b7160e01b600052603260045260246000fd5b60006001820161308557613085612f76565b5060010190565b60006020828403121561309e57600080fd5b81518015158114610f1157600080fd5b6000828210156130c0576130c0612f76565b500390565b60208082526021908201527f476f7665726e6f723a20696e76616c69642070726f706f73616c206c656e67746040820152600d60fb1b606082015260800190565b60006001600160401b0382811684821680830382111561312857613128612f76565b01949350505050565b60006101208b8352602060018060a01b038c168185015281604085015261315a8285018c612e07565b9150838203606085015261316e828b612e4b565b915083820360808501528189518084528284019150828160051b850101838c0160005b838110156131bf57601f198784030185526131ad83835161261b565b94860194925090850190600101613191565b505086810360a08801526131d3818c612e7b565b9450505050506131ee60c08401876001600160401b03169052565b6001600160401b03851660e0840152828103610100840152613210818561261b565b9c9b505050505050505050505050565b600081600019048311821515161561323a5761323a612f76565b500290565b60008261325c57634e487b7160e01b600052601260045260246000fd5b500490565b600082516132738184602087016125eb565b919091019291505056fe150214d74d59b7d1e90c73fc22ef3d991dd0a76b046543d4d80ab92d2a50328fb3b3f3b703cd84ce352197dcff232b1b5d3cfb2025ce47cf04742d0651f1af88416464726573733a206c6f772d6c6576656c2063616c6c20776974682076616c7565206661696c6564a2646970667358221220b45d4cbf37241918f11f23680ca38118933820226dab233e87a7dbb9e19ea64464736f6c634300080e0033",
  "immutableReferences": {
    "7117": [
      {
        "length": 32,
        "start": 1824
      },
      {
        "length": 32,
        "start": 6310
      },
      {
        "length": 32,
        "start": 6591
      }
    ],
    "33049": [
      {
        "length": 32,
        "start": 6930
      }
    ],
    "33051": [
      {
        "length": 32,
        "start": 6888
      }
    ],
    "33053": [
      {
        "length": 32,
        "start": 6846
      }
    ],
    "33055": [
      {
        "length": 32,
        "start": 7013
      }
    ],
    "33057": [
      {
        "length": 32,
        "start": 7050
      }
    ],
    "33059": [
      {
        "length": 32,
        "start": 6971
      }
    ]
  },
  "source": "// SPDX-License-Identifier: MIT\r\npragma solidity ^0.8.2;\r\n\r\nimport \"../../governance/Governor.sol\";\r\nimport \"../../governance/extensions/GovernorCountingSimple.sol\";\r\nimport \"../../governance/extensions/GovernorVotes.sol\";\r\nimport \"../../governance/extensions/GovernorVotesQuorumFraction.sol\";\r\nimport \"../../governance/extensions/GovernorTimelockControl.sol\";\r\n\r\ncontract MyGovernor1 is\r\n    Governor,\r\n    GovernorTimelockControl,\r\n    GovernorVotes,\r\n    GovernorVotesQuorumFraction,\r\n    GovernorCountingSimple\r\n{\r\n    constructor(IVotes _token, TimelockController _timelock)\r\n        Governor(\"MyGovernor\")\r\n        GovernorVotes(_token)\r\n        GovernorVotesQuorumFraction(4)\r\n        GovernorTimelockControl(_timelock)\r\n    {}\r\n\r\n    function votingDelay() public pure override returns (uint256) {\r\n        return 1; // 1 block\r\n    }\r\n\r\n    function votingPeriod() public pure override returns (uint256) {\r\n        return 45818; // 1 week\r\n    }\r\n\r\n    // The following functions are overrides required by Solidity.\r\n\r\n    function quorum(uint256 blockNumber)\r\n        public\r\n        view\r\n        override(IGovernor, GovernorVotesQuorumFraction)\r\n        returns (uint256)\r\n    {\r\n        return super.quorum(blockNumber);\r\n    }\r\n\r\n    function state(uint256 proposalId) public view override(Governor, GovernorTimelockControl) returns (ProposalState) {\r\n        return super.state(proposalId);\r\n    }\r\n\r\n    function propose(\r\n        address[] memory targets,\r\n        uint256[] memory values,\r\n        bytes[] memory calldatas,\r\n        string memory description\r\n    ) public override(Governor, IGovernor) returns (uint256) {\r\n        return super.propose(targets, values, calldatas, description);\r\n    }\r\n\r\n    function _execute(\r\n        uint256 proposalId,\r\n        address[] memory targets,\r\n        uint256[] memory values,\r\n        bytes[] memory calldatas,\r\n        bytes32 descriptionHash\r\n    ) internal override(Governor, GovernorTimelockControl) {\r\n        super._execute(proposalId, targets, values, calldatas, descriptionHash);\r\n    }\r\n\r\n    function _cancel(\r\n        address[] memory targets,\r\n        uint256[] memory values,\r\n        bytes[] memory calldatas,\r\n        bytes32 descriptionHash\r\n    ) internal override(Governor, GovernorTimelockControl) returns (uint256) {\r\n        return super._cancel(targets, values, calldatas, descriptionHash);\r\n    }\r\n\r\n    function _executor() internal view override(Governor, GovernorTimelockControl) returns (address) {\r\n        return super._executor();\r\n    }\r\n\r\n    function supportsInterface(bytes4 interfaceId)\r\n        public\r\n        view\r\n        override(Governor, GovernorTimelockControl)\r\n        returns (bool)\r\n    {\r\n        return super.supportsInterface(interfaceId);\r\n    }\r\n}\r\n",
  "sourcePath": "D:\\work\\www\\yopu_dapp_nft\\contracts\\lib\\openzeppelin\\contracts\\mocks\\wizard\\MyGovernor1.sol",
  "compiler": {
    "name": "solc",
    "version": "0.8.14+commit.80d49f37.Emscripten.clang"
  },
  "schemaVersion": "3.4.7",
  "updatedAt": "2022-06-28T15:05:48.374Z",
  "devdoc": {
    "errors": {
      "Empty()": [
        {
          "details": "An operation (e.g. {front}) couldn't be completed due to the queue being empty."
        }
      ]
    },
    "kind": "dev",
    "methods": {
      "COUNTING_MODE()": {
        "details": "See {IGovernor-COUNTING_MODE}."
      },
      "castVote(uint256,uint8)": {
        "details": "See {IGovernor-castVote}."
      },
      "castVoteBySig(uint256,uint8,uint8,bytes32,bytes32)": {
        "details": "See {IGovernor-castVoteBySig}."
      },
      "castVoteWithReason(uint256,uint8,string)": {
        "details": "See {IGovernor-castVoteWithReason}."
      },
      "castVoteWithReasonAndParams(uint256,uint8,string,bytes)": {
        "details": "See {IGovernor-castVoteWithReasonAndParams}."
      },
      "castVoteWithReasonAndParamsBySig(uint256,uint8,string,bytes,uint8,bytes32,bytes32)": {
        "details": "See {IGovernor-castVoteWithReasonAndParamsBySig}."
      },
      "execute(address[],uint256[],bytes[],bytes32)": {
        "details": "See {IGovernor-execute}."
      },
      "getVotes(address,uint256)": {
        "details": "See {IGovernor-getVotes}."
      },
      "getVotesWithParams(address,uint256,bytes)": {
        "details": "See {IGovernor-getVotesWithParams}."
      },
      "hasVoted(uint256,address)": {
        "details": "See {IGovernor-hasVoted}."
      },
      "hashProposal(address[],uint256[],bytes[],bytes32)": {
        "details": "See {IGovernor-hashProposal}. The proposal id is produced by hashing the RLC encoded `targets` array, the `values` array, the `calldatas` array and the descriptionHash (bytes32 which itself is the keccak256 hash of the description string). This proposal id can be produced from the proposal data which is part of the {ProposalCreated} event. It can even be computed in advance, before the proposal is submitted. Note that the chainId and the governor address are not part of the proposal id computation. Consequently, the same proposal (with same operation and same description) will have the same id if submitted on multiple governors across multiple networks. This also means that in order to execute the same operation twice (on the same governor) the proposer will have to change the description in order to avoid proposal id conflicts."
      },
      "name()": {
        "details": "See {IGovernor-name}."
      },
      "onERC1155BatchReceived(address,address,uint256[],uint256[],bytes)": {
        "details": "See {IERC1155Receiver-onERC1155BatchReceived}."
      },
      "onERC1155Received(address,address,uint256,uint256,bytes)": {
        "details": "See {IERC1155Receiver-onERC1155Received}."
      },
      "onERC721Received(address,address,uint256,bytes)": {
        "details": "See {IERC721Receiver-onERC721Received}."
      },
      "proposalDeadline(uint256)": {
        "details": "See {IGovernor-proposalDeadline}."
      },
      "proposalEta(uint256)": {
        "details": "Public accessor to check the eta of a queued proposal"
      },
      "proposalSnapshot(uint256)": {
        "details": "See {IGovernor-proposalSnapshot}."
      },
      "proposalThreshold()": {
        "details": "Part of the Governor Bravo's interface: _\"The number of votes required in order for a voter to become a proposer\"_."
      },
      "proposalVotes(uint256)": {
        "details": "Accessor to the internal vote counts."
      },
      "queue(address[],uint256[],bytes[],bytes32)": {
        "details": "Function to queue a proposal to the timelock."
      },
      "quorumDenominator()": {
        "details": "Returns the quorum denominator. Defaults to 100, but may be overridden."
      },
      "quorumNumerator()": {
        "details": "Returns the current quorum numerator. See {quorumDenominator}."
      },
      "relay(address,uint256,bytes)": {
        "details": "Relays a transaction or function call to an arbitrary target. In cases where the governance executor is some contract other than the governor itself, like when using a timelock, this function can be invoked in a governance proposal to recover tokens or Ether that was sent to the governor contract by mistake. Note that if the executor is simply the governor itself, use of `relay` is redundant."
      },
      "timelock()": {
        "details": "Public accessor to check the address of the timelock"
      },
      "updateQuorumNumerator(uint256)": {
        "details": "Changes the quorum numerator. Emits a {QuorumNumeratorUpdated} event. Requirements: - Must be called through a governance proposal. - New numerator must be smaller or equal to the denominator."
      },
      "updateTimelock(address)": {
        "details": "Public endpoint to update the underlying timelock instance. Restricted to the timelock itself, so updates must be proposed, scheduled, and executed through governance proposals. CAUTION: It is not recommended to change the timelock while there are other queued governance proposals."
      },
      "version()": {
        "details": "See {IGovernor-version}."
      },
      "votingDelay()": {
        "details": "Delay, in number of block, between the proposal is created and the vote starts. This can be increassed to leave time for users to buy voting power, of delegate it, before the voting of a proposal starts."
      },
      "votingPeriod()": {
        "details": "Delay, in number of blocks, between the vote start and vote ends. NOTE: The {votingDelay} can delay the start of the vote. This must be considered when setting the voting duration compared to the voting delay."
      }
    },
    "version": 1
  },
  "userdoc": {
    "kind": "user",
    "methods": {
      "votingDelay()": {
        "notice": "module:user-config"
      },
      "votingPeriod()": {
        "notice": "module:user-config"
      }
    },
    "version": 1
  }
}