{
  "contractName": "MyGovernor",
  "abi": [
    {
      "inputs": [
        {
          "internalType": "contract IVotes",
          "name": "_token",
          "type": "address"
        },
        {
          "internalType": "contract TimelockController",
          "name": "_timelock",
          "type": "address"
        }
      ],
      "stateMutability": "nonpayable",
      "type": "constructor"
    },
    {
      "inputs": [],
      "name": "Empty",
      "type": "error"
    },
    {
      "anonymous": false,
      "inputs": [
        {
          "indexed": false,
          "internalType": "uint256",
          "name": "proposalId",
          "type": "uint256"
        }
      ],
      "name": "ProposalCanceled",
      "type": "event"
    },
    {
      "anonymous": false,
      "inputs": [
        {
          "indexed": false,
          "internalType": "uint256",
          "name": "proposalId",
          "type": "uint256"
        },
        {
          "indexed": false,
          "internalType": "address",
          "name": "proposer",
          "type": "address"
        },
        {
          "indexed": false,
          "internalType": "address[]",
          "name": "targets",
          "type": "address[]"
        },
        {
          "indexed": false,
          "internalType": "uint256[]",
          "name": "values",
          "type": "uint256[]"
        },
        {
          "indexed": false,
          "internalType": "string[]",
          "name": "signatures",
          "type": "string[]"
        },
        {
          "indexed": false,
          "internalType": "bytes[]",
          "name": "calldatas",
          "type": "bytes[]"
        },
        {
          "indexed": false,
          "internalType": "uint256",
          "name": "startBlock",
          "type": "uint256"
        },
        {
          "indexed": false,
          "internalType": "uint256",
          "name": "endBlock",
          "type": "uint256"
        },
        {
          "indexed": false,
          "internalType": "string",
          "name": "description",
          "type": "string"
        }
      ],
      "name": "ProposalCreated",
      "type": "event"
    },
    {
      "anonymous": false,
      "inputs": [
        {
          "indexed": false,
          "internalType": "uint256",
          "name": "proposalId",
          "type": "uint256"
        }
      ],
      "name": "ProposalExecuted",
      "type": "event"
    },
    {
      "anonymous": false,
      "inputs": [
        {
          "indexed": false,
          "internalType": "uint256",
          "name": "proposalId",
          "type": "uint256"
        },
        {
          "indexed": false,
          "internalType": "uint256",
          "name": "eta",
          "type": "uint256"
        }
      ],
      "name": "ProposalQueued",
      "type": "event"
    },
    {
      "anonymous": false,
      "inputs": [
        {
          "indexed": false,
          "internalType": "uint256",
          "name": "oldQuorumNumerator",
          "type": "uint256"
        },
        {
          "indexed": false,
          "internalType": "uint256",
          "name": "newQuorumNumerator",
          "type": "uint256"
        }
      ],
      "name": "QuorumNumeratorUpdated",
      "type": "event"
    },
    {
      "anonymous": false,
      "inputs": [
        {
          "indexed": false,
          "internalType": "address",
          "name": "oldTimelock",
          "type": "address"
        },
        {
          "indexed": false,
          "internalType": "address",
          "name": "newTimelock",
          "type": "address"
        }
      ],
      "name": "TimelockChange",
      "type": "event"
    },
    {
      "anonymous": false,
      "inputs": [
        {
          "indexed": true,
          "internalType": "address",
          "name": "voter",
          "type": "address"
        },
        {
          "indexed": false,
          "internalType": "uint256",
          "name": "proposalId",
          "type": "uint256"
        },
        {
          "indexed": false,
          "internalType": "uint8",
          "name": "support",
          "type": "uint8"
        },
        {
          "indexed": false,
          "internalType": "uint256",
          "name": "weight",
          "type": "uint256"
        },
        {
          "indexed": false,
          "internalType": "string",
          "name": "reason",
          "type": "string"
        }
      ],
      "name": "VoteCast",
      "type": "event"
    },
    {
      "anonymous": false,
      "inputs": [
        {
          "indexed": true,
          "internalType": "address",
          "name": "voter",
          "type": "address"
        },
        {
          "indexed": false,
          "internalType": "uint256",
          "name": "proposalId",
          "type": "uint256"
        },
        {
          "indexed": false,
          "internalType": "uint8",
          "name": "support",
          "type": "uint8"
        },
        {
          "indexed": false,
          "internalType": "uint256",
          "name": "weight",
          "type": "uint256"
        },
        {
          "indexed": false,
          "internalType": "string",
          "name": "reason",
          "type": "string"
        },
        {
          "indexed": false,
          "internalType": "bytes",
          "name": "params",
          "type": "bytes"
        }
      ],
      "name": "VoteCastWithParams",
      "type": "event"
    },
    {
      "inputs": [],
      "name": "BALLOT_TYPEHASH",
      "outputs": [
        {
          "internalType": "bytes32",
          "name": "",
          "type": "bytes32"
        }
      ],
      "stateMutability": "view",
      "type": "function"
    },
    {
      "inputs": [],
      "name": "COUNTING_MODE",
      "outputs": [
        {
          "internalType": "string",
          "name": "",
          "type": "string"
        }
      ],
      "stateMutability": "pure",
      "type": "function"
    },
    {
      "inputs": [],
      "name": "EXTENDED_BALLOT_TYPEHASH",
      "outputs": [
        {
          "internalType": "bytes32",
          "name": "",
          "type": "bytes32"
        }
      ],
      "stateMutability": "view",
      "type": "function"
    },
    {
      "inputs": [
        {
          "internalType": "uint256",
          "name": "proposalId",
          "type": "uint256"
        }
      ],
      "name": "cancel",
      "outputs": [],
      "stateMutability": "nonpayable",
      "type": "function"
    },
    {
      "inputs": [
        {
          "internalType": "uint256",
          "name": "proposalId",
          "type": "uint256"
        },
        {
          "internalType": "uint8",
          "name": "support",
          "type": "uint8"
        }
      ],
      "name": "castVote",
      "outputs": [
        {
          "internalType": "uint256",
          "name": "",
          "type": "uint256"
        }
      ],
      "stateMutability": "nonpayable",
      "type": "function"
    },
    {
      "inputs": [
        {
          "internalType": "uint256",
          "name": "proposalId",
          "type": "uint256"
        },
        {
          "internalType": "uint8",
          "name": "support",
          "type": "uint8"
        },
        {
          "internalType": "uint8",
          "name": "v",
          "type": "uint8"
        },
        {
          "internalType": "bytes32",
          "name": "r",
          "type": "bytes32"
        },
        {
          "internalType": "bytes32",
          "name": "s",
          "type": "bytes32"
        }
      ],
      "name": "castVoteBySig",
      "outputs": [
        {
          "internalType": "uint256",
          "name": "",
          "type": "uint256"
        }
      ],
      "stateMutability": "nonpayable",
      "type": "function"
    },
    {
      "inputs": [
        {
          "internalType": "uint256",
          "name": "proposalId",
          "type": "uint256"
        },
        {
          "internalType": "uint8",
          "name": "support",
          "type": "uint8"
        },
        {
          "internalType": "string",
          "name": "reason",
          "type": "string"
        }
      ],
      "name": "castVoteWithReason",
      "outputs": [
        {
          "internalType": "uint256",
          "name": "",
          "type": "uint256"
        }
      ],
      "stateMutability": "nonpayable",
      "type": "function"
    },
    {
      "inputs": [
        {
          "internalType": "uint256",
          "name": "proposalId",
          "type": "uint256"
        },
        {
          "internalType": "uint8",
          "name": "support",
          "type": "uint8"
        },
        {
          "internalType": "string",
          "name": "reason",
          "type": "string"
        },
        {
          "internalType": "bytes",
          "name": "params",
          "type": "bytes"
        }
      ],
      "name": "castVoteWithReasonAndParams",
      "outputs": [
        {
          "internalType": "uint256",
          "name": "",
          "type": "uint256"
        }
      ],
      "stateMutability": "nonpayable",
      "type": "function"
    },
    {
      "inputs": [
        {
          "internalType": "uint256",
          "name": "proposalId",
          "type": "uint256"
        },
        {
          "internalType": "uint8",
          "name": "support",
          "type": "uint8"
        },
        {
          "internalType": "string",
          "name": "reason",
          "type": "string"
        },
        {
          "internalType": "bytes",
          "name": "params",
          "type": "bytes"
        },
        {
          "internalType": "uint8",
          "name": "v",
          "type": "uint8"
        },
        {
          "internalType": "bytes32",
          "name": "r",
          "type": "bytes32"
        },
        {
          "internalType": "bytes32",
          "name": "s",
          "type": "bytes32"
        }
      ],
      "name": "castVoteWithReasonAndParamsBySig",
      "outputs": [
        {
          "internalType": "uint256",
          "name": "",
          "type": "uint256"
        }
      ],
      "stateMutability": "nonpayable",
      "type": "function"
    },
    {
      "inputs": [
        {
          "internalType": "address[]",
          "name": "targets",
          "type": "address[]"
        },
        {
          "internalType": "uint256[]",
          "name": "values",
          "type": "uint256[]"
        },
        {
          "internalType": "bytes[]",
          "name": "calldatas",
          "type": "bytes[]"
        },
        {
          "internalType": "bytes32",
          "name": "descriptionHash",
          "type": "bytes32"
        }
      ],
      "name": "execute",
      "outputs": [
        {
          "internalType": "uint256",
          "name": "",
          "type": "uint256"
        }
      ],
      "stateMutability": "payable",
      "type": "function"
    },
    {
      "inputs": [
        {
          "internalType": "uint256",
          "name": "proposalId",
          "type": "uint256"
        }
      ],
      "name": "execute",
      "outputs": [],
      "stateMutability": "payable",
      "type": "function"
    },
    {
      "inputs": [
        {
          "internalType": "uint256",
          "name": "proposalId",
          "type": "uint256"
        }
      ],
      "name": "getActions",
      "outputs": [
        {
          "internalType": "address[]",
          "name": "targets",
          "type": "address[]"
        },
        {
          "internalType": "uint256[]",
          "name": "values",
          "type": "uint256[]"
        },
        {
          "internalType": "string[]",
          "name": "signatures",
          "type": "string[]"
        },
        {
          "internalType": "bytes[]",
          "name": "calldatas",
          "type": "bytes[]"
        }
      ],
      "stateMutability": "view",
      "type": "function"
    },
    {
      "inputs": [
        {
          "internalType": "uint256",
          "name": "proposalId",
          "type": "uint256"
        },
        {
          "internalType": "address",
          "name": "voter",
          "type": "address"
        }
      ],
      "name": "getReceipt",
      "outputs": [
        {
          "components": [
            {
              "internalType": "bool",
              "name": "hasVoted",
              "type": "bool"
            },
            {
              "internalType": "uint8",
              "name": "support",
              "type": "uint8"
            },
            {
              "internalType": "uint96",
              "name": "votes",
              "type": "uint96"
            }
          ],
          "internalType": "struct IGovernorCompatibilityBravo.Receipt",
          "name": "",
          "type": "tuple"
        }
      ],
      "stateMutability": "view",
      "type": "function"
    },
    {
      "inputs": [
        {
          "internalType": "address",
          "name": "account",
          "type": "address"
        },
        {
          "internalType": "uint256",
          "name": "blockNumber",
          "type": "uint256"
        }
      ],
      "name": "getVotes",
      "outputs": [
        {
          "internalType": "uint256",
          "name": "",
          "type": "uint256"
        }
      ],
      "stateMutability": "view",
      "type": "function"
    },
    {
      "inputs": [
        {
          "internalType": "address",
          "name": "account",
          "type": "address"
        },
        {
          "internalType": "uint256",
          "name": "blockNumber",
          "type": "uint256"
        },
        {
          "internalType": "bytes",
          "name": "params",
          "type": "bytes"
        }
      ],
      "name": "getVotesWithParams",
      "outputs": [
        {
          "internalType": "uint256",
          "name": "",
          "type": "uint256"
        }
      ],
      "stateMutability": "view",
      "type": "function"
    },
    {
      "inputs": [
        {
          "internalType": "uint256",
          "name": "proposalId",
          "type": "uint256"
        },
        {
          "internalType": "address",
          "name": "account",
          "type": "address"
        }
      ],
      "name": "hasVoted",
      "outputs": [
        {
          "internalType": "bool",
          "name": "",
          "type": "bool"
        }
      ],
      "stateMutability": "view",
      "type": "function"
    },
    {
      "inputs": [
        {
          "internalType": "address[]",
          "name": "targets",
          "type": "address[]"
        },
        {
          "internalType": "uint256[]",
          "name": "values",
          "type": "uint256[]"
        },
        {
          "internalType": "bytes[]",
          "name": "calldatas",
          "type": "bytes[]"
        },
        {
          "internalType": "bytes32",
          "name": "descriptionHash",
          "type": "bytes32"
        }
      ],
      "name": "hashProposal",
      "outputs": [
        {
          "internalType": "uint256",
          "name": "",
          "type": "uint256"
        }
      ],
      "stateMutability": "pure",
      "type": "function"
    },
    {
      "inputs": [],
      "name": "name",
      "outputs": [
        {
          "internalType": "string",
          "name": "",
          "type": "string"
        }
      ],
      "stateMutability": "view",
      "type": "function"
    },
    {
      "inputs": [
        {
          "internalType": "address",
          "name": "",
          "type": "address"
        },
        {
          "internalType": "address",
          "name": "",
          "type": "address"
        },
        {
          "internalType": "uint256[]",
          "name": "",
          "type": "uint256[]"
        },
        {
          "internalType": "uint256[]",
          "name": "",
          "type": "uint256[]"
        },
        {
          "internalType": "bytes",
          "name": "",
          "type": "bytes"
        }
      ],
      "name": "onERC1155BatchReceived",
      "outputs": [
        {
          "internalType": "bytes4",
          "name": "",
          "type": "bytes4"
        }
      ],
      "stateMutability": "nonpayable",
      "type": "function"
    },
    {
      "inputs": [
        {
          "internalType": "address",
          "name": "",
          "type": "address"
        },
        {
          "internalType": "address",
          "name": "",
          "type": "address"
        },
        {
          "internalType": "uint256",
          "name": "",
          "type": "uint256"
        },
        {
          "internalType": "uint256",
          "name": "",
          "type": "uint256"
        },
        {
          "internalType": "bytes",
          "name": "",
          "type": "bytes"
        }
      ],
      "name": "onERC1155Received",
      "outputs": [
        {
          "internalType": "bytes4",
          "name": "",
          "type": "bytes4"
        }
      ],
      "stateMutability": "nonpayable",
      "type": "function"
    },
    {
      "inputs": [
        {
          "internalType": "address",
          "name": "",
          "type": "address"
        },
        {
          "internalType": "address",
          "name": "",
          "type": "address"
        },
        {
          "internalType": "uint256",
          "name": "",
          "type": "uint256"
        },
        {
          "internalType": "bytes",
          "name": "",
          "type": "bytes"
        }
      ],
      "name": "onERC721Received",
      "outputs": [
        {
          "internalType": "bytes4",
          "name": "",
          "type": "bytes4"
        }
      ],
      "stateMutability": "nonpayable",
      "type": "function"
    },
    {
      "inputs": [
        {
          "internalType": "uint256",
          "name": "proposalId",
          "type": "uint256"
        }
      ],
      "name": "proposalDeadline",
      "outputs": [
        {
          "internalType": "uint256",
          "name": "",
          "type": "uint256"
        }
      ],
      "stateMutability": "view",
      "type": "function"
    },
    {
      "inputs": [
        {
          "internalType": "uint256",
          "name": "proposalId",
          "type": "uint256"
        }
      ],
      "name": "proposalEta",
      "outputs": [
        {
          "internalType": "uint256",
          "name": "",
          "type": "uint256"
        }
      ],
      "stateMutability": "view",
      "type": "function"
    },
    {
      "inputs": [
        {
          "internalType": "uint256",
          "name": "proposalId",
          "type": "uint256"
        }
      ],
      "name": "proposalSnapshot",
      "outputs": [
        {
          "internalType": "uint256",
          "name": "",
          "type": "uint256"
        }
      ],
      "stateMutability": "view",
      "type": "function"
    },
    {
      "inputs": [
        {
          "internalType": "uint256",
          "name": "proposalId",
          "type": "uint256"
        }
      ],
      "name": "proposals",
      "outputs": [
        {
          "internalType": "uint256",
          "name": "id",
          "type": "uint256"
        },
        {
          "internalType": "address",
          "name": "proposer",
          "type": "address"
        },
        {
          "internalType": "uint256",
          "name": "eta",
          "type": "uint256"
        },
        {
          "internalType": "uint256",
          "name": "startBlock",
          "type": "uint256"
        },
        {
          "internalType": "uint256",
          "name": "endBlock",
          "type": "uint256"
        },
        {
          "internalType": "uint256",
          "name": "forVotes",
          "type": "uint256"
        },
        {
          "internalType": "uint256",
          "name": "againstVotes",
          "type": "uint256"
        },
        {
          "internalType": "uint256",
          "name": "abstainVotes",
          "type": "uint256"
        },
        {
          "internalType": "bool",
          "name": "canceled",
          "type": "bool"
        },
        {
          "internalType": "bool",
          "name": "executed",
          "type": "bool"
        }
      ],
      "stateMutability": "view",
      "type": "function"
    },
    {
      "inputs": [
        {
          "internalType": "address[]",
          "name": "targets",
          "type": "address[]"
        },
        {
          "internalType": "uint256[]",
          "name": "values",
          "type": "uint256[]"
        },
        {
          "internalType": "bytes[]",
          "name": "calldatas",
          "type": "bytes[]"
        },
        {
          "internalType": "bytes32",
          "name": "descriptionHash",
          "type": "bytes32"
        }
      ],
      "name": "queue",
      "outputs": [
        {
          "internalType": "uint256",
          "name": "",
          "type": "uint256"
        }
      ],
      "stateMutability": "nonpayable",
      "type": "function"
    },
    {
      "inputs": [
        {
          "internalType": "uint256",
          "name": "proposalId",
          "type": "uint256"
        }
      ],
      "name": "queue",
      "outputs": [],
      "stateMutability": "nonpayable",
      "type": "function"
    },
    {
      "inputs": [],
      "name": "quorumDenominator",
      "outputs": [
        {
          "internalType": "uint256",
          "name": "",
          "type": "uint256"
        }
      ],
      "stateMutability": "view",
      "type": "function"
    },
    {
      "inputs": [],
      "name": "quorumNumerator",
      "outputs": [
        {
          "internalType": "uint256",
          "name": "",
          "type": "uint256"
        }
      ],
      "stateMutability": "view",
      "type": "function"
    },
    {
      "inputs": [],
      "name": "quorumVotes",
      "outputs": [
        {
          "internalType": "uint256",
          "name": "",
          "type": "uint256"
        }
      ],
      "stateMutability": "view",
      "type": "function"
    },
    {
      "inputs": [
        {
          "internalType": "address",
          "name": "target",
          "type": "address"
        },
        {
          "internalType": "uint256",
          "name": "value",
          "type": "uint256"
        },
        {
          "internalType": "bytes",
          "name": "data",
          "type": "bytes"
        }
      ],
      "name": "relay",
      "outputs": [],
      "stateMutability": "nonpayable",
      "type": "function"
    },
    {
      "inputs": [],
      "name": "timelock",
      "outputs": [
        {
          "internalType": "address",
          "name": "",
          "type": "address"
        }
      ],
      "stateMutability": "view",
      "type": "function"
    },
    {
      "inputs": [],
      "name": "token",
      "outputs": [
        {
          "internalType": "contract IVotes",
          "name": "",
          "type": "address"
        }
      ],
      "stateMutability": "view",
      "type": "function"
    },
    {
      "inputs": [
        {
          "internalType": "uint256",
          "name": "newQuorumNumerator",
          "type": "uint256"
        }
      ],
      "name": "updateQuorumNumerator",
      "outputs": [],
      "stateMutability": "nonpayable",
      "type": "function"
    },
    {
      "inputs": [
        {
          "internalType": "contract TimelockController",
          "name": "newTimelock",
          "type": "address"
        }
      ],
      "name": "updateTimelock",
      "outputs": [],
      "stateMutability": "nonpayable",
      "type": "function"
    },
    {
      "inputs": [],
      "name": "version",
      "outputs": [
        {
          "internalType": "string",
          "name": "",
          "type": "string"
        }
      ],
      "stateMutability": "view",
      "type": "function"
    },
    {
      "stateMutability": "payable",
      "type": "receive"
    },
    {
      "inputs": [],
      "name": "votingDelay",
      "outputs": [
        {
          "internalType": "uint256",
          "name": "",
          "type": "uint256"
        }
      ],
      "stateMutability": "pure",
      "type": "function"
    },
    {
      "inputs": [],
      "name": "votingPeriod",
      "outputs": [
        {
          "internalType": "uint256",
          "name": "",
          "type": "uint256"
        }
      ],
      "stateMutability": "pure",
      "type": "function"
    },
    {
      "inputs": [],
      "name": "proposalThreshold",
      "outputs": [
        {
          "internalType": "uint256",
          "name": "",
          "type": "uint256"
        }
      ],
      "stateMutability": "pure",
      "type": "function"
    },
    {
      "inputs": [
        {
          "internalType": "uint256",
          "name": "blockNumber",
          "type": "uint256"
        }
      ],
      "name": "quorum",
      "outputs": [
        {
          "internalType": "uint256",
          "name": "",
          "type": "uint256"
        }
      ],
      "stateMutability": "view",
      "type": "function"
    },
    {
      "inputs": [
        {
          "internalType": "uint256",
          "name": "proposalId",
          "type": "uint256"
        }
      ],
      "name": "state",
      "outputs": [
        {
          "internalType": "enum IGovernor.ProposalState",
          "name": "",
          "type": "uint8"
        }
      ],
      "stateMutability": "view",
      "type": "function"
    },
    {
      "inputs": [
        {
          "internalType": "address[]",
          "name": "targets",
          "type": "address[]"
        },
        {
          "internalType": "uint256[]",
          "name": "values",
          "type": "uint256[]"
        },
        {
          "internalType": "bytes[]",
          "name": "calldatas",
          "type": "bytes[]"
        },
        {
          "internalType": "string",
          "name": "description",
          "type": "string"
        }
      ],
      "name": "propose",
      "outputs": [
        {
          "internalType": "uint256",
          "name": "",
          "type": "uint256"
        }
      ],
      "stateMutability": "nonpayable",
      "type": "function"
    },
    {
      "inputs": [
        {
          "internalType": "address[]",
          "name": "targets",
          "type": "address[]"
        },
        {
          "internalType": "uint256[]",
          "name": "values",
          "type": "uint256[]"
        },
        {
          "internalType": "string[]",
          "name": "signatures",
          "type": "string[]"
        },
        {
          "internalType": "bytes[]",
          "name": "calldatas",
          "type": "bytes[]"
        },
        {
          "internalType": "string",
          "name": "description",
          "type": "string"
        }
      ],
      "name": "propose",
      "outputs": [
        {
          "internalType": "uint256",
          "name": "",
          "type": "uint256"
        }
      ],
      "stateMutability": "nonpayable",
      "type": "function"
    },
    {
      "inputs": [
        {
          "internalType": "bytes4",
          "name": "interfaceId",
          "type": "bytes4"
        }
      ],
      "name": "supportsInterface",
      "outputs": [
        {
          "internalType": "bool",
          "name": "",
          "type": "bool"
        }
      ],
      "stateMutability": "view",
      "type": "function"
    }
  ],
  "bytecode": "0x6101606040523480156200001257600080fd5b5060405162004cd638038062004cd6833981016040819052620000359162000353565b600482826040518060400160405280600a81526020016926bca3b7bb32b93737b960b11b815250806200006d6200014360201b60201c565b815160208084019190912082518383012060e08290526101008190524660a0818152604080517f8b73c3c69bb8fe3d512ecc4cf759cc79239f7b179b0ffacaa9a75d522b39400f81880181905281830187905260608201869052608082019490945230818401528151808203909301835260c00190528051940193909320919290916080523060c052610120525050825162000113925060009150602084019062000294565b50620001219050816200015e565b506001600160a01b0316610140526200013a81620001c7565b505050620003ce565b6040805180820190915260018152603160f81b602082015290565b600454604080516001600160a01b03928316815291831660208301527f08f74ea46ef7894f65eabfb5e6e695de773a000b47c529ab559178069b226401910160405180910390a1600480546001600160a01b0319166001600160a01b0392909216919091179055565b60648111156200024f5760405162461bcd60e51b815260206004820152604360248201527f476f7665726e6f72566f74657351756f72756d4672616374696f6e3a2071756f60448201527f72756d4e756d657261746f72206f7665722071756f72756d44656e6f6d696e616064820152623a37b960e91b608482015260a40160405180910390fd5b600780549082905560408051828152602081018490527f0553476bf02ef2726e8ce5ced78d63e26e602e4a2257b1f559418e24b4633997910160405180910390a15050565b828054620002a29062000392565b90600052602060002090601f016020900481019282620002c6576000855562000311565b82601f10620002e157805160ff191683800117855562000311565b8280016001018555821562000311579182015b8281111562000311578251825591602001919060010190620002f4565b506200031f92915062000323565b5090565b5b808211156200031f576000815560010162000324565b6001600160a01b03811681146200035057600080fd5b50565b600080604083850312156200036757600080fd5b825162000374816200033a565b602084015190925062000387816200033a565b809150509250929050565b600181811c90821680620003a757607f821691505b602082108103620003c857634e487b7160e01b600052602260045260246000fd5b50919050565b60805160a05160c05160e05161010051610120516101405161489f62000437600039600081816109020152818161251a01526126f00152600061286c015260006128bb01526000612896015260006127ef0152600061281901526000612843015261489f6000f3fe6080604052600436106101fb5760003560e01c8063013cf08b1461022357806301ffc9a71461029e57806302a251a3146102ce57806303420181146102ed57806306f3f9e61461030d57806306fdde031461032d578063150b7a021461034f578063160cbed71461038857806324bc1a64146103a85780632656227d146103bd5780632d63f693146103d05780632fe3e261146103f0578063328dd982146104125780633932abb1146104425780633bccf4fd146104565780633e4f49e61461047657806340e58ee5146104a357806343859632146104c357806354fd4d501461050d57806356781388146105375780635f398a14146105575780637b3c71d3146105775780637d5e81e21461059757806397c3d334146105b75780639a802a6d146105cb578063a7713a70146105eb578063a890c91014610600578063ab58fb8e14610620578063b58131b014610640578063bc197c811461065c578063c01f9e3714610688578063c28bc2fa146106a8578063c59057e4146106c8578063d33219b4146106e8578063da95691a14610715578063dd4e2ba514610735578063ddf0b00914610778578063deaaa7cc14610798578063e23a9a52146107ba578063eb9019d414610884578063f23a6e61146108a4578063f8ce560a146108d0578063fc0c546a146108f0578063fe0d94c11461092457600080fd5b3661021e5730610209610937565b6001600160a01b03161461021c57600080fd5b005b600080fd5b34801561022f57600080fd5b5061024361023e366004613834565b610946565b604080519a8b526001600160a01b0390991660208b0152978901969096526060880194909452608087019290925260a086015260c085015260e084015215156101008301521515610120820152610140015b60405180910390f35b3480156102aa57600080fd5b506102be6102b936600461384d565b6109f0565b6040519015158152602001610295565b3480156102da57600080fd5b5061b2fa5b604051908152602001610295565b3480156102f957600080fd5b506102df61030836600461398a565b610a01565b34801561031957600080fd5b5061021c610328366004613834565b610ae7565b34801561033957600080fd5b50610342610b7a565b6040516102959190613a8c565b34801561035b57600080fd5b5061036f61036a366004613ab4565b610c0c565b6040516001600160e01b03199091168152602001610295565b34801561039457600080fd5b506102df6103a3366004613c90565b610c1d565b3480156103b457600080fd5b506102df610e28565b6102df6103cb366004613c90565b610e38565b3480156103dc57600080fd5b506102df6103eb366004613834565b610f25565b3480156103fc57600080fd5b506102df60008051602061482183398151915281565b34801561041e57600080fd5b5061043261042d366004613834565b610f5c565b6040516102959493929190613de8565b34801561044e57600080fd5b5060016102df565b34801561046257600080fd5b506102df610471366004613e35565b6111ed565b34801561048257600080fd5b50610496610491366004613834565b611251565b6040516102959190613e99565b3480156104af57600080fd5b5061021c6104be366004613834565b61125c565b3480156104cf57600080fd5b506102be6104de366004613ec1565b60008281526006602090815260408083206001600160a01b038516845260080190915290205460ff1692915050565b34801561051957600080fd5b506040805180820190915260018152603160f81b6020820152610342565b34801561054357600080fd5b506102df610552366004613ef1565b611576565b34801561056357600080fd5b506102df610572366004613f1d565b611597565b34801561058357600080fd5b506102df610592366004613fa0565b6115e1565b3480156105a357600080fd5b506102df6105b2366004613ff9565b611633565b3480156105c357600080fd5b5060646102df565b3480156105d757600080fd5b506102df6105e6366004614099565b61164a565b3480156105f757600080fd5b506007546102df565b34801561060c57600080fd5b5061021c61061b3660046140f1565b611657565b34801561062c57600080fd5b506102df61063b366004613834565b6116de565b34801561064c57600080fd5b50683635c9adc5dea000006102df565b34801561066857600080fd5b5061036f61067736600461410e565b63bc197c8160e01b95945050505050565b34801561069457600080fd5b506102df6106a3366004613834565b611773565b3480156106b457600080fd5b5061021c6106c33660046141a1565b6117a2565b3480156106d457600080fd5b506102df6106e3366004613c90565b611869565b3480156106f457600080fd5b506106fd6118a3565b6040516001600160a01b039091168152602001610295565b34801561072157600080fd5b506102df610730366004614263565b6118b2565b34801561074157600080fd5b5060408051808201909152601a815279737570706f72743d627261766f2671756f72756d3d627261766f60301b6020820152610342565b34801561078457600080fd5b5061021c610793366004613834565b6118d7565b3480156107a457600080fd5b506102df60008051602061480183398151915281565b3480156107c657600080fd5b506108546107d5366004613ec1565b60408051606081018252600080825260208201819052918101919091525060009182526006602090815260408084206001600160a01b0393909316845260089092018152918190208151606081018352905460ff8082161515835261010082041693820193909352620100009092046001600160601b03169082015290565b6040805182511515815260208084015160ff1690820152918101516001600160601b031690820152606001610295565b34801561089057600080fd5b506102df61089f366004614304565b611b45565b3480156108b057600080fd5b5061036f6108bf366004614330565b63f23a6e6160e01b95945050505050565b3480156108dc57600080fd5b506102df6108eb366004613834565b611b66565b3480156108fc57600080fd5b506106fd7f000000000000000000000000000000000000000000000000000000000000000081565b61021c610932366004613834565b611b71565b60006109416118a3565b905090565b806000808080808080808061095a8a6116de565b97506109658b610f25565b96506109708b611773565b60008c81526006602081905260408220805460058201549282015460078301546001600160a01b039092169e50949a5091985092965094506109b18d611251565b905060028160078111156109c7576109c7613e83565b14935060078160078111156109de576109de613e83565b14925050509193959799509193959799565b60006109fb82611ddf565b92915050565b600080610a93610a8b6000805160206148218339815191528c8c8c8c604051610a2b929190614398565b60405180910390208b80519060200120604051602001610a70959493929190948552602085019390935260ff9190911660408401526060830152608082015260a00190565b60405160208183030381529060405280519060200120611e04565b868686611e52565b9050610ad98a828b8b8b8080601f0160208091040260200160405190810160405280939291908181526020018383808284376000920191909152508d9250611e70915050565b9a9950505050505050505050565b610aef610937565b6001600160a01b0316336001600160a01b031614610b285760405162461bcd60e51b8152600401610b1f906143a8565b60405180910390fd5b30610b31610937565b6001600160a01b031614610b6e5760008036604051610b51929190614398565b604051809103902090505b80610b676002611fd5565b03610b5c57505b610b778161203b565b50565b606060008054610b89906143da565b80601f0160208091040260200160405190810160405280929190818152602001828054610bb5906143da565b8015610c025780601f10610bd757610100808354040283529160200191610c02565b820191906000526020600020905b815481529060010190602001808311610be557829003601f168201915b5050505050905090565b630a85bd0160e11b5b949350505050565b600080610c2c86868686611869565b90506004610c3982611251565b6007811115610c4a57610c4a613e83565b14610c675760405162461bcd60e51b8152600401610b1f90614414565b6000600460009054906101000a90046001600160a01b03166001600160a01b031663f27a0c926040518163ffffffff1660e01b8152600401602060405180830381865afa158015610cbc573d6000803e3d6000fd5b505050506040513d601f19601f82011682018060405250810190610ce09190614455565b6004805460405163b1c5f42760e01b81529293506001600160a01b03169163b1c5f42791610d19918b918b918b916000918c910161446e565b602060405180830381865afa158015610d36573d6000803e3d6000fd5b505050506040513d601f19601f82011682018060405250810190610d5a9190614455565b600083815260056020526040808220929092556004805492516308f2a0bb60e41b81526001600160a01b0390931692638f2a0bb092610da5928c928c928c9290918c918a91016144bc565b600060405180830381600087803b158015610dbf57600080fd5b505af1158015610dd3573d6000803e3d6000fd5b505050507f9a2e42fd6722813d69113e7d0079d3d940171428df7373df9c7f7617cfda2892828242610e05919061452a565b604080519283526020830191909152015b60405180910390a15095945050505050565b60006109416108eb600143614542565b600080610e4786868686611869565b90506000610e5482611251565b90506004816007811115610e6a57610e6a613e83565b1480610e8757506005816007811115610e8557610e85613e83565b145b610ea35760405162461bcd60e51b8152600401610b1f90614414565b600082815260016020818152604092839020600201805460ff191690921790915590518381527f712ae1383f79ac853f8d882153778e0260ef8f03b504e2866e0593e04d2b291f910160405180910390a1610f018288888888612103565b610f0e82888888886121a4565b610f1b82888888886121b1565b5095945050505050565b60008181526001602090815260408083208151928301909152546001600160401b0316908190525b6001600160401b031692915050565b60608060608060006006600087815260200190815260200160002090508060010181600201826003018360040183805480602002602001604051908101604052809291908181526020018280548015610fde57602002820191906000526020600020905b81546001600160a01b03168152600190910190602001808311610fc0575b505050505093508280548060200260200160405190810160405280929190818152602001828054801561103057602002820191906000526020600020905b81548152602001906001019080831161101c575b5050505050925081805480602002602001604051908101604052809291908181526020016000905b82821015611104578382906000526020600020018054611077906143da565b80601f01602080910402602001604051908101604052809291908181526020018280546110a3906143da565b80156110f05780601f106110c5576101008083540402835291602001916110f0565b820191906000526020600020905b8154815290600101906020018083116110d357829003601f168201915b505050505081526020019060010190611058565b50505050915080805480602002602001604051908101604052809291908181526020016000905b828210156111d757838290600052602060002001805461114a906143da565b80601f0160208091040260200160405190810160405280929190818152602001828054611176906143da565b80156111c35780601f10611198576101008083540402835291602001916111c3565b820191906000526020600020905b8154815290600101906020018083116111a657829003601f168201915b50505050508152602001906001019061112b565b5050505090509450945094509450509193509193565b60408051600080516020614801833981519152602082015290810186905260ff85166060820152600090819061122990610a8b90608001610a70565b9050611246878288604051806020016040528060008152506121e0565b979650505050505050565b60006109fb82612203565b600081815260066020526040902080546001600160a01b0316336001600160a01b031614806112ac5750683635c9adc5dea0000081546112aa906001600160a01b031661089f600143614542565b105b6113085760405162461bcd60e51b815260206004820152602760248201527f476f7665726e6f72427261766f3a2070726f706f7365722061626f76652074686044820152661c995cda1bdb1960ca1b6064820152608401610b1f565b6115718160010180548060200260200160405190810160405280929190818152602001828054801561136357602002820191906000526020600020905b81546001600160a01b03168152600190910190602001808311611345575b5050505050826002018054806020026020016040519081016040528092919081815260200182805480156113b657602002820191906000526020600020905b8154815260200190600101908083116113a2575b505050505061156784600301805480602002602001604051908101604052809291908181526020016000905b8282101561148e578382906000526020600020018054611401906143da565b80601f016020809104026020016040519081016040528092919081815260200182805461142d906143da565b801561147a5780601f1061144f5761010080835404028352916020019161147a565b820191906000526020600020905b81548152906001019060200180831161145d57829003601f168201915b5050505050815260200190600101906113e2565b50505060048701805460408051602080840282018101909252828152935060009084015b8282101561155e5783829060005260206000200180546114d1906143da565b80601f01602080910402602001604051908101604052809291908181526020018280546114fd906143da565b801561154a5780601f1061151f5761010080835404028352916020019161154a565b820191906000526020600020905b81548152906001019060200180831161152d57829003601f168201915b5050505050815260200190600101906114b2565b50505050612349565b846009015461247b565b505050565b600080339050610c15848285604051806020016040528060008152506121e0565b60008033905061124687828888888080601f0160208091040260200160405190810160405280939291908181526020018383808284376000920191909152508a9250611e70915050565b60008033905061162986828787878080601f0160208091040260200160405190810160405280939291908181526020018383808284376000920191909152506121e092505050565b9695505050505050565b600061164185858585612489565b95945050505050565b6000610c158484846124f1565b61165f610937565b6001600160a01b0316336001600160a01b03161461168f5760405162461bcd60e51b8152600401610b1f906143a8565b30611698610937565b6001600160a01b0316146116d557600080366040516116b8929190614398565b604051809103902090505b806116ce6002611fd5565b036116c357505b610b7781612587565b6004805460008381526005602052604080822054905163d45c443560e01b8152938401529182916001600160a01b03169063d45c443590602401602060405180830381865afa158015611735573d6000803e3d6000fd5b505050506040513d601f19601f820116820180604052508101906117599190614455565b905080600114611769578061176c565b60005b9392505050565b60008181526001602081815260408084208151928301909152909101546001600160401b031690819052610f4d565b6117aa610937565b6001600160a01b0316336001600160a01b0316146117da5760405162461bcd60e51b8152600401610b1f906143a8565b306117e3610937565b6001600160a01b0316146118205760008036604051611803929190614398565b604051809103902090505b806118196002611fd5565b0361180e57505b6118628483838080601f0160208091040260200160405190810160405280939291908181526020018383808284376000920191909152508892506125f0915050565b5050505050565b6000848484846040516020016118829493929190614559565b60408051601f19818403018152919052805160209091012095945050505050565b6004546001600160a01b031690565b60006118c2338787878787612616565b61162986866118d18787612349565b85611633565b60008181526006602090815260409182902060018101805484518185028101850190955280855291936115719390929083018282801561194057602002820191906000526020600020905b81546001600160a01b03168152600190910190602001808311611922575b50505050508260020180548060200260200160405190810160405280929190818152602001828054801561199357602002820191906000526020600020905b81548152602001906001019080831161197f575b5050505050611b3b84600301805480602002602001604051908101604052809291908181526020016000905b82821015611a6b5783829060005260206000200180546119de906143da565b80601f0160208091040260200160405190810160405280929190818152602001828054611a0a906143da565b8015611a575780601f10611a2c57610100808354040283529160200191611a57565b820191906000526020600020905b815481529060010190602001808311611a3a57829003601f168201915b5050505050815260200190600101906119bf565b50505060048701805460408051602080840282018101909252828152935060009084015b8282101561155e578382906000526020600020018054611aae906143da565b80601f0160208091040260200160405190810160405280929190818152602001828054611ada906143da565b8015611b275780601f10611afc57610100808354040283529160200191611b27565b820191906000526020600020905b815481529060010190602001808311611b0a57829003601f168201915b505050505081526020019060010190611a8f565b8460090154610c1d565b600061176c8383611b6160408051602081019091526000815290565b6124f1565b60006109fb826126d3565b600081815260066020908152604091829020600181018054845181850281018501909552808552919361157193909290830182828015611bda57602002820191906000526020600020905b81546001600160a01b03168152600190910190602001808311611bbc575b505050505082600201805480602002602001604051908101604052809291908181526020018280548015611c2d57602002820191906000526020600020905b815481526020019060010190808311611c19575b5050505050611dd584600301805480602002602001604051908101604052809291908181526020016000905b82821015611d05578382906000526020600020018054611c78906143da565b80601f0160208091040260200160405190810160405280929190818152602001828054611ca4906143da565b8015611cf15780601f10611cc657610100808354040283529160200191611cf1565b820191906000526020600020905b815481529060010190602001808311611cd457829003601f168201915b505050505081526020019060010190611c59565b50505060048701805460408051602080840282018101909252828152935060009084015b8282101561155e578382906000526020600020018054611d48906143da565b80601f0160208091040260200160405190810160405280929190818152602001828054611d74906143da565b8015611dc15780601f10611d9657610100808354040283529160200191611dc1565b820191906000526020600020905b815481529060010190602001808311611da457829003601f168201915b505050505081526020019060010190611d29565b8460090154610e38565b60006001600160e01b03198216636e665ced60e01b14806109fb57506109fb82612777565b60006109fb611e116127e2565b8360405161190160f01b6020820152602281018390526042810182905260009060620160405160208183030381529060405280519060200120905092915050565b6000806000611e6387878787612909565b91509150610f1b816129ec565b6000858152600160208190526040822090611e8a88611251565b6007811115611e9b57611e9b613e83565b14611ef45760405162461bcd60e51b815260206004820152602360248201527f476f7665726e6f723a20766f7465206e6f742063757272656e746c792061637460448201526269766560e81b6064820152608401610b1f565b604080516020810190915281546001600160401b031690819052600090611f1d908890866124f1565b9050611f2c8888888488612b9d565b8351600003611f8157866001600160a01b03167fb8e138887d0aa13bab447e82de9d5c1777041ecd21ca36ba824ff1e6c07ddda489888489604051611f7494939291906145a4565b60405180910390a2611246565b866001600160a01b03167fe2babfbac5889a709b63bb7f598b324e08bc5a4fb9ec647fb3cbc9ec07eb87128988848989604051611fc29594939291906145cc565b60405180910390a2979650505050505050565b6000611fe082612d3e565b15611ffe57604051631ed9509560e11b815260040160405180910390fd5b508054600f0b6000818152600180840160205260408220805492905583546001600160801b03191692016001600160801b03169190911790915590565b60648111156120be5760405162461bcd60e51b815260206004820152604360248201527f476f7665726e6f72566f74657351756f72756d4672616374696f6e3a2071756f60448201527f72756d4e756d657261746f72206f7665722071756f72756d44656e6f6d696e616064820152623a37b960e91b608482015260a401610b1f565b600780549082905560408051828152602081018490527f0553476bf02ef2726e8ce5ced78d63e26e602e4a2257b1f559418e24b4633997910160405180910390a15050565b3061210c610937565b6001600160a01b0316146118625760005b845181101561219c57306001600160a01b031685828151811061214257612142614612565b60200260200101516001600160a01b03160361218c5761218c83828151811061216d5761216d614612565b6020026020010151805190602001206002612d5390919063ffffffff16565b61219581614628565b905061211d565b505050505050565b6118628585858585612d8f565b306121ba610937565b6001600160a01b031614611862576121d26002612d3e565b611862576000600255611862565b6000611641858585856121fe60408051602081019091526000815290565b611e70565b60008061220f83612e02565b9050600481600781111561222557612225613e83565b146122305792915050565b6000838152600560205260409020548061224b575092915050565b60048054604051632ab0f52960e01b81529182018390526001600160a01b031690632ab0f52990602401602060405180830381865afa158015612292573d6000803e3d6000fd5b505050506040513d601f19601f820116820180604052508101906122b69190614641565b156122c5575060079392505050565b60048054604051632c258a9f60e11b81529182018390526001600160a01b03169063584b153e90602401602060405180830381865afa15801561230c573d6000803e3d6000fd5b505050506040513d601f19601f820116820180604052508101906123309190614641565b1561233f575060059392505050565b5060029392505050565b6060600082516001600160401b03811115612366576123666138d5565b60405190808252806020026020018201604052801561239957816020015b60608152602001906001900390816123845790505b50905060005b8451811015612473578481815181106123ba576123ba614612565b60200260200101515160001461242a578481815181106123dc576123dc614612565b6020026020010151805190602001208482815181106123fd576123fd614612565b6020026020010151604051602001612416929190614663565b604051602081830303815290604052612445565b83818151811061243c5761243c614612565b60200260200101515b82828151811061245757612457614612565b60200260200101819052508061246c90614628565b905061239f565b509392505050565b600061164185858585612f16565b60006124e533868686516001600160401b038111156124aa576124aa6138d5565b6040519080825280602002602001820160405280156124dd57816020015b60608152602001906001900390816124c85790505b508787612616565b61164185858585612fbe565b604051630748d63560e31b81526001600160a01b038481166004830152602482018490526000917f000000000000000000000000000000000000000000000000000000000000000090911690633a46b1a890604401602060405180830381865afa158015612563573d6000803e3d6000fd5b505050506040513d601f19601f82011682018060405250810190610c159190614455565b600454604080516001600160a01b03928316815291831660208301527f08f74ea46ef7894f65eabfb5e6e695de773a000b47c529ab559178069b226401910160405180910390a1600480546001600160a01b0319166001600160a01b0392909216919091179055565b6060610c1584848460405180606001604052806029815260200161484160299139613257565b805160208201206000612634878761262e8888612349565b85611869565b60008181526006602052604090206009810154919250906126c85780546001600160a01b0319166001600160a01b038a16178155875161267d90600183019060208b01906135ea565b50865161269390600283019060208a019061364b565b5085516126a99060038301906020890190613686565b5084516126bf90600483019060208801906136df565b50600981018390555b505050505050505050565b60006064600754604051632394e7a360e21b8152600481018590527f00000000000000000000000000000000000000000000000000000000000000006001600160a01b031690638e539e8c90602401602060405180830381865afa15801561273f573d6000803e3d6000fd5b505050506040513d601f19601f820116820180604052508101906127639190614455565b61276d9190614694565b6109fb91906146b3565b60006001600160e01b0319821663bf26d89760e01b14806127a857506001600160e01b031982166379dd796f60e01b145b806127c357506001600160e01b03198216630271189760e51b145b806109fb57506301ffc9a760e01b6001600160e01b03198316146109fb565b6000306001600160a01b037f00000000000000000000000000000000000000000000000000000000000000001614801561283b57507f000000000000000000000000000000000000000000000000000000000000000046145b1561286557507f000000000000000000000000000000000000000000000000000000000000000090565b50604080517f00000000000000000000000000000000000000000000000000000000000000006020808301919091527f0000000000000000000000000000000000000000000000000000000000000000828401527f000000000000000000000000000000000000000000000000000000000000000060608301524660808301523060a0808401919091528351808403909101815260c0909201909252805191012090565b6000806fa2a8918ca85bafe22016d0b997e4df60600160ff1b0383111561293657506000905060036129e3565b8460ff16601b1415801561294e57508460ff16601c14155b1561295f57506000905060046129e3565b6040805160008082526020820180845289905260ff881692820192909252606081018690526080810185905260019060a0016020604051602081039080840390855afa1580156129b3573d6000803e3d6000fd5b5050604051601f1901519150506001600160a01b0381166129dc576000600192509250506129e3565b9150600090505b94509492505050565b6000816004811115612a0057612a00613e83565b03612a085750565b6001816004811115612a1c57612a1c613e83565b03612a645760405162461bcd60e51b815260206004820152601860248201527745434453413a20696e76616c6964207369676e617475726560401b6044820152606401610b1f565b6002816004811115612a7857612a78613e83565b03612ac55760405162461bcd60e51b815260206004820152601f60248201527f45434453413a20696e76616c6964207369676e6174757265206c656e677468006044820152606401610b1f565b6003816004811115612ad957612ad9613e83565b03612b315760405162461bcd60e51b815260206004820152602260248201527f45434453413a20696e76616c6964207369676e6174757265202773272076616c604482015261756560f01b6064820152608401610b1f565b6004816004811115612b4557612b45613e83565b03610b775760405162461bcd60e51b815260206004820152602260248201527f45434453413a20696e76616c6964207369676e6174757265202776272076616c604482015261756560f01b6064820152608401610b1f565b60008581526006602090815260408083206001600160a01b038816845260088101909252909120805460ff1615612c2c5760405162461bcd60e51b815260206004820152602d60248201527f476f7665726e6f72436f6d7061746962696c697479427261766f3a20766f746560448201526c08185b1c9958591e4818d85cdd609a1b6064820152608401610b1f565b805460ff86166101000261ffff19909116176001178155612c4c84613327565b81546001600160601b0391909116620100000262010000600160701b031990911617815560ff8516612c975783826006016000828254612c8c919061452a565b90915550612d359050565b60001960ff861601612cb75783826005016000828254612c8c919061452a565b60011960ff861601612cd75783826007016000828254612c8c919061452a565b60405162461bcd60e51b815260206004820152602d60248201527f476f7665726e6f72436f6d7061746962696c697479427261766f3a20696e766160448201526c6c696420766f7465207479706560981b6064820152608401610b1f565b50505050505050565b54600f81810b600160801b909204900b131590565b8154600160801b90819004600f0b6000818152600180860160205260409091209390935583546001600160801b03908116939091011602179055565b6004805460405163e38335e560e01b81526001600160a01b039091169163e38335e5913491612dc9918991899189916000918a910161446e565b6000604051808303818588803b158015612de257600080fd5b505af1158015612df6573d6000803e3d6000fd5b50505050505050505050565b6000818152600160205260408120600281015460ff1615612e265750600792915050565b6002810154610100900460ff1615612e415750600292915050565b6000612e4c84610f25565b905080600003612e9e5760405162461bcd60e51b815260206004820152601d60248201527f476f7665726e6f723a20756e6b6e6f776e2070726f706f73616c2069640000006044820152606401610b1f565b438110612eaf575060009392505050565b6000612eba85611773565b9050438110612ece57506001949350505050565b612ed785613393565b8015612efb5750600085815260066020819052604090912090810154600590910154115b15612f0b57506004949350505050565b506003949350505050565b600080612f25868686866133bb565b6000818152600560205260409020549091501561164157600480546000838152600560205260409081902054905163c4d252f560e01b8152928301526001600160a01b03169063c4d252f590602401600060405180830381600087803b158015612f8e57600080fd5b505af1158015612fa2573d6000803e3d6000fd5b5050506000828152600560205260408120555095945050505050565b6000683635c9adc5dea00000612fd93361089f600143614542565b10156130415760405162461bcd60e51b815260206004820152603160248201527f476f7665726e6f723a2070726f706f73657220766f7465732062656c6f7720706044820152701c9bdc1bdcd85b081d1a1c995cda1bdb19607a1b6064820152608401610b1f565b60006130568686868680519060200120611869565b905084518651146130795760405162461bcd60e51b8152600401610b1f906146d5565b835186511461309a5760405162461bcd60e51b8152600401610b1f906146d5565b60008651116130e65760405162461bcd60e51b815260206004820152601860248201527711dbdd995c9b9bdc8e88195b5c1d1e481c1c9bdc1bdcd85b60421b6044820152606401610b1f565b600081815260016020908152604091829020825191820190925281546001600160401b031690819052156131665760405162461bcd60e51b815260206004820152602160248201527f476f7665726e6f723a2070726f706f73616c20616c72656164792065786973746044820152607360f81b6064820152608401610b1f565b600061317260016134c7565b61317b436134c7565b6131859190614716565b9050600061319461b2fa6134c7565b61319e9083614716565b90506131aa838361352f565b6131b7600184018261352f565b7f7d84a6263ae0d98d3329bd7b46bb4e8d6f98cd35a7adb45c274c8b7fd5ebd5e084338b8b8d516001600160401b038111156131f5576131f56138d5565b60405190808252806020026020018201604052801561322857816020015b60608152602001906001900390816132135790505b508c88888e60405161324299989796959493929190614741565b60405180910390a15091979650505050505050565b6060824710156132b85760405162461bcd60e51b815260206004820152602660248201527f416464726573733a20696e73756666696369656e742062616c616e636520666f6044820152651c8818d85b1b60d21b6064820152608401610b1f565b600080866001600160a01b031685876040516132d491906147e4565b60006040518083038185875af1925050503d8060008114613311576040519150601f19603f3d011682016040523d82523d6000602084013e613316565b606091505b50915091506112468783838761354c565b60006001600160601b0382111561338f5760405162461bcd60e51b815260206004820152602660248201527f53616665436173743a2076616c756520646f65736e27742066697420696e203960448201526536206269747360d01b6064820152608401610b1f565b5090565b600081815260066020526040812060058101546133b26108eb85610f25565b11159392505050565b6000806133ca86868686611869565b905060006133d782611251565b905060028160078111156133ed576133ed613e83565b1415801561340d5750600681600781111561340a5761340a613e83565b14155b801561342b5750600781600781111561342857613428613e83565b14155b6134775760405162461bcd60e51b815260206004820152601d60248201527f476f7665726e6f723a2070726f706f73616c206e6f74206163746976650000006044820152606401610b1f565b60008281526001602052604090819020600201805461ff001916610100179055517f789cf55be980739dad1d0699b93b58e806b51c9d96619bfa8fe0a28abaa7b30c90610e169084815260200190565b60006001600160401b0382111561338f5760405162461bcd60e51b815260206004820152602660248201527f53616665436173743a2076616c756520646f65736e27742066697420696e203660448201526534206269747360d01b6064820152608401610b1f565b81546001600160401b0319166001600160401b0391909116179055565b606083156135bb5782516000036135b4576001600160a01b0385163b6135b45760405162461bcd60e51b815260206004820152601d60248201527f416464726573733a2063616c6c20746f206e6f6e2d636f6e74726163740000006044820152606401610b1f565b5081610c15565b610c1583838151156135d05781518083602001fd5b8060405162461bcd60e51b8152600401610b1f9190613a8c565b82805482825590600052602060002090810192821561363f579160200282015b8281111561363f57825182546001600160a01b0319166001600160a01b0390911617825560209092019160019091019061360a565b5061338f929150613738565b82805482825590600052602060002090810192821561363f579160200282015b8281111561363f57825182559160200191906001019061366b565b8280548282559060005260206000209081019282156136d3579160200282015b828111156136d357825180516136c391849160209091019061374d565b50916020019190600101906136a6565b5061338f9291506137c0565b82805482825590600052602060002090810192821561372c579160200282015b8281111561372c578251805161371c91849160209091019061374d565b50916020019190600101906136ff565b5061338f9291506137dd565b5b8082111561338f5760008155600101613739565b828054613759906143da565b90600052602060002090601f01602090048101928261377b576000855561363f565b82601f1061379457805160ff191683800117855561363f565b8280016001018555821561363f579182018281111561363f57825182559160200191906001019061366b565b8082111561338f5760006137d482826137fa565b506001016137c0565b8082111561338f5760006137f182826137fa565b506001016137dd565b508054613806906143da565b6000825580601f10613816575050565b601f016020900490600052602060002090810190610b779190613738565b60006020828403121561384657600080fd5b5035919050565b60006020828403121561385f57600080fd5b81356001600160e01b03198116811461176c57600080fd5b803560ff8116811461388857600080fd5b919050565b60008083601f84011261389f57600080fd5b5081356001600160401b038111156138b657600080fd5b6020830191508360208285010111156138ce57600080fd5b9250929050565b634e487b7160e01b600052604160045260246000fd5b604051601f8201601f191681016001600160401b0381118282101715613913576139136138d5565b604052919050565b600082601f83011261392c57600080fd5b81356001600160401b03811115613945576139456138d5565b613958601f8201601f19166020016138eb565b81815284602083860101111561396d57600080fd5b816020850160208301376000918101602001919091529392505050565b60008060008060008060008060e0898b0312156139a657600080fd5b883597506139b660208a01613877565b965060408901356001600160401b03808211156139d257600080fd5b6139de8c838d0161388d565b909850965060608b01359150808211156139f757600080fd5b50613a048b828c0161391b565b945050613a1360808a01613877565b925060a0890135915060c089013590509295985092959890939650565b60005b83811015613a4b578181015183820152602001613a33565b83811115613a5a576000848401525b50505050565b60008151808452613a78816020860160208601613a30565b601f01601f19169290920160200192915050565b60208152600061176c6020830184613a60565b6001600160a01b0381168114610b7757600080fd5b60008060008060808587031215613aca57600080fd5b8435613ad581613a9f565b93506020850135613ae581613a9f565b92506040850135915060608501356001600160401b03811115613b0757600080fd5b613b138782880161391b565b91505092959194509250565b60006001600160401b03821115613b3857613b386138d5565b5060051b60200190565b600082601f830112613b5357600080fd5b81356020613b68613b6383613b1f565b6138eb565b82815260059290921b84018101918181019086841115613b8757600080fd5b8286015b84811015613bab578035613b9e81613a9f565b8352918301918301613b8b565b509695505050505050565b600082601f830112613bc757600080fd5b81356020613bd7613b6383613b1f565b82815260059290921b84018101918181019086841115613bf657600080fd5b8286015b84811015613bab5780358352918301918301613bfa565b600082601f830112613c2257600080fd5b81356020613c32613b6383613b1f565b82815260059290921b84018101918181019086841115613c5157600080fd5b8286015b84811015613bab5780356001600160401b03811115613c745760008081fd5b613c828986838b010161391b565b845250918301918301613c55565b60008060008060808587031215613ca657600080fd5b84356001600160401b0380821115613cbd57600080fd5b613cc988838901613b42565b95506020870135915080821115613cdf57600080fd5b613ceb88838901613bb6565b94506040870135915080821115613d0157600080fd5b50613d0e87828801613c11565b949793965093946060013593505050565b600081518084526020808501945080840160005b83811015613d585781516001600160a01b031687529582019590820190600101613d33565b509495945050505050565b600081518084526020808501945080840160005b83811015613d5857815187529582019590820190600101613d77565b600081518084526020808501808196508360051b8101915082860160005b85811015613ddb578284038952613dc9848351613a60565b98850198935090840190600101613db1565b5091979650505050505050565b608081526000613dfb6080830187613d1f565b8281036020840152613e0d8187613d63565b90508281036040840152613e218186613d93565b905082810360608401526112468185613d93565b600080600080600060a08688031215613e4d57600080fd5b85359450613e5d60208701613877565b9350613e6b60408701613877565b94979396509394606081013594506080013592915050565b634e487b7160e01b600052602160045260246000fd5b6020810160088310613ebb57634e487b7160e01b600052602160045260246000fd5b91905290565b60008060408385031215613ed457600080fd5b823591506020830135613ee681613a9f565b809150509250929050565b60008060408385031215613f0457600080fd5b82359150613f1460208401613877565b90509250929050565b600080600080600060808688031215613f3557600080fd5b85359450613f4560208701613877565b935060408601356001600160401b0380821115613f6157600080fd5b613f6d89838a0161388d565b90955093506060880135915080821115613f8657600080fd5b50613f938882890161391b565b9150509295509295909350565b60008060008060608587031215613fb657600080fd5b84359350613fc660208601613877565b925060408501356001600160401b03811115613fe157600080fd5b613fed8782880161388d565b95989497509550505050565b6000806000806080858703121561400f57600080fd5b84356001600160401b038082111561402657600080fd5b61403288838901613b42565b9550602087013591508082111561404857600080fd5b61405488838901613bb6565b9450604087013591508082111561406a57600080fd5b61407688838901613c11565b9350606087013591508082111561408c57600080fd5b50613b138782880161391b565b6000806000606084860312156140ae57600080fd5b83356140b981613a9f565b92506020840135915060408401356001600160401b038111156140db57600080fd5b6140e78682870161391b565b9150509250925092565b60006020828403121561410357600080fd5b813561176c81613a9f565b600080600080600060a0868803121561412657600080fd5b853561413181613a9f565b9450602086013561414181613a9f565b935060408601356001600160401b038082111561415d57600080fd5b61416989838a01613bb6565b9450606088013591508082111561417f57600080fd5b61418b89838a01613bb6565b93506080880135915080821115613f8657600080fd5b600080600080606085870312156141b757600080fd5b84356141c281613a9f565b93506020850135925060408501356001600160401b03811115613fe157600080fd5b600082601f8301126141f557600080fd5b81356020614205613b6383613b1f565b82815260059290921b8401810191818101908684111561422457600080fd5b8286015b84811015613bab5780356001600160401b038111156142475760008081fd5b6142558986838b010161391b565b845250918301918301614228565b600080600080600060a0868803121561427b57600080fd5b85356001600160401b038082111561429257600080fd5b61429e89838a01613b42565b965060208801359150808211156142b457600080fd5b6142c089838a01613bb6565b955060408801359150808211156142d657600080fd5b6142e289838a016141e4565b945060608801359150808211156142f857600080fd5b61418b89838a01613c11565b6000806040838503121561431757600080fd5b823561432281613a9f565b946020939093013593505050565b600080600080600060a0868803121561434857600080fd5b853561435381613a9f565b9450602086013561436381613a9f565b9350604086013592506060860135915060808601356001600160401b0381111561438c57600080fd5b613f938882890161391b565b8183823760009101908152919050565b602080825260189082015277476f7665726e6f723a206f6e6c79476f7665726e616e636560401b604082015260600190565b600181811c908216806143ee57607f821691505b60208210810361440e57634e487b7160e01b600052602260045260246000fd5b50919050565b60208082526021908201527f476f7665726e6f723a2070726f706f73616c206e6f74207375636365737366756040820152601b60fa1b606082015260800190565b60006020828403121561446757600080fd5b5051919050565b60a08152600061448160a0830188613d1f565b82810360208401526144938188613d63565b905082810360408401526144a78187613d93565b60608401959095525050608001529392505050565b60c0815260006144cf60c0830189613d1f565b82810360208401526144e18189613d63565b905082810360408401526144f58188613d93565b60608401969096525050608081019290925260a0909101529392505050565b634e487b7160e01b600052601160045260246000fd5b6000821982111561453d5761453d614514565b500190565b60008282101561455457614554614514565b500390565b60808152600061456c6080830187613d1f565b828103602084015261457e8187613d63565b905082810360408401526145928186613d93565b91505082606083015295945050505050565b84815260ff841660208201528260408201526080606082015260006116296080830184613a60565b85815260ff8516602082015283604082015260a0606082015260006145f460a0830185613a60565b82810360808401526146068185613a60565b98975050505050505050565b634e487b7160e01b600052603260045260246000fd5b60006001820161463a5761463a614514565b5060010190565b60006020828403121561465357600080fd5b8151801515811461176c57600080fd5b6001600160e01b0319831681528151600090614686816004850160208701613a30565b919091016004019392505050565b60008160001904831182151516156146ae576146ae614514565b500290565b6000826146d057634e487b7160e01b600052601260045260246000fd5b500490565b60208082526021908201527f476f7665726e6f723a20696e76616c69642070726f706f73616c206c656e67746040820152600d60fb1b606082015260800190565b60006001600160401b0382811684821680830382111561473857614738614514565b01949350505050565b8981526001600160a01b03891660208201526101206040820181905260009061476c8382018b613d1f565b90508281036060840152614780818a613d63565b905082810360808401526147948189613d93565b905082810360a08401526147a88188613d93565b6001600160401b0387811660c0860152861660e085015283810361010085015290506147d48185613a60565b9c9b505050505050505050505050565b600082516147f6818460208701613a30565b919091019291505056fe150214d74d59b7d1e90c73fc22ef3d991dd0a76b046543d4d80ab92d2a50328fb3b3f3b703cd84ce352197dcff232b1b5d3cfb2025ce47cf04742d0651f1af88416464726573733a206c6f772d6c6576656c2063616c6c20776974682076616c7565206661696c6564a26469706673582212205d0aef36247ad2c9d6736ca9028f69665950e6e4dc698f7a83f15791c87897aa64736f6c634300080e0033",
  "immutableReferences": {
    "7117": [
      {
        "length": 32,
        "start": 2306
      },
      {
        "length": 32,
        "start": 9498
      },
      {
        "length": 32,
        "start": 9968
      }
    ],
    "33049": [
      {
        "length": 32,
        "start": 10307
      }
    ],
    "33051": [
      {
        "length": 32,
        "start": 10265
      }
    ],
    "33053": [
      {
        "length": 32,
        "start": 10223
      }
    ],
    "33055": [
      {
        "length": 32,
        "start": 10390
      }
    ],
    "33057": [
      {
        "length": 32,
        "start": 10427
      }
    ],
    "33059": [
      {
        "length": 32,
        "start": 10348
      }
    ]
  },
  "source": "// SPDX-License-Identifier: MIT\r\npragma solidity ^0.8.2;\r\n\r\nimport \"../../governance/Governor.sol\";\r\nimport \"../../governance/compatibility/GovernorCompatibilityBravo.sol\";\r\nimport \"../../governance/extensions/GovernorVotes.sol\";\r\nimport \"../../governance/extensions/GovernorVotesQuorumFraction.sol\";\r\nimport \"../../governance/extensions/GovernorTimelockControl.sol\";\r\n\r\ncontract MyGovernor is\r\n    Governor,\r\n    GovernorTimelockControl,\r\n    GovernorCompatibilityBravo,\r\n    GovernorVotes,\r\n    GovernorVotesQuorumFraction\r\n{\r\n    constructor(IVotes _token, TimelockController _timelock)\r\n        Governor(\"MyGovernor\")\r\n        GovernorVotes(_token)\r\n        GovernorVotesQuorumFraction(4)\r\n        GovernorTimelockControl(_timelock)\r\n    {}\r\n\r\n    function votingDelay() public pure override returns (uint256) {\r\n        return 1; // 1 block\r\n    }\r\n\r\n    function votingPeriod() public pure override returns (uint256) {\r\n        return 45818; // 1 week\r\n    }\r\n\r\n    function proposalThreshold() public pure override returns (uint256) {\r\n        return 1000e18;\r\n    }\r\n\r\n    // The following functions are overrides required by Solidity.\r\n\r\n    function quorum(uint256 blockNumber)\r\n        public\r\n        view\r\n        override(IGovernor, GovernorVotesQuorumFraction)\r\n        returns (uint256)\r\n    {\r\n        return super.quorum(blockNumber);\r\n    }\r\n\r\n    function state(uint256 proposalId)\r\n        public\r\n        view\r\n        override(Governor, IGovernor, GovernorTimelockControl)\r\n        returns (ProposalState)\r\n    {\r\n        return super.state(proposalId);\r\n    }\r\n\r\n    function propose(\r\n        address[] memory targets,\r\n        uint256[] memory values,\r\n        bytes[] memory calldatas,\r\n        string memory description\r\n    ) public override(Governor, GovernorCompatibilityBravo, IGovernor) returns (uint256) {\r\n        return super.propose(targets, values, calldatas, description);\r\n    }\r\n\r\n    function _execute(\r\n        uint256 proposalId,\r\n        address[] memory targets,\r\n        uint256[] memory values,\r\n        bytes[] memory calldatas,\r\n        bytes32 descriptionHash\r\n    ) internal override(Governor, GovernorTimelockControl) {\r\n        super._execute(proposalId, targets, values, calldatas, descriptionHash);\r\n    }\r\n\r\n    function _cancel(\r\n        address[] memory targets,\r\n        uint256[] memory values,\r\n        bytes[] memory calldatas,\r\n        bytes32 descriptionHash\r\n    ) internal override(Governor, GovernorTimelockControl) returns (uint256) {\r\n        return super._cancel(targets, values, calldatas, descriptionHash);\r\n    }\r\n\r\n    function _executor() internal view override(Governor, GovernorTimelockControl) returns (address) {\r\n        return super._executor();\r\n    }\r\n\r\n    function supportsInterface(bytes4 interfaceId)\r\n        public\r\n        view\r\n        override(Governor, IERC165, GovernorTimelockControl)\r\n        returns (bool)\r\n    {\r\n        return super.supportsInterface(interfaceId);\r\n    }\r\n}\r\n",
  "sourcePath": "D:\\work\\www\\yopu_dapp_nft\\contracts\\lib\\openzeppelin\\contracts\\mocks\\wizard\\MyGovernor3.sol",
  "compiler": {
    "name": "solc",
    "version": "0.8.14+commit.80d49f37.Emscripten.clang"
  },
  "schemaVersion": "3.4.7",
  "updatedAt": "2022-06-28T15:05:48.421Z",
  "devdoc": {
    "errors": {
      "Empty()": [
        {
          "details": "An operation (e.g. {front}) couldn't be completed due to the queue being empty."
        }
      ]
    },
    "kind": "dev",
    "methods": {
      "COUNTING_MODE()": {
        "details": "A description of the possible `support` values for {castVote} and the way these votes are counted, meant to be consumed by UIs to show correct vote options and interpret the results. The string is a URL-encoded sequence of key-value pairs that each describe one aspect, for example `support=bravo&quorum=for,abstain`. There are 2 standard keys: `support` and `quorum`. - `support=bravo` refers to the vote options 0 = Against, 1 = For, 2 = Abstain, as in `GovernorBravo`. - `quorum=bravo` means that only For votes are counted towards quorum. - `quorum=for,abstain` means that both For and Abstain votes are counted towards quorum. If a counting module makes use of encoded `params`, it should  include this under a `params` key with a unique name that describes the behavior. For example: - `params=fractional` might refer to a scheme where votes are divided fractionally between for/against/abstain. - `params=erc721` might refer to a scheme where specific NFTs are delegated to vote. NOTE: The string can be decoded by the standard https://developer.mozilla.org/en-US/docs/Web/API/URLSearchParams[`URLSearchParams`] JavaScript class."
      },
      "cancel(uint256)": {
        "details": "Cancels a proposal only if sender is the proposer, or proposer delegates dropped below proposal threshold."
      },
      "castVote(uint256,uint8)": {
        "details": "See {IGovernor-castVote}."
      },
      "castVoteBySig(uint256,uint8,uint8,bytes32,bytes32)": {
        "details": "See {IGovernor-castVoteBySig}."
      },
      "castVoteWithReason(uint256,uint8,string)": {
        "details": "See {IGovernor-castVoteWithReason}."
      },
      "castVoteWithReasonAndParams(uint256,uint8,string,bytes)": {
        "details": "See {IGovernor-castVoteWithReasonAndParams}."
      },
      "castVoteWithReasonAndParamsBySig(uint256,uint8,string,bytes,uint8,bytes32,bytes32)": {
        "details": "See {IGovernor-castVoteWithReasonAndParamsBySig}."
      },
      "execute(address[],uint256[],bytes[],bytes32)": {
        "details": "See {IGovernor-execute}."
      },
      "execute(uint256)": {
        "details": "See {IGovernorCompatibilityBravo-execute}."
      },
      "getActions(uint256)": {
        "details": "See {IGovernorCompatibilityBravo-getActions}."
      },
      "getReceipt(uint256,address)": {
        "details": "See {IGovernorCompatibilityBravo-getReceipt}."
      },
      "getVotes(address,uint256)": {
        "details": "See {IGovernor-getVotes}."
      },
      "getVotesWithParams(address,uint256,bytes)": {
        "details": "See {IGovernor-getVotesWithParams}."
      },
      "hasVoted(uint256,address)": {
        "details": "See {IGovernor-hasVoted}."
      },
      "hashProposal(address[],uint256[],bytes[],bytes32)": {
        "details": "See {IGovernor-hashProposal}. The proposal id is produced by hashing the RLC encoded `targets` array, the `values` array, the `calldatas` array and the descriptionHash (bytes32 which itself is the keccak256 hash of the description string). This proposal id can be produced from the proposal data which is part of the {ProposalCreated} event. It can even be computed in advance, before the proposal is submitted. Note that the chainId and the governor address are not part of the proposal id computation. Consequently, the same proposal (with same operation and same description) will have the same id if submitted on multiple governors across multiple networks. This also means that in order to execute the same operation twice (on the same governor) the proposer will have to change the description in order to avoid proposal id conflicts."
      },
      "name()": {
        "details": "See {IGovernor-name}."
      },
      "onERC1155BatchReceived(address,address,uint256[],uint256[],bytes)": {
        "details": "See {IERC1155Receiver-onERC1155BatchReceived}."
      },
      "onERC1155Received(address,address,uint256,uint256,bytes)": {
        "details": "See {IERC1155Receiver-onERC1155Received}."
      },
      "onERC721Received(address,address,uint256,bytes)": {
        "details": "See {IERC721Receiver-onERC721Received}."
      },
      "proposalDeadline(uint256)": {
        "details": "See {IGovernor-proposalDeadline}."
      },
      "proposalEta(uint256)": {
        "details": "Public accessor to check the eta of a queued proposal"
      },
      "proposalSnapshot(uint256)": {
        "details": "See {IGovernor-proposalSnapshot}."
      },
      "proposalThreshold()": {
        "details": "Part of the Governor Bravo's interface: _\"The number of votes required in order for a voter to become a proposer\"_."
      },
      "proposals(uint256)": {
        "details": "See {IGovernorCompatibilityBravo-proposals}."
      },
      "propose(address[],uint256[],string[],bytes[],string)": {
        "details": "See {IGovernorCompatibilityBravo-propose}."
      },
      "queue(address[],uint256[],bytes[],bytes32)": {
        "details": "Function to queue a proposal to the timelock."
      },
      "queue(uint256)": {
        "details": "See {IGovernorCompatibilityBravo-queue}."
      },
      "quorumDenominator()": {
        "details": "Returns the quorum denominator. Defaults to 100, but may be overridden."
      },
      "quorumNumerator()": {
        "details": "Returns the current quorum numerator. See {quorumDenominator}."
      },
      "quorumVotes()": {
        "details": "See {IGovernorCompatibilityBravo-quorumVotes}."
      },
      "relay(address,uint256,bytes)": {
        "details": "Relays a transaction or function call to an arbitrary target. In cases where the governance executor is some contract other than the governor itself, like when using a timelock, this function can be invoked in a governance proposal to recover tokens or Ether that was sent to the governor contract by mistake. Note that if the executor is simply the governor itself, use of `relay` is redundant."
      },
      "timelock()": {
        "details": "Public accessor to check the address of the timelock"
      },
      "updateQuorumNumerator(uint256)": {
        "details": "Changes the quorum numerator. Emits a {QuorumNumeratorUpdated} event. Requirements: - Must be called through a governance proposal. - New numerator must be smaller or equal to the denominator."
      },
      "updateTimelock(address)": {
        "details": "Public endpoint to update the underlying timelock instance. Restricted to the timelock itself, so updates must be proposed, scheduled, and executed through governance proposals. CAUTION: It is not recommended to change the timelock while there are other queued governance proposals."
      },
      "version()": {
        "details": "See {IGovernor-version}."
      },
      "votingDelay()": {
        "details": "Delay, in number of block, between the proposal is created and the vote starts. This can be increassed to leave time for users to buy voting power, of delegate it, before the voting of a proposal starts."
      },
      "votingPeriod()": {
        "details": "Delay, in number of blocks, between the vote start and vote ends. NOTE: The {votingDelay} can delay the start of the vote. This must be considered when setting the voting duration compared to the voting delay."
      }
    },
    "version": 1
  },
  "userdoc": {
    "kind": "user",
    "methods": {
      "COUNTING_MODE()": {
        "notice": "module:voting"
      },
      "votingDelay()": {
        "notice": "module:user-config"
      },
      "votingPeriod()": {
        "notice": "module:user-config"
      }
    },
    "version": 1
  }
}