{
  "contractName": "ReentrancyAttack",
  "abi": [
    {
      "inputs": [
        {
          "internalType": "bytes4",
          "name": "data",
          "type": "bytes4"
        }
      ],
      "name": "callSender",
      "outputs": [],
      "stateMutability": "nonpayable",
      "type": "function"
    }
  ],
  "bytecode": "0x608060405234801561001057600080fd5b506101be806100206000396000f3fe608060405234801561001057600080fd5b506004361061002b5760003560e01c80630a2df1ed14610030575b600080fd5b61004361003e36600461011c565b610045565b005b60408051600481526024810182526020810180516001600160e01b03166001600160e01b0319851617905290516000913391610081919061014d565b6000604051808303816000865af19150503d80600081146100be576040519150601f19603f3d011682016040523d82523d6000602084013e6100c3565b606091505b50509050806101185760405162461bcd60e51b815260206004820152601d60248201527f5265656e7472616e637941747461636b3a206661696c65642063616c6c000000604482015260640160405180910390fd5b5050565b60006020828403121561012e57600080fd5b81356001600160e01b03198116811461014657600080fd5b9392505050565b6000825160005b8181101561016e5760208186018101518583015201610154565b8181111561017d576000828501525b50919091019291505056fea2646970667358221220b898318a78cc670d1f88e5ad946fc07b4496bc3f76421917155fdeb9b687d46564736f6c634300080e0033",
  "immutableReferences": {},
  "source": "// SPDX-License-Identifier: MIT\r\n\r\npragma solidity ^0.8.0;\r\n\r\nimport \"../utils/Context.sol\";\r\n\r\ncontract ReentrancyAttack is Context {\r\n    function callSender(bytes4 data) public {\r\n        (bool success, ) = _msgSender().call(abi.encodeWithSelector(data));\r\n        require(success, \"ReentrancyAttack: failed call\");\r\n    }\r\n}\r\n",
  "sourcePath": "D:\\work\\www\\yopu_dapp_nft\\contracts\\lib\\openzeppelin\\contracts\\mocks\\ReentrancyAttack.sol",
  "compiler": {
    "name": "solc",
    "version": "0.8.14+commit.80d49f37.Emscripten.clang"
  },
  "schemaVersion": "3.4.7",
  "updatedAt": "2022-06-28T15:05:48.149Z",
  "devdoc": {
    "kind": "dev",
    "methods": {},
    "version": 1
  },
  "userdoc": {
    "kind": "user",
    "methods": {},
    "version": 1
  }
}