{
  "contractName": "ReentrancyMock",
  "abi": [
    {
      "inputs": [],
      "stateMutability": "nonpayable",
      "type": "constructor"
    },
    {
      "inputs": [],
      "name": "counter",
      "outputs": [
        {
          "internalType": "uint256",
          "name": "",
          "type": "uint256"
        }
      ],
      "stateMutability": "view",
      "type": "function"
    },
    {
      "inputs": [],
      "name": "callback",
      "outputs": [],
      "stateMutability": "nonpayable",
      "type": "function"
    },
    {
      "inputs": [
        {
          "internalType": "uint256",
          "name": "n",
          "type": "uint256"
        }
      ],
      "name": "countLocalRecursive",
      "outputs": [],
      "stateMutability": "nonpayable",
      "type": "function"
    },
    {
      "inputs": [
        {
          "internalType": "uint256",
          "name": "n",
          "type": "uint256"
        }
      ],
      "name": "countThisRecursive",
      "outputs": [],
      "stateMutability": "nonpayable",
      "type": "function"
    },
    {
      "inputs": [
        {
          "internalType": "contract ReentrancyAttack",
          "name": "attacker",
          "type": "address"
        }
      ],
      "name": "countAndCall",
      "outputs": [],
      "stateMutability": "nonpayable",
      "type": "function"
    }
  ],
  "bytecode": "0x608060405234801561001057600080fd5b5060016000818155905561046a806100296000396000f3fe608060405234801561001057600080fd5b50600436106100575760003560e01c8063083b27321461005c57806361bc221a146100665780638c5344fa1461008157806396ffa69014610094578063b672ad8b146100a7575b600080fd5b6100646100ba565b005b61006f60015481565b60405190815260200160405180910390f35b61006461008f366004610334565b6100f9565b6100646100a2366004610334565b61021e565b6100646100b536600461034d565b610261565b6002600054036100e55760405162461bcd60e51b81526004016100dc9061037d565b60405180910390fd5b60026000556100f261031b565b6001600055565b60026000540361011b5760405162461bcd60e51b81526004016100dc9061037d565b600260005580156102165761012e61031b565b60003061013c6001846103ca565b60405160240161014e91815260200190565b60408051601f198184030181529181526020820180516001600160e01b0316634629a27d60e11b1790525161018391906103e1565b6000604051808303816000865af19150503d80600081146101c0576040519150601f19603f3d011682016040523d82523d6000602084013e6101c5565b606091505b50509050806102145760405162461bcd60e51b815260206004820152601b60248201527a1499595b9d1c985b98de535bd8dace8819985a5b19590818d85b1b602a1b60448201526064016100dc565b505b506001600055565b6002600054036102405760405162461bcd60e51b81526004016100dc9061037d565b600260005580156102165761025361031b565b6102166100a26001836103ca565b6002600054036102835760405162461bcd60e51b81526004016100dc9061037d565b600260005561029061031b565b604051630a2df1ed60e01b815263041d939960e11b60048201527f083b2732f78169bfaad6b407fa338cc97d697ed69d3915a18239cc111d51a402906001600160a01b03831690630a2df1ed90602401600060405180830381600087803b1580156102fa57600080fd5b505af115801561030e573d6000803e3d6000fd5b5050600160005550505050565b600180600082825461032d919061041c565b9091555050565b60006020828403121561034657600080fd5b5035919050565b60006020828403121561035f57600080fd5b81356001600160a01b038116811461037657600080fd5b9392505050565b6020808252601f908201527f5265656e7472616e637947756172643a207265656e7472616e742063616c6c00604082015260600190565b634e487b7160e01b600052601160045260246000fd5b6000828210156103dc576103dc6103b4565b500390565b6000825160005b8181101561040257602081860181015185830152016103e8565b81811115610411576000828501525b509190910192915050565b6000821982111561042f5761042f6103b4565b50019056fea26469706673582212207fb454eb69f7b3b4a52aba939a214b00deda42704ae6088195bbb7fbbed653fa64736f6c634300080e0033",
  "immutableReferences": {},
  "source": "// SPDX-License-Identifier: MIT\r\n\r\npragma solidity ^0.8.0;\r\n\r\nimport \"../security/ReentrancyGuard.sol\";\r\nimport \"./ReentrancyAttack.sol\";\r\n\r\ncontract ReentrancyMock is ReentrancyGuard {\r\n    uint256 public counter;\r\n\r\n    constructor() {\r\n        counter = 0;\r\n    }\r\n\r\n    function callback() external nonReentrant {\r\n        _count();\r\n    }\r\n\r\n    function countLocalRecursive(uint256 n) public nonReentrant {\r\n        if (n > 0) {\r\n            _count();\r\n            countLocalRecursive(n - 1);\r\n        }\r\n    }\r\n\r\n    function countThisRecursive(uint256 n) public nonReentrant {\r\n        if (n > 0) {\r\n            _count();\r\n            (bool success, ) = address(this).call(abi.encodeWithSignature(\"countThisRecursive(uint256)\", n - 1));\r\n            require(success, \"ReentrancyMock: failed call\");\r\n        }\r\n    }\r\n\r\n    function countAndCall(ReentrancyAttack attacker) public nonReentrant {\r\n        _count();\r\n        bytes4 func = bytes4(keccak256(\"callback()\"));\r\n        attacker.callSender(func);\r\n    }\r\n\r\n    function _count() private {\r\n        counter += 1;\r\n    }\r\n}\r\n",
  "sourcePath": "D:\\work\\www\\yopu_dapp_nft\\contracts\\lib\\openzeppelin\\contracts\\mocks\\ReentrancyMock.sol",
  "compiler": {
    "name": "solc",
    "version": "0.8.14+commit.80d49f37.Emscripten.clang"
  },
  "schemaVersion": "3.4.7",
  "updatedAt": "2022-06-28T15:05:48.152Z",
  "devdoc": {
    "kind": "dev",
    "methods": {},
    "version": 1
  },
  "userdoc": {
    "kind": "user",
    "methods": {},
    "version": 1
  }
}