{
  "contractName": "ReinitializerMock",
  "abi": [
    {
      "anonymous": false,
      "inputs": [
        {
          "indexed": false,
          "internalType": "uint8",
          "name": "version",
          "type": "uint8"
        }
      ],
      "name": "Initialized",
      "type": "event"
    },
    {
      "inputs": [],
      "name": "counter",
      "outputs": [
        {
          "internalType": "uint256",
          "name": "",
          "type": "uint256"
        }
      ],
      "stateMutability": "view",
      "type": "function"
    },
    {
      "inputs": [],
      "name": "initialize",
      "outputs": [],
      "stateMutability": "nonpayable",
      "type": "function"
    },
    {
      "inputs": [
        {
          "internalType": "uint8",
          "name": "i",
          "type": "uint8"
        }
      ],
      "name": "reinitialize",
      "outputs": [],
      "stateMutability": "nonpayable",
      "type": "function"
    },
    {
      "inputs": [
        {
          "internalType": "uint8",
          "name": "i",
          "type": "uint8"
        },
        {
          "internalType": "uint8",
          "name": "j",
          "type": "uint8"
        }
      ],
      "name": "nestedReinitialize",
      "outputs": [],
      "stateMutability": "nonpayable",
      "type": "function"
    },
    {
      "inputs": [
        {
          "internalType": "uint8",
          "name": "i",
          "type": "uint8"
        },
        {
          "internalType": "uint8",
          "name": "j",
          "type": "uint8"
        }
      ],
      "name": "chainReinitialize",
      "outputs": [],
      "stateMutability": "nonpayable",
      "type": "function"
    },
    {
      "inputs": [],
      "name": "disableInitializers",
      "outputs": [],
      "stateMutability": "nonpayable",
      "type": "function"
    },
    {
      "inputs": [],
      "name": "doStuff",
      "outputs": [],
      "stateMutability": "nonpayable",
      "type": "function"
    }
  ],
  "bytecode": "0x608060405234801561001057600080fd5b50610556806100206000396000f3fe608060405234801561001057600080fd5b506004361061006d5760003560e01c8063073de42e1461007257806331f449001461008757806361bc221a1461008f5780636b2d8f8f146100aa5780638129fc1c146100bd578063874f33a1146100c5578063f8d6cdba146100cd575b600080fd5b610085610080366004610428565b6100e0565b005b610085610177565b61009860015481565b60405190815260200160405180910390f35b6100856100b836600461044a565b610181565b610085610197565b610085610254565b6100856100db36600461044a565b6102d6565b6000548190610100900460ff16158015610101575060005460ff8083169116105b6101265760405162461bcd60e51b815260040161011d9061047d565b60405180910390fd5b6000805461ffff191660ff831617610100179055610142610254565b6000805461ff00191690556040516000805160206105018339815191529061016b9083906104cb565b60405180910390a15050565b61017f610366565b565b61018a826100e0565b610193816100e0565b5050565b600054610100900460ff16158080156101b75750600054600160ff909116105b806101d15750303b1580156101d1575060005460ff166001145b6101ed5760405162461bcd60e51b815260040161011d9061047d565b6000805460ff191660011790558015610210576000805461ff0019166101001790555b610218610254565b8015610251576000805461ff001916905560405160008051602061050183398151915290610248906001906104cb565b60405180910390a15b50565b600054610100900460ff166102bf5760405162461bcd60e51b815260206004820152602b60248201527f496e697469616c697a61626c653a20636f6e7472616374206973206e6f74206960448201526a6e697469616c697a696e6760a81b606482015260840161011d565b600180549060006102cf836104d9565b9190505550565b6000548290610100900460ff161580156102f7575060005460ff8083169116105b6103135760405162461bcd60e51b815260040161011d9061047d565b6000805461ffff191660ff831617610100179055610330826100e0565b6000805461ff0019169055604051600080516020610501833981519152906103599083906104cb565b60405180910390a1505050565b600054610100900460ff16156103ce5760405162461bcd60e51b815260206004820152602760248201527f496e697469616c697a61626c653a20636f6e747261637420697320696e697469604482015266616c697a696e6760c81b606482015260840161011d565b60005460ff908116101561017f576000805460ff191660ff90811790915560405160008051602061050183398151915291610408916104cb565b60405180910390a1565b803560ff8116811461042357600080fd5b919050565b60006020828403121561043a57600080fd5b61044382610412565b9392505050565b6000806040838503121561045d57600080fd5b61046683610412565b915061047460208401610412565b90509250929050565b6020808252602e908201527f496e697469616c697a61626c653a20636f6e747261637420697320616c72656160408201526d191e481a5b9a5d1a585b1a5e995960921b606082015260800190565b60ff91909116815260200190565b6000600182016104f957634e487b7160e01b600052601160045260246000fd5b506001019056fe7f26b83ff96e1f2b6a682f133852f6798a09c465da95921460cefb3847402498a2646970667358221220c0b0fbbe438e4d72a34a78e879c669246fb443e66d7c9c3bc554af47a53c526564736f6c634300080e0033",
  "immutableReferences": {},
  "source": "// SPDX-License-Identifier: MIT\r\n\r\npragma solidity ^0.8.0;\r\n\r\nimport \"../proxy/utils/Initializable.sol\";\r\n\r\n/**\r\n * @title InitializableMock\r\n * @dev This contract is a mock to test initializable functionality\r\n */\r\ncontract InitializableMock is Initializable {\r\n    bool public initializerRan;\r\n    bool public onlyInitializingRan;\r\n    uint256 public x;\r\n\r\n    function initialize() public initializer {\r\n        initializerRan = true;\r\n    }\r\n\r\n    function initializeOnlyInitializing() public onlyInitializing {\r\n        onlyInitializingRan = true;\r\n    }\r\n\r\n    function initializerNested() public initializer {\r\n        initialize();\r\n    }\r\n\r\n    function onlyInitializingNested() public initializer {\r\n        initializeOnlyInitializing();\r\n    }\r\n\r\n    function initializeWithX(uint256 _x) public payable initializer {\r\n        x = _x;\r\n    }\r\n\r\n    function nonInitializable(uint256 _x) public payable {\r\n        x = _x;\r\n    }\r\n\r\n    function fail() public pure {\r\n        require(false, \"InitializableMock forced failure\");\r\n    }\r\n}\r\n\r\ncontract ConstructorInitializableMock is Initializable {\r\n    bool public initializerRan;\r\n    bool public onlyInitializingRan;\r\n\r\n    constructor() initializer {\r\n        initialize();\r\n        initializeOnlyInitializing();\r\n    }\r\n\r\n    function initialize() public initializer {\r\n        initializerRan = true;\r\n    }\r\n\r\n    function initializeOnlyInitializing() public onlyInitializing {\r\n        onlyInitializingRan = true;\r\n    }\r\n}\r\n\r\ncontract ChildConstructorInitializableMock is ConstructorInitializableMock {\r\n    bool public childInitializerRan;\r\n\r\n    constructor() initializer {\r\n        childInitialize();\r\n    }\r\n\r\n    function childInitialize() public initializer {\r\n        childInitializerRan = true;\r\n    }\r\n}\r\n\r\ncontract ReinitializerMock is Initializable {\r\n    uint256 public counter;\r\n\r\n    function initialize() public initializer {\r\n        doStuff();\r\n    }\r\n\r\n    function reinitialize(uint8 i) public reinitializer(i) {\r\n        doStuff();\r\n    }\r\n\r\n    function nestedReinitialize(uint8 i, uint8 j) public reinitializer(i) {\r\n        reinitialize(j);\r\n    }\r\n\r\n    function chainReinitialize(uint8 i, uint8 j) public {\r\n        reinitialize(i);\r\n        reinitialize(j);\r\n    }\r\n\r\n    function disableInitializers() public {\r\n        _disableInitializers();\r\n    }\r\n\r\n    function doStuff() public onlyInitializing {\r\n        counter++;\r\n    }\r\n}\r\n\r\ncontract DisableNew is Initializable {\r\n    constructor() {\r\n        _disableInitializers();\r\n    }\r\n}\r\n\r\ncontract DisableOld is Initializable {\r\n    constructor() initializer {}\r\n}\r\n\r\ncontract DisableBad1 is DisableNew, DisableOld {}\r\n\r\ncontract DisableBad2 is Initializable {\r\n    constructor() initializer {\r\n        _disableInitializers();\r\n    }\r\n}\r\n\r\ncontract DisableOk is DisableOld, DisableNew {}\r\n",
  "sourcePath": "D:\\work\\www\\yopu_dapp_nft\\contracts\\lib\\openzeppelin\\contracts\\mocks\\InitializableMock.sol",
  "compiler": {
    "name": "solc",
    "version": "0.8.14+commit.80d49f37.Emscripten.clang"
  },
  "schemaVersion": "3.4.7",
  "updatedAt": "2022-06-28T15:05:48.078Z",
  "devdoc": {
    "kind": "dev",
    "methods": {},
    "version": 1
  },
  "userdoc": {
    "kind": "user",
    "methods": {},
    "version": 1
  }
}