{
  "contractName": "SafeMathMock",
  "abi": [
    {
      "inputs": [
        {
          "internalType": "uint256",
          "name": "a",
          "type": "uint256"
        },
        {
          "internalType": "uint256",
          "name": "b",
          "type": "uint256"
        }
      ],
      "name": "tryAdd",
      "outputs": [
        {
          "internalType": "bool",
          "name": "flag",
          "type": "bool"
        },
        {
          "internalType": "uint256",
          "name": "value",
          "type": "uint256"
        }
      ],
      "stateMutability": "pure",
      "type": "function"
    },
    {
      "inputs": [
        {
          "internalType": "uint256",
          "name": "a",
          "type": "uint256"
        },
        {
          "internalType": "uint256",
          "name": "b",
          "type": "uint256"
        }
      ],
      "name": "trySub",
      "outputs": [
        {
          "internalType": "bool",
          "name": "flag",
          "type": "bool"
        },
        {
          "internalType": "uint256",
          "name": "value",
          "type": "uint256"
        }
      ],
      "stateMutability": "pure",
      "type": "function"
    },
    {
      "inputs": [
        {
          "internalType": "uint256",
          "name": "a",
          "type": "uint256"
        },
        {
          "internalType": "uint256",
          "name": "b",
          "type": "uint256"
        }
      ],
      "name": "tryMul",
      "outputs": [
        {
          "internalType": "bool",
          "name": "flag",
          "type": "bool"
        },
        {
          "internalType": "uint256",
          "name": "value",
          "type": "uint256"
        }
      ],
      "stateMutability": "pure",
      "type": "function"
    },
    {
      "inputs": [
        {
          "internalType": "uint256",
          "name": "a",
          "type": "uint256"
        },
        {
          "internalType": "uint256",
          "name": "b",
          "type": "uint256"
        }
      ],
      "name": "tryDiv",
      "outputs": [
        {
          "internalType": "bool",
          "name": "flag",
          "type": "bool"
        },
        {
          "internalType": "uint256",
          "name": "value",
          "type": "uint256"
        }
      ],
      "stateMutability": "pure",
      "type": "function"
    },
    {
      "inputs": [
        {
          "internalType": "uint256",
          "name": "a",
          "type": "uint256"
        },
        {
          "internalType": "uint256",
          "name": "b",
          "type": "uint256"
        }
      ],
      "name": "tryMod",
      "outputs": [
        {
          "internalType": "bool",
          "name": "flag",
          "type": "bool"
        },
        {
          "internalType": "uint256",
          "name": "value",
          "type": "uint256"
        }
      ],
      "stateMutability": "pure",
      "type": "function"
    },
    {
      "inputs": [
        {
          "internalType": "uint256",
          "name": "a",
          "type": "uint256"
        },
        {
          "internalType": "uint256",
          "name": "b",
          "type": "uint256"
        }
      ],
      "name": "doAdd",
      "outputs": [
        {
          "internalType": "uint256",
          "name": "",
          "type": "uint256"
        }
      ],
      "stateMutability": "pure",
      "type": "function"
    },
    {
      "inputs": [
        {
          "internalType": "uint256",
          "name": "a",
          "type": "uint256"
        },
        {
          "internalType": "uint256",
          "name": "b",
          "type": "uint256"
        }
      ],
      "name": "doSub",
      "outputs": [
        {
          "internalType": "uint256",
          "name": "",
          "type": "uint256"
        }
      ],
      "stateMutability": "pure",
      "type": "function"
    },
    {
      "inputs": [
        {
          "internalType": "uint256",
          "name": "a",
          "type": "uint256"
        },
        {
          "internalType": "uint256",
          "name": "b",
          "type": "uint256"
        }
      ],
      "name": "doMul",
      "outputs": [
        {
          "internalType": "uint256",
          "name": "",
          "type": "uint256"
        }
      ],
      "stateMutability": "pure",
      "type": "function"
    },
    {
      "inputs": [
        {
          "internalType": "uint256",
          "name": "a",
          "type": "uint256"
        },
        {
          "internalType": "uint256",
          "name": "b",
          "type": "uint256"
        }
      ],
      "name": "doDiv",
      "outputs": [
        {
          "internalType": "uint256",
          "name": "",
          "type": "uint256"
        }
      ],
      "stateMutability": "pure",
      "type": "function"
    },
    {
      "inputs": [
        {
          "internalType": "uint256",
          "name": "a",
          "type": "uint256"
        },
        {
          "internalType": "uint256",
          "name": "b",
          "type": "uint256"
        }
      ],
      "name": "doMod",
      "outputs": [
        {
          "internalType": "uint256",
          "name": "",
          "type": "uint256"
        }
      ],
      "stateMutability": "pure",
      "type": "function"
    },
    {
      "inputs": [
        {
          "internalType": "uint256",
          "name": "a",
          "type": "uint256"
        },
        {
          "internalType": "uint256",
          "name": "b",
          "type": "uint256"
        },
        {
          "internalType": "string",
          "name": "errorMessage",
          "type": "string"
        }
      ],
      "name": "subWithMessage",
      "outputs": [
        {
          "internalType": "uint256",
          "name": "",
          "type": "uint256"
        }
      ],
      "stateMutability": "pure",
      "type": "function"
    },
    {
      "inputs": [
        {
          "internalType": "uint256",
          "name": "a",
          "type": "uint256"
        },
        {
          "internalType": "uint256",
          "name": "b",
          "type": "uint256"
        },
        {
          "internalType": "string",
          "name": "errorMessage",
          "type": "string"
        }
      ],
      "name": "divWithMessage",
      "outputs": [
        {
          "internalType": "uint256",
          "name": "",
          "type": "uint256"
        }
      ],
      "stateMutability": "pure",
      "type": "function"
    },
    {
      "inputs": [
        {
          "internalType": "uint256",
          "name": "a",
          "type": "uint256"
        },
        {
          "internalType": "uint256",
          "name": "b",
          "type": "uint256"
        },
        {
          "internalType": "string",
          "name": "errorMessage",
          "type": "string"
        }
      ],
      "name": "modWithMessage",
      "outputs": [
        {
          "internalType": "uint256",
          "name": "",
          "type": "uint256"
        }
      ],
      "stateMutability": "pure",
      "type": "function"
    },
    {
      "inputs": [],
      "name": "addMemoryCheck",
      "outputs": [
        {
          "internalType": "uint256",
          "name": "mem",
          "type": "uint256"
        }
      ],
      "stateMutability": "pure",
      "type": "function"
    },
    {
      "inputs": [],
      "name": "subMemoryCheck",
      "outputs": [
        {
          "internalType": "uint256",
          "name": "mem",
          "type": "uint256"
        }
      ],
      "stateMutability": "pure",
      "type": "function"
    },
    {
      "inputs": [],
      "name": "mulMemoryCheck",
      "outputs": [
        {
          "internalType": "uint256",
          "name": "mem",
          "type": "uint256"
        }
      ],
      "stateMutability": "pure",
      "type": "function"
    },
    {
      "inputs": [],
      "name": "divMemoryCheck",
      "outputs": [
        {
          "internalType": "uint256",
          "name": "mem",
          "type": "uint256"
        }
      ],
      "stateMutability": "pure",
      "type": "function"
    },
    {
      "inputs": [],
      "name": "modMemoryCheck",
      "outputs": [
        {
          "internalType": "uint256",
          "name": "mem",
          "type": "uint256"
        }
      ],
      "stateMutability": "pure",
      "type": "function"
    }
  ],
  "bytecode": "0x608060405234801561001057600080fd5b506107ea806100206000396000f3fe608060405234801561001057600080fd5b50600436106100e65760003560e01c80633449b5fb146100eb57806338dc0867146101115780636281efa41461013b5780636c7ac6371461014e5780636f91e80214610161578063736ecb18146101695780637e86d25c1461017c578063869f602f14610184578063884557bf146101975780639f5cec89146101aa578063a155bd62146101bd578063a29962b1146101d0578063c460ae04146101e3578063dcc721d2146101eb578063fb119198146101fe578063fb24c86014610211578063fb999ded14610219578063fc0ce50314610221575b600080fd5b6100fe6100f93660046105bf565b610234565b6040519081526020015b60405180910390f35b61012461011f366004610682565b610249565b604080519215158352602083019190915201610108565b610124610149366004610682565b610262565b6100fe61015c366004610682565b61026f565b6100fe610282565b610124610177366004610682565b6102b7565b6100fe6102c4565b6100fe610192366004610682565b6102f0565b6101246101a5366004610682565b6102fc565b6100fe6101b83660046105bf565b610309565b6100fe6101cb3660046105bf565b610316565b6101246101de366004610682565b610323565b6100fe610330565b6100fe6101f9366004610682565b61035c565b6100fe61020c366004610682565b610368565b6100fe610374565b6100fe6103a0565b6100fe61022f366004610682565b6103cc565b60006102418484846103d8565b949350505050565b600080610256848461041b565b915091505b9250929050565b600080610256848461044e565b600061027b8383610497565b9392505050565b604051602060005b818110156102ae5761029d6001806104a3565b506102a7816106ba565b905061028a565b50506040510390565b60008061025684846104af565b604051602060005b818110156102ae576102df6001806104e2565b506102e9816106ba565b90506102cc565b600061027b83836104a3565b60008061025684846104ee565b6000610241848484610509565b6000610241848484610535565b600080610256848461056f565b604051602060005b818110156102ae5761034b600180610591565b50610355816106ba565b9050610338565b600061027b838361059d565b600061027b83836104e2565b604051602060005b818110156102ae5761038f60018061059d565b50610399816106ba565b905061037c565b604051602060005b818110156102ae576103bb600180610497565b506103c5816106ba565b90506103a8565b600061027b8383610591565b600081836104025760405162461bcd60e51b81526004016103f991906106d3565b60405180910390fd5b5082848161041257610412610728565b04949350505050565b600080826000036104315750600090508061025b565b600183858161044257610442610728565b06915091509250929050565b60008083600003610465575060019050600061025b565b8383028385828161047857610478610728565b041461048b57600080925092505061025b565b60019590945092505050565b600061027b828461073e565b600061027b8284610755565b600080826000036104c55750600090508061025b565b60018385816104d6576104d6610728565b04915091509250929050565b600061027b8284610769565b6000808383018481101561048b57600080925092505061025b565b6000818484111561052d5760405162461bcd60e51b81526004016103f991906106d3565b505050900390565b600081836105565760405162461bcd60e51b81526004016103f991906106d3565b5082848161056657610566610728565b06949350505050565b600080838311156105855750600090508061025b565b50600193919092039150565b600061027b8284610788565b600061027b828461079c565b634e487b7160e01b600052604160045260246000fd5b6000806000606084860312156105d457600080fd5b833592506020840135915060408401356001600160401b03808211156105f957600080fd5b818601915086601f83011261060d57600080fd5b81358181111561061f5761061f6105a9565b604051601f8201601f19908116603f01168101908382118183101715610647576106476105a9565b8160405282815289602084870101111561066057600080fd5b8260208601602083013760006020848301015280955050505050509250925092565b6000806040838503121561069557600080fd5b50508035926020909101359150565b634e487b7160e01b600052601160045260246000fd5b6000600182016106cc576106cc6106a4565b5060010190565b600060208083528351808285015260005b81811015610700578581018301518582016040015282016106e4565b81811115610712576000604083870101525b50601f01601f1916929092016040019392505050565b634e487b7160e01b600052601260045260246000fd5b600082821015610750576107506106a4565b500390565b60008261076457610764610728565b500690565b6000816000190483118215151615610783576107836106a4565b500290565b60008261079757610797610728565b500490565b600082198211156107af576107af6106a4565b50019056fea2646970667358221220430ce1428cd9b4e61980bc885a46eacf4b7d74f205eb2ce12767c0c17ae8e61964736f6c634300080e0033",
  "immutableReferences": {},
  "source": "// SPDX-License-Identifier: MIT\r\n\r\npragma solidity ^0.8.0;\r\n\r\nimport \"../utils/math/SafeMath.sol\";\r\n\r\ncontract SafeMathMock {\r\n    function tryAdd(uint256 a, uint256 b) public pure returns (bool flag, uint256 value) {\r\n        return SafeMath.tryAdd(a, b);\r\n    }\r\n\r\n    function trySub(uint256 a, uint256 b) public pure returns (bool flag, uint256 value) {\r\n        return SafeMath.trySub(a, b);\r\n    }\r\n\r\n    function tryMul(uint256 a, uint256 b) public pure returns (bool flag, uint256 value) {\r\n        return SafeMath.tryMul(a, b);\r\n    }\r\n\r\n    function tryDiv(uint256 a, uint256 b) public pure returns (bool flag, uint256 value) {\r\n        return SafeMath.tryDiv(a, b);\r\n    }\r\n\r\n    function tryMod(uint256 a, uint256 b) public pure returns (bool flag, uint256 value) {\r\n        return SafeMath.tryMod(a, b);\r\n    }\r\n\r\n    // using the do* naming convention to avoid warnings due to clashing opcode names\r\n\r\n    function doAdd(uint256 a, uint256 b) public pure returns (uint256) {\r\n        return SafeMath.add(a, b);\r\n    }\r\n\r\n    function doSub(uint256 a, uint256 b) public pure returns (uint256) {\r\n        return SafeMath.sub(a, b);\r\n    }\r\n\r\n    function doMul(uint256 a, uint256 b) public pure returns (uint256) {\r\n        return SafeMath.mul(a, b);\r\n    }\r\n\r\n    function doDiv(uint256 a, uint256 b) public pure returns (uint256) {\r\n        return SafeMath.div(a, b);\r\n    }\r\n\r\n    function doMod(uint256 a, uint256 b) public pure returns (uint256) {\r\n        return SafeMath.mod(a, b);\r\n    }\r\n\r\n    function subWithMessage(\r\n        uint256 a,\r\n        uint256 b,\r\n        string memory errorMessage\r\n    ) public pure returns (uint256) {\r\n        return SafeMath.sub(a, b, errorMessage);\r\n    }\r\n\r\n    function divWithMessage(\r\n        uint256 a,\r\n        uint256 b,\r\n        string memory errorMessage\r\n    ) public pure returns (uint256) {\r\n        return SafeMath.div(a, b, errorMessage);\r\n    }\r\n\r\n    function modWithMessage(\r\n        uint256 a,\r\n        uint256 b,\r\n        string memory errorMessage\r\n    ) public pure returns (uint256) {\r\n        return SafeMath.mod(a, b, errorMessage);\r\n    }\r\n\r\n    function addMemoryCheck() public pure returns (uint256 mem) {\r\n        uint256 length = 32;\r\n        assembly {\r\n            mem := mload(0x40)\r\n        }\r\n        for (uint256 i = 0; i < length; ++i) {\r\n            SafeMath.add(1, 1);\r\n        }\r\n        assembly {\r\n            mem := sub(mload(0x40), mem)\r\n        }\r\n    }\r\n\r\n    function subMemoryCheck() public pure returns (uint256 mem) {\r\n        uint256 length = 32;\r\n        assembly {\r\n            mem := mload(0x40)\r\n        }\r\n        for (uint256 i = 0; i < length; ++i) {\r\n            SafeMath.sub(1, 1);\r\n        }\r\n        assembly {\r\n            mem := sub(mload(0x40), mem)\r\n        }\r\n    }\r\n\r\n    function mulMemoryCheck() public pure returns (uint256 mem) {\r\n        uint256 length = 32;\r\n        assembly {\r\n            mem := mload(0x40)\r\n        }\r\n        for (uint256 i = 0; i < length; ++i) {\r\n            SafeMath.mul(1, 1);\r\n        }\r\n        assembly {\r\n            mem := sub(mload(0x40), mem)\r\n        }\r\n    }\r\n\r\n    function divMemoryCheck() public pure returns (uint256 mem) {\r\n        uint256 length = 32;\r\n        assembly {\r\n            mem := mload(0x40)\r\n        }\r\n        for (uint256 i = 0; i < length; ++i) {\r\n            SafeMath.div(1, 1);\r\n        }\r\n        assembly {\r\n            mem := sub(mload(0x40), mem)\r\n        }\r\n    }\r\n\r\n    function modMemoryCheck() public pure returns (uint256 mem) {\r\n        uint256 length = 32;\r\n        assembly {\r\n            mem := mload(0x40)\r\n        }\r\n        for (uint256 i = 0; i < length; ++i) {\r\n            SafeMath.mod(1, 1);\r\n        }\r\n        assembly {\r\n            mem := sub(mload(0x40), mem)\r\n        }\r\n    }\r\n}\r\n",
  "sourcePath": "D:\\work\\www\\yopu_dapp_nft\\contracts\\lib\\openzeppelin\\contracts\\mocks\\SafeMathMock.sol",
  "compiler": {
    "name": "solc",
    "version": "0.8.14+commit.80d49f37.Emscripten.clang"
  },
  "schemaVersion": "3.4.7",
  "updatedAt": "2022-06-28T15:05:48.231Z",
  "devdoc": {
    "kind": "dev",
    "methods": {},
    "version": 1
  },
  "userdoc": {
    "kind": "user",
    "methods": {},
    "version": 1
  }
}