{
  "contractName": "SafeCastMock",
  "abi": [
    {
      "inputs": [
        {
          "internalType": "int256",
          "name": "a",
          "type": "int256"
        }
      ],
      "name": "toUint256",
      "outputs": [
        {
          "internalType": "uint256",
          "name": "",
          "type": "uint256"
        }
      ],
      "stateMutability": "pure",
      "type": "function"
    },
    {
      "inputs": [
        {
          "internalType": "uint256",
          "name": "a",
          "type": "uint256"
        }
      ],
      "name": "toUint248",
      "outputs": [
        {
          "internalType": "uint248",
          "name": "",
          "type": "uint248"
        }
      ],
      "stateMutability": "pure",
      "type": "function"
    },
    {
      "inputs": [
        {
          "internalType": "uint256",
          "name": "a",
          "type": "uint256"
        }
      ],
      "name": "toUint240",
      "outputs": [
        {
          "internalType": "uint240",
          "name": "",
          "type": "uint240"
        }
      ],
      "stateMutability": "pure",
      "type": "function"
    },
    {
      "inputs": [
        {
          "internalType": "uint256",
          "name": "a",
          "type": "uint256"
        }
      ],
      "name": "toUint232",
      "outputs": [
        {
          "internalType": "uint232",
          "name": "",
          "type": "uint232"
        }
      ],
      "stateMutability": "pure",
      "type": "function"
    },
    {
      "inputs": [
        {
          "internalType": "uint256",
          "name": "a",
          "type": "uint256"
        }
      ],
      "name": "toUint224",
      "outputs": [
        {
          "internalType": "uint224",
          "name": "",
          "type": "uint224"
        }
      ],
      "stateMutability": "pure",
      "type": "function"
    },
    {
      "inputs": [
        {
          "internalType": "uint256",
          "name": "a",
          "type": "uint256"
        }
      ],
      "name": "toUint216",
      "outputs": [
        {
          "internalType": "uint216",
          "name": "",
          "type": "uint216"
        }
      ],
      "stateMutability": "pure",
      "type": "function"
    },
    {
      "inputs": [
        {
          "internalType": "uint256",
          "name": "a",
          "type": "uint256"
        }
      ],
      "name": "toUint208",
      "outputs": [
        {
          "internalType": "uint208",
          "name": "",
          "type": "uint208"
        }
      ],
      "stateMutability": "pure",
      "type": "function"
    },
    {
      "inputs": [
        {
          "internalType": "uint256",
          "name": "a",
          "type": "uint256"
        }
      ],
      "name": "toUint200",
      "outputs": [
        {
          "internalType": "uint200",
          "name": "",
          "type": "uint200"
        }
      ],
      "stateMutability": "pure",
      "type": "function"
    },
    {
      "inputs": [
        {
          "internalType": "uint256",
          "name": "a",
          "type": "uint256"
        }
      ],
      "name": "toUint192",
      "outputs": [
        {
          "internalType": "uint192",
          "name": "",
          "type": "uint192"
        }
      ],
      "stateMutability": "pure",
      "type": "function"
    },
    {
      "inputs": [
        {
          "internalType": "uint256",
          "name": "a",
          "type": "uint256"
        }
      ],
      "name": "toUint184",
      "outputs": [
        {
          "internalType": "uint184",
          "name": "",
          "type": "uint184"
        }
      ],
      "stateMutability": "pure",
      "type": "function"
    },
    {
      "inputs": [
        {
          "internalType": "uint256",
          "name": "a",
          "type": "uint256"
        }
      ],
      "name": "toUint176",
      "outputs": [
        {
          "internalType": "uint176",
          "name": "",
          "type": "uint176"
        }
      ],
      "stateMutability": "pure",
      "type": "function"
    },
    {
      "inputs": [
        {
          "internalType": "uint256",
          "name": "a",
          "type": "uint256"
        }
      ],
      "name": "toUint168",
      "outputs": [
        {
          "internalType": "uint168",
          "name": "",
          "type": "uint168"
        }
      ],
      "stateMutability": "pure",
      "type": "function"
    },
    {
      "inputs": [
        {
          "internalType": "uint256",
          "name": "a",
          "type": "uint256"
        }
      ],
      "name": "toUint160",
      "outputs": [
        {
          "internalType": "uint160",
          "name": "",
          "type": "uint160"
        }
      ],
      "stateMutability": "pure",
      "type": "function"
    },
    {
      "inputs": [
        {
          "internalType": "uint256",
          "name": "a",
          "type": "uint256"
        }
      ],
      "name": "toUint152",
      "outputs": [
        {
          "internalType": "uint152",
          "name": "",
          "type": "uint152"
        }
      ],
      "stateMutability": "pure",
      "type": "function"
    },
    {
      "inputs": [
        {
          "internalType": "uint256",
          "name": "a",
          "type": "uint256"
        }
      ],
      "name": "toUint144",
      "outputs": [
        {
          "internalType": "uint144",
          "name": "",
          "type": "uint144"
        }
      ],
      "stateMutability": "pure",
      "type": "function"
    },
    {
      "inputs": [
        {
          "internalType": "uint256",
          "name": "a",
          "type": "uint256"
        }
      ],
      "name": "toUint136",
      "outputs": [
        {
          "internalType": "uint136",
          "name": "",
          "type": "uint136"
        }
      ],
      "stateMutability": "pure",
      "type": "function"
    },
    {
      "inputs": [
        {
          "internalType": "uint256",
          "name": "a",
          "type": "uint256"
        }
      ],
      "name": "toUint128",
      "outputs": [
        {
          "internalType": "uint128",
          "name": "",
          "type": "uint128"
        }
      ],
      "stateMutability": "pure",
      "type": "function"
    },
    {
      "inputs": [
        {
          "internalType": "uint256",
          "name": "a",
          "type": "uint256"
        }
      ],
      "name": "toUint120",
      "outputs": [
        {
          "internalType": "uint120",
          "name": "",
          "type": "uint120"
        }
      ],
      "stateMutability": "pure",
      "type": "function"
    },
    {
      "inputs": [
        {
          "internalType": "uint256",
          "name": "a",
          "type": "uint256"
        }
      ],
      "name": "toUint112",
      "outputs": [
        {
          "internalType": "uint112",
          "name": "",
          "type": "uint112"
        }
      ],
      "stateMutability": "pure",
      "type": "function"
    },
    {
      "inputs": [
        {
          "internalType": "uint256",
          "name": "a",
          "type": "uint256"
        }
      ],
      "name": "toUint104",
      "outputs": [
        {
          "internalType": "uint104",
          "name": "",
          "type": "uint104"
        }
      ],
      "stateMutability": "pure",
      "type": "function"
    },
    {
      "inputs": [
        {
          "internalType": "uint256",
          "name": "a",
          "type": "uint256"
        }
      ],
      "name": "toUint96",
      "outputs": [
        {
          "internalType": "uint96",
          "name": "",
          "type": "uint96"
        }
      ],
      "stateMutability": "pure",
      "type": "function"
    },
    {
      "inputs": [
        {
          "internalType": "uint256",
          "name": "a",
          "type": "uint256"
        }
      ],
      "name": "toUint88",
      "outputs": [
        {
          "internalType": "uint88",
          "name": "",
          "type": "uint88"
        }
      ],
      "stateMutability": "pure",
      "type": "function"
    },
    {
      "inputs": [
        {
          "internalType": "uint256",
          "name": "a",
          "type": "uint256"
        }
      ],
      "name": "toUint80",
      "outputs": [
        {
          "internalType": "uint80",
          "name": "",
          "type": "uint80"
        }
      ],
      "stateMutability": "pure",
      "type": "function"
    },
    {
      "inputs": [
        {
          "internalType": "uint256",
          "name": "a",
          "type": "uint256"
        }
      ],
      "name": "toUint72",
      "outputs": [
        {
          "internalType": "uint72",
          "name": "",
          "type": "uint72"
        }
      ],
      "stateMutability": "pure",
      "type": "function"
    },
    {
      "inputs": [
        {
          "internalType": "uint256",
          "name": "a",
          "type": "uint256"
        }
      ],
      "name": "toUint64",
      "outputs": [
        {
          "internalType": "uint64",
          "name": "",
          "type": "uint64"
        }
      ],
      "stateMutability": "pure",
      "type": "function"
    },
    {
      "inputs": [
        {
          "internalType": "uint256",
          "name": "a",
          "type": "uint256"
        }
      ],
      "name": "toUint56",
      "outputs": [
        {
          "internalType": "uint56",
          "name": "",
          "type": "uint56"
        }
      ],
      "stateMutability": "pure",
      "type": "function"
    },
    {
      "inputs": [
        {
          "internalType": "uint256",
          "name": "a",
          "type": "uint256"
        }
      ],
      "name": "toUint48",
      "outputs": [
        {
          "internalType": "uint48",
          "name": "",
          "type": "uint48"
        }
      ],
      "stateMutability": "pure",
      "type": "function"
    },
    {
      "inputs": [
        {
          "internalType": "uint256",
          "name": "a",
          "type": "uint256"
        }
      ],
      "name": "toUint40",
      "outputs": [
        {
          "internalType": "uint40",
          "name": "",
          "type": "uint40"
        }
      ],
      "stateMutability": "pure",
      "type": "function"
    },
    {
      "inputs": [
        {
          "internalType": "uint256",
          "name": "a",
          "type": "uint256"
        }
      ],
      "name": "toUint32",
      "outputs": [
        {
          "internalType": "uint32",
          "name": "",
          "type": "uint32"
        }
      ],
      "stateMutability": "pure",
      "type": "function"
    },
    {
      "inputs": [
        {
          "internalType": "uint256",
          "name": "a",
          "type": "uint256"
        }
      ],
      "name": "toUint24",
      "outputs": [
        {
          "internalType": "uint24",
          "name": "",
          "type": "uint24"
        }
      ],
      "stateMutability": "pure",
      "type": "function"
    },
    {
      "inputs": [
        {
          "internalType": "uint256",
          "name": "a",
          "type": "uint256"
        }
      ],
      "name": "toUint16",
      "outputs": [
        {
          "internalType": "uint16",
          "name": "",
          "type": "uint16"
        }
      ],
      "stateMutability": "pure",
      "type": "function"
    },
    {
      "inputs": [
        {
          "internalType": "uint256",
          "name": "a",
          "type": "uint256"
        }
      ],
      "name": "toUint8",
      "outputs": [
        {
          "internalType": "uint8",
          "name": "",
          "type": "uint8"
        }
      ],
      "stateMutability": "pure",
      "type": "function"
    },
    {
      "inputs": [
        {
          "internalType": "uint256",
          "name": "a",
          "type": "uint256"
        }
      ],
      "name": "toInt256",
      "outputs": [
        {
          "internalType": "int256",
          "name": "",
          "type": "int256"
        }
      ],
      "stateMutability": "pure",
      "type": "function"
    },
    {
      "inputs": [
        {
          "internalType": "int256",
          "name": "a",
          "type": "int256"
        }
      ],
      "name": "toInt248",
      "outputs": [
        {
          "internalType": "int248",
          "name": "",
          "type": "int248"
        }
      ],
      "stateMutability": "pure",
      "type": "function"
    },
    {
      "inputs": [
        {
          "internalType": "int256",
          "name": "a",
          "type": "int256"
        }
      ],
      "name": "toInt240",
      "outputs": [
        {
          "internalType": "int240",
          "name": "",
          "type": "int240"
        }
      ],
      "stateMutability": "pure",
      "type": "function"
    },
    {
      "inputs": [
        {
          "internalType": "int256",
          "name": "a",
          "type": "int256"
        }
      ],
      "name": "toInt232",
      "outputs": [
        {
          "internalType": "int232",
          "name": "",
          "type": "int232"
        }
      ],
      "stateMutability": "pure",
      "type": "function"
    },
    {
      "inputs": [
        {
          "internalType": "int256",
          "name": "a",
          "type": "int256"
        }
      ],
      "name": "toInt224",
      "outputs": [
        {
          "internalType": "int224",
          "name": "",
          "type": "int224"
        }
      ],
      "stateMutability": "pure",
      "type": "function"
    },
    {
      "inputs": [
        {
          "internalType": "int256",
          "name": "a",
          "type": "int256"
        }
      ],
      "name": "toInt216",
      "outputs": [
        {
          "internalType": "int216",
          "name": "",
          "type": "int216"
        }
      ],
      "stateMutability": "pure",
      "type": "function"
    },
    {
      "inputs": [
        {
          "internalType": "int256",
          "name": "a",
          "type": "int256"
        }
      ],
      "name": "toInt208",
      "outputs": [
        {
          "internalType": "int208",
          "name": "",
          "type": "int208"
        }
      ],
      "stateMutability": "pure",
      "type": "function"
    },
    {
      "inputs": [
        {
          "internalType": "int256",
          "name": "a",
          "type": "int256"
        }
      ],
      "name": "toInt200",
      "outputs": [
        {
          "internalType": "int200",
          "name": "",
          "type": "int200"
        }
      ],
      "stateMutability": "pure",
      "type": "function"
    },
    {
      "inputs": [
        {
          "internalType": "int256",
          "name": "a",
          "type": "int256"
        }
      ],
      "name": "toInt192",
      "outputs": [
        {
          "internalType": "int192",
          "name": "",
          "type": "int192"
        }
      ],
      "stateMutability": "pure",
      "type": "function"
    },
    {
      "inputs": [
        {
          "internalType": "int256",
          "name": "a",
          "type": "int256"
        }
      ],
      "name": "toInt184",
      "outputs": [
        {
          "internalType": "int184",
          "name": "",
          "type": "int184"
        }
      ],
      "stateMutability": "pure",
      "type": "function"
    },
    {
      "inputs": [
        {
          "internalType": "int256",
          "name": "a",
          "type": "int256"
        }
      ],
      "name": "toInt176",
      "outputs": [
        {
          "internalType": "int176",
          "name": "",
          "type": "int176"
        }
      ],
      "stateMutability": "pure",
      "type": "function"
    },
    {
      "inputs": [
        {
          "internalType": "int256",
          "name": "a",
          "type": "int256"
        }
      ],
      "name": "toInt168",
      "outputs": [
        {
          "internalType": "int168",
          "name": "",
          "type": "int168"
        }
      ],
      "stateMutability": "pure",
      "type": "function"
    },
    {
      "inputs": [
        {
          "internalType": "int256",
          "name": "a",
          "type": "int256"
        }
      ],
      "name": "toInt160",
      "outputs": [
        {
          "internalType": "int160",
          "name": "",
          "type": "int160"
        }
      ],
      "stateMutability": "pure",
      "type": "function"
    },
    {
      "inputs": [
        {
          "internalType": "int256",
          "name": "a",
          "type": "int256"
        }
      ],
      "name": "toInt152",
      "outputs": [
        {
          "internalType": "int152",
          "name": "",
          "type": "int152"
        }
      ],
      "stateMutability": "pure",
      "type": "function"
    },
    {
      "inputs": [
        {
          "internalType": "int256",
          "name": "a",
          "type": "int256"
        }
      ],
      "name": "toInt144",
      "outputs": [
        {
          "internalType": "int144",
          "name": "",
          "type": "int144"
        }
      ],
      "stateMutability": "pure",
      "type": "function"
    },
    {
      "inputs": [
        {
          "internalType": "int256",
          "name": "a",
          "type": "int256"
        }
      ],
      "name": "toInt136",
      "outputs": [
        {
          "internalType": "int136",
          "name": "",
          "type": "int136"
        }
      ],
      "stateMutability": "pure",
      "type": "function"
    },
    {
      "inputs": [
        {
          "internalType": "int256",
          "name": "a",
          "type": "int256"
        }
      ],
      "name": "toInt128",
      "outputs": [
        {
          "internalType": "int128",
          "name": "",
          "type": "int128"
        }
      ],
      "stateMutability": "pure",
      "type": "function"
    },
    {
      "inputs": [
        {
          "internalType": "int256",
          "name": "a",
          "type": "int256"
        }
      ],
      "name": "toInt120",
      "outputs": [
        {
          "internalType": "int120",
          "name": "",
          "type": "int120"
        }
      ],
      "stateMutability": "pure",
      "type": "function"
    },
    {
      "inputs": [
        {
          "internalType": "int256",
          "name": "a",
          "type": "int256"
        }
      ],
      "name": "toInt112",
      "outputs": [
        {
          "internalType": "int112",
          "name": "",
          "type": "int112"
        }
      ],
      "stateMutability": "pure",
      "type": "function"
    },
    {
      "inputs": [
        {
          "internalType": "int256",
          "name": "a",
          "type": "int256"
        }
      ],
      "name": "toInt104",
      "outputs": [
        {
          "internalType": "int104",
          "name": "",
          "type": "int104"
        }
      ],
      "stateMutability": "pure",
      "type": "function"
    },
    {
      "inputs": [
        {
          "internalType": "int256",
          "name": "a",
          "type": "int256"
        }
      ],
      "name": "toInt96",
      "outputs": [
        {
          "internalType": "int96",
          "name": "",
          "type": "int96"
        }
      ],
      "stateMutability": "pure",
      "type": "function"
    },
    {
      "inputs": [
        {
          "internalType": "int256",
          "name": "a",
          "type": "int256"
        }
      ],
      "name": "toInt88",
      "outputs": [
        {
          "internalType": "int88",
          "name": "",
          "type": "int88"
        }
      ],
      "stateMutability": "pure",
      "type": "function"
    },
    {
      "inputs": [
        {
          "internalType": "int256",
          "name": "a",
          "type": "int256"
        }
      ],
      "name": "toInt80",
      "outputs": [
        {
          "internalType": "int80",
          "name": "",
          "type": "int80"
        }
      ],
      "stateMutability": "pure",
      "type": "function"
    },
    {
      "inputs": [
        {
          "internalType": "int256",
          "name": "a",
          "type": "int256"
        }
      ],
      "name": "toInt72",
      "outputs": [
        {
          "internalType": "int72",
          "name": "",
          "type": "int72"
        }
      ],
      "stateMutability": "pure",
      "type": "function"
    },
    {
      "inputs": [
        {
          "internalType": "int256",
          "name": "a",
          "type": "int256"
        }
      ],
      "name": "toInt64",
      "outputs": [
        {
          "internalType": "int64",
          "name": "",
          "type": "int64"
        }
      ],
      "stateMutability": "pure",
      "type": "function"
    },
    {
      "inputs": [
        {
          "internalType": "int256",
          "name": "a",
          "type": "int256"
        }
      ],
      "name": "toInt56",
      "outputs": [
        {
          "internalType": "int56",
          "name": "",
          "type": "int56"
        }
      ],
      "stateMutability": "pure",
      "type": "function"
    },
    {
      "inputs": [
        {
          "internalType": "int256",
          "name": "a",
          "type": "int256"
        }
      ],
      "name": "toInt48",
      "outputs": [
        {
          "internalType": "int48",
          "name": "",
          "type": "int48"
        }
      ],
      "stateMutability": "pure",
      "type": "function"
    },
    {
      "inputs": [
        {
          "internalType": "int256",
          "name": "a",
          "type": "int256"
        }
      ],
      "name": "toInt40",
      "outputs": [
        {
          "internalType": "int40",
          "name": "",
          "type": "int40"
        }
      ],
      "stateMutability": "pure",
      "type": "function"
    },
    {
      "inputs": [
        {
          "internalType": "int256",
          "name": "a",
          "type": "int256"
        }
      ],
      "name": "toInt32",
      "outputs": [
        {
          "internalType": "int32",
          "name": "",
          "type": "int32"
        }
      ],
      "stateMutability": "pure",
      "type": "function"
    },
    {
      "inputs": [
        {
          "internalType": "int256",
          "name": "a",
          "type": "int256"
        }
      ],
      "name": "toInt24",
      "outputs": [
        {
          "internalType": "int24",
          "name": "",
          "type": "int24"
        }
      ],
      "stateMutability": "pure",
      "type": "function"
    },
    {
      "inputs": [
        {
          "internalType": "int256",
          "name": "a",
          "type": "int256"
        }
      ],
      "name": "toInt16",
      "outputs": [
        {
          "internalType": "int16",
          "name": "",
          "type": "int16"
        }
      ],
      "stateMutability": "pure",
      "type": "function"
    },
    {
      "inputs": [
        {
          "internalType": "int256",
          "name": "a",
          "type": "int256"
        }
      ],
      "name": "toInt8",
      "outputs": [
        {
          "internalType": "int8",
          "name": "",
          "type": "int8"
        }
      ],
      "stateMutability": "pure",
      "type": "function"
    }
  ],
  "bytecode": "0x608060405234801561001057600080fd5b50612409806100206000396000f3fe608060405234801561001057600080fd5b50600436106102e05760003560e01c806301b49217146102e557806305752e511461031057806305b131011461033657806307f841be146103615780630cc4681e146103875780630d4a7bdb146103ac57806311e867ff146103d757806318a359ec146103fd5780631cf887fc146104235780631d1131e21461044e5780631e07d036146104745780631e4e4bad1461049a5780632665fad0146104c55780632c81868d146104f0578063316fcbbd1461051657806338d8e45a146105415780633b703090146105675780633fd726721461059257806341d2aa64146105bd57806343710f46146105e857806353b916f11461060e57806354c23feb14610634578063564121c71461065f57806358d421eb1461068a5780635badd405146106b05780635bb79860146106d657806368048346146107015780636c504853146107275780636d6d9e4b1461074d578063720ad67414610773578063785de9bf1461079e5780637ef90ce0146107c9578063809fdd33146107f4578063821bedfa1461081f578063839838381461084557806385bb6ae1146108705780638c48fc221461089b5780639374068f146108c657806395cb3ec6146108ec578063971bcc22146109135780639c6f59be14610939578063ad4b458a1461095f578063b012db6f1461098a578063b0a94087146109b4578063b936bfb3146109da578063bb33fe0814610a05578063c3cd16b514610a30578063c4b4298c14610a56578063c819325514610a81578063cbff595f14610aa9578063cf65b4d314610ad4578063d6bd32aa14610afa578063dd2a031614610b20578063dfbe873b14610b46578063dfef6beb14610b67578063e46ea12014610b92578063e5feca7714610bb8578063e6a6f6f814610bde578063e87167c314610c04578063ea4b667414610c2a578063eaeff4e514610c50578063f136dc0214610c76578063fb7f3c7914610c9c578063fdcf791b14610cc5575b600080fd5b6102f86102f3366004611c82565b610cd8565b604051601e9190910b81526020015b60405180910390f35b61032361031e366004611c82565b610ce9565b604051601c9190910b8152602001610307565b610349610344366004611c82565b610cf4565b6040516001600160b01b039091168152602001610307565b61037461036f366004611c82565b610cff565b60405160179190910b8152602001610307565b61039a610395366004611c82565b610d0a565b60405160ff9091168152602001610307565b6103bf6103ba366004611c82565b610d15565b6040516001600160e81b039091168152602001610307565b6103ea6103e5366004611c82565b610d20565b60405160189190910b8152602001610307565b61041061040b366004611c82565b610d2b565b60405160059190910b8152602001610307565b610436610431366004611c82565b610d36565b6040516001600160601b039091168152602001610307565b61046161045c366004611c82565b610d41565b604051600b9190910b8152602001610307565b610487610482366004611c82565b610d4c565b604051600c9190910b8152602001610307565b6104ad6104a8366004611c82565b610d57565b6040516001600160781b039091168152602001610307565b6104d86104d3366004611c82565b610d62565b6040516001600160401b039091168152602001610307565b6105036104fe366004611c82565b610d6d565b60405160099190910b8152602001610307565b610529610524366004611c82565b610d78565b6040516001600160481b039091168152602001610307565b61055461054f366004611c82565b610d83565b604051601b9190910b8152602001610307565b61057a610575366004611c82565b610d8e565b6040516001600160f01b039091168152602001610307565b6105a56105a0366004611c82565b610d99565b6040516001600160f81b039091168152602001610307565b6105d06105cb366004611c82565b610da4565b6040516001600160701b039091168152602001610307565b6105fb6105f6366004611c82565b610daf565b60405160069190910b8152602001610307565b61062161061c366004611c82565b610dba565b604051601d9190910b8152602001610307565b610647610642366004611c82565b610dc5565b6040516001600160a81b039091168152602001610307565b61067261066d366004611c82565b610dd0565b6040516001600160b81b039091168152602001610307565b61069d610698366004611c82565b610ddb565b604051600d9190910b8152602001610307565b6106c36106be366004611c82565b610de6565b60405160129190910b8152602001610307565b6106e96106e4366004611c82565b610df1565b6040516001600160e01b039091168152602001610307565b61071461070f366004611c82565b610dfc565b60405160139190910b8152602001610307565b61073a610735366004611c82565b610e07565b60405160169190910b8152602001610307565b61076061075b366004611c82565b610e12565b60405160119190910b8152602001610307565b610786610781366004611c82565b610e1d565b6040516001600160c81b039091168152602001610307565b6107b16107ac366004611c82565b610e28565b6040516001600160c01b039091168152602001610307565b6107dc6107d7366004611c82565b610e33565b6040516001600160581b039091168152602001610307565b610807610802366004611c82565b610e3e565b6040516001600160801b039091168152602001610307565b61083261082d366004611c82565b610e49565b60405160159190910b8152602001610307565b610858610853366004611c82565b610e54565b6040516001600160681b039091168152602001610307565b61088361087e366004611c82565b610e5f565b6040516001600160d81b039091168152602001610307565b6108ae6108a9366004611c82565b610e6a565b6040516001600160981b039091168152602001610307565b6108d96108d4366004611c82565b610e75565b60405161ffff9091168152602001610307565b6108ff6108fa366004611c82565b610e80565b60405162ffffff9091168152602001610307565b610926610921366004611c82565b610e8b565b604051600a9190910b8152602001610307565b61094c610947366004611c82565b610e96565b60405160039190910b8152602001610307565b61097261096d366004611c82565b610ea1565b6040516001600160881b039091168152602001610307565b61099d610998366004611c82565b610eac565b60405165ffffffffffff9091168152602001610307565b6109c76109c2366004611c82565b610eb7565b60405160109190910b8152602001610307565b6109ed6109e8366004611c82565b610ec2565b6040516001600160901b039091168152602001610307565b610a18610a13366004611c82565b610ecd565b6040516001600160d01b039091168152602001610307565b610a43610a3e366004611c82565b610ed8565b60405160049190910b8152602001610307565b610a69610a64366004611c82565b610ee3565b60405166ffffffffffffff9091168152602001610307565b610a94610a8f366004611c82565b610eee565b60405163ffffffff9091168152602001610307565b610abc610ab7366004611c82565b610ef9565b6040516001600160501b039091168152602001610307565b610ae7610ae2366004611c82565b610f04565b60405160019190910b8152602001610307565b610b0d610b08366004611c82565b610f0f565b60405160079190910b8152602001610307565b610b33610b2e366004611c82565b610f1a565b604051600f9190910b8152602001610307565b610b59610b54366004611c82565b610f25565b604051908152602001610307565b610b7a610b75366004611c82565b610f30565b6040516001600160a01b039091168152602001610307565b610ba5610ba0366004611c82565b610f3b565b60405160089190910b8152602001610307565b610bcb610bc6366004611c82565b610f46565b60405160029190910b8152602001610307565b610bf1610bec366004611c82565b610f51565b60405160149190910b8152602001610307565b610c17610c12366004611c82565b610f5c565b604051601a9190910b8152602001610307565b610c3d610c38366004611c82565b610f67565b604051600e9190910b8152602001610307565b610c63610c5e366004611c82565b610f72565b60405160199190910b8152602001610307565b610c89610c84366004611c82565b610f7d565b60405160009190910b8152602001610307565b610caf610caa366004611c82565b610f88565b60405164ffffffffff9091168152602001610307565b610b59610cd3366004611c82565b610f93565b6000610ce382610f9e565b92915050565b6000610ce382610fe8565b6000610ce382611025565b6000610ce38261104e565b6000610ce38261108b565b6000610ce3826110ae565b6000610ce3826110d7565b6000610ce382611114565b6000610ce38261114f565b6000610ce382611178565b6000610ce3826111b5565b6000610ce3826111f2565b6000610ce38261121b565b6000610ce382611244565b6000610ce382611281565b6000610ce3826112aa565b6000610ce3826112e7565b6000610ce382611310565b6000610ce382611339565b6000610ce382611362565b6000610ce38261139f565b6000610ce3826113dc565b6000610ce382611405565b6000610ce38261142e565b6000610ce38261146b565b6000610ce3826114a8565b6000610ce3826114d1565b6000610ce38261150e565b6000610ce38261154b565b6000610ce382611588565b6000610ce3826115b1565b6000610ce3826115da565b6000610ce382611603565b6000610ce38261162c565b6000610ce382611669565b6000610ce382611692565b6000610ce3826116bb565b6000610ce3826116e4565b6000610ce382611708565b6000610ce38261172d565b6000610ce38261176a565b6000610ce3826117a1565b6000610ce3826117ca565b6000610ce3826117f2565b6000610ce38261182f565b6000610ce382611858565b6000610ce382611881565b6000610ce3826118ba565b6000610ce3826118e3565b6000610ce382611909565b6000610ce382611932565b6000610ce382611965565b6000610ce3826119a2565b6000610ce3826119df565b6000610ce382611a49565b6000610ce382611a72565b6000610ce382611aaf565b6000610ce382611ae4565b6000610ce382611b21565b6000610ce382611b5e565b6000610ce382611b9b565b6000610ce382611bd8565b6000610ce382611c09565b6000610ce382611c30565b60006001600160f71b03198212801590610fbf57506001600160f71b038213155b610fe45760405162461bcd60e51b8152600401610fdb90611c9b565b60405180910390fd5b5090565b60006001600160e71b0319821280159061100957506001600160e71b038213155b610fe45760405162461bcd60e51b8152600401610fdb90611cd0565b60006001600160b01b03821115610fe45760405162461bcd60e51b8152600401610fdb90611d05565b60006001600160bf1b0319821280159061106f57506001600160bf1b038213155b610fe45760405162461bcd60e51b8152600401610fdb90611d3a565b600060ff821115610fe45760405162461bcd60e51b8152600401610fdb90611d6f565b60006001600160e81b03821115610fe45760405162461bcd60e51b8152600401610fdb90611cd0565b60006001600160c71b031982128015906110f857506001600160c71b038213155b610fe45760405162461bcd60e51b8152600401610fdb90611da2565b6000657fffffffffff1982128015906111335750657fffffffffff8213155b610fe45760405162461bcd60e51b8152600401610fdb90611dd7565b60006001600160601b03821115610fe45760405162461bcd60e51b8152600401610fdb90611e0b565b600060016001605f1b03198212801590611199575060016001605f1b038213155b610fe45760405162461bcd60e51b8152600401610fdb90611e0b565b60006001600160671b031982128015906111d657506001600160671b038213155b610fe45760405162461bcd60e51b8152600401610fdb90611e51565b60006001600160781b03821115610fe45760405162461bcd60e51b8152600401610fdb90611e86565b60006001600160401b03821115610fe45760405162461bcd60e51b8152600401610fdb90611ebb565b600060016001604f1b03198212801590611265575060016001604f1b038213155b610fe45760405162461bcd60e51b8152600401610fdb90611f01565b60006001600160481b03821115610fe45760405162461bcd60e51b8152600401610fdb90611f35565b60006001600160df1b031982128015906112cb57506001600160df1b038213155b610fe45760405162461bcd60e51b8152600401610fdb90611f7b565b60006001600160f01b03821115610fe45760405162461bcd60e51b8152600401610fdb90611fb0565b60006001600160f81b03821115610fe45760405162461bcd60e51b8152600401610fdb90611c9b565b60006001600160701b03821115610fe45760405162461bcd60e51b8152600401610fdb90611fe5565b6000667fffffffffffff1982128015906113835750667fffffffffffff8213155b610fe45760405162461bcd60e51b8152600401610fdb9061201a565b60006001600160ef1b031982128015906113c057506001600160ef1b038213155b610fe45760405162461bcd60e51b8152600401610fdb90611fb0565b60006001600160a81b03821115610fe45760405162461bcd60e51b8152600401610fdb90612060565b60006001600160b81b03821115610fe45760405162461bcd60e51b8152600401610fdb90612095565b600060016001606f1b0319821280159061144f575060016001606f1b038213155b610fe45760405162461bcd60e51b8152600401610fdb90611fe5565b60006001600160971b0319821280159061148c57506001600160971b038213155b610fe45760405162461bcd60e51b8152600401610fdb906120ca565b60006001600160e01b03821115610fe45760405162461bcd60e51b8152600401610fdb90611f7b565b600060016001609f1b031982128015906114f2575060016001609f1b038213155b610fe45760405162461bcd60e51b8152600401610fdb906120ff565b60006001600160b71b0319821280159061152f57506001600160b71b038213155b610fe45760405162461bcd60e51b8152600401610fdb90612095565b600060016001608f1b0319821280159061156c575060016001608f1b038213155b610fe45760405162461bcd60e51b8152600401610fdb90612134565b60006001600160c81b03821115610fe45760405162461bcd60e51b8152600401610fdb90611da2565b60006001600160c01b03821115610fe45760405162461bcd60e51b8152600401610fdb90611d3a565b60006001600160581b03821115610fe45760405162461bcd60e51b8152600401610fdb90612169565b60006001600160801b03821115610fe45760405162461bcd60e51b8152600401610fdb9061219d565b60006001600160af1b0319821280159061164d57506001600160af1b038213155b610fe45760405162461bcd60e51b8152600401610fdb90611d05565b60006001600160681b03821115610fe45760405162461bcd60e51b8152600401610fdb90611e51565b60006001600160d81b03821115610fe45760405162461bcd60e51b8152600401610fdb906121d2565b60006001600160981b03821115610fe45760405162461bcd60e51b8152600401610fdb906120ca565b600061ffff821115610fe45760405162461bcd60e51b8152600401610fdb90612207565b600062ffffff821115610fe45760405162461bcd60e51b8152600401610fdb9061223b565b60006001600160571b0319821280159061174e57506001600160571b038213155b610fe45760405162461bcd60e51b8152600401610fdb90612169565b6000637fffffff1982128015906117855750637fffffff8213155b610fe45760405162461bcd60e51b8152600401610fdb9061226f565b60006001600160881b03821115610fe45760405162461bcd60e51b8152600401610fdb906122b5565b600065ffffffffffff821115610fe45760405162461bcd60e51b8152600401610fdb90611dd7565b60006001600160871b0319821280159061181357506001600160871b038213155b610fe45760405162461bcd60e51b8152600401610fdb906122b5565b60006001600160901b03821115610fe45760405162461bcd60e51b8152600401610fdb90612134565b60006001600160d01b03821115610fe45760405162461bcd60e51b8152600401610fdb906122ea565b6000647fffffffff19821280159061189e5750647fffffffff8213155b610fe45760405162461bcd60e51b8152600401610fdb9061231f565b600066ffffffffffffff821115610fe45760405162461bcd60e51b8152600401610fdb9061201a565b600063ffffffff821115610fe45760405162461bcd60e51b8152600401610fdb9061226f565b60006001600160501b03821115610fe45760405162461bcd60e51b8152600401610fdb90611f01565b6000617fff1982128015906119495750617fff8213155b610fe45760405162461bcd60e51b8152600401610fdb90612207565b600060016001603f1b03198212801590611986575060016001603f1b038213155b610fe45760405162461bcd60e51b8152600401610fdb90611ebb565b600060016001607f1b031982128015906119c3575060016001607f1b038213155b610fe45760405162461bcd60e51b8152600401610fdb9061219d565b60006001600160ff1b03821115610fe45760405162461bcd60e51b815260206004820152602860248201527f53616665436173743a2076616c756520646f65736e27742066697420696e2061604482015267371034b73a191a9b60c11b6064820152608401610fdb565b60006001600160a01b03821115610fe45760405162461bcd60e51b8152600401610fdb906120ff565b60006001600160471b03198212801590611a9357506001600160471b038213155b610fe45760405162461bcd60e51b8152600401610fdb90611f35565b6000627fffff198212801590611ac85750627fffff8213155b610fe45760405162461bcd60e51b8152600401610fdb9061223b565b60006001600160a71b03198212801590611b0557506001600160a71b038213155b610fe45760405162461bcd60e51b8152600401610fdb90612060565b60006001600160d71b03198212801590611b4257506001600160d71b038213155b610fe45760405162461bcd60e51b8152600401610fdb906121d2565b60006001600160771b03198212801590611b7f57506001600160771b038213155b610fe45760405162461bcd60e51b8152600401610fdb90611e86565b60006001600160cf1b03198212801590611bbc57506001600160cf1b038213155b610fe45760405162461bcd60e51b8152600401610fdb906122ea565b6000607f198212801590611bed5750607f8213155b610fe45760405162461bcd60e51b8152600401610fdb90611d6f565b600064ffffffffff821115610fe45760405162461bcd60e51b8152600401610fdb9061231f565b600080821215610fe45760405162461bcd60e51b815260206004820181905260248201527f53616665436173743a2076616c7565206d75737420626520706f7369746976656044820152606401610fdb565b600060208284031215611c9457600080fd5b5035919050565b60208082526027908201526000805160206123b48339815191526040820152663438206269747360c81b606082015260800190565b60208082526027908201526000805160206123b48339815191526040820152663332206269747360c81b606082015260800190565b60208082526027908201526000805160206123748339815191526040820152663736206269747360c81b606082015260800190565b60208082526027908201526000805160206123748339815191526040820152663932206269747360c81b606082015260800190565b6020808252602590820152600080516020612394833981519152604082015264206269747360d81b606082015260800190565b60208082526027908201526000805160206123b48339815191526040820152663030206269747360c81b606082015260800190565b602080825260269082015260008051602061235483398151915260408201526538206269747360d01b606082015260800190565b60208082526026908201527f53616665436173743a2076616c756520646f65736e27742066697420696e203960408201526536206269747360d01b606082015260800190565b60208082526027908201526000805160206123748339815191526040820152663034206269747360c81b606082015260800190565b60208082526027908201526000805160206123748339815191526040820152663230206269747360c81b606082015260800190565b60208082526026908201527f53616665436173743a2076616c756520646f65736e27742066697420696e203660408201526534206269747360d01b606082015260800190565b602080825260269082015260008051602061239483398151915260408201526530206269747360d01b606082015260800190565b60208082526026908201527f53616665436173743a2076616c756520646f65736e27742066697420696e203760408201526532206269747360d01b606082015260800190565b60208082526027908201526000805160206123b48339815191526040820152663234206269747360c81b606082015260800190565b60208082526027908201526000805160206123b48339815191526040820152663430206269747360c81b606082015260800190565b60208082526027908201526000805160206123748339815191526040820152663132206269747360c81b606082015260800190565b60208082526026908201527f53616665436173743a2076616c756520646f65736e27742066697420696e203560408201526536206269747360d01b606082015260800190565b60208082526027908201526000805160206123748339815191526040820152663638206269747360c81b606082015260800190565b60208082526027908201526000805160206123748339815191526040820152663834206269747360c81b606082015260800190565b60208082526027908201526000805160206123748339815191526040820152663532206269747360c81b606082015260800190565b60208082526027908201526000805160206123748339815191526040820152663630206269747360c81b606082015260800190565b60208082526027908201526000805160206123748339815191526040820152663434206269747360c81b606082015260800190565b602080825260269082015260008051602061239483398151915260408201526538206269747360d01b606082015260800190565b60208082526027908201526000805160206123748339815191526040820152663238206269747360c81b606082015260800190565b60208082526027908201526000805160206123b48339815191526040820152663136206269747360c81b606082015260800190565b602080825260269082015260008051602061237483398151915260408201526536206269747360d01b606082015260800190565b60208082526026908201526000805160206123b483398151915260408201526534206269747360d01b606082015260800190565b60208082526026908201527f53616665436173743a2076616c756520646f65736e27742066697420696e203360408201526532206269747360d01b606082015260800190565b60208082526027908201526000805160206123748339815191526040820152663336206269747360c81b606082015260800190565b60208082526027908201526000805160206123b48339815191526040820152663038206269747360c81b606082015260800190565b602080825260269082015260008051602061235483398151915260408201526530206269747360d01b60608201526080019056fe53616665436173743a2076616c756520646f65736e27742066697420696e203453616665436173743a2076616c756520646f65736e27742066697420696e203153616665436173743a2076616c756520646f65736e27742066697420696e203853616665436173743a2076616c756520646f65736e27742066697420696e2032a2646970667358221220b263ccbee19ba7e9cd9500d9722f78c8b5533320d02789b7fbaa78cddb1c10d564736f6c634300080e0033",
  "immutableReferences": {},
  "source": "// SPDX-License-Identifier: MIT\r\n\r\npragma solidity ^0.8.0;\r\n\r\nimport \"../utils/math/SafeCast.sol\";\r\n\r\ncontract SafeCastMock {\r\n    using SafeCast for uint256;\r\n    using SafeCast for int256;\r\n\r\n    function toUint256(int256 a) public pure returns (uint256) {\r\n        return a.toUint256();\r\n    }\r\n\r\n    function toUint248(uint256 a) public pure returns (uint248) {\r\n        return a.toUint248();\r\n    }\r\n\r\n    function toUint240(uint256 a) public pure returns (uint240) {\r\n        return a.toUint240();\r\n    }\r\n\r\n    function toUint232(uint256 a) public pure returns (uint232) {\r\n        return a.toUint232();\r\n    }\r\n\r\n    function toUint224(uint256 a) public pure returns (uint224) {\r\n        return a.toUint224();\r\n    }\r\n\r\n    function toUint216(uint256 a) public pure returns (uint216) {\r\n        return a.toUint216();\r\n    }\r\n\r\n    function toUint208(uint256 a) public pure returns (uint208) {\r\n        return a.toUint208();\r\n    }\r\n\r\n    function toUint200(uint256 a) public pure returns (uint200) {\r\n        return a.toUint200();\r\n    }\r\n\r\n    function toUint192(uint256 a) public pure returns (uint192) {\r\n        return a.toUint192();\r\n    }\r\n\r\n    function toUint184(uint256 a) public pure returns (uint184) {\r\n        return a.toUint184();\r\n    }\r\n\r\n    function toUint176(uint256 a) public pure returns (uint176) {\r\n        return a.toUint176();\r\n    }\r\n\r\n    function toUint168(uint256 a) public pure returns (uint168) {\r\n        return a.toUint168();\r\n    }\r\n\r\n    function toUint160(uint256 a) public pure returns (uint160) {\r\n        return a.toUint160();\r\n    }\r\n\r\n    function toUint152(uint256 a) public pure returns (uint152) {\r\n        return a.toUint152();\r\n    }\r\n\r\n    function toUint144(uint256 a) public pure returns (uint144) {\r\n        return a.toUint144();\r\n    }\r\n\r\n    function toUint136(uint256 a) public pure returns (uint136) {\r\n        return a.toUint136();\r\n    }\r\n\r\n    function toUint128(uint256 a) public pure returns (uint128) {\r\n        return a.toUint128();\r\n    }\r\n\r\n    function toUint120(uint256 a) public pure returns (uint120) {\r\n        return a.toUint120();\r\n    }\r\n\r\n    function toUint112(uint256 a) public pure returns (uint112) {\r\n        return a.toUint112();\r\n    }\r\n\r\n    function toUint104(uint256 a) public pure returns (uint104) {\r\n        return a.toUint104();\r\n    }\r\n\r\n    function toUint96(uint256 a) public pure returns (uint96) {\r\n        return a.toUint96();\r\n    }\r\n\r\n    function toUint88(uint256 a) public pure returns (uint88) {\r\n        return a.toUint88();\r\n    }\r\n\r\n    function toUint80(uint256 a) public pure returns (uint80) {\r\n        return a.toUint80();\r\n    }\r\n\r\n    function toUint72(uint256 a) public pure returns (uint72) {\r\n        return a.toUint72();\r\n    }\r\n\r\n    function toUint64(uint256 a) public pure returns (uint64) {\r\n        return a.toUint64();\r\n    }\r\n\r\n    function toUint56(uint256 a) public pure returns (uint56) {\r\n        return a.toUint56();\r\n    }\r\n\r\n    function toUint48(uint256 a) public pure returns (uint48) {\r\n        return a.toUint48();\r\n    }\r\n\r\n    function toUint40(uint256 a) public pure returns (uint40) {\r\n        return a.toUint40();\r\n    }\r\n\r\n    function toUint32(uint256 a) public pure returns (uint32) {\r\n        return a.toUint32();\r\n    }\r\n\r\n    function toUint24(uint256 a) public pure returns (uint24) {\r\n        return a.toUint24();\r\n    }\r\n\r\n    function toUint16(uint256 a) public pure returns (uint16) {\r\n        return a.toUint16();\r\n    }\r\n\r\n    function toUint8(uint256 a) public pure returns (uint8) {\r\n        return a.toUint8();\r\n    }\r\n\r\n    function toInt256(uint256 a) public pure returns (int256) {\r\n        return a.toInt256();\r\n    }\r\n\r\n    function toInt248(int256 a) public pure returns (int248) {\r\n        return a.toInt248();\r\n    }\r\n\r\n    function toInt240(int256 a) public pure returns (int240) {\r\n        return a.toInt240();\r\n    }\r\n\r\n    function toInt232(int256 a) public pure returns (int232) {\r\n        return a.toInt232();\r\n    }\r\n\r\n    function toInt224(int256 a) public pure returns (int224) {\r\n        return a.toInt224();\r\n    }\r\n\r\n    function toInt216(int256 a) public pure returns (int216) {\r\n        return a.toInt216();\r\n    }\r\n\r\n    function toInt208(int256 a) public pure returns (int208) {\r\n        return a.toInt208();\r\n    }\r\n\r\n    function toInt200(int256 a) public pure returns (int200) {\r\n        return a.toInt200();\r\n    }\r\n\r\n    function toInt192(int256 a) public pure returns (int192) {\r\n        return a.toInt192();\r\n    }\r\n\r\n    function toInt184(int256 a) public pure returns (int184) {\r\n        return a.toInt184();\r\n    }\r\n\r\n    function toInt176(int256 a) public pure returns (int176) {\r\n        return a.toInt176();\r\n    }\r\n\r\n    function toInt168(int256 a) public pure returns (int168) {\r\n        return a.toInt168();\r\n    }\r\n\r\n    function toInt160(int256 a) public pure returns (int160) {\r\n        return a.toInt160();\r\n    }\r\n\r\n    function toInt152(int256 a) public pure returns (int152) {\r\n        return a.toInt152();\r\n    }\r\n\r\n    function toInt144(int256 a) public pure returns (int144) {\r\n        return a.toInt144();\r\n    }\r\n\r\n    function toInt136(int256 a) public pure returns (int136) {\r\n        return a.toInt136();\r\n    }\r\n\r\n    function toInt128(int256 a) public pure returns (int128) {\r\n        return a.toInt128();\r\n    }\r\n\r\n    function toInt120(int256 a) public pure returns (int120) {\r\n        return a.toInt120();\r\n    }\r\n\r\n    function toInt112(int256 a) public pure returns (int112) {\r\n        return a.toInt112();\r\n    }\r\n\r\n    function toInt104(int256 a) public pure returns (int104) {\r\n        return a.toInt104();\r\n    }\r\n\r\n    function toInt96(int256 a) public pure returns (int96) {\r\n        return a.toInt96();\r\n    }\r\n\r\n    function toInt88(int256 a) public pure returns (int88) {\r\n        return a.toInt88();\r\n    }\r\n\r\n    function toInt80(int256 a) public pure returns (int80) {\r\n        return a.toInt80();\r\n    }\r\n\r\n    function toInt72(int256 a) public pure returns (int72) {\r\n        return a.toInt72();\r\n    }\r\n\r\n    function toInt64(int256 a) public pure returns (int64) {\r\n        return a.toInt64();\r\n    }\r\n\r\n    function toInt56(int256 a) public pure returns (int56) {\r\n        return a.toInt56();\r\n    }\r\n\r\n    function toInt48(int256 a) public pure returns (int48) {\r\n        return a.toInt48();\r\n    }\r\n\r\n    function toInt40(int256 a) public pure returns (int40) {\r\n        return a.toInt40();\r\n    }\r\n\r\n    function toInt32(int256 a) public pure returns (int32) {\r\n        return a.toInt32();\r\n    }\r\n\r\n    function toInt24(int256 a) public pure returns (int24) {\r\n        return a.toInt24();\r\n    }\r\n\r\n    function toInt16(int256 a) public pure returns (int16) {\r\n        return a.toInt16();\r\n    }\r\n\r\n    function toInt8(int256 a) public pure returns (int8) {\r\n        return a.toInt8();\r\n    }\r\n}\r\n",
  "sourcePath": "D:\\work\\www\\yopu_dapp_nft\\contracts\\lib\\openzeppelin\\contracts\\mocks\\SafeCastMock.sol",
  "compiler": {
    "name": "solc",
    "version": "0.8.14+commit.80d49f37.Emscripten.clang"
  },
  "schemaVersion": "3.4.7",
  "updatedAt": "2022-06-28T15:05:48.175Z",
  "devdoc": {
    "kind": "dev",
    "methods": {},
    "version": 1
  },
  "userdoc": {
    "kind": "user",
    "methods": {},
    "version": 1
  }
}