{
  "contractName": "SafeERC20Wrapper",
  "abi": [
    {
      "inputs": [
        {
          "internalType": "contract IERC20",
          "name": "token",
          "type": "address"
        }
      ],
      "stateMutability": "nonpayable",
      "type": "constructor"
    },
    {
      "inputs": [],
      "name": "transfer",
      "outputs": [],
      "stateMutability": "nonpayable",
      "type": "function"
    },
    {
      "inputs": [],
      "name": "transferFrom",
      "outputs": [],
      "stateMutability": "nonpayable",
      "type": "function"
    },
    {
      "inputs": [
        {
          "internalType": "uint256",
          "name": "amount",
          "type": "uint256"
        }
      ],
      "name": "approve",
      "outputs": [],
      "stateMutability": "nonpayable",
      "type": "function"
    },
    {
      "inputs": [
        {
          "internalType": "uint256",
          "name": "amount",
          "type": "uint256"
        }
      ],
      "name": "increaseAllowance",
      "outputs": [],
      "stateMutability": "nonpayable",
      "type": "function"
    },
    {
      "inputs": [
        {
          "internalType": "uint256",
          "name": "amount",
          "type": "uint256"
        }
      ],
      "name": "decreaseAllowance",
      "outputs": [],
      "stateMutability": "nonpayable",
      "type": "function"
    },
    {
      "inputs": [
        {
          "internalType": "address",
          "name": "owner",
          "type": "address"
        },
        {
          "internalType": "address",
          "name": "spender",
          "type": "address"
        },
        {
          "internalType": "uint256",
          "name": "value",
          "type": "uint256"
        },
        {
          "internalType": "uint256",
          "name": "deadline",
          "type": "uint256"
        },
        {
          "internalType": "uint8",
          "name": "v",
          "type": "uint8"
        },
        {
          "internalType": "bytes32",
          "name": "r",
          "type": "bytes32"
        },
        {
          "internalType": "bytes32",
          "name": "s",
          "type": "bytes32"
        }
      ],
      "name": "permit",
      "outputs": [],
      "stateMutability": "nonpayable",
      "type": "function"
    },
    {
      "inputs": [
        {
          "internalType": "uint256",
          "name": "allowance_",
          "type": "uint256"
        }
      ],
      "name": "setAllowance",
      "outputs": [],
      "stateMutability": "nonpayable",
      "type": "function"
    },
    {
      "inputs": [],
      "name": "allowance",
      "outputs": [
        {
          "internalType": "uint256",
          "name": "",
          "type": "uint256"
        }
      ],
      "stateMutability": "view",
      "type": "function"
    }
  ],
  "bytecode": "0x608060405234801561001057600080fd5b50604051610ca1380380610ca183398101604081905261002f91610054565b600080546001600160a01b0319166001600160a01b0392909216919091179055610084565b60006020828403121561006657600080fd5b81516001600160a01b038116811461007d57600080fd5b9392505050565b610c0e806100936000396000f3fe608060405234801561001057600080fd5b50600436106100785760003560e01c806310bad4cf1461007d57806311e330b2146100925780633ba93f26146100a5578063811c34d3146100b85780638a4068dd146100c0578063b759f954146100c8578063d505accf146100db578063de242ff4146100ee575b600080fd5b61009061008b366004610a06565b610108565b005b6100906100a0366004610a06565b610125565b6100906100b3366004610a06565b61013f565b6100906101a0565b6100906101bd565b6100906100d6366004610a06565b6101d7565b6100906100e9366004610a3b565b6101f1565b6100f6610216565b60405190815260200160405180910390f35b60008054610122916001600160a01b03909116908361028f565b50565b60008054610122916001600160a01b0390911690836103c7565b600054604051631dd49f9360e11b8152600481018390526001600160a01b0390911690633ba93f2690602401600060405180830381600087803b15801561018557600080fd5b505af1158015610199573d6000803e3d6000fd5b5050505050565b600080546101bb916001600160a01b0390911690808061046a565b565b600080546101bb916001600160a01b0390911690806104a2565b60008054610122916001600160a01b0390911690836104c6565b60005461020d906001600160a01b0316888888888888886105c9565b50505050505050565b60008054604051636eb1769f60e11b81526001600160a01b039091169063dd62ed3e906102499084908190600401610aae565b602060405180830381865afa158015610266573d6000803e3d6000fd5b505050506040513d601f19601f8201168201806040525081019061028a9190610ac8565b905090565b604051636eb1769f60e11b81526000906001600160a01b0385169063dd62ed3e906102c09030908790600401610aae565b602060405180830381865afa1580156102dd573d6000803e3d6000fd5b505050506040513d601f19601f820116820180604052508101906103019190610ac8565b90508181101561036a5760405162461bcd60e51b815260206004820152602960248201527f5361666545524332303a2064656372656173656420616c6c6f77616e63652062604482015268656c6f77207a65726f60b81b60648201526084015b60405180910390fd5b6040518282039061019990869063095ea7b360e01b906103909088908690602401610ae1565b60408051601f198184030181529190526020810180516001600160e01b03166001600160e01b0319909316929092179091526107a4565b600081846001600160a01b031663dd62ed3e30866040518363ffffffff1660e01b81526004016103f8929190610aae565b602060405180830381865afa158015610415573d6000803e3d6000fd5b505050506040513d601f19601f820116820180604052508101906104399190610ac8565b6104439190610afa565b90506104648463095ea7b360e01b8584604051602401610390929190610ae1565b50505050565b6040516001600160a01b03808516602483015283166044820152606481018290526104649085906323b872dd60e01b90608401610390565b6104c18363a9059cbb60e01b8484604051602401610390929190610ae1565b505050565b80158061053f5750604051636eb1769f60e11b81526001600160a01b0384169063dd62ed3e906104fc9030908690600401610aae565b602060405180830381865afa158015610519573d6000803e3d6000fd5b505050506040513d601f19601f8201168201806040525081019061053d9190610ac8565b155b6105aa5760405162461bcd60e51b815260206004820152603660248201527f5361666545524332303a20617070726f76652066726f6d206e6f6e2d7a65726f60448201527520746f206e6f6e2d7a65726f20616c6c6f77616e636560501b6064820152608401610361565b6104c18363095ea7b360e01b8484604051602401610390929190610ae1565b604051623f675f60e91b81526000906001600160a01b038a1690637ecebe00906105f7908b90600401610b20565b602060405180830381865afa158015610614573d6000803e3d6000fd5b505050506040513d601f19601f820116820180604052508101906106389190610ac8565b60405163d505accf60e01b81526001600160a01b038a811660048301528981166024830152604482018990526064820188905260ff8716608483015260a4820186905260c48201859052919250908a169063d505accf9060e401600060405180830381600087803b1580156106ac57600080fd5b505af11580156106c0573d6000803e3d6000fd5b5050604051623f675f60e91b8152600092506001600160a01b038c169150637ecebe00906106f2908c90600401610b20565b602060405180830381865afa15801561070f573d6000803e3d6000fd5b505050506040513d601f19601f820116820180604052508101906107339190610ac8565b9050610740826001610afa565b81146107985760405162461bcd60e51b815260206004820152602160248201527f5361666545524332303a207065726d697420646964206e6f74207375636365656044820152601960fa1b6064820152608401610361565b50505050505050505050565b60006107f9826040518060400160405280602081526020017f5361666545524332303a206c6f772d6c6576656c2063616c6c206661696c6564815250856001600160a01b03166108769092919063ffffffff16565b8051909150156104c157808060200190518101906108179190610b34565b6104c15760405162461bcd60e51b815260206004820152602a60248201527f5361666545524332303a204552433230206f7065726174696f6e20646964206e6044820152691bdd081cdd58d8d9595960b21b6064820152608401610361565b6060610885848460008561088d565b949350505050565b6060824710156108ee5760405162461bcd60e51b815260206004820152602660248201527f416464726573733a20696e73756666696369656e742062616c616e636520666f6044820152651c8818d85b1b60d21b6064820152608401610361565b600080866001600160a01b0316858760405161090a9190610b89565b60006040518083038185875af1925050503d8060008114610947576040519150601f19603f3d011682016040523d82523d6000602084013e61094c565b606091505b509150915061095d87838387610968565b979650505050505050565b606083156109d75782516000036109d0576001600160a01b0385163b6109d05760405162461bcd60e51b815260206004820152601d60248201527f416464726573733a2063616c6c20746f206e6f6e2d636f6e74726163740000006044820152606401610361565b5081610885565b61088583838151156109ec5781518083602001fd5b8060405162461bcd60e51b81526004016103619190610ba5565b600060208284031215610a1857600080fd5b5035919050565b80356001600160a01b0381168114610a3657600080fd5b919050565b600080600080600080600060e0888a031215610a5657600080fd5b610a5f88610a1f565b9650610a6d60208901610a1f565b95506040880135945060608801359350608088013560ff81168114610a9157600080fd5b9699959850939692959460a0840135945060c09093013592915050565b6001600160a01b0392831681529116602082015260400190565b600060208284031215610ada57600080fd5b5051919050565b6001600160a01b03929092168252602082015260400190565b60008219821115610b1b57634e487b7160e01b600052601160045260246000fd5b500190565b6001600160a01b0391909116815260200190565b600060208284031215610b4657600080fd5b81518015158114610b5657600080fd5b9392505050565b60005b83811015610b78578181015183820152602001610b60565b838111156104645750506000910152565b60008251610b9b818460208701610b5d565b9190910192915050565b6020815260008251806020840152610bc4816040850160208701610b5d565b601f01601f1916919091016040019291505056fea26469706673582212201ef3aa8f4797f26d864d10495bbb0f3eb397f8df0bad4a5f3d8a2f3355837aa764736f6c634300080e0033",
  "immutableReferences": {},
  "source": "// SPDX-License-Identifier: MIT\r\n\r\npragma solidity ^0.8.0;\r\n\r\nimport \"../utils/Context.sol\";\r\nimport \"../token/ERC20/IERC20.sol\";\r\nimport \"../token/ERC20/extensions/draft-ERC20Permit.sol\";\r\nimport \"../token/ERC20/utils/SafeERC20.sol\";\r\n\r\ncontract ERC20ReturnFalseMock is Context {\r\n    uint256 private _allowance;\r\n\r\n    // IERC20's functions are not pure, but these mock implementations are: to prevent Solidity from issuing warnings,\r\n    // we write to a dummy state variable.\r\n    uint256 private _dummy;\r\n\r\n    function transfer(address, uint256) public returns (bool) {\r\n        _dummy = 0;\r\n        return false;\r\n    }\r\n\r\n    function transferFrom(\r\n        address,\r\n        address,\r\n        uint256\r\n    ) public returns (bool) {\r\n        _dummy = 0;\r\n        return false;\r\n    }\r\n\r\n    function approve(address, uint256) public returns (bool) {\r\n        _dummy = 0;\r\n        return false;\r\n    }\r\n\r\n    function allowance(address, address) public view returns (uint256) {\r\n        require(_dummy == 0); // Dummy read from a state variable so that the function is view\r\n        return 0;\r\n    }\r\n}\r\n\r\ncontract ERC20ReturnTrueMock is Context {\r\n    mapping(address => uint256) private _allowances;\r\n\r\n    // IERC20's functions are not pure, but these mock implementations are: to prevent Solidity from issuing warnings,\r\n    // we write to a dummy state variable.\r\n    uint256 private _dummy;\r\n\r\n    function transfer(address, uint256) public returns (bool) {\r\n        _dummy = 0;\r\n        return true;\r\n    }\r\n\r\n    function transferFrom(\r\n        address,\r\n        address,\r\n        uint256\r\n    ) public returns (bool) {\r\n        _dummy = 0;\r\n        return true;\r\n    }\r\n\r\n    function approve(address, uint256) public returns (bool) {\r\n        _dummy = 0;\r\n        return true;\r\n    }\r\n\r\n    function setAllowance(uint256 allowance_) public {\r\n        _allowances[_msgSender()] = allowance_;\r\n    }\r\n\r\n    function allowance(address owner, address) public view returns (uint256) {\r\n        return _allowances[owner];\r\n    }\r\n}\r\n\r\ncontract ERC20NoReturnMock is Context {\r\n    mapping(address => uint256) private _allowances;\r\n\r\n    // IERC20's functions are not pure, but these mock implementations are: to prevent Solidity from issuing warnings,\r\n    // we write to a dummy state variable.\r\n    uint256 private _dummy;\r\n\r\n    function transfer(address, uint256) public {\r\n        _dummy = 0;\r\n    }\r\n\r\n    function transferFrom(\r\n        address,\r\n        address,\r\n        uint256\r\n    ) public {\r\n        _dummy = 0;\r\n    }\r\n\r\n    function approve(address, uint256) public {\r\n        _dummy = 0;\r\n    }\r\n\r\n    function setAllowance(uint256 allowance_) public {\r\n        _allowances[_msgSender()] = allowance_;\r\n    }\r\n\r\n    function allowance(address owner, address) public view returns (uint256) {\r\n        return _allowances[owner];\r\n    }\r\n}\r\n\r\ncontract ERC20PermitNoRevertMock is\r\n    ERC20(\"ERC20PermitNoRevertMock\", \"ERC20PermitNoRevertMock\"),\r\n    ERC20Permit(\"ERC20PermitNoRevertMock\")\r\n{\r\n    function getChainId() external view returns (uint256) {\r\n        return block.chainid;\r\n    }\r\n\r\n    function permitThatMayRevert(\r\n        address owner,\r\n        address spender,\r\n        uint256 value,\r\n        uint256 deadline,\r\n        uint8 v,\r\n        bytes32 r,\r\n        bytes32 s\r\n    ) public virtual {\r\n        super.permit(owner, spender, value, deadline, v, r, s);\r\n    }\r\n\r\n    function permit(\r\n        address owner,\r\n        address spender,\r\n        uint256 value,\r\n        uint256 deadline,\r\n        uint8 v,\r\n        bytes32 r,\r\n        bytes32 s\r\n    ) public virtual override {\r\n        try this.permitThatMayRevert(owner, spender, value, deadline, v, r, s) {\r\n            // do nothing\r\n        } catch {\r\n            // do nothing\r\n        }\r\n    }\r\n}\r\n\r\ncontract SafeERC20Wrapper is Context {\r\n    using SafeERC20 for IERC20;\r\n\r\n    IERC20 private _token;\r\n\r\n    constructor(IERC20 token) {\r\n        _token = token;\r\n    }\r\n\r\n    function transfer() public {\r\n        _token.safeTransfer(address(0), 0);\r\n    }\r\n\r\n    function transferFrom() public {\r\n        _token.safeTransferFrom(address(0), address(0), 0);\r\n    }\r\n\r\n    function approve(uint256 amount) public {\r\n        _token.safeApprove(address(0), amount);\r\n    }\r\n\r\n    function increaseAllowance(uint256 amount) public {\r\n        _token.safeIncreaseAllowance(address(0), amount);\r\n    }\r\n\r\n    function decreaseAllowance(uint256 amount) public {\r\n        _token.safeDecreaseAllowance(address(0), amount);\r\n    }\r\n\r\n    function permit(\r\n        address owner,\r\n        address spender,\r\n        uint256 value,\r\n        uint256 deadline,\r\n        uint8 v,\r\n        bytes32 r,\r\n        bytes32 s\r\n    ) public {\r\n        SafeERC20.safePermit(IERC20Permit(address(_token)), owner, spender, value, deadline, v, r, s);\r\n    }\r\n\r\n    function setAllowance(uint256 allowance_) public {\r\n        ERC20ReturnTrueMock(address(_token)).setAllowance(allowance_);\r\n    }\r\n\r\n    function allowance() public view returns (uint256) {\r\n        return _token.allowance(address(0), address(0));\r\n    }\r\n}\r\n",
  "sourcePath": "D:\\work\\www\\yopu_dapp_nft\\contracts\\lib\\openzeppelin\\contracts\\mocks\\SafeERC20Helper.sol",
  "compiler": {
    "name": "solc",
    "version": "0.8.14+commit.80d49f37.Emscripten.clang"
  },
  "schemaVersion": "3.4.7",
  "updatedAt": "2022-06-28T15:05:48.221Z",
  "devdoc": {
    "kind": "dev",
    "methods": {},
    "version": 1
  },
  "userdoc": {
    "kind": "user",
    "methods": {},
    "version": 1
  }
}