{
  "contractName": "SampleHuman",
  "abi": [
    {
      "anonymous": false,
      "inputs": [
        {
          "indexed": false,
          "internalType": "uint8",
          "name": "version",
          "type": "uint8"
        }
      ],
      "name": "Initialized",
      "type": "event"
    },
    {
      "inputs": [],
      "name": "isHuman",
      "outputs": [
        {
          "internalType": "bool",
          "name": "",
          "type": "bool"
        }
      ],
      "stateMutability": "view",
      "type": "function"
    },
    {
      "inputs": [],
      "name": "initialize",
      "outputs": [],
      "stateMutability": "nonpayable",
      "type": "function"
    }
  ],
  "bytecode": "0x608060405234801561001057600080fd5b5061026e806100206000396000f3fe608060405234801561001057600080fd5b50600436106100365760003560e01c80634a6c9db61461003b5780638129fc1c14610062575b600080fd5b60005461004e9062010000900460ff1681565b604051901515815260200160405180910390f35b61006a61006c565b005b600054610100900460ff161580801561008c5750600054600160ff909116105b806100a65750303b1580156100a6575060005460ff166001145b61010e5760405162461bcd60e51b815260206004820152602e60248201527f496e697469616c697a61626c653a20636f6e747261637420697320616c72656160448201526d191e481a5b9a5d1a585b1a5e995960921b60648201526084015b60405180910390fd5b6000805460ff191660011790558015610131576000805461ff0019166101001790555b610139610182565b801561017f576000805461ff0019169055604051600181527f7f26b83ff96e1f2b6a682f133852f6798a09c465da95921460cefb38474024989060200160405180910390a15b50565b600054610100900460ff166101a95760405162461bcd60e51b8152600401610105906101ed565b6101b16101b3565b565b600054610100900460ff166101da5760405162461bcd60e51b8152600401610105906101ed565b6000805462ff0000191662010000179055565b6020808252602b908201527f496e697469616c697a61626c653a20636f6e7472616374206973206e6f74206960408201526a6e697469616c697a696e6760a81b60608201526080019056fea2646970667358221220998c55231bb3561b9752dd3de66b5a22573920a6a79ed8621e4d812018f571a964736f6c634300080e0033",
  "immutableReferences": {},
  "source": "// SPDX-License-Identifier: MIT\r\n\r\npragma solidity ^0.8.0;\r\n\r\nimport \"../proxy/utils/Initializable.sol\";\r\n\r\n// Sample contracts showing upgradeability with multiple inheritance.\r\n// Child contract inherits from Father and Mother contracts, and Father extends from Gramps.\r\n//\r\n//         Human\r\n//       /       \\\r\n//      |       Gramps\r\n//      |         |\r\n//    Mother    Father\r\n//      |         |\r\n//      -- Child --\r\n\r\n/**\r\n * Sample base intializable contract that is a human\r\n */\r\ncontract SampleHuman is Initializable {\r\n    bool public isHuman;\r\n\r\n    function initialize() public initializer {\r\n        __SampleHuman_init();\r\n    }\r\n\r\n    // solhint-disable-next-line func-name-mixedcase\r\n    function __SampleHuman_init() internal onlyInitializing {\r\n        __SampleHuman_init_unchained();\r\n    }\r\n\r\n    // solhint-disable-next-line func-name-mixedcase\r\n    function __SampleHuman_init_unchained() internal onlyInitializing {\r\n        isHuman = true;\r\n    }\r\n}\r\n\r\n/**\r\n * Sample base intializable contract that defines a field mother\r\n */\r\ncontract SampleMother is Initializable, SampleHuman {\r\n    uint256 public mother;\r\n\r\n    function initialize(uint256 value) public virtual initializer {\r\n        __SampleMother_init(value);\r\n    }\r\n\r\n    // solhint-disable-next-line func-name-mixedcase\r\n    function __SampleMother_init(uint256 value) internal onlyInitializing {\r\n        __SampleHuman_init();\r\n        __SampleMother_init_unchained(value);\r\n    }\r\n\r\n    // solhint-disable-next-line func-name-mixedcase\r\n    function __SampleMother_init_unchained(uint256 value) internal onlyInitializing {\r\n        mother = value;\r\n    }\r\n}\r\n\r\n/**\r\n * Sample base intializable contract that defines a field gramps\r\n */\r\ncontract SampleGramps is Initializable, SampleHuman {\r\n    string public gramps;\r\n\r\n    function initialize(string memory value) public virtual initializer {\r\n        __SampleGramps_init(value);\r\n    }\r\n\r\n    // solhint-disable-next-line func-name-mixedcase\r\n    function __SampleGramps_init(string memory value) internal onlyInitializing {\r\n        __SampleHuman_init();\r\n        __SampleGramps_init_unchained(value);\r\n    }\r\n\r\n    // solhint-disable-next-line func-name-mixedcase\r\n    function __SampleGramps_init_unchained(string memory value) internal onlyInitializing {\r\n        gramps = value;\r\n    }\r\n}\r\n\r\n/**\r\n * Sample base intializable contract that defines a field father and extends from gramps\r\n */\r\ncontract SampleFather is Initializable, SampleGramps {\r\n    uint256 public father;\r\n\r\n    function initialize(string memory _gramps, uint256 _father) public initializer {\r\n        __SampleFather_init(_gramps, _father);\r\n    }\r\n\r\n    // solhint-disable-next-line func-name-mixedcase\r\n    function __SampleFather_init(string memory _gramps, uint256 _father) internal onlyInitializing {\r\n        __SampleGramps_init(_gramps);\r\n        __SampleFather_init_unchained(_father);\r\n    }\r\n\r\n    // solhint-disable-next-line func-name-mixedcase\r\n    function __SampleFather_init_unchained(uint256 _father) internal onlyInitializing {\r\n        father = _father;\r\n    }\r\n}\r\n\r\n/**\r\n * Child extends from mother, father (gramps)\r\n */\r\ncontract SampleChild is Initializable, SampleMother, SampleFather {\r\n    uint256 public child;\r\n\r\n    function initialize(\r\n        uint256 _mother,\r\n        string memory _gramps,\r\n        uint256 _father,\r\n        uint256 _child\r\n    ) public initializer {\r\n        __SampleChild_init(_mother, _gramps, _father, _child);\r\n    }\r\n\r\n    // solhint-disable-next-line func-name-mixedcase\r\n    function __SampleChild_init(\r\n        uint256 _mother,\r\n        string memory _gramps,\r\n        uint256 _father,\r\n        uint256 _child\r\n    ) internal onlyInitializing {\r\n        __SampleMother_init(_mother);\r\n        __SampleFather_init(_gramps, _father);\r\n        __SampleChild_init_unchained(_child);\r\n    }\r\n\r\n    // solhint-disable-next-line func-name-mixedcase\r\n    function __SampleChild_init_unchained(uint256 _child) internal onlyInitializing {\r\n        child = _child;\r\n    }\r\n}\r\n",
  "sourcePath": "D:\\work\\www\\yopu_dapp_nft\\contracts\\lib\\openzeppelin\\contracts\\mocks\\MultipleInheritanceInitializableMocks.sol",
  "compiler": {
    "name": "solc",
    "version": "0.8.14+commit.80d49f37.Emscripten.clang"
  },
  "schemaVersion": "3.4.7",
  "updatedAt": "2022-06-28T15:05:48.133Z",
  "devdoc": {
    "kind": "dev",
    "methods": {},
    "version": 1
  },
  "userdoc": {
    "kind": "user",
    "methods": {},
    "notice": "Sample base intializable contract that is a human",
    "version": 1
  }
}