{
  "contractName": "SignedMathMock",
  "abi": [
    {
      "inputs": [
        {
          "internalType": "int256",
          "name": "a",
          "type": "int256"
        },
        {
          "internalType": "int256",
          "name": "b",
          "type": "int256"
        }
      ],
      "name": "max",
      "outputs": [
        {
          "internalType": "int256",
          "name": "",
          "type": "int256"
        }
      ],
      "stateMutability": "pure",
      "type": "function"
    },
    {
      "inputs": [
        {
          "internalType": "int256",
          "name": "a",
          "type": "int256"
        },
        {
          "internalType": "int256",
          "name": "b",
          "type": "int256"
        }
      ],
      "name": "min",
      "outputs": [
        {
          "internalType": "int256",
          "name": "",
          "type": "int256"
        }
      ],
      "stateMutability": "pure",
      "type": "function"
    },
    {
      "inputs": [
        {
          "internalType": "int256",
          "name": "a",
          "type": "int256"
        },
        {
          "internalType": "int256",
          "name": "b",
          "type": "int256"
        }
      ],
      "name": "average",
      "outputs": [
        {
          "internalType": "int256",
          "name": "",
          "type": "int256"
        }
      ],
      "stateMutability": "pure",
      "type": "function"
    },
    {
      "inputs": [
        {
          "internalType": "int256",
          "name": "n",
          "type": "int256"
        }
      ],
      "name": "abs",
      "outputs": [
        {
          "internalType": "uint256",
          "name": "",
          "type": "uint256"
        }
      ],
      "stateMutability": "pure",
      "type": "function"
    }
  ],
  "bytecode": "0x608060405234801561001057600080fd5b50610220806100206000396000f3fe608060405234801561001057600080fd5b506004361061004c5760003560e01c80631b5ac4b51461005157806329aa9cbe146100765780637f0bb2921461008957806381fe57861461009c575b600080fd5b61006461005f366004610158565b6100af565b60405190815260200160405180910390f35b610064610084366004610171565b6100c0565b610064610097366004610171565b6100d3565b6100646100aa366004610171565b6100df565b60006100ba826100eb565b92915050565b60006100cc8383610102565b9392505050565b60006100cc8383610118565b60006100cc8383610148565b6000808212156100fe57816000036100ba565b5090565b600081831261011157816100cc565b5090919050565b60008061012c84841860011d8585166101a9565b905061014060ff82901c85851816826101a9565b949350505050565b60008183121561011157816100cc565b60006020828403121561016a57600080fd5b5035919050565b6000806040838503121561018457600080fd5b50508035926020909101359150565b634e487b7160e01b600052601160045260246000fd5b600080821280156001600160ff1b03849003851316156101cb576101cb610193565b600160ff1b83900384128116156101e4576101e4610193565b5050019056fea264697066735822122054cf790f70b0af2ca07e2da20a766cb3323573a809200d97c03247cdf8816da864736f6c634300080e0033",
  "immutableReferences": {},
  "source": "// SPDX-License-Identifier: MIT\r\n\r\npragma solidity ^0.8.0;\r\n\r\nimport \"../utils/math/SignedMath.sol\";\r\n\r\ncontract SignedMathMock {\r\n    function max(int256 a, int256 b) public pure returns (int256) {\r\n        return SignedMath.max(a, b);\r\n    }\r\n\r\n    function min(int256 a, int256 b) public pure returns (int256) {\r\n        return SignedMath.min(a, b);\r\n    }\r\n\r\n    function average(int256 a, int256 b) public pure returns (int256) {\r\n        return SignedMath.average(a, b);\r\n    }\r\n\r\n    function abs(int256 n) public pure returns (uint256) {\r\n        return SignedMath.abs(n);\r\n    }\r\n}\r\n",
  "sourcePath": "D:\\work\\www\\yopu_dapp_nft\\contracts\\lib\\openzeppelin\\contracts\\mocks\\SignedMathMock.sol",
  "compiler": {
    "name": "solc",
    "version": "0.8.14+commit.80d49f37.Emscripten.clang"
  },
  "schemaVersion": "3.4.7",
  "updatedAt": "2022-06-28T15:05:48.242Z",
  "devdoc": {
    "kind": "dev",
    "methods": {},
    "version": 1
  },
  "userdoc": {
    "kind": "user",
    "methods": {},
    "version": 1
  }
}