{
  "contractName": "SignatureCheckerMock",
  "abi": [
    {
      "inputs": [
        {
          "internalType": "address",
          "name": "signer",
          "type": "address"
        },
        {
          "internalType": "bytes32",
          "name": "hash",
          "type": "bytes32"
        },
        {
          "internalType": "bytes",
          "name": "signature",
          "type": "bytes"
        }
      ],
      "name": "isValidSignatureNow",
      "outputs": [
        {
          "internalType": "bool",
          "name": "",
          "type": "bool"
        }
      ],
      "stateMutability": "view",
      "type": "function"
    }
  ],
  "bytecode": "0x608060405234801561001057600080fd5b5061055d806100206000396000f3fe608060405234801561001057600080fd5b506004361061002b5760003560e01c80636ccea65214610030575b600080fd5b61004361003e366004610363565b610057565b604051901515815260200160405180910390f35b600061006d6001600160a01b0385168484610077565b90505b9392505050565b600080600061008685856101c3565b9092509050600081600481111561009f5761009f61043b565b1480156100bd5750856001600160a01b0316826001600160a01b0316145b156100cd57600192505050610070565b600080876001600160a01b0316631626ba7e60e01b88886040516024016100f5929190610481565b60408051601f198184030181529181526020820180516001600160e01b03166001600160e01b031990941693909317909252905161013391906104bb565b600060405180830381855afa9150503d806000811461016e576040519150601f19603f3d011682016040523d82523d6000602084013e610173565b606091505b5091509150818015610186575080516020145b80156101b757508051630b135d3f60e11b906101ab90830160209081019084016104d7565b6001600160e01b031916145b98975050505050505050565b60008082516041036101f95760208301516040840151606085015160001a6101ed87828585610231565b9450945050505061022a565b82516040036102225760208301516040840151610217868383610314565b93509350505061022a565b506000905060025b9250929050565b6000806fa2a8918ca85bafe22016d0b997e4df60600160ff1b0383111561025e575060009050600361030b565b8460ff16601b1415801561027657508460ff16601c14155b15610287575060009050600461030b565b6040805160008082526020820180845289905260ff881692820192909252606081018690526080810185905260019060a0016020604051602081039080840390855afa1580156102db573d6000803e3d6000fd5b5050604051601f1901519150506001600160a01b0381166103045760006001925092505061030b565b9150600090505b94509492505050565b6000806001600160ff1b0383168161033160ff86901c601b610501565b905061033f87828885610231565b935093505050935093915050565b634e487b7160e01b600052604160045260246000fd5b60008060006060848603121561037857600080fd5b83356001600160a01b038116811461038f57600080fd5b92506020840135915060408401356001600160401b03808211156103b257600080fd5b818601915086601f8301126103c657600080fd5b8135818111156103d8576103d861034d565b604051601f8201601f19908116603f011681019083821181831017156104005761040061034d565b8160405282815289602084870101111561041957600080fd5b8260208601602083013760006020848301015280955050505050509250925092565b634e487b7160e01b600052602160045260246000fd5b60005b8381101561046c578181015183820152602001610454565b8381111561047b576000848401525b50505050565b82815260406020820152600082518060408401526104a6816060850160208701610451565b601f01601f1916919091016060019392505050565b600082516104cd818460208701610451565b9190910192915050565b6000602082840312156104e957600080fd5b81516001600160e01b03198116811461007057600080fd5b6000821982111561052257634e487b7160e01b600052601160045260246000fd5b50019056fea26469706673582212201bb29b43b9c7383c85f59b010f50cce0d88f6b16f7b263079f24e93f83c0c23d64736f6c634300080e0033",
  "immutableReferences": {},
  "source": "// SPDX-License-Identifier: MIT\r\n\r\npragma solidity ^0.8.0;\r\n\r\nimport \"../utils/cryptography/SignatureChecker.sol\";\r\n\r\ncontract SignatureCheckerMock {\r\n    using SignatureChecker for address;\r\n\r\n    function isValidSignatureNow(\r\n        address signer,\r\n        bytes32 hash,\r\n        bytes memory signature\r\n    ) public view returns (bool) {\r\n        return signer.isValidSignatureNow(hash, signature);\r\n    }\r\n}\r\n",
  "sourcePath": "D:\\work\\www\\yopu_dapp_nft\\contracts\\lib\\openzeppelin\\contracts\\mocks\\SignatureCheckerMock.sol",
  "compiler": {
    "name": "solc",
    "version": "0.8.14+commit.80d49f37.Emscripten.clang"
  },
  "schemaVersion": "3.4.7",
  "updatedAt": "2022-06-28T15:05:48.238Z",
  "devdoc": {
    "kind": "dev",
    "methods": {},
    "version": 1
  },
  "userdoc": {
    "kind": "user",
    "methods": {},
    "version": 1
  }
}