{
  "contractName": "StorageSlotMock",
  "abi": [
    {
      "inputs": [
        {
          "internalType": "bytes32",
          "name": "slot",
          "type": "bytes32"
        },
        {
          "internalType": "bool",
          "name": "value",
          "type": "bool"
        }
      ],
      "name": "setBoolean",
      "outputs": [],
      "stateMutability": "nonpayable",
      "type": "function"
    },
    {
      "inputs": [
        {
          "internalType": "bytes32",
          "name": "slot",
          "type": "bytes32"
        },
        {
          "internalType": "address",
          "name": "value",
          "type": "address"
        }
      ],
      "name": "setAddress",
      "outputs": [],
      "stateMutability": "nonpayable",
      "type": "function"
    },
    {
      "inputs": [
        {
          "internalType": "bytes32",
          "name": "slot",
          "type": "bytes32"
        },
        {
          "internalType": "bytes32",
          "name": "value",
          "type": "bytes32"
        }
      ],
      "name": "setBytes32",
      "outputs": [],
      "stateMutability": "nonpayable",
      "type": "function"
    },
    {
      "inputs": [
        {
          "internalType": "bytes32",
          "name": "slot",
          "type": "bytes32"
        },
        {
          "internalType": "uint256",
          "name": "value",
          "type": "uint256"
        }
      ],
      "name": "setUint256",
      "outputs": [],
      "stateMutability": "nonpayable",
      "type": "function"
    },
    {
      "inputs": [
        {
          "internalType": "bytes32",
          "name": "slot",
          "type": "bytes32"
        }
      ],
      "name": "getBoolean",
      "outputs": [
        {
          "internalType": "bool",
          "name": "",
          "type": "bool"
        }
      ],
      "stateMutability": "view",
      "type": "function"
    },
    {
      "inputs": [
        {
          "internalType": "bytes32",
          "name": "slot",
          "type": "bytes32"
        }
      ],
      "name": "getAddress",
      "outputs": [
        {
          "internalType": "address",
          "name": "",
          "type": "address"
        }
      ],
      "stateMutability": "view",
      "type": "function"
    },
    {
      "inputs": [
        {
          "internalType": "bytes32",
          "name": "slot",
          "type": "bytes32"
        }
      ],
      "name": "getBytes32",
      "outputs": [
        {
          "internalType": "bytes32",
          "name": "",
          "type": "bytes32"
        }
      ],
      "stateMutability": "view",
      "type": "function"
    },
    {
      "inputs": [
        {
          "internalType": "bytes32",
          "name": "slot",
          "type": "bytes32"
        }
      ],
      "name": "getUint256",
      "outputs": [
        {
          "internalType": "uint256",
          "name": "",
          "type": "uint256"
        }
      ],
      "stateMutability": "view",
      "type": "function"
    }
  ],
  "bytecode": "0x608060405234801561001057600080fd5b5061022c806100206000396000f3fe608060405234801561001057600080fd5b50600436106100785760003560e01c806321f8a7211461007d57806333598b00146100b55780633848207a146100d55780634e91db08146100fa5780634f3029c2146100fa578063a6ed563e146100b5578063ca446dd91461010e578063f8715b3e14610139575b600080fd5b61009861008b366004610155565b546001600160a01b031690565b6040516001600160a01b0390911681526020015b60405180910390f35b6100c76100c3366004610155565b5490565b6040519081526020016100ac565b6100ea6100e3366004610155565b5460ff1690565b60405190151581526020016100ac565b61010c61010836600461016e565b9055565b005b61010c61011c366004610190565b81546001600160a01b0319166001600160a01b0391909116179055565b61010c6101473660046101cc565b815460ff1916901515179055565b60006020828403121561016757600080fd5b5035919050565b6000806040838503121561018157600080fd5b50508035926020909101359150565b600080604083850312156101a357600080fd5b8235915060208301356001600160a01b03811681146101c157600080fd5b809150509250929050565b600080604083850312156101df57600080fd5b82359150602083013580151581146101c157600080fdfea26469706673582212201e71fe9bf13b64784b66b398c02239e86471ec4c6e686d75dfdaa516a4ce4fb164736f6c634300080e0033",
  "immutableReferences": {},
  "source": "// SPDX-License-Identifier: MIT\r\n\r\npragma solidity ^0.8.0;\r\n\r\nimport \"../utils/StorageSlot.sol\";\r\n\r\ncontract StorageSlotMock {\r\n    using StorageSlot for bytes32;\r\n\r\n    function setBoolean(bytes32 slot, bool value) public {\r\n        slot.getBooleanSlot().value = value;\r\n    }\r\n\r\n    function setAddress(bytes32 slot, address value) public {\r\n        slot.getAddressSlot().value = value;\r\n    }\r\n\r\n    function setBytes32(bytes32 slot, bytes32 value) public {\r\n        slot.getBytes32Slot().value = value;\r\n    }\r\n\r\n    function setUint256(bytes32 slot, uint256 value) public {\r\n        slot.getUint256Slot().value = value;\r\n    }\r\n\r\n    function getBoolean(bytes32 slot) public view returns (bool) {\r\n        return slot.getBooleanSlot().value;\r\n    }\r\n\r\n    function getAddress(bytes32 slot) public view returns (address) {\r\n        return slot.getAddressSlot().value;\r\n    }\r\n\r\n    function getBytes32(bytes32 slot) public view returns (bytes32) {\r\n        return slot.getBytes32Slot().value;\r\n    }\r\n\r\n    function getUint256(bytes32 slot) public view returns (uint256) {\r\n        return slot.getUint256Slot().value;\r\n    }\r\n}\r\n",
  "sourcePath": "D:\\work\\www\\yopu_dapp_nft\\contracts\\lib\\openzeppelin\\contracts\\mocks\\StorageSlotMock.sol",
  "compiler": {
    "name": "solc",
    "version": "0.8.14+commit.80d49f37.Emscripten.clang"
  },
  "schemaVersion": "3.4.7",
  "updatedAt": "2022-06-28T15:05:48.259Z",
  "devdoc": {
    "kind": "dev",
    "methods": {},
    "version": 1
  },
  "userdoc": {
    "kind": "user",
    "methods": {},
    "version": 1
  }
}