{
  "contractName": "StringsMock",
  "abi": [
    {
      "inputs": [
        {
          "internalType": "uint256",
          "name": "value",
          "type": "uint256"
        }
      ],
      "name": "fromUint256",
      "outputs": [
        {
          "internalType": "string",
          "name": "",
          "type": "string"
        }
      ],
      "stateMutability": "pure",
      "type": "function"
    },
    {
      "inputs": [
        {
          "internalType": "uint256",
          "name": "value",
          "type": "uint256"
        }
      ],
      "name": "fromUint256Hex",
      "outputs": [
        {
          "internalType": "string",
          "name": "",
          "type": "string"
        }
      ],
      "stateMutability": "pure",
      "type": "function"
    },
    {
      "inputs": [
        {
          "internalType": "uint256",
          "name": "value",
          "type": "uint256"
        },
        {
          "internalType": "uint256",
          "name": "length",
          "type": "uint256"
        }
      ],
      "name": "fromUint256HexFixed",
      "outputs": [
        {
          "internalType": "string",
          "name": "",
          "type": "string"
        }
      ],
      "stateMutability": "pure",
      "type": "function"
    },
    {
      "inputs": [
        {
          "internalType": "address",
          "name": "addr",
          "type": "address"
        }
      ],
      "name": "fromAddressHexFixed",
      "outputs": [
        {
          "internalType": "string",
          "name": "",
          "type": "string"
        }
      ],
      "stateMutability": "pure",
      "type": "function"
    }
  ],
  "bytecode": "0x608060405234801561001057600080fd5b506105ee806100206000396000f3fe608060405234801561001057600080fd5b506004361061004c5760003560e01c806302c5b75f1461005157806392b0ed1a1461007a578063a2bd36441461008d578063dfbf77f9146100a0575b600080fd5b61006461005f366004610401565b6100b3565b604051610071919061041a565b60405180910390f35b61006461008836600461046f565b6100c4565b61006461009b366004610401565b6100d7565b6100646100ae366004610491565b6100e2565b60606100be826100ed565b92915050565b60606100d0838361014c565b9392505050565b60606100be826102eb565b60606100be826103eb565b6060816000036101175750506040805180820190915260048152630307830360e41b602082015290565b8160005b811561013a578061012b816104d0565b915050600882901c915061011b565b610144848261014c565b949350505050565b6060600061015b8360026104e9565b610166906002610508565b6001600160401b0381111561017d5761017d610520565b6040519080825280601f01601f1916602001820160405280156101a7576020820181803683370190505b509050600360fc1b816000815181106101c2576101c2610536565b60200101906001600160f81b031916908160001a905350600f60fb1b816001815181106101f1576101f1610536565b60200101906001600160f81b031916908160001a90535060006102158460026104e9565b610220906001610508565b90505b6001811115610298576f181899199a1a9b1b9c1cb0b131b232b360811b85600f166010811061025457610254610536565b1a60f81b82828151811061026a5761026a610536565b60200101906001600160f81b031916908160001a90535060049490941c936102918161054c565b9050610223565b5083156100d05760405162461bcd60e51b815260206004820181905260248201527f537472696e67733a20686578206c656e67746820696e73756666696369656e74604482015260640160405180910390fd5b6060816000036103125750506040805180820190915260018152600360fc1b602082015290565b8160005b811561033c5780610326816104d0565b91506103359050600a83610579565b9150610316565b6000816001600160401b0381111561035657610356610520565b6040519080825280601f01601f191660200182016040528015610380576020820181803683370190505b5090505b84156101445761039560018361058d565b91506103a2600a866105a4565b6103ad906030610508565b60f81b8183815181106103c2576103c2610536565b60200101906001600160f81b031916908160001a9053506103e4600a86610579565b9450610384565b60606100be6001600160a01b038316601461014c565b60006020828403121561041357600080fd5b5035919050565b600060208083528351808285015260005b818110156104475785810183015185820160400152820161042b565b81811115610459576000604083870101525b50601f01601f1916929092016040019392505050565b6000806040838503121561048257600080fd5b50508035926020909101359150565b6000602082840312156104a357600080fd5b81356001600160a01b03811681146100d057600080fd5b634e487b7160e01b600052601160045260246000fd5b6000600182016104e2576104e26104ba565b5060010190565b6000816000190483118215151615610503576105036104ba565b500290565b6000821982111561051b5761051b6104ba565b500190565b634e487b7160e01b600052604160045260246000fd5b634e487b7160e01b600052603260045260246000fd5b60008161055b5761055b6104ba565b506000190190565b634e487b7160e01b600052601260045260246000fd5b60008261058857610588610563565b500490565b60008282101561059f5761059f6104ba565b500390565b6000826105b3576105b3610563565b50069056fea26469706673582212208a5115c638a734012d930d6407450b13b51cd994211b0d549b466096cd7423f364736f6c634300080e0033",
  "immutableReferences": {},
  "source": "// SPDX-License-Identifier: MIT\r\n\r\npragma solidity ^0.8.0;\r\n\r\nimport \"../utils/Strings.sol\";\r\n\r\ncontract StringsMock {\r\n    function fromUint256(uint256 value) public pure returns (string memory) {\r\n        return Strings.toString(value);\r\n    }\r\n\r\n    function fromUint256Hex(uint256 value) public pure returns (string memory) {\r\n        return Strings.toHexString(value);\r\n    }\r\n\r\n    function fromUint256HexFixed(uint256 value, uint256 length) public pure returns (string memory) {\r\n        return Strings.toHexString(value, length);\r\n    }\r\n\r\n    function fromAddressHexFixed(address addr) public pure returns (string memory) {\r\n        return Strings.toHexString(addr);\r\n    }\r\n}\r\n",
  "sourcePath": "D:\\work\\www\\yopu_dapp_nft\\contracts\\lib\\openzeppelin\\contracts\\mocks\\StringsMock.sol",
  "compiler": {
    "name": "solc",
    "version": "0.8.14+commit.80d49f37.Emscripten.clang"
  },
  "schemaVersion": "3.4.7",
  "updatedAt": "2022-06-28T15:05:48.263Z",
  "devdoc": {
    "kind": "dev",
    "methods": {},
    "version": 1
  },
  "userdoc": {
    "kind": "user",
    "methods": {},
    "version": 1
  }
}