{
  "contractName": "TimersBlockNumberImpl",
  "abi": [
    {
      "inputs": [],
      "name": "getDeadline",
      "outputs": [
        {
          "internalType": "uint64",
          "name": "",
          "type": "uint64"
        }
      ],
      "stateMutability": "view",
      "type": "function"
    },
    {
      "inputs": [
        {
          "internalType": "uint64",
          "name": "timestamp",
          "type": "uint64"
        }
      ],
      "name": "setDeadline",
      "outputs": [],
      "stateMutability": "nonpayable",
      "type": "function"
    },
    {
      "inputs": [],
      "name": "reset",
      "outputs": [],
      "stateMutability": "nonpayable",
      "type": "function"
    },
    {
      "inputs": [],
      "name": "isUnset",
      "outputs": [
        {
          "internalType": "bool",
          "name": "",
          "type": "bool"
        }
      ],
      "stateMutability": "view",
      "type": "function"
    },
    {
      "inputs": [],
      "name": "isStarted",
      "outputs": [
        {
          "internalType": "bool",
          "name": "",
          "type": "bool"
        }
      ],
      "stateMutability": "view",
      "type": "function"
    },
    {
      "inputs": [],
      "name": "isPending",
      "outputs": [
        {
          "internalType": "bool",
          "name": "",
          "type": "bool"
        }
      ],
      "stateMutability": "view",
      "type": "function"
    },
    {
      "inputs": [],
      "name": "isExpired",
      "outputs": [
        {
          "internalType": "bool",
          "name": "",
          "type": "bool"
        }
      ],
      "stateMutability": "view",
      "type": "function"
    }
  ],
  "bytecode": "0x608060405234801561001057600080fd5b50610228806100206000396000f3fe608060405234801561001057600080fd5b506004361061006d5760003560e01c80632260fe3a146100725780632f13b60c146100a4578063544736e6146100ac5780635f8d96de146100ce5780639c30ad7e146100f4578063aebc048314610116578063d826f88f14610146575b600080fd5b60408051602081019091526000546001600160401b031690819052155b60405190151581526020015b60405180910390f35b61008f610153565b60408051602081019091526000546001600160401b031690819052151561008f565b60408051602080820183526000546001600160401b03169182905291519081520161009b565b60408051602081019091526000546001600160401b031690819052431061008f565b6101446101243660046101c2565b600080546001600160401b0383166001600160401b031990911617905550565b005b610144610177565b905090565b6040805160208101909152600080546001600160401b031682529061014e9061018e565b61018c600080546001600160401b0319169055565b565b60006101a382516001600160401b0316151590565b80156101bc57504382600001516001600160401b031611155b92915050565b6000602082840312156101d457600080fd5b81356001600160401b03811681146101eb57600080fd5b939250505056fea264697066735822122065fa4b7ebc5e22161a65b384c57912ead840b15806a6588a8f1ae6bca6c53eea64736f6c634300080e0033",
  "immutableReferences": {},
  "source": "// SPDX-License-Identifier: MIT\r\n\r\npragma solidity ^0.8.0;\r\n\r\nimport \"../utils/Timers.sol\";\r\n\r\ncontract TimersBlockNumberImpl {\r\n    using Timers for Timers.BlockNumber;\r\n\r\n    Timers.BlockNumber private _timer;\r\n\r\n    function getDeadline() public view returns (uint64) {\r\n        return _timer.getDeadline();\r\n    }\r\n\r\n    function setDeadline(uint64 timestamp) public {\r\n        _timer.setDeadline(timestamp);\r\n    }\r\n\r\n    function reset() public {\r\n        _timer.reset();\r\n    }\r\n\r\n    function isUnset() public view returns (bool) {\r\n        return _timer.isUnset();\r\n    }\r\n\r\n    function isStarted() public view returns (bool) {\r\n        return _timer.isStarted();\r\n    }\r\n\r\n    function isPending() public view returns (bool) {\r\n        return _timer.isPending();\r\n    }\r\n\r\n    function isExpired() public view returns (bool) {\r\n        return _timer.isExpired();\r\n    }\r\n}\r\n",
  "sourcePath": "D:\\work\\www\\yopu_dapp_nft\\contracts\\lib\\openzeppelin\\contracts\\mocks\\TimersBlockNumberImpl.sol",
  "compiler": {
    "name": "solc",
    "version": "0.8.14+commit.80d49f37.Emscripten.clang"
  },
  "schemaVersion": "3.4.7",
  "updatedAt": "2022-06-28T15:05:48.267Z",
  "devdoc": {
    "kind": "dev",
    "methods": {},
    "version": 1
  },
  "userdoc": {
    "kind": "user",
    "methods": {},
    "version": 1
  }
}