{
  "contractName": "UintToAddressMapMock",
  "abi": [
    {
      "anonymous": false,
      "inputs": [
        {
          "indexed": false,
          "internalType": "bool",
          "name": "result",
          "type": "bool"
        }
      ],
      "name": "OperationResult",
      "type": "event"
    },
    {
      "inputs": [
        {
          "internalType": "uint256",
          "name": "key",
          "type": "uint256"
        }
      ],
      "name": "contains",
      "outputs": [
        {
          "internalType": "bool",
          "name": "",
          "type": "bool"
        }
      ],
      "stateMutability": "view",
      "type": "function"
    },
    {
      "inputs": [
        {
          "internalType": "uint256",
          "name": "key",
          "type": "uint256"
        },
        {
          "internalType": "address",
          "name": "value",
          "type": "address"
        }
      ],
      "name": "set",
      "outputs": [],
      "stateMutability": "nonpayable",
      "type": "function"
    },
    {
      "inputs": [
        {
          "internalType": "uint256",
          "name": "key",
          "type": "uint256"
        }
      ],
      "name": "remove",
      "outputs": [],
      "stateMutability": "nonpayable",
      "type": "function"
    },
    {
      "inputs": [],
      "name": "length",
      "outputs": [
        {
          "internalType": "uint256",
          "name": "",
          "type": "uint256"
        }
      ],
      "stateMutability": "view",
      "type": "function"
    },
    {
      "inputs": [
        {
          "internalType": "uint256",
          "name": "index",
          "type": "uint256"
        }
      ],
      "name": "at",
      "outputs": [
        {
          "internalType": "uint256",
          "name": "key",
          "type": "uint256"
        },
        {
          "internalType": "address",
          "name": "value",
          "type": "address"
        }
      ],
      "stateMutability": "view",
      "type": "function"
    },
    {
      "inputs": [
        {
          "internalType": "uint256",
          "name": "key",
          "type": "uint256"
        }
      ],
      "name": "tryGet",
      "outputs": [
        {
          "internalType": "bool",
          "name": "",
          "type": "bool"
        },
        {
          "internalType": "address",
          "name": "",
          "type": "address"
        }
      ],
      "stateMutability": "view",
      "type": "function"
    },
    {
      "inputs": [
        {
          "internalType": "uint256",
          "name": "key",
          "type": "uint256"
        }
      ],
      "name": "get",
      "outputs": [
        {
          "internalType": "address",
          "name": "",
          "type": "address"
        }
      ],
      "stateMutability": "view",
      "type": "function"
    },
    {
      "inputs": [
        {
          "internalType": "uint256",
          "name": "key",
          "type": "uint256"
        },
        {
          "internalType": "string",
          "name": "errorMessage",
          "type": "string"
        }
      ],
      "name": "getWithMessage",
      "outputs": [
        {
          "internalType": "address",
          "name": "",
          "type": "address"
        }
      ],
      "stateMutability": "view",
      "type": "function"
    }
  ],
  "bytecode": "0x608060405234801561001057600080fd5b5061081b806100206000396000f3fe608060405234801561001057600080fd5b50600436106100785760003560e01c80631f7b6d321461007d5780632f30c6f6146100985780634cc82215146100ad578063871394d9146100c05780639507d39a146100f2578063c051a3a61461011d578063c34052e014610130578063e0886f9014610153575b600080fd5b610085610183565b6040519081526020015b60405180910390f35b6100ab6100a636600461064f565b610194565b005b6100ab6100bb36600461068b565b6101d1565b6100d36100ce36600461068b565b61020c565b6040805192151583526001600160a01b0390911660208301520161008f565b61010561010036600461068b565b610222565b6040516001600160a01b03909116815260200161008f565b61010561012b3660046106a4565b610234565b61014361013e36600461068b565b610280565b604051901515815260200161008f565b61016661016136600461068b565b61028c565b604080519283526001600160a01b0390911660208301520161008f565b600061018f6000610299565b905090565b60006101a18184846102a4565b90506000805160206107c6833981519152816040516101c4911515815260200190565b60405180910390a1505050565b60006101dd81836102ba565b90506000805160206107c683398151915281604051610200911515815260200190565b60405180910390a15050565b60008061021981846102cd565b91509150915091565b600061022e81836102eb565b92915050565b60006102788484848080601f016020809104026020016040519081016040528093929190818152602001838380828437600092018290525094939250506102f79050565b949350505050565b600061022e8183610304565b6000806102198184610310565b600061022e8261031f565b600061027884846001600160a01b03851661032a565b60006102c68383610347565b9392505050565b60008080806102dc8686610364565b909450925050505b9250929050565b60006102c6838361039e565b6000610278848484610413565b60006102c6838361045f565b60008080806102dc868661046b565b600061022e82610496565b6000828152600284016020526040812082905561027884846104a0565b600081815260028301602052604081208190556102c683836104ac565b600081815260028301602052604081205481908061039357610386858561045f565b9250600091506102e49050565b6001925090506102e4565b6000818152600283016020526040812054801515806103c257506103c2848461045f565b6102c65760405162461bcd60e51b815260206004820152601e60248201527f456e756d657261626c654d61703a206e6f6e6578697374656e74206b6579000060448201526064015b60405180910390fd5b6000828152600284016020526040812054801515806104375750610437858561045f565b83906104565760405162461bcd60e51b815260040161040a919061071f565b50949350505050565b60006102c683836104b8565b6000808061047985856104c4565b600081815260029690960160205260409095205494959350505050565b600061022e825490565b60006102c683836104d0565b60006102c6838361051a565b60006102c6838361060d565b60006102c68383610625565b60006104dc838361060d565b6105125750815460018181018455600084815260208082209093018490558454848252828601909352604090209190915561022e565b50600061022e565b6000818152600183016020526040812054801561060357600061053e600183610774565b855490915060009061055290600190610774565b90508181146105b757600086600001828154811061057257610572610799565b906000526020600020015490508087600001848154811061059557610595610799565b6000918252602080832090910192909255918252600188019052604090208390555b85548690806105c8576105c86107af565b60019003818190600052602060002001600090559055856001016000868152602001908152602001600020600090556001935050505061022e565b600091505061022e565b60009081526001919091016020526040902054151590565b600082600001828154811061063c5761063c610799565b9060005260206000200154905092915050565b6000806040838503121561066257600080fd5b8235915060208301356001600160a01b038116811461068057600080fd5b809150509250929050565b60006020828403121561069d57600080fd5b5035919050565b6000806000604084860312156106b957600080fd5b8335925060208401356001600160401b03808211156106d757600080fd5b818601915086601f8301126106eb57600080fd5b8135818111156106fa57600080fd5b87602082850101111561070c57600080fd5b6020830194508093505050509250925092565b600060208083528351808285015260005b8181101561074c57858101830151858201604001528201610730565b8181111561075e576000604083870101525b50601f01601f1916929092016040019392505050565b60008282101561079457634e487b7160e01b600052601160045260246000fd5b500390565b634e487b7160e01b600052603260045260246000fd5b634e487b7160e01b600052603160045260246000fdfeed9840e0775590557ad736875d96c95cf1458b766335f74339951a32c82a9e33a26469706673582212201888e7924caa7566377948d6c895a0e31785fda52ddd9ada2e6e6d75314de40f64736f6c634300080e0033",
  "immutableReferences": {},
  "source": "// SPDX-License-Identifier: MIT\r\n\r\npragma solidity ^0.8.0;\r\n\r\nimport \"../utils/structs/EnumerableMap.sol\";\r\n\r\n// UintToAddressMap\r\ncontract UintToAddressMapMock {\r\n    using EnumerableMap for EnumerableMap.UintToAddressMap;\r\n\r\n    event OperationResult(bool result);\r\n\r\n    EnumerableMap.UintToAddressMap private _map;\r\n\r\n    function contains(uint256 key) public view returns (bool) {\r\n        return _map.contains(key);\r\n    }\r\n\r\n    function set(uint256 key, address value) public {\r\n        bool result = _map.set(key, value);\r\n        emit OperationResult(result);\r\n    }\r\n\r\n    function remove(uint256 key) public {\r\n        bool result = _map.remove(key);\r\n        emit OperationResult(result);\r\n    }\r\n\r\n    function length() public view returns (uint256) {\r\n        return _map.length();\r\n    }\r\n\r\n    function at(uint256 index) public view returns (uint256 key, address value) {\r\n        return _map.at(index);\r\n    }\r\n\r\n    function tryGet(uint256 key) public view returns (bool, address) {\r\n        return _map.tryGet(key);\r\n    }\r\n\r\n    function get(uint256 key) public view returns (address) {\r\n        return _map.get(key);\r\n    }\r\n\r\n    function getWithMessage(uint256 key, string calldata errorMessage) public view returns (address) {\r\n        return _map.get(key, errorMessage);\r\n    }\r\n}\r\n\r\n// AddressToUintMap\r\ncontract AddressToUintMapMock {\r\n    using EnumerableMap for EnumerableMap.AddressToUintMap;\r\n\r\n    event OperationResult(bool result);\r\n\r\n    EnumerableMap.AddressToUintMap private _map;\r\n\r\n    function contains(address key) public view returns (bool) {\r\n        return _map.contains(key);\r\n    }\r\n\r\n    function set(address key, uint256 value) public {\r\n        bool result = _map.set(key, value);\r\n        emit OperationResult(result);\r\n    }\r\n\r\n    function remove(address key) public {\r\n        bool result = _map.remove(key);\r\n        emit OperationResult(result);\r\n    }\r\n\r\n    function length() public view returns (uint256) {\r\n        return _map.length();\r\n    }\r\n\r\n    function at(uint256 index) public view returns (address key, uint256 value) {\r\n        return _map.at(index);\r\n    }\r\n\r\n    function tryGet(address key) public view returns (bool, uint256) {\r\n        return _map.tryGet(key);\r\n    }\r\n\r\n    function get(address key) public view returns (uint256) {\r\n        return _map.get(key);\r\n    }\r\n\r\n    function getWithMessage(address key, string calldata errorMessage) public view returns (uint256) {\r\n        return _map.get(key, errorMessage);\r\n    }\r\n}\r\n\r\ncontract Bytes32ToBytes32MapMock {\r\n    using EnumerableMap for EnumerableMap.Bytes32ToBytes32Map;\r\n\r\n    event OperationResult(bool result);\r\n\r\n    EnumerableMap.Bytes32ToBytes32Map private _map;\r\n\r\n    function contains(bytes32 key) public view returns (bool) {\r\n        return _map.contains(key);\r\n    }\r\n\r\n    function set(bytes32 key, bytes32 value) public {\r\n        bool result = _map.set(key, value);\r\n        emit OperationResult(result);\r\n    }\r\n\r\n    function remove(bytes32 key) public {\r\n        bool result = _map.remove(key);\r\n        emit OperationResult(result);\r\n    }\r\n\r\n    function length() public view returns (uint256) {\r\n        return _map.length();\r\n    }\r\n\r\n    function at(uint256 index) public view returns (bytes32 key, bytes32 value) {\r\n        return _map.at(index);\r\n    }\r\n\r\n    function tryGet(bytes32 key) public view returns (bool, bytes32) {\r\n        return _map.tryGet(key);\r\n    }\r\n\r\n    function get(bytes32 key) public view returns (bytes32) {\r\n        return _map.get(key);\r\n    }\r\n\r\n    function getWithMessage(bytes32 key, string calldata errorMessage) public view returns (bytes32) {\r\n        return _map.get(key, errorMessage);\r\n    }\r\n}\r\n\r\n// UintToUintMap\r\ncontract UintToUintMapMock {\r\n    using EnumerableMap for EnumerableMap.UintToUintMap;\r\n\r\n    event OperationResult(bool result);\r\n\r\n    EnumerableMap.UintToUintMap private _map;\r\n\r\n    function contains(uint256 key) public view returns (bool) {\r\n        return _map.contains(key);\r\n    }\r\n\r\n    function set(uint256 key, uint256 value) public {\r\n        bool result = _map.set(key, value);\r\n        emit OperationResult(result);\r\n    }\r\n\r\n    function remove(uint256 key) public {\r\n        bool result = _map.remove(key);\r\n        emit OperationResult(result);\r\n    }\r\n\r\n    function length() public view returns (uint256) {\r\n        return _map.length();\r\n    }\r\n\r\n    function at(uint256 index) public view returns (uint256 key, uint256 value) {\r\n        return _map.at(index);\r\n    }\r\n\r\n    function tryGet(uint256 key) public view returns (bool, uint256) {\r\n        return _map.tryGet(key);\r\n    }\r\n\r\n    function get(uint256 key) public view returns (uint256) {\r\n        return _map.get(key);\r\n    }\r\n\r\n    function getWithMessage(uint256 key, string calldata errorMessage) public view returns (uint256) {\r\n        return _map.get(key, errorMessage);\r\n    }\r\n}\r\n\r\n// Bytes32ToUintMap\r\ncontract Bytes32ToUintMapMock {\r\n    using EnumerableMap for EnumerableMap.Bytes32ToUintMap;\r\n\r\n    event OperationResult(bool result);\r\n\r\n    EnumerableMap.Bytes32ToUintMap private _map;\r\n\r\n    function contains(bytes32 key) public view returns (bool) {\r\n        return _map.contains(key);\r\n    }\r\n\r\n    function set(bytes32 key, uint256 value) public {\r\n        bool result = _map.set(key, value);\r\n        emit OperationResult(result);\r\n    }\r\n\r\n    function remove(bytes32 key) public {\r\n        bool result = _map.remove(key);\r\n        emit OperationResult(result);\r\n    }\r\n\r\n    function length() public view returns (uint256) {\r\n        return _map.length();\r\n    }\r\n\r\n    function at(uint256 index) public view returns (bytes32 key, uint256 value) {\r\n        return _map.at(index);\r\n    }\r\n\r\n    function tryGet(bytes32 key) public view returns (bool, uint256) {\r\n        return _map.tryGet(key);\r\n    }\r\n\r\n    function get(bytes32 key) public view returns (uint256) {\r\n        return _map.get(key);\r\n    }\r\n\r\n    function getWithMessage(bytes32 key, string calldata errorMessage) public view returns (uint256) {\r\n        return _map.get(key, errorMessage);\r\n    }\r\n}\r\n",
  "sourcePath": "D:\\work\\www\\yopu_dapp_nft\\contracts\\lib\\openzeppelin\\contracts\\mocks\\EnumerableMapMock.sol",
  "compiler": {
    "name": "solc",
    "version": "0.8.14+commit.80d49f37.Emscripten.clang"
  },
  "schemaVersion": "3.4.7",
  "updatedAt": "2022-06-28T15:05:47.748Z",
  "devdoc": {
    "kind": "dev",
    "methods": {},
    "version": 1
  },
  "userdoc": {
    "kind": "user",
    "methods": {},
    "version": 1
  }
}