{
  "contractName": "UintToUintMapMock",
  "abi": [
    {
      "anonymous": false,
      "inputs": [
        {
          "indexed": false,
          "internalType": "bool",
          "name": "result",
          "type": "bool"
        }
      ],
      "name": "OperationResult",
      "type": "event"
    },
    {
      "inputs": [
        {
          "internalType": "uint256",
          "name": "key",
          "type": "uint256"
        }
      ],
      "name": "contains",
      "outputs": [
        {
          "internalType": "bool",
          "name": "",
          "type": "bool"
        }
      ],
      "stateMutability": "view",
      "type": "function"
    },
    {
      "inputs": [
        {
          "internalType": "uint256",
          "name": "key",
          "type": "uint256"
        },
        {
          "internalType": "uint256",
          "name": "value",
          "type": "uint256"
        }
      ],
      "name": "set",
      "outputs": [],
      "stateMutability": "nonpayable",
      "type": "function"
    },
    {
      "inputs": [
        {
          "internalType": "uint256",
          "name": "key",
          "type": "uint256"
        }
      ],
      "name": "remove",
      "outputs": [],
      "stateMutability": "nonpayable",
      "type": "function"
    },
    {
      "inputs": [],
      "name": "length",
      "outputs": [
        {
          "internalType": "uint256",
          "name": "",
          "type": "uint256"
        }
      ],
      "stateMutability": "view",
      "type": "function"
    },
    {
      "inputs": [
        {
          "internalType": "uint256",
          "name": "index",
          "type": "uint256"
        }
      ],
      "name": "at",
      "outputs": [
        {
          "internalType": "uint256",
          "name": "key",
          "type": "uint256"
        },
        {
          "internalType": "uint256",
          "name": "value",
          "type": "uint256"
        }
      ],
      "stateMutability": "view",
      "type": "function"
    },
    {
      "inputs": [
        {
          "internalType": "uint256",
          "name": "key",
          "type": "uint256"
        }
      ],
      "name": "tryGet",
      "outputs": [
        {
          "internalType": "bool",
          "name": "",
          "type": "bool"
        },
        {
          "internalType": "uint256",
          "name": "",
          "type": "uint256"
        }
      ],
      "stateMutability": "view",
      "type": "function"
    },
    {
      "inputs": [
        {
          "internalType": "uint256",
          "name": "key",
          "type": "uint256"
        }
      ],
      "name": "get",
      "outputs": [
        {
          "internalType": "uint256",
          "name": "",
          "type": "uint256"
        }
      ],
      "stateMutability": "view",
      "type": "function"
    },
    {
      "inputs": [
        {
          "internalType": "uint256",
          "name": "key",
          "type": "uint256"
        },
        {
          "internalType": "string",
          "name": "errorMessage",
          "type": "string"
        }
      ],
      "name": "getWithMessage",
      "outputs": [
        {
          "internalType": "uint256",
          "name": "",
          "type": "uint256"
        }
      ],
      "stateMutability": "view",
      "type": "function"
    }
  ],
  "bytecode": "0x608060405234801561001057600080fd5b506107d0806100206000396000f3fe608060405234801561001057600080fd5b50600436106100785760003560e01c80631ab06ee51461007d5780631f7b6d32146100925780634cc82215146100ad578063871394d9146100c05780639507d39a146100ea578063c051a3a6146100fd578063c34052e014610110578063e0886f9014610133575b600080fd5b61009061008b36600461061e565b61015b565b005b61009a610198565b6040519081526020015b60405180910390f35b6100906100bb366004610640565b6101a9565b6100d36100ce366004610640565b6101e4565b6040805192151583526020830191909152016100a4565b61009a6100f8366004610640565b6101fa565b61009a61010b366004610659565b61020c565b61012361011e366004610640565b610258565b60405190151581526020016100a4565b610146610141366004610640565b610264565b604080519283526020830191909152016100a4565b6000610168818484610271565b905060008051602061077b8339815191528160405161018b911515815260200190565b60405180910390a1505050565b60006101a4600061027e565b905090565b60006101b58183610289565b905060008051602061077b833981519152816040516101d8911515815260200190565b60405180910390a15050565b6000806101f1818461029c565b91509150915091565b600061020681836102ba565b92915050565b60006102508484848080601f016020809104026020016040519081016040528093929190818152602001838380828437600092018290525094939250506102c69050565b949350505050565b600061020681836102d3565b6000806101f181846102df565b60006102508484846102ee565b60006102068261030b565b60006102958383610316565b9392505050565b60008080806102ab8686610333565b909450925050505b9250929050565b6000610295838361036d565b60006102508484846103e2565b6000610295838361042e565b60008080806102ab868661043a565b600082815260028401602052604081208290556102508484610465565b600061020682610471565b60008181526002830160205260408120819055610295838361047b565b600081815260028301602052604081205481908061036257610355858561042e565b9250600091506102b39050565b6001925090506102b3565b6000818152600283016020526040812054801515806103915750610391848461042e565b6102955760405162461bcd60e51b815260206004820152601e60248201527f456e756d657261626c654d61703a206e6f6e6578697374656e74206b6579000060448201526064015b60405180910390fd5b6000828152600284016020526040812054801515806104065750610406858561042e565b83906104255760405162461bcd60e51b81526004016103d991906106d4565b50949350505050565b60006102958383610487565b600080806104488585610493565b600081815260029690960160205260409095205494959350505050565b6000610295838361049f565b6000610206825490565b600061029583836104e9565b600061029583836105dc565b600061029583836105f4565b60006104ab83836105dc565b6104e157508154600181810184556000848152602080822090930184905584548482528286019093526040902091909155610206565b506000610206565b600081815260018301602052604081205480156105d257600061050d600183610729565b855490915060009061052190600190610729565b90508181146105865760008660000182815481106105415761054161074e565b90600052602060002001549050808760000184815481106105645761056461074e565b6000918252602080832090910192909255918252600188019052604090208390555b855486908061059757610597610764565b600190038181906000526020600020016000905590558560010160008681526020019081526020016000206000905560019350505050610206565b6000915050610206565b60009081526001919091016020526040902054151590565b600082600001828154811061060b5761060b61074e565b9060005260206000200154905092915050565b6000806040838503121561063157600080fd5b50508035926020909101359150565b60006020828403121561065257600080fd5b5035919050565b60008060006040848603121561066e57600080fd5b8335925060208401356001600160401b038082111561068c57600080fd5b818601915086601f8301126106a057600080fd5b8135818111156106af57600080fd5b8760208285010111156106c157600080fd5b6020830194508093505050509250925092565b600060208083528351808285015260005b81811015610701578581018301518582016040015282016106e5565b81811115610713576000604083870101525b50601f01601f1916929092016040019392505050565b60008282101561074957634e487b7160e01b600052601160045260246000fd5b500390565b634e487b7160e01b600052603260045260246000fd5b634e487b7160e01b600052603160045260246000fdfeed9840e0775590557ad736875d96c95cf1458b766335f74339951a32c82a9e33a26469706673582212202e2c96e888bb043a646b033af62ec19d8ffbead2493c72f9ee4b7f3e9dbef76764736f6c634300080e0033",
  "immutableReferences": {},
  "source": "// SPDX-License-Identifier: MIT\r\n\r\npragma solidity ^0.8.0;\r\n\r\nimport \"../utils/structs/EnumerableMap.sol\";\r\n\r\n// UintToAddressMap\r\ncontract UintToAddressMapMock {\r\n    using EnumerableMap for EnumerableMap.UintToAddressMap;\r\n\r\n    event OperationResult(bool result);\r\n\r\n    EnumerableMap.UintToAddressMap private _map;\r\n\r\n    function contains(uint256 key) public view returns (bool) {\r\n        return _map.contains(key);\r\n    }\r\n\r\n    function set(uint256 key, address value) public {\r\n        bool result = _map.set(key, value);\r\n        emit OperationResult(result);\r\n    }\r\n\r\n    function remove(uint256 key) public {\r\n        bool result = _map.remove(key);\r\n        emit OperationResult(result);\r\n    }\r\n\r\n    function length() public view returns (uint256) {\r\n        return _map.length();\r\n    }\r\n\r\n    function at(uint256 index) public view returns (uint256 key, address value) {\r\n        return _map.at(index);\r\n    }\r\n\r\n    function tryGet(uint256 key) public view returns (bool, address) {\r\n        return _map.tryGet(key);\r\n    }\r\n\r\n    function get(uint256 key) public view returns (address) {\r\n        return _map.get(key);\r\n    }\r\n\r\n    function getWithMessage(uint256 key, string calldata errorMessage) public view returns (address) {\r\n        return _map.get(key, errorMessage);\r\n    }\r\n}\r\n\r\n// AddressToUintMap\r\ncontract AddressToUintMapMock {\r\n    using EnumerableMap for EnumerableMap.AddressToUintMap;\r\n\r\n    event OperationResult(bool result);\r\n\r\n    EnumerableMap.AddressToUintMap private _map;\r\n\r\n    function contains(address key) public view returns (bool) {\r\n        return _map.contains(key);\r\n    }\r\n\r\n    function set(address key, uint256 value) public {\r\n        bool result = _map.set(key, value);\r\n        emit OperationResult(result);\r\n    }\r\n\r\n    function remove(address key) public {\r\n        bool result = _map.remove(key);\r\n        emit OperationResult(result);\r\n    }\r\n\r\n    function length() public view returns (uint256) {\r\n        return _map.length();\r\n    }\r\n\r\n    function at(uint256 index) public view returns (address key, uint256 value) {\r\n        return _map.at(index);\r\n    }\r\n\r\n    function tryGet(address key) public view returns (bool, uint256) {\r\n        return _map.tryGet(key);\r\n    }\r\n\r\n    function get(address key) public view returns (uint256) {\r\n        return _map.get(key);\r\n    }\r\n\r\n    function getWithMessage(address key, string calldata errorMessage) public view returns (uint256) {\r\n        return _map.get(key, errorMessage);\r\n    }\r\n}\r\n\r\ncontract Bytes32ToBytes32MapMock {\r\n    using EnumerableMap for EnumerableMap.Bytes32ToBytes32Map;\r\n\r\n    event OperationResult(bool result);\r\n\r\n    EnumerableMap.Bytes32ToBytes32Map private _map;\r\n\r\n    function contains(bytes32 key) public view returns (bool) {\r\n        return _map.contains(key);\r\n    }\r\n\r\n    function set(bytes32 key, bytes32 value) public {\r\n        bool result = _map.set(key, value);\r\n        emit OperationResult(result);\r\n    }\r\n\r\n    function remove(bytes32 key) public {\r\n        bool result = _map.remove(key);\r\n        emit OperationResult(result);\r\n    }\r\n\r\n    function length() public view returns (uint256) {\r\n        return _map.length();\r\n    }\r\n\r\n    function at(uint256 index) public view returns (bytes32 key, bytes32 value) {\r\n        return _map.at(index);\r\n    }\r\n\r\n    function tryGet(bytes32 key) public view returns (bool, bytes32) {\r\n        return _map.tryGet(key);\r\n    }\r\n\r\n    function get(bytes32 key) public view returns (bytes32) {\r\n        return _map.get(key);\r\n    }\r\n\r\n    function getWithMessage(bytes32 key, string calldata errorMessage) public view returns (bytes32) {\r\n        return _map.get(key, errorMessage);\r\n    }\r\n}\r\n\r\n// UintToUintMap\r\ncontract UintToUintMapMock {\r\n    using EnumerableMap for EnumerableMap.UintToUintMap;\r\n\r\n    event OperationResult(bool result);\r\n\r\n    EnumerableMap.UintToUintMap private _map;\r\n\r\n    function contains(uint256 key) public view returns (bool) {\r\n        return _map.contains(key);\r\n    }\r\n\r\n    function set(uint256 key, uint256 value) public {\r\n        bool result = _map.set(key, value);\r\n        emit OperationResult(result);\r\n    }\r\n\r\n    function remove(uint256 key) public {\r\n        bool result = _map.remove(key);\r\n        emit OperationResult(result);\r\n    }\r\n\r\n    function length() public view returns (uint256) {\r\n        return _map.length();\r\n    }\r\n\r\n    function at(uint256 index) public view returns (uint256 key, uint256 value) {\r\n        return _map.at(index);\r\n    }\r\n\r\n    function tryGet(uint256 key) public view returns (bool, uint256) {\r\n        return _map.tryGet(key);\r\n    }\r\n\r\n    function get(uint256 key) public view returns (uint256) {\r\n        return _map.get(key);\r\n    }\r\n\r\n    function getWithMessage(uint256 key, string calldata errorMessage) public view returns (uint256) {\r\n        return _map.get(key, errorMessage);\r\n    }\r\n}\r\n\r\n// Bytes32ToUintMap\r\ncontract Bytes32ToUintMapMock {\r\n    using EnumerableMap for EnumerableMap.Bytes32ToUintMap;\r\n\r\n    event OperationResult(bool result);\r\n\r\n    EnumerableMap.Bytes32ToUintMap private _map;\r\n\r\n    function contains(bytes32 key) public view returns (bool) {\r\n        return _map.contains(key);\r\n    }\r\n\r\n    function set(bytes32 key, uint256 value) public {\r\n        bool result = _map.set(key, value);\r\n        emit OperationResult(result);\r\n    }\r\n\r\n    function remove(bytes32 key) public {\r\n        bool result = _map.remove(key);\r\n        emit OperationResult(result);\r\n    }\r\n\r\n    function length() public view returns (uint256) {\r\n        return _map.length();\r\n    }\r\n\r\n    function at(uint256 index) public view returns (bytes32 key, uint256 value) {\r\n        return _map.at(index);\r\n    }\r\n\r\n    function tryGet(bytes32 key) public view returns (bool, uint256) {\r\n        return _map.tryGet(key);\r\n    }\r\n\r\n    function get(bytes32 key) public view returns (uint256) {\r\n        return _map.get(key);\r\n    }\r\n\r\n    function getWithMessage(bytes32 key, string calldata errorMessage) public view returns (uint256) {\r\n        return _map.get(key, errorMessage);\r\n    }\r\n}\r\n",
  "sourcePath": "D:\\work\\www\\yopu_dapp_nft\\contracts\\lib\\openzeppelin\\contracts\\mocks\\EnumerableMapMock.sol",
  "compiler": {
    "name": "solc",
    "version": "0.8.14+commit.80d49f37.Emscripten.clang"
  },
  "schemaVersion": "3.4.7",
  "updatedAt": "2022-06-28T15:05:47.757Z",
  "devdoc": {
    "kind": "dev",
    "methods": {},
    "version": 1
  },
  "userdoc": {
    "kind": "user",
    "methods": {},
    "version": 1
  }
}