{
  "contractName": "UUPSUpgradeableUnsafeMock",
  "abi": [
    {
      "anonymous": false,
      "inputs": [
        {
          "indexed": false,
          "internalType": "address",
          "name": "previousAdmin",
          "type": "address"
        },
        {
          "indexed": false,
          "internalType": "address",
          "name": "newAdmin",
          "type": "address"
        }
      ],
      "name": "AdminChanged",
      "type": "event"
    },
    {
      "anonymous": false,
      "inputs": [
        {
          "indexed": true,
          "internalType": "address",
          "name": "beacon",
          "type": "address"
        }
      ],
      "name": "BeaconUpgraded",
      "type": "event"
    },
    {
      "anonymous": false,
      "inputs": [
        {
          "indexed": true,
          "internalType": "address",
          "name": "implementation",
          "type": "address"
        }
      ],
      "name": "Upgraded",
      "type": "event"
    },
    {
      "inputs": [],
      "name": "current",
      "outputs": [
        {
          "internalType": "uint256",
          "name": "",
          "type": "uint256"
        }
      ],
      "stateMutability": "view",
      "type": "function"
    },
    {
      "inputs": [],
      "name": "decrement",
      "outputs": [],
      "stateMutability": "nonpayable",
      "type": "function"
    },
    {
      "inputs": [],
      "name": "increment",
      "outputs": [],
      "stateMutability": "nonpayable",
      "type": "function"
    },
    {
      "inputs": [],
      "name": "proxiableUUID",
      "outputs": [
        {
          "internalType": "bytes32",
          "name": "",
          "type": "bytes32"
        }
      ],
      "stateMutability": "view",
      "type": "function"
    },
    {
      "inputs": [],
      "name": "reset",
      "outputs": [],
      "stateMutability": "nonpayable",
      "type": "function"
    },
    {
      "inputs": [
        {
          "internalType": "address",
          "name": "newImplementation",
          "type": "address"
        }
      ],
      "name": "upgradeTo",
      "outputs": [],
      "stateMutability": "nonpayable",
      "type": "function"
    },
    {
      "inputs": [
        {
          "internalType": "address",
          "name": "newImplementation",
          "type": "address"
        },
        {
          "internalType": "bytes",
          "name": "data",
          "type": "bytes"
        }
      ],
      "name": "upgradeToAndCall",
      "outputs": [],
      "stateMutability": "payable",
      "type": "function"
    }
  ],
  "bytecode": "0x60a06040523060805234801561001457600080fd5b506080516106d6610030600039600061015c01526106d66000f3fe6080604052600436106100605760003560e01c80632baeceb7146100655780633659cfe61461007c5780634f1ef2861461009c57806352d1902d146100af5780639fa6a6e3146100d6578063d09de08a146100eb578063d826f88f14610100575b600080fd5b34801561007157600080fd5b5061007a610115565b005b34801561008857600080fd5b5061007a6100973660046104ec565b610121565b61007a6100aa36600461051d565b61013f565b3480156100bb57600080fd5b506100c461014f565b60405190815260200160405180910390f35b3480156100e257600080fd5b506000546100c4565b3480156100f757600080fd5b5061007a610202565b34801561010c57600080fd5b5061007a610210565b61011f6000610219565b565b61013c8160405180602001604052806000815250600061026e565b50565b61014b8282600061026e565b5050565b6000306001600160a01b037f000000000000000000000000000000000000000000000000000000000000000016146101ef5760405162461bcd60e51b815260206004820152603860248201527f555550535570677261646561626c653a206d757374206e6f742062652063616c6044820152771b1959081d1a1c9bdd59da0819195b1959d85d1958d85b1b60421b60648201526084015b60405180910390fd5b5060008051602061065a83398151915290565b61011f600080546001019055565b61011f60008055565b8054806102665760405162461bcd60e51b815260206004820152601b60248201527a436f756e7465723a2064656372656d656e74206f766572666c6f7760281b60448201526064016101e6565b600019019055565b6102778361029a565b6000825111806102845750805b156102955761029383836102da565b505b505050565b6102a381610306565b6040516001600160a01b038216907fbc7cd75a20ee27fd9adebab32041f755214dbc6bffa90cc0225b39da2e5c2d3b90600090a250565b60606102ff838360405180606001604052806027815260200161067a602791396103a0565b9392505050565b61030f81610418565b6103715760405162461bcd60e51b815260206004820152602d60248201527f455243313936373a206e657720696d706c656d656e746174696f6e206973206e60448201526c1bdd08184818dbdb9d1c9858dd609a1b60648201526084016101e6565b60008051602061065a83398151915280546001600160a01b0319166001600160a01b0392909216919091179055565b6060600080856001600160a01b0316856040516103bd919061060a565b600060405180830381855af49150503d80600081146103f8576040519150601f19603f3d011682016040523d82523d6000602084013e6103fd565b606091505b509150915061040e86838387610427565b9695505050505050565b6001600160a01b03163b151590565b6060831561049457825160000361048d5761044185610418565b61048d5760405162461bcd60e51b815260206004820152601d60248201527f416464726573733a2063616c6c20746f206e6f6e2d636f6e747261637400000060448201526064016101e6565b508161049e565b61049e83836104a6565b949350505050565b8151156104b65781518083602001fd5b8060405162461bcd60e51b81526004016101e69190610626565b80356001600160a01b03811681146104e757600080fd5b919050565b6000602082840312156104fe57600080fd5b6102ff826104d0565b634e487b7160e01b600052604160045260246000fd5b6000806040838503121561053057600080fd5b610539836104d0565b915060208301356001600160401b038082111561055557600080fd5b818501915085601f83011261056957600080fd5b81358181111561057b5761057b610507565b604051601f8201601f19908116603f011681019083821181831017156105a3576105a3610507565b816040528281528860208487010111156105bc57600080fd5b8260208601602083013760006020848301015280955050505050509250929050565b60005b838110156105f95781810151838201526020016105e1565b838111156102935750506000910152565b6000825161061c8184602087016105de565b9190910192915050565b60208152600082518060208401526106458160408501602087016105de565b601f01601f1916919091016040019291505056fe360894a13ba1a3210667c828492db98dca3e2076cc3735a920a3ca505d382bbc416464726573733a206c6f772d6c6576656c2064656c65676174652063616c6c206661696c6564a264697066735822122039a6d73fe13add62200661e8523baaa156465a100d6145023c81370bf008cf5e64736f6c634300080e0033",
  "immutableReferences": {
    "21274": [
      {
        "length": 32,
        "start": 348
      }
    ]
  },
  "source": "// SPDX-License-Identifier: MIT\r\n\r\npragma solidity ^0.8.0;\r\n\r\nimport \"../CountersImpl.sol\";\r\nimport \"../../proxy/utils/UUPSUpgradeable.sol\";\r\n\r\ncontract UUPSUpgradeableMock is CountersImpl, UUPSUpgradeable {\r\n    // Not having any checks in this function is dangerous! Do not do this outside tests!\r\n    function _authorizeUpgrade(address) internal virtual override {}\r\n}\r\n\r\ncontract UUPSUpgradeableUnsafeMock is UUPSUpgradeableMock {\r\n    function upgradeTo(address newImplementation) external virtual override {\r\n        ERC1967Upgrade._upgradeToAndCall(newImplementation, bytes(\"\"), false);\r\n    }\r\n\r\n    function upgradeToAndCall(address newImplementation, bytes memory data) external payable virtual override {\r\n        ERC1967Upgrade._upgradeToAndCall(newImplementation, data, false);\r\n    }\r\n}\r\n",
  "sourcePath": "D:\\work\\www\\yopu_dapp_nft\\contracts\\lib\\openzeppelin\\contracts\\mocks\\UUPS\\UUPSUpgradeableMock.sol",
  "compiler": {
    "name": "solc",
    "version": "0.8.14+commit.80d49f37.Emscripten.clang"
  },
  "schemaVersion": "3.4.7",
  "updatedAt": "2022-06-28T15:05:48.288Z",
  "devdoc": {
    "kind": "dev",
    "methods": {
      "proxiableUUID()": {
        "details": "Implementation of the ERC1822 {proxiableUUID} function. This returns the storage slot used by the implementation. It is used to validate that the this implementation remains valid after an upgrade. IMPORTANT: A proxy pointing at a proxiable contract should not be considered proxiable itself, because this risks bricking a proxy that upgrades to it, by delegating to itself until out of gas. Thus it is critical that this function revert if invoked through a proxy. This is guaranteed by the `notDelegated` modifier."
      },
      "upgradeTo(address)": {
        "details": "Upgrade the implementation of the proxy to `newImplementation`. Calls {_authorizeUpgrade}. Emits an {Upgraded} event."
      },
      "upgradeToAndCall(address,bytes)": {
        "details": "Upgrade the implementation of the proxy to `newImplementation`, and subsequently execute the function call encoded in `data`. Calls {_authorizeUpgrade}. Emits an {Upgraded} event."
      }
    },
    "version": 1
  },
  "userdoc": {
    "kind": "user",
    "methods": {},
    "version": 1
  }
}