{
  "contractName": "UUPSUpgradeableLegacyMock",
  "abi": [
    {
      "anonymous": false,
      "inputs": [
        {
          "indexed": false,
          "internalType": "address",
          "name": "previousAdmin",
          "type": "address"
        },
        {
          "indexed": false,
          "internalType": "address",
          "name": "newAdmin",
          "type": "address"
        }
      ],
      "name": "AdminChanged",
      "type": "event"
    },
    {
      "anonymous": false,
      "inputs": [
        {
          "indexed": true,
          "internalType": "address",
          "name": "beacon",
          "type": "address"
        }
      ],
      "name": "BeaconUpgraded",
      "type": "event"
    },
    {
      "anonymous": false,
      "inputs": [
        {
          "indexed": true,
          "internalType": "address",
          "name": "implementation",
          "type": "address"
        }
      ],
      "name": "Upgraded",
      "type": "event"
    },
    {
      "inputs": [],
      "name": "current",
      "outputs": [
        {
          "internalType": "uint256",
          "name": "",
          "type": "uint256"
        }
      ],
      "stateMutability": "view",
      "type": "function"
    },
    {
      "inputs": [],
      "name": "decrement",
      "outputs": [],
      "stateMutability": "nonpayable",
      "type": "function"
    },
    {
      "inputs": [],
      "name": "increment",
      "outputs": [],
      "stateMutability": "nonpayable",
      "type": "function"
    },
    {
      "inputs": [],
      "name": "proxiableUUID",
      "outputs": [
        {
          "internalType": "bytes32",
          "name": "",
          "type": "bytes32"
        }
      ],
      "stateMutability": "view",
      "type": "function"
    },
    {
      "inputs": [],
      "name": "reset",
      "outputs": [],
      "stateMutability": "nonpayable",
      "type": "function"
    },
    {
      "inputs": [
        {
          "internalType": "address",
          "name": "newImplementation",
          "type": "address"
        }
      ],
      "name": "upgradeTo",
      "outputs": [],
      "stateMutability": "nonpayable",
      "type": "function"
    },
    {
      "inputs": [
        {
          "internalType": "address",
          "name": "newImplementation",
          "type": "address"
        },
        {
          "internalType": "bytes",
          "name": "data",
          "type": "bytes"
        }
      ],
      "name": "upgradeToAndCall",
      "outputs": [],
      "stateMutability": "payable",
      "type": "function"
    }
  ],
  "bytecode": "0x60a06040523060805234801561001457600080fd5b50608051610815610030600039600061015c01526108156000f3fe6080604052600436106100605760003560e01c80632baeceb7146100655780633659cfe61461007c5780634f1ef2861461009c57806352d1902d146100af5780639fa6a6e3146100d6578063d09de08a146100eb578063d826f88f14610100575b600080fd5b34801561007157600080fd5b5061007a610115565b005b34801561008857600080fd5b5061007a610097366004610627565b610121565b61007a6100aa366004610658565b61013f565b3480156100bb57600080fd5b506100c461014f565b60405190815260200160405180910390f35b3480156100e257600080fd5b506000546100c4565b3480156100f757600080fd5b5061007a610202565b34801561010c57600080fd5b5061007a610210565b61011f6000610219565b565b61013c8160405180602001604052806000815250600061026e565b50565b61014b8282600061026e565b5050565b6000306001600160a01b037f000000000000000000000000000000000000000000000000000000000000000016146101ef5760405162461bcd60e51b815260206004820152603860248201527f555550535570677261646561626c653a206d757374206e6f742062652063616c6044820152771b1959081d1a1c9bdd59da0819195b1959d85d1958d85b1b60421b60648201526084015b60405180910390fd5b5060008051602061079983398151915290565b61011f600080546001019055565b61011f60008055565b8054806102665760405162461bcd60e51b815260206004820152601b60248201527a436f756e7465723a2064656372656d656e74206f766572666c6f7760281b60448201526064016101e6565b600019019055565b60006102786103b9565b9050610283846103d5565b6000835111806102905750815b156102a15761029f848461046f565b505b7f4910fdfa16fed3260ed0e7147f7cc6da11a60208b5b9406d12a635614ffd9143805460ff166103b257805460ff191660011781556040516001600160a01b038316602482015261032090869060440160408051601f198184030181529190526020810180516001600160e01b0316631b2ce7f360e11b17905261046f565b50805460ff191681556103316103b9565b6001600160a01b0316826001600160a01b0316146103a95760405162461bcd60e51b815260206004820152602f60248201527f45524331393637557067726164653a207570677261646520627265616b73206660448201526e75727468657220757067726164657360881b60648201526084016101e6565b6103b28561049b565b5050505050565b600080516020610799833981519152546001600160a01b031690565b6103de816104db565b6104405760405162461bcd60e51b815260206004820152602d60248201527f455243313936373a206e657720696d706c656d656e746174696f6e206973206e60448201526c1bdd08184818dbdb9d1c9858dd609a1b60648201526084016101e6565b60008051602061079983398151915280546001600160a01b0319166001600160a01b0392909216919091179055565b606061049483836040518060600160405280602781526020016107b9602791396104ea565b9392505050565b6104a4816103d5565b6040516001600160a01b038216907fbc7cd75a20ee27fd9adebab32041f755214dbc6bffa90cc0225b39da2e5c2d3b90600090a250565b6001600160a01b03163b151590565b6060600080856001600160a01b0316856040516105079190610749565b600060405180830381855af49150503d8060008114610542576040519150601f19603f3d011682016040523d82523d6000602084013e610547565b606091505b509150915061055886838387610562565b9695505050505050565b606083156105cf5782516000036105c85761057c856104db565b6105c85760405162461bcd60e51b815260206004820152601d60248201527f416464726573733a2063616c6c20746f206e6f6e2d636f6e747261637400000060448201526064016101e6565b50816105d9565b6105d983836105e1565b949350505050565b8151156105f15781518083602001fd5b8060405162461bcd60e51b81526004016101e69190610765565b80356001600160a01b038116811461062257600080fd5b919050565b60006020828403121561063957600080fd5b6104948261060b565b634e487b7160e01b600052604160045260246000fd5b6000806040838503121561066b57600080fd5b6106748361060b565b915060208301356001600160401b038082111561069057600080fd5b818501915085601f8301126106a457600080fd5b8135818111156106b6576106b6610642565b604051601f8201601f19908116603f011681019083821181831017156106de576106de610642565b816040528281528860208487010111156106f757600080fd5b8260208601602083013760006020848301015280955050505050509250929050565b60005b8381101561073457818101518382015260200161071c565b83811115610743576000848401525b50505050565b6000825161075b818460208701610719565b9190910192915050565b6020815260008251806020840152610784816040850160208701610719565b601f01601f1916919091016040019291505056fe360894a13ba1a3210667c828492db98dca3e2076cc3735a920a3ca505d382bbc416464726573733a206c6f772d6c6576656c2064656c65676174652063616c6c206661696c6564a264697066735822122083f483ef797dc6a993208392dd8fd8790f9040d543b8c980d2ac547ad092e80964736f6c634300080e0033",
  "immutableReferences": {
    "21274": [
      {
        "length": 32,
        "start": 348
      }
    ]
  },
  "source": "// SPDX-License-Identifier: MIT\r\n\r\npragma solidity ^0.8.0;\r\n\r\nimport \"./UUPSUpgradeableMock.sol\";\r\n\r\n// This contract implements the pre-4.5 UUPS upgrade function with a rollback test.\r\n// It's used to test that newer UUPS contracts are considered valid upgrades by older UUPS contracts.\r\ncontract UUPSUpgradeableLegacyMock is UUPSUpgradeableMock {\r\n    // Inlined from ERC1967Upgrade\r\n    bytes32 private constant _ROLLBACK_SLOT = 0x4910fdfa16fed3260ed0e7147f7cc6da11a60208b5b9406d12a635614ffd9143;\r\n\r\n    // ERC1967Upgrade._setImplementation is private so we reproduce it here.\r\n    // An extra underscore prevents a name clash error.\r\n    function __setImplementation(address newImplementation) private {\r\n        require(Address.isContract(newImplementation), \"ERC1967: new implementation is not a contract\");\r\n        StorageSlot.getAddressSlot(_IMPLEMENTATION_SLOT).value = newImplementation;\r\n    }\r\n\r\n    function _upgradeToAndCallSecureLegacyV1(\r\n        address newImplementation,\r\n        bytes memory data,\r\n        bool forceCall\r\n    ) internal {\r\n        address oldImplementation = _getImplementation();\r\n\r\n        // Initial upgrade and setup call\r\n        __setImplementation(newImplementation);\r\n        if (data.length > 0 || forceCall) {\r\n            Address.functionDelegateCall(newImplementation, data);\r\n        }\r\n\r\n        // Perform rollback test if not already in progress\r\n        StorageSlot.BooleanSlot storage rollbackTesting = StorageSlot.getBooleanSlot(_ROLLBACK_SLOT);\r\n        if (!rollbackTesting.value) {\r\n            // Trigger rollback using upgradeTo from the new implementation\r\n            rollbackTesting.value = true;\r\n            Address.functionDelegateCall(\r\n                newImplementation,\r\n                abi.encodeWithSignature(\"upgradeTo(address)\", oldImplementation)\r\n            );\r\n            rollbackTesting.value = false;\r\n            // Check rollback was effective\r\n            require(oldImplementation == _getImplementation(), \"ERC1967Upgrade: upgrade breaks further upgrades\");\r\n            // Finally reset to the new implementation and log the upgrade\r\n            _upgradeTo(newImplementation);\r\n        }\r\n    }\r\n\r\n    // hooking into the old mechanism\r\n    function upgradeTo(address newImplementation) external virtual override {\r\n        _upgradeToAndCallSecureLegacyV1(newImplementation, bytes(\"\"), false);\r\n    }\r\n\r\n    function upgradeToAndCall(address newImplementation, bytes memory data) external payable virtual override {\r\n        _upgradeToAndCallSecureLegacyV1(newImplementation, data, false);\r\n    }\r\n}\r\n",
  "sourcePath": "D:\\work\\www\\yopu_dapp_nft\\contracts\\lib\\openzeppelin\\contracts\\mocks\\UUPS\\UUPSLegacy.sol",
  "compiler": {
    "name": "solc",
    "version": "0.8.14+commit.80d49f37.Emscripten.clang"
  },
  "schemaVersion": "3.4.7",
  "updatedAt": "2022-06-28T15:05:48.274Z",
  "devdoc": {
    "kind": "dev",
    "methods": {
      "proxiableUUID()": {
        "details": "Implementation of the ERC1822 {proxiableUUID} function. This returns the storage slot used by the implementation. It is used to validate that the this implementation remains valid after an upgrade. IMPORTANT: A proxy pointing at a proxiable contract should not be considered proxiable itself, because this risks bricking a proxy that upgrades to it, by delegating to itself until out of gas. Thus it is critical that this function revert if invoked through a proxy. This is guaranteed by the `notDelegated` modifier."
      },
      "upgradeTo(address)": {
        "details": "Upgrade the implementation of the proxy to `newImplementation`. Calls {_authorizeUpgrade}. Emits an {Upgraded} event."
      },
      "upgradeToAndCall(address,bytes)": {
        "details": "Upgrade the implementation of the proxy to `newImplementation`, and subsequently execute the function call encoded in `data`. Calls {_authorizeUpgrade}. Emits an {Upgraded} event."
      }
    },
    "version": 1
  },
  "userdoc": {
    "kind": "user",
    "methods": {},
    "version": 1
  }
}