{
  "contractName": "VotesMock",
  "abi": [
    {
      "inputs": [
        {
          "internalType": "string",
          "name": "name",
          "type": "string"
        }
      ],
      "stateMutability": "nonpayable",
      "type": "constructor"
    },
    {
      "anonymous": false,
      "inputs": [
        {
          "indexed": true,
          "internalType": "address",
          "name": "delegator",
          "type": "address"
        },
        {
          "indexed": true,
          "internalType": "address",
          "name": "fromDelegate",
          "type": "address"
        },
        {
          "indexed": true,
          "internalType": "address",
          "name": "toDelegate",
          "type": "address"
        }
      ],
      "name": "DelegateChanged",
      "type": "event"
    },
    {
      "anonymous": false,
      "inputs": [
        {
          "indexed": true,
          "internalType": "address",
          "name": "delegate",
          "type": "address"
        },
        {
          "indexed": false,
          "internalType": "uint256",
          "name": "previousBalance",
          "type": "uint256"
        },
        {
          "indexed": false,
          "internalType": "uint256",
          "name": "newBalance",
          "type": "uint256"
        }
      ],
      "name": "DelegateVotesChanged",
      "type": "event"
    },
    {
      "inputs": [],
      "name": "DOMAIN_SEPARATOR",
      "outputs": [
        {
          "internalType": "bytes32",
          "name": "",
          "type": "bytes32"
        }
      ],
      "stateMutability": "view",
      "type": "function"
    },
    {
      "inputs": [
        {
          "internalType": "address",
          "name": "delegatee",
          "type": "address"
        },
        {
          "internalType": "uint256",
          "name": "nonce",
          "type": "uint256"
        },
        {
          "internalType": "uint256",
          "name": "expiry",
          "type": "uint256"
        },
        {
          "internalType": "uint8",
          "name": "v",
          "type": "uint8"
        },
        {
          "internalType": "bytes32",
          "name": "r",
          "type": "bytes32"
        },
        {
          "internalType": "bytes32",
          "name": "s",
          "type": "bytes32"
        }
      ],
      "name": "delegateBySig",
      "outputs": [],
      "stateMutability": "nonpayable",
      "type": "function"
    },
    {
      "inputs": [
        {
          "internalType": "address",
          "name": "account",
          "type": "address"
        }
      ],
      "name": "delegates",
      "outputs": [
        {
          "internalType": "address",
          "name": "",
          "type": "address"
        }
      ],
      "stateMutability": "view",
      "type": "function"
    },
    {
      "inputs": [
        {
          "internalType": "uint256",
          "name": "blockNumber",
          "type": "uint256"
        }
      ],
      "name": "getPastTotalSupply",
      "outputs": [
        {
          "internalType": "uint256",
          "name": "",
          "type": "uint256"
        }
      ],
      "stateMutability": "view",
      "type": "function"
    },
    {
      "inputs": [
        {
          "internalType": "address",
          "name": "account",
          "type": "address"
        },
        {
          "internalType": "uint256",
          "name": "blockNumber",
          "type": "uint256"
        }
      ],
      "name": "getPastVotes",
      "outputs": [
        {
          "internalType": "uint256",
          "name": "",
          "type": "uint256"
        }
      ],
      "stateMutability": "view",
      "type": "function"
    },
    {
      "inputs": [
        {
          "internalType": "address",
          "name": "account",
          "type": "address"
        }
      ],
      "name": "getVotes",
      "outputs": [
        {
          "internalType": "uint256",
          "name": "",
          "type": "uint256"
        }
      ],
      "stateMutability": "view",
      "type": "function"
    },
    {
      "inputs": [
        {
          "internalType": "address",
          "name": "owner",
          "type": "address"
        }
      ],
      "name": "nonces",
      "outputs": [
        {
          "internalType": "uint256",
          "name": "",
          "type": "uint256"
        }
      ],
      "stateMutability": "view",
      "type": "function"
    },
    {
      "inputs": [],
      "name": "getTotalSupply",
      "outputs": [
        {
          "internalType": "uint256",
          "name": "",
          "type": "uint256"
        }
      ],
      "stateMutability": "view",
      "type": "function"
    },
    {
      "inputs": [
        {
          "internalType": "address",
          "name": "delegatee",
          "type": "address"
        }
      ],
      "name": "delegate",
      "outputs": [],
      "stateMutability": "nonpayable",
      "type": "function"
    },
    {
      "inputs": [
        {
          "internalType": "address",
          "name": "account",
          "type": "address"
        },
        {
          "internalType": "address",
          "name": "newDelegation",
          "type": "address"
        }
      ],
      "name": "delegate",
      "outputs": [],
      "stateMutability": "nonpayable",
      "type": "function"
    },
    {
      "inputs": [
        {
          "internalType": "address",
          "name": "account",
          "type": "address"
        },
        {
          "internalType": "uint256",
          "name": "voteId",
          "type": "uint256"
        }
      ],
      "name": "mint",
      "outputs": [],
      "stateMutability": "nonpayable",
      "type": "function"
    },
    {
      "inputs": [
        {
          "internalType": "uint256",
          "name": "voteId",
          "type": "uint256"
        }
      ],
      "name": "burn",
      "outputs": [],
      "stateMutability": "nonpayable",
      "type": "function"
    },
    {
      "inputs": [],
      "name": "getChainId",
      "outputs": [
        {
          "internalType": "uint256",
          "name": "",
          "type": "uint256"
        }
      ],
      "stateMutability": "view",
      "type": "function"
    }
  ],
  "bytecode": "0x6101406040523480156200001257600080fd5b50604051620012f4380380620012f483398101604081905262000035916200010f565b60408051808201825260018152603160f81b60209182015282519281019290922060e08190527fc89efdaa54c0f20c7adf612882df0950f5a951637e0307cdcb4c672f298b8bc66101008190524660a081815284517f8b73c3c69bb8fe3d512ecc4cf759cc79239f7b179b0ffacaa9a75d522b39400f818801819052818701959095526060810193909352608080840192909252308382018190528551808503909201825260c09384019095528051950194909420909352915261012052620001eb565b634e487b7160e01b600052604160045260246000fd5b600060208083850312156200012357600080fd5b82516001600160401b03808211156200013b57600080fd5b818501915085601f8301126200015057600080fd5b815181811115620001655762000165620000f9565b604051601f8201601f19908116603f01168101908382118183101715620001905762000190620000f9565b816040528281528886848701011115620001a957600080fd5b600093505b82841015620001cd5784840186015181850187015292850192620001ae565b82841115620001df5760008684830101525b98975050505050505050565b60805160a05160c05160e05161010051610120516110b96200023b6000396000610544015260006105930152600061056e015260006104c7015260006104f10152600061051b01526110b96000f3fe608060405234801561001057600080fd5b50600436106100af5760003560e01c80633408e470146100b45780633644e515146100c95780633a46b1a8146100d157806340c10f19146100e457806342966c68146100f9578063587cde1e1461010c5780635c19a95c146101375780637ecebe001461014a5780638ab656861461015d5780638e539e8c146101705780639ab24eb014610183578063c3cda52014610196578063c4e41b22146101a9575b600080fd5b465b6040519081526020015b60405180910390f35b6100b66101b1565b6100b66100df366004610edf565b6101c0565b6100f76100f2366004610edf565b6101e9565b005b6100f7610107366004610f09565b61024e565b61011f61011a366004610f22565b610298565b6040516001600160a01b0390911681526020016100c0565b6100f7610145366004610f22565b6102b6565b6100b6610158366004610f22565b6102c1565b6100f761016b366004610f3d565b6102e1565b6100b661017e366004610f09565b6102eb565b6100b6610191366004610f22565b610349565b6100f76101a4366004610f70565b61036a565b6100b66104b0565b60006101bb6104ba565b905090565b6001600160a01b03821660009081526001602052604081206101e290836105e1565b9392505050565b6001600160a01b0382166000908152600460205260408120805460019290610212908490610fe6565b9091555050600081815260056020526040812080546001600160a01b0319166001600160a01b03851617905561024a908360016106ef565b5050565b6000818152600560209081526040808320546001600160a01b03168084526004909252822080549192600192610285908490610ffe565b9091555061024a905081600060016106ef565b6001600160a01b039081166000908152602081905260409020541690565b3361024a818361074d565b6001600160a01b0381166000908152600360205260408120545b92915050565b61024a828261074d565b600043821061033e5760405162461bcd60e51b815260206004820152601a602482015279159bdd195cce88189b1bd8dac81b9bdd081e595d081b5a5b995960321b60448201526064015b60405180910390fd5b6102db6002836105e1565b6001600160a01b03811660009081526001602052604081206102db906107de565b834211156103b55760405162461bcd60e51b8152602060048201526018602482015277159bdd195cce881cda59db985d1d5c9948195e1c1a5c995960421b6044820152606401610335565b604080517fe48329057bfd03d55e49b547132e39cffd9c1820ad7b9d4c5307691425d15adf60208201526001600160a01b03881691810191909152606081018690526080810185905260009061042f906104279060a00160405160208183030381529060405280519060200120610839565b858585610887565b9050610458816001600160a01b0316600090815260036020526040902080546001810190915590565b861461049d5760405162461bcd60e51b8152602060048201526014602482015273566f7465733a20696e76616c6964206e6f6e636560601b6044820152606401610335565b6104a7818861074d565b50505050505050565b60006101bb6108af565b6000306001600160a01b037f00000000000000000000000000000000000000000000000000000000000000001614801561051357507f000000000000000000000000000000000000000000000000000000000000000046145b1561053d57507f000000000000000000000000000000000000000000000000000000000000000090565b50604080517f00000000000000000000000000000000000000000000000000000000000000006020808301919091527f0000000000000000000000000000000000000000000000000000000000000000828401527f000000000000000000000000000000000000000000000000000000000000000060608301524660808301523060a0808401919091528351808403909101815260c0909201909252805191012090565b60004382106106325760405162461bcd60e51b815260206004820181905260248201527f436865636b706f696e74733a20626c6f636b206e6f7420796574206d696e65646044820152606401610335565b825460005b8181101561069757600061064b82846108bb565b90508486600001828154811061066357610663611015565b60009182526020909120015463ffffffff16111561068357809250610691565b61068e816001610fe6565b91505b50610637565b81156106da57846106a9600184610ffe565b815481106106b9576106b9611015565b600091825260209091200154600160201b90046001600160e01b03166106dd565b60005b6001600160e01b031695945050505050565b6001600160a01b03831661070e5761070b60026108d6836108e2565b50505b6001600160a01b03821661072d5761072a6002610910836108e2565b50505b61074861073984610298565b61074284610298565b8361091c565b505050565b600061075883610298565b6001600160a01b0384811660008181526020819052604080822080546001600160a01b031916888616908117909155905194955093928516927f3134e8a2e6d97e929a7e54011ea5485d7d196dd5f0ba4d4ef95803e8e3fc257f9190a461074881836107d9866001600160a01b031660009081526004602052604090205490565b61091c565b8054600090801561082657826107f5600183610ffe565b8154811061080557610805611015565b600091825260209091200154600160201b90046001600160e01b0316610829565b60005b6001600160e01b03169392505050565b60006102db6108466104ba565b8360405161190160f01b6020820152602281018390526042810182905260009060620160405160208183030381529060405280519060200120905092915050565b600080600061089887878787610a35565b915091506108a581610b18565b5095945050505050565b60006101bb60026107de565b60006108ca600284841861102b565b6101e290848416610fe6565b60006101e28284610fe6565b600080610904856108ff6108f5886107de565b868863ffffffff16565b610ccc565b91509150935093915050565b60006101e28284610ffe565b816001600160a01b0316836001600160a01b03161415801561093e5750600081115b15610748576001600160a01b038316156109ba576001600160a01b0383166000908152600160205260408120819061097990610910856108e2565b91509150846001600160a01b031660008051602061106483398151915283836040516109af929190918252602082015260400190565b60405180910390a250505b6001600160a01b03821615610748576001600160a01b038216600090815260016020526040812081906109f0906108d6856108e2565b91509150836001600160a01b03166000805160206110648339815191528383604051610a26929190918252602082015260400190565b60405180910390a25050505050565b6000806fa2a8918ca85bafe22016d0b997e4df60600160ff1b03831115610a625750600090506003610b0f565b8460ff16601b14158015610a7a57508460ff16601c14155b15610a8b5750600090506004610b0f565b6040805160008082526020820180845289905260ff881692820192909252606081018690526080810185905260019060a0016020604051602081039080840390855afa158015610adf573d6000803e3d6000fd5b5050604051601f1901519150506001600160a01b038116610b0857600060019250925050610b0f565b9150600090505b94509492505050565b6000816004811115610b2c57610b2c61104d565b03610b345750565b6001816004811115610b4857610b4861104d565b03610b905760405162461bcd60e51b815260206004820152601860248201527745434453413a20696e76616c6964207369676e617475726560401b6044820152606401610335565b6002816004811115610ba457610ba461104d565b03610bf15760405162461bcd60e51b815260206004820152601f60248201527f45434453413a20696e76616c6964207369676e6174757265206c656e677468006044820152606401610335565b6003816004811115610c0557610c0561104d565b03610c5d5760405162461bcd60e51b815260206004820152602260248201527f45434453413a20696e76616c6964207369676e6174757265202773272076616c604482015261756560f01b6064820152608401610335565b6004816004811115610c7157610c7161104d565b03610cc95760405162461bcd60e51b815260206004820152602260248201527f45434453413a20696e76616c6964207369676e6174757265202776272076616c604482015261756560f01b6064820152608401610335565b50565b8154600090819081610cdd866107de565b9050600082118015610d1b57504386610cf7600185610ffe565b81548110610d0757610d07611015565b60009182526020909120015463ffffffff16145b15610d7b57610d2985610df1565b86610d35600185610ffe565b81548110610d4557610d45611015565b9060005260206000200160000160046101000a8154816001600160e01b0302191690836001600160e01b03160217905550610de8565b856000016040518060400160405280610d9343610e5e565b63ffffffff168152602001610da788610df1565b6001600160e01b039081169091528254600181018455600093845260209384902083519490930151909116600160201b0263ffffffff909316929092179101555b95939450505050565b60006001600160e01b03821115610e5a5760405162461bcd60e51b815260206004820152602760248201527f53616665436173743a2076616c756520646f65736e27742066697420696e20326044820152663234206269747360c81b6064820152608401610335565b5090565b600063ffffffff821115610e5a5760405162461bcd60e51b815260206004820152602660248201527f53616665436173743a2076616c756520646f65736e27742066697420696e203360448201526532206269747360d01b6064820152608401610335565b80356001600160a01b0381168114610eda57600080fd5b919050565b60008060408385031215610ef257600080fd5b610efb83610ec3565b946020939093013593505050565b600060208284031215610f1b57600080fd5b5035919050565b600060208284031215610f3457600080fd5b6101e282610ec3565b60008060408385031215610f5057600080fd5b610f5983610ec3565b9150610f6760208401610ec3565b90509250929050565b60008060008060008060c08789031215610f8957600080fd5b610f9287610ec3565b95506020870135945060408701359350606087013560ff81168114610fb657600080fd5b9598949750929560808101359460a0909101359350915050565b634e487b7160e01b600052601160045260246000fd5b60008219821115610ff957610ff9610fd0565b500190565b60008282101561101057611010610fd0565b500390565b634e487b7160e01b600052603260045260246000fd5b60008261104857634e487b7160e01b600052601260045260246000fd5b500490565b634e487b7160e01b600052602160045260246000fdfedec2bacdd2f05b59de34da9b523dff8be42e5e38e818c82fdb0bae774387a724a2646970667358221220903eb9c8365b87329d1aed6a8b4d46dcbec7aee09a8d6b6d89984e0f80228ca464736f6c634300080e0033",
  "immutableReferences": {
    "33049": [
      {
        "length": 32,
        "start": 1307
      }
    ],
    "33051": [
      {
        "length": 32,
        "start": 1265
      }
    ],
    "33053": [
      {
        "length": 32,
        "start": 1223
      }
    ],
    "33055": [
      {
        "length": 32,
        "start": 1390
      }
    ],
    "33057": [
      {
        "length": 32,
        "start": 1427
      }
    ],
    "33059": [
      {
        "length": 32,
        "start": 1348
      }
    ]
  },
  "source": "// SPDX-License-Identifier: MIT\r\n\r\npragma solidity ^0.8.0;\r\n\r\nimport \"../governance/utils/Votes.sol\";\r\n\r\ncontract VotesMock is Votes {\r\n    mapping(address => uint256) private _balances;\r\n    mapping(uint256 => address) private _owners;\r\n\r\n    constructor(string memory name) EIP712(name, \"1\") {}\r\n\r\n    function getTotalSupply() public view returns (uint256) {\r\n        return _getTotalSupply();\r\n    }\r\n\r\n    function delegate(address account, address newDelegation) public {\r\n        return _delegate(account, newDelegation);\r\n    }\r\n\r\n    function _getVotingUnits(address account) internal view virtual override returns (uint256) {\r\n        return _balances[account];\r\n    }\r\n\r\n    function mint(address account, uint256 voteId) external {\r\n        _balances[account] += 1;\r\n        _owners[voteId] = account;\r\n        _transferVotingUnits(address(0), account, 1);\r\n    }\r\n\r\n    function burn(uint256 voteId) external {\r\n        address owner = _owners[voteId];\r\n        _balances[owner] -= 1;\r\n        _transferVotingUnits(owner, address(0), 1);\r\n    }\r\n\r\n    function getChainId() external view returns (uint256) {\r\n        return block.chainid;\r\n    }\r\n}\r\n",
  "sourcePath": "D:\\work\\www\\yopu_dapp_nft\\contracts\\lib\\openzeppelin\\contracts\\mocks\\VotesMock.sol",
  "compiler": {
    "name": "solc",
    "version": "0.8.14+commit.80d49f37.Emscripten.clang"
  },
  "schemaVersion": "3.4.7",
  "updatedAt": "2022-06-28T15:05:48.294Z",
  "devdoc": {
    "kind": "dev",
    "methods": {
      "DOMAIN_SEPARATOR()": {
        "details": "Returns the contract's {EIP712} domain separator."
      },
      "delegate(address)": {
        "details": "Delegates votes from the sender to `delegatee`."
      },
      "delegateBySig(address,uint256,uint256,uint8,bytes32,bytes32)": {
        "details": "Delegates votes from signer to `delegatee`."
      },
      "delegates(address)": {
        "details": "Returns the delegate that `account` has chosen."
      },
      "getPastTotalSupply(uint256)": {
        "details": "Returns the total supply of votes available at the end of a past block (`blockNumber`). NOTE: This value is the sum of all available votes, which is not necessarily the sum of all delegated votes. Votes that have not been delegated are still part of total supply, even though they would not participate in a vote. Requirements: - `blockNumber` must have been already mined"
      },
      "getPastVotes(address,uint256)": {
        "details": "Returns the amount of votes that `account` had at the end of a past block (`blockNumber`). Requirements: - `blockNumber` must have been already mined"
      },
      "getVotes(address)": {
        "details": "Returns the current amount of votes that `account` has."
      },
      "nonces(address)": {
        "details": "Returns an address nonce."
      }
    },
    "version": 1
  },
  "userdoc": {
    "kind": "user",
    "methods": {},
    "version": 1
  }
}