{
  "contractName": "YopuToken",
  "abi": [
    {
      "inputs": [],
      "stateMutability": "nonpayable",
      "type": "constructor"
    },
    {
      "anonymous": false,
      "inputs": [
        {
          "indexed": true,
          "internalType": "address",
          "name": "owner",
          "type": "address"
        },
        {
          "indexed": true,
          "internalType": "address",
          "name": "approved",
          "type": "address"
        },
        {
          "indexed": true,
          "internalType": "uint256",
          "name": "tokenId",
          "type": "uint256"
        }
      ],
      "name": "Approval",
      "type": "event"
    },
    {
      "anonymous": false,
      "inputs": [
        {
          "indexed": true,
          "internalType": "address",
          "name": "owner",
          "type": "address"
        },
        {
          "indexed": true,
          "internalType": "address",
          "name": "operator",
          "type": "address"
        },
        {
          "indexed": false,
          "internalType": "bool",
          "name": "approved",
          "type": "bool"
        }
      ],
      "name": "ApprovalForAll",
      "type": "event"
    },
    {
      "anonymous": false,
      "inputs": [
        {
          "indexed": true,
          "internalType": "address",
          "name": "previousOwner",
          "type": "address"
        },
        {
          "indexed": true,
          "internalType": "address",
          "name": "newOwner",
          "type": "address"
        }
      ],
      "name": "OwnershipTransferred",
      "type": "event"
    },
    {
      "anonymous": false,
      "inputs": [
        {
          "indexed": false,
          "internalType": "address",
          "name": "account",
          "type": "address"
        }
      ],
      "name": "Paused",
      "type": "event"
    },
    {
      "anonymous": false,
      "inputs": [
        {
          "indexed": true,
          "internalType": "address",
          "name": "from",
          "type": "address"
        },
        {
          "indexed": true,
          "internalType": "address",
          "name": "to",
          "type": "address"
        },
        {
          "indexed": true,
          "internalType": "uint256",
          "name": "tokenId",
          "type": "uint256"
        }
      ],
      "name": "Transfer",
      "type": "event"
    },
    {
      "anonymous": false,
      "inputs": [
        {
          "indexed": false,
          "internalType": "address",
          "name": "account",
          "type": "address"
        }
      ],
      "name": "Unpaused",
      "type": "event"
    },
    {
      "inputs": [
        {
          "internalType": "address",
          "name": "to",
          "type": "address"
        },
        {
          "internalType": "uint256",
          "name": "tokenId",
          "type": "uint256"
        }
      ],
      "name": "approve",
      "outputs": [],
      "stateMutability": "nonpayable",
      "type": "function"
    },
    {
      "inputs": [
        {
          "internalType": "address",
          "name": "owner",
          "type": "address"
        }
      ],
      "name": "balanceOf",
      "outputs": [
        {
          "internalType": "uint256",
          "name": "",
          "type": "uint256"
        }
      ],
      "stateMutability": "view",
      "type": "function",
      "constant": true
    },
    {
      "inputs": [
        {
          "internalType": "uint256",
          "name": "tokenId",
          "type": "uint256"
        }
      ],
      "name": "burn",
      "outputs": [],
      "stateMutability": "nonpayable",
      "type": "function"
    },
    {
      "inputs": [
        {
          "internalType": "uint256",
          "name": "tokenId",
          "type": "uint256"
        }
      ],
      "name": "getApproved",
      "outputs": [
        {
          "internalType": "address",
          "name": "",
          "type": "address"
        }
      ],
      "stateMutability": "view",
      "type": "function",
      "constant": true
    },
    {
      "inputs": [
        {
          "internalType": "address",
          "name": "owner",
          "type": "address"
        },
        {
          "internalType": "address",
          "name": "operator",
          "type": "address"
        }
      ],
      "name": "isApprovedForAll",
      "outputs": [
        {
          "internalType": "bool",
          "name": "",
          "type": "bool"
        }
      ],
      "stateMutability": "view",
      "type": "function",
      "constant": true
    },
    {
      "inputs": [],
      "name": "name",
      "outputs": [
        {
          "internalType": "string",
          "name": "",
          "type": "string"
        }
      ],
      "stateMutability": "view",
      "type": "function",
      "constant": true
    },
    {
      "inputs": [],
      "name": "owner",
      "outputs": [
        {
          "internalType": "address",
          "name": "",
          "type": "address"
        }
      ],
      "stateMutability": "view",
      "type": "function",
      "constant": true
    },
    {
      "inputs": [
        {
          "internalType": "uint256",
          "name": "tokenId",
          "type": "uint256"
        }
      ],
      "name": "ownerOf",
      "outputs": [
        {
          "internalType": "address",
          "name": "",
          "type": "address"
        }
      ],
      "stateMutability": "view",
      "type": "function",
      "constant": true
    },
    {
      "inputs": [],
      "name": "paused",
      "outputs": [
        {
          "internalType": "bool",
          "name": "",
          "type": "bool"
        }
      ],
      "stateMutability": "view",
      "type": "function",
      "constant": true
    },
    {
      "inputs": [],
      "name": "renounceOwnership",
      "outputs": [],
      "stateMutability": "nonpayable",
      "type": "function"
    },
    {
      "inputs": [
        {
          "internalType": "address",
          "name": "from",
          "type": "address"
        },
        {
          "internalType": "address",
          "name": "to",
          "type": "address"
        },
        {
          "internalType": "uint256",
          "name": "tokenId",
          "type": "uint256"
        }
      ],
      "name": "safeTransferFrom",
      "outputs": [],
      "stateMutability": "nonpayable",
      "type": "function"
    },
    {
      "inputs": [
        {
          "internalType": "address",
          "name": "from",
          "type": "address"
        },
        {
          "internalType": "address",
          "name": "to",
          "type": "address"
        },
        {
          "internalType": "uint256",
          "name": "tokenId",
          "type": "uint256"
        },
        {
          "internalType": "bytes",
          "name": "data",
          "type": "bytes"
        }
      ],
      "name": "safeTransferFrom",
      "outputs": [],
      "stateMutability": "nonpayable",
      "type": "function"
    },
    {
      "inputs": [
        {
          "internalType": "address",
          "name": "operator",
          "type": "address"
        },
        {
          "internalType": "bool",
          "name": "approved",
          "type": "bool"
        }
      ],
      "name": "setApprovalForAll",
      "outputs": [],
      "stateMutability": "nonpayable",
      "type": "function"
    },
    {
      "inputs": [
        {
          "internalType": "bytes4",
          "name": "interfaceId",
          "type": "bytes4"
        }
      ],
      "name": "supportsInterface",
      "outputs": [
        {
          "internalType": "bool",
          "name": "",
          "type": "bool"
        }
      ],
      "stateMutability": "view",
      "type": "function",
      "constant": true
    },
    {
      "inputs": [],
      "name": "symbol",
      "outputs": [
        {
          "internalType": "string",
          "name": "",
          "type": "string"
        }
      ],
      "stateMutability": "view",
      "type": "function",
      "constant": true
    },
    {
      "inputs": [
        {
          "internalType": "address",
          "name": "from",
          "type": "address"
        },
        {
          "internalType": "address",
          "name": "to",
          "type": "address"
        },
        {
          "internalType": "uint256",
          "name": "tokenId",
          "type": "uint256"
        }
      ],
      "name": "transferFrom",
      "outputs": [],
      "stateMutability": "nonpayable",
      "type": "function"
    },
    {
      "inputs": [
        {
          "internalType": "address",
          "name": "newOwner",
          "type": "address"
        }
      ],
      "name": "transferOwnership",
      "outputs": [],
      "stateMutability": "nonpayable",
      "type": "function"
    },
    {
      "inputs": [],
      "name": "pause",
      "outputs": [],
      "stateMutability": "nonpayable",
      "type": "function"
    },
    {
      "inputs": [],
      "name": "unpause",
      "outputs": [],
      "stateMutability": "nonpayable",
      "type": "function"
    },
    {
      "inputs": [
        {
          "internalType": "address",
          "name": "to",
          "type": "address"
        },
        {
          "internalType": "string",
          "name": "uri",
          "type": "string"
        }
      ],
      "name": "safeMint",
      "outputs": [],
      "stateMutability": "nonpayable",
      "type": "function"
    },
    {
      "inputs": [
        {
          "internalType": "uint256",
          "name": "tokenId",
          "type": "uint256"
        }
      ],
      "name": "tokenURI",
      "outputs": [
        {
          "internalType": "string",
          "name": "",
          "type": "string"
        }
      ],
      "stateMutability": "view",
      "type": "function",
      "constant": true
    }
  ],
  "bytecode": "0x60806040523480156200001157600080fd5b5060408051808201825260098152682cb7b83aaa37b5b2b760b91b60208083019182528351808501909452600384526216541560ea1b9084015281519192916200005e91600091620000ec565b50805162000074906001906020840190620000ec565b50506007805460ff19169055506200008c3362000092565b620001ce565b600780546001600160a01b03838116610100818102610100600160a81b031985161790945560405193909204169182907f8be0079c531659141344cd1fd0a4f28419497f9722a3daafe3b4186f6b6457e090600090a35050565b828054620000fa9062000192565b90600052602060002090601f0160209004810192826200011e576000855562000169565b82601f106200013957805160ff191683800117855562000169565b8280016001018555821562000169579182015b82811115620001695782518255916020019190600101906200014c565b50620001779291506200017b565b5090565b5b808211156200017757600081556001016200017c565b600181811c90821680620001a757607f821691505b602082108103620001c857634e487b7160e01b600052602260045260246000fd5b50919050565b6119f580620001de6000396000f3fe608060405234801561001057600080fd5b50600436106101075760003560e01c806301ffc9a71461010c57806306fdde0314610134578063081812fc14610149578063095ea7b31461016957806323b872dd1461017e5780633f4ba83a1461019157806342842e0e1461019957806342966c68146101ac5780635c975abb146101bf5780636352211e146101ca57806370a08231146101dd578063715018a6146101fe5780638456cb59146102065780638da5cb5b1461020e57806395d89b4114610216578063a22cb4651461021e578063b88d4fde14610231578063c87b56dd14610244578063d204c45e14610257578063e985e9c51461026a578063f2fde38b1461027d575b600080fd5b61011f61011a366004611430565b610290565b60405190151581526020015b60405180910390f35b61013c6102e2565b60405161012b91906114a5565b61015c6101573660046114b8565b610374565b60405161012b91906114d1565b61017c610177366004611501565b61039b565b005b61017c61018c36600461152b565b6104b5565b61017c6104e7565b61017c6101a736600461152b565b6104f9565b61017c6101ba3660046114b8565b610514565b60075460ff1661011f565b61015c6101d83660046114b8565b610545565b6101f06101eb366004611567565b61057a565b60405190815260200161012b565b61017c610600565b61017c610612565b61015c610622565b61013c610636565b61017c61022c366004611582565b610645565b61017c61023f366004611649565b610654565b61013c6102523660046114b8565b61068c565b61017c6102653660046116c4565b610697565b61011f610278366004611725565b6106ce565b61017c61028b366004611567565b6106fc565b60006001600160e01b031982166380ac58cd60e01b14806102c157506001600160e01b03198216635b5e139f60e01b145b806102dc57506301ffc9a760e01b6001600160e01b03198316145b92915050565b6060600080546102f190611758565b80601f016020809104026020016040519081016040528092919081815260200182805461031d90611758565b801561036a5780601f1061033f5761010080835404028352916020019161036a565b820191906000526020600020905b81548152906001019060200180831161034d57829003601f168201915b5050505050905090565b600061037f82610772565b506000908152600460205260409020546001600160a01b031690565b60006103a682610545565b9050806001600160a01b0316836001600160a01b0316036104185760405162461bcd60e51b815260206004820152602160248201527f4552433732313a20617070726f76616c20746f2063757272656e74206f776e656044820152603960f91b60648201526084015b60405180910390fd5b336001600160a01b0382161480610434575061043481336106ce565b6104a65760405162461bcd60e51b815260206004820152603e60248201527f4552433732313a20617070726f76652063616c6c6572206973206e6f7420746f60448201527f6b656e206f776e6572206e6f7220617070726f76656420666f7220616c6c0000606482015260840161040f565b6104b08383610797565b505050565b6104c0335b82610805565b6104dc5760405162461bcd60e51b815260040161040f90611792565b6104b0838383610864565b6104ef6109f9565b6104f7610a58565b565b6104b083838360405180602001604052806000815250610654565b61051d336104ba565b6105395760405162461bcd60e51b815260040161040f90611792565b61054281610aa4565b50565b6000818152600260205260408120546001600160a01b0316806102dc5760405162461bcd60e51b815260040161040f906117e0565b60006001600160a01b0382166105e45760405162461bcd60e51b815260206004820152602960248201527f4552433732313a2061646472657373207a65726f206973206e6f7420612076616044820152683634b21037bbb732b960b91b606482015260840161040f565b506001600160a01b031660009081526003602052604090205490565b6106086109f9565b6104f76000610aad565b61061a6109f9565b6104f7610b07565b60075461010090046001600160a01b031690565b6060600180546102f190611758565b610650338383610b44565b5050565b61065e3383610805565b61067a5760405162461bcd60e51b815260040161040f90611792565b61068684848484610c0e565b50505050565b60606102dc82610c41565b61069f6109f9565b60006106aa60085490565b90506106ba600880546001019055565b6106c48382610d49565b6104b08183610d63565b6001600160a01b03918216600090815260056020908152604080832093909416825291909152205460ff1690565b6107046109f9565b6001600160a01b0381166107695760405162461bcd60e51b815260206004820152602660248201527f4f776e61626c653a206e6577206f776e657220697320746865207a65726f206160448201526564647265737360d01b606482015260840161040f565b61054281610aad565b61077b81610dee565b6105425760405162461bcd60e51b815260040161040f906117e0565b600081815260046020526040902080546001600160a01b0319166001600160a01b03841690811790915581906107cc82610545565b6001600160a01b03167f8c5be1e5ebec7d5bd14f71427d1e84f3dd0314c0f7b2291e5b200ac8c7c3b92560405160405180910390a45050565b60008061081183610545565b9050806001600160a01b0316846001600160a01b03161480610838575061083881856106ce565b8061085c5750836001600160a01b031661085184610374565b6001600160a01b0316145b949350505050565b826001600160a01b031661087782610545565b6001600160a01b0316146108db5760405162461bcd60e51b815260206004820152602560248201527f4552433732313a207472616e736665722066726f6d20696e636f72726563742060448201526437bbb732b960d91b606482015260840161040f565b6001600160a01b03821661093d5760405162461bcd60e51b8152602060048201526024808201527f4552433732313a207472616e7366657220746f20746865207a65726f206164646044820152637265737360e01b606482015260840161040f565b610948838383610e0b565b610953600082610797565b6001600160a01b038316600090815260036020526040812080546001929061097c908490611828565b90915550506001600160a01b03821660009081526003602052604081208054600192906109aa90849061183f565b909155505060008181526002602052604080822080546001600160a01b0319166001600160a01b0386811691821790925591518493918716916000805160206119a083398151915291a4505050565b33610a02610622565b6001600160a01b0316146104f75760405162461bcd60e51b815260206004820181905260248201527f4f776e61626c653a2063616c6c6572206973206e6f7420746865206f776e6572604482015260640161040f565b610a60610e13565b6007805460ff191690557f5db9ee0a495bf2e6ff9c91a7834c1ba4fdd244a5e8aa4e537bd38aeae4b073aa335b604051610a9a91906114d1565b60405180910390a1565b61054281610e5c565b600780546001600160a01b03838116610100818102610100600160a81b031985161790945560405193909204169182907f8be0079c531659141344cd1fd0a4f28419497f9722a3daafe3b4186f6b6457e090600090a35050565b610b0f610e9c565b6007805460ff191660011790557f62e78cea01bee320cd4e420270b5ea74000d11b0c9f74754ebdbfc544b05a258610a8d3390565b816001600160a01b0316836001600160a01b031603610ba15760405162461bcd60e51b815260206004820152601960248201527822a9219b99189d1030b8383937bb32903a379031b0b63632b960391b604482015260640161040f565b6001600160a01b03838116600081815260056020908152604080832094871680845294825291829020805460ff191686151590811790915591519182527f17307eab39ab6107e8899845ad3d59bd9653f200f220920489ca2b5937696c31910160405180910390a3505050565b610c19848484610864565b610c2584848484610ee2565b6106865760405162461bcd60e51b815260040161040f90611857565b6060610c4c82610772565b60008281526006602052604081208054610c6590611758565b80601f0160208091040260200160405190810160405280929190818152602001828054610c9190611758565b8015610cde5780601f10610cb357610100808354040283529160200191610cde565b820191906000526020600020905b815481529060010190602001808311610cc157829003601f168201915b505050505090506000610cfc60408051602081019091526000815290565b90508051600003610d0e575092915050565b815115610d40578082604051602001610d289291906118a9565b60405160208183030381529060405292505050919050565b61085c84610fe3565b610650828260405180602001604052806000815250611057565b610d6c82610dee565b610dcf5760405162461bcd60e51b815260206004820152602e60248201527f45524337323155524953746f726167653a2055524920736574206f66206e6f6e60448201526d32bc34b9ba32b73a103a37b5b2b760911b606482015260840161040f565b600082815260066020908152604090912082516104b09284019061134b565b6000908152600260205260409020546001600160a01b0316151590565b6104b0610e9c565b60075460ff166104f75760405162461bcd60e51b815260206004820152601460248201527314185d5cd8589b194e881b9bdd081c185d5cd95960621b604482015260640161040f565b610e658161108a565b60008181526006602052604090208054610e7e90611758565b159050610542576000818152600660205260408120610542916113cf565b60075460ff16156104f75760405162461bcd60e51b815260206004820152601060248201526f14185d5cd8589b194e881c185d5cd95960821b604482015260640161040f565b60006001600160a01b0384163b15610fd857604051630a85bd0160e11b81526001600160a01b0385169063150b7a0290610f269033908990889088906004016118d8565b6020604051808303816000875af1925050508015610f61575060408051601f3d908101601f19168201909252610f5e91810190611915565b60015b610fbe573d808015610f8f576040519150601f19603f3d011682016040523d82523d6000602084013e610f94565b606091505b508051600003610fb65760405162461bcd60e51b815260040161040f90611857565b805181602001fd5b6001600160e01b031916630a85bd0160e11b14905061085c565b506001949350505050565b6060610fee82610772565b600061100560408051602081019091526000815290565b905060008151116110255760405180602001604052806000815250611050565b8061102f8461111f565b6040516020016110409291906118a9565b6040516020818303038152906040525b9392505050565b611061838361121f565b61106e6000848484610ee2565b6104b05760405162461bcd60e51b815260040161040f90611857565b600061109582610545565b90506110a381600084610e0b565b6110ae600083610797565b6001600160a01b03811660009081526003602052604081208054600192906110d7908490611828565b909155505060008281526002602052604080822080546001600160a01b0319169055518391906001600160a01b038416906000805160206119a0833981519152908390a45050565b6060816000036111465750506040805180820190915260018152600360fc1b602082015290565b8160005b8115611170578061115a81611932565b91506111699050600a83611961565b915061114a565b6000816001600160401b0381111561118a5761118a6115be565b6040519080825280601f01601f1916602001820160405280156111b4576020820181803683370190505b5090505b841561085c576111c9600183611828565b91506111d6600a86611975565b6111e190603061183f565b60f81b8183815181106111f6576111f6611989565b60200101906001600160f81b031916908160001a905350611218600a86611961565b94506111b8565b6001600160a01b0382166112755760405162461bcd60e51b815260206004820181905260248201527f4552433732313a206d696e7420746f20746865207a65726f2061646472657373604482015260640161040f565b61127e81610dee565b156112ca5760405162461bcd60e51b815260206004820152601c60248201527b115490cdcc8c4e881d1bdad95b88185b1c9958591e481b5a5b9d195960221b604482015260640161040f565b6112d660008383610e0b565b6001600160a01b03821660009081526003602052604081208054600192906112ff90849061183f565b909155505060008181526002602052604080822080546001600160a01b0319166001600160a01b03861690811790915590518392906000805160206119a0833981519152908290a45050565b82805461135790611758565b90600052602060002090601f01602090048101928261137957600085556113bf565b82601f1061139257805160ff19168380011785556113bf565b828001600101855582156113bf579182015b828111156113bf5782518255916020019190600101906113a4565b506113cb929150611405565b5090565b5080546113db90611758565b6000825580601f106113eb575050565b601f01602090049060005260206000209081019061054291905b5b808211156113cb5760008155600101611406565b6001600160e01b03198116811461054257600080fd5b60006020828403121561144257600080fd5b81356110508161141a565b60005b83811015611468578181015183820152602001611450565b838111156106865750506000910152565b6000815180845261149181602086016020860161144d565b601f01601f19169290920160200192915050565b6020815260006110506020830184611479565b6000602082840312156114ca57600080fd5b5035919050565b6001600160a01b0391909116815260200190565b80356001600160a01b03811681146114fc57600080fd5b919050565b6000806040838503121561151457600080fd5b61151d836114e5565b946020939093013593505050565b60008060006060848603121561154057600080fd5b611549846114e5565b9250611557602085016114e5565b9150604084013590509250925092565b60006020828403121561157957600080fd5b611050826114e5565b6000806040838503121561159557600080fd5b61159e836114e5565b9150602083013580151581146115b357600080fd5b809150509250929050565b634e487b7160e01b600052604160045260246000fd5b60006001600160401b03808411156115ee576115ee6115be565b604051601f8501601f19908116603f01168101908282118183101715611616576116166115be565b8160405280935085815286868601111561162f57600080fd5b858560208301376000602087830101525050509392505050565b6000806000806080858703121561165f57600080fd5b611668856114e5565b9350611676602086016114e5565b92506040850135915060608501356001600160401b0381111561169857600080fd5b8501601f810187136116a957600080fd5b6116b8878235602084016115d4565b91505092959194509250565b600080604083850312156116d757600080fd5b6116e0836114e5565b915060208301356001600160401b038111156116fb57600080fd5b8301601f8101851361170c57600080fd5b61171b858235602084016115d4565b9150509250929050565b6000806040838503121561173857600080fd5b611741836114e5565b915061174f602084016114e5565b90509250929050565b600181811c9082168061176c57607f821691505b60208210810361178c57634e487b7160e01b600052602260045260246000fd5b50919050565b6020808252602e908201527f4552433732313a2063616c6c6572206973206e6f7420746f6b656e206f776e6560408201526d1c881b9bdc88185c1c1c9bdd995960921b606082015260800190565b602080825260189082015277115490cdcc8c4e881a5b9d985b1a59081d1bdad95b88125160421b604082015260600190565b634e487b7160e01b600052601160045260246000fd5b60008282101561183a5761183a611812565b500390565b6000821982111561185257611852611812565b500190565b60208082526032908201527f4552433732313a207472616e7366657220746f206e6f6e20455243373231526560408201527131b2b4bb32b91034b6b83632b6b2b73a32b960711b606082015260800190565b600083516118bb81846020880161144d565b8351908301906118cf81836020880161144d565b01949350505050565b6001600160a01b038581168252841660208201526040810183905260806060820181905260009061190b90830184611479565b9695505050505050565b60006020828403121561192757600080fd5b81516110508161141a565b60006001820161194457611944611812565b5060010190565b634e487b7160e01b600052601260045260246000fd5b6000826119705761197061194b565b500490565b6000826119845761198461194b565b500690565b634e487b7160e01b600052603260045260246000fdfeddf252ad1be2c89b69c2b068fc378daa952ba7f163c4a11628f55a4df523b3efa26469706673582212203111380adc9b5e6916182d7229aeb898e09be547fdfd4ba326a622b69e294b2e64736f6c634300080e0033",
  "immutableReferences": {},
  "source": "// SPDX-License-Identifier: MIT\r\npragma solidity ^0.8.4;\r\n\r\nimport \"./lib/openzeppelin/contracts/token/ERC721/ERC721.sol\";\r\nimport \"./lib/openzeppelin/contracts/token/ERC721/extensions/ERC721URIStorage.sol\";\r\nimport \"./lib/openzeppelin/contracts/security/Pausable.sol\";\r\nimport \"./lib/openzeppelin/contracts/access/Ownable.sol\";\r\nimport \"./lib/openzeppelin/contracts/token/ERC721/extensions/ERC721Burnable.sol\";\r\nimport \"./lib/openzeppelin/contracts/utils/Counters.sol\";\r\n\r\n/// @custom:security-contact psj474@gmail.com\r\ncontract YopuToken is ERC721, ERC721URIStorage, Pausable, Ownable, ERC721Burnable {\r\n    using Counters for Counters.Counter;\r\n\r\n    Counters.Counter private _tokenIdCounter;\r\n\r\n    constructor() ERC721(\"YopuToken\", \"YPT\") {}\r\n\r\n    function pause() public onlyOwner {\r\n        _pause();\r\n    }\r\n\r\n    function unpause() public onlyOwner {\r\n        _unpause();\r\n    }\r\n\r\n    function safeMint(address to, string memory uri) public onlyOwner {\r\n        uint256 tokenId = _tokenIdCounter.current();\r\n        _tokenIdCounter.increment();\r\n        _safeMint(to, tokenId);\r\n        _setTokenURI(tokenId, uri);\r\n    }\r\n\r\n    function _beforeTokenTransfer(address from, address to, uint256 tokenId)\r\n        internal\r\n        whenNotPaused\r\n        override\r\n    {\r\n        super._beforeTokenTransfer(from, to, tokenId);\r\n    }\r\n\r\n    // The following functions are overrides required by Solidity.\r\n\r\n    function _burn(uint256 tokenId) internal override(ERC721, ERC721URIStorage) {\r\n        super._burn(tokenId);\r\n    }\r\n\r\n    function tokenURI(uint256 tokenId)\r\n        public\r\n        view\r\n        override(ERC721, ERC721URIStorage)\r\n        returns (string memory)\r\n    {\r\n        return super.tokenURI(tokenId);\r\n    }\r\n}",
  "sourcePath": "D:\\work\\www\\yopu_dapp_nft\\contracts\\YopuToken.sol",
  "compiler": {
    "name": "solc",
    "version": "0.8.14+commit.80d49f37.Emscripten.clang"
  },
  "schemaVersion": "3.4.7",
  "updatedAt": "2022-06-28T15:06:05.806Z",
  "networkType": "ethereum",
  "devdoc": {
    "custom:security-contact": "psj474@gmail.com",
    "kind": "dev",
    "methods": {
      "approve(address,uint256)": {
        "details": "See {IERC721-approve}."
      },
      "balanceOf(address)": {
        "details": "See {IERC721-balanceOf}."
      },
      "burn(uint256)": {
        "details": "Burns `tokenId`. See {ERC721-_burn}. Requirements: - The caller must own `tokenId` or be an approved operator."
      },
      "getApproved(uint256)": {
        "details": "See {IERC721-getApproved}."
      },
      "isApprovedForAll(address,address)": {
        "details": "See {IERC721-isApprovedForAll}."
      },
      "name()": {
        "details": "See {IERC721Metadata-name}."
      },
      "owner()": {
        "details": "Returns the address of the current owner."
      },
      "ownerOf(uint256)": {
        "details": "See {IERC721-ownerOf}."
      },
      "paused()": {
        "details": "Returns true if the contract is paused, and false otherwise."
      },
      "renounceOwnership()": {
        "details": "Leaves the contract without owner. It will not be possible to call `onlyOwner` functions anymore. Can only be called by the current owner. NOTE: Renouncing ownership will leave the contract without an owner, thereby removing any functionality that is only available to the owner."
      },
      "safeTransferFrom(address,address,uint256)": {
        "details": "See {IERC721-safeTransferFrom}."
      },
      "safeTransferFrom(address,address,uint256,bytes)": {
        "details": "See {IERC721-safeTransferFrom}."
      },
      "setApprovalForAll(address,bool)": {
        "details": "See {IERC721-setApprovalForAll}."
      },
      "supportsInterface(bytes4)": {
        "details": "See {IERC165-supportsInterface}."
      },
      "symbol()": {
        "details": "See {IERC721Metadata-symbol}."
      },
      "transferFrom(address,address,uint256)": {
        "details": "See {IERC721-transferFrom}."
      },
      "transferOwnership(address)": {
        "details": "Transfers ownership of the contract to a new account (`newOwner`). Can only be called by the current owner."
      }
    },
    "version": 1
  },
  "userdoc": {
    "kind": "user",
    "methods": {},
    "version": 1
  }
}